{
    "schemaVersion": "2.0.0",
    "contractName": "LibEIP1271",
    "compilerOutput": {
        "abi": [
            {
                "constant": true,
                "inputs": [],
                "name": "EIP1271_MAGIC_VALUE",
                "outputs": [
                    {
                        "internalType": "bytes4",
                        "name": "",
                        "type": "bytes4"
                    }
                ],
                "payable": false,
                "stateMutability": "view",
                "type": "function"
            }
        ],
        "devdoc": {
            "methods": {}
        },
        "evm": {
            "bytecode": {
                "linkReferences": {},
                "object": "0x6080604052348015600f57600080fd5b5060c18061001e6000396000f3fe6080604052348015600f57600080fd5b506004361060285760003560e01c8063dd885e2d14602d575b600080fd5b60336068565b604080517fffffffff000000000000000000000000000000000000000000000000000000009092168252519081900360200190f35b7f20c13b0b000000000000000000000000000000000000000000000000000000008156fea265627a7a72315820183190547b220e850db640cb0d7f94dc5ee57b0c58bd39062a368075f013dd2364736f6c63430005110032",
                "opcodes": "PUSH1 0x80 PUSH1 0x40 MSTORE CALLVALUE DUP1 ISZERO PUSH1 0xF JUMPI PUSH1 0x0 DUP1 REVERT JUMPDEST POP PUSH1 0xC1 DUP1 PUSH2 0x1E PUSH1 0x0 CODECOPY PUSH1 0x0 RETURN INVALID PUSH1 0x80 PUSH1 0x40 MSTORE CALLVALUE DUP1 ISZERO PUSH1 0xF JUMPI PUSH1 0x0 DUP1 REVERT JUMPDEST POP PUSH1 0x4 CALLDATASIZE LT PUSH1 0x28 JUMPI PUSH1 0x0 CALLDATALOAD PUSH1 0xE0 SHR DUP1 PUSH4 0xDD885E2D EQ PUSH1 0x2D JUMPI JUMPDEST PUSH1 0x0 DUP1 REVERT JUMPDEST PUSH1 0x33 PUSH1 0x68 JUMP JUMPDEST PUSH1 0x40 DUP1 MLOAD PUSH32 0xFFFFFFFF00000000000000000000000000000000000000000000000000000000 SWAP1 SWAP3 AND DUP3 MSTORE MLOAD SWAP1 DUP2 SWAP1 SUB PUSH1 0x20 ADD SWAP1 RETURN JUMPDEST PUSH32 0x20C13B0B00000000000000000000000000000000000000000000000000000000 DUP2 JUMP INVALID LOG2 PUSH6 0x627A7A723158 KECCAK256 XOR BALANCE SWAP1 SLOAD PUSH28 0x220E850DB640CB0D7F94DC5EE57B0C58BD39062A368075F013DD2364 PUSH20 0x6F6C634300051100320000000000000000000000 "
            }
        }
    },
    "sourceTreeHashHex": "0x36ef4b5773e4c74dc4f70093fde2e3ca462e560afcc420dcdd39e7ca1a02954b",
    "compiler": {
        "name": "solc",
        "version": "0.5.17+commit.d19bba13",
        "settings": {
            "remappings": [],
            "optimizer": {
                "enabled": true,
                "runs": 1000000,
                "details": {
                    "yul": true,
                    "deduplicate": true,
                    "cse": true,
                    "constantOptimizer": true
                }
            },
            "outputSelection": {
                "*": {
                    "*": [
                        "abi",
                        "devdoc",
                        "evm.bytecode.object",
                        "evm.bytecode.sourceMap",
                        "evm.deployedBytecode.object",
                        "evm.deployedBytecode.sourceMap"
                    ]
                }
            },
            "evmVersion": "istanbul"
        }
    },
    "chains": {}
}