{
    "schemaVersion": "2.0.0",
    "contractName": "BatchFillNativeOrdersFeature",
    "compilerOutput": {
        "abi": [
            {
                "inputs": [
                    {
                        "internalType": "address",
                        "name": "zeroExAddress",
                        "type": "address"
                    }
                ],
                "stateMutability": "nonpayable",
                "type": "constructor"
            },
            {
                "inputs": [],
                "name": "EIP712_DOMAIN_SEPARATOR",
                "outputs": [
                    {
                        "internalType": "bytes32",
                        "name": "",
                        "type": "bytes32"
                    }
                ],
                "stateMutability": "view",
                "type": "function"
            },
            {
                "inputs": [],
                "name": "FEATURE_NAME",
                "outputs": [
                    {
                        "internalType": "string",
                        "name": "",
                        "type": "string"
                    }
                ],
                "stateMutability": "view",
                "type": "function"
            },
            {
                "inputs": [],
                "name": "FEATURE_VERSION",
                "outputs": [
                    {
                        "internalType": "uint256",
                        "name": "",
                        "type": "uint256"
                    }
                ],
                "stateMutability": "view",
                "type": "function"
            },
            {
                "inputs": [
                    {
                        "components": [
                            {
                                "internalType": "contract IERC20TokenV06",
                                "name": "makerToken",
                                "type": "address"
                            },
                            {
                                "internalType": "contract IERC20TokenV06",
                                "name": "takerToken",
                                "type": "address"
                            },
                            {
                                "internalType": "uint128",
                                "name": "makerAmount",
                                "type": "uint128"
                            },
                            {
                                "internalType": "uint128",
                                "name": "takerAmount",
                                "type": "uint128"
                            },
                            {
                                "internalType": "uint128",
                                "name": "takerTokenFeeAmount",
                                "type": "uint128"
                            },
                            {
                                "internalType": "address",
                                "name": "maker",
                                "type": "address"
                            },
                            {
                                "internalType": "address",
                                "name": "taker",
                                "type": "address"
                            },
                            {
                                "internalType": "address",
                                "name": "sender",
                                "type": "address"
                            },
                            {
                                "internalType": "address",
                                "name": "feeRecipient",
                                "type": "address"
                            },
                            {
                                "internalType": "bytes32",
                                "name": "pool",
                                "type": "bytes32"
                            },
                            {
                                "internalType": "uint64",
                                "name": "expiry",
                                "type": "uint64"
                            },
                            {
                                "internalType": "uint256",
                                "name": "salt",
                                "type": "uint256"
                            }
                        ],
                        "internalType": "struct LibNativeOrder.LimitOrder[]",
                        "name": "orders",
                        "type": "tuple[]"
                    },
                    {
                        "components": [
                            {
                                "internalType": "enum LibSignature.SignatureType",
                                "name": "signatureType",
                                "type": "uint8"
                            },
                            {
                                "internalType": "uint8",
                                "name": "v",
                                "type": "uint8"
                            },
                            {
                                "internalType": "bytes32",
                                "name": "r",
                                "type": "bytes32"
                            },
                            {
                                "internalType": "bytes32",
                                "name": "s",
                                "type": "bytes32"
                            }
                        ],
                        "internalType": "struct LibSignature.Signature[]",
                        "name": "signatures",
                        "type": "tuple[]"
                    },
                    {
                        "internalType": "uint128[]",
                        "name": "takerTokenFillAmounts",
                        "type": "uint128[]"
                    },
                    {
                        "internalType": "bool",
                        "name": "revertIfIncomplete",
                        "type": "bool"
                    }
                ],
                "name": "batchFillLimitOrders",
                "outputs": [
                    {
                        "internalType": "uint128[]",
                        "name": "takerTokenFilledAmounts",
                        "type": "uint128[]"
                    },
                    {
                        "internalType": "uint128[]",
                        "name": "makerTokenFilledAmounts",
                        "type": "uint128[]"
                    }
                ],
                "stateMutability": "payable",
                "type": "function"
            },
            {
                "inputs": [
                    {
                        "components": [
                            {
                                "internalType": "contract IERC20TokenV06",
                                "name": "makerToken",
                                "type": "address"
                            },
                            {
                                "internalType": "contract IERC20TokenV06",
                                "name": "takerToken",
                                "type": "address"
                            },
                            {
                                "internalType": "uint128",
                                "name": "makerAmount",
                                "type": "uint128"
                            },
                            {
                                "internalType": "uint128",
                                "name": "takerAmount",
                                "type": "uint128"
                            },
                            {
                                "internalType": "address",
                                "name": "maker",
                                "type": "address"
                            },
                            {
                                "internalType": "address",
                                "name": "taker",
                                "type": "address"
                            },
                            {
                                "internalType": "address",
                                "name": "txOrigin",
                                "type": "address"
                            },
                            {
                                "internalType": "bytes32",
                                "name": "pool",
                                "type": "bytes32"
                            },
                            {
                                "internalType": "uint64",
                                "name": "expiry",
                                "type": "uint64"
                            },
                            {
                                "internalType": "uint256",
                                "name": "salt",
                                "type": "uint256"
                            }
                        ],
                        "internalType": "struct LibNativeOrder.RfqOrder[]",
                        "name": "orders",
                        "type": "tuple[]"
                    },
                    {
                        "components": [
                            {
                                "internalType": "enum LibSignature.SignatureType",
                                "name": "signatureType",
                                "type": "uint8"
                            },
                            {
                                "internalType": "uint8",
                                "name": "v",
                                "type": "uint8"
                            },
                            {
                                "internalType": "bytes32",
                                "name": "r",
                                "type": "bytes32"
                            },
                            {
                                "internalType": "bytes32",
                                "name": "s",
                                "type": "bytes32"
                            }
                        ],
                        "internalType": "struct LibSignature.Signature[]",
                        "name": "signatures",
                        "type": "tuple[]"
                    },
                    {
                        "internalType": "uint128[]",
                        "name": "takerTokenFillAmounts",
                        "type": "uint128[]"
                    },
                    {
                        "internalType": "bool",
                        "name": "revertIfIncomplete",
                        "type": "bool"
                    }
                ],
                "name": "batchFillRfqOrders",
                "outputs": [
                    {
                        "internalType": "uint128[]",
                        "name": "takerTokenFilledAmounts",
                        "type": "uint128[]"
                    },
                    {
                        "internalType": "uint128[]",
                        "name": "makerTokenFilledAmounts",
                        "type": "uint128[]"
                    }
                ],
                "stateMutability": "nonpayable",
                "type": "function"
            },
            {
                "inputs": [],
                "name": "migrate",
                "outputs": [
                    {
                        "internalType": "bytes4",
                        "name": "success",
                        "type": "bytes4"
                    }
                ],
                "stateMutability": "nonpayable",
                "type": "function"
            }
        ],
        "devdoc": {
            "details": "Feature for batch/market filling limit and RFQ orders.",
            "kind": "dev",
            "methods": {
                "batchFillLimitOrders((address,address,uint128,uint128,uint128,address,address,address,address,bytes32,uint64,uint256)[],(uint8,uint8,bytes32,bytes32)[],uint128[],bool)": {
                    "details": "Fills multiple limit orders.",
                    "params": {
                        "orders": "Array of limit orders.",
                        "revertIfIncomplete": "If true, reverts if this function fails to        fill the full fill amount for any individual order.",
                        "signatures": "Array of signatures corresponding to each order.",
                        "takerTokenFillAmounts": "Array of desired amounts to fill each order."
                    },
                    "returns": {
                        "makerTokenFilledAmounts": "Array of amounts filled, in maker token.",
                        "takerTokenFilledAmounts": "Array of amounts filled, in taker token."
                    }
                },
                "batchFillRfqOrders((address,address,uint128,uint128,address,address,address,bytes32,uint64,uint256)[],(uint8,uint8,bytes32,bytes32)[],uint128[],bool)": {
                    "details": "Fills multiple RFQ orders.",
                    "params": {
                        "orders": "Array of RFQ orders.",
                        "revertIfIncomplete": "If true, reverts if this function fails to        fill the full fill amount for any individual order.",
                        "signatures": "Array of signatures corresponding to each order.",
                        "takerTokenFillAmounts": "Array of desired amounts to fill each order."
                    },
                    "returns": {
                        "makerTokenFilledAmounts": "Array of amounts filled, in maker token.",
                        "takerTokenFilledAmounts": "Array of amounts filled, in taker token."
                    }
                },
                "migrate()": {
                    "details": "Initialize and register this feature.      Should be delegatecalled by `Migrate.migrate()`.",
                    "returns": {
                        "success": "`LibMigrate.SUCCESS` on success."
                    }
                }
            },
            "stateVariables": {
                "FEATURE_NAME": {
                    "details": "Name of this feature."
                },
                "FEATURE_VERSION": {
                    "details": "Version of this feature."
                }
            },
            "version": 1
        },
        "evm": {
            "bytecode": {
                "linkReferences": {},
                "object": "0x60e0604052620000136001806000620000f1565b60c0523480156200002357600080fd5b5060405162001c3338038062001c33833981016040819052620000469162000123565b3060601b60805260405181904690620000cc907f8b73c3c69bb8fe3d512ecc4cf759cc79239f7b179b0ffacaa9a75d522b39400f907f9e5dae0addaf20578aeb5d70341d092b53b4e14480ac5726438fd436df7ba427907f06c015bd22b4c69690933c1058878ebdfef31f9aaae40bbe86d8a09fe1b2972c908590879060200162000153565b60408051601f19818403018152919052805160209091012060a052506200017f915050565b6bffffffff0000000000000000604084901b1667ffffffff00000000602084901b161763ffffffff8216179392505050565b60006020828403121562000135578081fd5b81516001600160a01b03811681146200014c578182fd5b9392505050565b9485526020850193909352604084019190915260608301526001600160a01b0316608082015260a00190565b60805160601c60a05160c051611a7f620001b4600039806101315250806108cb5280610abe525080610de55250611a7f6000f3fe6080604052600436106100655760003560e01c806375103cb91161004357806375103cb9146100d85780638fd3ab80146100f8578063dab400f31461011a57610065565b8063031b905c1461006a5780631baaa00b146100955780636ae4b4f7146100b6575b600080fd5b34801561007657600080fd5b5061007f61012f565b60405161008c91906114d4565b60405180910390f35b6100a86100a3366004611005565b610153565b60405161008c9291906114a6565b3480156100c257600080fd5b506100cb61052c565b60405161008c9190611589565b3480156100e457600080fd5b506100a86100f33660046110d9565b610565565b34801561010457600080fd5b5061010d610850565b60405161008c91906114f3565b34801561012657600080fd5b5061007f6108c9565b7f000000000000000000000000000000000000000000000000000000000000000081565b606080878614801561016457508784145b6101a3576040517f08c379a000000000000000000000000000000000000000000000000000000000815260040161019a906115fa565b60405180910390fd5b8767ffffffffffffffff811180156101ba57600080fd5b506040519080825280602002602001820160405280156101e4578160200160208202803683370190505b5091508767ffffffffffffffff811180156101fe57600080fd5b50604051908082528060200260200182016040528015610228578160200160208202803683370190505b50905060006102c33a3073ffffffffffffffffffffffffffffffffffffffff1663487b5c206040518163ffffffff1660e01b815260040160206040518083038186803b15801561027757600080fd5b505afa15801561028b573d6000803e3d6000fd5b505050506040513d601f19601f820116820180604052508101906102af9190611349565b63ffffffff166108ed90919063ffffffff16565b90506000805b808b14610514573063414e4ccf8d8d848181106102e257fe5b905061018002018c8c858181106102f557fe5b9050608002018b8b8681811061030757fe5b905060200201602081019061031c91906112f4565b33336040518663ffffffff1660e01b815260040161033e959493929190611700565b6040805180830381600087803b15801561035757600080fd5b505af19250505080156103a5575060408051601f3d9081017fffffffffffffffffffffffffffffffffffffffffffffffffffffffffffffffe01682019092526103a291810190611310565b60015b6103ae57610401565b81818885815181106103bc57fe5b602002602001018886815181106103cf57fe5b6fffffffffffffffffffffffffffffffff9384166020918202929092010152911690526103fc8486610927565b935050505b858015610464575087878281811061041557fe5b905060200201602081019061042a91906112f4565b6fffffffffffffffffffffffffffffffff1685828151811061044857fe5b60200260200101516fffffffffffffffffffffffffffffffff16105b1561050c57600061049e6104998e8e8581811061047d57fe5b905061018002018036038101906104949190611140565b610943565b610aba565b905061050a610505828885815181106104b357fe5b60200260200101516fffffffffffffffffffffffffffffffff168c8c878181106104d957fe5b90506020020160208101906104ee91906112f4565b6fffffffffffffffffffffffffffffffff16610b0c565b610bca565b505b6001016102c9565b5061051e81610bd2565b505097509795505050505050565b6040518060400160405280600981526020017f426174636846696c6c000000000000000000000000000000000000000000000081525081565b606080878614801561057657508784145b6105ac576040517f08c379a000000000000000000000000000000000000000000000000000000000815260040161019a9061167d565b8767ffffffffffffffff811180156105c357600080fd5b506040519080825280602002602001820160405280156105ed578160200160208202803683370190505b5091508767ffffffffffffffff8111801561060757600080fd5b50604051908082528060200260200182016040528015610631578160200160208202803683370190505b50905060005b808914610843573063aa6b21cd8b8b8481811061065057fe5b905061014002018a8a8581811061066357fe5b90506080020189898681811061067557fe5b905060200201602081019061068a91906112f4565b336000336040518763ffffffff1660e01b81526004016106af9695949392919061186a565b6040805180830381600087803b1580156106c857600080fd5b505af1925050508015610716575060408051601f3d9081017fffffffffffffffffffffffffffffffffffffffffffffffffffffffffffffffe016820190925261071391810190611310565b60015b61071f57610766565b818186858151811061072d57fe5b6020026020010186868151811061074057fe5b6fffffffffffffffffffffffffffffffff93841660209182029290920101529116905250505b8380156107c9575085858281811061077a57fe5b905060200201602081019061078f91906112f4565b6fffffffffffffffffffffffffffffffff168382815181106107ad57fe5b60200260200101516fffffffffffffffffffffffffffffffff16105b1561083b5760006107fe6104998c8c858181106107e257fe5b905061014002018036038101906107f9919061122d565b610c78565b90506108396105058286858151811061081357fe5b60200260200101516fffffffffffffffffffffffffffffffff168a8a878181106104d957fe5b505b600101610637565b5097509795505050505050565b600061087b7f1baaa00b00000000000000000000000000000000000000000000000000000000610daf565b6108a47f75103cb900000000000000000000000000000000000000000000000000000000610daf565b507f2c64c5ef0000000000000000000000000000000000000000000000000000000090565b7f000000000000000000000000000000000000000000000000000000000000000081565b6000826108fc57506000610921565b8282028284828161090957fe5b041461091e5761091e61050560018686610e42565b90505b92915050565b60008282018381101561091e5761091e61050560008686610e42565b60006040517fce918627cb55462ddbb85e73de69a8b322f2bc88f4507c52fcad6d4c33c29d498152825173ffffffffffffffffffffffffffffffffffffffff166020820152602083015173ffffffffffffffffffffffffffffffffffffffff16604082015260408301516fffffffffffffffffffffffffffffffff16606082015260608301516fffffffffffffffffffffffffffffffff16608082015260808301516fffffffffffffffffffffffffffffffff1660a082015260a083015173ffffffffffffffffffffffffffffffffffffffff1660c082015260c083015173ffffffffffffffffffffffffffffffffffffffff1660e082015260e083015173ffffffffffffffffffffffffffffffffffffffff1661010082015261010083015173ffffffffffffffffffffffffffffffffffffffff1661012082015261012083015161014082015261014083015167ffffffffffffffff166101608201526101608301516101808201526101a08120915050919050565b60007f000000000000000000000000000000000000000000000000000000000000000082604051602001610aef929190611447565b604051602081830303815290604052805190602001209050919050565b60607f1d44aa5d44fd7162f13b456f3c7766598d02f56029c083df67a6f11a6edd3c3e848484604051602401610b44939291906114dd565b604080517fffffffffffffffffffffffffffffffffffffffffffffffffffffffffffffffe08184030181529190526020810180517bffffffffffffffffffffffffffffffffffffffffffffffffffffffff167fffffffff000000000000000000000000000000000000000000000000000000009093169290921790915290509392505050565b805160208201fd5b8034118015610be15750333014155b15610c75576000610bf23483610e61565b905060003373ffffffffffffffffffffffffffffffffffffffff1682604051610c1a9061147d565b60006040518083038185875af1925050503d8060008114610c57576040519150601f19603f3d011682016040523d82523d6000602084013e610c5c565b606091505b5050905080610c7257610c726105053384610e80565b50505b50565b60006040517fe593d3fdfa8b60e5e17a1b2204662ecbe15c23f2084b9ad5bae40359540a7da98152825173ffffffffffffffffffffffffffffffffffffffff166020820152602083015173ffffffffffffffffffffffffffffffffffffffff16604082015260408301516fffffffffffffffffffffffffffffffff16606082015260608301516fffffffffffffffffffffffffffffffff166080820152608083015173ffffffffffffffffffffffffffffffffffffffff1660a082015260a083015173ffffffffffffffffffffffffffffffffffffffff1660c082015260c083015173ffffffffffffffffffffffffffffffffffffffff1660e082015260e083015161010082015261010083015167ffffffffffffffff166101208201526101208301516101408201526101608120915050919050565b6040517f6eb224cb0000000000000000000000000000000000000000000000000000000081523090636eb224cb90610e0d9084907f000000000000000000000000000000000000000000000000000000000000000090600401611520565b600060405180830381600087803b158015610e2757600080fd5b505af1158015610e3b573d6000803e3d6000fd5b5050505050565b606063e946c1bb60e01b848484604051602401610b4493929190611568565b600082821115610e7a57610e7a61050560028585610e42565b50900390565b60607fbde95cc2119e0200d80642397198abfcf98e6e4dddd0de9c6320d86252ad40ab8383604051602401610eb6929190611480565b604080517fffffffffffffffffffffffffffffffffffffffffffffffffffffffffffffffe08184030181529190526020810180517bffffffffffffffffffffffffffffffffffffffffffffffffffffffff167fffffffff0000000000000000000000000000000000000000000000000000000090931692909217909152905092915050565b803561092181611a09565b60008083601f840112610f57578182fd5b50813567ffffffffffffffff811115610f6e578182fd5b602083019150836020608083028501011115610f8957600080fd5b9250929050565b60008083601f840112610fa1578182fd5b50813567ffffffffffffffff811115610fb8578182fd5b6020830191508360208083028501011115610f8957600080fd5b8035801515811461092157600080fd5b803561092181611a2b565b803567ffffffffffffffff8116811461092157600080fd5b60008060008060008060006080888a03121561101f578283fd5b873567ffffffffffffffff80821115611036578485fd5b818a0191508a601f830112611049578485fd5b813581811115611057578586fd5b8b60206101808302850101111561106c578586fd5b602092830199509750908901359080821115611086578485fd5b6110928b838c01610f46565b909750955060408a01359150808211156110aa578485fd5b506110b78a828b01610f90565b90945092506110cb90508960608a01610fd2565b905092959891949750929550565b60008060008060008060006080888a0312156110f3578283fd5b873567ffffffffffffffff8082111561110a578485fd5b818a0191508a601f83011261111d578485fd5b81358181111561112b578586fd5b8b60206101408302850101111561106c578586fd5b6000610180808385031215611153578182fd5b61115c816119a5565b90506111688484610f3b565b81526111778460208501610f3b565b60208201526111898460408501610fe2565b604082015261119b8460608501610fe2565b60608201526111ad8460808501610fe2565b60808201526111bf8460a08501610f3b565b60a08201526111d18460c08501610f3b565b60c08201526111e38460e08501610f3b565b60e08201526101006111f785828601610f3b565b90820152610120838101359082015261014061121585828601610fed565b90820152610160928301359281019290925250919050565b6000610140808385031215611240578182fd5b611249816119a5565b90506112558484610f3b565b81526112648460208501610f3b565b60208201526112768460408501610fe2565b60408201526112888460608501610fe2565b606082015261129a8460808501610f3b565b60808201526112ac8460a08501610f3b565b60a08201526112be8460c08501610f3b565b60c082015260e083013560e08201526101006112dc85828601610fed565b90820152610120928301359281019290925250919050565b600060208284031215611305578081fd5b813561091e81611a2b565b60008060408385031215611322578182fd5b825161132d81611a2b565b602084015190925061133e81611a2b565b809150509250929050565b60006020828403121561135a578081fd5b815163ffffffff8116811461091e578182fd5b73ffffffffffffffffffffffffffffffffffffffff169052565b6000815180845260208085019450808401835b838110156113c85781516fffffffffffffffffffffffffffffffff168752958201959082019060010161139a565b509495945050505050565b15159052565b8035600481106113e857600080fd5b6113f1816119ff565b8252602081013560ff811680821461140857600080fd5b60208401525060408181013590830152606090810135910152565b6fffffffffffffffffffffffffffffffff169052565b67ffffffffffffffff169052565b7f190100000000000000000000000000000000000000000000000000000000000081526002810192909252602282015260420190565b90565b73ffffffffffffffffffffffffffffffffffffffff929092168252602082015260400190565b6000604082526114b96040830185611387565b82810360208401526114cb8185611387565b95945050505050565b90815260200190565b9283526020830191909152604082015260600190565b7fffffffff0000000000000000000000000000000000000000000000000000000091909116815260200190565b7fffffffff0000000000000000000000000000000000000000000000000000000092909216825273ffffffffffffffffffffffffffffffffffffffff16602082015260400190565b60608101611575856119ff565b938152602081019290925260409091015290565b6000602080835283518082850152825b818110156115b557858101830151858201604001528201611599565b818111156115c65783604083870101525b50601f017fffffffffffffffffffffffffffffffffffffffffffffffffffffffffffffffe016929092016040019392505050565b6020808252604b908201527f426174636846696c6c4e61746976654f7264657273466561747572653a3a626160408201527f74636846696c6c4c696d69744f72646572732f4d49534d4154434845445f415260608201527f5241595f4c454e47544853000000000000000000000000000000000000000000608082015260a00190565b60208082526049908201527f426174636846696c6c4e61746976654f7264657273466561747572653a3a626160408201527f74636846696c6c5266714f72646572732f4d49534d4154434845445f4152524160608201527f595f4c454e475448530000000000000000000000000000000000000000000000608082015260a00190565b61026081016020870161171c83611717838b610f3b565b61136d565b61172681896119cc565b9050611735602084018261136d565b5061174360408801886119d9565b6117506040840182611423565b5061175e60608801886119d9565b61176b6060840182611423565b5061177960808801886119d9565b6117866080840182611423565b5061179460a08801886119cc565b6117a160a084018261136d565b506117af60c08801886119cc565b6117bc60c084018261136d565b506117ca60e08801886119cc565b6117d760e084018261136d565b506101006117e7818901896119cc565b6117f38285018261136d565b5050610120878101359083015261014061180f818901896119e6565b61181b82850182611439565b505061016087810135908301526118366101808301876113d9565b611844610200830186611423565b61185261022083018561136d565b61186061024083018461136d565b9695505050505050565b61024081016020880161188183611717838c610f3b565b61188b818a6119cc565b905061189a602084018261136d565b506118a860408901896119d9565b6118b56040840182611423565b506118c360608901896119d9565b6118d06060840182611423565b506118de60808901896119cc565b6118eb608084018261136d565b506118f960a08901896119cc565b61190660a084018261136d565b5061191460c08901896119cc565b61192160c084018261136d565b5060e088013560e083015261010061193b818a018a6119e6565b61194782850182611439565b505061012088810135908301526119626101408301886113d9565b6119706101c0830187611423565b61197e6101e083018661136d565b61198c6102008301856113d3565b61199a61022083018461136d565b979650505050505050565b60405181810167ffffffffffffffff811182821017156119c457600080fd5b604052919050565b6000823561091e81611a09565b6000823561091e81611a2b565b6000823567ffffffffffffffff8116811461091e578182fd5b60048110610c7557fe5b73ffffffffffffffffffffffffffffffffffffffff81168114610c7557600080fd5b6fffffffffffffffffffffffffffffffff81168114610c7557600080fdfea2646970667358221220ffc8787fffc77d8d83e7e2625e77b880e5da053cffcfd299306574ab5e4720a964736f6c634300060c0033",
                "opcodes": "PUSH1 0xE0 PUSH1 0x40 MSTORE PUSH3 0x13 PUSH1 0x1 DUP1 PUSH1 0x0 PUSH3 0xF1 JUMP JUMPDEST PUSH1 0xC0 MSTORE CALLVALUE DUP1 ISZERO PUSH3 0x23 JUMPI PUSH1 0x0 DUP1 REVERT JUMPDEST POP PUSH1 0x40 MLOAD PUSH3 0x1C33 CODESIZE SUB DUP1 PUSH3 0x1C33 DUP4 CODECOPY DUP2 ADD PUSH1 0x40 DUP2 SWAP1 MSTORE PUSH3 0x46 SWAP2 PUSH3 0x123 JUMP JUMPDEST ADDRESS PUSH1 0x60 SHL PUSH1 0x80 MSTORE PUSH1 0x40 MLOAD DUP2 SWAP1 CHAINID SWAP1 PUSH3 0xCC SWAP1 PUSH32 0x8B73C3C69BB8FE3D512ECC4CF759CC79239F7B179B0FFACAA9A75D522B39400F SWAP1 PUSH32 0x9E5DAE0ADDAF20578AEB5D70341D092B53B4E14480AC5726438FD436DF7BA427 SWAP1 PUSH32 0x6C015BD22B4C69690933C1058878EBDFEF31F9AAAE40BBE86D8A09FE1B2972C SWAP1 DUP6 SWAP1 DUP8 SWAP1 PUSH1 0x20 ADD PUSH3 0x153 JUMP JUMPDEST PUSH1 0x40 DUP1 MLOAD PUSH1 0x1F NOT DUP2 DUP5 SUB ADD DUP2 MSTORE SWAP2 SWAP1 MSTORE DUP1 MLOAD PUSH1 0x20 SWAP1 SWAP2 ADD KECCAK256 PUSH1 0xA0 MSTORE POP PUSH3 0x17F SWAP2 POP POP JUMP JUMPDEST PUSH12 0xFFFFFFFF0000000000000000 PUSH1 0x40 DUP5 SWAP1 SHL AND PUSH8 0xFFFFFFFF00000000 PUSH1 0x20 DUP5 SWAP1 SHL AND OR PUSH4 0xFFFFFFFF DUP3 AND OR SWAP4 SWAP3 POP POP POP JUMP JUMPDEST PUSH1 0x0 PUSH1 0x20 DUP3 DUP5 SUB SLT ISZERO PUSH3 0x135 JUMPI DUP1 DUP2 REVERT JUMPDEST DUP2 MLOAD PUSH1 0x1 PUSH1 0x1 PUSH1 0xA0 SHL SUB DUP2 AND DUP2 EQ PUSH3 0x14C JUMPI DUP2 DUP3 REVERT JUMPDEST SWAP4 SWAP3 POP POP POP JUMP JUMPDEST SWAP5 DUP6 MSTORE PUSH1 0x20 DUP6 ADD SWAP4 SWAP1 SWAP4 MSTORE PUSH1 0x40 DUP5 ADD SWAP2 SWAP1 SWAP2 MSTORE PUSH1 0x60 DUP4 ADD MSTORE PUSH1 0x1 PUSH1 0x1 PUSH1 0xA0 SHL SUB AND PUSH1 0x80 DUP3 ADD MSTORE PUSH1 0xA0 ADD SWAP1 JUMP JUMPDEST PUSH1 0x80 MLOAD PUSH1 0x60 SHR PUSH1 0xA0 MLOAD PUSH1 0xC0 MLOAD PUSH2 0x1A7F PUSH3 0x1B4 PUSH1 0x0 CODECOPY DUP1 PUSH2 0x131 MSTORE POP DUP1 PUSH2 0x8CB MSTORE DUP1 PUSH2 0xABE MSTORE POP DUP1 PUSH2 0xDE5 MSTORE POP PUSH2 0x1A7F PUSH1 0x0 RETURN INVALID PUSH1 0x80 PUSH1 0x40 MSTORE PUSH1 0x4 CALLDATASIZE LT PUSH2 0x65 JUMPI PUSH1 0x0 CALLDATALOAD PUSH1 0xE0 SHR DUP1 PUSH4 0x75103CB9 GT PUSH2 0x43 JUMPI DUP1 PUSH4 0x75103CB9 EQ PUSH2 0xD8 JUMPI DUP1 PUSH4 0x8FD3AB80 EQ PUSH2 0xF8 JUMPI DUP1 PUSH4 0xDAB400F3 EQ PUSH2 0x11A JUMPI PUSH2 0x65 JUMP JUMPDEST DUP1 PUSH4 0x31B905C EQ PUSH2 0x6A JUMPI DUP1 PUSH4 0x1BAAA00B EQ PUSH2 0x95 JUMPI DUP1 PUSH4 0x6AE4B4F7 EQ PUSH2 0xB6 JUMPI JUMPDEST PUSH1 0x0 DUP1 REVERT JUMPDEST CALLVALUE DUP1 ISZERO PUSH2 0x76 JUMPI PUSH1 0x0 DUP1 REVERT JUMPDEST POP PUSH2 0x7F PUSH2 0x12F JUMP JUMPDEST PUSH1 0x40 MLOAD PUSH2 0x8C SWAP2 SWAP1 PUSH2 0x14D4 JUMP JUMPDEST PUSH1 0x40 MLOAD DUP1 SWAP2 SUB SWAP1 RETURN JUMPDEST PUSH2 0xA8 PUSH2 0xA3 CALLDATASIZE PUSH1 0x4 PUSH2 0x1005 JUMP JUMPDEST PUSH2 0x153 JUMP JUMPDEST PUSH1 0x40 MLOAD PUSH2 0x8C SWAP3 SWAP2 SWAP1 PUSH2 0x14A6 JUMP JUMPDEST CALLVALUE DUP1 ISZERO PUSH2 0xC2 JUMPI PUSH1 0x0 DUP1 REVERT JUMPDEST POP PUSH2 0xCB PUSH2 0x52C JUMP JUMPDEST PUSH1 0x40 MLOAD PUSH2 0x8C SWAP2 SWAP1 PUSH2 0x1589 JUMP JUMPDEST CALLVALUE DUP1 ISZERO PUSH2 0xE4 JUMPI PUSH1 0x0 DUP1 REVERT JUMPDEST POP PUSH2 0xA8 PUSH2 0xF3 CALLDATASIZE PUSH1 0x4 PUSH2 0x10D9 JUMP JUMPDEST PUSH2 0x565 JUMP JUMPDEST CALLVALUE DUP1 ISZERO PUSH2 0x104 JUMPI PUSH1 0x0 DUP1 REVERT JUMPDEST POP PUSH2 0x10D PUSH2 0x850 JUMP JUMPDEST PUSH1 0x40 MLOAD PUSH2 0x8C SWAP2 SWAP1 PUSH2 0x14F3 JUMP JUMPDEST CALLVALUE DUP1 ISZERO PUSH2 0x126 JUMPI PUSH1 0x0 DUP1 REVERT JUMPDEST POP PUSH2 0x7F PUSH2 0x8C9 JUMP JUMPDEST PUSH32 0x0 DUP2 JUMP JUMPDEST PUSH1 0x60 DUP1 DUP8 DUP7 EQ DUP1 ISZERO PUSH2 0x164 JUMPI POP DUP8 DUP5 EQ JUMPDEST PUSH2 0x1A3 JUMPI PUSH1 0x40 MLOAD PUSH32 0x8C379A000000000000000000000000000000000000000000000000000000000 DUP2 MSTORE PUSH1 0x4 ADD PUSH2 0x19A SWAP1 PUSH2 0x15FA JUMP JUMPDEST PUSH1 0x40 MLOAD DUP1 SWAP2 SUB SWAP1 REVERT JUMPDEST DUP8 PUSH8 0xFFFFFFFFFFFFFFFF DUP2 GT DUP1 ISZERO PUSH2 0x1BA JUMPI PUSH1 0x0 DUP1 REVERT JUMPDEST POP PUSH1 0x40 MLOAD SWAP1 DUP1 DUP3 MSTORE DUP1 PUSH1 0x20 MUL PUSH1 0x20 ADD DUP3 ADD PUSH1 0x40 MSTORE DUP1 ISZERO PUSH2 0x1E4 JUMPI DUP2 PUSH1 0x20 ADD PUSH1 0x20 DUP3 MUL DUP1 CALLDATASIZE DUP4 CALLDATACOPY ADD SWAP1 POP JUMPDEST POP SWAP2 POP DUP8 PUSH8 0xFFFFFFFFFFFFFFFF DUP2 GT DUP1 ISZERO PUSH2 0x1FE JUMPI PUSH1 0x0 DUP1 REVERT JUMPDEST POP PUSH1 0x40 MLOAD SWAP1 DUP1 DUP3 MSTORE DUP1 PUSH1 0x20 MUL PUSH1 0x20 ADD DUP3 ADD PUSH1 0x40 MSTORE DUP1 ISZERO PUSH2 0x228 JUMPI DUP2 PUSH1 0x20 ADD PUSH1 0x20 DUP3 MUL DUP1 CALLDATASIZE DUP4 CALLDATACOPY ADD SWAP1 POP JUMPDEST POP SWAP1 POP PUSH1 0x0 PUSH2 0x2C3 GASPRICE ADDRESS PUSH20 0xFFFFFFFFFFFFFFFFFFFFFFFFFFFFFFFFFFFFFFFF AND PUSH4 0x487B5C20 PUSH1 0x40 MLOAD DUP2 PUSH4 0xFFFFFFFF AND PUSH1 0xE0 SHL DUP2 MSTORE PUSH1 0x4 ADD PUSH1 0x20 PUSH1 0x40 MLOAD DUP1 DUP4 SUB DUP2 DUP7 DUP1 EXTCODESIZE ISZERO DUP1 ISZERO PUSH2 0x277 JUMPI PUSH1 0x0 DUP1 REVERT JUMPDEST POP GAS STATICCALL ISZERO DUP1 ISZERO PUSH2 0x28B JUMPI RETURNDATASIZE PUSH1 0x0 DUP1 RETURNDATACOPY RETURNDATASIZE PUSH1 0x0 REVERT JUMPDEST POP POP POP POP PUSH1 0x40 MLOAD RETURNDATASIZE PUSH1 0x1F NOT PUSH1 0x1F DUP3 ADD AND DUP3 ADD DUP1 PUSH1 0x40 MSTORE POP DUP2 ADD SWAP1 PUSH2 0x2AF SWAP2 SWAP1 PUSH2 0x1349 JUMP JUMPDEST PUSH4 0xFFFFFFFF AND PUSH2 0x8ED SWAP1 SWAP2 SWAP1 PUSH4 0xFFFFFFFF AND JUMP JUMPDEST SWAP1 POP PUSH1 0x0 DUP1 JUMPDEST DUP1 DUP12 EQ PUSH2 0x514 JUMPI ADDRESS PUSH4 0x414E4CCF DUP14 DUP14 DUP5 DUP2 DUP2 LT PUSH2 0x2E2 JUMPI INVALID JUMPDEST SWAP1 POP PUSH2 0x180 MUL ADD DUP13 DUP13 DUP6 DUP2 DUP2 LT PUSH2 0x2F5 JUMPI INVALID JUMPDEST SWAP1 POP PUSH1 0x80 MUL ADD DUP12 DUP12 DUP7 DUP2 DUP2 LT PUSH2 0x307 JUMPI INVALID JUMPDEST SWAP1 POP PUSH1 0x20 MUL ADD PUSH1 0x20 DUP2 ADD SWAP1 PUSH2 0x31C SWAP2 SWAP1 PUSH2 0x12F4 JUMP JUMPDEST CALLER CALLER PUSH1 0x40 MLOAD DUP7 PUSH4 0xFFFFFFFF AND PUSH1 0xE0 SHL DUP2 MSTORE PUSH1 0x4 ADD PUSH2 0x33E SWAP6 SWAP5 SWAP4 SWAP3 SWAP2 SWAP1 PUSH2 0x1700 JUMP JUMPDEST PUSH1 0x40 DUP1 MLOAD DUP1 DUP4 SUB DUP2 PUSH1 0x0 DUP8 DUP1 EXTCODESIZE ISZERO DUP1 ISZERO PUSH2 0x357 JUMPI PUSH1 0x0 DUP1 REVERT JUMPDEST POP GAS CALL SWAP3 POP POP POP DUP1 ISZERO PUSH2 0x3A5 JUMPI POP PUSH1 0x40 DUP1 MLOAD PUSH1 0x1F RETURNDATASIZE SWAP1 DUP2 ADD PUSH32 0xFFFFFFFFFFFFFFFFFFFFFFFFFFFFFFFFFFFFFFFFFFFFFFFFFFFFFFFFFFFFFFE0 AND DUP3 ADD SWAP1 SWAP3 MSTORE PUSH2 0x3A2 SWAP2 DUP2 ADD SWAP1 PUSH2 0x1310 JUMP JUMPDEST PUSH1 0x1 JUMPDEST PUSH2 0x3AE JUMPI PUSH2 0x401 JUMP JUMPDEST DUP2 DUP2 DUP9 DUP6 DUP2 MLOAD DUP2 LT PUSH2 0x3BC JUMPI INVALID JUMPDEST PUSH1 0x20 MUL PUSH1 0x20 ADD ADD DUP9 DUP7 DUP2 MLOAD DUP2 LT PUSH2 0x3CF JUMPI INVALID JUMPDEST PUSH16 0xFFFFFFFFFFFFFFFFFFFFFFFFFFFFFFFF SWAP4 DUP5 AND PUSH1 0x20 SWAP2 DUP3 MUL SWAP3 SWAP1 SWAP3 ADD ADD MSTORE SWAP2 AND SWAP1 MSTORE PUSH2 0x3FC DUP5 DUP7 PUSH2 0x927 JUMP JUMPDEST SWAP4 POP POP POP JUMPDEST DUP6 DUP1 ISZERO PUSH2 0x464 JUMPI POP DUP8 DUP8 DUP3 DUP2 DUP2 LT PUSH2 0x415 JUMPI INVALID JUMPDEST SWAP1 POP PUSH1 0x20 MUL ADD PUSH1 0x20 DUP2 ADD SWAP1 PUSH2 0x42A SWAP2 SWAP1 PUSH2 0x12F4 JUMP JUMPDEST PUSH16 0xFFFFFFFFFFFFFFFFFFFFFFFFFFFFFFFF AND DUP6 DUP3 DUP2 MLOAD DUP2 LT PUSH2 0x448 JUMPI INVALID JUMPDEST PUSH1 0x20 MUL PUSH1 0x20 ADD ADD MLOAD PUSH16 0xFFFFFFFFFFFFFFFFFFFFFFFFFFFFFFFF AND LT JUMPDEST ISZERO PUSH2 0x50C JUMPI PUSH1 0x0 PUSH2 0x49E PUSH2 0x499 DUP15 DUP15 DUP6 DUP2 DUP2 LT PUSH2 0x47D JUMPI INVALID JUMPDEST SWAP1 POP PUSH2 0x180 MUL ADD DUP1 CALLDATASIZE SUB DUP2 ADD SWAP1 PUSH2 0x494 SWAP2 SWAP1 PUSH2 0x1140 JUMP JUMPDEST PUSH2 0x943 JUMP JUMPDEST PUSH2 0xABA JUMP JUMPDEST SWAP1 POP PUSH2 0x50A PUSH2 0x505 DUP3 DUP9 DUP6 DUP2 MLOAD DUP2 LT PUSH2 0x4B3 JUMPI INVALID JUMPDEST PUSH1 0x20 MUL PUSH1 0x20 ADD ADD MLOAD PUSH16 0xFFFFFFFFFFFFFFFFFFFFFFFFFFFFFFFF AND DUP13 DUP13 DUP8 DUP2 DUP2 LT PUSH2 0x4D9 JUMPI INVALID JUMPDEST SWAP1 POP PUSH1 0x20 MUL ADD PUSH1 0x20 DUP2 ADD SWAP1 PUSH2 0x4EE SWAP2 SWAP1 PUSH2 0x12F4 JUMP JUMPDEST PUSH16 0xFFFFFFFFFFFFFFFFFFFFFFFFFFFFFFFF AND PUSH2 0xB0C JUMP JUMPDEST PUSH2 0xBCA JUMP JUMPDEST POP JUMPDEST PUSH1 0x1 ADD PUSH2 0x2C9 JUMP JUMPDEST POP PUSH2 0x51E DUP2 PUSH2 0xBD2 JUMP JUMPDEST POP POP SWAP8 POP SWAP8 SWAP6 POP POP POP POP POP POP JUMP JUMPDEST PUSH1 0x40 MLOAD DUP1 PUSH1 0x40 ADD PUSH1 0x40 MSTORE DUP1 PUSH1 0x9 DUP2 MSTORE PUSH1 0x20 ADD PUSH32 0x426174636846696C6C0000000000000000000000000000000000000000000000 DUP2 MSTORE POP DUP2 JUMP JUMPDEST PUSH1 0x60 DUP1 DUP8 DUP7 EQ DUP1 ISZERO PUSH2 0x576 JUMPI POP DUP8 DUP5 EQ JUMPDEST PUSH2 0x5AC JUMPI PUSH1 0x40 MLOAD PUSH32 0x8C379A000000000000000000000000000000000000000000000000000000000 DUP2 MSTORE PUSH1 0x4 ADD PUSH2 0x19A SWAP1 PUSH2 0x167D JUMP JUMPDEST DUP8 PUSH8 0xFFFFFFFFFFFFFFFF DUP2 GT DUP1 ISZERO PUSH2 0x5C3 JUMPI PUSH1 0x0 DUP1 REVERT JUMPDEST POP PUSH1 0x40 MLOAD SWAP1 DUP1 DUP3 MSTORE DUP1 PUSH1 0x20 MUL PUSH1 0x20 ADD DUP3 ADD PUSH1 0x40 MSTORE DUP1 ISZERO PUSH2 0x5ED JUMPI DUP2 PUSH1 0x20 ADD PUSH1 0x20 DUP3 MUL DUP1 CALLDATASIZE DUP4 CALLDATACOPY ADD SWAP1 POP JUMPDEST POP SWAP2 POP DUP8 PUSH8 0xFFFFFFFFFFFFFFFF DUP2 GT DUP1 ISZERO PUSH2 0x607 JUMPI PUSH1 0x0 DUP1 REVERT JUMPDEST POP PUSH1 0x40 MLOAD SWAP1 DUP1 DUP3 MSTORE DUP1 PUSH1 0x20 MUL PUSH1 0x20 ADD DUP3 ADD PUSH1 0x40 MSTORE DUP1 ISZERO PUSH2 0x631 JUMPI DUP2 PUSH1 0x20 ADD PUSH1 0x20 DUP3 MUL DUP1 CALLDATASIZE DUP4 CALLDATACOPY ADD SWAP1 POP JUMPDEST POP SWAP1 POP PUSH1 0x0 JUMPDEST DUP1 DUP10 EQ PUSH2 0x843 JUMPI ADDRESS PUSH4 0xAA6B21CD DUP12 DUP12 DUP5 DUP2 DUP2 LT PUSH2 0x650 JUMPI INVALID JUMPDEST SWAP1 POP PUSH2 0x140 MUL ADD DUP11 DUP11 DUP6 DUP2 DUP2 LT PUSH2 0x663 JUMPI INVALID JUMPDEST SWAP1 POP PUSH1 0x80 MUL ADD DUP10 DUP10 DUP7 DUP2 DUP2 LT PUSH2 0x675 JUMPI INVALID JUMPDEST SWAP1 POP PUSH1 0x20 MUL ADD PUSH1 0x20 DUP2 ADD SWAP1 PUSH2 0x68A SWAP2 SWAP1 PUSH2 0x12F4 JUMP JUMPDEST CALLER PUSH1 0x0 CALLER PUSH1 0x40 MLOAD DUP8 PUSH4 0xFFFFFFFF AND PUSH1 0xE0 SHL DUP2 MSTORE PUSH1 0x4 ADD PUSH2 0x6AF SWAP7 SWAP6 SWAP5 SWAP4 SWAP3 SWAP2 SWAP1 PUSH2 0x186A JUMP JUMPDEST PUSH1 0x40 DUP1 MLOAD DUP1 DUP4 SUB DUP2 PUSH1 0x0 DUP8 DUP1 EXTCODESIZE ISZERO DUP1 ISZERO PUSH2 0x6C8 JUMPI PUSH1 0x0 DUP1 REVERT JUMPDEST POP GAS CALL SWAP3 POP POP POP DUP1 ISZERO PUSH2 0x716 JUMPI POP PUSH1 0x40 DUP1 MLOAD PUSH1 0x1F RETURNDATASIZE SWAP1 DUP2 ADD PUSH32 0xFFFFFFFFFFFFFFFFFFFFFFFFFFFFFFFFFFFFFFFFFFFFFFFFFFFFFFFFFFFFFFE0 AND DUP3 ADD SWAP1 SWAP3 MSTORE PUSH2 0x713 SWAP2 DUP2 ADD SWAP1 PUSH2 0x1310 JUMP JUMPDEST PUSH1 0x1 JUMPDEST PUSH2 0x71F JUMPI PUSH2 0x766 JUMP JUMPDEST DUP2 DUP2 DUP7 DUP6 DUP2 MLOAD DUP2 LT PUSH2 0x72D JUMPI INVALID JUMPDEST PUSH1 0x20 MUL PUSH1 0x20 ADD ADD DUP7 DUP7 DUP2 MLOAD DUP2 LT PUSH2 0x740 JUMPI INVALID JUMPDEST PUSH16 0xFFFFFFFFFFFFFFFFFFFFFFFFFFFFFFFF SWAP4 DUP5 AND PUSH1 0x20 SWAP2 DUP3 MUL SWAP3 SWAP1 SWAP3 ADD ADD MSTORE SWAP2 AND SWAP1 MSTORE POP POP JUMPDEST DUP4 DUP1 ISZERO PUSH2 0x7C9 JUMPI POP DUP6 DUP6 DUP3 DUP2 DUP2 LT PUSH2 0x77A JUMPI INVALID JUMPDEST SWAP1 POP PUSH1 0x20 MUL ADD PUSH1 0x20 DUP2 ADD SWAP1 PUSH2 0x78F SWAP2 SWAP1 PUSH2 0x12F4 JUMP JUMPDEST PUSH16 0xFFFFFFFFFFFFFFFFFFFFFFFFFFFFFFFF AND DUP4 DUP3 DUP2 MLOAD DUP2 LT PUSH2 0x7AD JUMPI INVALID JUMPDEST PUSH1 0x20 MUL PUSH1 0x20 ADD ADD MLOAD PUSH16 0xFFFFFFFFFFFFFFFFFFFFFFFFFFFFFFFF AND LT JUMPDEST ISZERO PUSH2 0x83B JUMPI PUSH1 0x0 PUSH2 0x7FE PUSH2 0x499 DUP13 DUP13 DUP6 DUP2 DUP2 LT PUSH2 0x7E2 JUMPI INVALID JUMPDEST SWAP1 POP PUSH2 0x140 MUL ADD DUP1 CALLDATASIZE SUB DUP2 ADD SWAP1 PUSH2 0x7F9 SWAP2 SWAP1 PUSH2 0x122D JUMP JUMPDEST PUSH2 0xC78 JUMP JUMPDEST SWAP1 POP PUSH2 0x839 PUSH2 0x505 DUP3 DUP7 DUP6 DUP2 MLOAD DUP2 LT PUSH2 0x813 JUMPI INVALID JUMPDEST PUSH1 0x20 MUL PUSH1 0x20 ADD ADD MLOAD PUSH16 0xFFFFFFFFFFFFFFFFFFFFFFFFFFFFFFFF AND DUP11 DUP11 DUP8 DUP2 DUP2 LT PUSH2 0x4D9 JUMPI INVALID JUMPDEST POP JUMPDEST PUSH1 0x1 ADD PUSH2 0x637 JUMP JUMPDEST POP SWAP8 POP SWAP8 SWAP6 POP POP POP POP POP POP JUMP JUMPDEST PUSH1 0x0 PUSH2 0x87B PUSH32 0x1BAAA00B00000000000000000000000000000000000000000000000000000000 PUSH2 0xDAF JUMP JUMPDEST PUSH2 0x8A4 PUSH32 0x75103CB900000000000000000000000000000000000000000000000000000000 PUSH2 0xDAF JUMP JUMPDEST POP PUSH32 0x2C64C5EF00000000000000000000000000000000000000000000000000000000 SWAP1 JUMP JUMPDEST PUSH32 0x0 DUP2 JUMP JUMPDEST PUSH1 0x0 DUP3 PUSH2 0x8FC JUMPI POP PUSH1 0x0 PUSH2 0x921 JUMP JUMPDEST DUP3 DUP3 MUL DUP3 DUP5 DUP3 DUP2 PUSH2 0x909 JUMPI INVALID JUMPDEST DIV EQ PUSH2 0x91E JUMPI PUSH2 0x91E PUSH2 0x505 PUSH1 0x1 DUP7 DUP7 PUSH2 0xE42 JUMP JUMPDEST SWAP1 POP JUMPDEST SWAP3 SWAP2 POP POP JUMP JUMPDEST PUSH1 0x0 DUP3 DUP3 ADD DUP4 DUP2 LT ISZERO PUSH2 0x91E JUMPI PUSH2 0x91E PUSH2 0x505 PUSH1 0x0 DUP7 DUP7 PUSH2 0xE42 JUMP JUMPDEST PUSH1 0x0 PUSH1 0x40 MLOAD PUSH32 0xCE918627CB55462DDBB85E73DE69A8B322F2BC88F4507C52FCAD6D4C33C29D49 DUP2 MSTORE DUP3 MLOAD PUSH20 0xFFFFFFFFFFFFFFFFFFFFFFFFFFFFFFFFFFFFFFFF AND PUSH1 0x20 DUP3 ADD MSTORE PUSH1 0x20 DUP4 ADD MLOAD PUSH20 0xFFFFFFFFFFFFFFFFFFFFFFFFFFFFFFFFFFFFFFFF AND PUSH1 0x40 DUP3 ADD MSTORE PUSH1 0x40 DUP4 ADD MLOAD PUSH16 0xFFFFFFFFFFFFFFFFFFFFFFFFFFFFFFFF AND PUSH1 0x60 DUP3 ADD MSTORE PUSH1 0x60 DUP4 ADD MLOAD PUSH16 0xFFFFFFFFFFFFFFFFFFFFFFFFFFFFFFFF AND PUSH1 0x80 DUP3 ADD MSTORE PUSH1 0x80 DUP4 ADD MLOAD PUSH16 0xFFFFFFFFFFFFFFFFFFFFFFFFFFFFFFFF AND PUSH1 0xA0 DUP3 ADD MSTORE PUSH1 0xA0 DUP4 ADD MLOAD PUSH20 0xFFFFFFFFFFFFFFFFFFFFFFFFFFFFFFFFFFFFFFFF AND PUSH1 0xC0 DUP3 ADD MSTORE PUSH1 0xC0 DUP4 ADD MLOAD PUSH20 0xFFFFFFFFFFFFFFFFFFFFFFFFFFFFFFFFFFFFFFFF AND PUSH1 0xE0 DUP3 ADD MSTORE PUSH1 0xE0 DUP4 ADD MLOAD PUSH20 0xFFFFFFFFFFFFFFFFFFFFFFFFFFFFFFFFFFFFFFFF AND PUSH2 0x100 DUP3 ADD MSTORE PUSH2 0x100 DUP4 ADD MLOAD PUSH20 0xFFFFFFFFFFFFFFFFFFFFFFFFFFFFFFFFFFFFFFFF AND PUSH2 0x120 DUP3 ADD MSTORE PUSH2 0x120 DUP4 ADD MLOAD PUSH2 0x140 DUP3 ADD MSTORE PUSH2 0x140 DUP4 ADD MLOAD PUSH8 0xFFFFFFFFFFFFFFFF AND PUSH2 0x160 DUP3 ADD MSTORE PUSH2 0x160 DUP4 ADD MLOAD PUSH2 0x180 DUP3 ADD MSTORE PUSH2 0x1A0 DUP2 KECCAK256 SWAP2 POP POP SWAP2 SWAP1 POP JUMP JUMPDEST PUSH1 0x0 PUSH32 0x0 DUP3 PUSH1 0x40 MLOAD PUSH1 0x20 ADD PUSH2 0xAEF SWAP3 SWAP2 SWAP1 PUSH2 0x1447 JUMP JUMPDEST PUSH1 0x40 MLOAD PUSH1 0x20 DUP2 DUP4 SUB SUB DUP2 MSTORE SWAP1 PUSH1 0x40 MSTORE DUP1 MLOAD SWAP1 PUSH1 0x20 ADD KECCAK256 SWAP1 POP SWAP2 SWAP1 POP JUMP JUMPDEST PUSH1 0x60 PUSH32 0x1D44AA5D44FD7162F13B456F3C7766598D02F56029C083DF67A6F11A6EDD3C3E DUP5 DUP5 DUP5 PUSH1 0x40 MLOAD PUSH1 0x24 ADD PUSH2 0xB44 SWAP4 SWAP3 SWAP2 SWAP1 PUSH2 0x14DD JUMP JUMPDEST PUSH1 0x40 DUP1 MLOAD PUSH32 0xFFFFFFFFFFFFFFFFFFFFFFFFFFFFFFFFFFFFFFFFFFFFFFFFFFFFFFFFFFFFFFE0 DUP2 DUP5 SUB ADD DUP2 MSTORE SWAP2 SWAP1 MSTORE PUSH1 0x20 DUP2 ADD DUP1 MLOAD PUSH28 0xFFFFFFFFFFFFFFFFFFFFFFFFFFFFFFFFFFFFFFFFFFFFFFFFFFFFFFFF AND PUSH32 0xFFFFFFFF00000000000000000000000000000000000000000000000000000000 SWAP1 SWAP4 AND SWAP3 SWAP1 SWAP3 OR SWAP1 SWAP2 MSTORE SWAP1 POP SWAP4 SWAP3 POP POP POP JUMP JUMPDEST DUP1 MLOAD PUSH1 0x20 DUP3 ADD REVERT JUMPDEST DUP1 CALLVALUE GT DUP1 ISZERO PUSH2 0xBE1 JUMPI POP CALLER ADDRESS EQ ISZERO JUMPDEST ISZERO PUSH2 0xC75 JUMPI PUSH1 0x0 PUSH2 0xBF2 CALLVALUE DUP4 PUSH2 0xE61 JUMP JUMPDEST SWAP1 POP PUSH1 0x0 CALLER PUSH20 0xFFFFFFFFFFFFFFFFFFFFFFFFFFFFFFFFFFFFFFFF AND DUP3 PUSH1 0x40 MLOAD PUSH2 0xC1A SWAP1 PUSH2 0x147D JUMP JUMPDEST PUSH1 0x0 PUSH1 0x40 MLOAD DUP1 DUP4 SUB DUP2 DUP6 DUP8 GAS CALL SWAP3 POP POP POP RETURNDATASIZE DUP1 PUSH1 0x0 DUP2 EQ PUSH2 0xC57 JUMPI PUSH1 0x40 MLOAD SWAP2 POP PUSH1 0x1F NOT PUSH1 0x3F RETURNDATASIZE ADD AND DUP3 ADD PUSH1 0x40 MSTORE RETURNDATASIZE DUP3 MSTORE RETURNDATASIZE PUSH1 0x0 PUSH1 0x20 DUP5 ADD RETURNDATACOPY PUSH2 0xC5C JUMP JUMPDEST PUSH1 0x60 SWAP2 POP JUMPDEST POP POP SWAP1 POP DUP1 PUSH2 0xC72 JUMPI PUSH2 0xC72 PUSH2 0x505 CALLER DUP5 PUSH2 0xE80 JUMP JUMPDEST POP POP JUMPDEST POP JUMP JUMPDEST PUSH1 0x0 PUSH1 0x40 MLOAD PUSH32 0xE593D3FDFA8B60E5E17A1B2204662ECBE15C23F2084B9AD5BAE40359540A7DA9 DUP2 MSTORE DUP3 MLOAD PUSH20 0xFFFFFFFFFFFFFFFFFFFFFFFFFFFFFFFFFFFFFFFF AND PUSH1 0x20 DUP3 ADD MSTORE PUSH1 0x20 DUP4 ADD MLOAD PUSH20 0xFFFFFFFFFFFFFFFFFFFFFFFFFFFFFFFFFFFFFFFF AND PUSH1 0x40 DUP3 ADD MSTORE PUSH1 0x40 DUP4 ADD MLOAD PUSH16 0xFFFFFFFFFFFFFFFFFFFFFFFFFFFFFFFF AND PUSH1 0x60 DUP3 ADD MSTORE PUSH1 0x60 DUP4 ADD MLOAD PUSH16 0xFFFFFFFFFFFFFFFFFFFFFFFFFFFFFFFF AND PUSH1 0x80 DUP3 ADD MSTORE PUSH1 0x80 DUP4 ADD MLOAD PUSH20 0xFFFFFFFFFFFFFFFFFFFFFFFFFFFFFFFFFFFFFFFF AND PUSH1 0xA0 DUP3 ADD MSTORE PUSH1 0xA0 DUP4 ADD MLOAD PUSH20 0xFFFFFFFFFFFFFFFFFFFFFFFFFFFFFFFFFFFFFFFF AND PUSH1 0xC0 DUP3 ADD MSTORE PUSH1 0xC0 DUP4 ADD MLOAD PUSH20 0xFFFFFFFFFFFFFFFFFFFFFFFFFFFFFFFFFFFFFFFF AND PUSH1 0xE0 DUP3 ADD MSTORE PUSH1 0xE0 DUP4 ADD MLOAD PUSH2 0x100 DUP3 ADD MSTORE PUSH2 0x100 DUP4 ADD MLOAD PUSH8 0xFFFFFFFFFFFFFFFF AND PUSH2 0x120 DUP3 ADD MSTORE PUSH2 0x120 DUP4 ADD MLOAD PUSH2 0x140 DUP3 ADD MSTORE PUSH2 0x160 DUP2 KECCAK256 SWAP2 POP POP SWAP2 SWAP1 POP JUMP JUMPDEST PUSH1 0x40 MLOAD PUSH32 0x6EB224CB00000000000000000000000000000000000000000000000000000000 DUP2 MSTORE ADDRESS SWAP1 PUSH4 0x6EB224CB SWAP1 PUSH2 0xE0D SWAP1 DUP5 SWAP1 PUSH32 0x0 SWAP1 PUSH1 0x4 ADD PUSH2 0x1520 JUMP JUMPDEST PUSH1 0x0 PUSH1 0x40 MLOAD DUP1 DUP4 SUB DUP2 PUSH1 0x0 DUP8 DUP1 EXTCODESIZE ISZERO DUP1 ISZERO PUSH2 0xE27 JUMPI PUSH1 0x0 DUP1 REVERT JUMPDEST POP GAS CALL ISZERO DUP1 ISZERO PUSH2 0xE3B JUMPI RETURNDATASIZE PUSH1 0x0 DUP1 RETURNDATACOPY RETURNDATASIZE PUSH1 0x0 REVERT JUMPDEST POP POP POP POP POP JUMP JUMPDEST PUSH1 0x60 PUSH4 0xE946C1BB PUSH1 0xE0 SHL DUP5 DUP5 DUP5 PUSH1 0x40 MLOAD PUSH1 0x24 ADD PUSH2 0xB44 SWAP4 SWAP3 SWAP2 SWAP1 PUSH2 0x1568 JUMP JUMPDEST PUSH1 0x0 DUP3 DUP3 GT ISZERO PUSH2 0xE7A JUMPI PUSH2 0xE7A PUSH2 0x505 PUSH1 0x2 DUP6 DUP6 PUSH2 0xE42 JUMP JUMPDEST POP SWAP1 SUB SWAP1 JUMP JUMPDEST PUSH1 0x60 PUSH32 0xBDE95CC2119E0200D80642397198ABFCF98E6E4DDDD0DE9C6320D86252AD40AB DUP4 DUP4 PUSH1 0x40 MLOAD PUSH1 0x24 ADD PUSH2 0xEB6 SWAP3 SWAP2 SWAP1 PUSH2 0x1480 JUMP JUMPDEST PUSH1 0x40 DUP1 MLOAD PUSH32 0xFFFFFFFFFFFFFFFFFFFFFFFFFFFFFFFFFFFFFFFFFFFFFFFFFFFFFFFFFFFFFFE0 DUP2 DUP5 SUB ADD DUP2 MSTORE SWAP2 SWAP1 MSTORE PUSH1 0x20 DUP2 ADD DUP1 MLOAD PUSH28 0xFFFFFFFFFFFFFFFFFFFFFFFFFFFFFFFFFFFFFFFFFFFFFFFFFFFFFFFF AND PUSH32 0xFFFFFFFF00000000000000000000000000000000000000000000000000000000 SWAP1 SWAP4 AND SWAP3 SWAP1 SWAP3 OR SWAP1 SWAP2 MSTORE SWAP1 POP SWAP3 SWAP2 POP POP JUMP JUMPDEST DUP1 CALLDATALOAD PUSH2 0x921 DUP2 PUSH2 0x1A09 JUMP JUMPDEST PUSH1 0x0 DUP1 DUP4 PUSH1 0x1F DUP5 ADD SLT PUSH2 0xF57 JUMPI DUP2 DUP3 REVERT JUMPDEST POP DUP2 CALLDATALOAD PUSH8 0xFFFFFFFFFFFFFFFF DUP2 GT ISZERO PUSH2 0xF6E JUMPI DUP2 DUP3 REVERT JUMPDEST PUSH1 0x20 DUP4 ADD SWAP2 POP DUP4 PUSH1 0x20 PUSH1 0x80 DUP4 MUL DUP6 ADD ADD GT ISZERO PUSH2 0xF89 JUMPI PUSH1 0x0 DUP1 REVERT JUMPDEST SWAP3 POP SWAP3 SWAP1 POP JUMP JUMPDEST PUSH1 0x0 DUP1 DUP4 PUSH1 0x1F DUP5 ADD SLT PUSH2 0xFA1 JUMPI DUP2 DUP3 REVERT JUMPDEST POP DUP2 CALLDATALOAD PUSH8 0xFFFFFFFFFFFFFFFF DUP2 GT ISZERO PUSH2 0xFB8 JUMPI DUP2 DUP3 REVERT JUMPDEST PUSH1 0x20 DUP4 ADD SWAP2 POP DUP4 PUSH1 0x20 DUP1 DUP4 MUL DUP6 ADD ADD GT ISZERO PUSH2 0xF89 JUMPI PUSH1 0x0 DUP1 REVERT JUMPDEST DUP1 CALLDATALOAD DUP1 ISZERO ISZERO DUP2 EQ PUSH2 0x921 JUMPI PUSH1 0x0 DUP1 REVERT JUMPDEST DUP1 CALLDATALOAD PUSH2 0x921 DUP2 PUSH2 0x1A2B JUMP JUMPDEST DUP1 CALLDATALOAD PUSH8 0xFFFFFFFFFFFFFFFF DUP2 AND DUP2 EQ PUSH2 0x921 JUMPI PUSH1 0x0 DUP1 REVERT JUMPDEST PUSH1 0x0 DUP1 PUSH1 0x0 DUP1 PUSH1 0x0 DUP1 PUSH1 0x0 PUSH1 0x80 DUP9 DUP11 SUB SLT ISZERO PUSH2 0x101F JUMPI DUP3 DUP4 REVERT JUMPDEST DUP8 CALLDATALOAD PUSH8 0xFFFFFFFFFFFFFFFF DUP1 DUP3 GT ISZERO PUSH2 0x1036 JUMPI DUP5 DUP6 REVERT JUMPDEST DUP2 DUP11 ADD SWAP2 POP DUP11 PUSH1 0x1F DUP4 ADD SLT PUSH2 0x1049 JUMPI DUP5 DUP6 REVERT JUMPDEST DUP2 CALLDATALOAD DUP2 DUP2 GT ISZERO PUSH2 0x1057 JUMPI DUP6 DUP7 REVERT JUMPDEST DUP12 PUSH1 0x20 PUSH2 0x180 DUP4 MUL DUP6 ADD ADD GT ISZERO PUSH2 0x106C JUMPI DUP6 DUP7 REVERT JUMPDEST PUSH1 0x20 SWAP3 DUP4 ADD SWAP10 POP SWAP8 POP SWAP1 DUP10 ADD CALLDATALOAD SWAP1 DUP1 DUP3 GT ISZERO PUSH2 0x1086 JUMPI DUP5 DUP6 REVERT JUMPDEST PUSH2 0x1092 DUP12 DUP4 DUP13 ADD PUSH2 0xF46 JUMP JUMPDEST SWAP1 SWAP8 POP SWAP6 POP PUSH1 0x40 DUP11 ADD CALLDATALOAD SWAP2 POP DUP1 DUP3 GT ISZERO PUSH2 0x10AA JUMPI DUP5 DUP6 REVERT JUMPDEST POP PUSH2 0x10B7 DUP11 DUP3 DUP12 ADD PUSH2 0xF90 JUMP JUMPDEST SWAP1 SWAP5 POP SWAP3 POP PUSH2 0x10CB SWAP1 POP DUP10 PUSH1 0x60 DUP11 ADD PUSH2 0xFD2 JUMP JUMPDEST SWAP1 POP SWAP3 SWAP6 SWAP9 SWAP2 SWAP5 SWAP8 POP SWAP3 SWAP6 POP JUMP JUMPDEST PUSH1 0x0 DUP1 PUSH1 0x0 DUP1 PUSH1 0x0 DUP1 PUSH1 0x0 PUSH1 0x80 DUP9 DUP11 SUB SLT ISZERO PUSH2 0x10F3 JUMPI DUP3 DUP4 REVERT JUMPDEST DUP8 CALLDATALOAD PUSH8 0xFFFFFFFFFFFFFFFF DUP1 DUP3 GT ISZERO PUSH2 0x110A JUMPI DUP5 DUP6 REVERT JUMPDEST DUP2 DUP11 ADD SWAP2 POP DUP11 PUSH1 0x1F DUP4 ADD SLT PUSH2 0x111D JUMPI DUP5 DUP6 REVERT JUMPDEST DUP2 CALLDATALOAD DUP2 DUP2 GT ISZERO PUSH2 0x112B JUMPI DUP6 DUP7 REVERT JUMPDEST DUP12 PUSH1 0x20 PUSH2 0x140 DUP4 MUL DUP6 ADD ADD GT ISZERO PUSH2 0x106C JUMPI DUP6 DUP7 REVERT JUMPDEST PUSH1 0x0 PUSH2 0x180 DUP1 DUP4 DUP6 SUB SLT ISZERO PUSH2 0x1153 JUMPI DUP2 DUP3 REVERT JUMPDEST PUSH2 0x115C DUP2 PUSH2 0x19A5 JUMP JUMPDEST SWAP1 POP PUSH2 0x1168 DUP5 DUP5 PUSH2 0xF3B JUMP JUMPDEST DUP2 MSTORE PUSH2 0x1177 DUP5 PUSH1 0x20 DUP6 ADD PUSH2 0xF3B JUMP JUMPDEST PUSH1 0x20 DUP3 ADD MSTORE PUSH2 0x1189 DUP5 PUSH1 0x40 DUP6 ADD PUSH2 0xFE2 JUMP JUMPDEST PUSH1 0x40 DUP3 ADD MSTORE PUSH2 0x119B DUP5 PUSH1 0x60 DUP6 ADD PUSH2 0xFE2 JUMP JUMPDEST PUSH1 0x60 DUP3 ADD MSTORE PUSH2 0x11AD DUP5 PUSH1 0x80 DUP6 ADD PUSH2 0xFE2 JUMP JUMPDEST PUSH1 0x80 DUP3 ADD MSTORE PUSH2 0x11BF DUP5 PUSH1 0xA0 DUP6 ADD PUSH2 0xF3B JUMP JUMPDEST PUSH1 0xA0 DUP3 ADD MSTORE PUSH2 0x11D1 DUP5 PUSH1 0xC0 DUP6 ADD PUSH2 0xF3B JUMP JUMPDEST PUSH1 0xC0 DUP3 ADD MSTORE PUSH2 0x11E3 DUP5 PUSH1 0xE0 DUP6 ADD PUSH2 0xF3B JUMP JUMPDEST PUSH1 0xE0 DUP3 ADD MSTORE PUSH2 0x100 PUSH2 0x11F7 DUP6 DUP3 DUP7 ADD PUSH2 0xF3B JUMP JUMPDEST SWAP1 DUP3 ADD MSTORE PUSH2 0x120 DUP4 DUP2 ADD CALLDATALOAD SWAP1 DUP3 ADD MSTORE PUSH2 0x140 PUSH2 0x1215 DUP6 DUP3 DUP7 ADD PUSH2 0xFED JUMP JUMPDEST SWAP1 DUP3 ADD MSTORE PUSH2 0x160 SWAP3 DUP4 ADD CALLDATALOAD SWAP3 DUP2 ADD SWAP3 SWAP1 SWAP3 MSTORE POP SWAP2 SWAP1 POP JUMP JUMPDEST PUSH1 0x0 PUSH2 0x140 DUP1 DUP4 DUP6 SUB SLT ISZERO PUSH2 0x1240 JUMPI DUP2 DUP3 REVERT JUMPDEST PUSH2 0x1249 DUP2 PUSH2 0x19A5 JUMP JUMPDEST SWAP1 POP PUSH2 0x1255 DUP5 DUP5 PUSH2 0xF3B JUMP JUMPDEST DUP2 MSTORE PUSH2 0x1264 DUP5 PUSH1 0x20 DUP6 ADD PUSH2 0xF3B JUMP JUMPDEST PUSH1 0x20 DUP3 ADD MSTORE PUSH2 0x1276 DUP5 PUSH1 0x40 DUP6 ADD PUSH2 0xFE2 JUMP JUMPDEST PUSH1 0x40 DUP3 ADD MSTORE PUSH2 0x1288 DUP5 PUSH1 0x60 DUP6 ADD PUSH2 0xFE2 JUMP JUMPDEST PUSH1 0x60 DUP3 ADD MSTORE PUSH2 0x129A DUP5 PUSH1 0x80 DUP6 ADD PUSH2 0xF3B JUMP JUMPDEST PUSH1 0x80 DUP3 ADD MSTORE PUSH2 0x12AC DUP5 PUSH1 0xA0 DUP6 ADD PUSH2 0xF3B JUMP JUMPDEST PUSH1 0xA0 DUP3 ADD MSTORE PUSH2 0x12BE DUP5 PUSH1 0xC0 DUP6 ADD PUSH2 0xF3B JUMP JUMPDEST PUSH1 0xC0 DUP3 ADD MSTORE PUSH1 0xE0 DUP4 ADD CALLDATALOAD PUSH1 0xE0 DUP3 ADD MSTORE PUSH2 0x100 PUSH2 0x12DC DUP6 DUP3 DUP7 ADD PUSH2 0xFED JUMP JUMPDEST SWAP1 DUP3 ADD MSTORE PUSH2 0x120 SWAP3 DUP4 ADD CALLDATALOAD SWAP3 DUP2 ADD SWAP3 SWAP1 SWAP3 MSTORE POP SWAP2 SWAP1 POP JUMP JUMPDEST PUSH1 0x0 PUSH1 0x20 DUP3 DUP5 SUB SLT ISZERO PUSH2 0x1305 JUMPI DUP1 DUP2 REVERT JUMPDEST DUP2 CALLDATALOAD PUSH2 0x91E DUP2 PUSH2 0x1A2B JUMP JUMPDEST PUSH1 0x0 DUP1 PUSH1 0x40 DUP4 DUP6 SUB SLT ISZERO PUSH2 0x1322 JUMPI DUP2 DUP3 REVERT JUMPDEST DUP3 MLOAD PUSH2 0x132D DUP2 PUSH2 0x1A2B JUMP JUMPDEST PUSH1 0x20 DUP5 ADD MLOAD SWAP1 SWAP3 POP PUSH2 0x133E DUP2 PUSH2 0x1A2B JUMP JUMPDEST DUP1 SWAP2 POP POP SWAP3 POP SWAP3 SWAP1 POP JUMP JUMPDEST PUSH1 0x0 PUSH1 0x20 DUP3 DUP5 SUB SLT ISZERO PUSH2 0x135A JUMPI DUP1 DUP2 REVERT JUMPDEST DUP2 MLOAD PUSH4 0xFFFFFFFF DUP2 AND DUP2 EQ PUSH2 0x91E JUMPI DUP2 DUP3 REVERT JUMPDEST PUSH20 0xFFFFFFFFFFFFFFFFFFFFFFFFFFFFFFFFFFFFFFFF AND SWAP1 MSTORE JUMP JUMPDEST PUSH1 0x0 DUP2 MLOAD DUP1 DUP5 MSTORE PUSH1 0x20 DUP1 DUP6 ADD SWAP5 POP DUP1 DUP5 ADD DUP4 JUMPDEST DUP4 DUP2 LT ISZERO PUSH2 0x13C8 JUMPI DUP2 MLOAD PUSH16 0xFFFFFFFFFFFFFFFFFFFFFFFFFFFFFFFF AND DUP8 MSTORE SWAP6 DUP3 ADD SWAP6 SWAP1 DUP3 ADD SWAP1 PUSH1 0x1 ADD PUSH2 0x139A JUMP JUMPDEST POP SWAP5 SWAP6 SWAP5 POP POP POP POP POP JUMP JUMPDEST ISZERO ISZERO SWAP1 MSTORE JUMP JUMPDEST DUP1 CALLDATALOAD PUSH1 0x4 DUP2 LT PUSH2 0x13E8 JUMPI PUSH1 0x0 DUP1 REVERT JUMPDEST PUSH2 0x13F1 DUP2 PUSH2 0x19FF JUMP JUMPDEST DUP3 MSTORE PUSH1 0x20 DUP2 ADD CALLDATALOAD PUSH1 0xFF DUP2 AND DUP1 DUP3 EQ PUSH2 0x1408 JUMPI PUSH1 0x0 DUP1 REVERT JUMPDEST PUSH1 0x20 DUP5 ADD MSTORE POP PUSH1 0x40 DUP2 DUP2 ADD CALLDATALOAD SWAP1 DUP4 ADD MSTORE PUSH1 0x60 SWAP1 DUP2 ADD CALLDATALOAD SWAP2 ADD MSTORE JUMP JUMPDEST PUSH16 0xFFFFFFFFFFFFFFFFFFFFFFFFFFFFFFFF AND SWAP1 MSTORE JUMP JUMPDEST PUSH8 0xFFFFFFFFFFFFFFFF AND SWAP1 MSTORE JUMP JUMPDEST PUSH32 0x1901000000000000000000000000000000000000000000000000000000000000 DUP2 MSTORE PUSH1 0x2 DUP2 ADD SWAP3 SWAP1 SWAP3 MSTORE PUSH1 0x22 DUP3 ADD MSTORE PUSH1 0x42 ADD SWAP1 JUMP JUMPDEST SWAP1 JUMP JUMPDEST PUSH20 0xFFFFFFFFFFFFFFFFFFFFFFFFFFFFFFFFFFFFFFFF SWAP3 SWAP1 SWAP3 AND DUP3 MSTORE PUSH1 0x20 DUP3 ADD MSTORE PUSH1 0x40 ADD SWAP1 JUMP JUMPDEST PUSH1 0x0 PUSH1 0x40 DUP3 MSTORE PUSH2 0x14B9 PUSH1 0x40 DUP4 ADD DUP6 PUSH2 0x1387 JUMP JUMPDEST DUP3 DUP2 SUB PUSH1 0x20 DUP5 ADD MSTORE PUSH2 0x14CB DUP2 DUP6 PUSH2 0x1387 JUMP JUMPDEST SWAP6 SWAP5 POP POP POP POP POP JUMP JUMPDEST SWAP1 DUP2 MSTORE PUSH1 0x20 ADD SWAP1 JUMP JUMPDEST SWAP3 DUP4 MSTORE PUSH1 0x20 DUP4 ADD SWAP2 SWAP1 SWAP2 MSTORE PUSH1 0x40 DUP3 ADD MSTORE PUSH1 0x60 ADD SWAP1 JUMP JUMPDEST PUSH32 0xFFFFFFFF00000000000000000000000000000000000000000000000000000000 SWAP2 SWAP1 SWAP2 AND DUP2 MSTORE PUSH1 0x20 ADD SWAP1 JUMP JUMPDEST PUSH32 0xFFFFFFFF00000000000000000000000000000000000000000000000000000000 SWAP3 SWAP1 SWAP3 AND DUP3 MSTORE PUSH20 0xFFFFFFFFFFFFFFFFFFFFFFFFFFFFFFFFFFFFFFFF AND PUSH1 0x20 DUP3 ADD MSTORE PUSH1 0x40 ADD SWAP1 JUMP JUMPDEST PUSH1 0x60 DUP2 ADD PUSH2 0x1575 DUP6 PUSH2 0x19FF JUMP JUMPDEST SWAP4 DUP2 MSTORE PUSH1 0x20 DUP2 ADD SWAP3 SWAP1 SWAP3 MSTORE PUSH1 0x40 SWAP1 SWAP2 ADD MSTORE SWAP1 JUMP JUMPDEST PUSH1 0x0 PUSH1 0x20 DUP1 DUP4 MSTORE DUP4 MLOAD DUP1 DUP3 DUP6 ADD MSTORE DUP3 JUMPDEST DUP2 DUP2 LT ISZERO PUSH2 0x15B5 JUMPI DUP6 DUP2 ADD DUP4 ADD MLOAD DUP6 DUP3 ADD PUSH1 0x40 ADD MSTORE DUP3 ADD PUSH2 0x1599 JUMP JUMPDEST DUP2 DUP2 GT ISZERO PUSH2 0x15C6 JUMPI DUP4 PUSH1 0x40 DUP4 DUP8 ADD ADD MSTORE JUMPDEST POP PUSH1 0x1F ADD PUSH32 0xFFFFFFFFFFFFFFFFFFFFFFFFFFFFFFFFFFFFFFFFFFFFFFFFFFFFFFFFFFFFFFE0 AND SWAP3 SWAP1 SWAP3 ADD PUSH1 0x40 ADD SWAP4 SWAP3 POP POP POP JUMP JUMPDEST PUSH1 0x20 DUP1 DUP3 MSTORE PUSH1 0x4B SWAP1 DUP3 ADD MSTORE PUSH32 0x426174636846696C6C4E61746976654F7264657273466561747572653A3A6261 PUSH1 0x40 DUP3 ADD MSTORE PUSH32 0x74636846696C6C4C696D69744F72646572732F4D49534D4154434845445F4152 PUSH1 0x60 DUP3 ADD MSTORE PUSH32 0x5241595F4C454E47544853000000000000000000000000000000000000000000 PUSH1 0x80 DUP3 ADD MSTORE PUSH1 0xA0 ADD SWAP1 JUMP JUMPDEST PUSH1 0x20 DUP1 DUP3 MSTORE PUSH1 0x49 SWAP1 DUP3 ADD MSTORE PUSH32 0x426174636846696C6C4E61746976654F7264657273466561747572653A3A6261 PUSH1 0x40 DUP3 ADD MSTORE PUSH32 0x74636846696C6C5266714F72646572732F4D49534D4154434845445F41525241 PUSH1 0x60 DUP3 ADD MSTORE PUSH32 0x595F4C454E475448530000000000000000000000000000000000000000000000 PUSH1 0x80 DUP3 ADD MSTORE PUSH1 0xA0 ADD SWAP1 JUMP JUMPDEST PUSH2 0x260 DUP2 ADD PUSH1 0x20 DUP8 ADD PUSH2 0x171C DUP4 PUSH2 0x1717 DUP4 DUP12 PUSH2 0xF3B JUMP JUMPDEST PUSH2 0x136D JUMP JUMPDEST PUSH2 0x1726 DUP2 DUP10 PUSH2 0x19CC JUMP JUMPDEST SWAP1 POP PUSH2 0x1735 PUSH1 0x20 DUP5 ADD DUP3 PUSH2 0x136D JUMP JUMPDEST POP PUSH2 0x1743 PUSH1 0x40 DUP9 ADD DUP9 PUSH2 0x19D9 JUMP JUMPDEST PUSH2 0x1750 PUSH1 0x40 DUP5 ADD DUP3 PUSH2 0x1423 JUMP JUMPDEST POP PUSH2 0x175E PUSH1 0x60 DUP9 ADD DUP9 PUSH2 0x19D9 JUMP JUMPDEST PUSH2 0x176B PUSH1 0x60 DUP5 ADD DUP3 PUSH2 0x1423 JUMP JUMPDEST POP PUSH2 0x1779 PUSH1 0x80 DUP9 ADD DUP9 PUSH2 0x19D9 JUMP JUMPDEST PUSH2 0x1786 PUSH1 0x80 DUP5 ADD DUP3 PUSH2 0x1423 JUMP JUMPDEST POP PUSH2 0x1794 PUSH1 0xA0 DUP9 ADD DUP9 PUSH2 0x19CC JUMP JUMPDEST PUSH2 0x17A1 PUSH1 0xA0 DUP5 ADD DUP3 PUSH2 0x136D JUMP JUMPDEST POP PUSH2 0x17AF PUSH1 0xC0 DUP9 ADD DUP9 PUSH2 0x19CC JUMP JUMPDEST PUSH2 0x17BC PUSH1 0xC0 DUP5 ADD DUP3 PUSH2 0x136D JUMP JUMPDEST POP PUSH2 0x17CA PUSH1 0xE0 DUP9 ADD DUP9 PUSH2 0x19CC JUMP JUMPDEST PUSH2 0x17D7 PUSH1 0xE0 DUP5 ADD DUP3 PUSH2 0x136D JUMP JUMPDEST POP PUSH2 0x100 PUSH2 0x17E7 DUP2 DUP10 ADD DUP10 PUSH2 0x19CC JUMP JUMPDEST PUSH2 0x17F3 DUP3 DUP6 ADD DUP3 PUSH2 0x136D JUMP JUMPDEST POP POP PUSH2 0x120 DUP8 DUP2 ADD CALLDATALOAD SWAP1 DUP4 ADD MSTORE PUSH2 0x140 PUSH2 0x180F DUP2 DUP10 ADD DUP10 PUSH2 0x19E6 JUMP JUMPDEST PUSH2 0x181B DUP3 DUP6 ADD DUP3 PUSH2 0x1439 JUMP JUMPDEST POP POP PUSH2 0x160 DUP8 DUP2 ADD CALLDATALOAD SWAP1 DUP4 ADD MSTORE PUSH2 0x1836 PUSH2 0x180 DUP4 ADD DUP8 PUSH2 0x13D9 JUMP JUMPDEST PUSH2 0x1844 PUSH2 0x200 DUP4 ADD DUP7 PUSH2 0x1423 JUMP JUMPDEST PUSH2 0x1852 PUSH2 0x220 DUP4 ADD DUP6 PUSH2 0x136D JUMP JUMPDEST PUSH2 0x1860 PUSH2 0x240 DUP4 ADD DUP5 PUSH2 0x136D JUMP JUMPDEST SWAP7 SWAP6 POP POP POP POP POP POP JUMP JUMPDEST PUSH2 0x240 DUP2 ADD PUSH1 0x20 DUP9 ADD PUSH2 0x1881 DUP4 PUSH2 0x1717 DUP4 DUP13 PUSH2 0xF3B JUMP JUMPDEST PUSH2 0x188B DUP2 DUP11 PUSH2 0x19CC JUMP JUMPDEST SWAP1 POP PUSH2 0x189A PUSH1 0x20 DUP5 ADD DUP3 PUSH2 0x136D JUMP JUMPDEST POP PUSH2 0x18A8 PUSH1 0x40 DUP10 ADD DUP10 PUSH2 0x19D9 JUMP JUMPDEST PUSH2 0x18B5 PUSH1 0x40 DUP5 ADD DUP3 PUSH2 0x1423 JUMP JUMPDEST POP PUSH2 0x18C3 PUSH1 0x60 DUP10 ADD DUP10 PUSH2 0x19D9 JUMP JUMPDEST PUSH2 0x18D0 PUSH1 0x60 DUP5 ADD DUP3 PUSH2 0x1423 JUMP JUMPDEST POP PUSH2 0x18DE PUSH1 0x80 DUP10 ADD DUP10 PUSH2 0x19CC JUMP JUMPDEST PUSH2 0x18EB PUSH1 0x80 DUP5 ADD DUP3 PUSH2 0x136D JUMP JUMPDEST POP PUSH2 0x18F9 PUSH1 0xA0 DUP10 ADD DUP10 PUSH2 0x19CC JUMP JUMPDEST PUSH2 0x1906 PUSH1 0xA0 DUP5 ADD DUP3 PUSH2 0x136D JUMP JUMPDEST POP PUSH2 0x1914 PUSH1 0xC0 DUP10 ADD DUP10 PUSH2 0x19CC JUMP JUMPDEST PUSH2 0x1921 PUSH1 0xC0 DUP5 ADD DUP3 PUSH2 0x136D JUMP JUMPDEST POP PUSH1 0xE0 DUP9 ADD CALLDATALOAD PUSH1 0xE0 DUP4 ADD MSTORE PUSH2 0x100 PUSH2 0x193B DUP2 DUP11 ADD DUP11 PUSH2 0x19E6 JUMP JUMPDEST PUSH2 0x1947 DUP3 DUP6 ADD DUP3 PUSH2 0x1439 JUMP JUMPDEST POP POP PUSH2 0x120 DUP9 DUP2 ADD CALLDATALOAD SWAP1 DUP4 ADD MSTORE PUSH2 0x1962 PUSH2 0x140 DUP4 ADD DUP9 PUSH2 0x13D9 JUMP JUMPDEST PUSH2 0x1970 PUSH2 0x1C0 DUP4 ADD DUP8 PUSH2 0x1423 JUMP JUMPDEST PUSH2 0x197E PUSH2 0x1E0 DUP4 ADD DUP7 PUSH2 0x136D JUMP JUMPDEST PUSH2 0x198C PUSH2 0x200 DUP4 ADD DUP6 PUSH2 0x13D3 JUMP JUMPDEST PUSH2 0x199A PUSH2 0x220 DUP4 ADD DUP5 PUSH2 0x136D JUMP JUMPDEST SWAP8 SWAP7 POP POP POP POP POP POP POP JUMP JUMPDEST PUSH1 0x40 MLOAD DUP2 DUP2 ADD PUSH8 0xFFFFFFFFFFFFFFFF DUP2 GT DUP3 DUP3 LT OR ISZERO PUSH2 0x19C4 JUMPI PUSH1 0x0 DUP1 REVERT JUMPDEST PUSH1 0x40 MSTORE SWAP2 SWAP1 POP JUMP JUMPDEST PUSH1 0x0 DUP3 CALLDATALOAD PUSH2 0x91E DUP2 PUSH2 0x1A09 JUMP JUMPDEST PUSH1 0x0 DUP3 CALLDATALOAD PUSH2 0x91E DUP2 PUSH2 0x1A2B JUMP JUMPDEST PUSH1 0x0 DUP3 CALLDATALOAD PUSH8 0xFFFFFFFFFFFFFFFF DUP2 AND DUP2 EQ PUSH2 0x91E JUMPI DUP2 DUP3 REVERT JUMPDEST PUSH1 0x4 DUP2 LT PUSH2 0xC75 JUMPI INVALID JUMPDEST PUSH20 0xFFFFFFFFFFFFFFFFFFFFFFFFFFFFFFFFFFFFFFFF DUP2 AND DUP2 EQ PUSH2 0xC75 JUMPI PUSH1 0x0 DUP1 REVERT JUMPDEST PUSH16 0xFFFFFFFFFFFFFFFFFFFFFFFFFFFFFFFF DUP2 AND DUP2 EQ PUSH2 0xC75 JUMPI PUSH1 0x0 DUP1 REVERT INVALID LOG2 PUSH5 0x6970667358 0x22 SLT KECCAK256 SELFDESTRUCT 0xC8 PUSH25 0x7FFFC77D8D83E7E2625E77B880E5DA053CFFCFD299306574AB 0x5E SELFBALANCE KECCAK256 0xA9 PUSH5 0x736F6C6343 STOP MOD 0xC STOP CALLER "
            },
            "methodIdentifiers": {
                "EIP712_DOMAIN_SEPARATOR()": "dab400f3",
                "FEATURE_NAME()": "6ae4b4f7",
                "FEATURE_VERSION()": "031b905c",
                "batchFillLimitOrders((address,address,uint128,uint128,uint128,address,address,address,address,bytes32,uint64,uint256)[],(uint8,uint8,bytes32,bytes32)[],uint128[],bool)": "1baaa00b",
                "batchFillRfqOrders((address,address,uint128,uint128,address,address,address,bytes32,uint64,uint256)[],(uint8,uint8,bytes32,bytes32)[],uint128[],bool)": "75103cb9",
                "migrate()": "8fd3ab80"
            }
        }
    },
    "sourceTreeHashHex": "0xc7a0fd1e3fad0466a739003f0c462ce1671d3a5f6c989c0a8c62d96bdea78bec",
    "compiler": {
        "name": "solc",
        "version": "0.6.12+commit.27d51765",
        "settings": {
            "remappings": [
                "@0x/contracts-utils=/home/runner/work/protocol/protocol/node_modules/@0x/contracts-utils",
                "@0x/contracts-erc20=/home/runner/work/protocol/protocol/contracts/zero-ex/node_modules/@0x/contracts-erc20"
            ],
            "optimizer": {
                "enabled": true,
                "runs": 1000000,
                "details": {
                    "yul": true,
                    "deduplicate": true,
                    "cse": true,
                    "constantOptimizer": true
                }
            },
            "outputSelection": {
                "*": {
                    "*": [
                        "abi",
                        "devdoc",
                        "evm.bytecode.object",
                        "evm.bytecode.sourceMap",
                        "evm.deployedBytecode.object",
                        "evm.deployedBytecode.sourceMap",
                        "evm.methodIdentifiers"
                    ]
                }
            },
            "evmVersion": "istanbul"
        }
    },
    "chains": {}
}