{
    "schemaVersion": "2.0.0",
    "contractName": "BridgeAdapter",
    "compilerOutput": {
        "abi": [
            {
                "inputs": [
                    {
                        "internalType": "contract IEtherTokenV06",
                        "name": "weth",
                        "type": "address"
                    }
                ],
                "stateMutability": "nonpayable",
                "type": "constructor"
            },
            {
                "anonymous": false,
                "inputs": [
                    {
                        "indexed": false,
                        "internalType": "bytes32",
                        "name": "source",
                        "type": "bytes32"
                    },
                    {
                        "indexed": false,
                        "internalType": "contract IERC20TokenV06",
                        "name": "inputToken",
                        "type": "address"
                    },
                    {
                        "indexed": false,
                        "internalType": "contract IERC20TokenV06",
                        "name": "outputToken",
                        "type": "address"
                    },
                    {
                        "indexed": false,
                        "internalType": "uint256",
                        "name": "inputTokenAmount",
                        "type": "uint256"
                    },
                    {
                        "indexed": false,
                        "internalType": "uint256",
                        "name": "outputTokenAmount",
                        "type": "uint256"
                    }
                ],
                "name": "BridgeFill",
                "type": "event"
            },
            {
                "inputs": [],
                "name": "BANCOR_ETH_ADDRESS",
                "outputs": [
                    {
                        "internalType": "contract IERC20TokenV06",
                        "name": "",
                        "type": "address"
                    }
                ],
                "stateMutability": "view",
                "type": "function"
            },
            {
                "inputs": [
                    {
                        "components": [
                            {
                                "internalType": "bytes32",
                                "name": "source",
                                "type": "bytes32"
                            },
                            {
                                "internalType": "uint256",
                                "name": "takerTokenAmount",
                                "type": "uint256"
                            },
                            {
                                "internalType": "uint256",
                                "name": "makerTokenAmount",
                                "type": "uint256"
                            },
                            {
                                "internalType": "bytes",
                                "name": "bridgeData",
                                "type": "bytes"
                            }
                        ],
                        "internalType": "struct IBridgeAdapter.BridgeOrder",
                        "name": "order",
                        "type": "tuple"
                    },
                    {
                        "internalType": "contract IERC20TokenV06",
                        "name": "sellToken",
                        "type": "address"
                    },
                    {
                        "internalType": "contract IERC20TokenV06",
                        "name": "buyToken",
                        "type": "address"
                    },
                    {
                        "internalType": "uint256",
                        "name": "sellAmount",
                        "type": "uint256"
                    }
                ],
                "name": "trade",
                "outputs": [
                    {
                        "internalType": "uint256",
                        "name": "boughtAmount",
                        "type": "uint256"
                    }
                ],
                "stateMutability": "nonpayable",
                "type": "function"
            }
        ],
        "devdoc": {
            "kind": "dev",
            "methods": {},
            "version": 1
        },
        "evm": {
            "bytecode": {
                "linkReferences": {},
                "object": "0x6101806040527feeeeeeeeeeeeeeeeeeeeeeeeeeeeeeeeeeeeeeee00000000000000000000000060e0523480156200003657600080fd5b506040516200525b3803806200525b833981016040819052620000599162000091565b60601b6001600160601b031916608081905260a081905260c081905261010081905261012081905261014081905261016052620000c1565b600060208284031215620000a3578081fd5b81516001600160a01b0381168114620000ba578182fd5b9392505050565b60805160601c60a05160601c60c05160601c60e05160601c6101005160601c6101205160601c6101405160601c6101605160601c6150ac620001af60003980610ecb5280610f5a52806110755280611195528061359b525080611dee5280611e7d5280611f2c5280611f88528061205d52806120b152508061307c52806131425250806115c7528061167e52806117055280611781528061189a52806118ee52508061175e52806117da5250806104b8528061054a52806107a652806107fd525080613325528061338552806138e75280613ad652508061288a52806129a95280612b4c52506150ac6000f3fe608060405234801561001057600080fd5b50600436106100365760003560e01c80638dc669fa1461003b578063f712a14814610059575b600080fd5b610043610079565b60405161005091906145b9565b60405180910390f35b61006c61006736600461426d565b610091565b6040516100509190614e54565b73eeeeeeeeeeeeeeeeeeeeeeeeeeeeeeeeeeeeeeee81565b835160009060801c60018114156100b9576100b28585858960600151610494565b915061044b565b6fffffffffffffffffffffffffffffffff8116601414156100e4576100b2858585896060015161091e565b6fffffffffffffffffffffffffffffffff81166012141561010e576100b285848860600151610b76565b6fffffffffffffffffffffffffffffffff811660021415610138576100b284848860600151610c87565b6fffffffffffffffffffffffffffffffff811660031415610163576100b28585858960600151610ea1565b6fffffffffffffffffffffffffffffffff81166004141561018e576100b285858589606001516112f4565b6fffffffffffffffffffffffffffffffff8116601114156101b9576100b28585858960600151611405565b6fffffffffffffffffffffffffffffffff8116600514156101e4576100b285858589606001516115a6565b6fffffffffffffffffffffffffffffffff81166010141561020f576100b28585858960600151611979565b6fffffffffffffffffffffffffffffffff81166006141561023a576100b28585858960600151611dd1565b6fffffffffffffffffffffffffffffffff811660071415610265576100b2858585896060015161213a565b6fffffffffffffffffffffffffffffffff811660081415610290576100b285858589606001516121cf565b6fffffffffffffffffffffffffffffffff8116600914156102bb576100b28585858960600151612262565b6fffffffffffffffffffffffffffffffff8116600a14156102e5576100b2858488606001516122f9565b6fffffffffffffffffffffffffffffffff8116600b141561030f576100b285848860600151612566565b6fffffffffffffffffffffffffffffffff8116600c1415610339576100b2848488606001516126a5565b6fffffffffffffffffffffffffffffffff8116600d1415610363576100b28484886060015161277e565b6fffffffffffffffffffffffffffffffff8116600e141561038e576100b28585858960600151612bd5565b6fffffffffffffffffffffffffffffffff8116600f14156103b8576100b285848860600151612cb4565b6fffffffffffffffffffffffffffffffff8116601314156103e2576100b284848860600151612e3c565b6fffffffffffffffffffffffffffffffff81166015141561040d576100b28585858960600151613061565b6fffffffffffffffffffffffffffffffff811660161415610438576100b28585858960600151613306565b61044885858589606001516133f0565b91505b85516040517fe59e71a14fe90157eedc866c4f8c767d3943d6b6b2e8cd64dddcc92ab4c55af89161048391889088908890889061467a565b60405180910390a150949350505050565b600061049e613df3565b828060200190518101906104b2919061435e565b905060007f000000000000000000000000000000000000000000000000000000000000000073ffffffffffffffffffffffffffffffffffffffff168773ffffffffffffffffffffffffffffffffffffffff1614156105b657506040517f2e1a7d4d000000000000000000000000000000000000000000000000000000008152849073ffffffffffffffffffffffffffffffffffffffff7f00000000000000000000000000000000000000000000000000000000000000001690632e1a7d4d9061057f908490600401614e54565b600060405180830381600087803b15801561059957600080fd5b505af11580156105ad573d6000803e3d6000fd5b505050506105da565b81516105da9073ffffffffffffffffffffffffffffffffffffffff8916908761348a565b6040517f70a0823100000000000000000000000000000000000000000000000000000000815260009073ffffffffffffffffffffffffffffffffffffffff8816906370a082319061062f9030906004016145b9565b60206040518083038186803b15801561064757600080fd5b505afa15801561065b573d6000803e3d6000fd5b505050506040513d601f19601f8201168201806040525081019061067f91906143bb565b905060006060846000015173ffffffffffffffffffffffffffffffffffffffff16848660200151876040015188606001518c60016040516024016106c694939291906148ca565b604080517fffffffffffffffffffffffffffffffffffffffffffffffffffffffffffffffe08184030181529181526020820180517bffffffffffffffffffffffffffffffffffffffffffffffffffffffff167fffffffff0000000000000000000000000000000000000000000000000000000090941693909317909252905161074f919061459d565b60006040518083038185875af1925050503d806000811461078c576040519150601f19603f3d011682016040523d82523d6000602084013e610791565b606091505b5091509150816107a4576107a481613566565b7f000000000000000000000000000000000000000000000000000000000000000073ffffffffffffffffffffffffffffffffffffffff168973ffffffffffffffffffffffffffffffffffffffff16141561087d574795507f000000000000000000000000000000000000000000000000000000000000000073ffffffffffffffffffffffffffffffffffffffff1663d0e30db0876040518263ffffffff1660e01b81526004016000604051808303818588803b15801561086357600080fd5b505af1158015610877573d6000803e3d6000fd5b50505050505b610910838a73ffffffffffffffffffffffffffffffffffffffff166370a08231306040518263ffffffff1660e01b81526004016108ba91906145b9565b60206040518083038186803b1580156108d257600080fd5b505afa1580156108e6573d6000803e3d6000fd5b505050506040513d601f19601f8201168201806040525081019061090a91906143bb565b9061356e565b9a9950505050505050505050565b6000610928613df3565b8280602001905181019061093c919061435e565b80519091506109639073ffffffffffffffffffffffffffffffffffffffff8816908661348a565b6040517f70a0823100000000000000000000000000000000000000000000000000000000815260009073ffffffffffffffffffffffffffffffffffffffff8716906370a08231906109b89030906004016145b9565b60206040518083038186803b1580156109d057600080fd5b505afa1580156109e4573d6000803e3d6000fd5b505050506040513d601f19601f82011682018060405250810190610a0891906143bb565b905060006060836000015173ffffffffffffffffffffffffffffffffffffffff168460200151856040015186606001518a6001604051602401610a4e94939291906148ca565b604080517fffffffffffffffffffffffffffffffffffffffffffffffffffffffffffffffe08184030181529181526020820180517bffffffffffffffffffffffffffffffffffffffffffffffffffffffff167fffffffff00000000000000000000000000000000000000000000000000000000909416939093179092529051610ad7919061459d565b6000604051808303816000865af19150503d8060008114610b14576040519150601f19603f3d011682016040523d82523d6000602084013e610b19565b606091505b509150915081610b2c57610b2c81613566565b610b69838973ffffffffffffffffffffffffffffffffffffffff166370a08231306040518263ffffffff1660e01b81526004016108ba91906145b9565b9998505050505050505050565b600080606083806020019051810190610b8f91906141ed565b9092509050610bb573ffffffffffffffffffffffffffffffffffffffff8716838761348a565b6040805160a0810182528281523060208201524281830152606081018790526001608082015290517fc04b8d5900000000000000000000000000000000000000000000000000000000815273ffffffffffffffffffffffffffffffffffffffff84169163c04b8d5991610c2b9190600401614d57565b602060405180830381600087803b158015610c4557600080fd5b505af1158015610c59573d6000803e3d6000fd5b505050506040513d601f19601f82011682018060405250810190610c7d91906143bb565b9695505050505050565b60008060608084806020019051810190610ca19190614111565b80519194509250600211159050610ced576040517f08c379a0000000000000000000000000000000000000000000000000000000008152600401610ce490614a97565b60405180910390fd5b8573ffffffffffffffffffffffffffffffffffffffff1681600183510381518110610d1457fe5b602002602001015173ffffffffffffffffffffffffffffffffffffffff1614610d69576040517f08c379a0000000000000000000000000000000000000000000000000000000008152600401610ce490614c9d565b610da8828683600081518110610d7b57fe5b602002602001015173ffffffffffffffffffffffffffffffffffffffff1661348a9092919063ffffffff16565b6040517f38ed173900000000000000000000000000000000000000000000000000000000815260609073ffffffffffffffffffffffffffffffffffffffff8416906338ed173990610e06908990600190879030904290600401614eba565b600060405180830381600087803b158015610e2057600080fd5b505af1158015610e34573d6000803e3d6000fd5b505050506040513d6000823e601f3d9081017fffffffffffffffffffffffffffffffffffffffffffffffffffffffffffffffe0168201604052610e7a9190810190614081565b905080600182510381518110610e8c57fe5b602002602001015193505050505b9392505050565b60008082806020019051810190610eb89190613ff1565b90506000610ec7828888613597565b90507f000000000000000000000000000000000000000000000000000000000000000073ffffffffffffffffffffffffffffffffffffffff168773ffffffffffffffffffffffffffffffffffffffff161415611073576040517f2e1a7d4d00000000000000000000000000000000000000000000000000000000815273ffffffffffffffffffffffffffffffffffffffff7f00000000000000000000000000000000000000000000000000000000000000001690632e1a7d4d90610f8f908890600401614e54565b600060405180830381600087803b158015610fa957600080fd5b505af1158015610fbd573d6000803e3d6000fd5b50506040517fad65d76d00000000000000000000000000000000000000000000000000000000815273ffffffffffffffffffffffffffffffffffffffff8416925063ad65d76d9150879061101a906001904290309060040161491d565b6020604051808303818588803b15801561103357600080fd5b505af1158015611047573d6000803e3d6000fd5b50505050506040513d601f19601f8201168201806040525081019061106c91906143bb565b92506112ea565b7f000000000000000000000000000000000000000000000000000000000000000073ffffffffffffffffffffffffffffffffffffffff168673ffffffffffffffffffffffffffffffffffffffff161415611219576110e873ffffffffffffffffffffffffffffffffffffffff8816828761348a565b6040517f95e3c50b00000000000000000000000000000000000000000000000000000000815273ffffffffffffffffffffffffffffffffffffffff8216906395e3c50b9061113f9088906001904290600401614f5b565b602060405180830381600087803b15801561115957600080fd5b505af115801561116d573d6000803e3d6000fd5b505050506040513d601f19601f8201168201806040525081019061119191906143bb565b92507f000000000000000000000000000000000000000000000000000000000000000073ffffffffffffffffffffffffffffffffffffffff1663d0e30db0846040518263ffffffff1660e01b81526004016000604051808303818588803b1580156111fb57600080fd5b505af115801561120f573d6000803e3d6000fd5b50505050506112ea565b61123a73ffffffffffffffffffffffffffffffffffffffff8816828761348a565b6040517fddf7e1a700000000000000000000000000000000000000000000000000000000815273ffffffffffffffffffffffffffffffffffffffff82169063ddf7e1a790611295908890600190819042908d90600401614f22565b602060405180830381600087803b1580156112af57600080fd5b505af11580156112c3573d6000803e3d6000fd5b505050506040513d601f19601f820116820180604052508101906112e791906143bb565b92505b5050949350505050565b6000808280602001905181019061130b9190613ff1565b905061132e73ffffffffffffffffffffffffffffffffffffffff8716828661348a565b6040517f8201aa3f00000000000000000000000000000000000000000000000000000000815273ffffffffffffffffffffffffffffffffffffffff821690638201aa3f906113a990899088908a906001907fffffffffffffffffffffffffffffffffffffffffffffffffffffffffffffffff90600401614859565b6040805180830381600087803b1580156113c257600080fd5b505af11580156113d6573d6000803e3d6000fd5b505050506040513d601f19601f820116820180604052508101906113fa91906143f7565b509695505050505050565b600061140f613e1a565b828060200190518101906114239190614232565b805190915061144a9073ffffffffffffffffffffffffffffffffffffffff8816908661348a565b611452613e31565b6040805160c0810190915260208084015182528101600081526020018873ffffffffffffffffffffffffffffffffffffffff1681526020018773ffffffffffffffffffffffffffffffffffffffff1681526020018681526020016040518060200160405280600081525081525090506114c9613df3565b506040805160808101825230808252600060208301819052828401919091526060820152835191517f52bbbe29000000000000000000000000000000000000000000000000000000008152909173ffffffffffffffffffffffffffffffffffffffff16906352bbbe299061154890859085906001904290600401614dbd565b602060405180830381600087803b15801561156257600080fd5b505af1158015611576573d6000803e3d6000fd5b505050506040513d601f19601f8201168201806040525081019061159a91906143bb565b98975050505050505050565b6000806060838060200190518101906115bf91906141ed565b9150915060007f000000000000000000000000000000000000000000000000000000000000000073ffffffffffffffffffffffffffffffffffffffff168873ffffffffffffffffffffffffffffffffffffffff161461163e5761163973ffffffffffffffffffffffffffffffffffffffff8916848861348a565b6116e6565b506040517f2e1a7d4d000000000000000000000000000000000000000000000000000000008152859073ffffffffffffffffffffffffffffffffffffffff7f00000000000000000000000000000000000000000000000000000000000000001690632e1a7d4d906116b3908490600401614e54565b600060405180830381600087803b1580156116cd57600080fd5b505af11580156116e1573d6000803e3d6000fd5b505050505b8273ffffffffffffffffffffffffffffffffffffffff166329589f61827f000000000000000000000000000000000000000000000000000000000000000073ffffffffffffffffffffffffffffffffffffffff168b73ffffffffffffffffffffffffffffffffffffffff161461175c578a61177e565b7f00000000000000000000000000000000000000000000000000000000000000005b897f000000000000000000000000000000000000000000000000000000000000000073ffffffffffffffffffffffffffffffffffffffff168c73ffffffffffffffffffffffffffffffffffffffff16146117d8578b6117fa565b7f00000000000000000000000000000000000000000000000000000000000000005b307fffffffffffffffffffffffffffffffffffffffffffffffffffffffffffffffff600160008b6040518a63ffffffff1660e01b81526004016118449897969594939291906147b7565b6020604051808303818588803b15801561185d57600080fd5b505af1158015611871573d6000803e3d6000fd5b50505050506040513d601f19601f8201168201806040525081019061189691906143bb565b93507f000000000000000000000000000000000000000000000000000000000000000073ffffffffffffffffffffffffffffffffffffffff168773ffffffffffffffffffffffffffffffffffffffff16141561196e577f000000000000000000000000000000000000000000000000000000000000000073ffffffffffffffffffffffffffffffffffffffff1663d0e30db0856040518263ffffffff1660e01b81526004016000604051808303818588803b15801561195457600080fd5b505af1158015611968573d6000803e3d6000fd5b50505050505b505050949350505050565b6000611983613e1a565b828060200190518101906119979190614379565b905060008573ffffffffffffffffffffffffffffffffffffffff166370a08231306040518263ffffffff1660e01b81526004016119d491906145b9565b60206040518083038186803b1580156119ec57600080fd5b505afa158015611a00573d6000803e3d6000fd5b505050506040513d601f19601f82011682018060405250810190611a2491906143bb565b825160208401519192509073ffffffffffffffffffffffffffffffffffffffff89811691161415611b7957611aee8173ffffffffffffffffffffffffffffffffffffffff166301664f666040518163ffffffff1660e01b815260040160206040518083038186803b158015611a9857600080fd5b505afa158015611aac573d6000803e3d6000fd5b505050506040513d601f19601f82011682018060405250810190611ad09190613ff1565b73ffffffffffffffffffffffffffffffffffffffff8a16908861348a565b6040517f9599127600000000000000000000000000000000000000000000000000000000815273ffffffffffffffffffffffffffffffffffffffff821690639599127690611b429030908a90600401614601565b600060405180830381600087803b158015611b5c57600080fd5b505af1158015611b70573d6000803e3d6000fd5b50505050611d94565b826020015173ffffffffffffffffffffffffffffffffffffffff168773ffffffffffffffffffffffffffffffffffffffff161415611d94576000611c438273ffffffffffffffffffffffffffffffffffffffff1663fae036d56040518163ffffffff1660e01b815260040160206040518083038186803b158015611bfc57600080fd5b505afa158015611c10573d6000803e3d6000fd5b505050506040513d601f19601f82011682018060405250810190611c3491906143bb565b670de0b6b3a764000090613784565b905060008873ffffffffffffffffffffffffffffffffffffffff1663313ce5676040518163ffffffff1660e01b815260040160206040518083038186803b158015611c8d57600080fd5b505afa158015611ca1573d6000803e3d6000fd5b505050506040513d601f19601f82011682018060405250810190611cc5919061449e565b60ff16600a0a90506000611ce383611cdd8b856137a0565b906137d1565b8651909150611d0a9073ffffffffffffffffffffffffffffffffffffffff8d16908b61348a565b6040517f8d7ef9bb00000000000000000000000000000000000000000000000000000000815273ffffffffffffffffffffffffffffffffffffffff851690638d7ef9bb90611d5e9030908590600401614601565b600060405180830381600087803b158015611d7857600080fd5b505af1158015611d8c573d6000803e3d6000fd5b505050505050505b61159a828873ffffffffffffffffffffffffffffffffffffffff166370a08231306040518263ffffffff1660e01b81526004016108ba91906145b9565b60008082806020019051810190611de89190613ff1565b905060007f000000000000000000000000000000000000000000000000000000000000000073ffffffffffffffffffffffffffffffffffffffff168773ffffffffffffffffffffffffffffffffffffffff161415611eec576040517f2e1a7d4d00000000000000000000000000000000000000000000000000000000815273ffffffffffffffffffffffffffffffffffffffff7f00000000000000000000000000000000000000000000000000000000000000001690632e1a7d4d90611eb2908890600401614e54565b600060405180830381600087803b158015611ecc57600080fd5b505af1158015611ee0573d6000803e3d6000fd5b50505050849050611f0d565b611f0d73ffffffffffffffffffffffffffffffffffffffff8816838761348a565b8173ffffffffffffffffffffffffffffffffffffffff1663d5bcb9b5827f000000000000000000000000000000000000000000000000000000000000000073ffffffffffffffffffffffffffffffffffffffff168a73ffffffffffffffffffffffffffffffffffffffff1614611f835789611f86565b60005b7f000000000000000000000000000000000000000000000000000000000000000073ffffffffffffffffffffffffffffffffffffffff168a73ffffffffffffffffffffffffffffffffffffffff1614611fdf5789611fe2565b60005b89600160006040518763ffffffff1660e01b815260040161200795949392919061473c565b6020604051808303818588803b15801561202057600080fd5b505af1158015612034573d6000803e3d6000fd5b50505050506040513d601f19601f8201168201806040525081019061205991906143bb565b92507f000000000000000000000000000000000000000000000000000000000000000073ffffffffffffffffffffffffffffffffffffffff168673ffffffffffffffffffffffffffffffffffffffff1614156112ea577f000000000000000000000000000000000000000000000000000000000000000073ffffffffffffffffffffffffffffffffffffffff1663d0e30db0846040518263ffffffff1660e01b81526004016000604051808303818588803b15801561211757600080fd5b505af115801561212b573d6000803e3d6000fd5b50505050505050949350505050565b600080828060200190518101906121519190613ff1565b905061217473ffffffffffffffffffffffffffffffffffffffff8716828661348a565b6040517fd5bcb9b500000000000000000000000000000000000000000000000000000000815273ffffffffffffffffffffffffffffffffffffffff82169063d5bcb9b590610c2b90899089908990600190309060040161473c565b600080828060200190518101906121e69190613ff1565b905061220973ffffffffffffffffffffffffffffffffffffffff8716828661348a565b6040517f0621b4f600000000000000000000000000000000000000000000000000000000815273ffffffffffffffffffffffffffffffffffffffff821690630621b4f690610c2b90899088908a90600190600401614822565b600080828060200190518101906122799190613ff1565b905061229c73ffffffffffffffffffffffffffffffffffffffff8716828661348a565b6040517f0b2583c800000000000000000000000000000000000000000000000000000000815273ffffffffffffffffffffffffffffffffffffffff821690630b2583c890610c2b9089908990899060019042820190600401614779565b600080600080848060200190518101906123139190614160565b9194509250905061233b73ffffffffffffffffffffffffffffffffffffffff8816838861348a565b80156123fe57604080516000815260208101918290527f8dae73330000000000000000000000000000000000000000000000000000000090915273ffffffffffffffffffffffffffffffffffffffff831690638dae7333906123a590899060019060248101614f03565b602060405180830381600087803b1580156123bf57600080fd5b505af11580156123d3573d6000803e3d6000fd5b505050506040513d601f19601f820116820180604052508101906123f791906143bb565b935061255c565b6040517fca19ebd900000000000000000000000000000000000000000000000000000000815273ffffffffffffffffffffffffffffffffffffffff84169063ca19ebd9906124529085908a90600401614601565b60206040518083038186803b15801561246a57600080fd5b505afa15801561247e573d6000803e3d6000fd5b505050506040513d601f19601f820116820180604052508101906124a291906143bb565b604080516000815260208101918290527fe67ce7060000000000000000000000000000000000000000000000000000000090915290945073ffffffffffffffffffffffffffffffffffffffff83169063e67ce706906125089087908a9060248101614f03565b602060405180830381600087803b15801561252257600080fd5b505af1158015612536573d6000803e3d6000fd5b505050506040513d601f19601f8201168201806040525081019061255a91906143bb565b505b5050509392505050565b60008060008380602001905181019061257f91906141b0565b90925090506125a573ffffffffffffffffffffffffffffffffffffffff871683876137fb565b80612653576040517fdd93f59a00000000000000000000000000000000000000000000000000000000815273ffffffffffffffffffffffffffffffffffffffff83169063dd93f59a906125fc9030906004016145b9565b602060405180830381600087803b15801561261657600080fd5b505af115801561262a573d6000803e3d6000fd5b505050506040513d601f19601f8201168201806040525081019061264e91906143bb565b610c7d565b6040517fbd6015b400000000000000000000000000000000000000000000000000000000815273ffffffffffffffffffffffffffffffffffffffff83169063bd6015b490610c2b9030906004016145b9565b600080606080848060200190518101906126bf9190614111565b80519194509250600211159050612702576040517f08c379a0000000000000000000000000000000000000000000000000000000008152600401610ce490614a3a565b8573ffffffffffffffffffffffffffffffffffffffff168160018351038151811061272957fe5b602002602001015173ffffffffffffffffffffffffffffffffffffffff1614610d69576040517f08c379a0000000000000000000000000000000000000000000000000000000008152600401610ce490614cfa565b600080606080848060200190518101906127989190614111565b805191945092506002111590506127db576040517f08c379a0000000000000000000000000000000000000000000000000000000008152600401610ce490614980565b8573ffffffffffffffffffffffffffffffffffffffff168160018351038151811061280257fe5b602002602001015173ffffffffffffffffffffffffffffffffffffffff1614806128d8575073eeeeeeeeeeeeeeeeeeeeeeeeeeeeeeeeeeeeeeee73ffffffffffffffffffffffffffffffffffffffff168160018351038151811061286257fe5b602002602001015173ffffffffffffffffffffffffffffffffffffffff161480156128d857507f000000000000000000000000000000000000000000000000000000000000000073ffffffffffffffffffffffffffffffffffffffff168673ffffffffffffffffffffffffffffffffffffffff16145b61290e576040517f08c379a0000000000000000000000000000000000000000000000000000000008152600401610ce490614be3565b600073eeeeeeeeeeeeeeeeeeeeeeeeeeeeeeeeeeeeeeee73ffffffffffffffffffffffffffffffffffffffff168260008151811061294857fe5b602002602001015173ffffffffffffffffffffffffffffffffffffffff161415612a18576040517f2e1a7d4d00000000000000000000000000000000000000000000000000000000815273ffffffffffffffffffffffffffffffffffffffff7f00000000000000000000000000000000000000000000000000000000000000001690632e1a7d4d906129de908990600401614e54565b600060405180830381600087803b1580156129f857600080fd5b505af1158015612a0c573d6000803e3d6000fd5b50505050859050612a37565b612a3782600081518110612a2857fe5b6020026020010151848861348a565b6040517fb77d239b00000000000000000000000000000000000000000000000000000000815273ffffffffffffffffffffffffffffffffffffffff84169063b77d239b908390612a979086908b9060019030906000908190600401614627565b6020604051808303818588803b158015612ab057600080fd5b505af1158015612ac4573d6000803e3d6000fd5b50505050506040513d601f19601f82011682018060405250810190612ae991906143bb565b935073eeeeeeeeeeeeeeeeeeeeeeeeeeeeeeeeeeeeeeee73ffffffffffffffffffffffffffffffffffffffff1682600184510381518110612b2657fe5b602002602001015173ffffffffffffffffffffffffffffffffffffffff16141561255c577f000000000000000000000000000000000000000000000000000000000000000073ffffffffffffffffffffffffffffffffffffffff1663d0e30db0856040518263ffffffff1660e01b81526004016000604051808303818588803b158015612bb257600080fd5b505af1158015612bc6573d6000803e3d6000fd5b50505050505050509392505050565b600080600083806020019051810190612bee91906143d3565b91509150612bfd8782876137fb565b6040517f9f44296a00000000000000000000000000000000000000000000000000000000815273ffffffffffffffffffffffffffffffffffffffff821690639f44296a908490612c53908a9030906004016145da565b60e0604051808303818588803b158015612c6c57600080fd5b505af1158015612c80573d6000803e3d6000fd5b50505050506040513d601f19601f82011682018060405250810190612ca5919061441a565b50909998505050505050505050565b6000612cbe613df3565b82806020019051810190612cd2919061435e565b8051909150612cf99073ffffffffffffffffffffffffffffffffffffffff8716908661348a565b60006060826000015173ffffffffffffffffffffffffffffffffffffffff1683602001518460400151856060015189600142604051602401612d3f9594939291906148ef565b604080517fffffffffffffffffffffffffffffffffffffffffffffffffffffffffffffffe08184030181529181526020820180517bffffffffffffffffffffffffffffffffffffffffffffffffffffffff167fffffffff00000000000000000000000000000000000000000000000000000000909416939093179092529051612dc8919061459d565b6000604051808303816000865af19150503d8060008114612e05576040519150601f19603f3d011682016040523d82523d6000602084013e612e0a565b606091505b509150915081612e1d57612e1d81613566565b80806020019051810190612e3191906143bb565b979650505050505050565b60008060608084806020019051810190612e56919061400d565b8151929550909350915060011115612e9a576040517f08c379a0000000000000000000000000000000000000000000000000000000008152600401610ce490614c40565b8151600101815114612ed8576040517f08c379a0000000000000000000000000000000000000000000000000000000008152600401610ce490614af4565b8673ffffffffffffffffffffffffffffffffffffffff1681600183510381518110612eff57fe5b602002602001015173ffffffffffffffffffffffffffffffffffffffff1614612f54576040517f08c379a0000000000000000000000000000000000000000000000000000000008152600401610ce4906149dd565b612f66838783600081518110610d7b57fe5b6040517fceb757d500000000000000000000000000000000000000000000000000000000815260609073ffffffffffffffffffffffffffffffffffffffff85169063ceb757d590612fc6908a906001908890889030904290600401614e5d565b600060405180830381600087803b158015612fe057600080fd5b505af1158015612ff4573d6000803e3d6000fd5b505050506040513d6000823e601f3d9081017fffffffffffffffffffffffffffffffffffffffffffffffffffffffffffffffe016820160405261303a9190810190614081565b90508060018251038151811061304c57fe5b60200260200101519450505050509392505050565b600080828060200190518101906130789190613ff1565b90507f000000000000000000000000000000000000000000000000000000000000000073ffffffffffffffffffffffffffffffffffffffff168673ffffffffffffffffffffffffffffffffffffffff1614801561310057508073ffffffffffffffffffffffffffffffffffffffff168573ffffffffffffffffffffffffffffffffffffffff16145b156132cb576040517f2e1a7d4d00000000000000000000000000000000000000000000000000000000815273ffffffffffffffffffffffffffffffffffffffff7f00000000000000000000000000000000000000000000000000000000000000001690632e1a7d4d90613177908790600401614e54565b600060405180830381600087803b15801561319157600080fd5b505af11580156131a5573d6000803e3d6000fd5b50506040517fa1903eab00000000000000000000000000000000000000000000000000000000815273ffffffffffffffffffffffffffffffffffffffff84169250637a28fb889150829063a1903eab908890613206906000906004016145b9565b6020604051808303818588803b15801561321f57600080fd5b505af1158015613233573d6000803e3d6000fd5b50505050506040513d601f19601f8201168201806040525081019061325891906143bb565b6040518263ffffffff1660e01b81526004016132749190614e54565b60206040518083038186803b15801561328c57600080fd5b505afa1580156132a0573d6000803e3d6000fd5b505050506040513d601f19601f820116820180604052508101906132c491906143bb565b91506132fd565b6040517f08c379a0000000000000000000000000000000000000000000000000000000008152600401610ce490614b51565b50949350505050565b60008060608380602001905181019061331f91906141ed565b915091507f000000000000000000000000000000000000000000000000000000000000000073ffffffffffffffffffffffffffffffffffffffff168773ffffffffffffffffffffffffffffffffffffffff1614156133835761106c828787846138a7565b7f000000000000000000000000000000000000000000000000000000000000000073ffffffffffffffffffffffffffffffffffffffff168673ffffffffffffffffffffffffffffffffffffffff1614156133e35761106c82888784613a04565b6112e78288888885613b5d565b60008060608380602001905181019061340991906141ed565b909250905061342f73ffffffffffffffffffffffffffffffffffffffff881683876137fb565b6040517f65d02b0400000000000000000000000000000000000000000000000000000000815273ffffffffffffffffffffffffffffffffffffffff8316906365d02b0490611295908a908a90309060019088906004016146f5565b6040517fdd62ed3e000000000000000000000000000000000000000000000000000000008152819073ffffffffffffffffffffffffffffffffffffffff85169063dd62ed3e906134e090309087906004016145da565b60206040518083038186803b1580156134f857600080fd5b505afa15801561350c573d6000803e3d6000fd5b505050506040513d601f19601f8201168201806040525081019061353091906143bb565b10156135615761356183837fffffffffffffffffffffffffffffffffffffffffffffffffffffffffffffffff613bdb565b505050565b805160208201fd5b60008282111561358c5761358c61358760028585613bf8565b613566565b508082035b92915050565b60007f000000000000000000000000000000000000000000000000000000000000000073ffffffffffffffffffffffffffffffffffffffff168373ffffffffffffffffffffffffffffffffffffffff1614613693576040517f06f2bf6200000000000000000000000000000000000000000000000000000000815273ffffffffffffffffffffffffffffffffffffffff8516906306f2bf629061363e9086906004016145b9565b60206040518083038186803b15801561365657600080fd5b505afa15801561366a573d6000803e3d6000fd5b505050506040513d601f19601f8201168201806040525081019061368e9190613ff1565b613735565b6040517f06f2bf6200000000000000000000000000000000000000000000000000000000815273ffffffffffffffffffffffffffffffffffffffff8516906306f2bf62906136e59085906004016145b9565b60206040518083038186803b1580156136fd57600080fd5b505afa158015613711573d6000803e3d6000fd5b505050506040513d601f19601f820116820180604052508101906137359190613ff1565b905073ffffffffffffffffffffffffffffffffffffffff8116610e9a576040517f08c379a0000000000000000000000000000000000000000000000000000000008152600401610ce490614949565b600082820183811015610e9a57610e9a61358760008686613bf8565b6000826137af57506000613591565b828202828482816137bc57fe5b0414610e9a57610e9a61358760018686613bf8565b6000816137e7576137e761358760038585613bf8565b60008284816137f257fe5b04949350505050565b606063a9059cbb60e01b8383604051602401613818929190614601565b604080517fffffffffffffffffffffffffffffffffffffffffffffffffffffffffffffffe08184030181529190526020810180517bffffffffffffffffffffffffffffffffffffffffffffffffffffffff167fffffffff000000000000000000000000000000000000000000000000000000009093169290921790915290506138a18482613c9d565b50505050565b6040517f2e1a7d4d00000000000000000000000000000000000000000000000000000000815260009073ffffffffffffffffffffffffffffffffffffffff7f00000000000000000000000000000000000000000000000000000000000000001690632e1a7d4d9061391c908690600401614e54565b600060405180830381600087803b15801561393657600080fd5b505af115801561394a573d6000803e3d6000fd5b50506040517fb52e845800000000000000000000000000000000000000000000000000000000815273ffffffffffffffffffffffffffffffffffffffff8816925063b52e8458915085906139a9908890309060019089906004016146b6565b6020604051808303818588803b1580156139c257600080fd5b505af11580156139d6573d6000803e3d6000fd5b50505050506040513d601f19601f820116820180604052508101906139fb91906143bb565b95945050505050565b6000613a2773ffffffffffffffffffffffffffffffffffffffff851686856137fb565b6040517f69be90ec00000000000000000000000000000000000000000000000000000000815273ffffffffffffffffffffffffffffffffffffffff8616906369be90ec90613a80908790309060019088906004016146b6565b602060405180830381600087803b158015613a9a57600080fd5b505af1158015613aae573d6000803e3d6000fd5b505050506040513d601f19601f82011682018060405250810190613ad291906143bb565b90507f000000000000000000000000000000000000000000000000000000000000000073ffffffffffffffffffffffffffffffffffffffff1663d0e30db0826040518263ffffffff1660e01b81526004016000604051808303818588803b158015613b3c57600080fd5b505af1158015613b50573d6000803e3d6000fd5b5050505050949350505050565b6000613b8073ffffffffffffffffffffffffffffffffffffffff861687856137fb565b6040517f65d02b0400000000000000000000000000000000000000000000000000000000815273ffffffffffffffffffffffffffffffffffffffff8716906365d02b0490610c2b9088908890309060019089906004016146f5565b606063095ea7b360e01b8383604051602401613818929190614601565b606063e946c1bb60e01b848484604051602401613c179392919061489a565b604080517fffffffffffffffffffffffffffffffffffffffffffffffffffffffffffffffe08184030181529190526020810180517bffffffffffffffffffffffffffffffffffffffffffffffffffffffff167fffffffff000000000000000000000000000000000000000000000000000000009093169290921790915290509392505050565b600060608373ffffffffffffffffffffffffffffffffffffffff1683604051613cc6919061459d565b6000604051808303816000865af19150503d8060008114613d03576040519150601f19603f3d011682016040523d82523d6000602084013e613d08565b606091505b509150915081613d1b57613d1b81613566565b8051613d6257833b80613d5a576040517f08c379a0000000000000000000000000000000000000000000000000000000008152600401610ce490614b86565b505050613d9f565b6020815110613d96576000613d78826000613da3565b90508060011415613d8b57505050613d9f565b613d9482613566565b505b6138a181613566565b5050565b6000610e9a838360008160200183511015613dcb57613dcb6135876005855185602001613dd4565b50016020015190565b6060632800659560e01b848484604051602401613c17939291906148bc565b60408051608081018252600080825260208201819052918101829052606081019190915290565b604080518082019091526000808252602082015290565b6040805160c08101909152600080825260208201908152602001600073ffffffffffffffffffffffffffffffffffffffff168152602001600073ffffffffffffffffffffffffffffffffffffffff16815260200160008152602001606081525090565b600082601f830112613ea4578081fd5b8151613eb7613eb282614f98565b614f71565b818152915060208083019084810181840286018201871015613ed857600080fd5b60005b84811015613f00578151613eee81615042565b84529282019290820190600101613edb565b505050505092915050565b600082601f830112613f1b578081fd5b8151613f29613eb282614fb8565b9150808252836020828501011115613f4057600080fd5b613f51816020840160208601615016565b5092915050565b803561359181615042565b600060808284031215613f74578081fd5b613f7e6080614f71565b90508151613f8b81615042565b815260208201517fffffffff0000000000000000000000000000000000000000000000000000000081168114613fc057600080fd5b60208201526040820151613fd381615067565b60408201526060820151613fe681615067565b606082015292915050565b600060208284031215614002578081fd5b8151610e9a81615042565b600080600060608486031215614021578182fd5b835161402c81615042565b602085015190935067ffffffffffffffff80821115614049578384fd5b61405587838801613e94565b9350604086015191508082111561406a578283fd5b5061407786828701613e94565b9150509250925092565b60006020808385031215614093578182fd5b825167ffffffffffffffff8111156140a9578283fd5b8301601f810185136140b9578283fd5b80516140c7613eb282614f98565b81815283810190838501858402850186018910156140e3578687fd5b8694505b838510156141055780518352600194909401939185019185016140e7565b50979650505050505050565b60008060408385031215614123578182fd5b825161412e81615042565b602084015190925067ffffffffffffffff81111561414a578182fd5b61415685828601613e94565b9150509250929050565b600080600060608486031215614174578081fd5b835161417f81615042565b602085015190935061419081615042565b604085015190925080151581146141a5578182fd5b809150509250925092565b600080604083850312156141c2578182fd5b82516141cd81615042565b602084015190925080151581146141e2578182fd5b809150509250929050565b600080604083850312156141ff578182fd5b825161420a81615042565b602084015190925067ffffffffffffffff811115614226578182fd5b61415685828601613f0b565b600060408284031215614243578081fd5b61424d6040614f71565b825161425881615042565b81526020928301519281019290925250919050565b60008060008060808587031215614282578182fd5b843567ffffffffffffffff80821115614299578384fd5b90860190608082890312156142ac578384fd5b6142b66080614f71565b8235815260208084013581830152604084013560408301526060840135838111156142df578687fd5b80850194505089601f8501126142f3578586fd5b83359250614303613eb284614fb8565b8381528a82858701011115614316578687fd5b6143258483830184880161500a565b8060608401525081975061433b8a828b01613f58565b96505050505061434e8660408701613f58565b9396929550929360600135925050565b60006080828403121561436f578081fd5b610e9a8383613f63565b60006040828403121561438a578081fd5b6143946040614f71565b825161439f81615042565b815260208301516143af81615042565b60208201529392505050565b6000602082840312156143cc578081fd5b5051919050565b600080604083850312156143e5578182fd5b8251915060208301516141e281615042565b60008060408385031215614409578182fd5b505080516020909101519092909150565b60008060008060e0858703121561442f578182fd5b8451935060208086015193506040860151925086607f870112614450578182fd5b61445a6080614f71565b80606088018960e08a01111561446e578485fd5b845b600481101561448d57815184529284019290840190600101614470565b505080935050505092959194509250565b6000602082840312156144af578081fd5b815160ff81168114610e9a578182fd5b6000815180845260208085019450808401835b8381101561450457815173ffffffffffffffffffffffffffffffffffffffff16875295820195908201906001016144d2565b509495945050505050565b60008151808452614527816020860160208601615016565b601f017fffffffffffffffffffffffffffffffffffffffffffffffffffffffffffffffe0169290920160200192915050565b73ffffffffffffffffffffffffffffffffffffffff808251168352602082015115156020840152806040830151166040840152506060810151151560608301525050565b600082516145af818460208701615016565b9190910192915050565b73ffffffffffffffffffffffffffffffffffffffff91909116815260200190565b73ffffffffffffffffffffffffffffffffffffffff92831681529116602082015260400190565b73ffffffffffffffffffffffffffffffffffffffff929092168252602082015260400190565b600060c0825261463a60c08301896144bf565b602083019790975250604081019490945273ffffffffffffffffffffffffffffffffffffffff92831660608501529116608083015260a090910152919050565b94855273ffffffffffffffffffffffffffffffffffffffff93841660208601529190921660408401526060830191909152608082015260a00190565b600073ffffffffffffffffffffffffffffffffffffffff808716835280861660208401525083604083015260806060830152610c7d608083018461450f565b600073ffffffffffffffffffffffffffffffffffffffff8088168352808716602084015280861660408401525083606083015260a06080830152612e3160a083018461450f565b73ffffffffffffffffffffffffffffffffffffffff9586168152938516602085015260408401929092526060830152909116608082015260a00190565b73ffffffffffffffffffffffffffffffffffffffff958616815293909416602084015260408301919091526060820152608081019190915260a00190565b600061010073ffffffffffffffffffffffffffffffffffffffff808c1684528a6020850152808a16604085015280891660608501528760808501528660a085015280861660c0850152508060e08401526148138184018561450f565b9b9a5050505050505050505050565b73ffffffffffffffffffffffffffffffffffffffff9485168152602081019390935292166040820152606081019190915260800190565b73ffffffffffffffffffffffffffffffffffffffff958616815260208101949094529190931660408301526060820192909252608081019190915260a00190565b60608101600485106148a857fe5b938152602081019290925260409091015290565b60608101600885106148a857fe5b600f94850b81529290930b6020830152604082015260ff909116606082015260800190565b600f95860b81529390940b6020840152604083019190915260ff166060820152608081019190915260a00190565b928352602083019190915273ffffffffffffffffffffffffffffffffffffffff16604082015260600190565b60208082526018908201527f4d6978696e556e69737761702f4e4f5f45584348414e47450000000000000000604082015260600190565b6020808252602c908201527f4d6978696e42616e636f722f504154485f4c454e4754485f4d5553545f42455f60408201527f41545f4c454153545f54574f0000000000000000000000000000000000000000606082015260800190565b6020808252603a908201527f4d6978696e4b79626572446d6d2f4c4153545f454c454d454e545f4f465f504160408201527f54485f4d5553545f4d415443485f4f55545055545f544f4b454e000000000000606082015260800190565b6020808252602f908201527f4d6978696e43727970746f436f6d2f504154485f4c454e4754485f4d5553545f60408201527f42455f41545f4c454153545f54574f0000000000000000000000000000000000606082015260800190565b6020808252602f908201527f4d6978696e556e697377617056322f504154485f4c454e4754485f4d5553545f60408201527f42455f41545f4c454153545f54574f0000000000000000000000000000000000606082015260800190565b60208082526023908201527f4d6978696e4b79626572446d6d2f41525241595f4c454e4754485f4d49534d4160408201527f5443480000000000000000000000000000000000000000000000000000000000606082015260800190565b6020808252818101527f4d6978696e4c69646f2f554e535550504f525445445f544f4b454e5f50414952604082015260600190565b60208082526027908201527f696e76616c696420746f6b656e20616464726573732c20636f6e7461696e732060408201527f6e6f20636f646500000000000000000000000000000000000000000000000000606082015260800190565b60208082526038908201527f4d6978696e42616e636f722f4c4153545f454c454d454e545f4f465f5041544860408201527f5f4d5553545f4d415443485f4f55545055545f544f4b454e0000000000000000606082015260800190565b6020808252602f908201527f4d6978696e4b79626572446d6d2f504f4f4c535f4c454e4754485f4d5553545f60408201527f42455f41545f4c454153545f4f4e450000000000000000000000000000000000606082015260800190565b6020808252603b908201527f4d6978696e556e697377617056322f4c4153545f454c454d454e545f4f465f5060408201527f4154485f4d5553545f4d415443485f4f55545055545f544f4b454e0000000000606082015260800190565b6020808252603b908201527f4d6978696e43727970746f436f6d2f4c4153545f454c454d454e545f4f465f5060408201527f4154485f4d5553545f4d415443485f4f55545055545f544f4b454e0000000000606082015260800190565b600060208252825160a06020840152614d7360c084018261450f565b905073ffffffffffffffffffffffffffffffffffffffff60208501511660408401526040840151606084015260608401516080840152608084015160a08401528091505092915050565b600060e08252855160e0830152614dd76020870151614ffa565b610100830152604086015173ffffffffffffffffffffffffffffffffffffffff908116610120840152606087015116610140830152608086015161016083015260a086015160c0610180840152614e326101a084018261450f565b915050614e426020830186614559565b60a082019390935260c0015292915050565b90815260200190565b600087825286602083015260c06040830152614e7c60c08301876144bf565b8281036060840152614e8e81876144bf565b73ffffffffffffffffffffffffffffffffffffffff959095166080840152505060a00152949350505050565b600086825285602083015260a06040830152614ed960a08301866144bf565b73ffffffffffffffffffffffffffffffffffffffff94909416606083015250608001529392505050565b6000848252836020830152606060408301526139fb606083018461450f565b94855260208501939093526040840191909152606083015273ffffffffffffffffffffffffffffffffffffffff16608082015260a00190565b9283526020830191909152604082015260600190565b60405181810167ffffffffffffffff81118282101715614f9057600080fd5b604052919050565b600067ffffffffffffffff821115614fae578081fd5b5060209081020190565b600067ffffffffffffffff821115614fce578081fd5b50601f017fffffffffffffffffffffffffffffffffffffffffffffffffffffffffffffffe01660200190565b806002811061500557fe5b919050565b82818337506000910152565b60005b83811015615031578181015183820152602001615019565b838111156138a15750506000910152565b73ffffffffffffffffffffffffffffffffffffffff8116811461506457600080fd5b50565b80600f0b811461506457600080fdfea264697066735822122046e12118c9e2b61b7c10dc088ed4f476ede7e40ed74035961697ee0eb8f05b7764736f6c634300060c0033",
                "opcodes": "PUSH2 0x180 PUSH1 0x40 MSTORE PUSH32 0xEEEEEEEEEEEEEEEEEEEEEEEEEEEEEEEEEEEEEEEE000000000000000000000000 PUSH1 0xE0 MSTORE CALLVALUE DUP1 ISZERO PUSH3 0x36 JUMPI PUSH1 0x0 DUP1 REVERT JUMPDEST POP PUSH1 0x40 MLOAD PUSH3 0x525B CODESIZE SUB DUP1 PUSH3 0x525B DUP4 CODECOPY DUP2 ADD PUSH1 0x40 DUP2 SWAP1 MSTORE PUSH3 0x59 SWAP2 PUSH3 0x91 JUMP JUMPDEST PUSH1 0x60 SHL PUSH1 0x1 PUSH1 0x1 PUSH1 0x60 SHL SUB NOT AND PUSH1 0x80 DUP2 SWAP1 MSTORE PUSH1 0xA0 DUP2 SWAP1 MSTORE PUSH1 0xC0 DUP2 SWAP1 MSTORE PUSH2 0x100 DUP2 SWAP1 MSTORE PUSH2 0x120 DUP2 SWAP1 MSTORE PUSH2 0x140 DUP2 SWAP1 MSTORE PUSH2 0x160 MSTORE PUSH3 0xC1 JUMP JUMPDEST PUSH1 0x0 PUSH1 0x20 DUP3 DUP5 SUB SLT ISZERO PUSH3 0xA3 JUMPI DUP1 DUP2 REVERT JUMPDEST DUP2 MLOAD PUSH1 0x1 PUSH1 0x1 PUSH1 0xA0 SHL SUB DUP2 AND DUP2 EQ PUSH3 0xBA JUMPI DUP2 DUP3 REVERT JUMPDEST SWAP4 SWAP3 POP POP POP JUMP JUMPDEST PUSH1 0x80 MLOAD PUSH1 0x60 SHR PUSH1 0xA0 MLOAD PUSH1 0x60 SHR PUSH1 0xC0 MLOAD PUSH1 0x60 SHR PUSH1 0xE0 MLOAD PUSH1 0x60 SHR PUSH2 0x100 MLOAD PUSH1 0x60 SHR PUSH2 0x120 MLOAD PUSH1 0x60 SHR PUSH2 0x140 MLOAD PUSH1 0x60 SHR PUSH2 0x160 MLOAD PUSH1 0x60 SHR PUSH2 0x50AC PUSH3 0x1AF PUSH1 0x0 CODECOPY DUP1 PUSH2 0xECB MSTORE DUP1 PUSH2 0xF5A MSTORE DUP1 PUSH2 0x1075 MSTORE DUP1 PUSH2 0x1195 MSTORE DUP1 PUSH2 0x359B MSTORE POP DUP1 PUSH2 0x1DEE MSTORE DUP1 PUSH2 0x1E7D MSTORE DUP1 PUSH2 0x1F2C MSTORE DUP1 PUSH2 0x1F88 MSTORE DUP1 PUSH2 0x205D MSTORE DUP1 PUSH2 0x20B1 MSTORE POP DUP1 PUSH2 0x307C MSTORE DUP1 PUSH2 0x3142 MSTORE POP DUP1 PUSH2 0x15C7 MSTORE DUP1 PUSH2 0x167E MSTORE DUP1 PUSH2 0x1705 MSTORE DUP1 PUSH2 0x1781 MSTORE DUP1 PUSH2 0x189A MSTORE DUP1 PUSH2 0x18EE MSTORE POP DUP1 PUSH2 0x175E MSTORE DUP1 PUSH2 0x17DA MSTORE POP DUP1 PUSH2 0x4B8 MSTORE DUP1 PUSH2 0x54A MSTORE DUP1 PUSH2 0x7A6 MSTORE DUP1 PUSH2 0x7FD MSTORE POP DUP1 PUSH2 0x3325 MSTORE DUP1 PUSH2 0x3385 MSTORE DUP1 PUSH2 0x38E7 MSTORE DUP1 PUSH2 0x3AD6 MSTORE POP DUP1 PUSH2 0x288A MSTORE DUP1 PUSH2 0x29A9 MSTORE DUP1 PUSH2 0x2B4C MSTORE POP PUSH2 0x50AC PUSH1 0x0 RETURN INVALID PUSH1 0x80 PUSH1 0x40 MSTORE CALLVALUE DUP1 ISZERO PUSH2 0x10 JUMPI PUSH1 0x0 DUP1 REVERT JUMPDEST POP PUSH1 0x4 CALLDATASIZE LT PUSH2 0x36 JUMPI PUSH1 0x0 CALLDATALOAD PUSH1 0xE0 SHR DUP1 PUSH4 0x8DC669FA EQ PUSH2 0x3B JUMPI DUP1 PUSH4 0xF712A148 EQ PUSH2 0x59 JUMPI JUMPDEST PUSH1 0x0 DUP1 REVERT JUMPDEST PUSH2 0x43 PUSH2 0x79 JUMP JUMPDEST PUSH1 0x40 MLOAD PUSH2 0x50 SWAP2 SWAP1 PUSH2 0x45B9 JUMP JUMPDEST PUSH1 0x40 MLOAD DUP1 SWAP2 SUB SWAP1 RETURN JUMPDEST PUSH2 0x6C PUSH2 0x67 CALLDATASIZE PUSH1 0x4 PUSH2 0x426D JUMP JUMPDEST PUSH2 0x91 JUMP JUMPDEST PUSH1 0x40 MLOAD PUSH2 0x50 SWAP2 SWAP1 PUSH2 0x4E54 JUMP JUMPDEST PUSH20 0xEEEEEEEEEEEEEEEEEEEEEEEEEEEEEEEEEEEEEEEE DUP2 JUMP JUMPDEST DUP4 MLOAD PUSH1 0x0 SWAP1 PUSH1 0x80 SHR PUSH1 0x1 DUP2 EQ ISZERO PUSH2 0xB9 JUMPI PUSH2 0xB2 DUP6 DUP6 DUP6 DUP10 PUSH1 0x60 ADD MLOAD PUSH2 0x494 JUMP JUMPDEST SWAP2 POP PUSH2 0x44B JUMP JUMPDEST PUSH16 0xFFFFFFFFFFFFFFFFFFFFFFFFFFFFFFFF DUP2 AND PUSH1 0x14 EQ ISZERO PUSH2 0xE4 JUMPI PUSH2 0xB2 DUP6 DUP6 DUP6 DUP10 PUSH1 0x60 ADD MLOAD PUSH2 0x91E JUMP JUMPDEST PUSH16 0xFFFFFFFFFFFFFFFFFFFFFFFFFFFFFFFF DUP2 AND PUSH1 0x12 EQ ISZERO PUSH2 0x10E JUMPI PUSH2 0xB2 DUP6 DUP5 DUP9 PUSH1 0x60 ADD MLOAD PUSH2 0xB76 JUMP JUMPDEST PUSH16 0xFFFFFFFFFFFFFFFFFFFFFFFFFFFFFFFF DUP2 AND PUSH1 0x2 EQ ISZERO PUSH2 0x138 JUMPI PUSH2 0xB2 DUP5 DUP5 DUP9 PUSH1 0x60 ADD MLOAD PUSH2 0xC87 JUMP JUMPDEST PUSH16 0xFFFFFFFFFFFFFFFFFFFFFFFFFFFFFFFF DUP2 AND PUSH1 0x3 EQ ISZERO PUSH2 0x163 JUMPI PUSH2 0xB2 DUP6 DUP6 DUP6 DUP10 PUSH1 0x60 ADD MLOAD PUSH2 0xEA1 JUMP JUMPDEST PUSH16 0xFFFFFFFFFFFFFFFFFFFFFFFFFFFFFFFF DUP2 AND PUSH1 0x4 EQ ISZERO PUSH2 0x18E JUMPI PUSH2 0xB2 DUP6 DUP6 DUP6 DUP10 PUSH1 0x60 ADD MLOAD PUSH2 0x12F4 JUMP JUMPDEST PUSH16 0xFFFFFFFFFFFFFFFFFFFFFFFFFFFFFFFF DUP2 AND PUSH1 0x11 EQ ISZERO PUSH2 0x1B9 JUMPI PUSH2 0xB2 DUP6 DUP6 DUP6 DUP10 PUSH1 0x60 ADD MLOAD PUSH2 0x1405 JUMP JUMPDEST PUSH16 0xFFFFFFFFFFFFFFFFFFFFFFFFFFFFFFFF DUP2 AND PUSH1 0x5 EQ ISZERO PUSH2 0x1E4 JUMPI PUSH2 0xB2 DUP6 DUP6 DUP6 DUP10 PUSH1 0x60 ADD MLOAD PUSH2 0x15A6 JUMP JUMPDEST PUSH16 0xFFFFFFFFFFFFFFFFFFFFFFFFFFFFFFFF DUP2 AND PUSH1 0x10 EQ ISZERO PUSH2 0x20F JUMPI PUSH2 0xB2 DUP6 DUP6 DUP6 DUP10 PUSH1 0x60 ADD MLOAD PUSH2 0x1979 JUMP JUMPDEST PUSH16 0xFFFFFFFFFFFFFFFFFFFFFFFFFFFFFFFF DUP2 AND PUSH1 0x6 EQ ISZERO PUSH2 0x23A JUMPI PUSH2 0xB2 DUP6 DUP6 DUP6 DUP10 PUSH1 0x60 ADD MLOAD PUSH2 0x1DD1 JUMP JUMPDEST PUSH16 0xFFFFFFFFFFFFFFFFFFFFFFFFFFFFFFFF DUP2 AND PUSH1 0x7 EQ ISZERO PUSH2 0x265 JUMPI PUSH2 0xB2 DUP6 DUP6 DUP6 DUP10 PUSH1 0x60 ADD MLOAD PUSH2 0x213A JUMP JUMPDEST PUSH16 0xFFFFFFFFFFFFFFFFFFFFFFFFFFFFFFFF DUP2 AND PUSH1 0x8 EQ ISZERO PUSH2 0x290 JUMPI PUSH2 0xB2 DUP6 DUP6 DUP6 DUP10 PUSH1 0x60 ADD MLOAD PUSH2 0x21CF JUMP JUMPDEST PUSH16 0xFFFFFFFFFFFFFFFFFFFFFFFFFFFFFFFF DUP2 AND PUSH1 0x9 EQ ISZERO PUSH2 0x2BB JUMPI PUSH2 0xB2 DUP6 DUP6 DUP6 DUP10 PUSH1 0x60 ADD MLOAD PUSH2 0x2262 JUMP JUMPDEST PUSH16 0xFFFFFFFFFFFFFFFFFFFFFFFFFFFFFFFF DUP2 AND PUSH1 0xA EQ ISZERO PUSH2 0x2E5 JUMPI PUSH2 0xB2 DUP6 DUP5 DUP9 PUSH1 0x60 ADD MLOAD PUSH2 0x22F9 JUMP JUMPDEST PUSH16 0xFFFFFFFFFFFFFFFFFFFFFFFFFFFFFFFF DUP2 AND PUSH1 0xB EQ ISZERO PUSH2 0x30F JUMPI PUSH2 0xB2 DUP6 DUP5 DUP9 PUSH1 0x60 ADD MLOAD PUSH2 0x2566 JUMP JUMPDEST PUSH16 0xFFFFFFFFFFFFFFFFFFFFFFFFFFFFFFFF DUP2 AND PUSH1 0xC EQ ISZERO PUSH2 0x339 JUMPI PUSH2 0xB2 DUP5 DUP5 DUP9 PUSH1 0x60 ADD MLOAD PUSH2 0x26A5 JUMP JUMPDEST PUSH16 0xFFFFFFFFFFFFFFFFFFFFFFFFFFFFFFFF DUP2 AND PUSH1 0xD EQ ISZERO PUSH2 0x363 JUMPI PUSH2 0xB2 DUP5 DUP5 DUP9 PUSH1 0x60 ADD MLOAD PUSH2 0x277E JUMP JUMPDEST PUSH16 0xFFFFFFFFFFFFFFFFFFFFFFFFFFFFFFFF DUP2 AND PUSH1 0xE EQ ISZERO PUSH2 0x38E JUMPI PUSH2 0xB2 DUP6 DUP6 DUP6 DUP10 PUSH1 0x60 ADD MLOAD PUSH2 0x2BD5 JUMP JUMPDEST PUSH16 0xFFFFFFFFFFFFFFFFFFFFFFFFFFFFFFFF DUP2 AND PUSH1 0xF EQ ISZERO PUSH2 0x3B8 JUMPI PUSH2 0xB2 DUP6 DUP5 DUP9 PUSH1 0x60 ADD MLOAD PUSH2 0x2CB4 JUMP JUMPDEST PUSH16 0xFFFFFFFFFFFFFFFFFFFFFFFFFFFFFFFF DUP2 AND PUSH1 0x13 EQ ISZERO PUSH2 0x3E2 JUMPI PUSH2 0xB2 DUP5 DUP5 DUP9 PUSH1 0x60 ADD MLOAD PUSH2 0x2E3C JUMP JUMPDEST PUSH16 0xFFFFFFFFFFFFFFFFFFFFFFFFFFFFFFFF DUP2 AND PUSH1 0x15 EQ ISZERO PUSH2 0x40D JUMPI PUSH2 0xB2 DUP6 DUP6 DUP6 DUP10 PUSH1 0x60 ADD MLOAD PUSH2 0x3061 JUMP JUMPDEST PUSH16 0xFFFFFFFFFFFFFFFFFFFFFFFFFFFFFFFF DUP2 AND PUSH1 0x16 EQ ISZERO PUSH2 0x438 JUMPI PUSH2 0xB2 DUP6 DUP6 DUP6 DUP10 PUSH1 0x60 ADD MLOAD PUSH2 0x3306 JUMP JUMPDEST PUSH2 0x448 DUP6 DUP6 DUP6 DUP10 PUSH1 0x60 ADD MLOAD PUSH2 0x33F0 JUMP JUMPDEST SWAP2 POP JUMPDEST DUP6 MLOAD PUSH1 0x40 MLOAD PUSH32 0xE59E71A14FE90157EEDC866C4F8C767D3943D6B6B2E8CD64DDDCC92AB4C55AF8 SWAP2 PUSH2 0x483 SWAP2 DUP9 SWAP1 DUP9 SWAP1 DUP9 SWAP1 DUP9 SWAP1 PUSH2 0x467A JUMP JUMPDEST PUSH1 0x40 MLOAD DUP1 SWAP2 SUB SWAP1 LOG1 POP SWAP5 SWAP4 POP POP POP POP JUMP JUMPDEST PUSH1 0x0 PUSH2 0x49E PUSH2 0x3DF3 JUMP JUMPDEST DUP3 DUP1 PUSH1 0x20 ADD SWAP1 MLOAD DUP2 ADD SWAP1 PUSH2 0x4B2 SWAP2 SWAP1 PUSH2 0x435E JUMP JUMPDEST SWAP1 POP PUSH1 0x0 PUSH32 0x0 PUSH20 0xFFFFFFFFFFFFFFFFFFFFFFFFFFFFFFFFFFFFFFFF AND DUP8 PUSH20 0xFFFFFFFFFFFFFFFFFFFFFFFFFFFFFFFFFFFFFFFF AND EQ ISZERO PUSH2 0x5B6 JUMPI POP PUSH1 0x40 MLOAD PUSH32 0x2E1A7D4D00000000000000000000000000000000000000000000000000000000 DUP2 MSTORE DUP5 SWAP1 PUSH20 0xFFFFFFFFFFFFFFFFFFFFFFFFFFFFFFFFFFFFFFFF PUSH32 0x0 AND SWAP1 PUSH4 0x2E1A7D4D SWAP1 PUSH2 0x57F SWAP1 DUP5 SWAP1 PUSH1 0x4 ADD PUSH2 0x4E54 JUMP JUMPDEST PUSH1 0x0 PUSH1 0x40 MLOAD DUP1 DUP4 SUB DUP2 PUSH1 0x0 DUP8 DUP1 EXTCODESIZE ISZERO DUP1 ISZERO PUSH2 0x599 JUMPI PUSH1 0x0 DUP1 REVERT JUMPDEST POP GAS CALL ISZERO DUP1 ISZERO PUSH2 0x5AD JUMPI RETURNDATASIZE PUSH1 0x0 DUP1 RETURNDATACOPY RETURNDATASIZE PUSH1 0x0 REVERT JUMPDEST POP POP POP POP PUSH2 0x5DA JUMP JUMPDEST DUP2 MLOAD PUSH2 0x5DA SWAP1 PUSH20 0xFFFFFFFFFFFFFFFFFFFFFFFFFFFFFFFFFFFFFFFF DUP10 AND SWAP1 DUP8 PUSH2 0x348A JUMP JUMPDEST PUSH1 0x40 MLOAD PUSH32 0x70A0823100000000000000000000000000000000000000000000000000000000 DUP2 MSTORE PUSH1 0x0 SWAP1 PUSH20 0xFFFFFFFFFFFFFFFFFFFFFFFFFFFFFFFFFFFFFFFF DUP9 AND SWAP1 PUSH4 0x70A08231 SWAP1 PUSH2 0x62F SWAP1 ADDRESS SWAP1 PUSH1 0x4 ADD PUSH2 0x45B9 JUMP JUMPDEST PUSH1 0x20 PUSH1 0x40 MLOAD DUP1 DUP4 SUB DUP2 DUP7 DUP1 EXTCODESIZE ISZERO DUP1 ISZERO PUSH2 0x647 JUMPI PUSH1 0x0 DUP1 REVERT JUMPDEST POP GAS STATICCALL ISZERO DUP1 ISZERO PUSH2 0x65B JUMPI RETURNDATASIZE PUSH1 0x0 DUP1 RETURNDATACOPY RETURNDATASIZE PUSH1 0x0 REVERT JUMPDEST POP POP POP POP PUSH1 0x40 MLOAD RETURNDATASIZE PUSH1 0x1F NOT PUSH1 0x1F DUP3 ADD AND DUP3 ADD DUP1 PUSH1 0x40 MSTORE POP DUP2 ADD SWAP1 PUSH2 0x67F SWAP2 SWAP1 PUSH2 0x43BB JUMP JUMPDEST SWAP1 POP PUSH1 0x0 PUSH1 0x60 DUP5 PUSH1 0x0 ADD MLOAD PUSH20 0xFFFFFFFFFFFFFFFFFFFFFFFFFFFFFFFFFFFFFFFF AND DUP5 DUP7 PUSH1 0x20 ADD MLOAD DUP8 PUSH1 0x40 ADD MLOAD DUP9 PUSH1 0x60 ADD MLOAD DUP13 PUSH1 0x1 PUSH1 0x40 MLOAD PUSH1 0x24 ADD PUSH2 0x6C6 SWAP5 SWAP4 SWAP3 SWAP2 SWAP1 PUSH2 0x48CA JUMP JUMPDEST PUSH1 0x40 DUP1 MLOAD PUSH32 0xFFFFFFFFFFFFFFFFFFFFFFFFFFFFFFFFFFFFFFFFFFFFFFFFFFFFFFFFFFFFFFE0 DUP2 DUP5 SUB ADD DUP2 MSTORE SWAP2 DUP2 MSTORE PUSH1 0x20 DUP3 ADD DUP1 MLOAD PUSH28 0xFFFFFFFFFFFFFFFFFFFFFFFFFFFFFFFFFFFFFFFFFFFFFFFFFFFFFFFF AND PUSH32 0xFFFFFFFF00000000000000000000000000000000000000000000000000000000 SWAP1 SWAP5 AND SWAP4 SWAP1 SWAP4 OR SWAP1 SWAP3 MSTORE SWAP1 MLOAD PUSH2 0x74F SWAP2 SWAP1 PUSH2 0x459D JUMP JUMPDEST PUSH1 0x0 PUSH1 0x40 MLOAD DUP1 DUP4 SUB DUP2 DUP6 DUP8 GAS CALL SWAP3 POP POP POP RETURNDATASIZE DUP1 PUSH1 0x0 DUP2 EQ PUSH2 0x78C JUMPI PUSH1 0x40 MLOAD SWAP2 POP PUSH1 0x1F NOT PUSH1 0x3F RETURNDATASIZE ADD AND DUP3 ADD PUSH1 0x40 MSTORE RETURNDATASIZE DUP3 MSTORE RETURNDATASIZE PUSH1 0x0 PUSH1 0x20 DUP5 ADD RETURNDATACOPY PUSH2 0x791 JUMP JUMPDEST PUSH1 0x60 SWAP2 POP JUMPDEST POP SWAP2 POP SWAP2 POP DUP2 PUSH2 0x7A4 JUMPI PUSH2 0x7A4 DUP2 PUSH2 0x3566 JUMP JUMPDEST PUSH32 0x0 PUSH20 0xFFFFFFFFFFFFFFFFFFFFFFFFFFFFFFFFFFFFFFFF AND DUP10 PUSH20 0xFFFFFFFFFFFFFFFFFFFFFFFFFFFFFFFFFFFFFFFF AND EQ ISZERO PUSH2 0x87D JUMPI SELFBALANCE SWAP6 POP PUSH32 0x0 PUSH20 0xFFFFFFFFFFFFFFFFFFFFFFFFFFFFFFFFFFFFFFFF AND PUSH4 0xD0E30DB0 DUP8 PUSH1 0x40 MLOAD DUP3 PUSH4 0xFFFFFFFF AND PUSH1 0xE0 SHL DUP2 MSTORE PUSH1 0x4 ADD PUSH1 0x0 PUSH1 0x40 MLOAD DUP1 DUP4 SUB DUP2 DUP6 DUP9 DUP1 EXTCODESIZE ISZERO DUP1 ISZERO PUSH2 0x863 JUMPI PUSH1 0x0 DUP1 REVERT JUMPDEST POP GAS CALL ISZERO DUP1 ISZERO PUSH2 0x877 JUMPI RETURNDATASIZE PUSH1 0x0 DUP1 RETURNDATACOPY RETURNDATASIZE PUSH1 0x0 REVERT JUMPDEST POP POP POP POP POP JUMPDEST PUSH2 0x910 DUP4 DUP11 PUSH20 0xFFFFFFFFFFFFFFFFFFFFFFFFFFFFFFFFFFFFFFFF AND PUSH4 0x70A08231 ADDRESS PUSH1 0x40 MLOAD DUP3 PUSH4 0xFFFFFFFF AND PUSH1 0xE0 SHL DUP2 MSTORE PUSH1 0x4 ADD PUSH2 0x8BA SWAP2 SWAP1 PUSH2 0x45B9 JUMP JUMPDEST PUSH1 0x20 PUSH1 0x40 MLOAD DUP1 DUP4 SUB DUP2 DUP7 DUP1 EXTCODESIZE ISZERO DUP1 ISZERO PUSH2 0x8D2 JUMPI PUSH1 0x0 DUP1 REVERT JUMPDEST POP GAS STATICCALL ISZERO DUP1 ISZERO PUSH2 0x8E6 JUMPI RETURNDATASIZE PUSH1 0x0 DUP1 RETURNDATACOPY RETURNDATASIZE PUSH1 0x0 REVERT JUMPDEST POP POP POP POP PUSH1 0x40 MLOAD RETURNDATASIZE PUSH1 0x1F NOT PUSH1 0x1F DUP3 ADD AND DUP3 ADD DUP1 PUSH1 0x40 MSTORE POP DUP2 ADD SWAP1 PUSH2 0x90A SWAP2 SWAP1 PUSH2 0x43BB JUMP JUMPDEST SWAP1 PUSH2 0x356E JUMP JUMPDEST SWAP11 SWAP10 POP POP POP POP POP POP POP POP POP POP JUMP JUMPDEST PUSH1 0x0 PUSH2 0x928 PUSH2 0x3DF3 JUMP JUMPDEST DUP3 DUP1 PUSH1 0x20 ADD SWAP1 MLOAD DUP2 ADD SWAP1 PUSH2 0x93C SWAP2 SWAP1 PUSH2 0x435E JUMP JUMPDEST DUP1 MLOAD SWAP1 SWAP2 POP PUSH2 0x963 SWAP1 PUSH20 0xFFFFFFFFFFFFFFFFFFFFFFFFFFFFFFFFFFFFFFFF DUP9 AND SWAP1 DUP7 PUSH2 0x348A JUMP JUMPDEST PUSH1 0x40 MLOAD PUSH32 0x70A0823100000000000000000000000000000000000000000000000000000000 DUP2 MSTORE PUSH1 0x0 SWAP1 PUSH20 0xFFFFFFFFFFFFFFFFFFFFFFFFFFFFFFFFFFFFFFFF DUP8 AND SWAP1 PUSH4 0x70A08231 SWAP1 PUSH2 0x9B8 SWAP1 ADDRESS SWAP1 PUSH1 0x4 ADD PUSH2 0x45B9 JUMP JUMPDEST PUSH1 0x20 PUSH1 0x40 MLOAD DUP1 DUP4 SUB DUP2 DUP7 DUP1 EXTCODESIZE ISZERO DUP1 ISZERO PUSH2 0x9D0 JUMPI PUSH1 0x0 DUP1 REVERT JUMPDEST POP GAS STATICCALL ISZERO DUP1 ISZERO PUSH2 0x9E4 JUMPI RETURNDATASIZE PUSH1 0x0 DUP1 RETURNDATACOPY RETURNDATASIZE PUSH1 0x0 REVERT JUMPDEST POP POP POP POP PUSH1 0x40 MLOAD RETURNDATASIZE PUSH1 0x1F NOT PUSH1 0x1F DUP3 ADD AND DUP3 ADD DUP1 PUSH1 0x40 MSTORE POP DUP2 ADD SWAP1 PUSH2 0xA08 SWAP2 SWAP1 PUSH2 0x43BB JUMP JUMPDEST SWAP1 POP PUSH1 0x0 PUSH1 0x60 DUP4 PUSH1 0x0 ADD MLOAD PUSH20 0xFFFFFFFFFFFFFFFFFFFFFFFFFFFFFFFFFFFFFFFF AND DUP5 PUSH1 0x20 ADD MLOAD DUP6 PUSH1 0x40 ADD MLOAD DUP7 PUSH1 0x60 ADD MLOAD DUP11 PUSH1 0x1 PUSH1 0x40 MLOAD PUSH1 0x24 ADD PUSH2 0xA4E SWAP5 SWAP4 SWAP3 SWAP2 SWAP1 PUSH2 0x48CA JUMP JUMPDEST PUSH1 0x40 DUP1 MLOAD PUSH32 0xFFFFFFFFFFFFFFFFFFFFFFFFFFFFFFFFFFFFFFFFFFFFFFFFFFFFFFFFFFFFFFE0 DUP2 DUP5 SUB ADD DUP2 MSTORE SWAP2 DUP2 MSTORE PUSH1 0x20 DUP3 ADD DUP1 MLOAD PUSH28 0xFFFFFFFFFFFFFFFFFFFFFFFFFFFFFFFFFFFFFFFFFFFFFFFFFFFFFFFF AND PUSH32 0xFFFFFFFF00000000000000000000000000000000000000000000000000000000 SWAP1 SWAP5 AND SWAP4 SWAP1 SWAP4 OR SWAP1 SWAP3 MSTORE SWAP1 MLOAD PUSH2 0xAD7 SWAP2 SWAP1 PUSH2 0x459D JUMP JUMPDEST PUSH1 0x0 PUSH1 0x40 MLOAD DUP1 DUP4 SUB DUP2 PUSH1 0x0 DUP7 GAS CALL SWAP2 POP POP RETURNDATASIZE DUP1 PUSH1 0x0 DUP2 EQ PUSH2 0xB14 JUMPI PUSH1 0x40 MLOAD SWAP2 POP PUSH1 0x1F NOT PUSH1 0x3F RETURNDATASIZE ADD AND DUP3 ADD PUSH1 0x40 MSTORE RETURNDATASIZE DUP3 MSTORE RETURNDATASIZE PUSH1 0x0 PUSH1 0x20 DUP5 ADD RETURNDATACOPY PUSH2 0xB19 JUMP JUMPDEST PUSH1 0x60 SWAP2 POP JUMPDEST POP SWAP2 POP SWAP2 POP DUP2 PUSH2 0xB2C JUMPI PUSH2 0xB2C DUP2 PUSH2 0x3566 JUMP JUMPDEST PUSH2 0xB69 DUP4 DUP10 PUSH20 0xFFFFFFFFFFFFFFFFFFFFFFFFFFFFFFFFFFFFFFFF AND PUSH4 0x70A08231 ADDRESS PUSH1 0x40 MLOAD DUP3 PUSH4 0xFFFFFFFF AND PUSH1 0xE0 SHL DUP2 MSTORE PUSH1 0x4 ADD PUSH2 0x8BA SWAP2 SWAP1 PUSH2 0x45B9 JUMP JUMPDEST SWAP10 SWAP9 POP POP POP POP POP POP POP POP POP JUMP JUMPDEST PUSH1 0x0 DUP1 PUSH1 0x60 DUP4 DUP1 PUSH1 0x20 ADD SWAP1 MLOAD DUP2 ADD SWAP1 PUSH2 0xB8F SWAP2 SWAP1 PUSH2 0x41ED JUMP JUMPDEST SWAP1 SWAP3 POP SWAP1 POP PUSH2 0xBB5 PUSH20 0xFFFFFFFFFFFFFFFFFFFFFFFFFFFFFFFFFFFFFFFF DUP8 AND DUP4 DUP8 PUSH2 0x348A JUMP JUMPDEST PUSH1 0x40 DUP1 MLOAD PUSH1 0xA0 DUP2 ADD DUP3 MSTORE DUP3 DUP2 MSTORE ADDRESS PUSH1 0x20 DUP3 ADD MSTORE TIMESTAMP DUP2 DUP4 ADD MSTORE PUSH1 0x60 DUP2 ADD DUP8 SWAP1 MSTORE PUSH1 0x1 PUSH1 0x80 DUP3 ADD MSTORE SWAP1 MLOAD PUSH32 0xC04B8D5900000000000000000000000000000000000000000000000000000000 DUP2 MSTORE PUSH20 0xFFFFFFFFFFFFFFFFFFFFFFFFFFFFFFFFFFFFFFFF DUP5 AND SWAP2 PUSH4 0xC04B8D59 SWAP2 PUSH2 0xC2B SWAP2 SWAP1 PUSH1 0x4 ADD PUSH2 0x4D57 JUMP JUMPDEST PUSH1 0x20 PUSH1 0x40 MLOAD DUP1 DUP4 SUB DUP2 PUSH1 0x0 DUP8 DUP1 EXTCODESIZE ISZERO DUP1 ISZERO PUSH2 0xC45 JUMPI PUSH1 0x0 DUP1 REVERT JUMPDEST POP GAS CALL ISZERO DUP1 ISZERO PUSH2 0xC59 JUMPI RETURNDATASIZE PUSH1 0x0 DUP1 RETURNDATACOPY RETURNDATASIZE PUSH1 0x0 REVERT JUMPDEST POP POP POP POP PUSH1 0x40 MLOAD RETURNDATASIZE PUSH1 0x1F NOT PUSH1 0x1F DUP3 ADD AND DUP3 ADD DUP1 PUSH1 0x40 MSTORE POP DUP2 ADD SWAP1 PUSH2 0xC7D SWAP2 SWAP1 PUSH2 0x43BB JUMP JUMPDEST SWAP7 SWAP6 POP POP POP POP POP POP JUMP JUMPDEST PUSH1 0x0 DUP1 PUSH1 0x60 DUP1 DUP5 DUP1 PUSH1 0x20 ADD SWAP1 MLOAD DUP2 ADD SWAP1 PUSH2 0xCA1 SWAP2 SWAP1 PUSH2 0x4111 JUMP JUMPDEST DUP1 MLOAD SWAP2 SWAP5 POP SWAP3 POP PUSH1 0x2 GT ISZERO SWAP1 POP PUSH2 0xCED JUMPI PUSH1 0x40 MLOAD PUSH32 0x8C379A000000000000000000000000000000000000000000000000000000000 DUP2 MSTORE PUSH1 0x4 ADD PUSH2 0xCE4 SWAP1 PUSH2 0x4A97 JUMP JUMPDEST PUSH1 0x40 MLOAD DUP1 SWAP2 SUB SWAP1 REVERT JUMPDEST DUP6 PUSH20 0xFFFFFFFFFFFFFFFFFFFFFFFFFFFFFFFFFFFFFFFF AND DUP2 PUSH1 0x1 DUP4 MLOAD SUB DUP2 MLOAD DUP2 LT PUSH2 0xD14 JUMPI INVALID JUMPDEST PUSH1 0x20 MUL PUSH1 0x20 ADD ADD MLOAD PUSH20 0xFFFFFFFFFFFFFFFFFFFFFFFFFFFFFFFFFFFFFFFF AND EQ PUSH2 0xD69 JUMPI PUSH1 0x40 MLOAD PUSH32 0x8C379A000000000000000000000000000000000000000000000000000000000 DUP2 MSTORE PUSH1 0x4 ADD PUSH2 0xCE4 SWAP1 PUSH2 0x4C9D JUMP JUMPDEST PUSH2 0xDA8 DUP3 DUP7 DUP4 PUSH1 0x0 DUP2 MLOAD DUP2 LT PUSH2 0xD7B JUMPI INVALID JUMPDEST PUSH1 0x20 MUL PUSH1 0x20 ADD ADD MLOAD PUSH20 0xFFFFFFFFFFFFFFFFFFFFFFFFFFFFFFFFFFFFFFFF AND PUSH2 0x348A SWAP1 SWAP3 SWAP2 SWAP1 PUSH4 0xFFFFFFFF AND JUMP JUMPDEST PUSH1 0x40 MLOAD PUSH32 0x38ED173900000000000000000000000000000000000000000000000000000000 DUP2 MSTORE PUSH1 0x60 SWAP1 PUSH20 0xFFFFFFFFFFFFFFFFFFFFFFFFFFFFFFFFFFFFFFFF DUP5 AND SWAP1 PUSH4 0x38ED1739 SWAP1 PUSH2 0xE06 SWAP1 DUP10 SWAP1 PUSH1 0x1 SWAP1 DUP8 SWAP1 ADDRESS SWAP1 TIMESTAMP SWAP1 PUSH1 0x4 ADD PUSH2 0x4EBA JUMP JUMPDEST PUSH1 0x0 PUSH1 0x40 MLOAD DUP1 DUP4 SUB DUP2 PUSH1 0x0 DUP8 DUP1 EXTCODESIZE ISZERO DUP1 ISZERO PUSH2 0xE20 JUMPI PUSH1 0x0 DUP1 REVERT JUMPDEST POP GAS CALL ISZERO DUP1 ISZERO PUSH2 0xE34 JUMPI RETURNDATASIZE PUSH1 0x0 DUP1 RETURNDATACOPY RETURNDATASIZE PUSH1 0x0 REVERT JUMPDEST POP POP POP POP PUSH1 0x40 MLOAD RETURNDATASIZE PUSH1 0x0 DUP3 RETURNDATACOPY PUSH1 0x1F RETURNDATASIZE SWAP1 DUP2 ADD PUSH32 0xFFFFFFFFFFFFFFFFFFFFFFFFFFFFFFFFFFFFFFFFFFFFFFFFFFFFFFFFFFFFFFE0 AND DUP3 ADD PUSH1 0x40 MSTORE PUSH2 0xE7A SWAP2 SWAP1 DUP2 ADD SWAP1 PUSH2 0x4081 JUMP JUMPDEST SWAP1 POP DUP1 PUSH1 0x1 DUP3 MLOAD SUB DUP2 MLOAD DUP2 LT PUSH2 0xE8C JUMPI INVALID JUMPDEST PUSH1 0x20 MUL PUSH1 0x20 ADD ADD MLOAD SWAP4 POP POP POP POP JUMPDEST SWAP4 SWAP3 POP POP POP JUMP JUMPDEST PUSH1 0x0 DUP1 DUP3 DUP1 PUSH1 0x20 ADD SWAP1 MLOAD DUP2 ADD SWAP1 PUSH2 0xEB8 SWAP2 SWAP1 PUSH2 0x3FF1 JUMP JUMPDEST SWAP1 POP PUSH1 0x0 PUSH2 0xEC7 DUP3 DUP9 DUP9 PUSH2 0x3597 JUMP JUMPDEST SWAP1 POP PUSH32 0x0 PUSH20 0xFFFFFFFFFFFFFFFFFFFFFFFFFFFFFFFFFFFFFFFF AND DUP8 PUSH20 0xFFFFFFFFFFFFFFFFFFFFFFFFFFFFFFFFFFFFFFFF AND EQ ISZERO PUSH2 0x1073 JUMPI PUSH1 0x40 MLOAD PUSH32 0x2E1A7D4D00000000000000000000000000000000000000000000000000000000 DUP2 MSTORE PUSH20 0xFFFFFFFFFFFFFFFFFFFFFFFFFFFFFFFFFFFFFFFF PUSH32 0x0 AND SWAP1 PUSH4 0x2E1A7D4D SWAP1 PUSH2 0xF8F SWAP1 DUP9 SWAP1 PUSH1 0x4 ADD PUSH2 0x4E54 JUMP JUMPDEST PUSH1 0x0 PUSH1 0x40 MLOAD DUP1 DUP4 SUB DUP2 PUSH1 0x0 DUP8 DUP1 EXTCODESIZE ISZERO DUP1 ISZERO PUSH2 0xFA9 JUMPI PUSH1 0x0 DUP1 REVERT JUMPDEST POP GAS CALL ISZERO DUP1 ISZERO PUSH2 0xFBD JUMPI RETURNDATASIZE PUSH1 0x0 DUP1 RETURNDATACOPY RETURNDATASIZE PUSH1 0x0 REVERT JUMPDEST POP POP PUSH1 0x40 MLOAD PUSH32 0xAD65D76D00000000000000000000000000000000000000000000000000000000 DUP2 MSTORE PUSH20 0xFFFFFFFFFFFFFFFFFFFFFFFFFFFFFFFFFFFFFFFF DUP5 AND SWAP3 POP PUSH4 0xAD65D76D SWAP2 POP DUP8 SWAP1 PUSH2 0x101A SWAP1 PUSH1 0x1 SWAP1 TIMESTAMP SWAP1 ADDRESS SWAP1 PUSH1 0x4 ADD PUSH2 0x491D JUMP JUMPDEST PUSH1 0x20 PUSH1 0x40 MLOAD DUP1 DUP4 SUB DUP2 DUP6 DUP9 DUP1 EXTCODESIZE ISZERO DUP1 ISZERO PUSH2 0x1033 JUMPI PUSH1 0x0 DUP1 REVERT JUMPDEST POP GAS CALL ISZERO DUP1 ISZERO PUSH2 0x1047 JUMPI RETURNDATASIZE PUSH1 0x0 DUP1 RETURNDATACOPY RETURNDATASIZE PUSH1 0x0 REVERT JUMPDEST POP POP POP POP POP PUSH1 0x40 MLOAD RETURNDATASIZE PUSH1 0x1F NOT PUSH1 0x1F DUP3 ADD AND DUP3 ADD DUP1 PUSH1 0x40 MSTORE POP DUP2 ADD SWAP1 PUSH2 0x106C SWAP2 SWAP1 PUSH2 0x43BB JUMP JUMPDEST SWAP3 POP PUSH2 0x12EA JUMP JUMPDEST PUSH32 0x0 PUSH20 0xFFFFFFFFFFFFFFFFFFFFFFFFFFFFFFFFFFFFFFFF AND DUP7 PUSH20 0xFFFFFFFFFFFFFFFFFFFFFFFFFFFFFFFFFFFFFFFF AND EQ ISZERO PUSH2 0x1219 JUMPI PUSH2 0x10E8 PUSH20 0xFFFFFFFFFFFFFFFFFFFFFFFFFFFFFFFFFFFFFFFF DUP9 AND DUP3 DUP8 PUSH2 0x348A JUMP JUMPDEST PUSH1 0x40 MLOAD PUSH32 0x95E3C50B00000000000000000000000000000000000000000000000000000000 DUP2 MSTORE PUSH20 0xFFFFFFFFFFFFFFFFFFFFFFFFFFFFFFFFFFFFFFFF DUP3 AND SWAP1 PUSH4 0x95E3C50B SWAP1 PUSH2 0x113F SWAP1 DUP9 SWAP1 PUSH1 0x1 SWAP1 TIMESTAMP SWAP1 PUSH1 0x4 ADD PUSH2 0x4F5B JUMP JUMPDEST PUSH1 0x20 PUSH1 0x40 MLOAD DUP1 DUP4 SUB DUP2 PUSH1 0x0 DUP8 DUP1 EXTCODESIZE ISZERO DUP1 ISZERO PUSH2 0x1159 JUMPI PUSH1 0x0 DUP1 REVERT JUMPDEST POP GAS CALL ISZERO DUP1 ISZERO PUSH2 0x116D JUMPI RETURNDATASIZE PUSH1 0x0 DUP1 RETURNDATACOPY RETURNDATASIZE PUSH1 0x0 REVERT JUMPDEST POP POP POP POP PUSH1 0x40 MLOAD RETURNDATASIZE PUSH1 0x1F NOT PUSH1 0x1F DUP3 ADD AND DUP3 ADD DUP1 PUSH1 0x40 MSTORE POP DUP2 ADD SWAP1 PUSH2 0x1191 SWAP2 SWAP1 PUSH2 0x43BB JUMP JUMPDEST SWAP3 POP PUSH32 0x0 PUSH20 0xFFFFFFFFFFFFFFFFFFFFFFFFFFFFFFFFFFFFFFFF AND PUSH4 0xD0E30DB0 DUP5 PUSH1 0x40 MLOAD DUP3 PUSH4 0xFFFFFFFF AND PUSH1 0xE0 SHL DUP2 MSTORE PUSH1 0x4 ADD PUSH1 0x0 PUSH1 0x40 MLOAD DUP1 DUP4 SUB DUP2 DUP6 DUP9 DUP1 EXTCODESIZE ISZERO DUP1 ISZERO PUSH2 0x11FB JUMPI PUSH1 0x0 DUP1 REVERT JUMPDEST POP GAS CALL ISZERO DUP1 ISZERO PUSH2 0x120F JUMPI RETURNDATASIZE PUSH1 0x0 DUP1 RETURNDATACOPY RETURNDATASIZE PUSH1 0x0 REVERT JUMPDEST POP POP POP POP POP PUSH2 0x12EA JUMP JUMPDEST PUSH2 0x123A PUSH20 0xFFFFFFFFFFFFFFFFFFFFFFFFFFFFFFFFFFFFFFFF DUP9 AND DUP3 DUP8 PUSH2 0x348A JUMP JUMPDEST PUSH1 0x40 MLOAD PUSH32 0xDDF7E1A700000000000000000000000000000000000000000000000000000000 DUP2 MSTORE PUSH20 0xFFFFFFFFFFFFFFFFFFFFFFFFFFFFFFFFFFFFFFFF DUP3 AND SWAP1 PUSH4 0xDDF7E1A7 SWAP1 PUSH2 0x1295 SWAP1 DUP9 SWAP1 PUSH1 0x1 SWAP1 DUP2 SWAP1 TIMESTAMP SWAP1 DUP14 SWAP1 PUSH1 0x4 ADD PUSH2 0x4F22 JUMP JUMPDEST PUSH1 0x20 PUSH1 0x40 MLOAD DUP1 DUP4 SUB DUP2 PUSH1 0x0 DUP8 DUP1 EXTCODESIZE ISZERO DUP1 ISZERO PUSH2 0x12AF JUMPI PUSH1 0x0 DUP1 REVERT JUMPDEST POP GAS CALL ISZERO DUP1 ISZERO PUSH2 0x12C3 JUMPI RETURNDATASIZE PUSH1 0x0 DUP1 RETURNDATACOPY RETURNDATASIZE PUSH1 0x0 REVERT JUMPDEST POP POP POP POP PUSH1 0x40 MLOAD RETURNDATASIZE PUSH1 0x1F NOT PUSH1 0x1F DUP3 ADD AND DUP3 ADD DUP1 PUSH1 0x40 MSTORE POP DUP2 ADD SWAP1 PUSH2 0x12E7 SWAP2 SWAP1 PUSH2 0x43BB JUMP JUMPDEST SWAP3 POP JUMPDEST POP POP SWAP5 SWAP4 POP POP POP POP JUMP JUMPDEST PUSH1 0x0 DUP1 DUP3 DUP1 PUSH1 0x20 ADD SWAP1 MLOAD DUP2 ADD SWAP1 PUSH2 0x130B SWAP2 SWAP1 PUSH2 0x3FF1 JUMP JUMPDEST SWAP1 POP PUSH2 0x132E PUSH20 0xFFFFFFFFFFFFFFFFFFFFFFFFFFFFFFFFFFFFFFFF DUP8 AND DUP3 DUP7 PUSH2 0x348A JUMP JUMPDEST PUSH1 0x40 MLOAD PUSH32 0x8201AA3F00000000000000000000000000000000000000000000000000000000 DUP2 MSTORE PUSH20 0xFFFFFFFFFFFFFFFFFFFFFFFFFFFFFFFFFFFFFFFF DUP3 AND SWAP1 PUSH4 0x8201AA3F SWAP1 PUSH2 0x13A9 SWAP1 DUP10 SWAP1 DUP9 SWAP1 DUP11 SWAP1 PUSH1 0x1 SWAP1 PUSH32 0xFFFFFFFFFFFFFFFFFFFFFFFFFFFFFFFFFFFFFFFFFFFFFFFFFFFFFFFFFFFFFFFF SWAP1 PUSH1 0x4 ADD PUSH2 0x4859 JUMP JUMPDEST PUSH1 0x40 DUP1 MLOAD DUP1 DUP4 SUB DUP2 PUSH1 0x0 DUP8 DUP1 EXTCODESIZE ISZERO DUP1 ISZERO PUSH2 0x13C2 JUMPI PUSH1 0x0 DUP1 REVERT JUMPDEST POP GAS CALL ISZERO DUP1 ISZERO PUSH2 0x13D6 JUMPI RETURNDATASIZE PUSH1 0x0 DUP1 RETURNDATACOPY RETURNDATASIZE PUSH1 0x0 REVERT JUMPDEST POP POP POP POP PUSH1 0x40 MLOAD RETURNDATASIZE PUSH1 0x1F NOT PUSH1 0x1F DUP3 ADD AND DUP3 ADD DUP1 PUSH1 0x40 MSTORE POP DUP2 ADD SWAP1 PUSH2 0x13FA SWAP2 SWAP1 PUSH2 0x43F7 JUMP JUMPDEST POP SWAP7 SWAP6 POP POP POP POP POP POP JUMP JUMPDEST PUSH1 0x0 PUSH2 0x140F PUSH2 0x3E1A JUMP JUMPDEST DUP3 DUP1 PUSH1 0x20 ADD SWAP1 MLOAD DUP2 ADD SWAP1 PUSH2 0x1423 SWAP2 SWAP1 PUSH2 0x4232 JUMP JUMPDEST DUP1 MLOAD SWAP1 SWAP2 POP PUSH2 0x144A SWAP1 PUSH20 0xFFFFFFFFFFFFFFFFFFFFFFFFFFFFFFFFFFFFFFFF DUP9 AND SWAP1 DUP7 PUSH2 0x348A JUMP JUMPDEST PUSH2 0x1452 PUSH2 0x3E31 JUMP JUMPDEST PUSH1 0x40 DUP1 MLOAD PUSH1 0xC0 DUP2 ADD SWAP1 SWAP2 MSTORE PUSH1 0x20 DUP1 DUP5 ADD MLOAD DUP3 MSTORE DUP2 ADD PUSH1 0x0 DUP2 MSTORE PUSH1 0x20 ADD DUP9 PUSH20 0xFFFFFFFFFFFFFFFFFFFFFFFFFFFFFFFFFFFFFFFF AND DUP2 MSTORE PUSH1 0x20 ADD DUP8 PUSH20 0xFFFFFFFFFFFFFFFFFFFFFFFFFFFFFFFFFFFFFFFF AND DUP2 MSTORE PUSH1 0x20 ADD DUP7 DUP2 MSTORE PUSH1 0x20 ADD PUSH1 0x40 MLOAD DUP1 PUSH1 0x20 ADD PUSH1 0x40 MSTORE DUP1 PUSH1 0x0 DUP2 MSTORE POP DUP2 MSTORE POP SWAP1 POP PUSH2 0x14C9 PUSH2 0x3DF3 JUMP JUMPDEST POP PUSH1 0x40 DUP1 MLOAD PUSH1 0x80 DUP2 ADD DUP3 MSTORE ADDRESS DUP1 DUP3 MSTORE PUSH1 0x0 PUSH1 0x20 DUP4 ADD DUP2 SWAP1 MSTORE DUP3 DUP5 ADD SWAP2 SWAP1 SWAP2 MSTORE PUSH1 0x60 DUP3 ADD MSTORE DUP4 MLOAD SWAP2 MLOAD PUSH32 0x52BBBE2900000000000000000000000000000000000000000000000000000000 DUP2 MSTORE SWAP1 SWAP2 PUSH20 0xFFFFFFFFFFFFFFFFFFFFFFFFFFFFFFFFFFFFFFFF AND SWAP1 PUSH4 0x52BBBE29 SWAP1 PUSH2 0x1548 SWAP1 DUP6 SWAP1 DUP6 SWAP1 PUSH1 0x1 SWAP1 TIMESTAMP SWAP1 PUSH1 0x4 ADD PUSH2 0x4DBD JUMP JUMPDEST PUSH1 0x20 PUSH1 0x40 MLOAD DUP1 DUP4 SUB DUP2 PUSH1 0x0 DUP8 DUP1 EXTCODESIZE ISZERO DUP1 ISZERO PUSH2 0x1562 JUMPI PUSH1 0x0 DUP1 REVERT JUMPDEST POP GAS CALL ISZERO DUP1 ISZERO PUSH2 0x1576 JUMPI RETURNDATASIZE PUSH1 0x0 DUP1 RETURNDATACOPY RETURNDATASIZE PUSH1 0x0 REVERT JUMPDEST POP POP POP POP PUSH1 0x40 MLOAD RETURNDATASIZE PUSH1 0x1F NOT PUSH1 0x1F DUP3 ADD AND DUP3 ADD DUP1 PUSH1 0x40 MSTORE POP DUP2 ADD SWAP1 PUSH2 0x159A SWAP2 SWAP1 PUSH2 0x43BB JUMP JUMPDEST SWAP9 SWAP8 POP POP POP POP POP POP POP POP JUMP JUMPDEST PUSH1 0x0 DUP1 PUSH1 0x60 DUP4 DUP1 PUSH1 0x20 ADD SWAP1 MLOAD DUP2 ADD SWAP1 PUSH2 0x15BF SWAP2 SWAP1 PUSH2 0x41ED JUMP JUMPDEST SWAP2 POP SWAP2 POP PUSH1 0x0 PUSH32 0x0 PUSH20 0xFFFFFFFFFFFFFFFFFFFFFFFFFFFFFFFFFFFFFFFF AND DUP9 PUSH20 0xFFFFFFFFFFFFFFFFFFFFFFFFFFFFFFFFFFFFFFFF AND EQ PUSH2 0x163E JUMPI PUSH2 0x1639 PUSH20 0xFFFFFFFFFFFFFFFFFFFFFFFFFFFFFFFFFFFFFFFF DUP10 AND DUP5 DUP9 PUSH2 0x348A JUMP JUMPDEST PUSH2 0x16E6 JUMP JUMPDEST POP PUSH1 0x40 MLOAD PUSH32 0x2E1A7D4D00000000000000000000000000000000000000000000000000000000 DUP2 MSTORE DUP6 SWAP1 PUSH20 0xFFFFFFFFFFFFFFFFFFFFFFFFFFFFFFFFFFFFFFFF PUSH32 0x0 AND SWAP1 PUSH4 0x2E1A7D4D SWAP1 PUSH2 0x16B3 SWAP1 DUP5 SWAP1 PUSH1 0x4 ADD PUSH2 0x4E54 JUMP JUMPDEST PUSH1 0x0 PUSH1 0x40 MLOAD DUP1 DUP4 SUB DUP2 PUSH1 0x0 DUP8 DUP1 EXTCODESIZE ISZERO DUP1 ISZERO PUSH2 0x16CD JUMPI PUSH1 0x0 DUP1 REVERT JUMPDEST POP GAS CALL ISZERO DUP1 ISZERO PUSH2 0x16E1 JUMPI RETURNDATASIZE PUSH1 0x0 DUP1 RETURNDATACOPY RETURNDATASIZE PUSH1 0x0 REVERT JUMPDEST POP POP POP POP JUMPDEST DUP3 PUSH20 0xFFFFFFFFFFFFFFFFFFFFFFFFFFFFFFFFFFFFFFFF AND PUSH4 0x29589F61 DUP3 PUSH32 0x0 PUSH20 0xFFFFFFFFFFFFFFFFFFFFFFFFFFFFFFFFFFFFFFFF AND DUP12 PUSH20 0xFFFFFFFFFFFFFFFFFFFFFFFFFFFFFFFFFFFFFFFF AND EQ PUSH2 0x175C JUMPI DUP11 PUSH2 0x177E JUMP JUMPDEST PUSH32 0x0 JUMPDEST DUP10 PUSH32 0x0 PUSH20 0xFFFFFFFFFFFFFFFFFFFFFFFFFFFFFFFFFFFFFFFF AND DUP13 PUSH20 0xFFFFFFFFFFFFFFFFFFFFFFFFFFFFFFFFFFFFFFFF AND EQ PUSH2 0x17D8 JUMPI DUP12 PUSH2 0x17FA JUMP JUMPDEST PUSH32 0x0 JUMPDEST ADDRESS PUSH32 0xFFFFFFFFFFFFFFFFFFFFFFFFFFFFFFFFFFFFFFFFFFFFFFFFFFFFFFFFFFFFFFFF PUSH1 0x1 PUSH1 0x0 DUP12 PUSH1 0x40 MLOAD DUP11 PUSH4 0xFFFFFFFF AND PUSH1 0xE0 SHL DUP2 MSTORE PUSH1 0x4 ADD PUSH2 0x1844 SWAP9 SWAP8 SWAP7 SWAP6 SWAP5 SWAP4 SWAP3 SWAP2 SWAP1 PUSH2 0x47B7 JUMP JUMPDEST PUSH1 0x20 PUSH1 0x40 MLOAD DUP1 DUP4 SUB DUP2 DUP6 DUP9 DUP1 EXTCODESIZE ISZERO DUP1 ISZERO PUSH2 0x185D JUMPI PUSH1 0x0 DUP1 REVERT JUMPDEST POP GAS CALL ISZERO DUP1 ISZERO PUSH2 0x1871 JUMPI RETURNDATASIZE PUSH1 0x0 DUP1 RETURNDATACOPY RETURNDATASIZE PUSH1 0x0 REVERT JUMPDEST POP POP POP POP POP PUSH1 0x40 MLOAD RETURNDATASIZE PUSH1 0x1F NOT PUSH1 0x1F DUP3 ADD AND DUP3 ADD DUP1 PUSH1 0x40 MSTORE POP DUP2 ADD SWAP1 PUSH2 0x1896 SWAP2 SWAP1 PUSH2 0x43BB JUMP JUMPDEST SWAP4 POP PUSH32 0x0 PUSH20 0xFFFFFFFFFFFFFFFFFFFFFFFFFFFFFFFFFFFFFFFF AND DUP8 PUSH20 0xFFFFFFFFFFFFFFFFFFFFFFFFFFFFFFFFFFFFFFFF AND EQ ISZERO PUSH2 0x196E JUMPI PUSH32 0x0 PUSH20 0xFFFFFFFFFFFFFFFFFFFFFFFFFFFFFFFFFFFFFFFF AND PUSH4 0xD0E30DB0 DUP6 PUSH1 0x40 MLOAD DUP3 PUSH4 0xFFFFFFFF AND PUSH1 0xE0 SHL DUP2 MSTORE PUSH1 0x4 ADD PUSH1 0x0 PUSH1 0x40 MLOAD DUP1 DUP4 SUB DUP2 DUP6 DUP9 DUP1 EXTCODESIZE ISZERO DUP1 ISZERO PUSH2 0x1954 JUMPI PUSH1 0x0 DUP1 REVERT JUMPDEST POP GAS CALL ISZERO DUP1 ISZERO PUSH2 0x1968 JUMPI RETURNDATASIZE PUSH1 0x0 DUP1 RETURNDATACOPY RETURNDATASIZE PUSH1 0x0 REVERT JUMPDEST POP POP POP POP POP JUMPDEST POP POP POP SWAP5 SWAP4 POP POP POP POP JUMP JUMPDEST PUSH1 0x0 PUSH2 0x1983 PUSH2 0x3E1A JUMP JUMPDEST DUP3 DUP1 PUSH1 0x20 ADD SWAP1 MLOAD DUP2 ADD SWAP1 PUSH2 0x1997 SWAP2 SWAP1 PUSH2 0x4379 JUMP JUMPDEST SWAP1 POP PUSH1 0x0 DUP6 PUSH20 0xFFFFFFFFFFFFFFFFFFFFFFFFFFFFFFFFFFFFFFFF AND PUSH4 0x70A08231 ADDRESS PUSH1 0x40 MLOAD DUP3 PUSH4 0xFFFFFFFF AND PUSH1 0xE0 SHL DUP2 MSTORE PUSH1 0x4 ADD PUSH2 0x19D4 SWAP2 SWAP1 PUSH2 0x45B9 JUMP JUMPDEST PUSH1 0x20 PUSH1 0x40 MLOAD DUP1 DUP4 SUB DUP2 DUP7 DUP1 EXTCODESIZE ISZERO DUP1 ISZERO PUSH2 0x19EC JUMPI PUSH1 0x0 DUP1 REVERT JUMPDEST POP GAS STATICCALL ISZERO DUP1 ISZERO PUSH2 0x1A00 JUMPI RETURNDATASIZE PUSH1 0x0 DUP1 RETURNDATACOPY RETURNDATASIZE PUSH1 0x0 REVERT JUMPDEST POP POP POP POP PUSH1 0x40 MLOAD RETURNDATASIZE PUSH1 0x1F NOT PUSH1 0x1F DUP3 ADD AND DUP3 ADD DUP1 PUSH1 0x40 MSTORE POP DUP2 ADD SWAP1 PUSH2 0x1A24 SWAP2 SWAP1 PUSH2 0x43BB JUMP JUMPDEST DUP3 MLOAD PUSH1 0x20 DUP5 ADD MLOAD SWAP2 SWAP3 POP SWAP1 PUSH20 0xFFFFFFFFFFFFFFFFFFFFFFFFFFFFFFFFFFFFFFFF DUP10 DUP2 AND SWAP2 AND EQ ISZERO PUSH2 0x1B79 JUMPI PUSH2 0x1AEE DUP2 PUSH20 0xFFFFFFFFFFFFFFFFFFFFFFFFFFFFFFFFFFFFFFFF AND PUSH4 0x1664F66 PUSH1 0x40 MLOAD DUP2 PUSH4 0xFFFFFFFF AND PUSH1 0xE0 SHL DUP2 MSTORE PUSH1 0x4 ADD PUSH1 0x20 PUSH1 0x40 MLOAD DUP1 DUP4 SUB DUP2 DUP7 DUP1 EXTCODESIZE ISZERO DUP1 ISZERO PUSH2 0x1A98 JUMPI PUSH1 0x0 DUP1 REVERT JUMPDEST POP GAS STATICCALL ISZERO DUP1 ISZERO PUSH2 0x1AAC JUMPI RETURNDATASIZE PUSH1 0x0 DUP1 RETURNDATACOPY RETURNDATASIZE PUSH1 0x0 REVERT JUMPDEST POP POP POP POP PUSH1 0x40 MLOAD RETURNDATASIZE PUSH1 0x1F NOT PUSH1 0x1F DUP3 ADD AND DUP3 ADD DUP1 PUSH1 0x40 MSTORE POP DUP2 ADD SWAP1 PUSH2 0x1AD0 SWAP2 SWAP1 PUSH2 0x3FF1 JUMP JUMPDEST PUSH20 0xFFFFFFFFFFFFFFFFFFFFFFFFFFFFFFFFFFFFFFFF DUP11 AND SWAP1 DUP9 PUSH2 0x348A JUMP JUMPDEST PUSH1 0x40 MLOAD PUSH32 0x9599127600000000000000000000000000000000000000000000000000000000 DUP2 MSTORE PUSH20 0xFFFFFFFFFFFFFFFFFFFFFFFFFFFFFFFFFFFFFFFF DUP3 AND SWAP1 PUSH4 0x95991276 SWAP1 PUSH2 0x1B42 SWAP1 ADDRESS SWAP1 DUP11 SWAP1 PUSH1 0x4 ADD PUSH2 0x4601 JUMP JUMPDEST PUSH1 0x0 PUSH1 0x40 MLOAD DUP1 DUP4 SUB DUP2 PUSH1 0x0 DUP8 DUP1 EXTCODESIZE ISZERO DUP1 ISZERO PUSH2 0x1B5C JUMPI PUSH1 0x0 DUP1 REVERT JUMPDEST POP GAS CALL ISZERO DUP1 ISZERO PUSH2 0x1B70 JUMPI RETURNDATASIZE PUSH1 0x0 DUP1 RETURNDATACOPY RETURNDATASIZE PUSH1 0x0 REVERT JUMPDEST POP POP POP POP PUSH2 0x1D94 JUMP JUMPDEST DUP3 PUSH1 0x20 ADD MLOAD PUSH20 0xFFFFFFFFFFFFFFFFFFFFFFFFFFFFFFFFFFFFFFFF AND DUP8 PUSH20 0xFFFFFFFFFFFFFFFFFFFFFFFFFFFFFFFFFFFFFFFF AND EQ ISZERO PUSH2 0x1D94 JUMPI PUSH1 0x0 PUSH2 0x1C43 DUP3 PUSH20 0xFFFFFFFFFFFFFFFFFFFFFFFFFFFFFFFFFFFFFFFF AND PUSH4 0xFAE036D5 PUSH1 0x40 MLOAD DUP2 PUSH4 0xFFFFFFFF AND PUSH1 0xE0 SHL DUP2 MSTORE PUSH1 0x4 ADD PUSH1 0x20 PUSH1 0x40 MLOAD DUP1 DUP4 SUB DUP2 DUP7 DUP1 EXTCODESIZE ISZERO DUP1 ISZERO PUSH2 0x1BFC JUMPI PUSH1 0x0 DUP1 REVERT JUMPDEST POP GAS STATICCALL ISZERO DUP1 ISZERO PUSH2 0x1C10 JUMPI RETURNDATASIZE PUSH1 0x0 DUP1 RETURNDATACOPY RETURNDATASIZE PUSH1 0x0 REVERT JUMPDEST POP POP POP POP PUSH1 0x40 MLOAD RETURNDATASIZE PUSH1 0x1F NOT PUSH1 0x1F DUP3 ADD AND DUP3 ADD DUP1 PUSH1 0x40 MSTORE POP DUP2 ADD SWAP1 PUSH2 0x1C34 SWAP2 SWAP1 PUSH2 0x43BB JUMP JUMPDEST PUSH8 0xDE0B6B3A7640000 SWAP1 PUSH2 0x3784 JUMP JUMPDEST SWAP1 POP PUSH1 0x0 DUP9 PUSH20 0xFFFFFFFFFFFFFFFFFFFFFFFFFFFFFFFFFFFFFFFF AND PUSH4 0x313CE567 PUSH1 0x40 MLOAD DUP2 PUSH4 0xFFFFFFFF AND PUSH1 0xE0 SHL DUP2 MSTORE PUSH1 0x4 ADD PUSH1 0x20 PUSH1 0x40 MLOAD DUP1 DUP4 SUB DUP2 DUP7 DUP1 EXTCODESIZE ISZERO DUP1 ISZERO PUSH2 0x1C8D JUMPI PUSH1 0x0 DUP1 REVERT JUMPDEST POP GAS STATICCALL ISZERO DUP1 ISZERO PUSH2 0x1CA1 JUMPI RETURNDATASIZE PUSH1 0x0 DUP1 RETURNDATACOPY RETURNDATASIZE PUSH1 0x0 REVERT JUMPDEST POP POP POP POP PUSH1 0x40 MLOAD RETURNDATASIZE PUSH1 0x1F NOT PUSH1 0x1F DUP3 ADD AND DUP3 ADD DUP1 PUSH1 0x40 MSTORE POP DUP2 ADD SWAP1 PUSH2 0x1CC5 SWAP2 SWAP1 PUSH2 0x449E JUMP JUMPDEST PUSH1 0xFF AND PUSH1 0xA EXP SWAP1 POP PUSH1 0x0 PUSH2 0x1CE3 DUP4 PUSH2 0x1CDD DUP12 DUP6 PUSH2 0x37A0 JUMP JUMPDEST SWAP1 PUSH2 0x37D1 JUMP JUMPDEST DUP7 MLOAD SWAP1 SWAP2 POP PUSH2 0x1D0A SWAP1 PUSH20 0xFFFFFFFFFFFFFFFFFFFFFFFFFFFFFFFFFFFFFFFF DUP14 AND SWAP1 DUP12 PUSH2 0x348A JUMP JUMPDEST PUSH1 0x40 MLOAD PUSH32 0x8D7EF9BB00000000000000000000000000000000000000000000000000000000 DUP2 MSTORE PUSH20 0xFFFFFFFFFFFFFFFFFFFFFFFFFFFFFFFFFFFFFFFF DUP6 AND SWAP1 PUSH4 0x8D7EF9BB SWAP1 PUSH2 0x1D5E SWAP1 ADDRESS SWAP1 DUP6 SWAP1 PUSH1 0x4 ADD PUSH2 0x4601 JUMP JUMPDEST PUSH1 0x0 PUSH1 0x40 MLOAD DUP1 DUP4 SUB DUP2 PUSH1 0x0 DUP8 DUP1 EXTCODESIZE ISZERO DUP1 ISZERO PUSH2 0x1D78 JUMPI PUSH1 0x0 DUP1 REVERT JUMPDEST POP GAS CALL ISZERO DUP1 ISZERO PUSH2 0x1D8C JUMPI RETURNDATASIZE PUSH1 0x0 DUP1 RETURNDATACOPY RETURNDATASIZE PUSH1 0x0 REVERT JUMPDEST POP POP POP POP POP POP POP JUMPDEST PUSH2 0x159A DUP3 DUP9 PUSH20 0xFFFFFFFFFFFFFFFFFFFFFFFFFFFFFFFFFFFFFFFF AND PUSH4 0x70A08231 ADDRESS PUSH1 0x40 MLOAD DUP3 PUSH4 0xFFFFFFFF AND PUSH1 0xE0 SHL DUP2 MSTORE PUSH1 0x4 ADD PUSH2 0x8BA SWAP2 SWAP1 PUSH2 0x45B9 JUMP JUMPDEST PUSH1 0x0 DUP1 DUP3 DUP1 PUSH1 0x20 ADD SWAP1 MLOAD DUP2 ADD SWAP1 PUSH2 0x1DE8 SWAP2 SWAP1 PUSH2 0x3FF1 JUMP JUMPDEST SWAP1 POP PUSH1 0x0 PUSH32 0x0 PUSH20 0xFFFFFFFFFFFFFFFFFFFFFFFFFFFFFFFFFFFFFFFF AND DUP8 PUSH20 0xFFFFFFFFFFFFFFFFFFFFFFFFFFFFFFFFFFFFFFFF AND EQ ISZERO PUSH2 0x1EEC JUMPI PUSH1 0x40 MLOAD PUSH32 0x2E1A7D4D00000000000000000000000000000000000000000000000000000000 DUP2 MSTORE PUSH20 0xFFFFFFFFFFFFFFFFFFFFFFFFFFFFFFFFFFFFFFFF PUSH32 0x0 AND SWAP1 PUSH4 0x2E1A7D4D SWAP1 PUSH2 0x1EB2 SWAP1 DUP9 SWAP1 PUSH1 0x4 ADD PUSH2 0x4E54 JUMP JUMPDEST PUSH1 0x0 PUSH1 0x40 MLOAD DUP1 DUP4 SUB DUP2 PUSH1 0x0 DUP8 DUP1 EXTCODESIZE ISZERO DUP1 ISZERO PUSH2 0x1ECC JUMPI PUSH1 0x0 DUP1 REVERT JUMPDEST POP GAS CALL ISZERO DUP1 ISZERO PUSH2 0x1EE0 JUMPI RETURNDATASIZE PUSH1 0x0 DUP1 RETURNDATACOPY RETURNDATASIZE PUSH1 0x0 REVERT JUMPDEST POP POP POP POP DUP5 SWAP1 POP PUSH2 0x1F0D JUMP JUMPDEST PUSH2 0x1F0D PUSH20 0xFFFFFFFFFFFFFFFFFFFFFFFFFFFFFFFFFFFFFFFF DUP9 AND DUP4 DUP8 PUSH2 0x348A JUMP JUMPDEST DUP2 PUSH20 0xFFFFFFFFFFFFFFFFFFFFFFFFFFFFFFFFFFFFFFFF AND PUSH4 0xD5BCB9B5 DUP3 PUSH32 0x0 PUSH20 0xFFFFFFFFFFFFFFFFFFFFFFFFFFFFFFFFFFFFFFFF AND DUP11 PUSH20 0xFFFFFFFFFFFFFFFFFFFFFFFFFFFFFFFFFFFFFFFF AND EQ PUSH2 0x1F83 JUMPI DUP10 PUSH2 0x1F86 JUMP JUMPDEST PUSH1 0x0 JUMPDEST PUSH32 0x0 PUSH20 0xFFFFFFFFFFFFFFFFFFFFFFFFFFFFFFFFFFFFFFFF AND DUP11 PUSH20 0xFFFFFFFFFFFFFFFFFFFFFFFFFFFFFFFFFFFFFFFF AND EQ PUSH2 0x1FDF JUMPI DUP10 PUSH2 0x1FE2 JUMP JUMPDEST PUSH1 0x0 JUMPDEST DUP10 PUSH1 0x1 PUSH1 0x0 PUSH1 0x40 MLOAD DUP8 PUSH4 0xFFFFFFFF AND PUSH1 0xE0 SHL DUP2 MSTORE PUSH1 0x4 ADD PUSH2 0x2007 SWAP6 SWAP5 SWAP4 SWAP3 SWAP2 SWAP1 PUSH2 0x473C JUMP JUMPDEST PUSH1 0x20 PUSH1 0x40 MLOAD DUP1 DUP4 SUB DUP2 DUP6 DUP9 DUP1 EXTCODESIZE ISZERO DUP1 ISZERO PUSH2 0x2020 JUMPI PUSH1 0x0 DUP1 REVERT JUMPDEST POP GAS CALL ISZERO DUP1 ISZERO PUSH2 0x2034 JUMPI RETURNDATASIZE PUSH1 0x0 DUP1 RETURNDATACOPY RETURNDATASIZE PUSH1 0x0 REVERT JUMPDEST POP POP POP POP POP PUSH1 0x40 MLOAD RETURNDATASIZE PUSH1 0x1F NOT PUSH1 0x1F DUP3 ADD AND DUP3 ADD DUP1 PUSH1 0x40 MSTORE POP DUP2 ADD SWAP1 PUSH2 0x2059 SWAP2 SWAP1 PUSH2 0x43BB JUMP JUMPDEST SWAP3 POP PUSH32 0x0 PUSH20 0xFFFFFFFFFFFFFFFFFFFFFFFFFFFFFFFFFFFFFFFF AND DUP7 PUSH20 0xFFFFFFFFFFFFFFFFFFFFFFFFFFFFFFFFFFFFFFFF AND EQ ISZERO PUSH2 0x12EA JUMPI PUSH32 0x0 PUSH20 0xFFFFFFFFFFFFFFFFFFFFFFFFFFFFFFFFFFFFFFFF AND PUSH4 0xD0E30DB0 DUP5 PUSH1 0x40 MLOAD DUP3 PUSH4 0xFFFFFFFF AND PUSH1 0xE0 SHL DUP2 MSTORE PUSH1 0x4 ADD PUSH1 0x0 PUSH1 0x40 MLOAD DUP1 DUP4 SUB DUP2 DUP6 DUP9 DUP1 EXTCODESIZE ISZERO DUP1 ISZERO PUSH2 0x2117 JUMPI PUSH1 0x0 DUP1 REVERT JUMPDEST POP GAS CALL ISZERO DUP1 ISZERO PUSH2 0x212B JUMPI RETURNDATASIZE PUSH1 0x0 DUP1 RETURNDATACOPY RETURNDATASIZE PUSH1 0x0 REVERT JUMPDEST POP POP POP POP POP POP POP SWAP5 SWAP4 POP POP POP POP JUMP JUMPDEST PUSH1 0x0 DUP1 DUP3 DUP1 PUSH1 0x20 ADD SWAP1 MLOAD DUP2 ADD SWAP1 PUSH2 0x2151 SWAP2 SWAP1 PUSH2 0x3FF1 JUMP JUMPDEST SWAP1 POP PUSH2 0x2174 PUSH20 0xFFFFFFFFFFFFFFFFFFFFFFFFFFFFFFFFFFFFFFFF DUP8 AND DUP3 DUP7 PUSH2 0x348A JUMP JUMPDEST PUSH1 0x40 MLOAD PUSH32 0xD5BCB9B500000000000000000000000000000000000000000000000000000000 DUP2 MSTORE PUSH20 0xFFFFFFFFFFFFFFFFFFFFFFFFFFFFFFFFFFFFFFFF DUP3 AND SWAP1 PUSH4 0xD5BCB9B5 SWAP1 PUSH2 0xC2B SWAP1 DUP10 SWAP1 DUP10 SWAP1 DUP10 SWAP1 PUSH1 0x1 SWAP1 ADDRESS SWAP1 PUSH1 0x4 ADD PUSH2 0x473C JUMP JUMPDEST PUSH1 0x0 DUP1 DUP3 DUP1 PUSH1 0x20 ADD SWAP1 MLOAD DUP2 ADD SWAP1 PUSH2 0x21E6 SWAP2 SWAP1 PUSH2 0x3FF1 JUMP JUMPDEST SWAP1 POP PUSH2 0x2209 PUSH20 0xFFFFFFFFFFFFFFFFFFFFFFFFFFFFFFFFFFFFFFFF DUP8 AND DUP3 DUP7 PUSH2 0x348A JUMP JUMPDEST PUSH1 0x40 MLOAD PUSH32 0x621B4F600000000000000000000000000000000000000000000000000000000 DUP2 MSTORE PUSH20 0xFFFFFFFFFFFFFFFFFFFFFFFFFFFFFFFFFFFFFFFF DUP3 AND SWAP1 PUSH4 0x621B4F6 SWAP1 PUSH2 0xC2B SWAP1 DUP10 SWAP1 DUP9 SWAP1 DUP11 SWAP1 PUSH1 0x1 SWAP1 PUSH1 0x4 ADD PUSH2 0x4822 JUMP JUMPDEST PUSH1 0x0 DUP1 DUP3 DUP1 PUSH1 0x20 ADD SWAP1 MLOAD DUP2 ADD SWAP1 PUSH2 0x2279 SWAP2 SWAP1 PUSH2 0x3FF1 JUMP JUMPDEST SWAP1 POP PUSH2 0x229C PUSH20 0xFFFFFFFFFFFFFFFFFFFFFFFFFFFFFFFFFFFFFFFF DUP8 AND DUP3 DUP7 PUSH2 0x348A JUMP JUMPDEST PUSH1 0x40 MLOAD PUSH32 0xB2583C800000000000000000000000000000000000000000000000000000000 DUP2 MSTORE PUSH20 0xFFFFFFFFFFFFFFFFFFFFFFFFFFFFFFFFFFFFFFFF DUP3 AND SWAP1 PUSH4 0xB2583C8 SWAP1 PUSH2 0xC2B SWAP1 DUP10 SWAP1 DUP10 SWAP1 DUP10 SWAP1 PUSH1 0x1 SWAP1 TIMESTAMP DUP3 ADD SWAP1 PUSH1 0x4 ADD PUSH2 0x4779 JUMP JUMPDEST PUSH1 0x0 DUP1 PUSH1 0x0 DUP1 DUP5 DUP1 PUSH1 0x20 ADD SWAP1 MLOAD DUP2 ADD SWAP1 PUSH2 0x2313 SWAP2 SWAP1 PUSH2 0x4160 JUMP JUMPDEST SWAP2 SWAP5 POP SWAP3 POP SWAP1 POP PUSH2 0x233B PUSH20 0xFFFFFFFFFFFFFFFFFFFFFFFFFFFFFFFFFFFFFFFF DUP9 AND DUP4 DUP9 PUSH2 0x348A JUMP JUMPDEST DUP1 ISZERO PUSH2 0x23FE JUMPI PUSH1 0x40 DUP1 MLOAD PUSH1 0x0 DUP2 MSTORE PUSH1 0x20 DUP2 ADD SWAP2 DUP3 SWAP1 MSTORE PUSH32 0x8DAE733300000000000000000000000000000000000000000000000000000000 SWAP1 SWAP2 MSTORE PUSH20 0xFFFFFFFFFFFFFFFFFFFFFFFFFFFFFFFFFFFFFFFF DUP4 AND SWAP1 PUSH4 0x8DAE7333 SWAP1 PUSH2 0x23A5 SWAP1 DUP10 SWAP1 PUSH1 0x1 SWAP1 PUSH1 0x24 DUP2 ADD PUSH2 0x4F03 JUMP JUMPDEST PUSH1 0x20 PUSH1 0x40 MLOAD DUP1 DUP4 SUB DUP2 PUSH1 0x0 DUP8 DUP1 EXTCODESIZE ISZERO DUP1 ISZERO PUSH2 0x23BF JUMPI PUSH1 0x0 DUP1 REVERT JUMPDEST POP GAS CALL ISZERO DUP1 ISZERO PUSH2 0x23D3 JUMPI RETURNDATASIZE PUSH1 0x0 DUP1 RETURNDATACOPY RETURNDATASIZE PUSH1 0x0 REVERT JUMPDEST POP POP POP POP PUSH1 0x40 MLOAD RETURNDATASIZE PUSH1 0x1F NOT PUSH1 0x1F DUP3 ADD AND DUP3 ADD DUP1 PUSH1 0x40 MSTORE POP DUP2 ADD SWAP1 PUSH2 0x23F7 SWAP2 SWAP1 PUSH2 0x43BB JUMP JUMPDEST SWAP4 POP PUSH2 0x255C JUMP JUMPDEST PUSH1 0x40 MLOAD PUSH32 0xCA19EBD900000000000000000000000000000000000000000000000000000000 DUP2 MSTORE PUSH20 0xFFFFFFFFFFFFFFFFFFFFFFFFFFFFFFFFFFFFFFFF DUP5 AND SWAP1 PUSH4 0xCA19EBD9 SWAP1 PUSH2 0x2452 SWAP1 DUP6 SWAP1 DUP11 SWAP1 PUSH1 0x4 ADD PUSH2 0x4601 JUMP JUMPDEST PUSH1 0x20 PUSH1 0x40 MLOAD DUP1 DUP4 SUB DUP2 DUP7 DUP1 EXTCODESIZE ISZERO DUP1 ISZERO PUSH2 0x246A JUMPI PUSH1 0x0 DUP1 REVERT JUMPDEST POP GAS STATICCALL ISZERO DUP1 ISZERO PUSH2 0x247E JUMPI RETURNDATASIZE PUSH1 0x0 DUP1 RETURNDATACOPY RETURNDATASIZE PUSH1 0x0 REVERT JUMPDEST POP POP POP POP PUSH1 0x40 MLOAD RETURNDATASIZE PUSH1 0x1F NOT PUSH1 0x1F DUP3 ADD AND DUP3 ADD DUP1 PUSH1 0x40 MSTORE POP DUP2 ADD SWAP1 PUSH2 0x24A2 SWAP2 SWAP1 PUSH2 0x43BB JUMP JUMPDEST PUSH1 0x40 DUP1 MLOAD PUSH1 0x0 DUP2 MSTORE PUSH1 0x20 DUP2 ADD SWAP2 DUP3 SWAP1 MSTORE PUSH32 0xE67CE70600000000000000000000000000000000000000000000000000000000 SWAP1 SWAP2 MSTORE SWAP1 SWAP5 POP PUSH20 0xFFFFFFFFFFFFFFFFFFFFFFFFFFFFFFFFFFFFFFFF DUP4 AND SWAP1 PUSH4 0xE67CE706 SWAP1 PUSH2 0x2508 SWAP1 DUP8 SWAP1 DUP11 SWAP1 PUSH1 0x24 DUP2 ADD PUSH2 0x4F03 JUMP JUMPDEST PUSH1 0x20 PUSH1 0x40 MLOAD DUP1 DUP4 SUB DUP2 PUSH1 0x0 DUP8 DUP1 EXTCODESIZE ISZERO DUP1 ISZERO PUSH2 0x2522 JUMPI PUSH1 0x0 DUP1 REVERT JUMPDEST POP GAS CALL ISZERO DUP1 ISZERO PUSH2 0x2536 JUMPI RETURNDATASIZE PUSH1 0x0 DUP1 RETURNDATACOPY RETURNDATASIZE PUSH1 0x0 REVERT JUMPDEST POP POP POP POP PUSH1 0x40 MLOAD RETURNDATASIZE PUSH1 0x1F NOT PUSH1 0x1F DUP3 ADD AND DUP3 ADD DUP1 PUSH1 0x40 MSTORE POP DUP2 ADD SWAP1 PUSH2 0x255A SWAP2 SWAP1 PUSH2 0x43BB JUMP JUMPDEST POP JUMPDEST POP POP POP SWAP4 SWAP3 POP POP POP JUMP JUMPDEST PUSH1 0x0 DUP1 PUSH1 0x0 DUP4 DUP1 PUSH1 0x20 ADD SWAP1 MLOAD DUP2 ADD SWAP1 PUSH2 0x257F SWAP2 SWAP1 PUSH2 0x41B0 JUMP JUMPDEST SWAP1 SWAP3 POP SWAP1 POP PUSH2 0x25A5 PUSH20 0xFFFFFFFFFFFFFFFFFFFFFFFFFFFFFFFFFFFFFFFF DUP8 AND DUP4 DUP8 PUSH2 0x37FB JUMP JUMPDEST DUP1 PUSH2 0x2653 JUMPI PUSH1 0x40 MLOAD PUSH32 0xDD93F59A00000000000000000000000000000000000000000000000000000000 DUP2 MSTORE PUSH20 0xFFFFFFFFFFFFFFFFFFFFFFFFFFFFFFFFFFFFFFFF DUP4 AND SWAP1 PUSH4 0xDD93F59A SWAP1 PUSH2 0x25FC SWAP1 ADDRESS SWAP1 PUSH1 0x4 ADD PUSH2 0x45B9 JUMP JUMPDEST PUSH1 0x20 PUSH1 0x40 MLOAD DUP1 DUP4 SUB DUP2 PUSH1 0x0 DUP8 DUP1 EXTCODESIZE ISZERO DUP1 ISZERO PUSH2 0x2616 JUMPI PUSH1 0x0 DUP1 REVERT JUMPDEST POP GAS CALL ISZERO DUP1 ISZERO PUSH2 0x262A JUMPI RETURNDATASIZE PUSH1 0x0 DUP1 RETURNDATACOPY RETURNDATASIZE PUSH1 0x0 REVERT JUMPDEST POP POP POP POP PUSH1 0x40 MLOAD RETURNDATASIZE PUSH1 0x1F NOT PUSH1 0x1F DUP3 ADD AND DUP3 ADD DUP1 PUSH1 0x40 MSTORE POP DUP2 ADD SWAP1 PUSH2 0x264E SWAP2 SWAP1 PUSH2 0x43BB JUMP JUMPDEST PUSH2 0xC7D JUMP JUMPDEST PUSH1 0x40 MLOAD PUSH32 0xBD6015B400000000000000000000000000000000000000000000000000000000 DUP2 MSTORE PUSH20 0xFFFFFFFFFFFFFFFFFFFFFFFFFFFFFFFFFFFFFFFF DUP4 AND SWAP1 PUSH4 0xBD6015B4 SWAP1 PUSH2 0xC2B SWAP1 ADDRESS SWAP1 PUSH1 0x4 ADD PUSH2 0x45B9 JUMP JUMPDEST PUSH1 0x0 DUP1 PUSH1 0x60 DUP1 DUP5 DUP1 PUSH1 0x20 ADD SWAP1 MLOAD DUP2 ADD SWAP1 PUSH2 0x26BF SWAP2 SWAP1 PUSH2 0x4111 JUMP JUMPDEST DUP1 MLOAD SWAP2 SWAP5 POP SWAP3 POP PUSH1 0x2 GT ISZERO SWAP1 POP PUSH2 0x2702 JUMPI PUSH1 0x40 MLOAD PUSH32 0x8C379A000000000000000000000000000000000000000000000000000000000 DUP2 MSTORE PUSH1 0x4 ADD PUSH2 0xCE4 SWAP1 PUSH2 0x4A3A JUMP JUMPDEST DUP6 PUSH20 0xFFFFFFFFFFFFFFFFFFFFFFFFFFFFFFFFFFFFFFFF AND DUP2 PUSH1 0x1 DUP4 MLOAD SUB DUP2 MLOAD DUP2 LT PUSH2 0x2729 JUMPI INVALID JUMPDEST PUSH1 0x20 MUL PUSH1 0x20 ADD ADD MLOAD PUSH20 0xFFFFFFFFFFFFFFFFFFFFFFFFFFFFFFFFFFFFFFFF AND EQ PUSH2 0xD69 JUMPI PUSH1 0x40 MLOAD PUSH32 0x8C379A000000000000000000000000000000000000000000000000000000000 DUP2 MSTORE PUSH1 0x4 ADD PUSH2 0xCE4 SWAP1 PUSH2 0x4CFA JUMP JUMPDEST PUSH1 0x0 DUP1 PUSH1 0x60 DUP1 DUP5 DUP1 PUSH1 0x20 ADD SWAP1 MLOAD DUP2 ADD SWAP1 PUSH2 0x2798 SWAP2 SWAP1 PUSH2 0x4111 JUMP JUMPDEST DUP1 MLOAD SWAP2 SWAP5 POP SWAP3 POP PUSH1 0x2 GT ISZERO SWAP1 POP PUSH2 0x27DB JUMPI PUSH1 0x40 MLOAD PUSH32 0x8C379A000000000000000000000000000000000000000000000000000000000 DUP2 MSTORE PUSH1 0x4 ADD PUSH2 0xCE4 SWAP1 PUSH2 0x4980 JUMP JUMPDEST DUP6 PUSH20 0xFFFFFFFFFFFFFFFFFFFFFFFFFFFFFFFFFFFFFFFF AND DUP2 PUSH1 0x1 DUP4 MLOAD SUB DUP2 MLOAD DUP2 LT PUSH2 0x2802 JUMPI INVALID JUMPDEST PUSH1 0x20 MUL PUSH1 0x20 ADD ADD MLOAD PUSH20 0xFFFFFFFFFFFFFFFFFFFFFFFFFFFFFFFFFFFFFFFF AND EQ DUP1 PUSH2 0x28D8 JUMPI POP PUSH20 0xEEEEEEEEEEEEEEEEEEEEEEEEEEEEEEEEEEEEEEEE PUSH20 0xFFFFFFFFFFFFFFFFFFFFFFFFFFFFFFFFFFFFFFFF AND DUP2 PUSH1 0x1 DUP4 MLOAD SUB DUP2 MLOAD DUP2 LT PUSH2 0x2862 JUMPI INVALID JUMPDEST PUSH1 0x20 MUL PUSH1 0x20 ADD ADD MLOAD PUSH20 0xFFFFFFFFFFFFFFFFFFFFFFFFFFFFFFFFFFFFFFFF AND EQ DUP1 ISZERO PUSH2 0x28D8 JUMPI POP PUSH32 0x0 PUSH20 0xFFFFFFFFFFFFFFFFFFFFFFFFFFFFFFFFFFFFFFFF AND DUP7 PUSH20 0xFFFFFFFFFFFFFFFFFFFFFFFFFFFFFFFFFFFFFFFF AND EQ JUMPDEST PUSH2 0x290E JUMPI PUSH1 0x40 MLOAD PUSH32 0x8C379A000000000000000000000000000000000000000000000000000000000 DUP2 MSTORE PUSH1 0x4 ADD PUSH2 0xCE4 SWAP1 PUSH2 0x4BE3 JUMP JUMPDEST PUSH1 0x0 PUSH20 0xEEEEEEEEEEEEEEEEEEEEEEEEEEEEEEEEEEEEEEEE PUSH20 0xFFFFFFFFFFFFFFFFFFFFFFFFFFFFFFFFFFFFFFFF AND DUP3 PUSH1 0x0 DUP2 MLOAD DUP2 LT PUSH2 0x2948 JUMPI INVALID JUMPDEST PUSH1 0x20 MUL PUSH1 0x20 ADD ADD MLOAD PUSH20 0xFFFFFFFFFFFFFFFFFFFFFFFFFFFFFFFFFFFFFFFF AND EQ ISZERO PUSH2 0x2A18 JUMPI PUSH1 0x40 MLOAD PUSH32 0x2E1A7D4D00000000000000000000000000000000000000000000000000000000 DUP2 MSTORE PUSH20 0xFFFFFFFFFFFFFFFFFFFFFFFFFFFFFFFFFFFFFFFF PUSH32 0x0 AND SWAP1 PUSH4 0x2E1A7D4D SWAP1 PUSH2 0x29DE SWAP1 DUP10 SWAP1 PUSH1 0x4 ADD PUSH2 0x4E54 JUMP JUMPDEST PUSH1 0x0 PUSH1 0x40 MLOAD DUP1 DUP4 SUB DUP2 PUSH1 0x0 DUP8 DUP1 EXTCODESIZE ISZERO DUP1 ISZERO PUSH2 0x29F8 JUMPI PUSH1 0x0 DUP1 REVERT JUMPDEST POP GAS CALL ISZERO DUP1 ISZERO PUSH2 0x2A0C JUMPI RETURNDATASIZE PUSH1 0x0 DUP1 RETURNDATACOPY RETURNDATASIZE PUSH1 0x0 REVERT JUMPDEST POP POP POP POP DUP6 SWAP1 POP PUSH2 0x2A37 JUMP JUMPDEST PUSH2 0x2A37 DUP3 PUSH1 0x0 DUP2 MLOAD DUP2 LT PUSH2 0x2A28 JUMPI INVALID JUMPDEST PUSH1 0x20 MUL PUSH1 0x20 ADD ADD MLOAD DUP5 DUP9 PUSH2 0x348A JUMP JUMPDEST PUSH1 0x40 MLOAD PUSH32 0xB77D239B00000000000000000000000000000000000000000000000000000000 DUP2 MSTORE PUSH20 0xFFFFFFFFFFFFFFFFFFFFFFFFFFFFFFFFFFFFFFFF DUP5 AND SWAP1 PUSH4 0xB77D239B SWAP1 DUP4 SWAP1 PUSH2 0x2A97 SWAP1 DUP7 SWAP1 DUP12 SWAP1 PUSH1 0x1 SWAP1 ADDRESS SWAP1 PUSH1 0x0 SWAP1 DUP2 SWAP1 PUSH1 0x4 ADD PUSH2 0x4627 JUMP JUMPDEST PUSH1 0x20 PUSH1 0x40 MLOAD DUP1 DUP4 SUB DUP2 DUP6 DUP9 DUP1 EXTCODESIZE ISZERO DUP1 ISZERO PUSH2 0x2AB0 JUMPI PUSH1 0x0 DUP1 REVERT JUMPDEST POP GAS CALL ISZERO DUP1 ISZERO PUSH2 0x2AC4 JUMPI RETURNDATASIZE PUSH1 0x0 DUP1 RETURNDATACOPY RETURNDATASIZE PUSH1 0x0 REVERT JUMPDEST POP POP POP POP POP PUSH1 0x40 MLOAD RETURNDATASIZE PUSH1 0x1F NOT PUSH1 0x1F DUP3 ADD AND DUP3 ADD DUP1 PUSH1 0x40 MSTORE POP DUP2 ADD SWAP1 PUSH2 0x2AE9 SWAP2 SWAP1 PUSH2 0x43BB JUMP JUMPDEST SWAP4 POP PUSH20 0xEEEEEEEEEEEEEEEEEEEEEEEEEEEEEEEEEEEEEEEE PUSH20 0xFFFFFFFFFFFFFFFFFFFFFFFFFFFFFFFFFFFFFFFF AND DUP3 PUSH1 0x1 DUP5 MLOAD SUB DUP2 MLOAD DUP2 LT PUSH2 0x2B26 JUMPI INVALID JUMPDEST PUSH1 0x20 MUL PUSH1 0x20 ADD ADD MLOAD PUSH20 0xFFFFFFFFFFFFFFFFFFFFFFFFFFFFFFFFFFFFFFFF AND EQ ISZERO PUSH2 0x255C JUMPI PUSH32 0x0 PUSH20 0xFFFFFFFFFFFFFFFFFFFFFFFFFFFFFFFFFFFFFFFF AND PUSH4 0xD0E30DB0 DUP6 PUSH1 0x40 MLOAD DUP3 PUSH4 0xFFFFFFFF AND PUSH1 0xE0 SHL DUP2 MSTORE PUSH1 0x4 ADD PUSH1 0x0 PUSH1 0x40 MLOAD DUP1 DUP4 SUB DUP2 DUP6 DUP9 DUP1 EXTCODESIZE ISZERO DUP1 ISZERO PUSH2 0x2BB2 JUMPI PUSH1 0x0 DUP1 REVERT JUMPDEST POP GAS CALL ISZERO DUP1 ISZERO PUSH2 0x2BC6 JUMPI RETURNDATASIZE PUSH1 0x0 DUP1 RETURNDATACOPY RETURNDATASIZE PUSH1 0x0 REVERT JUMPDEST POP POP POP POP POP POP POP POP SWAP4 SWAP3 POP POP POP JUMP JUMPDEST PUSH1 0x0 DUP1 PUSH1 0x0 DUP4 DUP1 PUSH1 0x20 ADD SWAP1 MLOAD DUP2 ADD SWAP1 PUSH2 0x2BEE SWAP2 SWAP1 PUSH2 0x43D3 JUMP JUMPDEST SWAP2 POP SWAP2 POP PUSH2 0x2BFD DUP8 DUP3 DUP8 PUSH2 0x37FB JUMP JUMPDEST PUSH1 0x40 MLOAD PUSH32 0x9F44296A00000000000000000000000000000000000000000000000000000000 DUP2 MSTORE PUSH20 0xFFFFFFFFFFFFFFFFFFFFFFFFFFFFFFFFFFFFFFFF DUP3 AND SWAP1 PUSH4 0x9F44296A SWAP1 DUP5 SWAP1 PUSH2 0x2C53 SWAP1 DUP11 SWAP1 ADDRESS SWAP1 PUSH1 0x4 ADD PUSH2 0x45DA JUMP JUMPDEST PUSH1 0xE0 PUSH1 0x40 MLOAD DUP1 DUP4 SUB DUP2 DUP6 DUP9 DUP1 EXTCODESIZE ISZERO DUP1 ISZERO PUSH2 0x2C6C JUMPI PUSH1 0x0 DUP1 REVERT JUMPDEST POP GAS CALL ISZERO DUP1 ISZERO PUSH2 0x2C80 JUMPI RETURNDATASIZE PUSH1 0x0 DUP1 RETURNDATACOPY RETURNDATASIZE PUSH1 0x0 REVERT JUMPDEST POP POP POP POP POP PUSH1 0x40 MLOAD RETURNDATASIZE PUSH1 0x1F NOT PUSH1 0x1F DUP3 ADD AND DUP3 ADD DUP1 PUSH1 0x40 MSTORE POP DUP2 ADD SWAP1 PUSH2 0x2CA5 SWAP2 SWAP1 PUSH2 0x441A JUMP JUMPDEST POP SWAP1 SWAP10 SWAP9 POP POP POP POP POP POP POP POP POP JUMP JUMPDEST PUSH1 0x0 PUSH2 0x2CBE PUSH2 0x3DF3 JUMP JUMPDEST DUP3 DUP1 PUSH1 0x20 ADD SWAP1 MLOAD DUP2 ADD SWAP1 PUSH2 0x2CD2 SWAP2 SWAP1 PUSH2 0x435E JUMP JUMPDEST DUP1 MLOAD SWAP1 SWAP2 POP PUSH2 0x2CF9 SWAP1 PUSH20 0xFFFFFFFFFFFFFFFFFFFFFFFFFFFFFFFFFFFFFFFF DUP8 AND SWAP1 DUP7 PUSH2 0x348A JUMP JUMPDEST PUSH1 0x0 PUSH1 0x60 DUP3 PUSH1 0x0 ADD MLOAD PUSH20 0xFFFFFFFFFFFFFFFFFFFFFFFFFFFFFFFFFFFFFFFF AND DUP4 PUSH1 0x20 ADD MLOAD DUP5 PUSH1 0x40 ADD MLOAD DUP6 PUSH1 0x60 ADD MLOAD DUP10 PUSH1 0x1 TIMESTAMP PUSH1 0x40 MLOAD PUSH1 0x24 ADD PUSH2 0x2D3F SWAP6 SWAP5 SWAP4 SWAP3 SWAP2 SWAP1 PUSH2 0x48EF JUMP JUMPDEST PUSH1 0x40 DUP1 MLOAD PUSH32 0xFFFFFFFFFFFFFFFFFFFFFFFFFFFFFFFFFFFFFFFFFFFFFFFFFFFFFFFFFFFFFFE0 DUP2 DUP5 SUB ADD DUP2 MSTORE SWAP2 DUP2 MSTORE PUSH1 0x20 DUP3 ADD DUP1 MLOAD PUSH28 0xFFFFFFFFFFFFFFFFFFFFFFFFFFFFFFFFFFFFFFFFFFFFFFFFFFFFFFFF AND PUSH32 0xFFFFFFFF00000000000000000000000000000000000000000000000000000000 SWAP1 SWAP5 AND SWAP4 SWAP1 SWAP4 OR SWAP1 SWAP3 MSTORE SWAP1 MLOAD PUSH2 0x2DC8 SWAP2 SWAP1 PUSH2 0x459D JUMP JUMPDEST PUSH1 0x0 PUSH1 0x40 MLOAD DUP1 DUP4 SUB DUP2 PUSH1 0x0 DUP7 GAS CALL SWAP2 POP POP RETURNDATASIZE DUP1 PUSH1 0x0 DUP2 EQ PUSH2 0x2E05 JUMPI PUSH1 0x40 MLOAD SWAP2 POP PUSH1 0x1F NOT PUSH1 0x3F RETURNDATASIZE ADD AND DUP3 ADD PUSH1 0x40 MSTORE RETURNDATASIZE DUP3 MSTORE RETURNDATASIZE PUSH1 0x0 PUSH1 0x20 DUP5 ADD RETURNDATACOPY PUSH2 0x2E0A JUMP JUMPDEST PUSH1 0x60 SWAP2 POP JUMPDEST POP SWAP2 POP SWAP2 POP DUP2 PUSH2 0x2E1D JUMPI PUSH2 0x2E1D DUP2 PUSH2 0x3566 JUMP JUMPDEST DUP1 DUP1 PUSH1 0x20 ADD SWAP1 MLOAD DUP2 ADD SWAP1 PUSH2 0x2E31 SWAP2 SWAP1 PUSH2 0x43BB JUMP JUMPDEST SWAP8 SWAP7 POP POP POP POP POP POP POP JUMP JUMPDEST PUSH1 0x0 DUP1 PUSH1 0x60 DUP1 DUP5 DUP1 PUSH1 0x20 ADD SWAP1 MLOAD DUP2 ADD SWAP1 PUSH2 0x2E56 SWAP2 SWAP1 PUSH2 0x400D JUMP JUMPDEST DUP2 MLOAD SWAP3 SWAP6 POP SWAP1 SWAP4 POP SWAP2 POP PUSH1 0x1 GT ISZERO PUSH2 0x2E9A JUMPI PUSH1 0x40 MLOAD PUSH32 0x8C379A000000000000000000000000000000000000000000000000000000000 DUP2 MSTORE PUSH1 0x4 ADD PUSH2 0xCE4 SWAP1 PUSH2 0x4C40 JUMP JUMPDEST DUP2 MLOAD PUSH1 0x1 ADD DUP2 MLOAD EQ PUSH2 0x2ED8 JUMPI PUSH1 0x40 MLOAD PUSH32 0x8C379A000000000000000000000000000000000000000000000000000000000 DUP2 MSTORE PUSH1 0x4 ADD PUSH2 0xCE4 SWAP1 PUSH2 0x4AF4 JUMP JUMPDEST DUP7 PUSH20 0xFFFFFFFFFFFFFFFFFFFFFFFFFFFFFFFFFFFFFFFF AND DUP2 PUSH1 0x1 DUP4 MLOAD SUB DUP2 MLOAD DUP2 LT PUSH2 0x2EFF JUMPI INVALID JUMPDEST PUSH1 0x20 MUL PUSH1 0x20 ADD ADD MLOAD PUSH20 0xFFFFFFFFFFFFFFFFFFFFFFFFFFFFFFFFFFFFFFFF AND EQ PUSH2 0x2F54 JUMPI PUSH1 0x40 MLOAD PUSH32 0x8C379A000000000000000000000000000000000000000000000000000000000 DUP2 MSTORE PUSH1 0x4 ADD PUSH2 0xCE4 SWAP1 PUSH2 0x49DD JUMP JUMPDEST PUSH2 0x2F66 DUP4 DUP8 DUP4 PUSH1 0x0 DUP2 MLOAD DUP2 LT PUSH2 0xD7B JUMPI INVALID JUMPDEST PUSH1 0x40 MLOAD PUSH32 0xCEB757D500000000000000000000000000000000000000000000000000000000 DUP2 MSTORE PUSH1 0x60 SWAP1 PUSH20 0xFFFFFFFFFFFFFFFFFFFFFFFFFFFFFFFFFFFFFFFF DUP6 AND SWAP1 PUSH4 0xCEB757D5 SWAP1 PUSH2 0x2FC6 SWAP1 DUP11 SWAP1 PUSH1 0x1 SWAP1 DUP9 SWAP1 DUP9 SWAP1 ADDRESS SWAP1 TIMESTAMP SWAP1 PUSH1 0x4 ADD PUSH2 0x4E5D JUMP JUMPDEST PUSH1 0x0 PUSH1 0x40 MLOAD DUP1 DUP4 SUB DUP2 PUSH1 0x0 DUP8 DUP1 EXTCODESIZE ISZERO DUP1 ISZERO PUSH2 0x2FE0 JUMPI PUSH1 0x0 DUP1 REVERT JUMPDEST POP GAS CALL ISZERO DUP1 ISZERO PUSH2 0x2FF4 JUMPI RETURNDATASIZE PUSH1 0x0 DUP1 RETURNDATACOPY RETURNDATASIZE PUSH1 0x0 REVERT JUMPDEST POP POP POP POP PUSH1 0x40 MLOAD RETURNDATASIZE PUSH1 0x0 DUP3 RETURNDATACOPY PUSH1 0x1F RETURNDATASIZE SWAP1 DUP2 ADD PUSH32 0xFFFFFFFFFFFFFFFFFFFFFFFFFFFFFFFFFFFFFFFFFFFFFFFFFFFFFFFFFFFFFFE0 AND DUP3 ADD PUSH1 0x40 MSTORE PUSH2 0x303A SWAP2 SWAP1 DUP2 ADD SWAP1 PUSH2 0x4081 JUMP JUMPDEST SWAP1 POP DUP1 PUSH1 0x1 DUP3 MLOAD SUB DUP2 MLOAD DUP2 LT PUSH2 0x304C JUMPI INVALID JUMPDEST PUSH1 0x20 MUL PUSH1 0x20 ADD ADD MLOAD SWAP5 POP POP POP POP POP SWAP4 SWAP3 POP POP POP JUMP JUMPDEST PUSH1 0x0 DUP1 DUP3 DUP1 PUSH1 0x20 ADD SWAP1 MLOAD DUP2 ADD SWAP1 PUSH2 0x3078 SWAP2 SWAP1 PUSH2 0x3FF1 JUMP JUMPDEST SWAP1 POP PUSH32 0x0 PUSH20 0xFFFFFFFFFFFFFFFFFFFFFFFFFFFFFFFFFFFFFFFF AND DUP7 PUSH20 0xFFFFFFFFFFFFFFFFFFFFFFFFFFFFFFFFFFFFFFFF AND EQ DUP1 ISZERO PUSH2 0x3100 JUMPI POP DUP1 PUSH20 0xFFFFFFFFFFFFFFFFFFFFFFFFFFFFFFFFFFFFFFFF AND DUP6 PUSH20 0xFFFFFFFFFFFFFFFFFFFFFFFFFFFFFFFFFFFFFFFF AND EQ JUMPDEST ISZERO PUSH2 0x32CB JUMPI PUSH1 0x40 MLOAD PUSH32 0x2E1A7D4D00000000000000000000000000000000000000000000000000000000 DUP2 MSTORE PUSH20 0xFFFFFFFFFFFFFFFFFFFFFFFFFFFFFFFFFFFFFFFF PUSH32 0x0 AND SWAP1 PUSH4 0x2E1A7D4D SWAP1 PUSH2 0x3177 SWAP1 DUP8 SWAP1 PUSH1 0x4 ADD PUSH2 0x4E54 JUMP JUMPDEST PUSH1 0x0 PUSH1 0x40 MLOAD DUP1 DUP4 SUB DUP2 PUSH1 0x0 DUP8 DUP1 EXTCODESIZE ISZERO DUP1 ISZERO PUSH2 0x3191 JUMPI PUSH1 0x0 DUP1 REVERT JUMPDEST POP GAS CALL ISZERO DUP1 ISZERO PUSH2 0x31A5 JUMPI RETURNDATASIZE PUSH1 0x0 DUP1 RETURNDATACOPY RETURNDATASIZE PUSH1 0x0 REVERT JUMPDEST POP POP PUSH1 0x40 MLOAD PUSH32 0xA1903EAB00000000000000000000000000000000000000000000000000000000 DUP2 MSTORE PUSH20 0xFFFFFFFFFFFFFFFFFFFFFFFFFFFFFFFFFFFFFFFF DUP5 AND SWAP3 POP PUSH4 0x7A28FB88 SWAP2 POP DUP3 SWAP1 PUSH4 0xA1903EAB SWAP1 DUP9 SWAP1 PUSH2 0x3206 SWAP1 PUSH1 0x0 SWAP1 PUSH1 0x4 ADD PUSH2 0x45B9 JUMP JUMPDEST PUSH1 0x20 PUSH1 0x40 MLOAD DUP1 DUP4 SUB DUP2 DUP6 DUP9 DUP1 EXTCODESIZE ISZERO DUP1 ISZERO PUSH2 0x321F JUMPI PUSH1 0x0 DUP1 REVERT JUMPDEST POP GAS CALL ISZERO DUP1 ISZERO PUSH2 0x3233 JUMPI RETURNDATASIZE PUSH1 0x0 DUP1 RETURNDATACOPY RETURNDATASIZE PUSH1 0x0 REVERT JUMPDEST POP POP POP POP POP PUSH1 0x40 MLOAD RETURNDATASIZE PUSH1 0x1F NOT PUSH1 0x1F DUP3 ADD AND DUP3 ADD DUP1 PUSH1 0x40 MSTORE POP DUP2 ADD SWAP1 PUSH2 0x3258 SWAP2 SWAP1 PUSH2 0x43BB JUMP JUMPDEST PUSH1 0x40 MLOAD DUP3 PUSH4 0xFFFFFFFF AND PUSH1 0xE0 SHL DUP2 MSTORE PUSH1 0x4 ADD PUSH2 0x3274 SWAP2 SWAP1 PUSH2 0x4E54 JUMP JUMPDEST PUSH1 0x20 PUSH1 0x40 MLOAD DUP1 DUP4 SUB DUP2 DUP7 DUP1 EXTCODESIZE ISZERO DUP1 ISZERO PUSH2 0x328C JUMPI PUSH1 0x0 DUP1 REVERT JUMPDEST POP GAS STATICCALL ISZERO DUP1 ISZERO PUSH2 0x32A0 JUMPI RETURNDATASIZE PUSH1 0x0 DUP1 RETURNDATACOPY RETURNDATASIZE PUSH1 0x0 REVERT JUMPDEST POP POP POP POP PUSH1 0x40 MLOAD RETURNDATASIZE PUSH1 0x1F NOT PUSH1 0x1F DUP3 ADD AND DUP3 ADD DUP1 PUSH1 0x40 MSTORE POP DUP2 ADD SWAP1 PUSH2 0x32C4 SWAP2 SWAP1 PUSH2 0x43BB JUMP JUMPDEST SWAP2 POP PUSH2 0x32FD JUMP JUMPDEST PUSH1 0x40 MLOAD PUSH32 0x8C379A000000000000000000000000000000000000000000000000000000000 DUP2 MSTORE PUSH1 0x4 ADD PUSH2 0xCE4 SWAP1 PUSH2 0x4B51 JUMP JUMPDEST POP SWAP5 SWAP4 POP POP POP POP JUMP JUMPDEST PUSH1 0x0 DUP1 PUSH1 0x60 DUP4 DUP1 PUSH1 0x20 ADD SWAP1 MLOAD DUP2 ADD SWAP1 PUSH2 0x331F SWAP2 SWAP1 PUSH2 0x41ED JUMP JUMPDEST SWAP2 POP SWAP2 POP PUSH32 0x0 PUSH20 0xFFFFFFFFFFFFFFFFFFFFFFFFFFFFFFFFFFFFFFFF AND DUP8 PUSH20 0xFFFFFFFFFFFFFFFFFFFFFFFFFFFFFFFFFFFFFFFF AND EQ ISZERO PUSH2 0x3383 JUMPI PUSH2 0x106C DUP3 DUP8 DUP8 DUP5 PUSH2 0x38A7 JUMP JUMPDEST PUSH32 0x0 PUSH20 0xFFFFFFFFFFFFFFFFFFFFFFFFFFFFFFFFFFFFFFFF AND DUP7 PUSH20 0xFFFFFFFFFFFFFFFFFFFFFFFFFFFFFFFFFFFFFFFF AND EQ ISZERO PUSH2 0x33E3 JUMPI PUSH2 0x106C DUP3 DUP9 DUP8 DUP5 PUSH2 0x3A04 JUMP JUMPDEST PUSH2 0x12E7 DUP3 DUP9 DUP9 DUP9 DUP6 PUSH2 0x3B5D JUMP JUMPDEST PUSH1 0x0 DUP1 PUSH1 0x60 DUP4 DUP1 PUSH1 0x20 ADD SWAP1 MLOAD DUP2 ADD SWAP1 PUSH2 0x3409 SWAP2 SWAP1 PUSH2 0x41ED JUMP JUMPDEST SWAP1 SWAP3 POP SWAP1 POP PUSH2 0x342F PUSH20 0xFFFFFFFFFFFFFFFFFFFFFFFFFFFFFFFFFFFFFFFF DUP9 AND DUP4 DUP8 PUSH2 0x37FB JUMP JUMPDEST PUSH1 0x40 MLOAD PUSH32 0x65D02B0400000000000000000000000000000000000000000000000000000000 DUP2 MSTORE PUSH20 0xFFFFFFFFFFFFFFFFFFFFFFFFFFFFFFFFFFFFFFFF DUP4 AND SWAP1 PUSH4 0x65D02B04 SWAP1 PUSH2 0x1295 SWAP1 DUP11 SWAP1 DUP11 SWAP1 ADDRESS SWAP1 PUSH1 0x1 SWAP1 DUP9 SWAP1 PUSH1 0x4 ADD PUSH2 0x46F5 JUMP JUMPDEST PUSH1 0x40 MLOAD PUSH32 0xDD62ED3E00000000000000000000000000000000000000000000000000000000 DUP2 MSTORE DUP2 SWAP1 PUSH20 0xFFFFFFFFFFFFFFFFFFFFFFFFFFFFFFFFFFFFFFFF DUP6 AND SWAP1 PUSH4 0xDD62ED3E SWAP1 PUSH2 0x34E0 SWAP1 ADDRESS SWAP1 DUP8 SWAP1 PUSH1 0x4 ADD PUSH2 0x45DA JUMP JUMPDEST PUSH1 0x20 PUSH1 0x40 MLOAD DUP1 DUP4 SUB DUP2 DUP7 DUP1 EXTCODESIZE ISZERO DUP1 ISZERO PUSH2 0x34F8 JUMPI PUSH1 0x0 DUP1 REVERT JUMPDEST POP GAS STATICCALL ISZERO DUP1 ISZERO PUSH2 0x350C JUMPI RETURNDATASIZE PUSH1 0x0 DUP1 RETURNDATACOPY RETURNDATASIZE PUSH1 0x0 REVERT JUMPDEST POP POP POP POP PUSH1 0x40 MLOAD RETURNDATASIZE PUSH1 0x1F NOT PUSH1 0x1F DUP3 ADD AND DUP3 ADD DUP1 PUSH1 0x40 MSTORE POP DUP2 ADD SWAP1 PUSH2 0x3530 SWAP2 SWAP1 PUSH2 0x43BB JUMP JUMPDEST LT ISZERO PUSH2 0x3561 JUMPI PUSH2 0x3561 DUP4 DUP4 PUSH32 0xFFFFFFFFFFFFFFFFFFFFFFFFFFFFFFFFFFFFFFFFFFFFFFFFFFFFFFFFFFFFFFFF PUSH2 0x3BDB JUMP JUMPDEST POP POP POP JUMP JUMPDEST DUP1 MLOAD PUSH1 0x20 DUP3 ADD REVERT JUMPDEST PUSH1 0x0 DUP3 DUP3 GT ISZERO PUSH2 0x358C JUMPI PUSH2 0x358C PUSH2 0x3587 PUSH1 0x2 DUP6 DUP6 PUSH2 0x3BF8 JUMP JUMPDEST PUSH2 0x3566 JUMP JUMPDEST POP DUP1 DUP3 SUB JUMPDEST SWAP3 SWAP2 POP POP JUMP JUMPDEST PUSH1 0x0 PUSH32 0x0 PUSH20 0xFFFFFFFFFFFFFFFFFFFFFFFFFFFFFFFFFFFFFFFF AND DUP4 PUSH20 0xFFFFFFFFFFFFFFFFFFFFFFFFFFFFFFFFFFFFFFFF AND EQ PUSH2 0x3693 JUMPI PUSH1 0x40 MLOAD PUSH32 0x6F2BF6200000000000000000000000000000000000000000000000000000000 DUP2 MSTORE PUSH20 0xFFFFFFFFFFFFFFFFFFFFFFFFFFFFFFFFFFFFFFFF DUP6 AND SWAP1 PUSH4 0x6F2BF62 SWAP1 PUSH2 0x363E SWAP1 DUP7 SWAP1 PUSH1 0x4 ADD PUSH2 0x45B9 JUMP JUMPDEST PUSH1 0x20 PUSH1 0x40 MLOAD DUP1 DUP4 SUB DUP2 DUP7 DUP1 EXTCODESIZE ISZERO DUP1 ISZERO PUSH2 0x3656 JUMPI PUSH1 0x0 DUP1 REVERT JUMPDEST POP GAS STATICCALL ISZERO DUP1 ISZERO PUSH2 0x366A JUMPI RETURNDATASIZE PUSH1 0x0 DUP1 RETURNDATACOPY RETURNDATASIZE PUSH1 0x0 REVERT JUMPDEST POP POP POP POP PUSH1 0x40 MLOAD RETURNDATASIZE PUSH1 0x1F NOT PUSH1 0x1F DUP3 ADD AND DUP3 ADD DUP1 PUSH1 0x40 MSTORE POP DUP2 ADD SWAP1 PUSH2 0x368E SWAP2 SWAP1 PUSH2 0x3FF1 JUMP JUMPDEST PUSH2 0x3735 JUMP JUMPDEST PUSH1 0x40 MLOAD PUSH32 0x6F2BF6200000000000000000000000000000000000000000000000000000000 DUP2 MSTORE PUSH20 0xFFFFFFFFFFFFFFFFFFFFFFFFFFFFFFFFFFFFFFFF DUP6 AND SWAP1 PUSH4 0x6F2BF62 SWAP1 PUSH2 0x36E5 SWAP1 DUP6 SWAP1 PUSH1 0x4 ADD PUSH2 0x45B9 JUMP JUMPDEST PUSH1 0x20 PUSH1 0x40 MLOAD DUP1 DUP4 SUB DUP2 DUP7 DUP1 EXTCODESIZE ISZERO DUP1 ISZERO PUSH2 0x36FD JUMPI PUSH1 0x0 DUP1 REVERT JUMPDEST POP GAS STATICCALL ISZERO DUP1 ISZERO PUSH2 0x3711 JUMPI RETURNDATASIZE PUSH1 0x0 DUP1 RETURNDATACOPY RETURNDATASIZE PUSH1 0x0 REVERT JUMPDEST POP POP POP POP PUSH1 0x40 MLOAD RETURNDATASIZE PUSH1 0x1F NOT PUSH1 0x1F DUP3 ADD AND DUP3 ADD DUP1 PUSH1 0x40 MSTORE POP DUP2 ADD SWAP1 PUSH2 0x3735 SWAP2 SWAP1 PUSH2 0x3FF1 JUMP JUMPDEST SWAP1 POP PUSH20 0xFFFFFFFFFFFFFFFFFFFFFFFFFFFFFFFFFFFFFFFF DUP2 AND PUSH2 0xE9A JUMPI PUSH1 0x40 MLOAD PUSH32 0x8C379A000000000000000000000000000000000000000000000000000000000 DUP2 MSTORE PUSH1 0x4 ADD PUSH2 0xCE4 SWAP1 PUSH2 0x4949 JUMP JUMPDEST PUSH1 0x0 DUP3 DUP3 ADD DUP4 DUP2 LT ISZERO PUSH2 0xE9A JUMPI PUSH2 0xE9A PUSH2 0x3587 PUSH1 0x0 DUP7 DUP7 PUSH2 0x3BF8 JUMP JUMPDEST PUSH1 0x0 DUP3 PUSH2 0x37AF JUMPI POP PUSH1 0x0 PUSH2 0x3591 JUMP JUMPDEST DUP3 DUP3 MUL DUP3 DUP5 DUP3 DUP2 PUSH2 0x37BC JUMPI INVALID JUMPDEST DIV EQ PUSH2 0xE9A JUMPI PUSH2 0xE9A PUSH2 0x3587 PUSH1 0x1 DUP7 DUP7 PUSH2 0x3BF8 JUMP JUMPDEST PUSH1 0x0 DUP2 PUSH2 0x37E7 JUMPI PUSH2 0x37E7 PUSH2 0x3587 PUSH1 0x3 DUP6 DUP6 PUSH2 0x3BF8 JUMP JUMPDEST PUSH1 0x0 DUP3 DUP5 DUP2 PUSH2 0x37F2 JUMPI INVALID JUMPDEST DIV SWAP5 SWAP4 POP POP POP POP JUMP JUMPDEST PUSH1 0x60 PUSH4 0xA9059CBB PUSH1 0xE0 SHL DUP4 DUP4 PUSH1 0x40 MLOAD PUSH1 0x24 ADD PUSH2 0x3818 SWAP3 SWAP2 SWAP1 PUSH2 0x4601 JUMP JUMPDEST PUSH1 0x40 DUP1 MLOAD PUSH32 0xFFFFFFFFFFFFFFFFFFFFFFFFFFFFFFFFFFFFFFFFFFFFFFFFFFFFFFFFFFFFFFE0 DUP2 DUP5 SUB ADD DUP2 MSTORE SWAP2 SWAP1 MSTORE PUSH1 0x20 DUP2 ADD DUP1 MLOAD PUSH28 0xFFFFFFFFFFFFFFFFFFFFFFFFFFFFFFFFFFFFFFFFFFFFFFFFFFFFFFFF AND PUSH32 0xFFFFFFFF00000000000000000000000000000000000000000000000000000000 SWAP1 SWAP4 AND SWAP3 SWAP1 SWAP3 OR SWAP1 SWAP2 MSTORE SWAP1 POP PUSH2 0x38A1 DUP5 DUP3 PUSH2 0x3C9D JUMP JUMPDEST POP POP POP POP JUMP JUMPDEST PUSH1 0x40 MLOAD PUSH32 0x2E1A7D4D00000000000000000000000000000000000000000000000000000000 DUP2 MSTORE PUSH1 0x0 SWAP1 PUSH20 0xFFFFFFFFFFFFFFFFFFFFFFFFFFFFFFFFFFFFFFFF PUSH32 0x0 AND SWAP1 PUSH4 0x2E1A7D4D SWAP1 PUSH2 0x391C SWAP1 DUP7 SWAP1 PUSH1 0x4 ADD PUSH2 0x4E54 JUMP JUMPDEST PUSH1 0x0 PUSH1 0x40 MLOAD DUP1 DUP4 SUB DUP2 PUSH1 0x0 DUP8 DUP1 EXTCODESIZE ISZERO DUP1 ISZERO PUSH2 0x3936 JUMPI PUSH1 0x0 DUP1 REVERT JUMPDEST POP GAS CALL ISZERO DUP1 ISZERO PUSH2 0x394A JUMPI RETURNDATASIZE PUSH1 0x0 DUP1 RETURNDATACOPY RETURNDATASIZE PUSH1 0x0 REVERT JUMPDEST POP POP PUSH1 0x40 MLOAD PUSH32 0xB52E845800000000000000000000000000000000000000000000000000000000 DUP2 MSTORE PUSH20 0xFFFFFFFFFFFFFFFFFFFFFFFFFFFFFFFFFFFFFFFF DUP9 AND SWAP3 POP PUSH4 0xB52E8458 SWAP2 POP DUP6 SWAP1 PUSH2 0x39A9 SWAP1 DUP9 SWAP1 ADDRESS SWAP1 PUSH1 0x1 SWAP1 DUP10 SWAP1 PUSH1 0x4 ADD PUSH2 0x46B6 JUMP JUMPDEST PUSH1 0x20 PUSH1 0x40 MLOAD DUP1 DUP4 SUB DUP2 DUP6 DUP9 DUP1 EXTCODESIZE ISZERO DUP1 ISZERO PUSH2 0x39C2 JUMPI PUSH1 0x0 DUP1 REVERT JUMPDEST POP GAS CALL ISZERO DUP1 ISZERO PUSH2 0x39D6 JUMPI RETURNDATASIZE PUSH1 0x0 DUP1 RETURNDATACOPY RETURNDATASIZE PUSH1 0x0 REVERT JUMPDEST POP POP POP POP POP PUSH1 0x40 MLOAD RETURNDATASIZE PUSH1 0x1F NOT PUSH1 0x1F DUP3 ADD AND DUP3 ADD DUP1 PUSH1 0x40 MSTORE POP DUP2 ADD SWAP1 PUSH2 0x39FB SWAP2 SWAP1 PUSH2 0x43BB JUMP JUMPDEST SWAP6 SWAP5 POP POP POP POP POP JUMP JUMPDEST PUSH1 0x0 PUSH2 0x3A27 PUSH20 0xFFFFFFFFFFFFFFFFFFFFFFFFFFFFFFFFFFFFFFFF DUP6 AND DUP7 DUP6 PUSH2 0x37FB JUMP JUMPDEST PUSH1 0x40 MLOAD PUSH32 0x69BE90EC00000000000000000000000000000000000000000000000000000000 DUP2 MSTORE PUSH20 0xFFFFFFFFFFFFFFFFFFFFFFFFFFFFFFFFFFFFFFFF DUP7 AND SWAP1 PUSH4 0x69BE90EC SWAP1 PUSH2 0x3A80 SWAP1 DUP8 SWAP1 ADDRESS SWAP1 PUSH1 0x1 SWAP1 DUP9 SWAP1 PUSH1 0x4 ADD PUSH2 0x46B6 JUMP JUMPDEST PUSH1 0x20 PUSH1 0x40 MLOAD DUP1 DUP4 SUB DUP2 PUSH1 0x0 DUP8 DUP1 EXTCODESIZE ISZERO DUP1 ISZERO PUSH2 0x3A9A JUMPI PUSH1 0x0 DUP1 REVERT JUMPDEST POP GAS CALL ISZERO DUP1 ISZERO PUSH2 0x3AAE JUMPI RETURNDATASIZE PUSH1 0x0 DUP1 RETURNDATACOPY RETURNDATASIZE PUSH1 0x0 REVERT JUMPDEST POP POP POP POP PUSH1 0x40 MLOAD RETURNDATASIZE PUSH1 0x1F NOT PUSH1 0x1F DUP3 ADD AND DUP3 ADD DUP1 PUSH1 0x40 MSTORE POP DUP2 ADD SWAP1 PUSH2 0x3AD2 SWAP2 SWAP1 PUSH2 0x43BB JUMP JUMPDEST SWAP1 POP PUSH32 0x0 PUSH20 0xFFFFFFFFFFFFFFFFFFFFFFFFFFFFFFFFFFFFFFFF AND PUSH4 0xD0E30DB0 DUP3 PUSH1 0x40 MLOAD DUP3 PUSH4 0xFFFFFFFF AND PUSH1 0xE0 SHL DUP2 MSTORE PUSH1 0x4 ADD PUSH1 0x0 PUSH1 0x40 MLOAD DUP1 DUP4 SUB DUP2 DUP6 DUP9 DUP1 EXTCODESIZE ISZERO DUP1 ISZERO PUSH2 0x3B3C JUMPI PUSH1 0x0 DUP1 REVERT JUMPDEST POP GAS CALL ISZERO DUP1 ISZERO PUSH2 0x3B50 JUMPI RETURNDATASIZE PUSH1 0x0 DUP1 RETURNDATACOPY RETURNDATASIZE PUSH1 0x0 REVERT JUMPDEST POP POP POP POP POP SWAP5 SWAP4 POP POP POP POP JUMP JUMPDEST PUSH1 0x0 PUSH2 0x3B80 PUSH20 0xFFFFFFFFFFFFFFFFFFFFFFFFFFFFFFFFFFFFFFFF DUP7 AND DUP8 DUP6 PUSH2 0x37FB JUMP JUMPDEST PUSH1 0x40 MLOAD PUSH32 0x65D02B0400000000000000000000000000000000000000000000000000000000 DUP2 MSTORE PUSH20 0xFFFFFFFFFFFFFFFFFFFFFFFFFFFFFFFFFFFFFFFF DUP8 AND SWAP1 PUSH4 0x65D02B04 SWAP1 PUSH2 0xC2B SWAP1 DUP9 SWAP1 DUP9 SWAP1 ADDRESS SWAP1 PUSH1 0x1 SWAP1 DUP10 SWAP1 PUSH1 0x4 ADD PUSH2 0x46F5 JUMP JUMPDEST PUSH1 0x60 PUSH4 0x95EA7B3 PUSH1 0xE0 SHL DUP4 DUP4 PUSH1 0x40 MLOAD PUSH1 0x24 ADD PUSH2 0x3818 SWAP3 SWAP2 SWAP1 PUSH2 0x4601 JUMP JUMPDEST PUSH1 0x60 PUSH4 0xE946C1BB PUSH1 0xE0 SHL DUP5 DUP5 DUP5 PUSH1 0x40 MLOAD PUSH1 0x24 ADD PUSH2 0x3C17 SWAP4 SWAP3 SWAP2 SWAP1 PUSH2 0x489A JUMP JUMPDEST PUSH1 0x40 DUP1 MLOAD PUSH32 0xFFFFFFFFFFFFFFFFFFFFFFFFFFFFFFFFFFFFFFFFFFFFFFFFFFFFFFFFFFFFFFE0 DUP2 DUP5 SUB ADD DUP2 MSTORE SWAP2 SWAP1 MSTORE PUSH1 0x20 DUP2 ADD DUP1 MLOAD PUSH28 0xFFFFFFFFFFFFFFFFFFFFFFFFFFFFFFFFFFFFFFFFFFFFFFFFFFFFFFFF AND PUSH32 0xFFFFFFFF00000000000000000000000000000000000000000000000000000000 SWAP1 SWAP4 AND SWAP3 SWAP1 SWAP3 OR SWAP1 SWAP2 MSTORE SWAP1 POP SWAP4 SWAP3 POP POP POP JUMP JUMPDEST PUSH1 0x0 PUSH1 0x60 DUP4 PUSH20 0xFFFFFFFFFFFFFFFFFFFFFFFFFFFFFFFFFFFFFFFF AND DUP4 PUSH1 0x40 MLOAD PUSH2 0x3CC6 SWAP2 SWAP1 PUSH2 0x459D JUMP JUMPDEST PUSH1 0x0 PUSH1 0x40 MLOAD DUP1 DUP4 SUB DUP2 PUSH1 0x0 DUP7 GAS CALL SWAP2 POP POP RETURNDATASIZE DUP1 PUSH1 0x0 DUP2 EQ PUSH2 0x3D03 JUMPI PUSH1 0x40 MLOAD SWAP2 POP PUSH1 0x1F NOT PUSH1 0x3F RETURNDATASIZE ADD AND DUP3 ADD PUSH1 0x40 MSTORE RETURNDATASIZE DUP3 MSTORE RETURNDATASIZE PUSH1 0x0 PUSH1 0x20 DUP5 ADD RETURNDATACOPY PUSH2 0x3D08 JUMP JUMPDEST PUSH1 0x60 SWAP2 POP JUMPDEST POP SWAP2 POP SWAP2 POP DUP2 PUSH2 0x3D1B JUMPI PUSH2 0x3D1B DUP2 PUSH2 0x3566 JUMP JUMPDEST DUP1 MLOAD PUSH2 0x3D62 JUMPI DUP4 EXTCODESIZE DUP1 PUSH2 0x3D5A JUMPI PUSH1 0x40 MLOAD PUSH32 0x8C379A000000000000000000000000000000000000000000000000000000000 DUP2 MSTORE PUSH1 0x4 ADD PUSH2 0xCE4 SWAP1 PUSH2 0x4B86 JUMP JUMPDEST POP POP POP PUSH2 0x3D9F JUMP JUMPDEST PUSH1 0x20 DUP2 MLOAD LT PUSH2 0x3D96 JUMPI PUSH1 0x0 PUSH2 0x3D78 DUP3 PUSH1 0x0 PUSH2 0x3DA3 JUMP JUMPDEST SWAP1 POP DUP1 PUSH1 0x1 EQ ISZERO PUSH2 0x3D8B JUMPI POP POP POP PUSH2 0x3D9F JUMP JUMPDEST PUSH2 0x3D94 DUP3 PUSH2 0x3566 JUMP JUMPDEST POP JUMPDEST PUSH2 0x38A1 DUP2 PUSH2 0x3566 JUMP JUMPDEST POP POP JUMP JUMPDEST PUSH1 0x0 PUSH2 0xE9A DUP4 DUP4 PUSH1 0x0 DUP2 PUSH1 0x20 ADD DUP4 MLOAD LT ISZERO PUSH2 0x3DCB JUMPI PUSH2 0x3DCB PUSH2 0x3587 PUSH1 0x5 DUP6 MLOAD DUP6 PUSH1 0x20 ADD PUSH2 0x3DD4 JUMP JUMPDEST POP ADD PUSH1 0x20 ADD MLOAD SWAP1 JUMP JUMPDEST PUSH1 0x60 PUSH4 0x28006595 PUSH1 0xE0 SHL DUP5 DUP5 DUP5 PUSH1 0x40 MLOAD PUSH1 0x24 ADD PUSH2 0x3C17 SWAP4 SWAP3 SWAP2 SWAP1 PUSH2 0x48BC JUMP JUMPDEST PUSH1 0x40 DUP1 MLOAD PUSH1 0x80 DUP2 ADD DUP3 MSTORE PUSH1 0x0 DUP1 DUP3 MSTORE PUSH1 0x20 DUP3 ADD DUP2 SWAP1 MSTORE SWAP2 DUP2 ADD DUP3 SWAP1 MSTORE PUSH1 0x60 DUP2 ADD SWAP2 SWAP1 SWAP2 MSTORE SWAP1 JUMP JUMPDEST PUSH1 0x40 DUP1 MLOAD DUP1 DUP3 ADD SWAP1 SWAP2 MSTORE PUSH1 0x0 DUP1 DUP3 MSTORE PUSH1 0x20 DUP3 ADD MSTORE SWAP1 JUMP JUMPDEST PUSH1 0x40 DUP1 MLOAD PUSH1 0xC0 DUP2 ADD SWAP1 SWAP2 MSTORE PUSH1 0x0 DUP1 DUP3 MSTORE PUSH1 0x20 DUP3 ADD SWAP1 DUP2 MSTORE PUSH1 0x20 ADD PUSH1 0x0 PUSH20 0xFFFFFFFFFFFFFFFFFFFFFFFFFFFFFFFFFFFFFFFF AND DUP2 MSTORE PUSH1 0x20 ADD PUSH1 0x0 PUSH20 0xFFFFFFFFFFFFFFFFFFFFFFFFFFFFFFFFFFFFFFFF AND DUP2 MSTORE PUSH1 0x20 ADD PUSH1 0x0 DUP2 MSTORE PUSH1 0x20 ADD PUSH1 0x60 DUP2 MSTORE POP SWAP1 JUMP JUMPDEST PUSH1 0x0 DUP3 PUSH1 0x1F DUP4 ADD SLT PUSH2 0x3EA4 JUMPI DUP1 DUP2 REVERT JUMPDEST DUP2 MLOAD PUSH2 0x3EB7 PUSH2 0x3EB2 DUP3 PUSH2 0x4F98 JUMP JUMPDEST PUSH2 0x4F71 JUMP JUMPDEST DUP2 DUP2 MSTORE SWAP2 POP PUSH1 0x20 DUP1 DUP4 ADD SWAP1 DUP5 DUP2 ADD DUP2 DUP5 MUL DUP7 ADD DUP3 ADD DUP8 LT ISZERO PUSH2 0x3ED8 JUMPI PUSH1 0x0 DUP1 REVERT JUMPDEST PUSH1 0x0 JUMPDEST DUP5 DUP2 LT ISZERO PUSH2 0x3F00 JUMPI DUP2 MLOAD PUSH2 0x3EEE DUP2 PUSH2 0x5042 JUMP JUMPDEST DUP5 MSTORE SWAP3 DUP3 ADD SWAP3 SWAP1 DUP3 ADD SWAP1 PUSH1 0x1 ADD PUSH2 0x3EDB JUMP JUMPDEST POP POP POP POP POP SWAP3 SWAP2 POP POP JUMP JUMPDEST PUSH1 0x0 DUP3 PUSH1 0x1F DUP4 ADD SLT PUSH2 0x3F1B JUMPI DUP1 DUP2 REVERT JUMPDEST DUP2 MLOAD PUSH2 0x3F29 PUSH2 0x3EB2 DUP3 PUSH2 0x4FB8 JUMP JUMPDEST SWAP2 POP DUP1 DUP3 MSTORE DUP4 PUSH1 0x20 DUP3 DUP6 ADD ADD GT ISZERO PUSH2 0x3F40 JUMPI PUSH1 0x0 DUP1 REVERT JUMPDEST PUSH2 0x3F51 DUP2 PUSH1 0x20 DUP5 ADD PUSH1 0x20 DUP7 ADD PUSH2 0x5016 JUMP JUMPDEST POP SWAP3 SWAP2 POP POP JUMP JUMPDEST DUP1 CALLDATALOAD PUSH2 0x3591 DUP2 PUSH2 0x5042 JUMP JUMPDEST PUSH1 0x0 PUSH1 0x80 DUP3 DUP5 SUB SLT ISZERO PUSH2 0x3F74 JUMPI DUP1 DUP2 REVERT JUMPDEST PUSH2 0x3F7E PUSH1 0x80 PUSH2 0x4F71 JUMP JUMPDEST SWAP1 POP DUP2 MLOAD PUSH2 0x3F8B DUP2 PUSH2 0x5042 JUMP JUMPDEST DUP2 MSTORE PUSH1 0x20 DUP3 ADD MLOAD PUSH32 0xFFFFFFFF00000000000000000000000000000000000000000000000000000000 DUP2 AND DUP2 EQ PUSH2 0x3FC0 JUMPI PUSH1 0x0 DUP1 REVERT JUMPDEST PUSH1 0x20 DUP3 ADD MSTORE PUSH1 0x40 DUP3 ADD MLOAD PUSH2 0x3FD3 DUP2 PUSH2 0x5067 JUMP JUMPDEST PUSH1 0x40 DUP3 ADD MSTORE PUSH1 0x60 DUP3 ADD MLOAD PUSH2 0x3FE6 DUP2 PUSH2 0x5067 JUMP JUMPDEST PUSH1 0x60 DUP3 ADD MSTORE SWAP3 SWAP2 POP POP JUMP JUMPDEST PUSH1 0x0 PUSH1 0x20 DUP3 DUP5 SUB SLT ISZERO PUSH2 0x4002 JUMPI DUP1 DUP2 REVERT JUMPDEST DUP2 MLOAD PUSH2 0xE9A DUP2 PUSH2 0x5042 JUMP JUMPDEST PUSH1 0x0 DUP1 PUSH1 0x0 PUSH1 0x60 DUP5 DUP7 SUB SLT ISZERO PUSH2 0x4021 JUMPI DUP2 DUP3 REVERT JUMPDEST DUP4 MLOAD PUSH2 0x402C DUP2 PUSH2 0x5042 JUMP JUMPDEST PUSH1 0x20 DUP6 ADD MLOAD SWAP1 SWAP4 POP PUSH8 0xFFFFFFFFFFFFFFFF DUP1 DUP3 GT ISZERO PUSH2 0x4049 JUMPI DUP4 DUP5 REVERT JUMPDEST PUSH2 0x4055 DUP8 DUP4 DUP9 ADD PUSH2 0x3E94 JUMP JUMPDEST SWAP4 POP PUSH1 0x40 DUP7 ADD MLOAD SWAP2 POP DUP1 DUP3 GT ISZERO PUSH2 0x406A JUMPI DUP3 DUP4 REVERT JUMPDEST POP PUSH2 0x4077 DUP7 DUP3 DUP8 ADD PUSH2 0x3E94 JUMP JUMPDEST SWAP2 POP POP SWAP3 POP SWAP3 POP SWAP3 JUMP JUMPDEST PUSH1 0x0 PUSH1 0x20 DUP1 DUP4 DUP6 SUB SLT ISZERO PUSH2 0x4093 JUMPI DUP2 DUP3 REVERT JUMPDEST DUP3 MLOAD PUSH8 0xFFFFFFFFFFFFFFFF DUP2 GT ISZERO PUSH2 0x40A9 JUMPI DUP3 DUP4 REVERT JUMPDEST DUP4 ADD PUSH1 0x1F DUP2 ADD DUP6 SGT PUSH2 0x40B9 JUMPI DUP3 DUP4 REVERT JUMPDEST DUP1 MLOAD PUSH2 0x40C7 PUSH2 0x3EB2 DUP3 PUSH2 0x4F98 JUMP JUMPDEST DUP2 DUP2 MSTORE DUP4 DUP2 ADD SWAP1 DUP4 DUP6 ADD DUP6 DUP5 MUL DUP6 ADD DUP7 ADD DUP10 LT ISZERO PUSH2 0x40E3 JUMPI DUP7 DUP8 REVERT JUMPDEST DUP7 SWAP5 POP JUMPDEST DUP4 DUP6 LT ISZERO PUSH2 0x4105 JUMPI DUP1 MLOAD DUP4 MSTORE PUSH1 0x1 SWAP5 SWAP1 SWAP5 ADD SWAP4 SWAP2 DUP6 ADD SWAP2 DUP6 ADD PUSH2 0x40E7 JUMP JUMPDEST POP SWAP8 SWAP7 POP POP POP POP POP POP POP JUMP JUMPDEST PUSH1 0x0 DUP1 PUSH1 0x40 DUP4 DUP6 SUB SLT ISZERO PUSH2 0x4123 JUMPI DUP2 DUP3 REVERT JUMPDEST DUP3 MLOAD PUSH2 0x412E DUP2 PUSH2 0x5042 JUMP JUMPDEST PUSH1 0x20 DUP5 ADD MLOAD SWAP1 SWAP3 POP PUSH8 0xFFFFFFFFFFFFFFFF DUP2 GT ISZERO PUSH2 0x414A JUMPI DUP2 DUP3 REVERT JUMPDEST PUSH2 0x4156 DUP6 DUP3 DUP7 ADD PUSH2 0x3E94 JUMP JUMPDEST SWAP2 POP POP SWAP3 POP SWAP3 SWAP1 POP JUMP JUMPDEST PUSH1 0x0 DUP1 PUSH1 0x0 PUSH1 0x60 DUP5 DUP7 SUB SLT ISZERO PUSH2 0x4174 JUMPI DUP1 DUP2 REVERT JUMPDEST DUP4 MLOAD PUSH2 0x417F DUP2 PUSH2 0x5042 JUMP JUMPDEST PUSH1 0x20 DUP6 ADD MLOAD SWAP1 SWAP4 POP PUSH2 0x4190 DUP2 PUSH2 0x5042 JUMP JUMPDEST PUSH1 0x40 DUP6 ADD MLOAD SWAP1 SWAP3 POP DUP1 ISZERO ISZERO DUP2 EQ PUSH2 0x41A5 JUMPI DUP2 DUP3 REVERT JUMPDEST DUP1 SWAP2 POP POP SWAP3 POP SWAP3 POP SWAP3 JUMP JUMPDEST PUSH1 0x0 DUP1 PUSH1 0x40 DUP4 DUP6 SUB SLT ISZERO PUSH2 0x41C2 JUMPI DUP2 DUP3 REVERT JUMPDEST DUP3 MLOAD PUSH2 0x41CD DUP2 PUSH2 0x5042 JUMP JUMPDEST PUSH1 0x20 DUP5 ADD MLOAD SWAP1 SWAP3 POP DUP1 ISZERO ISZERO DUP2 EQ PUSH2 0x41E2 JUMPI DUP2 DUP3 REVERT JUMPDEST DUP1 SWAP2 POP POP SWAP3 POP SWAP3 SWAP1 POP JUMP JUMPDEST PUSH1 0x0 DUP1 PUSH1 0x40 DUP4 DUP6 SUB SLT ISZERO PUSH2 0x41FF JUMPI DUP2 DUP3 REVERT JUMPDEST DUP3 MLOAD PUSH2 0x420A DUP2 PUSH2 0x5042 JUMP JUMPDEST PUSH1 0x20 DUP5 ADD MLOAD SWAP1 SWAP3 POP PUSH8 0xFFFFFFFFFFFFFFFF DUP2 GT ISZERO PUSH2 0x4226 JUMPI DUP2 DUP3 REVERT JUMPDEST PUSH2 0x4156 DUP6 DUP3 DUP7 ADD PUSH2 0x3F0B JUMP JUMPDEST PUSH1 0x0 PUSH1 0x40 DUP3 DUP5 SUB SLT ISZERO PUSH2 0x4243 JUMPI DUP1 DUP2 REVERT JUMPDEST PUSH2 0x424D PUSH1 0x40 PUSH2 0x4F71 JUMP JUMPDEST DUP3 MLOAD PUSH2 0x4258 DUP2 PUSH2 0x5042 JUMP JUMPDEST DUP2 MSTORE PUSH1 0x20 SWAP3 DUP4 ADD MLOAD SWAP3 DUP2 ADD SWAP3 SWAP1 SWAP3 MSTORE POP SWAP2 SWAP1 POP JUMP JUMPDEST PUSH1 0x0 DUP1 PUSH1 0x0 DUP1 PUSH1 0x80 DUP6 DUP8 SUB SLT ISZERO PUSH2 0x4282 JUMPI DUP2 DUP3 REVERT JUMPDEST DUP5 CALLDATALOAD PUSH8 0xFFFFFFFFFFFFFFFF DUP1 DUP3 GT ISZERO PUSH2 0x4299 JUMPI DUP4 DUP5 REVERT JUMPDEST SWAP1 DUP7 ADD SWAP1 PUSH1 0x80 DUP3 DUP10 SUB SLT ISZERO PUSH2 0x42AC JUMPI DUP4 DUP5 REVERT JUMPDEST PUSH2 0x42B6 PUSH1 0x80 PUSH2 0x4F71 JUMP JUMPDEST DUP3 CALLDATALOAD DUP2 MSTORE PUSH1 0x20 DUP1 DUP5 ADD CALLDATALOAD DUP2 DUP4 ADD MSTORE PUSH1 0x40 DUP5 ADD CALLDATALOAD PUSH1 0x40 DUP4 ADD MSTORE PUSH1 0x60 DUP5 ADD CALLDATALOAD DUP4 DUP2 GT ISZERO PUSH2 0x42DF JUMPI DUP7 DUP8 REVERT JUMPDEST DUP1 DUP6 ADD SWAP5 POP POP DUP10 PUSH1 0x1F DUP6 ADD SLT PUSH2 0x42F3 JUMPI DUP6 DUP7 REVERT JUMPDEST DUP4 CALLDATALOAD SWAP3 POP PUSH2 0x4303 PUSH2 0x3EB2 DUP5 PUSH2 0x4FB8 JUMP JUMPDEST DUP4 DUP2 MSTORE DUP11 DUP3 DUP6 DUP8 ADD ADD GT ISZERO PUSH2 0x4316 JUMPI DUP7 DUP8 REVERT JUMPDEST PUSH2 0x4325 DUP5 DUP4 DUP4 ADD DUP5 DUP9 ADD PUSH2 0x500A JUMP JUMPDEST DUP1 PUSH1 0x60 DUP5 ADD MSTORE POP DUP2 SWAP8 POP PUSH2 0x433B DUP11 DUP3 DUP12 ADD PUSH2 0x3F58 JUMP JUMPDEST SWAP7 POP POP POP POP POP PUSH2 0x434E DUP7 PUSH1 0x40 DUP8 ADD PUSH2 0x3F58 JUMP JUMPDEST SWAP4 SWAP7 SWAP3 SWAP6 POP SWAP3 SWAP4 PUSH1 0x60 ADD CALLDATALOAD SWAP3 POP POP JUMP JUMPDEST PUSH1 0x0 PUSH1 0x80 DUP3 DUP5 SUB SLT ISZERO PUSH2 0x436F JUMPI DUP1 DUP2 REVERT JUMPDEST PUSH2 0xE9A DUP4 DUP4 PUSH2 0x3F63 JUMP JUMPDEST PUSH1 0x0 PUSH1 0x40 DUP3 DUP5 SUB SLT ISZERO PUSH2 0x438A JUMPI DUP1 DUP2 REVERT JUMPDEST PUSH2 0x4394 PUSH1 0x40 PUSH2 0x4F71 JUMP JUMPDEST DUP3 MLOAD PUSH2 0x439F DUP2 PUSH2 0x5042 JUMP JUMPDEST DUP2 MSTORE PUSH1 0x20 DUP4 ADD MLOAD PUSH2 0x43AF DUP2 PUSH2 0x5042 JUMP JUMPDEST PUSH1 0x20 DUP3 ADD MSTORE SWAP4 SWAP3 POP POP POP JUMP JUMPDEST PUSH1 0x0 PUSH1 0x20 DUP3 DUP5 SUB SLT ISZERO PUSH2 0x43CC JUMPI DUP1 DUP2 REVERT JUMPDEST POP MLOAD SWAP2 SWAP1 POP JUMP JUMPDEST PUSH1 0x0 DUP1 PUSH1 0x40 DUP4 DUP6 SUB SLT ISZERO PUSH2 0x43E5 JUMPI DUP2 DUP3 REVERT JUMPDEST DUP3 MLOAD SWAP2 POP PUSH1 0x20 DUP4 ADD MLOAD PUSH2 0x41E2 DUP2 PUSH2 0x5042 JUMP JUMPDEST PUSH1 0x0 DUP1 PUSH1 0x40 DUP4 DUP6 SUB SLT ISZERO PUSH2 0x4409 JUMPI DUP2 DUP3 REVERT JUMPDEST POP POP DUP1 MLOAD PUSH1 0x20 SWAP1 SWAP2 ADD MLOAD SWAP1 SWAP3 SWAP1 SWAP2 POP JUMP JUMPDEST PUSH1 0x0 DUP1 PUSH1 0x0 DUP1 PUSH1 0xE0 DUP6 DUP8 SUB SLT ISZERO PUSH2 0x442F JUMPI DUP2 DUP3 REVERT JUMPDEST DUP5 MLOAD SWAP4 POP PUSH1 0x20 DUP1 DUP7 ADD MLOAD SWAP4 POP PUSH1 0x40 DUP7 ADD MLOAD SWAP3 POP DUP7 PUSH1 0x7F DUP8 ADD SLT PUSH2 0x4450 JUMPI DUP2 DUP3 REVERT JUMPDEST PUSH2 0x445A PUSH1 0x80 PUSH2 0x4F71 JUMP JUMPDEST DUP1 PUSH1 0x60 DUP9 ADD DUP10 PUSH1 0xE0 DUP11 ADD GT ISZERO PUSH2 0x446E JUMPI DUP5 DUP6 REVERT JUMPDEST DUP5 JUMPDEST PUSH1 0x4 DUP2 LT ISZERO PUSH2 0x448D JUMPI DUP2 MLOAD DUP5 MSTORE SWAP3 DUP5 ADD SWAP3 SWAP1 DUP5 ADD SWAP1 PUSH1 0x1 ADD PUSH2 0x4470 JUMP JUMPDEST POP POP DUP1 SWAP4 POP POP POP POP SWAP3 SWAP6 SWAP2 SWAP5 POP SWAP3 POP JUMP JUMPDEST PUSH1 0x0 PUSH1 0x20 DUP3 DUP5 SUB SLT ISZERO PUSH2 0x44AF JUMPI DUP1 DUP2 REVERT JUMPDEST DUP2 MLOAD PUSH1 0xFF DUP2 AND DUP2 EQ PUSH2 0xE9A JUMPI DUP2 DUP3 REVERT JUMPDEST PUSH1 0x0 DUP2 MLOAD DUP1 DUP5 MSTORE PUSH1 0x20 DUP1 DUP6 ADD SWAP5 POP DUP1 DUP5 ADD DUP4 JUMPDEST DUP4 DUP2 LT ISZERO PUSH2 0x4504 JUMPI DUP2 MLOAD PUSH20 0xFFFFFFFFFFFFFFFFFFFFFFFFFFFFFFFFFFFFFFFF AND DUP8 MSTORE SWAP6 DUP3 ADD SWAP6 SWAP1 DUP3 ADD SWAP1 PUSH1 0x1 ADD PUSH2 0x44D2 JUMP JUMPDEST POP SWAP5 SWAP6 SWAP5 POP POP POP POP POP JUMP JUMPDEST PUSH1 0x0 DUP2 MLOAD DUP1 DUP5 MSTORE PUSH2 0x4527 DUP2 PUSH1 0x20 DUP7 ADD PUSH1 0x20 DUP7 ADD PUSH2 0x5016 JUMP JUMPDEST PUSH1 0x1F ADD PUSH32 0xFFFFFFFFFFFFFFFFFFFFFFFFFFFFFFFFFFFFFFFFFFFFFFFFFFFFFFFFFFFFFFE0 AND SWAP3 SWAP1 SWAP3 ADD PUSH1 0x20 ADD SWAP3 SWAP2 POP POP JUMP JUMPDEST PUSH20 0xFFFFFFFFFFFFFFFFFFFFFFFFFFFFFFFFFFFFFFFF DUP1 DUP3 MLOAD AND DUP4 MSTORE PUSH1 0x20 DUP3 ADD MLOAD ISZERO ISZERO PUSH1 0x20 DUP5 ADD MSTORE DUP1 PUSH1 0x40 DUP4 ADD MLOAD AND PUSH1 0x40 DUP5 ADD MSTORE POP PUSH1 0x60 DUP2 ADD MLOAD ISZERO ISZERO PUSH1 0x60 DUP4 ADD MSTORE POP POP JUMP JUMPDEST PUSH1 0x0 DUP3 MLOAD PUSH2 0x45AF DUP2 DUP5 PUSH1 0x20 DUP8 ADD PUSH2 0x5016 JUMP JUMPDEST SWAP2 SWAP1 SWAP2 ADD SWAP3 SWAP2 POP POP JUMP JUMPDEST PUSH20 0xFFFFFFFFFFFFFFFFFFFFFFFFFFFFFFFFFFFFFFFF SWAP2 SWAP1 SWAP2 AND DUP2 MSTORE PUSH1 0x20 ADD SWAP1 JUMP JUMPDEST PUSH20 0xFFFFFFFFFFFFFFFFFFFFFFFFFFFFFFFFFFFFFFFF SWAP3 DUP4 AND DUP2 MSTORE SWAP2 AND PUSH1 0x20 DUP3 ADD MSTORE PUSH1 0x40 ADD SWAP1 JUMP JUMPDEST PUSH20 0xFFFFFFFFFFFFFFFFFFFFFFFFFFFFFFFFFFFFFFFF SWAP3 SWAP1 SWAP3 AND DUP3 MSTORE PUSH1 0x20 DUP3 ADD MSTORE PUSH1 0x40 ADD SWAP1 JUMP JUMPDEST PUSH1 0x0 PUSH1 0xC0 DUP3 MSTORE PUSH2 0x463A PUSH1 0xC0 DUP4 ADD DUP10 PUSH2 0x44BF JUMP JUMPDEST PUSH1 0x20 DUP4 ADD SWAP8 SWAP1 SWAP8 MSTORE POP PUSH1 0x40 DUP2 ADD SWAP5 SWAP1 SWAP5 MSTORE PUSH20 0xFFFFFFFFFFFFFFFFFFFFFFFFFFFFFFFFFFFFFFFF SWAP3 DUP4 AND PUSH1 0x60 DUP6 ADD MSTORE SWAP2 AND PUSH1 0x80 DUP4 ADD MSTORE PUSH1 0xA0 SWAP1 SWAP2 ADD MSTORE SWAP2 SWAP1 POP JUMP JUMPDEST SWAP5 DUP6 MSTORE PUSH20 0xFFFFFFFFFFFFFFFFFFFFFFFFFFFFFFFFFFFFFFFF SWAP4 DUP5 AND PUSH1 0x20 DUP7 ADD MSTORE SWAP2 SWAP1 SWAP3 AND PUSH1 0x40 DUP5 ADD MSTORE PUSH1 0x60 DUP4 ADD SWAP2 SWAP1 SWAP2 MSTORE PUSH1 0x80 DUP3 ADD MSTORE PUSH1 0xA0 ADD SWAP1 JUMP JUMPDEST PUSH1 0x0 PUSH20 0xFFFFFFFFFFFFFFFFFFFFFFFFFFFFFFFFFFFFFFFF DUP1 DUP8 AND DUP4 MSTORE DUP1 DUP7 AND PUSH1 0x20 DUP5 ADD MSTORE POP DUP4 PUSH1 0x40 DUP4 ADD MSTORE PUSH1 0x80 PUSH1 0x60 DUP4 ADD MSTORE PUSH2 0xC7D PUSH1 0x80 DUP4 ADD DUP5 PUSH2 0x450F JUMP JUMPDEST PUSH1 0x0 PUSH20 0xFFFFFFFFFFFFFFFFFFFFFFFFFFFFFFFFFFFFFFFF DUP1 DUP9 AND DUP4 MSTORE DUP1 DUP8 AND PUSH1 0x20 DUP5 ADD MSTORE DUP1 DUP7 AND PUSH1 0x40 DUP5 ADD MSTORE POP DUP4 PUSH1 0x60 DUP4 ADD MSTORE PUSH1 0xA0 PUSH1 0x80 DUP4 ADD MSTORE PUSH2 0x2E31 PUSH1 0xA0 DUP4 ADD DUP5 PUSH2 0x450F JUMP JUMPDEST PUSH20 0xFFFFFFFFFFFFFFFFFFFFFFFFFFFFFFFFFFFFFFFF SWAP6 DUP7 AND DUP2 MSTORE SWAP4 DUP6 AND PUSH1 0x20 DUP6 ADD MSTORE PUSH1 0x40 DUP5 ADD SWAP3 SWAP1 SWAP3 MSTORE PUSH1 0x60 DUP4 ADD MSTORE SWAP1 SWAP2 AND PUSH1 0x80 DUP3 ADD MSTORE PUSH1 0xA0 ADD SWAP1 JUMP JUMPDEST PUSH20 0xFFFFFFFFFFFFFFFFFFFFFFFFFFFFFFFFFFFFFFFF SWAP6 DUP7 AND DUP2 MSTORE SWAP4 SWAP1 SWAP5 AND PUSH1 0x20 DUP5 ADD MSTORE PUSH1 0x40 DUP4 ADD SWAP2 SWAP1 SWAP2 MSTORE PUSH1 0x60 DUP3 ADD MSTORE PUSH1 0x80 DUP2 ADD SWAP2 SWAP1 SWAP2 MSTORE PUSH1 0xA0 ADD SWAP1 JUMP JUMPDEST PUSH1 0x0 PUSH2 0x100 PUSH20 0xFFFFFFFFFFFFFFFFFFFFFFFFFFFFFFFFFFFFFFFF DUP1 DUP13 AND DUP5 MSTORE DUP11 PUSH1 0x20 DUP6 ADD MSTORE DUP1 DUP11 AND PUSH1 0x40 DUP6 ADD MSTORE DUP1 DUP10 AND PUSH1 0x60 DUP6 ADD MSTORE DUP8 PUSH1 0x80 DUP6 ADD MSTORE DUP7 PUSH1 0xA0 DUP6 ADD MSTORE DUP1 DUP7 AND PUSH1 0xC0 DUP6 ADD MSTORE POP DUP1 PUSH1 0xE0 DUP5 ADD MSTORE PUSH2 0x4813 DUP2 DUP5 ADD DUP6 PUSH2 0x450F JUMP JUMPDEST SWAP12 SWAP11 POP POP POP POP POP POP POP POP POP POP POP JUMP JUMPDEST PUSH20 0xFFFFFFFFFFFFFFFFFFFFFFFFFFFFFFFFFFFFFFFF SWAP5 DUP6 AND DUP2 MSTORE PUSH1 0x20 DUP2 ADD SWAP4 SWAP1 SWAP4 MSTORE SWAP3 AND PUSH1 0x40 DUP3 ADD MSTORE PUSH1 0x60 DUP2 ADD SWAP2 SWAP1 SWAP2 MSTORE PUSH1 0x80 ADD SWAP1 JUMP JUMPDEST PUSH20 0xFFFFFFFFFFFFFFFFFFFFFFFFFFFFFFFFFFFFFFFF SWAP6 DUP7 AND DUP2 MSTORE PUSH1 0x20 DUP2 ADD SWAP5 SWAP1 SWAP5 MSTORE SWAP2 SWAP1 SWAP4 AND PUSH1 0x40 DUP4 ADD MSTORE PUSH1 0x60 DUP3 ADD SWAP3 SWAP1 SWAP3 MSTORE PUSH1 0x80 DUP2 ADD SWAP2 SWAP1 SWAP2 MSTORE PUSH1 0xA0 ADD SWAP1 JUMP JUMPDEST PUSH1 0x60 DUP2 ADD PUSH1 0x4 DUP6 LT PUSH2 0x48A8 JUMPI INVALID JUMPDEST SWAP4 DUP2 MSTORE PUSH1 0x20 DUP2 ADD SWAP3 SWAP1 SWAP3 MSTORE PUSH1 0x40 SWAP1 SWAP2 ADD MSTORE SWAP1 JUMP JUMPDEST PUSH1 0x60 DUP2 ADD PUSH1 0x8 DUP6 LT PUSH2 0x48A8 JUMPI INVALID JUMPDEST PUSH1 0xF SWAP5 DUP6 SIGNEXTEND DUP2 MSTORE SWAP3 SWAP1 SWAP4 SIGNEXTEND PUSH1 0x20 DUP4 ADD MSTORE PUSH1 0x40 DUP3 ADD MSTORE PUSH1 0xFF SWAP1 SWAP2 AND PUSH1 0x60 DUP3 ADD MSTORE PUSH1 0x80 ADD SWAP1 JUMP JUMPDEST PUSH1 0xF SWAP6 DUP7 SIGNEXTEND DUP2 MSTORE SWAP4 SWAP1 SWAP5 SIGNEXTEND PUSH1 0x20 DUP5 ADD MSTORE PUSH1 0x40 DUP4 ADD SWAP2 SWAP1 SWAP2 MSTORE PUSH1 0xFF AND PUSH1 0x60 DUP3 ADD MSTORE PUSH1 0x80 DUP2 ADD SWAP2 SWAP1 SWAP2 MSTORE PUSH1 0xA0 ADD SWAP1 JUMP JUMPDEST SWAP3 DUP4 MSTORE PUSH1 0x20 DUP4 ADD SWAP2 SWAP1 SWAP2 MSTORE PUSH20 0xFFFFFFFFFFFFFFFFFFFFFFFFFFFFFFFFFFFFFFFF AND PUSH1 0x40 DUP3 ADD MSTORE PUSH1 0x60 ADD SWAP1 JUMP JUMPDEST PUSH1 0x20 DUP1 DUP3 MSTORE PUSH1 0x18 SWAP1 DUP3 ADD MSTORE PUSH32 0x4D6978696E556E69737761702F4E4F5F45584348414E47450000000000000000 PUSH1 0x40 DUP3 ADD MSTORE PUSH1 0x60 ADD SWAP1 JUMP JUMPDEST PUSH1 0x20 DUP1 DUP3 MSTORE PUSH1 0x2C SWAP1 DUP3 ADD MSTORE PUSH32 0x4D6978696E42616E636F722F504154485F4C454E4754485F4D5553545F42455F PUSH1 0x40 DUP3 ADD MSTORE PUSH32 0x41545F4C454153545F54574F0000000000000000000000000000000000000000 PUSH1 0x60 DUP3 ADD MSTORE PUSH1 0x80 ADD SWAP1 JUMP JUMPDEST PUSH1 0x20 DUP1 DUP3 MSTORE PUSH1 0x3A SWAP1 DUP3 ADD MSTORE PUSH32 0x4D6978696E4B79626572446D6D2F4C4153545F454C454D454E545F4F465F5041 PUSH1 0x40 DUP3 ADD MSTORE PUSH32 0x54485F4D5553545F4D415443485F4F55545055545F544F4B454E000000000000 PUSH1 0x60 DUP3 ADD MSTORE PUSH1 0x80 ADD SWAP1 JUMP JUMPDEST PUSH1 0x20 DUP1 DUP3 MSTORE PUSH1 0x2F SWAP1 DUP3 ADD MSTORE PUSH32 0x4D6978696E43727970746F436F6D2F504154485F4C454E4754485F4D5553545F PUSH1 0x40 DUP3 ADD MSTORE PUSH32 0x42455F41545F4C454153545F54574F0000000000000000000000000000000000 PUSH1 0x60 DUP3 ADD MSTORE PUSH1 0x80 ADD SWAP1 JUMP JUMPDEST PUSH1 0x20 DUP1 DUP3 MSTORE PUSH1 0x2F SWAP1 DUP3 ADD MSTORE PUSH32 0x4D6978696E556E697377617056322F504154485F4C454E4754485F4D5553545F PUSH1 0x40 DUP3 ADD MSTORE PUSH32 0x42455F41545F4C454153545F54574F0000000000000000000000000000000000 PUSH1 0x60 DUP3 ADD MSTORE PUSH1 0x80 ADD SWAP1 JUMP JUMPDEST PUSH1 0x20 DUP1 DUP3 MSTORE PUSH1 0x23 SWAP1 DUP3 ADD MSTORE PUSH32 0x4D6978696E4B79626572446D6D2F41525241595F4C454E4754485F4D49534D41 PUSH1 0x40 DUP3 ADD MSTORE PUSH32 0x5443480000000000000000000000000000000000000000000000000000000000 PUSH1 0x60 DUP3 ADD MSTORE PUSH1 0x80 ADD SWAP1 JUMP JUMPDEST PUSH1 0x20 DUP1 DUP3 MSTORE DUP2 DUP2 ADD MSTORE PUSH32 0x4D6978696E4C69646F2F554E535550504F525445445F544F4B454E5F50414952 PUSH1 0x40 DUP3 ADD MSTORE PUSH1 0x60 ADD SWAP1 JUMP JUMPDEST PUSH1 0x20 DUP1 DUP3 MSTORE PUSH1 0x27 SWAP1 DUP3 ADD MSTORE PUSH32 0x696E76616C696420746F6B656E20616464726573732C20636F6E7461696E7320 PUSH1 0x40 DUP3 ADD MSTORE PUSH32 0x6E6F20636F646500000000000000000000000000000000000000000000000000 PUSH1 0x60 DUP3 ADD MSTORE PUSH1 0x80 ADD SWAP1 JUMP JUMPDEST PUSH1 0x20 DUP1 DUP3 MSTORE PUSH1 0x38 SWAP1 DUP3 ADD MSTORE PUSH32 0x4D6978696E42616E636F722F4C4153545F454C454D454E545F4F465F50415448 PUSH1 0x40 DUP3 ADD MSTORE PUSH32 0x5F4D5553545F4D415443485F4F55545055545F544F4B454E0000000000000000 PUSH1 0x60 DUP3 ADD MSTORE PUSH1 0x80 ADD SWAP1 JUMP JUMPDEST PUSH1 0x20 DUP1 DUP3 MSTORE PUSH1 0x2F SWAP1 DUP3 ADD MSTORE PUSH32 0x4D6978696E4B79626572446D6D2F504F4F4C535F4C454E4754485F4D5553545F PUSH1 0x40 DUP3 ADD MSTORE PUSH32 0x42455F41545F4C454153545F4F4E450000000000000000000000000000000000 PUSH1 0x60 DUP3 ADD MSTORE PUSH1 0x80 ADD SWAP1 JUMP JUMPDEST PUSH1 0x20 DUP1 DUP3 MSTORE PUSH1 0x3B SWAP1 DUP3 ADD MSTORE PUSH32 0x4D6978696E556E697377617056322F4C4153545F454C454D454E545F4F465F50 PUSH1 0x40 DUP3 ADD MSTORE PUSH32 0x4154485F4D5553545F4D415443485F4F55545055545F544F4B454E0000000000 PUSH1 0x60 DUP3 ADD MSTORE PUSH1 0x80 ADD SWAP1 JUMP JUMPDEST PUSH1 0x20 DUP1 DUP3 MSTORE PUSH1 0x3B SWAP1 DUP3 ADD MSTORE PUSH32 0x4D6978696E43727970746F436F6D2F4C4153545F454C454D454E545F4F465F50 PUSH1 0x40 DUP3 ADD MSTORE PUSH32 0x4154485F4D5553545F4D415443485F4F55545055545F544F4B454E0000000000 PUSH1 0x60 DUP3 ADD MSTORE PUSH1 0x80 ADD SWAP1 JUMP JUMPDEST PUSH1 0x0 PUSH1 0x20 DUP3 MSTORE DUP3 MLOAD PUSH1 0xA0 PUSH1 0x20 DUP5 ADD MSTORE PUSH2 0x4D73 PUSH1 0xC0 DUP5 ADD DUP3 PUSH2 0x450F JUMP JUMPDEST SWAP1 POP PUSH20 0xFFFFFFFFFFFFFFFFFFFFFFFFFFFFFFFFFFFFFFFF PUSH1 0x20 DUP6 ADD MLOAD AND PUSH1 0x40 DUP5 ADD MSTORE PUSH1 0x40 DUP5 ADD MLOAD PUSH1 0x60 DUP5 ADD MSTORE PUSH1 0x60 DUP5 ADD MLOAD PUSH1 0x80 DUP5 ADD MSTORE PUSH1 0x80 DUP5 ADD MLOAD PUSH1 0xA0 DUP5 ADD MSTORE DUP1 SWAP2 POP POP SWAP3 SWAP2 POP POP JUMP JUMPDEST PUSH1 0x0 PUSH1 0xE0 DUP3 MSTORE DUP6 MLOAD PUSH1 0xE0 DUP4 ADD MSTORE PUSH2 0x4DD7 PUSH1 0x20 DUP8 ADD MLOAD PUSH2 0x4FFA JUMP JUMPDEST PUSH2 0x100 DUP4 ADD MSTORE PUSH1 0x40 DUP7 ADD MLOAD PUSH20 0xFFFFFFFFFFFFFFFFFFFFFFFFFFFFFFFFFFFFFFFF SWAP1 DUP2 AND PUSH2 0x120 DUP5 ADD MSTORE PUSH1 0x60 DUP8 ADD MLOAD AND PUSH2 0x140 DUP4 ADD MSTORE PUSH1 0x80 DUP7 ADD MLOAD PUSH2 0x160 DUP4 ADD MSTORE PUSH1 0xA0 DUP7 ADD MLOAD PUSH1 0xC0 PUSH2 0x180 DUP5 ADD MSTORE PUSH2 0x4E32 PUSH2 0x1A0 DUP5 ADD DUP3 PUSH2 0x450F JUMP JUMPDEST SWAP2 POP POP PUSH2 0x4E42 PUSH1 0x20 DUP4 ADD DUP7 PUSH2 0x4559 JUMP JUMPDEST PUSH1 0xA0 DUP3 ADD SWAP4 SWAP1 SWAP4 MSTORE PUSH1 0xC0 ADD MSTORE SWAP3 SWAP2 POP POP JUMP JUMPDEST SWAP1 DUP2 MSTORE PUSH1 0x20 ADD SWAP1 JUMP JUMPDEST PUSH1 0x0 DUP8 DUP3 MSTORE DUP7 PUSH1 0x20 DUP4 ADD MSTORE PUSH1 0xC0 PUSH1 0x40 DUP4 ADD MSTORE PUSH2 0x4E7C PUSH1 0xC0 DUP4 ADD DUP8 PUSH2 0x44BF JUMP JUMPDEST DUP3 DUP2 SUB PUSH1 0x60 DUP5 ADD MSTORE PUSH2 0x4E8E DUP2 DUP8 PUSH2 0x44BF JUMP JUMPDEST PUSH20 0xFFFFFFFFFFFFFFFFFFFFFFFFFFFFFFFFFFFFFFFF SWAP6 SWAP1 SWAP6 AND PUSH1 0x80 DUP5 ADD MSTORE POP POP PUSH1 0xA0 ADD MSTORE SWAP5 SWAP4 POP POP POP POP JUMP JUMPDEST PUSH1 0x0 DUP7 DUP3 MSTORE DUP6 PUSH1 0x20 DUP4 ADD MSTORE PUSH1 0xA0 PUSH1 0x40 DUP4 ADD MSTORE PUSH2 0x4ED9 PUSH1 0xA0 DUP4 ADD DUP7 PUSH2 0x44BF JUMP JUMPDEST PUSH20 0xFFFFFFFFFFFFFFFFFFFFFFFFFFFFFFFFFFFFFFFF SWAP5 SWAP1 SWAP5 AND PUSH1 0x60 DUP4 ADD MSTORE POP PUSH1 0x80 ADD MSTORE SWAP4 SWAP3 POP POP POP JUMP JUMPDEST PUSH1 0x0 DUP5 DUP3 MSTORE DUP4 PUSH1 0x20 DUP4 ADD MSTORE PUSH1 0x60 PUSH1 0x40 DUP4 ADD MSTORE PUSH2 0x39FB PUSH1 0x60 DUP4 ADD DUP5 PUSH2 0x450F JUMP JUMPDEST SWAP5 DUP6 MSTORE PUSH1 0x20 DUP6 ADD SWAP4 SWAP1 SWAP4 MSTORE PUSH1 0x40 DUP5 ADD SWAP2 SWAP1 SWAP2 MSTORE PUSH1 0x60 DUP4 ADD MSTORE PUSH20 0xFFFFFFFFFFFFFFFFFFFFFFFFFFFFFFFFFFFFFFFF AND PUSH1 0x80 DUP3 ADD MSTORE PUSH1 0xA0 ADD SWAP1 JUMP JUMPDEST SWAP3 DUP4 MSTORE PUSH1 0x20 DUP4 ADD SWAP2 SWAP1 SWAP2 MSTORE PUSH1 0x40 DUP3 ADD MSTORE PUSH1 0x60 ADD SWAP1 JUMP JUMPDEST PUSH1 0x40 MLOAD DUP2 DUP2 ADD PUSH8 0xFFFFFFFFFFFFFFFF DUP2 GT DUP3 DUP3 LT OR ISZERO PUSH2 0x4F90 JUMPI PUSH1 0x0 DUP1 REVERT JUMPDEST PUSH1 0x40 MSTORE SWAP2 SWAP1 POP JUMP JUMPDEST PUSH1 0x0 PUSH8 0xFFFFFFFFFFFFFFFF DUP3 GT ISZERO PUSH2 0x4FAE JUMPI DUP1 DUP2 REVERT JUMPDEST POP PUSH1 0x20 SWAP1 DUP2 MUL ADD SWAP1 JUMP JUMPDEST PUSH1 0x0 PUSH8 0xFFFFFFFFFFFFFFFF DUP3 GT ISZERO PUSH2 0x4FCE JUMPI DUP1 DUP2 REVERT JUMPDEST POP PUSH1 0x1F ADD PUSH32 0xFFFFFFFFFFFFFFFFFFFFFFFFFFFFFFFFFFFFFFFFFFFFFFFFFFFFFFFFFFFFFFE0 AND PUSH1 0x20 ADD SWAP1 JUMP JUMPDEST DUP1 PUSH1 0x2 DUP2 LT PUSH2 0x5005 JUMPI INVALID JUMPDEST SWAP2 SWAP1 POP JUMP JUMPDEST DUP3 DUP2 DUP4 CALLDATACOPY POP PUSH1 0x0 SWAP2 ADD MSTORE JUMP JUMPDEST PUSH1 0x0 JUMPDEST DUP4 DUP2 LT ISZERO PUSH2 0x5031 JUMPI DUP2 DUP2 ADD MLOAD DUP4 DUP3 ADD MSTORE PUSH1 0x20 ADD PUSH2 0x5019 JUMP JUMPDEST DUP4 DUP2 GT ISZERO PUSH2 0x38A1 JUMPI POP POP PUSH1 0x0 SWAP2 ADD MSTORE JUMP JUMPDEST PUSH20 0xFFFFFFFFFFFFFFFFFFFFFFFFFFFFFFFFFFFFFFFF DUP2 AND DUP2 EQ PUSH2 0x5064 JUMPI PUSH1 0x0 DUP1 REVERT JUMPDEST POP JUMP JUMPDEST DUP1 PUSH1 0xF SIGNEXTEND DUP2 EQ PUSH2 0x5064 JUMPI PUSH1 0x0 DUP1 REVERT INVALID LOG2 PUSH5 0x6970667358 0x22 SLT KECCAK256 CHAINID 0xE1 0x21 XOR 0xC9 0xE2 0xB6 SHL PUSH29 0x10DC088ED4F476EDE7E40ED74035961697EE0EB8F05B7764736F6C6343 STOP MOD 0xC STOP CALLER "
            },
            "methodIdentifiers": {
                "BANCOR_ETH_ADDRESS()": "8dc669fa",
                "trade((bytes32,uint256,uint256,bytes),address,address,uint256)": "f712a148"
            }
        }
    },
    "sourceTreeHashHex": "0x5f8507ff18bb71344874c270df62396f864530e2d88ba02ed8b912158c31cb67",
    "compiler": {
        "name": "solc",
        "version": "0.6.12+commit.27d51765",
        "settings": {
            "remappings": [
                "@0x/contracts-utils=/home/runner/work/protocol/protocol/node_modules/@0x/contracts-utils",
                "@0x/contracts-erc20=/home/runner/work/protocol/protocol/contracts/zero-ex/node_modules/@0x/contracts-erc20"
            ],
            "optimizer": {
                "enabled": true,
                "runs": 1000000,
                "details": {
                    "yul": true,
                    "deduplicate": true,
                    "cse": true,
                    "constantOptimizer": true
                }
            },
            "outputSelection": {
                "*": {
                    "*": [
                        "abi",
                        "devdoc",
                        "evm.bytecode.object",
                        "evm.bytecode.sourceMap",
                        "evm.deployedBytecode.object",
                        "evm.deployedBytecode.sourceMap",
                        "evm.methodIdentifiers"
                    ]
                }
            },
            "evmVersion": "istanbul"
        }
    },
    "chains": {}
}