{
    "schemaVersion": "2.0.0",
    "contractName": "FillQuoteTransformer",
    "compilerOutput": {
        "abi": [
            {
                "inputs": [
                    {
                        "internalType": "contract IBridgeAdapter",
                        "name": "bridgeAdapter_",
                        "type": "address"
                    },
                    {
                        "internalType": "contract INativeOrdersFeature",
                        "name": "zeroEx_",
                        "type": "address"
                    }
                ],
                "stateMutability": "nonpayable",
                "type": "constructor"
            },
            {
                "anonymous": false,
                "inputs": [
                    {
                        "indexed": false,
                        "internalType": "bytes32",
                        "name": "orderHash",
                        "type": "bytes32"
                    }
                ],
                "name": "ProtocolFeeUnfunded",
                "type": "event"
            },
            {
                "inputs": [],
                "name": "bridgeAdapter",
                "outputs": [
                    {
                        "internalType": "contract IBridgeAdapter",
                        "name": "",
                        "type": "address"
                    }
                ],
                "stateMutability": "view",
                "type": "function"
            },
            {
                "inputs": [],
                "name": "deployer",
                "outputs": [
                    {
                        "internalType": "address",
                        "name": "",
                        "type": "address"
                    }
                ],
                "stateMutability": "view",
                "type": "function"
            },
            {
                "inputs": [
                    {
                        "internalType": "address payable",
                        "name": "ethRecipient",
                        "type": "address"
                    }
                ],
                "name": "die",
                "outputs": [],
                "stateMutability": "nonpayable",
                "type": "function"
            },
            {
                "inputs": [
                    {
                        "components": [
                            {
                                "internalType": "address payable",
                                "name": "sender",
                                "type": "address"
                            },
                            {
                                "internalType": "address payable",
                                "name": "recipient",
                                "type": "address"
                            },
                            {
                                "internalType": "bytes",
                                "name": "data",
                                "type": "bytes"
                            }
                        ],
                        "internalType": "struct IERC20Transformer.TransformContext",
                        "name": "context",
                        "type": "tuple"
                    }
                ],
                "name": "transform",
                "outputs": [
                    {
                        "internalType": "bytes4",
                        "name": "magicBytes",
                        "type": "bytes4"
                    }
                ],
                "stateMutability": "nonpayable",
                "type": "function"
            },
            {
                "inputs": [],
                "name": "zeroEx",
                "outputs": [
                    {
                        "internalType": "contract INativeOrdersFeature",
                        "name": "",
                        "type": "address"
                    }
                ],
                "stateMutability": "view",
                "type": "function"
            }
        ],
        "devdoc": {
            "details": "A transformer that fills an ERC20 market sell/buy quote.      This transformer shortcuts bridge orders and fills them directly",
            "events": {
                "ProtocolFeeUnfunded(bytes32)": {
                    "details": "Emitted when a trade is skipped due to a lack of funds      to pay the 0x Protocol fee.",
                    "params": {
                        "orderHash": "The hash of the order that was skipped."
                    }
                }
            },
            "kind": "dev",
            "methods": {
                "constructor": {
                    "details": "Create this contract.",
                    "params": {
                        "bridgeAdapter_": "The bridge adapter contract.",
                        "zeroEx_": "The Exchange Proxy contract."
                    }
                },
                "die(address)": {
                    "details": "Destruct this contract. Only callable by the deployer and will not      succeed in the context of a delegatecall (from another contract).",
                    "params": {
                        "ethRecipient": "The recipient of ETH held in this contract."
                    }
                },
                "transform((address,address,bytes))": {
                    "details": "Sell this contract's entire balance of of `sellToken` in exchange      for `buyToken` by filling `orders`. Protocol fees should be attached      to this call. `buyToken` and excess ETH will be transferred back to the caller.",
                    "params": {
                        "context": "Context information."
                    },
                    "returns": {
                        "magicBytes": "The success bytes (`LibERC20Transformer.TRANSFORMER_SUCCESS`)."
                    }
                }
            },
            "stateVariables": {
                "HIGH_BIT": {
                    "details": "The highest bit of a uint256 value."
                },
                "LOWER_255_BITS": {
                    "details": "Mask of the lower 255 bits of a uint256 value."
                },
                "REFUND_RECEIVER_RECIPIENT": {
                    "details": "If `refundReceiver` is set to this address, unpsent      protocol fees will be sent to the transform recipient."
                },
                "REFUND_RECEIVER_SENDER": {
                    "details": "If `refundReceiver` is set to this address, unpsent      protocol fees will be sent to the sender."
                },
                "bridgeAdapter": {
                    "details": "The BridgeAdapter address"
                },
                "zeroEx": {
                    "details": "The exchange proxy contract."
                }
            },
            "version": 1
        },
        "evm": {
            "bytecode": {
                "linkReferences": {},
                "object": "0x6101006040523480156200001257600080fd5b506040516200286538038062002865833981016040819052620000359162000060565b33606090811b60805230811b60a0526001600160601b031992811b831660c0521b1660e052620000b7565b6000806040838503121562000073578182fd5b825162000080816200009e565b602084015190925062000093816200009e565b809150509250929050565b6001600160a01b0381168114620000b457600080fd5b50565b60805160601c60a05160601c60c05160601c60e05160601c612740620001256000398060d1528061026852806102c75280610ee05280610fa5528061119c52508061080c5280610cc35250806108b052806108de5250806108465280610874528061091d52506127406000f3fe608060405234801561001057600080fd5b50600436106100675760003560e01c8063be7dc09b11610050578063be7dc09b146100aa578063c9353cb5146100b2578063d5f39488146100c757610067565b806352ab413b1461006c578063832b24bb1461008a575b600080fd5b6100746100cf565b604051610081919061222f565b60405180910390f35b61009d610098366004611ec4565b6100f3565b60405161008191906122d4565b61007461080a565b6100c56100c0366004611e90565b61082e565b005b61007461091b565b7f000000000000000000000000000000000000000000000000000000000000000081565b60006100fd611808565b61010a60408401846125e0565b8101906101179190611efc565b9050610121611897565b610144826020015173ffffffffffffffffffffffffffffffffffffffff1661093f565b8061016d575061016d826040015173ffffffffffffffffffffffffffffffffffffffff1661093f565b156101c6576101c66101c1600061018760408801886125e0565b8080601f01602080910402602001604051908101604052809392919081815260200183838082843760009201919091525061097192505050565b610a2d565b8160c00151518260a00151518360800151518460600151510101146101fa576101fa6101c1600161018760408801886125e0565b602082015161021f9073ffffffffffffffffffffffffffffffffffffffff1630610a35565b608082015260008251600181111561023357fe5b14156102515761024b8260e001518260800151610b0c565b60e08301525b60a082015151608083015151011561037d576102b67f00000000000000000000000000000000000000000000000000000000000000008360e00151846020015173ffffffffffffffffffffffffffffffffffffffff16610b8e9092919063ffffffff16565b6080820151511561037d576103773a7f000000000000000000000000000000000000000000000000000000000000000073ffffffffffffffffffffffffffffffffffffffff1663487b5c206040518163ffffffff1660e01b815260040160206040518083038186803b15801561032b57600080fd5b505afa15801561033f573d6000803e3d6000fd5b505050506040513d601f19601f820116820180604052508101906103639190612064565b63ffffffff16610c6a90919063ffffffff16565b60608201525b47815260005b8260c00151518110156105b95760008351600181111561039f57fe5b14156103be578260e001518260400151106103b9576105b9565b6103d2565b8260e001518260200151106103d2576105b9565b8260c0015181815181106103e257fe5b60200260200101518260c0019060028111156103fa57fe5b9081600281111561040757fe5b8152505060008260a001518360c00151600281111561042257fe5b6003811061042c57fe5b6020020151905061043b6118d9565b60008460c00151600281111561044d57fe5b141561047c576104758560600151838151811061046657fe5b60200260200101518686610c9b565b905061052b565b60018460c00151600281111561048e57fe5b14156104b657610475856080015183815181106104a757fe5b60200260200101518686610e1a565b60028460c0015160028111156104c857fe5b14156104f0576104758560a0015183815181106104e157fe5b60200260200101518686611149565b6040517f08c379a00000000000000000000000000000000000000000000000000000000081526004016105229061236a565b60405180910390fd5b8051604085015161053b9161129b565b6040850152602080820151908501516105539161129b565b602085015260408101518451610568916112b7565b84528051608085015161057a916112b7565b608085015260a084015160c0850151600281111561059457fe5b6003811061059e57fe5b60200201805160019081019091529290920191506103839050565b506000825160018111156105c957fe5b14156105fe578160e00151816040015110156105f9576105f96101c1836020015183604001518560e001516112d6565b610628565b8160e0015181602001511015610628576106286101c1836040015183602001518560e00151611394565b805115801590610652575061010082015173ffffffffffffffffffffffffffffffffffffffff1615155b156107e15761010082015160009073ffffffffffffffffffffffffffffffffffffffff16600114156107025761068e6040860160208701611e90565b73ffffffffffffffffffffffffffffffffffffffff1682600001516040516106b59061222c565b60006040518083038185875af1925050503d80600081146106f2576040519150601f19603f3d011682016040523d82523d6000602084013e6106f7565b606091505b5050809150506107a8565b61010083015173ffffffffffffffffffffffffffffffffffffffff16600214156107335761068e6020860186611e90565b82610100015173ffffffffffffffffffffffffffffffffffffffff1682600001516040516107609061222c565b60006040518083038185875af1925050503d806000811461079d576040519150601f19603f3d011682016040523d82523d6000602084013e6107a2565b606091505b50909150505b806107df576040517f08c379a0000000000000000000000000000000000000000000000000000000008152600401610522906123fe565b505b507f13c9929e000000000000000000000000000000000000000000000000000000009392505050565b7f000000000000000000000000000000000000000000000000000000000000000081565b3373ffffffffffffffffffffffffffffffffffffffff7f00000000000000000000000000000000000000000000000000000000000000001614610898576108986101c1337f00000000000000000000000000000000000000000000000000000000000000006113cc565b3073ffffffffffffffffffffffffffffffffffffffff7f00000000000000000000000000000000000000000000000000000000000000001614610902576109026101c1307f0000000000000000000000000000000000000000000000000000000000000000611402565b8073ffffffffffffffffffffffffffffffffffffffff16ff5b7f000000000000000000000000000000000000000000000000000000000000000081565b73ffffffffffffffffffffffffffffffffffffffff811673eeeeeeeeeeeeeeeeeeeeeeeeeeeeeeeeeeeeeeee14919050565b60607f505ff6a4f24a0aa989a95ffe4c8d435d76fb30dea162a3e3022e749867722deb83836040516024016109a7929190612347565b604080517fffffffffffffffffffffffffffffffffffffffffffffffffffffffffffffffe08184030181529190526020810180517bffffffffffffffffffffffffffffffffffffffffffffffffffffffff167fffffffff000000000000000000000000000000000000000000000000000000009093169290921790915290505b92915050565b805160208201fd5b6000610a408361093f565b15610a63575073ffffffffffffffffffffffffffffffffffffffff811631610a27565b6040517f70a0823100000000000000000000000000000000000000000000000000000000815273ffffffffffffffffffffffffffffffffffffffff8416906370a0823190610ab590859060040161222f565b60206040518083038186803b158015610acd57600080fd5b505afa158015610ae1573d6000803e3d6000fd5b505050506040513d601f19601f82011682018060405250810190610b059190611eac565b9392505050565b60007f80000000000000000000000000000000000000000000000000000000000000008084161415610b8757610b80670de0b6b3a7640000610b707f7fffffffffffffffffffffffffffffffffffffffffffffffffffffffffffffff861682611438565b840281610b7957fe5b0483611438565b9050610a27565b5090919050565b6040517fdd62ed3e000000000000000000000000000000000000000000000000000000008152819073ffffffffffffffffffffffffffffffffffffffff85169063dd62ed3e90610be49030908790600401612250565b60206040518083038186803b158015610bfc57600080fd5b505afa158015610c10573d6000803e3d6000fd5b505050506040513d601f19601f82011682018060405250810190610c349190611eac565b1015610c6557610c6583837fffffffffffffffffffffffffffffffffffffffffffffffffffffffffffffffff611447565b505050565b600082610c7957506000610a27565b82820282848281610c8657fe5b0414610b0557610b056101c1600186866114f3565b610ca36118d9565b6000610cbb8484876020015188604001516000611512565b9050600060607f000000000000000000000000000000000000000000000000000000000000000073ffffffffffffffffffffffffffffffffffffffff1663f712a14860e01b888860200151896040015187604051602401610d1f949392919061245b565b604080517fffffffffffffffffffffffffffffffffffffffffffffffffffffffffffffffe08184030181529181526020820180517bffffffffffffffffffffffffffffffffffffffffffffffffffffffff167fffffffff00000000000000000000000000000000000000000000000000000000909416939093179092529051610da89190612210565b600060405180830381855af49150503d8060008114610de3576040519150601f19603f3d011682016040523d82523d6000602084013e610de8565b606091505b50915091508115610e105780806020019051810190610e079190611eac565b60208501528284525b5050509392505050565b610e226118d9565b6000610e8c610e8285858860000151606001516fffffffffffffffffffffffffffffffff168960000151604001516fffffffffffffffffffffffffffffffff168a60000151608001516fffffffffffffffffffffffffffffffff16611512565b8660400151611438565b9050826060015183600001511015610fa35784516040517fdd11d22500000000000000000000000000000000000000000000000000000000815260009173ffffffffffffffffffffffffffffffffffffffff7f0000000000000000000000000000000000000000000000000000000000000000169163dd11d22591610f13916004016124c7565b60206040518083038186803b158015610f2b57600080fd5b505afa158015610f3f573d6000803e3d6000fd5b505050506040513d601f19601f82011682018060405250810190610f639190611eac565b90507fb5d7e18f9bad5b40d7cf6bb45142dfbaef62527179ff5c249c6d6cc00176224d81604051610f9491906122cb565b60405180910390a15050610b05565b7f000000000000000000000000000000000000000000000000000000000000000073ffffffffffffffffffffffffffffffffffffffff1663f6274f66846060015187600001518860200151610ff7866115a8565b6040518563ffffffff1660e01b8152600401611015939291906124d6565b60408051808303818588803b15801561102d57600080fd5b505af19350505050801561107c575060408051601f3d9081017fffffffffffffffffffffffffffffffffffffffffffffffffffffffffffffffe01682019092526110799181019061202b565b60015b61108557611141565b8651608001516fffffffffffffffffffffffffffffffff161561111a576111176110fe6110f9846fffffffffffffffffffffffffffffffff168a60000151606001516fffffffffffffffffffffffffffffffff168b60000151608001516fffffffffffffffffffffffffffffffff166115d4565b6115a8565b6fffffffffffffffffffffffffffffffff8416906115f2565b91505b6fffffffffffffffffffffffffffffffff9182168452166020830152606083015160408301525b509392505050565b6111516118d9565b6000611198610e8285858860000151606001516fffffffffffffffffffffffffffffffff168960000151604001516fffffffffffffffffffffffffffffffff166000611512565b90507f000000000000000000000000000000000000000000000000000000000000000073ffffffffffffffffffffffffffffffffffffffff1663aa77476c866000015187602001516111e9856115a8565b6040518463ffffffff1660e01b815260040161120793929190612514565b6040805180830381600087803b15801561122057600080fd5b505af192505050801561126e575060408051601f3d9081017fffffffffffffffffffffffffffffffffffffffffffffffffffffffffffffffe016820190925261126b9181019061202b565b60015b61127757611141565b6fffffffffffffffffffffffffffffffff9182168452166020830152509392505050565b600082820183811015610b0557610b056101c1600086866114f3565b6000828211156112d0576112d06101c1600285856114f3565b50900390565b60607fadc35ca636cd9f46b974d5bec4df8af095d0ae177ec6043620af588c03bdc61684848460405160240161130e9392919061229d565b604080517fffffffffffffffffffffffffffffffffffffffffffffffffffffffffffffffe08184030181529190526020810180517bffffffffffffffffffffffffffffffffffffffffffffffffffffffff167fffffffff000000000000000000000000000000000000000000000000000000009093169290921790915290509392505050565b60607f498df3ae522acadbf67e6aa5fde156a5b74336950cd271175e7336907df120e384848460405160240161130e9392919061229d565b60607f5cec653b364cca3880afa73ceff506d0651d11d26abbbe4a56460aa933b21b0883836040516024016109a7929190612250565b60607fb5cf2cd09307d6c717473134badbb9761c2c97d7565566c2a71eba6cd6fc514d83836040516024016109a7929190612250565b6000818310610b875781610b05565b606063095ea7b360e01b8383604051602401611464929190612277565b604080517fffffffffffffffffffffffffffffffffffffffffffffffffffffffffffffffe08184030181529190526020810180517bffffffffffffffffffffffffffffffffffffffffffffffffffffffff167fffffffff000000000000000000000000000000000000000000000000000000009093169290921790915290506114ed8482611647565b50505050565b606063e946c1bb60e01b84848460405160240161130e93929190612301565b6000808651600181111561152257fe5b141561155f57604085015160e087015161153b916112b7565b9050811561155a5761155781611551868561129b565b8661174d565b90505b611587565b61158461157d86602001518860e001516112b790919063ffffffff16565b848661174d565b90505b61159e6115948286611438565b8660800151611438565b9695505050505050565b60006fffffffffffffffffffffffffffffffff8211156115d0576115d06101c1600384611771565b5090565b60006115ea836115e48685610c6a565b9061178e565b949350505050565b60008282016fffffffffffffffffffffffffffffffff8085169082161015610b0557610b056101c16000866fffffffffffffffffffffffffffffffff16866fffffffffffffffffffffffffffffffff166114f3565b600060608373ffffffffffffffffffffffffffffffffffffffff16836040516116709190612210565b6000604051808303816000865af19150503d80600081146116ad576040519150601f19603f3d011682016040523d82523d6000602084013e6116b2565b606091505b5091509150816116c5576116c581610a2d565b805161170c57833b80611704576040517f08c379a0000000000000000000000000000000000000000000000000000000008152600401610522906123a1565b505050611749565b60208151106117405760006117228260006117b8565b9050806001141561173557505050611749565b61173e82610a2d565b505b6114ed81610a2d565b5050565b60006115ea836115e46117618260016112b7565b61176b8887610c6a565b9061129b565b606063c996af7b60e01b83836040516024016109a7929190612322565b6000816117a4576117a46101c1600385856114f3565b60008284816117af57fe5b04949350505050565b6000610b058383600081602001835110156117e0576117e06101c160058551856020016117e9565b50016020015190565b6060632800659560e01b84848460405160240161130e93929190612339565b6040805161012081019091528060008152602001600073ffffffffffffffffffffffffffffffffffffffff168152602001600073ffffffffffffffffffffffffffffffffffffffff1681526020016060815260200160608152602001606081526020016060815260200160008152602001600073ffffffffffffffffffffffffffffffffffffffff1681525090565b6040518060e0016040528060008152602001600081526020016000815260200160008152602001600081526020016118cd6118fa565b81526020016000905290565b60405180606001604052806000815260200160008152602001600081525090565b60405180606001604052806003906020820280368337509192915050565b8035610a27816126ca565b600082601f830112611933578081fd5b813561194661194182612671565b61264a565b81815291506020808301908481018184028601820187101561196757600080fd5b6000805b8581101561199357823560038110611981578283fd5b8552938301939183019160010161196b565b50505050505092915050565b600082601f8301126119af578081fd5b81356119bd61194182612671565b818152915060208083019084810160005b84811015611a7157813587016080807fffffffffffffffffffffffffffffffffffffffffffffffffffffffffffffffe0838c03011215611a0d57600080fd5b611a168161264a565b8286013581526040808401358288015260608085013582840152928401359267ffffffffffffffff841115611a4a57600080fd5b611a588d8986880101611c87565b90830152508652505092820192908201906001016119ce565b505050505092915050565b600082601f830112611a8c578081fd5b8135611a9a61194182612671565b818152915060208083019084810161022080850287018301881015611abe57600080fd5b6000805b86811015611b1d5782848b031215611ad8578182fd5b611ae2606061264a565b611aec8b86611d1d565b8152611afc8b6101808701611e0a565b81870152610200850135604082015286529484019492820192600101611ac2565b5050505050505092915050565b600082601f830112611b3a578081fd5b8135611b4861194182612671565b81815291506020808301908481016101e080850287018301881015611b6c57600080fd5b60005b858110156119935782890382811215611b8757600080fd5b6060611b928161264a565b61014080841215611ba257600080fd5b611bab8161264a565b9350611bb78d88611918565b8452611bc58d898901611918565b888501526040611bd78e828a01611e6d565b81860152611be78e858a01611e6d565b8486015260809350611bfb8e858a01611918565b8486015260a09350611c0f8e858a01611918565b8486015260c09350611c238e858a01611918565b8486015260e0935083880135848601526101009350611c448e858a01611e78565b8486015261012093508388013584860152848352611c648e838a01611e0a565b838a01526101c08801359083015250875250509383019391810191600101611b6f565b600082601f830112611c97578081fd5b813567ffffffffffffffff811115611cad578182fd5b611cde60207fffffffffffffffffffffffffffffffffffffffffffffffffffffffffffffffe0601f8401160161264a565b9150808252836020828501011115611cf557600080fd5b8060208401602084013760009082016020015292915050565b803560028110610a2757600080fd5b6000610180808385031215611d30578182fd5b611d398161264a565b915050611d468383611918565b8152611d558360208401611918565b6020820152611d678360408401611e6d565b6040820152611d798360608401611e6d565b6060820152611d8b8360808401611e6d565b6080820152611d9d8360a08401611918565b60a0820152611daf8360c08401611918565b60c0820152611dc18360e08401611918565b60e0820152610100611dd584828501611918565b908201526101208281013590820152610140611df384828501611e78565b818301525061016080830135818301525092915050565b600060808284031215611e1b578081fd5b611e25608061264a565b9050813560048110611e3657600080fd5b8152602082013560ff81168114611e4c57600080fd5b80602083015250604082013560408201526060820135606082015292915050565b8035610a27816126ec565b803567ffffffffffffffff81168114610a2757600080fd5b600060208284031215611ea1578081fd5b8135610b05816126ca565b600060208284031215611ebd578081fd5b5051919050565b600060208284031215611ed5578081fd5b813567ffffffffffffffff811115611eeb578182fd5b820160608185031215610b05578182fd5b600060208284031215611f0d578081fd5b813567ffffffffffffffff80821115611f24578283fd5b8184019150610120808387031215611f3a578384fd5b611f438161264a565b9050611f4f8684611d0e565b8152611f5e8660208501611918565b6020820152611f708660408501611918565b6040820152606083013582811115611f86578485fd5b611f928782860161199f565b606083015250608083013582811115611fa9578485fd5b611fb587828601611a7c565b60808301525060a083013582811115611fcc578485fd5b611fd887828601611b2a565b60a08301525060c083013582811115611fef578485fd5b611ffb87828601611923565b60c08301525060e083013560e0820152610100915061201c86838501611918565b91810191909152949350505050565b6000806040838503121561203d578081fd5b8251612048816126ec565b6020840151909250612059816126ec565b809150509250929050565b600060208284031215612075578081fd5b815163ffffffff81168114610b05578182fd5b73ffffffffffffffffffffffffffffffffffffffff169052565b600081518084526120ba816020860160208601612691565b601f017fffffffffffffffffffffffffffffffffffffffffffffffffffffffffffffffe0169290920160200192915050565b6120f7828251612088565b60208101516121096020840182612088565b50604081015161211c60408401826121ec565b50606081015161212f60608401826121ec565b50608081015161214260808401826121ec565b5060a081015161215560a0840182612088565b5060c081015161216860c0840182612088565b5060e081015161217b60e0840182612088565b506101008082015161218f82850182612088565b50506101208181015190830152610140808201516121af82850182612202565b505061016090810151910152565b80516121c8816126bd565b825260208181015160ff169083015260408082015190830152606090810151910152565b6fffffffffffffffffffffffffffffffff169052565b67ffffffffffffffff169052565b60008251612222818460208701612691565b9190910192915050565b90565b73ffffffffffffffffffffffffffffffffffffffff91909116815260200190565b73ffffffffffffffffffffffffffffffffffffffff92831681529116602082015260400190565b73ffffffffffffffffffffffffffffffffffffffff929092168252602082015260400190565b73ffffffffffffffffffffffffffffffffffffffff9390931683526020830191909152604082015260600190565b90815260200190565b7fffffffff0000000000000000000000000000000000000000000000000000000091909116815260200190565b6060810161230e856126bd565b938152602081019290925260409091015290565b6040810161232f846126bd565b9281526020015290565b606081016008851061230e57fe5b60006002841061235357fe5b838252604060208301526115ea60408301846120a2565b60208082526012908201527f494e56414c49445f4f524445525f545950450000000000000000000000000000604082015260600190565b60208082526027908201527f696e76616c696420746f6b656e20616464726573732c20636f6e7461696e732060408201527f6e6f20636f646500000000000000000000000000000000000000000000000000606082015260800190565b6020808252602a908201527f46696c6c51756f74655472616e73666f726d65722f45544845525f5452414e5360408201527f4645525f46414c49454400000000000000000000000000000000000000000000606082015260800190565b60006080825285516080830152602086015160a0830152604086015160c08301526060860151608060e08401526124966101008401826120a2565b73ffffffffffffffffffffffffffffffffffffffff9687166020850152949095166040830152506060015292915050565b6101808101610a2782846120ec565b61022081016124e582866120ec565b6124f36101808301856121bd565b6fffffffffffffffffffffffffffffffff8316610200830152949350505050565b60006101e082019050612528828651612088565b602085015161253a6020840182612088565b50604085015161254d60408401826121ec565b50606085015161256060608401826121ec565b5060808501516125736080840182612088565b5060a085015161258660a0840182612088565b5060c085015161259960c0840182612088565b5060e085015160e0830152610100808601516125b782850182612202565b505061012085810151908301526125d26101408301856121bd565b6115ea6101c08301846121ec565b60008083357fffffffffffffffffffffffffffffffffffffffffffffffffffffffffffffffe1843603018112612614578283fd5b83018035915067ffffffffffffffff82111561262e578283fd5b60200191503681900382131561264357600080fd5b9250929050565b60405181810167ffffffffffffffff8111828210171561266957600080fd5b604052919050565b600067ffffffffffffffff821115612687578081fd5b5060209081020190565b60005b838110156126ac578181015183820152602001612694565b838111156114ed5750506000910152565b600481106126c757fe5b50565b73ffffffffffffffffffffffffffffffffffffffff811681146126c757600080fd5b6fffffffffffffffffffffffffffffffff811681146126c757600080fdfea2646970667358221220408dda759782f7ce37502b5ced3c68afbc016f2df95b890ad24d2affb189313e64736f6c634300060c0033",
                "opcodes": "PUSH2 0x100 PUSH1 0x40 MSTORE CALLVALUE DUP1 ISZERO PUSH3 0x12 JUMPI PUSH1 0x0 DUP1 REVERT JUMPDEST POP PUSH1 0x40 MLOAD PUSH3 0x2865 CODESIZE SUB DUP1 PUSH3 0x2865 DUP4 CODECOPY DUP2 ADD PUSH1 0x40 DUP2 SWAP1 MSTORE PUSH3 0x35 SWAP2 PUSH3 0x60 JUMP JUMPDEST CALLER PUSH1 0x60 SWAP1 DUP2 SHL PUSH1 0x80 MSTORE ADDRESS DUP2 SHL PUSH1 0xA0 MSTORE PUSH1 0x1 PUSH1 0x1 PUSH1 0x60 SHL SUB NOT SWAP3 DUP2 SHL DUP4 AND PUSH1 0xC0 MSTORE SHL AND PUSH1 0xE0 MSTORE PUSH3 0xB7 JUMP JUMPDEST PUSH1 0x0 DUP1 PUSH1 0x40 DUP4 DUP6 SUB SLT ISZERO PUSH3 0x73 JUMPI DUP2 DUP3 REVERT JUMPDEST DUP3 MLOAD PUSH3 0x80 DUP2 PUSH3 0x9E JUMP JUMPDEST PUSH1 0x20 DUP5 ADD MLOAD SWAP1 SWAP3 POP PUSH3 0x93 DUP2 PUSH3 0x9E JUMP JUMPDEST DUP1 SWAP2 POP POP SWAP3 POP SWAP3 SWAP1 POP JUMP JUMPDEST PUSH1 0x1 PUSH1 0x1 PUSH1 0xA0 SHL SUB DUP2 AND DUP2 EQ PUSH3 0xB4 JUMPI PUSH1 0x0 DUP1 REVERT JUMPDEST POP JUMP JUMPDEST PUSH1 0x80 MLOAD PUSH1 0x60 SHR PUSH1 0xA0 MLOAD PUSH1 0x60 SHR PUSH1 0xC0 MLOAD PUSH1 0x60 SHR PUSH1 0xE0 MLOAD PUSH1 0x60 SHR PUSH2 0x2740 PUSH3 0x125 PUSH1 0x0 CODECOPY DUP1 PUSH1 0xD1 MSTORE DUP1 PUSH2 0x268 MSTORE DUP1 PUSH2 0x2C7 MSTORE DUP1 PUSH2 0xEE0 MSTORE DUP1 PUSH2 0xFA5 MSTORE DUP1 PUSH2 0x119C MSTORE POP DUP1 PUSH2 0x80C MSTORE DUP1 PUSH2 0xCC3 MSTORE POP DUP1 PUSH2 0x8B0 MSTORE DUP1 PUSH2 0x8DE MSTORE POP DUP1 PUSH2 0x846 MSTORE DUP1 PUSH2 0x874 MSTORE DUP1 PUSH2 0x91D MSTORE POP PUSH2 0x2740 PUSH1 0x0 RETURN INVALID PUSH1 0x80 PUSH1 0x40 MSTORE CALLVALUE DUP1 ISZERO PUSH2 0x10 JUMPI PUSH1 0x0 DUP1 REVERT JUMPDEST POP PUSH1 0x4 CALLDATASIZE LT PUSH2 0x67 JUMPI PUSH1 0x0 CALLDATALOAD PUSH1 0xE0 SHR DUP1 PUSH4 0xBE7DC09B GT PUSH2 0x50 JUMPI DUP1 PUSH4 0xBE7DC09B EQ PUSH2 0xAA JUMPI DUP1 PUSH4 0xC9353CB5 EQ PUSH2 0xB2 JUMPI DUP1 PUSH4 0xD5F39488 EQ PUSH2 0xC7 JUMPI PUSH2 0x67 JUMP JUMPDEST DUP1 PUSH4 0x52AB413B EQ PUSH2 0x6C JUMPI DUP1 PUSH4 0x832B24BB EQ PUSH2 0x8A JUMPI JUMPDEST PUSH1 0x0 DUP1 REVERT JUMPDEST PUSH2 0x74 PUSH2 0xCF JUMP JUMPDEST PUSH1 0x40 MLOAD PUSH2 0x81 SWAP2 SWAP1 PUSH2 0x222F JUMP JUMPDEST PUSH1 0x40 MLOAD DUP1 SWAP2 SUB SWAP1 RETURN JUMPDEST PUSH2 0x9D PUSH2 0x98 CALLDATASIZE PUSH1 0x4 PUSH2 0x1EC4 JUMP JUMPDEST PUSH2 0xF3 JUMP JUMPDEST PUSH1 0x40 MLOAD PUSH2 0x81 SWAP2 SWAP1 PUSH2 0x22D4 JUMP JUMPDEST PUSH2 0x74 PUSH2 0x80A JUMP JUMPDEST PUSH2 0xC5 PUSH2 0xC0 CALLDATASIZE PUSH1 0x4 PUSH2 0x1E90 JUMP JUMPDEST PUSH2 0x82E JUMP JUMPDEST STOP JUMPDEST PUSH2 0x74 PUSH2 0x91B JUMP JUMPDEST PUSH32 0x0 DUP2 JUMP JUMPDEST PUSH1 0x0 PUSH2 0xFD PUSH2 0x1808 JUMP JUMPDEST PUSH2 0x10A PUSH1 0x40 DUP5 ADD DUP5 PUSH2 0x25E0 JUMP JUMPDEST DUP2 ADD SWAP1 PUSH2 0x117 SWAP2 SWAP1 PUSH2 0x1EFC JUMP JUMPDEST SWAP1 POP PUSH2 0x121 PUSH2 0x1897 JUMP JUMPDEST PUSH2 0x144 DUP3 PUSH1 0x20 ADD MLOAD PUSH20 0xFFFFFFFFFFFFFFFFFFFFFFFFFFFFFFFFFFFFFFFF AND PUSH2 0x93F JUMP JUMPDEST DUP1 PUSH2 0x16D JUMPI POP PUSH2 0x16D DUP3 PUSH1 0x40 ADD MLOAD PUSH20 0xFFFFFFFFFFFFFFFFFFFFFFFFFFFFFFFFFFFFFFFF AND PUSH2 0x93F JUMP JUMPDEST ISZERO PUSH2 0x1C6 JUMPI PUSH2 0x1C6 PUSH2 0x1C1 PUSH1 0x0 PUSH2 0x187 PUSH1 0x40 DUP9 ADD DUP9 PUSH2 0x25E0 JUMP JUMPDEST DUP1 DUP1 PUSH1 0x1F ADD PUSH1 0x20 DUP1 SWAP2 DIV MUL PUSH1 0x20 ADD PUSH1 0x40 MLOAD SWAP1 DUP2 ADD PUSH1 0x40 MSTORE DUP1 SWAP4 SWAP3 SWAP2 SWAP1 DUP2 DUP2 MSTORE PUSH1 0x20 ADD DUP4 DUP4 DUP1 DUP3 DUP5 CALLDATACOPY PUSH1 0x0 SWAP3 ADD SWAP2 SWAP1 SWAP2 MSTORE POP PUSH2 0x971 SWAP3 POP POP POP JUMP JUMPDEST PUSH2 0xA2D JUMP JUMPDEST DUP2 PUSH1 0xC0 ADD MLOAD MLOAD DUP3 PUSH1 0xA0 ADD MLOAD MLOAD DUP4 PUSH1 0x80 ADD MLOAD MLOAD DUP5 PUSH1 0x60 ADD MLOAD MLOAD ADD ADD EQ PUSH2 0x1FA JUMPI PUSH2 0x1FA PUSH2 0x1C1 PUSH1 0x1 PUSH2 0x187 PUSH1 0x40 DUP9 ADD DUP9 PUSH2 0x25E0 JUMP JUMPDEST PUSH1 0x20 DUP3 ADD MLOAD PUSH2 0x21F SWAP1 PUSH20 0xFFFFFFFFFFFFFFFFFFFFFFFFFFFFFFFFFFFFFFFF AND ADDRESS PUSH2 0xA35 JUMP JUMPDEST PUSH1 0x80 DUP3 ADD MSTORE PUSH1 0x0 DUP3 MLOAD PUSH1 0x1 DUP2 GT ISZERO PUSH2 0x233 JUMPI INVALID JUMPDEST EQ ISZERO PUSH2 0x251 JUMPI PUSH2 0x24B DUP3 PUSH1 0xE0 ADD MLOAD DUP3 PUSH1 0x80 ADD MLOAD PUSH2 0xB0C JUMP JUMPDEST PUSH1 0xE0 DUP4 ADD MSTORE JUMPDEST PUSH1 0xA0 DUP3 ADD MLOAD MLOAD PUSH1 0x80 DUP4 ADD MLOAD MLOAD ADD ISZERO PUSH2 0x37D JUMPI PUSH2 0x2B6 PUSH32 0x0 DUP4 PUSH1 0xE0 ADD MLOAD DUP5 PUSH1 0x20 ADD MLOAD PUSH20 0xFFFFFFFFFFFFFFFFFFFFFFFFFFFFFFFFFFFFFFFF AND PUSH2 0xB8E SWAP1 SWAP3 SWAP2 SWAP1 PUSH4 0xFFFFFFFF AND JUMP JUMPDEST PUSH1 0x80 DUP3 ADD MLOAD MLOAD ISZERO PUSH2 0x37D JUMPI PUSH2 0x377 GASPRICE PUSH32 0x0 PUSH20 0xFFFFFFFFFFFFFFFFFFFFFFFFFFFFFFFFFFFFFFFF AND PUSH4 0x487B5C20 PUSH1 0x40 MLOAD DUP2 PUSH4 0xFFFFFFFF AND PUSH1 0xE0 SHL DUP2 MSTORE PUSH1 0x4 ADD PUSH1 0x20 PUSH1 0x40 MLOAD DUP1 DUP4 SUB DUP2 DUP7 DUP1 EXTCODESIZE ISZERO DUP1 ISZERO PUSH2 0x32B JUMPI PUSH1 0x0 DUP1 REVERT JUMPDEST POP GAS STATICCALL ISZERO DUP1 ISZERO PUSH2 0x33F JUMPI RETURNDATASIZE PUSH1 0x0 DUP1 RETURNDATACOPY RETURNDATASIZE PUSH1 0x0 REVERT JUMPDEST POP POP POP POP PUSH1 0x40 MLOAD RETURNDATASIZE PUSH1 0x1F NOT PUSH1 0x1F DUP3 ADD AND DUP3 ADD DUP1 PUSH1 0x40 MSTORE POP DUP2 ADD SWAP1 PUSH2 0x363 SWAP2 SWAP1 PUSH2 0x2064 JUMP JUMPDEST PUSH4 0xFFFFFFFF AND PUSH2 0xC6A SWAP1 SWAP2 SWAP1 PUSH4 0xFFFFFFFF AND JUMP JUMPDEST PUSH1 0x60 DUP3 ADD MSTORE JUMPDEST SELFBALANCE DUP2 MSTORE PUSH1 0x0 JUMPDEST DUP3 PUSH1 0xC0 ADD MLOAD MLOAD DUP2 LT ISZERO PUSH2 0x5B9 JUMPI PUSH1 0x0 DUP4 MLOAD PUSH1 0x1 DUP2 GT ISZERO PUSH2 0x39F JUMPI INVALID JUMPDEST EQ ISZERO PUSH2 0x3BE JUMPI DUP3 PUSH1 0xE0 ADD MLOAD DUP3 PUSH1 0x40 ADD MLOAD LT PUSH2 0x3B9 JUMPI PUSH2 0x5B9 JUMP JUMPDEST PUSH2 0x3D2 JUMP JUMPDEST DUP3 PUSH1 0xE0 ADD MLOAD DUP3 PUSH1 0x20 ADD MLOAD LT PUSH2 0x3D2 JUMPI PUSH2 0x5B9 JUMP JUMPDEST DUP3 PUSH1 0xC0 ADD MLOAD DUP2 DUP2 MLOAD DUP2 LT PUSH2 0x3E2 JUMPI INVALID JUMPDEST PUSH1 0x20 MUL PUSH1 0x20 ADD ADD MLOAD DUP3 PUSH1 0xC0 ADD SWAP1 PUSH1 0x2 DUP2 GT ISZERO PUSH2 0x3FA JUMPI INVALID JUMPDEST SWAP1 DUP2 PUSH1 0x2 DUP2 GT ISZERO PUSH2 0x407 JUMPI INVALID JUMPDEST DUP2 MSTORE POP POP PUSH1 0x0 DUP3 PUSH1 0xA0 ADD MLOAD DUP4 PUSH1 0xC0 ADD MLOAD PUSH1 0x2 DUP2 GT ISZERO PUSH2 0x422 JUMPI INVALID JUMPDEST PUSH1 0x3 DUP2 LT PUSH2 0x42C JUMPI INVALID JUMPDEST PUSH1 0x20 MUL ADD MLOAD SWAP1 POP PUSH2 0x43B PUSH2 0x18D9 JUMP JUMPDEST PUSH1 0x0 DUP5 PUSH1 0xC0 ADD MLOAD PUSH1 0x2 DUP2 GT ISZERO PUSH2 0x44D JUMPI INVALID JUMPDEST EQ ISZERO PUSH2 0x47C JUMPI PUSH2 0x475 DUP6 PUSH1 0x60 ADD MLOAD DUP4 DUP2 MLOAD DUP2 LT PUSH2 0x466 JUMPI INVALID JUMPDEST PUSH1 0x20 MUL PUSH1 0x20 ADD ADD MLOAD DUP7 DUP7 PUSH2 0xC9B JUMP JUMPDEST SWAP1 POP PUSH2 0x52B JUMP JUMPDEST PUSH1 0x1 DUP5 PUSH1 0xC0 ADD MLOAD PUSH1 0x2 DUP2 GT ISZERO PUSH2 0x48E JUMPI INVALID JUMPDEST EQ ISZERO PUSH2 0x4B6 JUMPI PUSH2 0x475 DUP6 PUSH1 0x80 ADD MLOAD DUP4 DUP2 MLOAD DUP2 LT PUSH2 0x4A7 JUMPI INVALID JUMPDEST PUSH1 0x20 MUL PUSH1 0x20 ADD ADD MLOAD DUP7 DUP7 PUSH2 0xE1A JUMP JUMPDEST PUSH1 0x2 DUP5 PUSH1 0xC0 ADD MLOAD PUSH1 0x2 DUP2 GT ISZERO PUSH2 0x4C8 JUMPI INVALID JUMPDEST EQ ISZERO PUSH2 0x4F0 JUMPI PUSH2 0x475 DUP6 PUSH1 0xA0 ADD MLOAD DUP4 DUP2 MLOAD DUP2 LT PUSH2 0x4E1 JUMPI INVALID JUMPDEST PUSH1 0x20 MUL PUSH1 0x20 ADD ADD MLOAD DUP7 DUP7 PUSH2 0x1149 JUMP JUMPDEST PUSH1 0x40 MLOAD PUSH32 0x8C379A000000000000000000000000000000000000000000000000000000000 DUP2 MSTORE PUSH1 0x4 ADD PUSH2 0x522 SWAP1 PUSH2 0x236A JUMP JUMPDEST PUSH1 0x40 MLOAD DUP1 SWAP2 SUB SWAP1 REVERT JUMPDEST DUP1 MLOAD PUSH1 0x40 DUP6 ADD MLOAD PUSH2 0x53B SWAP2 PUSH2 0x129B JUMP JUMPDEST PUSH1 0x40 DUP6 ADD MSTORE PUSH1 0x20 DUP1 DUP3 ADD MLOAD SWAP1 DUP6 ADD MLOAD PUSH2 0x553 SWAP2 PUSH2 0x129B JUMP JUMPDEST PUSH1 0x20 DUP6 ADD MSTORE PUSH1 0x40 DUP2 ADD MLOAD DUP5 MLOAD PUSH2 0x568 SWAP2 PUSH2 0x12B7 JUMP JUMPDEST DUP5 MSTORE DUP1 MLOAD PUSH1 0x80 DUP6 ADD MLOAD PUSH2 0x57A SWAP2 PUSH2 0x12B7 JUMP JUMPDEST PUSH1 0x80 DUP6 ADD MSTORE PUSH1 0xA0 DUP5 ADD MLOAD PUSH1 0xC0 DUP6 ADD MLOAD PUSH1 0x2 DUP2 GT ISZERO PUSH2 0x594 JUMPI INVALID JUMPDEST PUSH1 0x3 DUP2 LT PUSH2 0x59E JUMPI INVALID JUMPDEST PUSH1 0x20 MUL ADD DUP1 MLOAD PUSH1 0x1 SWAP1 DUP2 ADD SWAP1 SWAP2 MSTORE SWAP3 SWAP1 SWAP3 ADD SWAP2 POP PUSH2 0x383 SWAP1 POP JUMP JUMPDEST POP PUSH1 0x0 DUP3 MLOAD PUSH1 0x1 DUP2 GT ISZERO PUSH2 0x5C9 JUMPI INVALID JUMPDEST EQ ISZERO PUSH2 0x5FE JUMPI DUP2 PUSH1 0xE0 ADD MLOAD DUP2 PUSH1 0x40 ADD MLOAD LT ISZERO PUSH2 0x5F9 JUMPI PUSH2 0x5F9 PUSH2 0x1C1 DUP4 PUSH1 0x20 ADD MLOAD DUP4 PUSH1 0x40 ADD MLOAD DUP6 PUSH1 0xE0 ADD MLOAD PUSH2 0x12D6 JUMP JUMPDEST PUSH2 0x628 JUMP JUMPDEST DUP2 PUSH1 0xE0 ADD MLOAD DUP2 PUSH1 0x20 ADD MLOAD LT ISZERO PUSH2 0x628 JUMPI PUSH2 0x628 PUSH2 0x1C1 DUP4 PUSH1 0x40 ADD MLOAD DUP4 PUSH1 0x20 ADD MLOAD DUP6 PUSH1 0xE0 ADD MLOAD PUSH2 0x1394 JUMP JUMPDEST DUP1 MLOAD ISZERO DUP1 ISZERO SWAP1 PUSH2 0x652 JUMPI POP PUSH2 0x100 DUP3 ADD MLOAD PUSH20 0xFFFFFFFFFFFFFFFFFFFFFFFFFFFFFFFFFFFFFFFF AND ISZERO ISZERO JUMPDEST ISZERO PUSH2 0x7E1 JUMPI PUSH2 0x100 DUP3 ADD MLOAD PUSH1 0x0 SWAP1 PUSH20 0xFFFFFFFFFFFFFFFFFFFFFFFFFFFFFFFFFFFFFFFF AND PUSH1 0x1 EQ ISZERO PUSH2 0x702 JUMPI PUSH2 0x68E PUSH1 0x40 DUP7 ADD PUSH1 0x20 DUP8 ADD PUSH2 0x1E90 JUMP JUMPDEST PUSH20 0xFFFFFFFFFFFFFFFFFFFFFFFFFFFFFFFFFFFFFFFF AND DUP3 PUSH1 0x0 ADD MLOAD PUSH1 0x40 MLOAD PUSH2 0x6B5 SWAP1 PUSH2 0x222C JUMP JUMPDEST PUSH1 0x0 PUSH1 0x40 MLOAD DUP1 DUP4 SUB DUP2 DUP6 DUP8 GAS CALL SWAP3 POP POP POP RETURNDATASIZE DUP1 PUSH1 0x0 DUP2 EQ PUSH2 0x6F2 JUMPI PUSH1 0x40 MLOAD SWAP2 POP PUSH1 0x1F NOT PUSH1 0x3F RETURNDATASIZE ADD AND DUP3 ADD PUSH1 0x40 MSTORE RETURNDATASIZE DUP3 MSTORE RETURNDATASIZE PUSH1 0x0 PUSH1 0x20 DUP5 ADD RETURNDATACOPY PUSH2 0x6F7 JUMP JUMPDEST PUSH1 0x60 SWAP2 POP JUMPDEST POP POP DUP1 SWAP2 POP POP PUSH2 0x7A8 JUMP JUMPDEST PUSH2 0x100 DUP4 ADD MLOAD PUSH20 0xFFFFFFFFFFFFFFFFFFFFFFFFFFFFFFFFFFFFFFFF AND PUSH1 0x2 EQ ISZERO PUSH2 0x733 JUMPI PUSH2 0x68E PUSH1 0x20 DUP7 ADD DUP7 PUSH2 0x1E90 JUMP JUMPDEST DUP3 PUSH2 0x100 ADD MLOAD PUSH20 0xFFFFFFFFFFFFFFFFFFFFFFFFFFFFFFFFFFFFFFFF AND DUP3 PUSH1 0x0 ADD MLOAD PUSH1 0x40 MLOAD PUSH2 0x760 SWAP1 PUSH2 0x222C JUMP JUMPDEST PUSH1 0x0 PUSH1 0x40 MLOAD DUP1 DUP4 SUB DUP2 DUP6 DUP8 GAS CALL SWAP3 POP POP POP RETURNDATASIZE DUP1 PUSH1 0x0 DUP2 EQ PUSH2 0x79D JUMPI PUSH1 0x40 MLOAD SWAP2 POP PUSH1 0x1F NOT PUSH1 0x3F RETURNDATASIZE ADD AND DUP3 ADD PUSH1 0x40 MSTORE RETURNDATASIZE DUP3 MSTORE RETURNDATASIZE PUSH1 0x0 PUSH1 0x20 DUP5 ADD RETURNDATACOPY PUSH2 0x7A2 JUMP JUMPDEST PUSH1 0x60 SWAP2 POP JUMPDEST POP SWAP1 SWAP2 POP POP JUMPDEST DUP1 PUSH2 0x7DF JUMPI PUSH1 0x40 MLOAD PUSH32 0x8C379A000000000000000000000000000000000000000000000000000000000 DUP2 MSTORE PUSH1 0x4 ADD PUSH2 0x522 SWAP1 PUSH2 0x23FE JUMP JUMPDEST POP JUMPDEST POP PUSH32 0x13C9929E00000000000000000000000000000000000000000000000000000000 SWAP4 SWAP3 POP POP POP JUMP JUMPDEST PUSH32 0x0 DUP2 JUMP JUMPDEST CALLER PUSH20 0xFFFFFFFFFFFFFFFFFFFFFFFFFFFFFFFFFFFFFFFF PUSH32 0x0 AND EQ PUSH2 0x898 JUMPI PUSH2 0x898 PUSH2 0x1C1 CALLER PUSH32 0x0 PUSH2 0x13CC JUMP JUMPDEST ADDRESS PUSH20 0xFFFFFFFFFFFFFFFFFFFFFFFFFFFFFFFFFFFFFFFF PUSH32 0x0 AND EQ PUSH2 0x902 JUMPI PUSH2 0x902 PUSH2 0x1C1 ADDRESS PUSH32 0x0 PUSH2 0x1402 JUMP JUMPDEST DUP1 PUSH20 0xFFFFFFFFFFFFFFFFFFFFFFFFFFFFFFFFFFFFFFFF AND SELFDESTRUCT JUMPDEST PUSH32 0x0 DUP2 JUMP JUMPDEST PUSH20 0xFFFFFFFFFFFFFFFFFFFFFFFFFFFFFFFFFFFFFFFF DUP2 AND PUSH20 0xEEEEEEEEEEEEEEEEEEEEEEEEEEEEEEEEEEEEEEEE EQ SWAP2 SWAP1 POP JUMP JUMPDEST PUSH1 0x60 PUSH32 0x505FF6A4F24A0AA989A95FFE4C8D435D76FB30DEA162A3E3022E749867722DEB DUP4 DUP4 PUSH1 0x40 MLOAD PUSH1 0x24 ADD PUSH2 0x9A7 SWAP3 SWAP2 SWAP1 PUSH2 0x2347 JUMP JUMPDEST PUSH1 0x40 DUP1 MLOAD PUSH32 0xFFFFFFFFFFFFFFFFFFFFFFFFFFFFFFFFFFFFFFFFFFFFFFFFFFFFFFFFFFFFFFE0 DUP2 DUP5 SUB ADD DUP2 MSTORE SWAP2 SWAP1 MSTORE PUSH1 0x20 DUP2 ADD DUP1 MLOAD PUSH28 0xFFFFFFFFFFFFFFFFFFFFFFFFFFFFFFFFFFFFFFFFFFFFFFFFFFFFFFFF AND PUSH32 0xFFFFFFFF00000000000000000000000000000000000000000000000000000000 SWAP1 SWAP4 AND SWAP3 SWAP1 SWAP3 OR SWAP1 SWAP2 MSTORE SWAP1 POP JUMPDEST SWAP3 SWAP2 POP POP JUMP JUMPDEST DUP1 MLOAD PUSH1 0x20 DUP3 ADD REVERT JUMPDEST PUSH1 0x0 PUSH2 0xA40 DUP4 PUSH2 0x93F JUMP JUMPDEST ISZERO PUSH2 0xA63 JUMPI POP PUSH20 0xFFFFFFFFFFFFFFFFFFFFFFFFFFFFFFFFFFFFFFFF DUP2 AND BALANCE PUSH2 0xA27 JUMP JUMPDEST PUSH1 0x40 MLOAD PUSH32 0x70A0823100000000000000000000000000000000000000000000000000000000 DUP2 MSTORE PUSH20 0xFFFFFFFFFFFFFFFFFFFFFFFFFFFFFFFFFFFFFFFF DUP5 AND SWAP1 PUSH4 0x70A08231 SWAP1 PUSH2 0xAB5 SWAP1 DUP6 SWAP1 PUSH1 0x4 ADD PUSH2 0x222F JUMP JUMPDEST PUSH1 0x20 PUSH1 0x40 MLOAD DUP1 DUP4 SUB DUP2 DUP7 DUP1 EXTCODESIZE ISZERO DUP1 ISZERO PUSH2 0xACD JUMPI PUSH1 0x0 DUP1 REVERT JUMPDEST POP GAS STATICCALL ISZERO DUP1 ISZERO PUSH2 0xAE1 JUMPI RETURNDATASIZE PUSH1 0x0 DUP1 RETURNDATACOPY RETURNDATASIZE PUSH1 0x0 REVERT JUMPDEST POP POP POP POP PUSH1 0x40 MLOAD RETURNDATASIZE PUSH1 0x1F NOT PUSH1 0x1F DUP3 ADD AND DUP3 ADD DUP1 PUSH1 0x40 MSTORE POP DUP2 ADD SWAP1 PUSH2 0xB05 SWAP2 SWAP1 PUSH2 0x1EAC JUMP JUMPDEST SWAP4 SWAP3 POP POP POP JUMP JUMPDEST PUSH1 0x0 PUSH32 0x8000000000000000000000000000000000000000000000000000000000000000 DUP1 DUP5 AND EQ ISZERO PUSH2 0xB87 JUMPI PUSH2 0xB80 PUSH8 0xDE0B6B3A7640000 PUSH2 0xB70 PUSH32 0x7FFFFFFFFFFFFFFFFFFFFFFFFFFFFFFFFFFFFFFFFFFFFFFFFFFFFFFFFFFFFFFF DUP7 AND DUP3 PUSH2 0x1438 JUMP JUMPDEST DUP5 MUL DUP2 PUSH2 0xB79 JUMPI INVALID JUMPDEST DIV DUP4 PUSH2 0x1438 JUMP JUMPDEST SWAP1 POP PUSH2 0xA27 JUMP JUMPDEST POP SWAP1 SWAP2 SWAP1 POP JUMP JUMPDEST PUSH1 0x40 MLOAD PUSH32 0xDD62ED3E00000000000000000000000000000000000000000000000000000000 DUP2 MSTORE DUP2 SWAP1 PUSH20 0xFFFFFFFFFFFFFFFFFFFFFFFFFFFFFFFFFFFFFFFF DUP6 AND SWAP1 PUSH4 0xDD62ED3E SWAP1 PUSH2 0xBE4 SWAP1 ADDRESS SWAP1 DUP8 SWAP1 PUSH1 0x4 ADD PUSH2 0x2250 JUMP JUMPDEST PUSH1 0x20 PUSH1 0x40 MLOAD DUP1 DUP4 SUB DUP2 DUP7 DUP1 EXTCODESIZE ISZERO DUP1 ISZERO PUSH2 0xBFC JUMPI PUSH1 0x0 DUP1 REVERT JUMPDEST POP GAS STATICCALL ISZERO DUP1 ISZERO PUSH2 0xC10 JUMPI RETURNDATASIZE PUSH1 0x0 DUP1 RETURNDATACOPY RETURNDATASIZE PUSH1 0x0 REVERT JUMPDEST POP POP POP POP PUSH1 0x40 MLOAD RETURNDATASIZE PUSH1 0x1F NOT PUSH1 0x1F DUP3 ADD AND DUP3 ADD DUP1 PUSH1 0x40 MSTORE POP DUP2 ADD SWAP1 PUSH2 0xC34 SWAP2 SWAP1 PUSH2 0x1EAC JUMP JUMPDEST LT ISZERO PUSH2 0xC65 JUMPI PUSH2 0xC65 DUP4 DUP4 PUSH32 0xFFFFFFFFFFFFFFFFFFFFFFFFFFFFFFFFFFFFFFFFFFFFFFFFFFFFFFFFFFFFFFFF PUSH2 0x1447 JUMP JUMPDEST POP POP POP JUMP JUMPDEST PUSH1 0x0 DUP3 PUSH2 0xC79 JUMPI POP PUSH1 0x0 PUSH2 0xA27 JUMP JUMPDEST DUP3 DUP3 MUL DUP3 DUP5 DUP3 DUP2 PUSH2 0xC86 JUMPI INVALID JUMPDEST DIV EQ PUSH2 0xB05 JUMPI PUSH2 0xB05 PUSH2 0x1C1 PUSH1 0x1 DUP7 DUP7 PUSH2 0x14F3 JUMP JUMPDEST PUSH2 0xCA3 PUSH2 0x18D9 JUMP JUMPDEST PUSH1 0x0 PUSH2 0xCBB DUP5 DUP5 DUP8 PUSH1 0x20 ADD MLOAD DUP9 PUSH1 0x40 ADD MLOAD PUSH1 0x0 PUSH2 0x1512 JUMP JUMPDEST SWAP1 POP PUSH1 0x0 PUSH1 0x60 PUSH32 0x0 PUSH20 0xFFFFFFFFFFFFFFFFFFFFFFFFFFFFFFFFFFFFFFFF AND PUSH4 0xF712A148 PUSH1 0xE0 SHL DUP9 DUP9 PUSH1 0x20 ADD MLOAD DUP10 PUSH1 0x40 ADD MLOAD DUP8 PUSH1 0x40 MLOAD PUSH1 0x24 ADD PUSH2 0xD1F SWAP5 SWAP4 SWAP3 SWAP2 SWAP1 PUSH2 0x245B JUMP JUMPDEST PUSH1 0x40 DUP1 MLOAD PUSH32 0xFFFFFFFFFFFFFFFFFFFFFFFFFFFFFFFFFFFFFFFFFFFFFFFFFFFFFFFFFFFFFFE0 DUP2 DUP5 SUB ADD DUP2 MSTORE SWAP2 DUP2 MSTORE PUSH1 0x20 DUP3 ADD DUP1 MLOAD PUSH28 0xFFFFFFFFFFFFFFFFFFFFFFFFFFFFFFFFFFFFFFFFFFFFFFFFFFFFFFFF AND PUSH32 0xFFFFFFFF00000000000000000000000000000000000000000000000000000000 SWAP1 SWAP5 AND SWAP4 SWAP1 SWAP4 OR SWAP1 SWAP3 MSTORE SWAP1 MLOAD PUSH2 0xDA8 SWAP2 SWAP1 PUSH2 0x2210 JUMP JUMPDEST PUSH1 0x0 PUSH1 0x40 MLOAD DUP1 DUP4 SUB DUP2 DUP6 GAS DELEGATECALL SWAP2 POP POP RETURNDATASIZE DUP1 PUSH1 0x0 DUP2 EQ PUSH2 0xDE3 JUMPI PUSH1 0x40 MLOAD SWAP2 POP PUSH1 0x1F NOT PUSH1 0x3F RETURNDATASIZE ADD AND DUP3 ADD PUSH1 0x40 MSTORE RETURNDATASIZE DUP3 MSTORE RETURNDATASIZE PUSH1 0x0 PUSH1 0x20 DUP5 ADD RETURNDATACOPY PUSH2 0xDE8 JUMP JUMPDEST PUSH1 0x60 SWAP2 POP JUMPDEST POP SWAP2 POP SWAP2 POP DUP2 ISZERO PUSH2 0xE10 JUMPI DUP1 DUP1 PUSH1 0x20 ADD SWAP1 MLOAD DUP2 ADD SWAP1 PUSH2 0xE07 SWAP2 SWAP1 PUSH2 0x1EAC JUMP JUMPDEST PUSH1 0x20 DUP6 ADD MSTORE DUP3 DUP5 MSTORE JUMPDEST POP POP POP SWAP4 SWAP3 POP POP POP JUMP JUMPDEST PUSH2 0xE22 PUSH2 0x18D9 JUMP JUMPDEST PUSH1 0x0 PUSH2 0xE8C PUSH2 0xE82 DUP6 DUP6 DUP9 PUSH1 0x0 ADD MLOAD PUSH1 0x60 ADD MLOAD PUSH16 0xFFFFFFFFFFFFFFFFFFFFFFFFFFFFFFFF AND DUP10 PUSH1 0x0 ADD MLOAD PUSH1 0x40 ADD MLOAD PUSH16 0xFFFFFFFFFFFFFFFFFFFFFFFFFFFFFFFF AND DUP11 PUSH1 0x0 ADD MLOAD PUSH1 0x80 ADD MLOAD PUSH16 0xFFFFFFFFFFFFFFFFFFFFFFFFFFFFFFFF AND PUSH2 0x1512 JUMP JUMPDEST DUP7 PUSH1 0x40 ADD MLOAD PUSH2 0x1438 JUMP JUMPDEST SWAP1 POP DUP3 PUSH1 0x60 ADD MLOAD DUP4 PUSH1 0x0 ADD MLOAD LT ISZERO PUSH2 0xFA3 JUMPI DUP5 MLOAD PUSH1 0x40 MLOAD PUSH32 0xDD11D22500000000000000000000000000000000000000000000000000000000 DUP2 MSTORE PUSH1 0x0 SWAP2 PUSH20 0xFFFFFFFFFFFFFFFFFFFFFFFFFFFFFFFFFFFFFFFF PUSH32 0x0 AND SWAP2 PUSH4 0xDD11D225 SWAP2 PUSH2 0xF13 SWAP2 PUSH1 0x4 ADD PUSH2 0x24C7 JUMP JUMPDEST PUSH1 0x20 PUSH1 0x40 MLOAD DUP1 DUP4 SUB DUP2 DUP7 DUP1 EXTCODESIZE ISZERO DUP1 ISZERO PUSH2 0xF2B JUMPI PUSH1 0x0 DUP1 REVERT JUMPDEST POP GAS STATICCALL ISZERO DUP1 ISZERO PUSH2 0xF3F JUMPI RETURNDATASIZE PUSH1 0x0 DUP1 RETURNDATACOPY RETURNDATASIZE PUSH1 0x0 REVERT JUMPDEST POP POP POP POP PUSH1 0x40 MLOAD RETURNDATASIZE PUSH1 0x1F NOT PUSH1 0x1F DUP3 ADD AND DUP3 ADD DUP1 PUSH1 0x40 MSTORE POP DUP2 ADD SWAP1 PUSH2 0xF63 SWAP2 SWAP1 PUSH2 0x1EAC JUMP JUMPDEST SWAP1 POP PUSH32 0xB5D7E18F9BAD5B40D7CF6BB45142DFBAEF62527179FF5C249C6D6CC00176224D DUP2 PUSH1 0x40 MLOAD PUSH2 0xF94 SWAP2 SWAP1 PUSH2 0x22CB JUMP JUMPDEST PUSH1 0x40 MLOAD DUP1 SWAP2 SUB SWAP1 LOG1 POP POP PUSH2 0xB05 JUMP JUMPDEST PUSH32 0x0 PUSH20 0xFFFFFFFFFFFFFFFFFFFFFFFFFFFFFFFFFFFFFFFF AND PUSH4 0xF6274F66 DUP5 PUSH1 0x60 ADD MLOAD DUP8 PUSH1 0x0 ADD MLOAD DUP9 PUSH1 0x20 ADD MLOAD PUSH2 0xFF7 DUP7 PUSH2 0x15A8 JUMP JUMPDEST PUSH1 0x40 MLOAD DUP6 PUSH4 0xFFFFFFFF AND PUSH1 0xE0 SHL DUP2 MSTORE PUSH1 0x4 ADD PUSH2 0x1015 SWAP4 SWAP3 SWAP2 SWAP1 PUSH2 0x24D6 JUMP JUMPDEST PUSH1 0x40 DUP1 MLOAD DUP1 DUP4 SUB DUP2 DUP6 DUP9 DUP1 EXTCODESIZE ISZERO DUP1 ISZERO PUSH2 0x102D JUMPI PUSH1 0x0 DUP1 REVERT JUMPDEST POP GAS CALL SWAP4 POP POP POP POP DUP1 ISZERO PUSH2 0x107C JUMPI POP PUSH1 0x40 DUP1 MLOAD PUSH1 0x1F RETURNDATASIZE SWAP1 DUP2 ADD PUSH32 0xFFFFFFFFFFFFFFFFFFFFFFFFFFFFFFFFFFFFFFFFFFFFFFFFFFFFFFFFFFFFFFE0 AND DUP3 ADD SWAP1 SWAP3 MSTORE PUSH2 0x1079 SWAP2 DUP2 ADD SWAP1 PUSH2 0x202B JUMP JUMPDEST PUSH1 0x1 JUMPDEST PUSH2 0x1085 JUMPI PUSH2 0x1141 JUMP JUMPDEST DUP7 MLOAD PUSH1 0x80 ADD MLOAD PUSH16 0xFFFFFFFFFFFFFFFFFFFFFFFFFFFFFFFF AND ISZERO PUSH2 0x111A JUMPI PUSH2 0x1117 PUSH2 0x10FE PUSH2 0x10F9 DUP5 PUSH16 0xFFFFFFFFFFFFFFFFFFFFFFFFFFFFFFFF AND DUP11 PUSH1 0x0 ADD MLOAD PUSH1 0x60 ADD MLOAD PUSH16 0xFFFFFFFFFFFFFFFFFFFFFFFFFFFFFFFF AND DUP12 PUSH1 0x0 ADD MLOAD PUSH1 0x80 ADD MLOAD PUSH16 0xFFFFFFFFFFFFFFFFFFFFFFFFFFFFFFFF AND PUSH2 0x15D4 JUMP JUMPDEST PUSH2 0x15A8 JUMP JUMPDEST PUSH16 0xFFFFFFFFFFFFFFFFFFFFFFFFFFFFFFFF DUP5 AND SWAP1 PUSH2 0x15F2 JUMP JUMPDEST SWAP2 POP JUMPDEST PUSH16 0xFFFFFFFFFFFFFFFFFFFFFFFFFFFFFFFF SWAP2 DUP3 AND DUP5 MSTORE AND PUSH1 0x20 DUP4 ADD MSTORE PUSH1 0x60 DUP4 ADD MLOAD PUSH1 0x40 DUP4 ADD MSTORE JUMPDEST POP SWAP4 SWAP3 POP POP POP JUMP JUMPDEST PUSH2 0x1151 PUSH2 0x18D9 JUMP JUMPDEST PUSH1 0x0 PUSH2 0x1198 PUSH2 0xE82 DUP6 DUP6 DUP9 PUSH1 0x0 ADD MLOAD PUSH1 0x60 ADD MLOAD PUSH16 0xFFFFFFFFFFFFFFFFFFFFFFFFFFFFFFFF AND DUP10 PUSH1 0x0 ADD MLOAD PUSH1 0x40 ADD MLOAD PUSH16 0xFFFFFFFFFFFFFFFFFFFFFFFFFFFFFFFF AND PUSH1 0x0 PUSH2 0x1512 JUMP JUMPDEST SWAP1 POP PUSH32 0x0 PUSH20 0xFFFFFFFFFFFFFFFFFFFFFFFFFFFFFFFFFFFFFFFF AND PUSH4 0xAA77476C DUP7 PUSH1 0x0 ADD MLOAD DUP8 PUSH1 0x20 ADD MLOAD PUSH2 0x11E9 DUP6 PUSH2 0x15A8 JUMP JUMPDEST PUSH1 0x40 MLOAD DUP5 PUSH4 0xFFFFFFFF AND PUSH1 0xE0 SHL DUP2 MSTORE PUSH1 0x4 ADD PUSH2 0x1207 SWAP4 SWAP3 SWAP2 SWAP1 PUSH2 0x2514 JUMP JUMPDEST PUSH1 0x40 DUP1 MLOAD DUP1 DUP4 SUB DUP2 PUSH1 0x0 DUP8 DUP1 EXTCODESIZE ISZERO DUP1 ISZERO PUSH2 0x1220 JUMPI PUSH1 0x0 DUP1 REVERT JUMPDEST POP GAS CALL SWAP3 POP POP POP DUP1 ISZERO PUSH2 0x126E JUMPI POP PUSH1 0x40 DUP1 MLOAD PUSH1 0x1F RETURNDATASIZE SWAP1 DUP2 ADD PUSH32 0xFFFFFFFFFFFFFFFFFFFFFFFFFFFFFFFFFFFFFFFFFFFFFFFFFFFFFFFFFFFFFFE0 AND DUP3 ADD SWAP1 SWAP3 MSTORE PUSH2 0x126B SWAP2 DUP2 ADD SWAP1 PUSH2 0x202B JUMP JUMPDEST PUSH1 0x1 JUMPDEST PUSH2 0x1277 JUMPI PUSH2 0x1141 JUMP JUMPDEST PUSH16 0xFFFFFFFFFFFFFFFFFFFFFFFFFFFFFFFF SWAP2 DUP3 AND DUP5 MSTORE AND PUSH1 0x20 DUP4 ADD MSTORE POP SWAP4 SWAP3 POP POP POP JUMP JUMPDEST PUSH1 0x0 DUP3 DUP3 ADD DUP4 DUP2 LT ISZERO PUSH2 0xB05 JUMPI PUSH2 0xB05 PUSH2 0x1C1 PUSH1 0x0 DUP7 DUP7 PUSH2 0x14F3 JUMP JUMPDEST PUSH1 0x0 DUP3 DUP3 GT ISZERO PUSH2 0x12D0 JUMPI PUSH2 0x12D0 PUSH2 0x1C1 PUSH1 0x2 DUP6 DUP6 PUSH2 0x14F3 JUMP JUMPDEST POP SWAP1 SUB SWAP1 JUMP JUMPDEST PUSH1 0x60 PUSH32 0xADC35CA636CD9F46B974D5BEC4DF8AF095D0AE177EC6043620AF588C03BDC616 DUP5 DUP5 DUP5 PUSH1 0x40 MLOAD PUSH1 0x24 ADD PUSH2 0x130E SWAP4 SWAP3 SWAP2 SWAP1 PUSH2 0x229D JUMP JUMPDEST PUSH1 0x40 DUP1 MLOAD PUSH32 0xFFFFFFFFFFFFFFFFFFFFFFFFFFFFFFFFFFFFFFFFFFFFFFFFFFFFFFFFFFFFFFE0 DUP2 DUP5 SUB ADD DUP2 MSTORE SWAP2 SWAP1 MSTORE PUSH1 0x20 DUP2 ADD DUP1 MLOAD PUSH28 0xFFFFFFFFFFFFFFFFFFFFFFFFFFFFFFFFFFFFFFFFFFFFFFFFFFFFFFFF AND PUSH32 0xFFFFFFFF00000000000000000000000000000000000000000000000000000000 SWAP1 SWAP4 AND SWAP3 SWAP1 SWAP3 OR SWAP1 SWAP2 MSTORE SWAP1 POP SWAP4 SWAP3 POP POP POP JUMP JUMPDEST PUSH1 0x60 PUSH32 0x498DF3AE522ACADBF67E6AA5FDE156A5B74336950CD271175E7336907DF120E3 DUP5 DUP5 DUP5 PUSH1 0x40 MLOAD PUSH1 0x24 ADD PUSH2 0x130E SWAP4 SWAP3 SWAP2 SWAP1 PUSH2 0x229D JUMP JUMPDEST PUSH1 0x60 PUSH32 0x5CEC653B364CCA3880AFA73CEFF506D0651D11D26ABBBE4A56460AA933B21B08 DUP4 DUP4 PUSH1 0x40 MLOAD PUSH1 0x24 ADD PUSH2 0x9A7 SWAP3 SWAP2 SWAP1 PUSH2 0x2250 JUMP JUMPDEST PUSH1 0x60 PUSH32 0xB5CF2CD09307D6C717473134BADBB9761C2C97D7565566C2A71EBA6CD6FC514D DUP4 DUP4 PUSH1 0x40 MLOAD PUSH1 0x24 ADD PUSH2 0x9A7 SWAP3 SWAP2 SWAP1 PUSH2 0x2250 JUMP JUMPDEST PUSH1 0x0 DUP2 DUP4 LT PUSH2 0xB87 JUMPI DUP2 PUSH2 0xB05 JUMP JUMPDEST PUSH1 0x60 PUSH4 0x95EA7B3 PUSH1 0xE0 SHL DUP4 DUP4 PUSH1 0x40 MLOAD PUSH1 0x24 ADD PUSH2 0x1464 SWAP3 SWAP2 SWAP1 PUSH2 0x2277 JUMP JUMPDEST PUSH1 0x40 DUP1 MLOAD PUSH32 0xFFFFFFFFFFFFFFFFFFFFFFFFFFFFFFFFFFFFFFFFFFFFFFFFFFFFFFFFFFFFFFE0 DUP2 DUP5 SUB ADD DUP2 MSTORE SWAP2 SWAP1 MSTORE PUSH1 0x20 DUP2 ADD DUP1 MLOAD PUSH28 0xFFFFFFFFFFFFFFFFFFFFFFFFFFFFFFFFFFFFFFFFFFFFFFFFFFFFFFFF AND PUSH32 0xFFFFFFFF00000000000000000000000000000000000000000000000000000000 SWAP1 SWAP4 AND SWAP3 SWAP1 SWAP3 OR SWAP1 SWAP2 MSTORE SWAP1 POP PUSH2 0x14ED DUP5 DUP3 PUSH2 0x1647 JUMP JUMPDEST POP POP POP POP JUMP JUMPDEST PUSH1 0x60 PUSH4 0xE946C1BB PUSH1 0xE0 SHL DUP5 DUP5 DUP5 PUSH1 0x40 MLOAD PUSH1 0x24 ADD PUSH2 0x130E SWAP4 SWAP3 SWAP2 SWAP1 PUSH2 0x2301 JUMP JUMPDEST PUSH1 0x0 DUP1 DUP7 MLOAD PUSH1 0x1 DUP2 GT ISZERO PUSH2 0x1522 JUMPI INVALID JUMPDEST EQ ISZERO PUSH2 0x155F JUMPI PUSH1 0x40 DUP6 ADD MLOAD PUSH1 0xE0 DUP8 ADD MLOAD PUSH2 0x153B SWAP2 PUSH2 0x12B7 JUMP JUMPDEST SWAP1 POP DUP2 ISZERO PUSH2 0x155A JUMPI PUSH2 0x1557 DUP2 PUSH2 0x1551 DUP7 DUP6 PUSH2 0x129B JUMP JUMPDEST DUP7 PUSH2 0x174D JUMP JUMPDEST SWAP1 POP JUMPDEST PUSH2 0x1587 JUMP JUMPDEST PUSH2 0x1584 PUSH2 0x157D DUP7 PUSH1 0x20 ADD MLOAD DUP9 PUSH1 0xE0 ADD MLOAD PUSH2 0x12B7 SWAP1 SWAP2 SWAP1 PUSH4 0xFFFFFFFF AND JUMP JUMPDEST DUP5 DUP7 PUSH2 0x174D JUMP JUMPDEST SWAP1 POP JUMPDEST PUSH2 0x159E PUSH2 0x1594 DUP3 DUP7 PUSH2 0x1438 JUMP JUMPDEST DUP7 PUSH1 0x80 ADD MLOAD PUSH2 0x1438 JUMP JUMPDEST SWAP7 SWAP6 POP POP POP POP POP POP JUMP JUMPDEST PUSH1 0x0 PUSH16 0xFFFFFFFFFFFFFFFFFFFFFFFFFFFFFFFF DUP3 GT ISZERO PUSH2 0x15D0 JUMPI PUSH2 0x15D0 PUSH2 0x1C1 PUSH1 0x3 DUP5 PUSH2 0x1771 JUMP JUMPDEST POP SWAP1 JUMP JUMPDEST PUSH1 0x0 PUSH2 0x15EA DUP4 PUSH2 0x15E4 DUP7 DUP6 PUSH2 0xC6A JUMP JUMPDEST SWAP1 PUSH2 0x178E JUMP JUMPDEST SWAP5 SWAP4 POP POP POP POP JUMP JUMPDEST PUSH1 0x0 DUP3 DUP3 ADD PUSH16 0xFFFFFFFFFFFFFFFFFFFFFFFFFFFFFFFF DUP1 DUP6 AND SWAP1 DUP3 AND LT ISZERO PUSH2 0xB05 JUMPI PUSH2 0xB05 PUSH2 0x1C1 PUSH1 0x0 DUP7 PUSH16 0xFFFFFFFFFFFFFFFFFFFFFFFFFFFFFFFF AND DUP7 PUSH16 0xFFFFFFFFFFFFFFFFFFFFFFFFFFFFFFFF AND PUSH2 0x14F3 JUMP JUMPDEST PUSH1 0x0 PUSH1 0x60 DUP4 PUSH20 0xFFFFFFFFFFFFFFFFFFFFFFFFFFFFFFFFFFFFFFFF AND DUP4 PUSH1 0x40 MLOAD PUSH2 0x1670 SWAP2 SWAP1 PUSH2 0x2210 JUMP JUMPDEST PUSH1 0x0 PUSH1 0x40 MLOAD DUP1 DUP4 SUB DUP2 PUSH1 0x0 DUP7 GAS CALL SWAP2 POP POP RETURNDATASIZE DUP1 PUSH1 0x0 DUP2 EQ PUSH2 0x16AD JUMPI PUSH1 0x40 MLOAD SWAP2 POP PUSH1 0x1F NOT PUSH1 0x3F RETURNDATASIZE ADD AND DUP3 ADD PUSH1 0x40 MSTORE RETURNDATASIZE DUP3 MSTORE RETURNDATASIZE PUSH1 0x0 PUSH1 0x20 DUP5 ADD RETURNDATACOPY PUSH2 0x16B2 JUMP JUMPDEST PUSH1 0x60 SWAP2 POP JUMPDEST POP SWAP2 POP SWAP2 POP DUP2 PUSH2 0x16C5 JUMPI PUSH2 0x16C5 DUP2 PUSH2 0xA2D JUMP JUMPDEST DUP1 MLOAD PUSH2 0x170C JUMPI DUP4 EXTCODESIZE DUP1 PUSH2 0x1704 JUMPI PUSH1 0x40 MLOAD PUSH32 0x8C379A000000000000000000000000000000000000000000000000000000000 DUP2 MSTORE PUSH1 0x4 ADD PUSH2 0x522 SWAP1 PUSH2 0x23A1 JUMP JUMPDEST POP POP POP PUSH2 0x1749 JUMP JUMPDEST PUSH1 0x20 DUP2 MLOAD LT PUSH2 0x1740 JUMPI PUSH1 0x0 PUSH2 0x1722 DUP3 PUSH1 0x0 PUSH2 0x17B8 JUMP JUMPDEST SWAP1 POP DUP1 PUSH1 0x1 EQ ISZERO PUSH2 0x1735 JUMPI POP POP POP PUSH2 0x1749 JUMP JUMPDEST PUSH2 0x173E DUP3 PUSH2 0xA2D JUMP JUMPDEST POP JUMPDEST PUSH2 0x14ED DUP2 PUSH2 0xA2D JUMP JUMPDEST POP POP JUMP JUMPDEST PUSH1 0x0 PUSH2 0x15EA DUP4 PUSH2 0x15E4 PUSH2 0x1761 DUP3 PUSH1 0x1 PUSH2 0x12B7 JUMP JUMPDEST PUSH2 0x176B DUP9 DUP8 PUSH2 0xC6A JUMP JUMPDEST SWAP1 PUSH2 0x129B JUMP JUMPDEST PUSH1 0x60 PUSH4 0xC996AF7B PUSH1 0xE0 SHL DUP4 DUP4 PUSH1 0x40 MLOAD PUSH1 0x24 ADD PUSH2 0x9A7 SWAP3 SWAP2 SWAP1 PUSH2 0x2322 JUMP JUMPDEST PUSH1 0x0 DUP2 PUSH2 0x17A4 JUMPI PUSH2 0x17A4 PUSH2 0x1C1 PUSH1 0x3 DUP6 DUP6 PUSH2 0x14F3 JUMP JUMPDEST PUSH1 0x0 DUP3 DUP5 DUP2 PUSH2 0x17AF JUMPI INVALID JUMPDEST DIV SWAP5 SWAP4 POP POP POP POP JUMP JUMPDEST PUSH1 0x0 PUSH2 0xB05 DUP4 DUP4 PUSH1 0x0 DUP2 PUSH1 0x20 ADD DUP4 MLOAD LT ISZERO PUSH2 0x17E0 JUMPI PUSH2 0x17E0 PUSH2 0x1C1 PUSH1 0x5 DUP6 MLOAD DUP6 PUSH1 0x20 ADD PUSH2 0x17E9 JUMP JUMPDEST POP ADD PUSH1 0x20 ADD MLOAD SWAP1 JUMP JUMPDEST PUSH1 0x60 PUSH4 0x28006595 PUSH1 0xE0 SHL DUP5 DUP5 DUP5 PUSH1 0x40 MLOAD PUSH1 0x24 ADD PUSH2 0x130E SWAP4 SWAP3 SWAP2 SWAP1 PUSH2 0x2339 JUMP JUMPDEST PUSH1 0x40 DUP1 MLOAD PUSH2 0x120 DUP2 ADD SWAP1 SWAP2 MSTORE DUP1 PUSH1 0x0 DUP2 MSTORE PUSH1 0x20 ADD PUSH1 0x0 PUSH20 0xFFFFFFFFFFFFFFFFFFFFFFFFFFFFFFFFFFFFFFFF AND DUP2 MSTORE PUSH1 0x20 ADD PUSH1 0x0 PUSH20 0xFFFFFFFFFFFFFFFFFFFFFFFFFFFFFFFFFFFFFFFF AND DUP2 MSTORE PUSH1 0x20 ADD PUSH1 0x60 DUP2 MSTORE PUSH1 0x20 ADD PUSH1 0x60 DUP2 MSTORE PUSH1 0x20 ADD PUSH1 0x60 DUP2 MSTORE PUSH1 0x20 ADD PUSH1 0x60 DUP2 MSTORE PUSH1 0x20 ADD PUSH1 0x0 DUP2 MSTORE PUSH1 0x20 ADD PUSH1 0x0 PUSH20 0xFFFFFFFFFFFFFFFFFFFFFFFFFFFFFFFFFFFFFFFF AND DUP2 MSTORE POP SWAP1 JUMP JUMPDEST PUSH1 0x40 MLOAD DUP1 PUSH1 0xE0 ADD PUSH1 0x40 MSTORE DUP1 PUSH1 0x0 DUP2 MSTORE PUSH1 0x20 ADD PUSH1 0x0 DUP2 MSTORE PUSH1 0x20 ADD PUSH1 0x0 DUP2 MSTORE PUSH1 0x20 ADD PUSH1 0x0 DUP2 MSTORE PUSH1 0x20 ADD PUSH1 0x0 DUP2 MSTORE PUSH1 0x20 ADD PUSH2 0x18CD PUSH2 0x18FA JUMP JUMPDEST DUP2 MSTORE PUSH1 0x20 ADD PUSH1 0x0 SWAP1 MSTORE SWAP1 JUMP JUMPDEST PUSH1 0x40 MLOAD DUP1 PUSH1 0x60 ADD PUSH1 0x40 MSTORE DUP1 PUSH1 0x0 DUP2 MSTORE PUSH1 0x20 ADD PUSH1 0x0 DUP2 MSTORE PUSH1 0x20 ADD PUSH1 0x0 DUP2 MSTORE POP SWAP1 JUMP JUMPDEST PUSH1 0x40 MLOAD DUP1 PUSH1 0x60 ADD PUSH1 0x40 MSTORE DUP1 PUSH1 0x3 SWAP1 PUSH1 0x20 DUP3 MUL DUP1 CALLDATASIZE DUP4 CALLDATACOPY POP SWAP2 SWAP3 SWAP2 POP POP JUMP JUMPDEST DUP1 CALLDATALOAD PUSH2 0xA27 DUP2 PUSH2 0x26CA JUMP JUMPDEST PUSH1 0x0 DUP3 PUSH1 0x1F DUP4 ADD SLT PUSH2 0x1933 JUMPI DUP1 DUP2 REVERT JUMPDEST DUP2 CALLDATALOAD PUSH2 0x1946 PUSH2 0x1941 DUP3 PUSH2 0x2671 JUMP JUMPDEST PUSH2 0x264A JUMP JUMPDEST DUP2 DUP2 MSTORE SWAP2 POP PUSH1 0x20 DUP1 DUP4 ADD SWAP1 DUP5 DUP2 ADD DUP2 DUP5 MUL DUP7 ADD DUP3 ADD DUP8 LT ISZERO PUSH2 0x1967 JUMPI PUSH1 0x0 DUP1 REVERT JUMPDEST PUSH1 0x0 DUP1 JUMPDEST DUP6 DUP2 LT ISZERO PUSH2 0x1993 JUMPI DUP3 CALLDATALOAD PUSH1 0x3 DUP2 LT PUSH2 0x1981 JUMPI DUP3 DUP4 REVERT JUMPDEST DUP6 MSTORE SWAP4 DUP4 ADD SWAP4 SWAP2 DUP4 ADD SWAP2 PUSH1 0x1 ADD PUSH2 0x196B JUMP JUMPDEST POP POP POP POP POP POP SWAP3 SWAP2 POP POP JUMP JUMPDEST PUSH1 0x0 DUP3 PUSH1 0x1F DUP4 ADD SLT PUSH2 0x19AF JUMPI DUP1 DUP2 REVERT JUMPDEST DUP2 CALLDATALOAD PUSH2 0x19BD PUSH2 0x1941 DUP3 PUSH2 0x2671 JUMP JUMPDEST DUP2 DUP2 MSTORE SWAP2 POP PUSH1 0x20 DUP1 DUP4 ADD SWAP1 DUP5 DUP2 ADD PUSH1 0x0 JUMPDEST DUP5 DUP2 LT ISZERO PUSH2 0x1A71 JUMPI DUP2 CALLDATALOAD DUP8 ADD PUSH1 0x80 DUP1 PUSH32 0xFFFFFFFFFFFFFFFFFFFFFFFFFFFFFFFFFFFFFFFFFFFFFFFFFFFFFFFFFFFFFFE0 DUP4 DUP13 SUB ADD SLT ISZERO PUSH2 0x1A0D JUMPI PUSH1 0x0 DUP1 REVERT JUMPDEST PUSH2 0x1A16 DUP2 PUSH2 0x264A JUMP JUMPDEST DUP3 DUP7 ADD CALLDATALOAD DUP2 MSTORE PUSH1 0x40 DUP1 DUP5 ADD CALLDATALOAD DUP3 DUP9 ADD MSTORE PUSH1 0x60 DUP1 DUP6 ADD CALLDATALOAD DUP3 DUP5 ADD MSTORE SWAP3 DUP5 ADD CALLDATALOAD SWAP3 PUSH8 0xFFFFFFFFFFFFFFFF DUP5 GT ISZERO PUSH2 0x1A4A JUMPI PUSH1 0x0 DUP1 REVERT JUMPDEST PUSH2 0x1A58 DUP14 DUP10 DUP7 DUP9 ADD ADD PUSH2 0x1C87 JUMP JUMPDEST SWAP1 DUP4 ADD MSTORE POP DUP7 MSTORE POP POP SWAP3 DUP3 ADD SWAP3 SWAP1 DUP3 ADD SWAP1 PUSH1 0x1 ADD PUSH2 0x19CE JUMP JUMPDEST POP POP POP POP POP SWAP3 SWAP2 POP POP JUMP JUMPDEST PUSH1 0x0 DUP3 PUSH1 0x1F DUP4 ADD SLT PUSH2 0x1A8C JUMPI DUP1 DUP2 REVERT JUMPDEST DUP2 CALLDATALOAD PUSH2 0x1A9A PUSH2 0x1941 DUP3 PUSH2 0x2671 JUMP JUMPDEST DUP2 DUP2 MSTORE SWAP2 POP PUSH1 0x20 DUP1 DUP4 ADD SWAP1 DUP5 DUP2 ADD PUSH2 0x220 DUP1 DUP6 MUL DUP8 ADD DUP4 ADD DUP9 LT ISZERO PUSH2 0x1ABE JUMPI PUSH1 0x0 DUP1 REVERT JUMPDEST PUSH1 0x0 DUP1 JUMPDEST DUP7 DUP2 LT ISZERO PUSH2 0x1B1D JUMPI DUP3 DUP5 DUP12 SUB SLT ISZERO PUSH2 0x1AD8 JUMPI DUP2 DUP3 REVERT JUMPDEST PUSH2 0x1AE2 PUSH1 0x60 PUSH2 0x264A JUMP JUMPDEST PUSH2 0x1AEC DUP12 DUP7 PUSH2 0x1D1D JUMP JUMPDEST DUP2 MSTORE PUSH2 0x1AFC DUP12 PUSH2 0x180 DUP8 ADD PUSH2 0x1E0A JUMP JUMPDEST DUP2 DUP8 ADD MSTORE PUSH2 0x200 DUP6 ADD CALLDATALOAD PUSH1 0x40 DUP3 ADD MSTORE DUP7 MSTORE SWAP5 DUP5 ADD SWAP5 SWAP3 DUP3 ADD SWAP3 PUSH1 0x1 ADD PUSH2 0x1AC2 JUMP JUMPDEST POP POP POP POP POP POP POP SWAP3 SWAP2 POP POP JUMP JUMPDEST PUSH1 0x0 DUP3 PUSH1 0x1F DUP4 ADD SLT PUSH2 0x1B3A JUMPI DUP1 DUP2 REVERT JUMPDEST DUP2 CALLDATALOAD PUSH2 0x1B48 PUSH2 0x1941 DUP3 PUSH2 0x2671 JUMP JUMPDEST DUP2 DUP2 MSTORE SWAP2 POP PUSH1 0x20 DUP1 DUP4 ADD SWAP1 DUP5 DUP2 ADD PUSH2 0x1E0 DUP1 DUP6 MUL DUP8 ADD DUP4 ADD DUP9 LT ISZERO PUSH2 0x1B6C JUMPI PUSH1 0x0 DUP1 REVERT JUMPDEST PUSH1 0x0 JUMPDEST DUP6 DUP2 LT ISZERO PUSH2 0x1993 JUMPI DUP3 DUP10 SUB DUP3 DUP2 SLT ISZERO PUSH2 0x1B87 JUMPI PUSH1 0x0 DUP1 REVERT JUMPDEST PUSH1 0x60 PUSH2 0x1B92 DUP2 PUSH2 0x264A JUMP JUMPDEST PUSH2 0x140 DUP1 DUP5 SLT ISZERO PUSH2 0x1BA2 JUMPI PUSH1 0x0 DUP1 REVERT JUMPDEST PUSH2 0x1BAB DUP2 PUSH2 0x264A JUMP JUMPDEST SWAP4 POP PUSH2 0x1BB7 DUP14 DUP9 PUSH2 0x1918 JUMP JUMPDEST DUP5 MSTORE PUSH2 0x1BC5 DUP14 DUP10 DUP10 ADD PUSH2 0x1918 JUMP JUMPDEST DUP9 DUP6 ADD MSTORE PUSH1 0x40 PUSH2 0x1BD7 DUP15 DUP3 DUP11 ADD PUSH2 0x1E6D JUMP JUMPDEST DUP2 DUP7 ADD MSTORE PUSH2 0x1BE7 DUP15 DUP6 DUP11 ADD PUSH2 0x1E6D JUMP JUMPDEST DUP5 DUP7 ADD MSTORE PUSH1 0x80 SWAP4 POP PUSH2 0x1BFB DUP15 DUP6 DUP11 ADD PUSH2 0x1918 JUMP JUMPDEST DUP5 DUP7 ADD MSTORE PUSH1 0xA0 SWAP4 POP PUSH2 0x1C0F DUP15 DUP6 DUP11 ADD PUSH2 0x1918 JUMP JUMPDEST DUP5 DUP7 ADD MSTORE PUSH1 0xC0 SWAP4 POP PUSH2 0x1C23 DUP15 DUP6 DUP11 ADD PUSH2 0x1918 JUMP JUMPDEST DUP5 DUP7 ADD MSTORE PUSH1 0xE0 SWAP4 POP DUP4 DUP9 ADD CALLDATALOAD DUP5 DUP7 ADD MSTORE PUSH2 0x100 SWAP4 POP PUSH2 0x1C44 DUP15 DUP6 DUP11 ADD PUSH2 0x1E78 JUMP JUMPDEST DUP5 DUP7 ADD MSTORE PUSH2 0x120 SWAP4 POP DUP4 DUP9 ADD CALLDATALOAD DUP5 DUP7 ADD MSTORE DUP5 DUP4 MSTORE PUSH2 0x1C64 DUP15 DUP4 DUP11 ADD PUSH2 0x1E0A JUMP JUMPDEST DUP4 DUP11 ADD MSTORE PUSH2 0x1C0 DUP9 ADD CALLDATALOAD SWAP1 DUP4 ADD MSTORE POP DUP8 MSTORE POP POP SWAP4 DUP4 ADD SWAP4 SWAP2 DUP2 ADD SWAP2 PUSH1 0x1 ADD PUSH2 0x1B6F JUMP JUMPDEST PUSH1 0x0 DUP3 PUSH1 0x1F DUP4 ADD SLT PUSH2 0x1C97 JUMPI DUP1 DUP2 REVERT JUMPDEST DUP2 CALLDATALOAD PUSH8 0xFFFFFFFFFFFFFFFF DUP2 GT ISZERO PUSH2 0x1CAD JUMPI DUP2 DUP3 REVERT JUMPDEST PUSH2 0x1CDE PUSH1 0x20 PUSH32 0xFFFFFFFFFFFFFFFFFFFFFFFFFFFFFFFFFFFFFFFFFFFFFFFFFFFFFFFFFFFFFFE0 PUSH1 0x1F DUP5 ADD AND ADD PUSH2 0x264A JUMP JUMPDEST SWAP2 POP DUP1 DUP3 MSTORE DUP4 PUSH1 0x20 DUP3 DUP6 ADD ADD GT ISZERO PUSH2 0x1CF5 JUMPI PUSH1 0x0 DUP1 REVERT JUMPDEST DUP1 PUSH1 0x20 DUP5 ADD PUSH1 0x20 DUP5 ADD CALLDATACOPY PUSH1 0x0 SWAP1 DUP3 ADD PUSH1 0x20 ADD MSTORE SWAP3 SWAP2 POP POP JUMP JUMPDEST DUP1 CALLDATALOAD PUSH1 0x2 DUP2 LT PUSH2 0xA27 JUMPI PUSH1 0x0 DUP1 REVERT JUMPDEST PUSH1 0x0 PUSH2 0x180 DUP1 DUP4 DUP6 SUB SLT ISZERO PUSH2 0x1D30 JUMPI DUP2 DUP3 REVERT JUMPDEST PUSH2 0x1D39 DUP2 PUSH2 0x264A JUMP JUMPDEST SWAP2 POP POP PUSH2 0x1D46 DUP4 DUP4 PUSH2 0x1918 JUMP JUMPDEST DUP2 MSTORE PUSH2 0x1D55 DUP4 PUSH1 0x20 DUP5 ADD PUSH2 0x1918 JUMP JUMPDEST PUSH1 0x20 DUP3 ADD MSTORE PUSH2 0x1D67 DUP4 PUSH1 0x40 DUP5 ADD PUSH2 0x1E6D JUMP JUMPDEST PUSH1 0x40 DUP3 ADD MSTORE PUSH2 0x1D79 DUP4 PUSH1 0x60 DUP5 ADD PUSH2 0x1E6D JUMP JUMPDEST PUSH1 0x60 DUP3 ADD MSTORE PUSH2 0x1D8B DUP4 PUSH1 0x80 DUP5 ADD PUSH2 0x1E6D JUMP JUMPDEST PUSH1 0x80 DUP3 ADD MSTORE PUSH2 0x1D9D DUP4 PUSH1 0xA0 DUP5 ADD PUSH2 0x1918 JUMP JUMPDEST PUSH1 0xA0 DUP3 ADD MSTORE PUSH2 0x1DAF DUP4 PUSH1 0xC0 DUP5 ADD PUSH2 0x1918 JUMP JUMPDEST PUSH1 0xC0 DUP3 ADD MSTORE PUSH2 0x1DC1 DUP4 PUSH1 0xE0 DUP5 ADD PUSH2 0x1918 JUMP JUMPDEST PUSH1 0xE0 DUP3 ADD MSTORE PUSH2 0x100 PUSH2 0x1DD5 DUP5 DUP3 DUP6 ADD PUSH2 0x1918 JUMP JUMPDEST SWAP1 DUP3 ADD MSTORE PUSH2 0x120 DUP3 DUP2 ADD CALLDATALOAD SWAP1 DUP3 ADD MSTORE PUSH2 0x140 PUSH2 0x1DF3 DUP5 DUP3 DUP6 ADD PUSH2 0x1E78 JUMP JUMPDEST DUP2 DUP4 ADD MSTORE POP PUSH2 0x160 DUP1 DUP4 ADD CALLDATALOAD DUP2 DUP4 ADD MSTORE POP SWAP3 SWAP2 POP POP JUMP JUMPDEST PUSH1 0x0 PUSH1 0x80 DUP3 DUP5 SUB SLT ISZERO PUSH2 0x1E1B JUMPI DUP1 DUP2 REVERT JUMPDEST PUSH2 0x1E25 PUSH1 0x80 PUSH2 0x264A JUMP JUMPDEST SWAP1 POP DUP2 CALLDATALOAD PUSH1 0x4 DUP2 LT PUSH2 0x1E36 JUMPI PUSH1 0x0 DUP1 REVERT JUMPDEST DUP2 MSTORE PUSH1 0x20 DUP3 ADD CALLDATALOAD PUSH1 0xFF DUP2 AND DUP2 EQ PUSH2 0x1E4C JUMPI PUSH1 0x0 DUP1 REVERT JUMPDEST DUP1 PUSH1 0x20 DUP4 ADD MSTORE POP PUSH1 0x40 DUP3 ADD CALLDATALOAD PUSH1 0x40 DUP3 ADD MSTORE PUSH1 0x60 DUP3 ADD CALLDATALOAD PUSH1 0x60 DUP3 ADD MSTORE SWAP3 SWAP2 POP POP JUMP JUMPDEST DUP1 CALLDATALOAD PUSH2 0xA27 DUP2 PUSH2 0x26EC JUMP JUMPDEST DUP1 CALLDATALOAD PUSH8 0xFFFFFFFFFFFFFFFF DUP2 AND DUP2 EQ PUSH2 0xA27 JUMPI PUSH1 0x0 DUP1 REVERT JUMPDEST PUSH1 0x0 PUSH1 0x20 DUP3 DUP5 SUB SLT ISZERO PUSH2 0x1EA1 JUMPI DUP1 DUP2 REVERT JUMPDEST DUP2 CALLDATALOAD PUSH2 0xB05 DUP2 PUSH2 0x26CA JUMP JUMPDEST PUSH1 0x0 PUSH1 0x20 DUP3 DUP5 SUB SLT ISZERO PUSH2 0x1EBD JUMPI DUP1 DUP2 REVERT JUMPDEST POP MLOAD SWAP2 SWAP1 POP JUMP JUMPDEST PUSH1 0x0 PUSH1 0x20 DUP3 DUP5 SUB SLT ISZERO PUSH2 0x1ED5 JUMPI DUP1 DUP2 REVERT JUMPDEST DUP2 CALLDATALOAD PUSH8 0xFFFFFFFFFFFFFFFF DUP2 GT ISZERO PUSH2 0x1EEB JUMPI DUP2 DUP3 REVERT JUMPDEST DUP3 ADD PUSH1 0x60 DUP2 DUP6 SUB SLT ISZERO PUSH2 0xB05 JUMPI DUP2 DUP3 REVERT JUMPDEST PUSH1 0x0 PUSH1 0x20 DUP3 DUP5 SUB SLT ISZERO PUSH2 0x1F0D JUMPI DUP1 DUP2 REVERT JUMPDEST DUP2 CALLDATALOAD PUSH8 0xFFFFFFFFFFFFFFFF DUP1 DUP3 GT ISZERO PUSH2 0x1F24 JUMPI DUP3 DUP4 REVERT JUMPDEST DUP2 DUP5 ADD SWAP2 POP PUSH2 0x120 DUP1 DUP4 DUP8 SUB SLT ISZERO PUSH2 0x1F3A JUMPI DUP4 DUP5 REVERT JUMPDEST PUSH2 0x1F43 DUP2 PUSH2 0x264A JUMP JUMPDEST SWAP1 POP PUSH2 0x1F4F DUP7 DUP5 PUSH2 0x1D0E JUMP JUMPDEST DUP2 MSTORE PUSH2 0x1F5E DUP7 PUSH1 0x20 DUP6 ADD PUSH2 0x1918 JUMP JUMPDEST PUSH1 0x20 DUP3 ADD MSTORE PUSH2 0x1F70 DUP7 PUSH1 0x40 DUP6 ADD PUSH2 0x1918 JUMP JUMPDEST PUSH1 0x40 DUP3 ADD MSTORE PUSH1 0x60 DUP4 ADD CALLDATALOAD DUP3 DUP2 GT ISZERO PUSH2 0x1F86 JUMPI DUP5 DUP6 REVERT JUMPDEST PUSH2 0x1F92 DUP8 DUP3 DUP7 ADD PUSH2 0x199F JUMP JUMPDEST PUSH1 0x60 DUP4 ADD MSTORE POP PUSH1 0x80 DUP4 ADD CALLDATALOAD DUP3 DUP2 GT ISZERO PUSH2 0x1FA9 JUMPI DUP5 DUP6 REVERT JUMPDEST PUSH2 0x1FB5 DUP8 DUP3 DUP7 ADD PUSH2 0x1A7C JUMP JUMPDEST PUSH1 0x80 DUP4 ADD MSTORE POP PUSH1 0xA0 DUP4 ADD CALLDATALOAD DUP3 DUP2 GT ISZERO PUSH2 0x1FCC JUMPI DUP5 DUP6 REVERT JUMPDEST PUSH2 0x1FD8 DUP8 DUP3 DUP7 ADD PUSH2 0x1B2A JUMP JUMPDEST PUSH1 0xA0 DUP4 ADD MSTORE POP PUSH1 0xC0 DUP4 ADD CALLDATALOAD DUP3 DUP2 GT ISZERO PUSH2 0x1FEF JUMPI DUP5 DUP6 REVERT JUMPDEST PUSH2 0x1FFB DUP8 DUP3 DUP7 ADD PUSH2 0x1923 JUMP JUMPDEST PUSH1 0xC0 DUP4 ADD MSTORE POP PUSH1 0xE0 DUP4 ADD CALLDATALOAD PUSH1 0xE0 DUP3 ADD MSTORE PUSH2 0x100 SWAP2 POP PUSH2 0x201C DUP7 DUP4 DUP6 ADD PUSH2 0x1918 JUMP JUMPDEST SWAP2 DUP2 ADD SWAP2 SWAP1 SWAP2 MSTORE SWAP5 SWAP4 POP POP POP POP JUMP JUMPDEST PUSH1 0x0 DUP1 PUSH1 0x40 DUP4 DUP6 SUB SLT ISZERO PUSH2 0x203D JUMPI DUP1 DUP2 REVERT JUMPDEST DUP3 MLOAD PUSH2 0x2048 DUP2 PUSH2 0x26EC JUMP JUMPDEST PUSH1 0x20 DUP5 ADD MLOAD SWAP1 SWAP3 POP PUSH2 0x2059 DUP2 PUSH2 0x26EC JUMP JUMPDEST DUP1 SWAP2 POP POP SWAP3 POP SWAP3 SWAP1 POP JUMP JUMPDEST PUSH1 0x0 PUSH1 0x20 DUP3 DUP5 SUB SLT ISZERO PUSH2 0x2075 JUMPI DUP1 DUP2 REVERT JUMPDEST DUP2 MLOAD PUSH4 0xFFFFFFFF DUP2 AND DUP2 EQ PUSH2 0xB05 JUMPI DUP2 DUP3 REVERT JUMPDEST PUSH20 0xFFFFFFFFFFFFFFFFFFFFFFFFFFFFFFFFFFFFFFFF AND SWAP1 MSTORE JUMP JUMPDEST PUSH1 0x0 DUP2 MLOAD DUP1 DUP5 MSTORE PUSH2 0x20BA DUP2 PUSH1 0x20 DUP7 ADD PUSH1 0x20 DUP7 ADD PUSH2 0x2691 JUMP JUMPDEST PUSH1 0x1F ADD PUSH32 0xFFFFFFFFFFFFFFFFFFFFFFFFFFFFFFFFFFFFFFFFFFFFFFFFFFFFFFFFFFFFFFE0 AND SWAP3 SWAP1 SWAP3 ADD PUSH1 0x20 ADD SWAP3 SWAP2 POP POP JUMP JUMPDEST PUSH2 0x20F7 DUP3 DUP3 MLOAD PUSH2 0x2088 JUMP JUMPDEST PUSH1 0x20 DUP2 ADD MLOAD PUSH2 0x2109 PUSH1 0x20 DUP5 ADD DUP3 PUSH2 0x2088 JUMP JUMPDEST POP PUSH1 0x40 DUP2 ADD MLOAD PUSH2 0x211C PUSH1 0x40 DUP5 ADD DUP3 PUSH2 0x21EC JUMP JUMPDEST POP PUSH1 0x60 DUP2 ADD MLOAD PUSH2 0x212F PUSH1 0x60 DUP5 ADD DUP3 PUSH2 0x21EC JUMP JUMPDEST POP PUSH1 0x80 DUP2 ADD MLOAD PUSH2 0x2142 PUSH1 0x80 DUP5 ADD DUP3 PUSH2 0x21EC JUMP JUMPDEST POP PUSH1 0xA0 DUP2 ADD MLOAD PUSH2 0x2155 PUSH1 0xA0 DUP5 ADD DUP3 PUSH2 0x2088 JUMP JUMPDEST POP PUSH1 0xC0 DUP2 ADD MLOAD PUSH2 0x2168 PUSH1 0xC0 DUP5 ADD DUP3 PUSH2 0x2088 JUMP JUMPDEST POP PUSH1 0xE0 DUP2 ADD MLOAD PUSH2 0x217B PUSH1 0xE0 DUP5 ADD DUP3 PUSH2 0x2088 JUMP JUMPDEST POP PUSH2 0x100 DUP1 DUP3 ADD MLOAD PUSH2 0x218F DUP3 DUP6 ADD DUP3 PUSH2 0x2088 JUMP JUMPDEST POP POP PUSH2 0x120 DUP2 DUP2 ADD MLOAD SWAP1 DUP4 ADD MSTORE PUSH2 0x140 DUP1 DUP3 ADD MLOAD PUSH2 0x21AF DUP3 DUP6 ADD DUP3 PUSH2 0x2202 JUMP JUMPDEST POP POP PUSH2 0x160 SWAP1 DUP2 ADD MLOAD SWAP2 ADD MSTORE JUMP JUMPDEST DUP1 MLOAD PUSH2 0x21C8 DUP2 PUSH2 0x26BD JUMP JUMPDEST DUP3 MSTORE PUSH1 0x20 DUP2 DUP2 ADD MLOAD PUSH1 0xFF AND SWAP1 DUP4 ADD MSTORE PUSH1 0x40 DUP1 DUP3 ADD MLOAD SWAP1 DUP4 ADD MSTORE PUSH1 0x60 SWAP1 DUP2 ADD MLOAD SWAP2 ADD MSTORE JUMP JUMPDEST PUSH16 0xFFFFFFFFFFFFFFFFFFFFFFFFFFFFFFFF AND SWAP1 MSTORE JUMP JUMPDEST PUSH8 0xFFFFFFFFFFFFFFFF AND SWAP1 MSTORE JUMP JUMPDEST PUSH1 0x0 DUP3 MLOAD PUSH2 0x2222 DUP2 DUP5 PUSH1 0x20 DUP8 ADD PUSH2 0x2691 JUMP JUMPDEST SWAP2 SWAP1 SWAP2 ADD SWAP3 SWAP2 POP POP JUMP JUMPDEST SWAP1 JUMP JUMPDEST PUSH20 0xFFFFFFFFFFFFFFFFFFFFFFFFFFFFFFFFFFFFFFFF SWAP2 SWAP1 SWAP2 AND DUP2 MSTORE PUSH1 0x20 ADD SWAP1 JUMP JUMPDEST PUSH20 0xFFFFFFFFFFFFFFFFFFFFFFFFFFFFFFFFFFFFFFFF SWAP3 DUP4 AND DUP2 MSTORE SWAP2 AND PUSH1 0x20 DUP3 ADD MSTORE PUSH1 0x40 ADD SWAP1 JUMP JUMPDEST PUSH20 0xFFFFFFFFFFFFFFFFFFFFFFFFFFFFFFFFFFFFFFFF SWAP3 SWAP1 SWAP3 AND DUP3 MSTORE PUSH1 0x20 DUP3 ADD MSTORE PUSH1 0x40 ADD SWAP1 JUMP JUMPDEST PUSH20 0xFFFFFFFFFFFFFFFFFFFFFFFFFFFFFFFFFFFFFFFF SWAP4 SWAP1 SWAP4 AND DUP4 MSTORE PUSH1 0x20 DUP4 ADD SWAP2 SWAP1 SWAP2 MSTORE PUSH1 0x40 DUP3 ADD MSTORE PUSH1 0x60 ADD SWAP1 JUMP JUMPDEST SWAP1 DUP2 MSTORE PUSH1 0x20 ADD SWAP1 JUMP JUMPDEST PUSH32 0xFFFFFFFF00000000000000000000000000000000000000000000000000000000 SWAP2 SWAP1 SWAP2 AND DUP2 MSTORE PUSH1 0x20 ADD SWAP1 JUMP JUMPDEST PUSH1 0x60 DUP2 ADD PUSH2 0x230E DUP6 PUSH2 0x26BD JUMP JUMPDEST SWAP4 DUP2 MSTORE PUSH1 0x20 DUP2 ADD SWAP3 SWAP1 SWAP3 MSTORE PUSH1 0x40 SWAP1 SWAP2 ADD MSTORE SWAP1 JUMP JUMPDEST PUSH1 0x40 DUP2 ADD PUSH2 0x232F DUP5 PUSH2 0x26BD JUMP JUMPDEST SWAP3 DUP2 MSTORE PUSH1 0x20 ADD MSTORE SWAP1 JUMP JUMPDEST PUSH1 0x60 DUP2 ADD PUSH1 0x8 DUP6 LT PUSH2 0x230E JUMPI INVALID JUMPDEST PUSH1 0x0 PUSH1 0x2 DUP5 LT PUSH2 0x2353 JUMPI INVALID JUMPDEST DUP4 DUP3 MSTORE PUSH1 0x40 PUSH1 0x20 DUP4 ADD MSTORE PUSH2 0x15EA PUSH1 0x40 DUP4 ADD DUP5 PUSH2 0x20A2 JUMP JUMPDEST PUSH1 0x20 DUP1 DUP3 MSTORE PUSH1 0x12 SWAP1 DUP3 ADD MSTORE PUSH32 0x494E56414C49445F4F524445525F545950450000000000000000000000000000 PUSH1 0x40 DUP3 ADD MSTORE PUSH1 0x60 ADD SWAP1 JUMP JUMPDEST PUSH1 0x20 DUP1 DUP3 MSTORE PUSH1 0x27 SWAP1 DUP3 ADD MSTORE PUSH32 0x696E76616C696420746F6B656E20616464726573732C20636F6E7461696E7320 PUSH1 0x40 DUP3 ADD MSTORE PUSH32 0x6E6F20636F646500000000000000000000000000000000000000000000000000 PUSH1 0x60 DUP3 ADD MSTORE PUSH1 0x80 ADD SWAP1 JUMP JUMPDEST PUSH1 0x20 DUP1 DUP3 MSTORE PUSH1 0x2A SWAP1 DUP3 ADD MSTORE PUSH32 0x46696C6C51756F74655472616E73666F726D65722F45544845525F5452414E53 PUSH1 0x40 DUP3 ADD MSTORE PUSH32 0x4645525F46414C49454400000000000000000000000000000000000000000000 PUSH1 0x60 DUP3 ADD MSTORE PUSH1 0x80 ADD SWAP1 JUMP JUMPDEST PUSH1 0x0 PUSH1 0x80 DUP3 MSTORE DUP6 MLOAD PUSH1 0x80 DUP4 ADD MSTORE PUSH1 0x20 DUP7 ADD MLOAD PUSH1 0xA0 DUP4 ADD MSTORE PUSH1 0x40 DUP7 ADD MLOAD PUSH1 0xC0 DUP4 ADD MSTORE PUSH1 0x60 DUP7 ADD MLOAD PUSH1 0x80 PUSH1 0xE0 DUP5 ADD MSTORE PUSH2 0x2496 PUSH2 0x100 DUP5 ADD DUP3 PUSH2 0x20A2 JUMP JUMPDEST PUSH20 0xFFFFFFFFFFFFFFFFFFFFFFFFFFFFFFFFFFFFFFFF SWAP7 DUP8 AND PUSH1 0x20 DUP6 ADD MSTORE SWAP5 SWAP1 SWAP6 AND PUSH1 0x40 DUP4 ADD MSTORE POP PUSH1 0x60 ADD MSTORE SWAP3 SWAP2 POP POP JUMP JUMPDEST PUSH2 0x180 DUP2 ADD PUSH2 0xA27 DUP3 DUP5 PUSH2 0x20EC JUMP JUMPDEST PUSH2 0x220 DUP2 ADD PUSH2 0x24E5 DUP3 DUP7 PUSH2 0x20EC JUMP JUMPDEST PUSH2 0x24F3 PUSH2 0x180 DUP4 ADD DUP6 PUSH2 0x21BD JUMP JUMPDEST PUSH16 0xFFFFFFFFFFFFFFFFFFFFFFFFFFFFFFFF DUP4 AND PUSH2 0x200 DUP4 ADD MSTORE SWAP5 SWAP4 POP POP POP POP JUMP JUMPDEST PUSH1 0x0 PUSH2 0x1E0 DUP3 ADD SWAP1 POP PUSH2 0x2528 DUP3 DUP7 MLOAD PUSH2 0x2088 JUMP JUMPDEST PUSH1 0x20 DUP6 ADD MLOAD PUSH2 0x253A PUSH1 0x20 DUP5 ADD DUP3 PUSH2 0x2088 JUMP JUMPDEST POP PUSH1 0x40 DUP6 ADD MLOAD PUSH2 0x254D PUSH1 0x40 DUP5 ADD DUP3 PUSH2 0x21EC JUMP JUMPDEST POP PUSH1 0x60 DUP6 ADD MLOAD PUSH2 0x2560 PUSH1 0x60 DUP5 ADD DUP3 PUSH2 0x21EC JUMP JUMPDEST POP PUSH1 0x80 DUP6 ADD MLOAD PUSH2 0x2573 PUSH1 0x80 DUP5 ADD DUP3 PUSH2 0x2088 JUMP JUMPDEST POP PUSH1 0xA0 DUP6 ADD MLOAD PUSH2 0x2586 PUSH1 0xA0 DUP5 ADD DUP3 PUSH2 0x2088 JUMP JUMPDEST POP PUSH1 0xC0 DUP6 ADD MLOAD PUSH2 0x2599 PUSH1 0xC0 DUP5 ADD DUP3 PUSH2 0x2088 JUMP JUMPDEST POP PUSH1 0xE0 DUP6 ADD MLOAD PUSH1 0xE0 DUP4 ADD MSTORE PUSH2 0x100 DUP1 DUP7 ADD MLOAD PUSH2 0x25B7 DUP3 DUP6 ADD DUP3 PUSH2 0x2202 JUMP JUMPDEST POP POP PUSH2 0x120 DUP6 DUP2 ADD MLOAD SWAP1 DUP4 ADD MSTORE PUSH2 0x25D2 PUSH2 0x140 DUP4 ADD DUP6 PUSH2 0x21BD JUMP JUMPDEST PUSH2 0x15EA PUSH2 0x1C0 DUP4 ADD DUP5 PUSH2 0x21EC JUMP JUMPDEST PUSH1 0x0 DUP1 DUP4 CALLDATALOAD PUSH32 0xFFFFFFFFFFFFFFFFFFFFFFFFFFFFFFFFFFFFFFFFFFFFFFFFFFFFFFFFFFFFFFE1 DUP5 CALLDATASIZE SUB ADD DUP2 SLT PUSH2 0x2614 JUMPI DUP3 DUP4 REVERT JUMPDEST DUP4 ADD DUP1 CALLDATALOAD SWAP2 POP PUSH8 0xFFFFFFFFFFFFFFFF DUP3 GT ISZERO PUSH2 0x262E JUMPI DUP3 DUP4 REVERT JUMPDEST PUSH1 0x20 ADD SWAP2 POP CALLDATASIZE DUP2 SWAP1 SUB DUP3 SGT ISZERO PUSH2 0x2643 JUMPI PUSH1 0x0 DUP1 REVERT JUMPDEST SWAP3 POP SWAP3 SWAP1 POP JUMP JUMPDEST PUSH1 0x40 MLOAD DUP2 DUP2 ADD PUSH8 0xFFFFFFFFFFFFFFFF DUP2 GT DUP3 DUP3 LT OR ISZERO PUSH2 0x2669 JUMPI PUSH1 0x0 DUP1 REVERT JUMPDEST PUSH1 0x40 MSTORE SWAP2 SWAP1 POP JUMP JUMPDEST PUSH1 0x0 PUSH8 0xFFFFFFFFFFFFFFFF DUP3 GT ISZERO PUSH2 0x2687 JUMPI DUP1 DUP2 REVERT JUMPDEST POP PUSH1 0x20 SWAP1 DUP2 MUL ADD SWAP1 JUMP JUMPDEST PUSH1 0x0 JUMPDEST DUP4 DUP2 LT ISZERO PUSH2 0x26AC JUMPI DUP2 DUP2 ADD MLOAD DUP4 DUP3 ADD MSTORE PUSH1 0x20 ADD PUSH2 0x2694 JUMP JUMPDEST DUP4 DUP2 GT ISZERO PUSH2 0x14ED JUMPI POP POP PUSH1 0x0 SWAP2 ADD MSTORE JUMP JUMPDEST PUSH1 0x4 DUP2 LT PUSH2 0x26C7 JUMPI INVALID JUMPDEST POP JUMP JUMPDEST PUSH20 0xFFFFFFFFFFFFFFFFFFFFFFFFFFFFFFFFFFFFFFFF DUP2 AND DUP2 EQ PUSH2 0x26C7 JUMPI PUSH1 0x0 DUP1 REVERT JUMPDEST PUSH16 0xFFFFFFFFFFFFFFFFFFFFFFFFFFFFFFFF DUP2 AND DUP2 EQ PUSH2 0x26C7 JUMPI PUSH1 0x0 DUP1 REVERT INVALID LOG2 PUSH5 0x6970667358 0x22 SLT KECCAK256 BLOCKHASH DUP14 0xDA PUSH22 0x9782F7CE37502B5CED3C68AFBC016F2DF95B890AD24D 0x2A SELFDESTRUCT 0xB1 DUP10 BALANCE RETURNDATACOPY PUSH5 0x736F6C6343 STOP MOD 0xC STOP CALLER "
            },
            "methodIdentifiers": {
                "bridgeAdapter()": "be7dc09b",
                "deployer()": "d5f39488",
                "die(address)": "c9353cb5",
                "transform((address,address,bytes))": "832b24bb",
                "zeroEx()": "52ab413b"
            }
        }
    },
    "sourceTreeHashHex": "0x731163606ca8a623fd279435fa34d1ca25f3ba6bb27fb7f6b62fe8a7ad35f76d",
    "compiler": {
        "name": "solc",
        "version": "0.6.12+commit.27d51765",
        "settings": {
            "remappings": [
                "@0x/contracts-utils=/home/runner/work/protocol/protocol/node_modules/@0x/contracts-utils",
                "@0x/contracts-erc20=/home/runner/work/protocol/protocol/contracts/zero-ex/node_modules/@0x/contracts-erc20"
            ],
            "optimizer": {
                "enabled": true,
                "runs": 1000000,
                "details": {
                    "yul": true,
                    "deduplicate": true,
                    "cse": true,
                    "constantOptimizer": true
                }
            },
            "outputSelection": {
                "*": {
                    "*": [
                        "abi",
                        "devdoc",
                        "evm.bytecode.object",
                        "evm.bytecode.sourceMap",
                        "evm.deployedBytecode.object",
                        "evm.deployedBytecode.sourceMap",
                        "evm.methodIdentifiers"
                    ]
                }
            },
            "evmVersion": "istanbul"
        }
    },
    "chains": {}
}