{
    "schemaVersion": "2.0.0",
    "contractName": "MetaTransactionsFeature",
    "compilerOutput": {
        "abi": [
            {
                "inputs": [
                    {
                        "internalType": "address",
                        "name": "zeroExAddress",
                        "type": "address"
                    }
                ],
                "stateMutability": "nonpayable",
                "type": "constructor"
            },
            {
                "anonymous": false,
                "inputs": [
                    {
                        "indexed": false,
                        "internalType": "bytes32",
                        "name": "hash",
                        "type": "bytes32"
                    },
                    {
                        "indexed": true,
                        "internalType": "bytes4",
                        "name": "selector",
                        "type": "bytes4"
                    },
                    {
                        "indexed": false,
                        "internalType": "address",
                        "name": "signer",
                        "type": "address"
                    },
                    {
                        "indexed": false,
                        "internalType": "address",
                        "name": "sender",
                        "type": "address"
                    }
                ],
                "name": "MetaTransactionExecuted",
                "type": "event"
            },
            {
                "inputs": [],
                "name": "EIP712_DOMAIN_SEPARATOR",
                "outputs": [
                    {
                        "internalType": "bytes32",
                        "name": "",
                        "type": "bytes32"
                    }
                ],
                "stateMutability": "view",
                "type": "function"
            },
            {
                "inputs": [],
                "name": "FEATURE_NAME",
                "outputs": [
                    {
                        "internalType": "string",
                        "name": "",
                        "type": "string"
                    }
                ],
                "stateMutability": "view",
                "type": "function"
            },
            {
                "inputs": [],
                "name": "FEATURE_VERSION",
                "outputs": [
                    {
                        "internalType": "uint256",
                        "name": "",
                        "type": "uint256"
                    }
                ],
                "stateMutability": "view",
                "type": "function"
            },
            {
                "inputs": [],
                "name": "MTX_EIP712_TYPEHASH",
                "outputs": [
                    {
                        "internalType": "bytes32",
                        "name": "",
                        "type": "bytes32"
                    }
                ],
                "stateMutability": "view",
                "type": "function"
            },
            {
                "inputs": [
                    {
                        "components": [
                            {
                                "internalType": "address payable",
                                "name": "signer",
                                "type": "address"
                            },
                            {
                                "internalType": "address",
                                "name": "sender",
                                "type": "address"
                            },
                            {
                                "internalType": "uint256",
                                "name": "minGasPrice",
                                "type": "uint256"
                            },
                            {
                                "internalType": "uint256",
                                "name": "maxGasPrice",
                                "type": "uint256"
                            },
                            {
                                "internalType": "uint256",
                                "name": "expirationTimeSeconds",
                                "type": "uint256"
                            },
                            {
                                "internalType": "uint256",
                                "name": "salt",
                                "type": "uint256"
                            },
                            {
                                "internalType": "bytes",
                                "name": "callData",
                                "type": "bytes"
                            },
                            {
                                "internalType": "uint256",
                                "name": "value",
                                "type": "uint256"
                            },
                            {
                                "internalType": "contract IERC20TokenV06",
                                "name": "feeToken",
                                "type": "address"
                            },
                            {
                                "internalType": "uint256",
                                "name": "feeAmount",
                                "type": "uint256"
                            }
                        ],
                        "internalType": "struct IMetaTransactionsFeature.MetaTransactionData[]",
                        "name": "mtxs",
                        "type": "tuple[]"
                    },
                    {
                        "components": [
                            {
                                "internalType": "enum LibSignature.SignatureType",
                                "name": "signatureType",
                                "type": "uint8"
                            },
                            {
                                "internalType": "uint8",
                                "name": "v",
                                "type": "uint8"
                            },
                            {
                                "internalType": "bytes32",
                                "name": "r",
                                "type": "bytes32"
                            },
                            {
                                "internalType": "bytes32",
                                "name": "s",
                                "type": "bytes32"
                            }
                        ],
                        "internalType": "struct LibSignature.Signature[]",
                        "name": "signatures",
                        "type": "tuple[]"
                    }
                ],
                "name": "batchExecuteMetaTransactions",
                "outputs": [
                    {
                        "internalType": "bytes[]",
                        "name": "returnResults",
                        "type": "bytes[]"
                    }
                ],
                "stateMutability": "payable",
                "type": "function"
            },
            {
                "inputs": [
                    {
                        "components": [
                            {
                                "internalType": "address payable",
                                "name": "signer",
                                "type": "address"
                            },
                            {
                                "internalType": "address",
                                "name": "sender",
                                "type": "address"
                            },
                            {
                                "internalType": "uint256",
                                "name": "minGasPrice",
                                "type": "uint256"
                            },
                            {
                                "internalType": "uint256",
                                "name": "maxGasPrice",
                                "type": "uint256"
                            },
                            {
                                "internalType": "uint256",
                                "name": "expirationTimeSeconds",
                                "type": "uint256"
                            },
                            {
                                "internalType": "uint256",
                                "name": "salt",
                                "type": "uint256"
                            },
                            {
                                "internalType": "bytes",
                                "name": "callData",
                                "type": "bytes"
                            },
                            {
                                "internalType": "uint256",
                                "name": "value",
                                "type": "uint256"
                            },
                            {
                                "internalType": "contract IERC20TokenV06",
                                "name": "feeToken",
                                "type": "address"
                            },
                            {
                                "internalType": "uint256",
                                "name": "feeAmount",
                                "type": "uint256"
                            }
                        ],
                        "internalType": "struct IMetaTransactionsFeature.MetaTransactionData",
                        "name": "mtx",
                        "type": "tuple"
                    },
                    {
                        "components": [
                            {
                                "internalType": "enum LibSignature.SignatureType",
                                "name": "signatureType",
                                "type": "uint8"
                            },
                            {
                                "internalType": "uint8",
                                "name": "v",
                                "type": "uint8"
                            },
                            {
                                "internalType": "bytes32",
                                "name": "r",
                                "type": "bytes32"
                            },
                            {
                                "internalType": "bytes32",
                                "name": "s",
                                "type": "bytes32"
                            }
                        ],
                        "internalType": "struct LibSignature.Signature",
                        "name": "signature",
                        "type": "tuple"
                    }
                ],
                "name": "executeMetaTransaction",
                "outputs": [
                    {
                        "internalType": "bytes",
                        "name": "returnResult",
                        "type": "bytes"
                    }
                ],
                "stateMutability": "payable",
                "type": "function"
            },
            {
                "inputs": [
                    {
                        "components": [
                            {
                                "internalType": "address payable",
                                "name": "signer",
                                "type": "address"
                            },
                            {
                                "internalType": "address",
                                "name": "sender",
                                "type": "address"
                            },
                            {
                                "internalType": "uint256",
                                "name": "minGasPrice",
                                "type": "uint256"
                            },
                            {
                                "internalType": "uint256",
                                "name": "maxGasPrice",
                                "type": "uint256"
                            },
                            {
                                "internalType": "uint256",
                                "name": "expirationTimeSeconds",
                                "type": "uint256"
                            },
                            {
                                "internalType": "uint256",
                                "name": "salt",
                                "type": "uint256"
                            },
                            {
                                "internalType": "bytes",
                                "name": "callData",
                                "type": "bytes"
                            },
                            {
                                "internalType": "uint256",
                                "name": "value",
                                "type": "uint256"
                            },
                            {
                                "internalType": "contract IERC20TokenV06",
                                "name": "feeToken",
                                "type": "address"
                            },
                            {
                                "internalType": "uint256",
                                "name": "feeAmount",
                                "type": "uint256"
                            }
                        ],
                        "internalType": "struct IMetaTransactionsFeature.MetaTransactionData",
                        "name": "mtx",
                        "type": "tuple"
                    }
                ],
                "name": "getMetaTransactionExecutedBlock",
                "outputs": [
                    {
                        "internalType": "uint256",
                        "name": "blockNumber",
                        "type": "uint256"
                    }
                ],
                "stateMutability": "view",
                "type": "function"
            },
            {
                "inputs": [
                    {
                        "components": [
                            {
                                "internalType": "address payable",
                                "name": "signer",
                                "type": "address"
                            },
                            {
                                "internalType": "address",
                                "name": "sender",
                                "type": "address"
                            },
                            {
                                "internalType": "uint256",
                                "name": "minGasPrice",
                                "type": "uint256"
                            },
                            {
                                "internalType": "uint256",
                                "name": "maxGasPrice",
                                "type": "uint256"
                            },
                            {
                                "internalType": "uint256",
                                "name": "expirationTimeSeconds",
                                "type": "uint256"
                            },
                            {
                                "internalType": "uint256",
                                "name": "salt",
                                "type": "uint256"
                            },
                            {
                                "internalType": "bytes",
                                "name": "callData",
                                "type": "bytes"
                            },
                            {
                                "internalType": "uint256",
                                "name": "value",
                                "type": "uint256"
                            },
                            {
                                "internalType": "contract IERC20TokenV06",
                                "name": "feeToken",
                                "type": "address"
                            },
                            {
                                "internalType": "uint256",
                                "name": "feeAmount",
                                "type": "uint256"
                            }
                        ],
                        "internalType": "struct IMetaTransactionsFeature.MetaTransactionData",
                        "name": "mtx",
                        "type": "tuple"
                    }
                ],
                "name": "getMetaTransactionHash",
                "outputs": [
                    {
                        "internalType": "bytes32",
                        "name": "mtxHash",
                        "type": "bytes32"
                    }
                ],
                "stateMutability": "view",
                "type": "function"
            },
            {
                "inputs": [
                    {
                        "internalType": "bytes32",
                        "name": "mtxHash",
                        "type": "bytes32"
                    }
                ],
                "name": "getMetaTransactionHashExecutedBlock",
                "outputs": [
                    {
                        "internalType": "uint256",
                        "name": "blockNumber",
                        "type": "uint256"
                    }
                ],
                "stateMutability": "view",
                "type": "function"
            },
            {
                "inputs": [],
                "name": "migrate",
                "outputs": [
                    {
                        "internalType": "bytes4",
                        "name": "success",
                        "type": "bytes4"
                    }
                ],
                "stateMutability": "nonpayable",
                "type": "function"
            }
        ],
        "devdoc": {
            "details": "MetaTransactions feature.",
            "kind": "dev",
            "methods": {
                "batchExecuteMetaTransactions((address,address,uint256,uint256,uint256,uint256,bytes,uint256,address,uint256)[],(uint8,uint8,bytes32,bytes32)[])": {
                    "details": "Execute multiple meta-transactions.",
                    "params": {
                        "mtxs": "The meta-transactions.",
                        "signatures": "The signature by each respective `mtx.signer`."
                    },
                    "returns": {
                        "returnResults": "The ABI-encoded results of the underlying calls."
                    }
                },
                "executeMetaTransaction((address,address,uint256,uint256,uint256,uint256,bytes,uint256,address,uint256),(uint8,uint8,bytes32,bytes32))": {
                    "details": "Execute a single meta-transaction.",
                    "params": {
                        "mtx": "The meta-transaction.",
                        "signature": "The signature by `mtx.signer`."
                    },
                    "returns": {
                        "returnResult": "The ABI-encoded result of the underlying call."
                    }
                },
                "getMetaTransactionExecutedBlock((address,address,uint256,uint256,uint256,uint256,bytes,uint256,address,uint256))": {
                    "details": "Get the block at which a meta-transaction has been executed.",
                    "params": {
                        "mtx": "The meta-transaction."
                    },
                    "returns": {
                        "blockNumber": "The block height when the meta-transactioin was executed."
                    }
                },
                "getMetaTransactionHash((address,address,uint256,uint256,uint256,uint256,bytes,uint256,address,uint256))": {
                    "details": "Get the EIP712 hash of a meta-transaction.",
                    "params": {
                        "mtx": "The meta-transaction."
                    },
                    "returns": {
                        "mtxHash": "The EIP712 hash of `mtx`."
                    }
                },
                "getMetaTransactionHashExecutedBlock(bytes32)": {
                    "details": "Get the block at which a meta-transaction hash has been executed.",
                    "params": {
                        "mtxHash": "The meta-transaction hash."
                    },
                    "returns": {
                        "blockNumber": "The block height when the meta-transactioin was executed."
                    }
                },
                "migrate()": {
                    "details": "Initialize and register this feature.      Should be delegatecalled by `Migrate.migrate()`.",
                    "returns": {
                        "success": "`LibMigrate.SUCCESS` on success."
                    }
                }
            },
            "stateVariables": {
                "FEATURE_NAME": {
                    "details": "Name of this feature."
                },
                "FEATURE_VERSION": {
                    "details": "Version of this feature."
                },
                "MTX_EIP712_TYPEHASH": {
                    "details": "EIP712 typehash of the `MetaTransactionData` struct."
                }
            },
            "version": 1
        },
        "evm": {
            "bytecode": {
                "linkReferences": {},
                "object": "0x6101006040526200001560016002600062000117565b60c0527fe866282978e74dc892efa3621df30a058ca4d374a338824c0b89f1dfdcb0ea0460e0523480156200004957600080fd5b5060405162002da738038062002da78339810160408190526200006c9162000149565b3060601b60805260405181904690620000f2907f8b73c3c69bb8fe3d512ecc4cf759cc79239f7b179b0ffacaa9a75d522b39400f907f9e5dae0addaf20578aeb5d70341d092b53b4e14480ac5726438fd436df7ba427907f06c015bd22b4c69690933c1058878ebdfef31f9aaae40bbe86d8a09fe1b2972c908590879060200162000179565b60408051601f19818403018152919052805160209091012060a05250620001a5915050565b6bffffffff0000000000000000604084901b1667ffffffff00000000602084901b161763ffffffff8216179392505050565b6000602082840312156200015b578081fd5b81516001600160a01b038116811462000172578182fd5b9392505050565b9485526020850193909352604084019190915260608301526001600160a01b0316608082015260a00190565b60805160601c60a05160c05160e051612bbf620001e86000398061046552806106705250806101e45250806106945280610a9c525080610a3b5250612bbf6000f3fe6080604052600436106100b15760003560e01c80638fd3ab8011610069578063c5579ec81161004e578063c5579ec814610198578063d036092d146101b8578063dab400f3146101cd576100b1565b80638fd3ab8014610156578063ae55049714610178576100b1565b80633fb2da381161009a5780633fb2da38146101015780636ae4b4f71461012157806372d17d0314610136576100b1565b8063031b905c146100b65780633d61ed3e146100e1575b600080fd5b3480156100c257600080fd5b506100cb6101e2565b6040516100d891906124e6565b60405180910390f35b6100f46100ef3660046121ab565b610206565b6040516100d891906126e0565b34801561010d57600080fd5b506100cb61011c366004612170565b610300565b34801561012d57600080fd5b506100f4610316565b34801561014257600080fd5b506100cb610151366004611f93565b61034f565b34801561016257600080fd5b5061016b61036a565b6040516100d89190612639565b34801561018457600080fd5b506100cb610193366004612170565b61045e565b6101ab6101a6366004611ee2565b6104f4565b6040516100d89190612468565b3480156101c457600080fd5b506100cb61066e565b3480156101d957600080fd5b506100cb610692565b7f000000000000000000000000000000000000000000000000000000000000000081565b6060600160006102146106b6565b8054909150828116156102765761027661027161026b600080368080601f01602080910402602001604051908101604052809392919081815260200183838082843760009201919091525092939250506106c99050565b85610715565b6107d0565b82178155610282611911565b338152604081018690526102958661045e565b6020820152606081018590526102aa816107d8565b93505060006102b934476109e0565b905080156102f057604051339082156108fc029083906000818181858888f193505050501580156102ee573d6000803e3d6000fd5b505b5080549119909116905592915050565b600061030e6101518361045e565b90505b919050565b6040518060400160405280601081526020017f4d6574615472616e73616374696f6e730000000000000000000000000000000081525081565b60006103596109f8565b600092835260205250604090205490565b60006103957f3d61ed3e00000000000000000000000000000000000000000000000000000000610a05565b6103be7fc5579ec800000000000000000000000000000000000000000000000000000000610a05565b6103e77f3fb2da3800000000000000000000000000000000000000000000000000000000610a05565b6104107f72d17d0300000000000000000000000000000000000000000000000000000000610a05565b6104397fae55049700000000000000000000000000000000000000000000000000000000610a05565b507f2c64c5ef0000000000000000000000000000000000000000000000000000000090565b600061030e7f0000000000000000000000000000000000000000000000000000000000000000836000015184602001518560400151866060015187608001518860a001518960c00151805190602001208a60e001518b61010001518c61012001516040516020016104d99b9a9998979695949392919061251b565b60405160208183030381529060405280519060200120610a98565b6060600160006105026106b6565b8054909150828116156105595761055961027161026b600080368080601f01602080910402602001604051908101604052809392919081815260200183838082843760009201919091525092939250506106c99050565b8217815583518551146105755761057561027186518651610aea565b845167ffffffffffffffff8111801561058d57600080fd5b506040519080825280602002602001820160405280156105c157816020015b60608152602001906001900390816105ac5790505b50925060005b8551811015610661576105d8611911565b33815286518790839081106105e957fe5b6020026020010151816040018190525061061587838151811061060857fe5b602002602001015161045e565b6020820152855186908390811061062857fe5b60200260200101518160600181905250610641816107d8565b85838151811061064d57fe5b6020908102919091010152506001016105c7565b5060006102b934476109e0565b7f000000000000000000000000000000000000000000000000000000000000000081565b7f000000000000000000000000000000000000000000000000000000000000000081565b6000806106c36006610b20565b92915050565b600081600401835110156106ea576106ea6102716003855185600401610b3b565b5001602001517fffffffff000000000000000000000000000000000000000000000000000000001690565b60607fc7a7103e21e41a5c3158b3028d34cb9bb9593b10b1892f49d7187efa71219d4e838360405160240161074b9291906126ae565b604080517fffffffffffffffffffffffffffffffffffffffffffffffffffffffffffffffe08184030181529190526020810180517bffffffffffffffffffffffffffffffffffffffffffffffffffffffff167fffffffff0000000000000000000000000000000000000000000000000000000090931692909217909152905092915050565b805160208201fd5b60606107e382610be0565b436107ec6109f8565b60208085015160009081529190526040908190209190915582015161012001511561083157604082015161010081015181518451610120909301516108319390610dc1565b604082015160c001516108459060006106c9565b7fffffffff0000000000000000000000000000000000000000000000000000000016608083018190527f415565b00000000000000000000000000000000000000000000000000000000014156108a55761089e82610ec9565b9050610968565b60808201517fffffffff00000000000000000000000000000000000000000000000000000000167ff6274f660000000000000000000000000000000000000000000000000000000014156108fc5761089e826110fe565b60808201517fffffffff00000000000000000000000000000000000000000000000000000000167faa77476c0000000000000000000000000000000000000000000000000000000014156109535761089e82611222565b610968610271836020015184608001516112b5565b81608001517bffffffffffffffffffffffffffffffffffffffffffffffffffffffff19167f7f4fe3ff8ae440e1570c558da08440b26f89fb1c1f2910cd91ca6452955f121a83602001518460400151600001518560400151602001516040516109d3939291906124ef565b60405180910390a2919050565b60008183106109ef57816109f1565b825b9392505050565b6000806106c36005610b20565b6040517f6eb224cb0000000000000000000000000000000000000000000000000000000081523090636eb224cb90610a639084907f000000000000000000000000000000000000000000000000000000000000000090600401612666565b600060405180830381600087803b158015610a7d57600080fd5b505af1158015610a91573d6000803e3d6000fd5b5050505050565b60007f000000000000000000000000000000000000000000000000000000000000000082604051602001610acd929190612432565b604051602081830303815290604052805190602001209050919050565b60607f52974c3a86e985173f72e2fb84ba2bfca8fb3b7c5031eb8077ebd59458abf2a4838360405160240161074b9291906125dc565b60006080826008811115610b3057fe5b600101901b92915050565b6060632800659560e01b848484604051602401610b5a939291906126f3565b604080517fffffffffffffffffffffffffffffffffffffffffffffffffffffffffffffffe08184030181529190526020810180517bffffffffffffffffffffffffffffffffffffffffffffffffffffffff167fffffffff000000000000000000000000000000000000000000000000000000009093169290921790915290509392505050565b60408101516020015173ffffffffffffffffffffffffffffffffffffffff1615801590610c455750806000015173ffffffffffffffffffffffffffffffffffffffff1681604001516020015173ffffffffffffffffffffffffffffffffffffffff1614155b15610c6857610c68610271826020015183600001518460400151602001516112eb565b4281604001516080015111610c9157610c91610271826020015142846040015160800151611323565b3a8160400151604001511180610cae57503a816040015160600151105b15610cd657610cd661027182602001513a84604001516040015185604001516060015161135b565b4760a08201819052604082015160e001511115610d0b57610d0b61027182602001518360a00151846040015160e0015161141c565b80604001516000015173ffffffffffffffffffffffffffffffffffffffff16610d3c82602001518360600151611454565b73ffffffffffffffffffffffffffffffffffffffff1614610d8257610d8261027160048360200151846040015160000151604051806020016040528060008152506115a5565b610d8a6109f8565b6020808301516000908152919052604090205460c0820181905215610dbe57610dbe61027182602001518360c001516115df565b50565b73ffffffffffffffffffffffffffffffffffffffff8416301415610e1a576040517f08c379a0000000000000000000000000000000000000000000000000000000008152600401610e1190612774565b60405180910390fd5b6040517f23b872dd00000000000000000000000000000000000000000000000000000000815273ffffffffffffffffffffffffffffffffffffffff8416600482015273ffffffffffffffffffffffffffffffffffffffff83166024820152816044820152602081606483600073ffffffffffffffffffffffffffffffffffffffff8a165af13d60018351146020821015168115178216915081610ec057806000843e8083fd5b50505050505050565b6060610ed3611958565b604083015160c0015151606090601c0167ffffffffffffffff81118015610ef957600080fd5b506040519080825280601f01601f191660200182016040528015610f24576020820181803683370190505b5090506060846040015160c00151905060a081511015610f4057fe5b602082810152805160248201906040840190610f8190829084907ffffffffffffffffffffffffffffffffffffffffffffffffffffffffffffffffc01611615565b83806020019051810190610f959190611fab565b9450505050506109f18360200151638aa6539b60e01b60405180610100016040528087604001516000015173ffffffffffffffffffffffffffffffffffffffff168152602001856000015173ffffffffffffffffffffffffffffffffffffffff168152602001856020015173ffffffffffffffffffffffffffffffffffffffff16815260200185604001518152602001856060015181526020018560800151815260200160001515815260200187604001516000015173ffffffffffffffffffffffffffffffffffffffff1681525060405160240161107491906129e3565b604080517fffffffffffffffffffffffffffffffffffffffffffffffffffffffffffffffe08184030181529181526020820180517bffffffffffffffffffffffffffffffffffffffffffffffffffffffff167fffffffff00000000000000000000000000000000000000000000000000000000909416939093179092529086015160e001516116f6565b60606111086119b3565b611110611a17565b60006060611125866040015160c00151611782565b90508080602001905181019061113b919061204e565b60208901516040808b01515190519498509296509094506112189290917f414e4ccf000000000000000000000000000000000000000000000000000000009161118e9189918991899133906024016127d1565b604080517fffffffffffffffffffffffffffffffffffffffffffffffffffffffffffffffe08184030181529181526020820180517bffffffffffffffffffffffffffffffffffffffffffffffffffffffff167fffffffff00000000000000000000000000000000000000000000000000000000909416939093179092529089015160e001516116f6565b9695505050505050565b606061122c611a40565b611234611a17565b60006060611249866040015160c00151611782565b90508080602001905181019061125f91906121f8565b60208901516040808b01515190519498509296509094506112189290917faa6b21cd000000000000000000000000000000000000000000000000000000009161118e9189918991899160009082906024016128e2565b60607f547a32a328d8a78dbe9bf090fa60ba3d4d1c6833a592a2c942666ce3249c1210838360405160240161074b929190612581565b60607fa78002a166fcae5236d89e3ff35c53dadb775f7818de4a020714cba4bf360822848484604051602401610b5a939291906124ef565b60607fbea726efdf9868bbc5755dce9f13d585b3cf731177be75300d15bb8f5e286158848484604051602401610b5a939291906125ea565b60607f6fec11a99ebb0ff14b6648f609f57864dadeba8b29869c4df2b3b76894147849858585856040516024016113959493929190612600565b604080517fffffffffffffffffffffffffffffffffffffffffffffffffffffffffffffffe08184030181529190526020810180517bffffffffffffffffffffffffffffffffffffffffffffffffffffffff167fffffffff00000000000000000000000000000000000000000000000000000000909316929092179091529050949350505050565b60607f0a5ade45208123132815e1591a1c7e64045fd006152f5e85d100aee42ba02c75848484604051602401610b5a939291906125ea565b600061146083836117ef565b60028251600381111561146f57fe5b14156114d757600183836020015184604001518560600151604051600081526020016040526040516114a4949392919061261b565b6020604051602081039080840390855afa1580156114c6573d6000803e3d6000fd5b50505060206040510351905061157c565b6003825160038111156114e657fe5b141561157c5760007f19457468657265756d205369676e6564204d6573736167653a0a33320000000060005283601c52603c60002090506001818460200151856040015186606001516040516000815260200160405260405161154c949392919061261b565b6020604051602081039080840390855afa15801561156e573d6000803e3d6000fd5b505050602060405103519150505b73ffffffffffffffffffffffffffffffffffffffff81166106c3576106c36102716005856118a3565b60607f4c7607a3ebba99c9acde0e2a04d88829f7001b63f028b796dda6ff02406ddad5858585856040516024016113959493929190612731565b60607ffe251a07f3cbffd23c1c1db9ec776d259099c832333d99ef48cacfa93a4d7b32838360405160240161074b9291906125dc565b602081101561165c578151835160208390036101000a7fffffffffffffffffffffffffffffffffffffffffffffffffffffffffffffffff01801990921691161783526116f1565b82821415611669576116f1565b828211156116a35760208103905080820181840181515b8285101561169b578451865260209586019590940193611680565b9052506116f1565b60208103905080820181840183515b818612156116ec57825182527fffffffffffffffffffffffffffffffffffffffffffffffffffffffffffffffe092830192909101906116b2565b855250505b505050565b606060003073ffffffffffffffffffffffffffffffffffffffff1683856040516117209190612416565b60006040518083038185875af1925050503d806000811461175d576040519150601f19603f3d011682016040523d82523d6000602084013e611762565b606091505b50925090508061177a5761177a6102718686856118d9565b509392505050565b6060600482510367ffffffffffffffff8111801561179f57600080fd5b506040519080825280601f01601f1916602001820160405280156117ca576020820181803683370190505b5090506000806024840191506020830190506117e881838551611615565b5050919050565b60408101517ffffffffffffffffffffffffffffffffebaaedce6af48a03bbfd25e8cd0364141111580611846575060608101517f7fffffffffffffffffffffffffffffff5d576e7357a4501ddfe92f46681b20a111155b15611859576118596102716005846118a3565b60008151600381111561186857fe5b141561187c5761187c6102716003846118a3565b60018151600381111561188b57fe5b141561189f5761189f6102716000846118a3565b5050565b60607ff18f11f3027e735c758137924b262d4d3aff0037dcd785aca3c699fa05d960bd838360405160240161074b929190612715565b60607fa9f0c547643c02afed4cf2699e794bc383effca840eed62fddb64a15a4e55bc4848484604051602401610b5a939291906125b1565b6040805160e08101825260008082526020820152908101611930611a94565b815260200161193d611a17565b81526000602082018190526040820181905260609091015290565b6040518060a00160405280600073ffffffffffffffffffffffffffffffffffffffff168152602001600073ffffffffffffffffffffffffffffffffffffffff1681526020016000815260200160008152602001606081525090565b6040805161018081018252600080825260208201819052918101829052606081018290526080810182905260a0810182905260c0810182905260e0810182905261010081018290526101208101829052610140810182905261016081019190915290565b604080516080810190915280600081526000602082018190526040820181905260609091015290565b6040805161014081018252600080825260208201819052918101829052606081018290526080810182905260a0810182905260c0810182905260e08101829052610100810182905261012081019190915290565b604051806101400160405280600073ffffffffffffffffffffffffffffffffffffffff168152602001600073ffffffffffffffffffffffffffffffffffffffff168152602001600081526020016000815260200160008152602001600081526020016060815260200160008152602001600073ffffffffffffffffffffffffffffffffffffffff168152602001600081525090565b80356106c381612b4b565b80516106c381612b4b565b600082601f830112611b4f578081fd5b8135611b62611b5d82612aae565b612a87565b8181529150602080830190848101608080850287018301881015611b8557600080fd5b60005b85811015611bac57611b9a8984611de4565b85529383019391810191600101611b88565b50505050505092915050565b600082601f830112611bc8578081fd5b8151611bd6611b5d82612aae565b818152915060208083019084810160005b84811015611c7d57815187016040807fffffffffffffffffffffffffffffffffffffffffffffffffffffffffffffffe0838c03011215611c2657600080fd5b611c2f81612a87565b611c3b8b878501611eb6565b8152908201519067ffffffffffffffff821115611c5757600080fd5b611c658b8784860101611cd6565b81870152865250509282019290820190600101611be7565b505050505092915050565b600082601f830112611c98578081fd5b8135611ca6611b5d82612ace565b9150808252836020828501011115611cbd57600080fd5b8060208401602084013760009082016020015292915050565b600082601f830112611ce6578081fd5b8151611cf4611b5d82612ace565b9150808252836020828501011115611d0b57600080fd5b611d1c816020840160208601612b1b565b5092915050565b6000610140808385031215611d36578182fd5b611d3f81612a87565b915050611d4c8383611b29565b8152611d5b8360208401611b29565b602082015260408201356040820152606082013560608201526080820135608082015260a082013560a082015260c082013567ffffffffffffffff811115611da257600080fd5b611dae84828501611c88565b60c08301525060e082013560e0820152610100611dcd84828501611b29565b818301525061012080830135818301525092915050565b600060808284031215611df5578081fd5b611dff6080612a87565b90508135611e0c81612b6d565b81526020820135611e1c81612b7a565b80602083015250604082013560408201526060820135606082015292915050565b600060808284031215611e4e578081fd5b611e586080612a87565b90508151611e6581612b6d565b81526020820151611e7581612b7a565b80602083015250604082015160408201526060820151606082015292915050565b80516fffffffffffffffffffffffffffffffff811681146106c357600080fd5b805163ffffffff811681146106c357600080fd5b805167ffffffffffffffff811681146106c357600080fd5b60008060408385031215611ef4578182fd5b823567ffffffffffffffff80821115611f0b578384fd5b818501915085601f830112611f1e578384fd5b8135611f2c611b5d82612aae565b81815260208082019190858101885b85811015611f6457611f528c8484358b0101611d23565b85529382019390820190600101611f3b565b50919750880135945050505080821115611f7c578283fd5b50611f8985828601611b3f565b9150509250929050565b600060208284031215611fa4578081fd5b5035919050565b600060208284031215611fbc578081fd5b815167ffffffffffffffff80821115611fd3578283fd5b9083019060a08286031215611fe6578283fd5b611ff060a0612a87565b611ffa8684611b34565b81526120098660208501611b34565b60208201526040830151604082015260608301516060820152608083015182811115612033578485fd5b61203f87828601611bb8565b60808301525095945050505050565b6000806000838503610220811215612064578182fd5b61018080821215612073578283fd5b61207c81612a87565b91506120888787611b34565b82526120978760208801611b34565b60208301526120a98760408801611e96565b60408301526120bb8760608801611e96565b60608301526120cd8760808801611e96565b60808301526120df8760a08801611b34565b60a08301526120f18760c08801611b34565b60c08301526121038760e08801611b34565b60e083015261010061211788828901611b34565b90830152610120868101519083015261014061213588828901611eca565b818401525061016080870151818401525081945061215587828801611e3d565b93505050612167856102008601611e96565b90509250925092565b600060208284031215612181578081fd5b813567ffffffffffffffff811115612197578182fd5b6121a384828501611d23565b949350505050565b60008060a083850312156121bd578182fd5b823567ffffffffffffffff8111156121d3578283fd5b6121df85828601611d23565b9250506121ef8460208501611de4565b90509250929050565b60008060008385036101e081121561220e578182fd5b6101408082121561221d578283fd5b61222681612a87565b91506122328787611b34565b82526122418760208801611b34565b60208301526122538760408801611e96565b60408301526122658760608801611e96565b60608301526122778760808801611b34565b60808301526122898760a08801611b34565b60a083015261229b8760c08801611b34565b60c083015260e086015160e08301526101006122b988828901611eca565b81840152506101208087015181840152508194506122d987828801611e3d565b93505050612167856101c08601611e96565b73ffffffffffffffffffffffffffffffffffffffff169052565b6000815180845260208085018081965082840281019150828601855b858110156123655782840389528151805163ffffffff168552850151604086860181905261235181870183612378565b9a87019a9550505090840190600101612321565b5091979650505050505050565b15159052565b60008151808452612390816020860160208601612b1b565b601f017fffffffffffffffffffffffffffffffffffffffffffffffffffffffffffffffe0169290920160200192915050565b8051600481106123ce57fe5b825260208181015160ff169083015260408082015190830152606090810151910152565b6fffffffffffffffffffffffffffffffff169052565b67ffffffffffffffff169052565b60008251612428818460208701612b1b565b9190910192915050565b7f190100000000000000000000000000000000000000000000000000000000000081526002810192909252602282015260420190565b6000602080830181845280855180835260408601915060408482028701019250838701855b828110156124d9577fffffffffffffffffffffffffffffffffffffffffffffffffffffffffffffffc08886030184526124c7858351612378565b9450928501929085019060010161248d565b5092979650505050505050565b90815260200190565b92835273ffffffffffffffffffffffffffffffffffffffff918216602084015216604082015260600190565b9a8b5273ffffffffffffffffffffffffffffffffffffffff998a1660208c015297891660408b015260608a0196909652608089019490945260a088019290925260c087015260e08601526101008501529091166101208301526101408201526101600190565b9182527fffffffff0000000000000000000000000000000000000000000000000000000016602082015260400190565b6000848252606060208301526125ca6060830185612378565b82810360408401526112188185612378565b918252602082015260400190565b9283526020830191909152604082015260600190565b93845260208401929092526040830152606082015260800190565b93845260ff9290921660208401526040830152606082015260800190565b7fffffffff0000000000000000000000000000000000000000000000000000000091909116815260200190565b7fffffffff0000000000000000000000000000000000000000000000000000000092909216825273ffffffffffffffffffffffffffffffffffffffff16602082015260400190565b7fffffffff00000000000000000000000000000000000000000000000000000000929092168252602082015260400190565b6000602082526109f16020830184612378565b606081016008851061270157fe5b938152602081019290925260409091015290565b6040810161272284612b10565b82528260208301529392505050565b600061273c86612b10565b825284602083015273ffffffffffffffffffffffffffffffffffffffff84166040830152608060608301526112186080830184612378565b60208082526024908201527f466978696e546f6b656e5370656e6465722f43414e4e4f545f494e564f4b455f60408201527f53454c4600000000000000000000000000000000000000000000000000000000606082015260800190565b6000610260820190506127e58288516122eb565b60208701516127f760208401826122eb565b50604087015161280a60408401826123f2565b50606087015161281d60608401826123f2565b50608087015161283060808401826123f2565b5060a087015161284360a08401826122eb565b5060c087015161285660c08401826122eb565b5060e087015161286960e08401826122eb565b506101008088015161287d828501826122eb565b505061012087810151908301526101408088015161289d82850182612408565b505061016087810151908301526128b86101808301876123c2565b6128c66102008301866123f2565b6128d46102208301856122eb565b6112186102408301846122eb565b6000610240820190506128f68289516122eb565b602088015161290860208401826122eb565b50604088015161291b60408401826123f2565b50606088015161292e60608401826123f2565b50608088015161294160808401826122eb565b5060a088015161295460a08401826122eb565b5060c088015161296760c08401826122eb565b5060e088015160e08301526101008089015161298582850182612408565b505061012088810151908301526129a06101408301886123c2565b6129ae6101c08301876123f2565b6129bc6101e08301866122eb565b6129ca610200830185612372565b6129d86102208301846122eb565b979650505050505050565b60006020825273ffffffffffffffffffffffffffffffffffffffff808451166020840152806020850151166040840152506040830151612a2660608401826122eb565b5060608301516080830152608083015160a083015260a08301516101008060c0850152612a57610120850183612305565b915060c0850151612a6b60e0860182612372565b5060e0850151612a7d828601826122eb565b5090949350505050565b60405181810167ffffffffffffffff81118282101715612aa657600080fd5b604052919050565b600067ffffffffffffffff821115612ac4578081fd5b5060209081020190565b600067ffffffffffffffff821115612ae4578081fd5b50601f017fffffffffffffffffffffffffffffffffffffffffffffffffffffffffffffffe01660200190565b806006811061031157fe5b60005b83811015612b36578181015183820152602001612b1e565b83811115612b45576000848401525b50505050565b73ffffffffffffffffffffffffffffffffffffffff81168114610dbe57600080fd5b60048110610dbe57600080fd5b60ff81168114610dbe57600080fdfea26469706673582212209675a4e7d4996b5464ff393b8403ad06921cbcf005d6ed5ab2fbb588a56f4bf764736f6c634300060c0033",
                "opcodes": "PUSH2 0x100 PUSH1 0x40 MSTORE PUSH3 0x15 PUSH1 0x1 PUSH1 0x2 PUSH1 0x0 PUSH3 0x117 JUMP JUMPDEST PUSH1 0xC0 MSTORE PUSH32 0xE866282978E74DC892EFA3621DF30A058CA4D374A338824C0B89F1DFDCB0EA04 PUSH1 0xE0 MSTORE CALLVALUE DUP1 ISZERO PUSH3 0x49 JUMPI PUSH1 0x0 DUP1 REVERT JUMPDEST POP PUSH1 0x40 MLOAD PUSH3 0x2DA7 CODESIZE SUB DUP1 PUSH3 0x2DA7 DUP4 CODECOPY DUP2 ADD PUSH1 0x40 DUP2 SWAP1 MSTORE PUSH3 0x6C SWAP2 PUSH3 0x149 JUMP JUMPDEST ADDRESS PUSH1 0x60 SHL PUSH1 0x80 MSTORE PUSH1 0x40 MLOAD DUP2 SWAP1 CHAINID SWAP1 PUSH3 0xF2 SWAP1 PUSH32 0x8B73C3C69BB8FE3D512ECC4CF759CC79239F7B179B0FFACAA9A75D522B39400F SWAP1 PUSH32 0x9E5DAE0ADDAF20578AEB5D70341D092B53B4E14480AC5726438FD436DF7BA427 SWAP1 PUSH32 0x6C015BD22B4C69690933C1058878EBDFEF31F9AAAE40BBE86D8A09FE1B2972C SWAP1 DUP6 SWAP1 DUP8 SWAP1 PUSH1 0x20 ADD PUSH3 0x179 JUMP JUMPDEST PUSH1 0x40 DUP1 MLOAD PUSH1 0x1F NOT DUP2 DUP5 SUB ADD DUP2 MSTORE SWAP2 SWAP1 MSTORE DUP1 MLOAD PUSH1 0x20 SWAP1 SWAP2 ADD KECCAK256 PUSH1 0xA0 MSTORE POP PUSH3 0x1A5 SWAP2 POP POP JUMP JUMPDEST PUSH12 0xFFFFFFFF0000000000000000 PUSH1 0x40 DUP5 SWAP1 SHL AND PUSH8 0xFFFFFFFF00000000 PUSH1 0x20 DUP5 SWAP1 SHL AND OR PUSH4 0xFFFFFFFF DUP3 AND OR SWAP4 SWAP3 POP POP POP JUMP JUMPDEST PUSH1 0x0 PUSH1 0x20 DUP3 DUP5 SUB SLT ISZERO PUSH3 0x15B JUMPI DUP1 DUP2 REVERT JUMPDEST DUP2 MLOAD PUSH1 0x1 PUSH1 0x1 PUSH1 0xA0 SHL SUB DUP2 AND DUP2 EQ PUSH3 0x172 JUMPI DUP2 DUP3 REVERT JUMPDEST SWAP4 SWAP3 POP POP POP JUMP JUMPDEST SWAP5 DUP6 MSTORE PUSH1 0x20 DUP6 ADD SWAP4 SWAP1 SWAP4 MSTORE PUSH1 0x40 DUP5 ADD SWAP2 SWAP1 SWAP2 MSTORE PUSH1 0x60 DUP4 ADD MSTORE PUSH1 0x1 PUSH1 0x1 PUSH1 0xA0 SHL SUB AND PUSH1 0x80 DUP3 ADD MSTORE PUSH1 0xA0 ADD SWAP1 JUMP JUMPDEST PUSH1 0x80 MLOAD PUSH1 0x60 SHR PUSH1 0xA0 MLOAD PUSH1 0xC0 MLOAD PUSH1 0xE0 MLOAD PUSH2 0x2BBF PUSH3 0x1E8 PUSH1 0x0 CODECOPY DUP1 PUSH2 0x465 MSTORE DUP1 PUSH2 0x670 MSTORE POP DUP1 PUSH2 0x1E4 MSTORE POP DUP1 PUSH2 0x694 MSTORE DUP1 PUSH2 0xA9C MSTORE POP DUP1 PUSH2 0xA3B MSTORE POP PUSH2 0x2BBF PUSH1 0x0 RETURN INVALID PUSH1 0x80 PUSH1 0x40 MSTORE PUSH1 0x4 CALLDATASIZE LT PUSH2 0xB1 JUMPI PUSH1 0x0 CALLDATALOAD PUSH1 0xE0 SHR DUP1 PUSH4 0x8FD3AB80 GT PUSH2 0x69 JUMPI DUP1 PUSH4 0xC5579EC8 GT PUSH2 0x4E JUMPI DUP1 PUSH4 0xC5579EC8 EQ PUSH2 0x198 JUMPI DUP1 PUSH4 0xD036092D EQ PUSH2 0x1B8 JUMPI DUP1 PUSH4 0xDAB400F3 EQ PUSH2 0x1CD JUMPI PUSH2 0xB1 JUMP JUMPDEST DUP1 PUSH4 0x8FD3AB80 EQ PUSH2 0x156 JUMPI DUP1 PUSH4 0xAE550497 EQ PUSH2 0x178 JUMPI PUSH2 0xB1 JUMP JUMPDEST DUP1 PUSH4 0x3FB2DA38 GT PUSH2 0x9A JUMPI DUP1 PUSH4 0x3FB2DA38 EQ PUSH2 0x101 JUMPI DUP1 PUSH4 0x6AE4B4F7 EQ PUSH2 0x121 JUMPI DUP1 PUSH4 0x72D17D03 EQ PUSH2 0x136 JUMPI PUSH2 0xB1 JUMP JUMPDEST DUP1 PUSH4 0x31B905C EQ PUSH2 0xB6 JUMPI DUP1 PUSH4 0x3D61ED3E EQ PUSH2 0xE1 JUMPI JUMPDEST PUSH1 0x0 DUP1 REVERT JUMPDEST CALLVALUE DUP1 ISZERO PUSH2 0xC2 JUMPI PUSH1 0x0 DUP1 REVERT JUMPDEST POP PUSH2 0xCB PUSH2 0x1E2 JUMP JUMPDEST PUSH1 0x40 MLOAD PUSH2 0xD8 SWAP2 SWAP1 PUSH2 0x24E6 JUMP JUMPDEST PUSH1 0x40 MLOAD DUP1 SWAP2 SUB SWAP1 RETURN JUMPDEST PUSH2 0xF4 PUSH2 0xEF CALLDATASIZE PUSH1 0x4 PUSH2 0x21AB JUMP JUMPDEST PUSH2 0x206 JUMP JUMPDEST PUSH1 0x40 MLOAD PUSH2 0xD8 SWAP2 SWAP1 PUSH2 0x26E0 JUMP JUMPDEST CALLVALUE DUP1 ISZERO PUSH2 0x10D JUMPI PUSH1 0x0 DUP1 REVERT JUMPDEST POP PUSH2 0xCB PUSH2 0x11C CALLDATASIZE PUSH1 0x4 PUSH2 0x2170 JUMP JUMPDEST PUSH2 0x300 JUMP JUMPDEST CALLVALUE DUP1 ISZERO PUSH2 0x12D JUMPI PUSH1 0x0 DUP1 REVERT JUMPDEST POP PUSH2 0xF4 PUSH2 0x316 JUMP JUMPDEST CALLVALUE DUP1 ISZERO PUSH2 0x142 JUMPI PUSH1 0x0 DUP1 REVERT JUMPDEST POP PUSH2 0xCB PUSH2 0x151 CALLDATASIZE PUSH1 0x4 PUSH2 0x1F93 JUMP JUMPDEST PUSH2 0x34F JUMP JUMPDEST CALLVALUE DUP1 ISZERO PUSH2 0x162 JUMPI PUSH1 0x0 DUP1 REVERT JUMPDEST POP PUSH2 0x16B PUSH2 0x36A JUMP JUMPDEST PUSH1 0x40 MLOAD PUSH2 0xD8 SWAP2 SWAP1 PUSH2 0x2639 JUMP JUMPDEST CALLVALUE DUP1 ISZERO PUSH2 0x184 JUMPI PUSH1 0x0 DUP1 REVERT JUMPDEST POP PUSH2 0xCB PUSH2 0x193 CALLDATASIZE PUSH1 0x4 PUSH2 0x2170 JUMP JUMPDEST PUSH2 0x45E JUMP JUMPDEST PUSH2 0x1AB PUSH2 0x1A6 CALLDATASIZE PUSH1 0x4 PUSH2 0x1EE2 JUMP JUMPDEST PUSH2 0x4F4 JUMP JUMPDEST PUSH1 0x40 MLOAD PUSH2 0xD8 SWAP2 SWAP1 PUSH2 0x2468 JUMP JUMPDEST CALLVALUE DUP1 ISZERO PUSH2 0x1C4 JUMPI PUSH1 0x0 DUP1 REVERT JUMPDEST POP PUSH2 0xCB PUSH2 0x66E JUMP JUMPDEST CALLVALUE DUP1 ISZERO PUSH2 0x1D9 JUMPI PUSH1 0x0 DUP1 REVERT JUMPDEST POP PUSH2 0xCB PUSH2 0x692 JUMP JUMPDEST PUSH32 0x0 DUP2 JUMP JUMPDEST PUSH1 0x60 PUSH1 0x1 PUSH1 0x0 PUSH2 0x214 PUSH2 0x6B6 JUMP JUMPDEST DUP1 SLOAD SWAP1 SWAP2 POP DUP3 DUP2 AND ISZERO PUSH2 0x276 JUMPI PUSH2 0x276 PUSH2 0x271 PUSH2 0x26B PUSH1 0x0 DUP1 CALLDATASIZE DUP1 DUP1 PUSH1 0x1F ADD PUSH1 0x20 DUP1 SWAP2 DIV MUL PUSH1 0x20 ADD PUSH1 0x40 MLOAD SWAP1 DUP2 ADD PUSH1 0x40 MSTORE DUP1 SWAP4 SWAP3 SWAP2 SWAP1 DUP2 DUP2 MSTORE PUSH1 0x20 ADD DUP4 DUP4 DUP1 DUP3 DUP5 CALLDATACOPY PUSH1 0x0 SWAP3 ADD SWAP2 SWAP1 SWAP2 MSTORE POP SWAP3 SWAP4 SWAP3 POP POP PUSH2 0x6C9 SWAP1 POP JUMP JUMPDEST DUP6 PUSH2 0x715 JUMP JUMPDEST PUSH2 0x7D0 JUMP JUMPDEST DUP3 OR DUP2 SSTORE PUSH2 0x282 PUSH2 0x1911 JUMP JUMPDEST CALLER DUP2 MSTORE PUSH1 0x40 DUP2 ADD DUP7 SWAP1 MSTORE PUSH2 0x295 DUP7 PUSH2 0x45E JUMP JUMPDEST PUSH1 0x20 DUP3 ADD MSTORE PUSH1 0x60 DUP2 ADD DUP6 SWAP1 MSTORE PUSH2 0x2AA DUP2 PUSH2 0x7D8 JUMP JUMPDEST SWAP4 POP POP PUSH1 0x0 PUSH2 0x2B9 CALLVALUE SELFBALANCE PUSH2 0x9E0 JUMP JUMPDEST SWAP1 POP DUP1 ISZERO PUSH2 0x2F0 JUMPI PUSH1 0x40 MLOAD CALLER SWAP1 DUP3 ISZERO PUSH2 0x8FC MUL SWAP1 DUP4 SWAP1 PUSH1 0x0 DUP2 DUP2 DUP2 DUP6 DUP9 DUP9 CALL SWAP4 POP POP POP POP ISZERO DUP1 ISZERO PUSH2 0x2EE JUMPI RETURNDATASIZE PUSH1 0x0 DUP1 RETURNDATACOPY RETURNDATASIZE PUSH1 0x0 REVERT JUMPDEST POP JUMPDEST POP DUP1 SLOAD SWAP2 NOT SWAP1 SWAP2 AND SWAP1 SSTORE SWAP3 SWAP2 POP POP JUMP JUMPDEST PUSH1 0x0 PUSH2 0x30E PUSH2 0x151 DUP4 PUSH2 0x45E JUMP JUMPDEST SWAP1 POP JUMPDEST SWAP2 SWAP1 POP JUMP JUMPDEST PUSH1 0x40 MLOAD DUP1 PUSH1 0x40 ADD PUSH1 0x40 MSTORE DUP1 PUSH1 0x10 DUP2 MSTORE PUSH1 0x20 ADD PUSH32 0x4D6574615472616E73616374696F6E7300000000000000000000000000000000 DUP2 MSTORE POP DUP2 JUMP JUMPDEST PUSH1 0x0 PUSH2 0x359 PUSH2 0x9F8 JUMP JUMPDEST PUSH1 0x0 SWAP3 DUP4 MSTORE PUSH1 0x20 MSTORE POP PUSH1 0x40 SWAP1 KECCAK256 SLOAD SWAP1 JUMP JUMPDEST PUSH1 0x0 PUSH2 0x395 PUSH32 0x3D61ED3E00000000000000000000000000000000000000000000000000000000 PUSH2 0xA05 JUMP JUMPDEST PUSH2 0x3BE PUSH32 0xC5579EC800000000000000000000000000000000000000000000000000000000 PUSH2 0xA05 JUMP JUMPDEST PUSH2 0x3E7 PUSH32 0x3FB2DA3800000000000000000000000000000000000000000000000000000000 PUSH2 0xA05 JUMP JUMPDEST PUSH2 0x410 PUSH32 0x72D17D0300000000000000000000000000000000000000000000000000000000 PUSH2 0xA05 JUMP JUMPDEST PUSH2 0x439 PUSH32 0xAE55049700000000000000000000000000000000000000000000000000000000 PUSH2 0xA05 JUMP JUMPDEST POP PUSH32 0x2C64C5EF00000000000000000000000000000000000000000000000000000000 SWAP1 JUMP JUMPDEST PUSH1 0x0 PUSH2 0x30E PUSH32 0x0 DUP4 PUSH1 0x0 ADD MLOAD DUP5 PUSH1 0x20 ADD MLOAD DUP6 PUSH1 0x40 ADD MLOAD DUP7 PUSH1 0x60 ADD MLOAD DUP8 PUSH1 0x80 ADD MLOAD DUP9 PUSH1 0xA0 ADD MLOAD DUP10 PUSH1 0xC0 ADD MLOAD DUP1 MLOAD SWAP1 PUSH1 0x20 ADD KECCAK256 DUP11 PUSH1 0xE0 ADD MLOAD DUP12 PUSH2 0x100 ADD MLOAD DUP13 PUSH2 0x120 ADD MLOAD PUSH1 0x40 MLOAD PUSH1 0x20 ADD PUSH2 0x4D9 SWAP12 SWAP11 SWAP10 SWAP9 SWAP8 SWAP7 SWAP6 SWAP5 SWAP4 SWAP3 SWAP2 SWAP1 PUSH2 0x251B JUMP JUMPDEST PUSH1 0x40 MLOAD PUSH1 0x20 DUP2 DUP4 SUB SUB DUP2 MSTORE SWAP1 PUSH1 0x40 MSTORE DUP1 MLOAD SWAP1 PUSH1 0x20 ADD KECCAK256 PUSH2 0xA98 JUMP JUMPDEST PUSH1 0x60 PUSH1 0x1 PUSH1 0x0 PUSH2 0x502 PUSH2 0x6B6 JUMP JUMPDEST DUP1 SLOAD SWAP1 SWAP2 POP DUP3 DUP2 AND ISZERO PUSH2 0x559 JUMPI PUSH2 0x559 PUSH2 0x271 PUSH2 0x26B PUSH1 0x0 DUP1 CALLDATASIZE DUP1 DUP1 PUSH1 0x1F ADD PUSH1 0x20 DUP1 SWAP2 DIV MUL PUSH1 0x20 ADD PUSH1 0x40 MLOAD SWAP1 DUP2 ADD PUSH1 0x40 MSTORE DUP1 SWAP4 SWAP3 SWAP2 SWAP1 DUP2 DUP2 MSTORE PUSH1 0x20 ADD DUP4 DUP4 DUP1 DUP3 DUP5 CALLDATACOPY PUSH1 0x0 SWAP3 ADD SWAP2 SWAP1 SWAP2 MSTORE POP SWAP3 SWAP4 SWAP3 POP POP PUSH2 0x6C9 SWAP1 POP JUMP JUMPDEST DUP3 OR DUP2 SSTORE DUP4 MLOAD DUP6 MLOAD EQ PUSH2 0x575 JUMPI PUSH2 0x575 PUSH2 0x271 DUP7 MLOAD DUP7 MLOAD PUSH2 0xAEA JUMP JUMPDEST DUP5 MLOAD PUSH8 0xFFFFFFFFFFFFFFFF DUP2 GT DUP1 ISZERO PUSH2 0x58D JUMPI PUSH1 0x0 DUP1 REVERT JUMPDEST POP PUSH1 0x40 MLOAD SWAP1 DUP1 DUP3 MSTORE DUP1 PUSH1 0x20 MUL PUSH1 0x20 ADD DUP3 ADD PUSH1 0x40 MSTORE DUP1 ISZERO PUSH2 0x5C1 JUMPI DUP2 PUSH1 0x20 ADD JUMPDEST PUSH1 0x60 DUP2 MSTORE PUSH1 0x20 ADD SWAP1 PUSH1 0x1 SWAP1 SUB SWAP1 DUP2 PUSH2 0x5AC JUMPI SWAP1 POP JUMPDEST POP SWAP3 POP PUSH1 0x0 JUMPDEST DUP6 MLOAD DUP2 LT ISZERO PUSH2 0x661 JUMPI PUSH2 0x5D8 PUSH2 0x1911 JUMP JUMPDEST CALLER DUP2 MSTORE DUP7 MLOAD DUP8 SWAP1 DUP4 SWAP1 DUP2 LT PUSH2 0x5E9 JUMPI INVALID JUMPDEST PUSH1 0x20 MUL PUSH1 0x20 ADD ADD MLOAD DUP2 PUSH1 0x40 ADD DUP2 SWAP1 MSTORE POP PUSH2 0x615 DUP8 DUP4 DUP2 MLOAD DUP2 LT PUSH2 0x608 JUMPI INVALID JUMPDEST PUSH1 0x20 MUL PUSH1 0x20 ADD ADD MLOAD PUSH2 0x45E JUMP JUMPDEST PUSH1 0x20 DUP3 ADD MSTORE DUP6 MLOAD DUP7 SWAP1 DUP4 SWAP1 DUP2 LT PUSH2 0x628 JUMPI INVALID JUMPDEST PUSH1 0x20 MUL PUSH1 0x20 ADD ADD MLOAD DUP2 PUSH1 0x60 ADD DUP2 SWAP1 MSTORE POP PUSH2 0x641 DUP2 PUSH2 0x7D8 JUMP JUMPDEST DUP6 DUP4 DUP2 MLOAD DUP2 LT PUSH2 0x64D JUMPI INVALID JUMPDEST PUSH1 0x20 SWAP1 DUP2 MUL SWAP2 SWAP1 SWAP2 ADD ADD MSTORE POP PUSH1 0x1 ADD PUSH2 0x5C7 JUMP JUMPDEST POP PUSH1 0x0 PUSH2 0x2B9 CALLVALUE SELFBALANCE PUSH2 0x9E0 JUMP JUMPDEST PUSH32 0x0 DUP2 JUMP JUMPDEST PUSH32 0x0 DUP2 JUMP JUMPDEST PUSH1 0x0 DUP1 PUSH2 0x6C3 PUSH1 0x6 PUSH2 0xB20 JUMP JUMPDEST SWAP3 SWAP2 POP POP JUMP JUMPDEST PUSH1 0x0 DUP2 PUSH1 0x4 ADD DUP4 MLOAD LT ISZERO PUSH2 0x6EA JUMPI PUSH2 0x6EA PUSH2 0x271 PUSH1 0x3 DUP6 MLOAD DUP6 PUSH1 0x4 ADD PUSH2 0xB3B JUMP JUMPDEST POP ADD PUSH1 0x20 ADD MLOAD PUSH32 0xFFFFFFFF00000000000000000000000000000000000000000000000000000000 AND SWAP1 JUMP JUMPDEST PUSH1 0x60 PUSH32 0xC7A7103E21E41A5C3158B3028D34CB9BB9593B10B1892F49D7187EFA71219D4E DUP4 DUP4 PUSH1 0x40 MLOAD PUSH1 0x24 ADD PUSH2 0x74B SWAP3 SWAP2 SWAP1 PUSH2 0x26AE JUMP JUMPDEST PUSH1 0x40 DUP1 MLOAD PUSH32 0xFFFFFFFFFFFFFFFFFFFFFFFFFFFFFFFFFFFFFFFFFFFFFFFFFFFFFFFFFFFFFFE0 DUP2 DUP5 SUB ADD DUP2 MSTORE SWAP2 SWAP1 MSTORE PUSH1 0x20 DUP2 ADD DUP1 MLOAD PUSH28 0xFFFFFFFFFFFFFFFFFFFFFFFFFFFFFFFFFFFFFFFFFFFFFFFFFFFFFFFF AND PUSH32 0xFFFFFFFF00000000000000000000000000000000000000000000000000000000 SWAP1 SWAP4 AND SWAP3 SWAP1 SWAP3 OR SWAP1 SWAP2 MSTORE SWAP1 POP SWAP3 SWAP2 POP POP JUMP JUMPDEST DUP1 MLOAD PUSH1 0x20 DUP3 ADD REVERT JUMPDEST PUSH1 0x60 PUSH2 0x7E3 DUP3 PUSH2 0xBE0 JUMP JUMPDEST NUMBER PUSH2 0x7EC PUSH2 0x9F8 JUMP JUMPDEST PUSH1 0x20 DUP1 DUP6 ADD MLOAD PUSH1 0x0 SWAP1 DUP2 MSTORE SWAP2 SWAP1 MSTORE PUSH1 0x40 SWAP1 DUP2 SWAP1 KECCAK256 SWAP2 SWAP1 SWAP2 SSTORE DUP3 ADD MLOAD PUSH2 0x120 ADD MLOAD ISZERO PUSH2 0x831 JUMPI PUSH1 0x40 DUP3 ADD MLOAD PUSH2 0x100 DUP2 ADD MLOAD DUP2 MLOAD DUP5 MLOAD PUSH2 0x120 SWAP1 SWAP4 ADD MLOAD PUSH2 0x831 SWAP4 SWAP1 PUSH2 0xDC1 JUMP JUMPDEST PUSH1 0x40 DUP3 ADD MLOAD PUSH1 0xC0 ADD MLOAD PUSH2 0x845 SWAP1 PUSH1 0x0 PUSH2 0x6C9 JUMP JUMPDEST PUSH32 0xFFFFFFFF00000000000000000000000000000000000000000000000000000000 AND PUSH1 0x80 DUP4 ADD DUP2 SWAP1 MSTORE PUSH32 0x415565B000000000000000000000000000000000000000000000000000000000 EQ ISZERO PUSH2 0x8A5 JUMPI PUSH2 0x89E DUP3 PUSH2 0xEC9 JUMP JUMPDEST SWAP1 POP PUSH2 0x968 JUMP JUMPDEST PUSH1 0x80 DUP3 ADD MLOAD PUSH32 0xFFFFFFFF00000000000000000000000000000000000000000000000000000000 AND PUSH32 0xF6274F6600000000000000000000000000000000000000000000000000000000 EQ ISZERO PUSH2 0x8FC JUMPI PUSH2 0x89E DUP3 PUSH2 0x10FE JUMP JUMPDEST PUSH1 0x80 DUP3 ADD MLOAD PUSH32 0xFFFFFFFF00000000000000000000000000000000000000000000000000000000 AND PUSH32 0xAA77476C00000000000000000000000000000000000000000000000000000000 EQ ISZERO PUSH2 0x953 JUMPI PUSH2 0x89E DUP3 PUSH2 0x1222 JUMP JUMPDEST PUSH2 0x968 PUSH2 0x271 DUP4 PUSH1 0x20 ADD MLOAD DUP5 PUSH1 0x80 ADD MLOAD PUSH2 0x12B5 JUMP JUMPDEST DUP2 PUSH1 0x80 ADD MLOAD PUSH28 0xFFFFFFFFFFFFFFFFFFFFFFFFFFFFFFFFFFFFFFFFFFFFFFFFFFFFFFFF NOT AND PUSH32 0x7F4FE3FF8AE440E1570C558DA08440B26F89FB1C1F2910CD91CA6452955F121A DUP4 PUSH1 0x20 ADD MLOAD DUP5 PUSH1 0x40 ADD MLOAD PUSH1 0x0 ADD MLOAD DUP6 PUSH1 0x40 ADD MLOAD PUSH1 0x20 ADD MLOAD PUSH1 0x40 MLOAD PUSH2 0x9D3 SWAP4 SWAP3 SWAP2 SWAP1 PUSH2 0x24EF JUMP JUMPDEST PUSH1 0x40 MLOAD DUP1 SWAP2 SUB SWAP1 LOG2 SWAP2 SWAP1 POP JUMP JUMPDEST PUSH1 0x0 DUP2 DUP4 LT PUSH2 0x9EF JUMPI DUP2 PUSH2 0x9F1 JUMP JUMPDEST DUP3 JUMPDEST SWAP4 SWAP3 POP POP POP JUMP JUMPDEST PUSH1 0x0 DUP1 PUSH2 0x6C3 PUSH1 0x5 PUSH2 0xB20 JUMP JUMPDEST PUSH1 0x40 MLOAD PUSH32 0x6EB224CB00000000000000000000000000000000000000000000000000000000 DUP2 MSTORE ADDRESS SWAP1 PUSH4 0x6EB224CB SWAP1 PUSH2 0xA63 SWAP1 DUP5 SWAP1 PUSH32 0x0 SWAP1 PUSH1 0x4 ADD PUSH2 0x2666 JUMP JUMPDEST PUSH1 0x0 PUSH1 0x40 MLOAD DUP1 DUP4 SUB DUP2 PUSH1 0x0 DUP8 DUP1 EXTCODESIZE ISZERO DUP1 ISZERO PUSH2 0xA7D JUMPI PUSH1 0x0 DUP1 REVERT JUMPDEST POP GAS CALL ISZERO DUP1 ISZERO PUSH2 0xA91 JUMPI RETURNDATASIZE PUSH1 0x0 DUP1 RETURNDATACOPY RETURNDATASIZE PUSH1 0x0 REVERT JUMPDEST POP POP POP POP POP JUMP JUMPDEST PUSH1 0x0 PUSH32 0x0 DUP3 PUSH1 0x40 MLOAD PUSH1 0x20 ADD PUSH2 0xACD SWAP3 SWAP2 SWAP1 PUSH2 0x2432 JUMP JUMPDEST PUSH1 0x40 MLOAD PUSH1 0x20 DUP2 DUP4 SUB SUB DUP2 MSTORE SWAP1 PUSH1 0x40 MSTORE DUP1 MLOAD SWAP1 PUSH1 0x20 ADD KECCAK256 SWAP1 POP SWAP2 SWAP1 POP JUMP JUMPDEST PUSH1 0x60 PUSH32 0x52974C3A86E985173F72E2FB84BA2BFCA8FB3B7C5031EB8077EBD59458ABF2A4 DUP4 DUP4 PUSH1 0x40 MLOAD PUSH1 0x24 ADD PUSH2 0x74B SWAP3 SWAP2 SWAP1 PUSH2 0x25DC JUMP JUMPDEST PUSH1 0x0 PUSH1 0x80 DUP3 PUSH1 0x8 DUP2 GT ISZERO PUSH2 0xB30 JUMPI INVALID JUMPDEST PUSH1 0x1 ADD SWAP1 SHL SWAP3 SWAP2 POP POP JUMP JUMPDEST PUSH1 0x60 PUSH4 0x28006595 PUSH1 0xE0 SHL DUP5 DUP5 DUP5 PUSH1 0x40 MLOAD PUSH1 0x24 ADD PUSH2 0xB5A SWAP4 SWAP3 SWAP2 SWAP1 PUSH2 0x26F3 JUMP JUMPDEST PUSH1 0x40 DUP1 MLOAD PUSH32 0xFFFFFFFFFFFFFFFFFFFFFFFFFFFFFFFFFFFFFFFFFFFFFFFFFFFFFFFFFFFFFFE0 DUP2 DUP5 SUB ADD DUP2 MSTORE SWAP2 SWAP1 MSTORE PUSH1 0x20 DUP2 ADD DUP1 MLOAD PUSH28 0xFFFFFFFFFFFFFFFFFFFFFFFFFFFFFFFFFFFFFFFFFFFFFFFFFFFFFFFF AND PUSH32 0xFFFFFFFF00000000000000000000000000000000000000000000000000000000 SWAP1 SWAP4 AND SWAP3 SWAP1 SWAP3 OR SWAP1 SWAP2 MSTORE SWAP1 POP SWAP4 SWAP3 POP POP POP JUMP JUMPDEST PUSH1 0x40 DUP2 ADD MLOAD PUSH1 0x20 ADD MLOAD PUSH20 0xFFFFFFFFFFFFFFFFFFFFFFFFFFFFFFFFFFFFFFFF AND ISZERO DUP1 ISZERO SWAP1 PUSH2 0xC45 JUMPI POP DUP1 PUSH1 0x0 ADD MLOAD PUSH20 0xFFFFFFFFFFFFFFFFFFFFFFFFFFFFFFFFFFFFFFFF AND DUP2 PUSH1 0x40 ADD MLOAD PUSH1 0x20 ADD MLOAD PUSH20 0xFFFFFFFFFFFFFFFFFFFFFFFFFFFFFFFFFFFFFFFF AND EQ ISZERO JUMPDEST ISZERO PUSH2 0xC68 JUMPI PUSH2 0xC68 PUSH2 0x271 DUP3 PUSH1 0x20 ADD MLOAD DUP4 PUSH1 0x0 ADD MLOAD DUP5 PUSH1 0x40 ADD MLOAD PUSH1 0x20 ADD MLOAD PUSH2 0x12EB JUMP JUMPDEST TIMESTAMP DUP2 PUSH1 0x40 ADD MLOAD PUSH1 0x80 ADD MLOAD GT PUSH2 0xC91 JUMPI PUSH2 0xC91 PUSH2 0x271 DUP3 PUSH1 0x20 ADD MLOAD TIMESTAMP DUP5 PUSH1 0x40 ADD MLOAD PUSH1 0x80 ADD MLOAD PUSH2 0x1323 JUMP JUMPDEST GASPRICE DUP2 PUSH1 0x40 ADD MLOAD PUSH1 0x40 ADD MLOAD GT DUP1 PUSH2 0xCAE JUMPI POP GASPRICE DUP2 PUSH1 0x40 ADD MLOAD PUSH1 0x60 ADD MLOAD LT JUMPDEST ISZERO PUSH2 0xCD6 JUMPI PUSH2 0xCD6 PUSH2 0x271 DUP3 PUSH1 0x20 ADD MLOAD GASPRICE DUP5 PUSH1 0x40 ADD MLOAD PUSH1 0x40 ADD MLOAD DUP6 PUSH1 0x40 ADD MLOAD PUSH1 0x60 ADD MLOAD PUSH2 0x135B JUMP JUMPDEST SELFBALANCE PUSH1 0xA0 DUP3 ADD DUP2 SWAP1 MSTORE PUSH1 0x40 DUP3 ADD MLOAD PUSH1 0xE0 ADD MLOAD GT ISZERO PUSH2 0xD0B JUMPI PUSH2 0xD0B PUSH2 0x271 DUP3 PUSH1 0x20 ADD MLOAD DUP4 PUSH1 0xA0 ADD MLOAD DUP5 PUSH1 0x40 ADD MLOAD PUSH1 0xE0 ADD MLOAD PUSH2 0x141C JUMP JUMPDEST DUP1 PUSH1 0x40 ADD MLOAD PUSH1 0x0 ADD MLOAD PUSH20 0xFFFFFFFFFFFFFFFFFFFFFFFFFFFFFFFFFFFFFFFF AND PUSH2 0xD3C DUP3 PUSH1 0x20 ADD MLOAD DUP4 PUSH1 0x60 ADD MLOAD PUSH2 0x1454 JUMP JUMPDEST PUSH20 0xFFFFFFFFFFFFFFFFFFFFFFFFFFFFFFFFFFFFFFFF AND EQ PUSH2 0xD82 JUMPI PUSH2 0xD82 PUSH2 0x271 PUSH1 0x4 DUP4 PUSH1 0x20 ADD MLOAD DUP5 PUSH1 0x40 ADD MLOAD PUSH1 0x0 ADD MLOAD PUSH1 0x40 MLOAD DUP1 PUSH1 0x20 ADD PUSH1 0x40 MSTORE DUP1 PUSH1 0x0 DUP2 MSTORE POP PUSH2 0x15A5 JUMP JUMPDEST PUSH2 0xD8A PUSH2 0x9F8 JUMP JUMPDEST PUSH1 0x20 DUP1 DUP4 ADD MLOAD PUSH1 0x0 SWAP1 DUP2 MSTORE SWAP2 SWAP1 MSTORE PUSH1 0x40 SWAP1 KECCAK256 SLOAD PUSH1 0xC0 DUP3 ADD DUP2 SWAP1 MSTORE ISZERO PUSH2 0xDBE JUMPI PUSH2 0xDBE PUSH2 0x271 DUP3 PUSH1 0x20 ADD MLOAD DUP4 PUSH1 0xC0 ADD MLOAD PUSH2 0x15DF JUMP JUMPDEST POP JUMP JUMPDEST PUSH20 0xFFFFFFFFFFFFFFFFFFFFFFFFFFFFFFFFFFFFFFFF DUP5 AND ADDRESS EQ ISZERO PUSH2 0xE1A JUMPI PUSH1 0x40 MLOAD PUSH32 0x8C379A000000000000000000000000000000000000000000000000000000000 DUP2 MSTORE PUSH1 0x4 ADD PUSH2 0xE11 SWAP1 PUSH2 0x2774 JUMP JUMPDEST PUSH1 0x40 MLOAD DUP1 SWAP2 SUB SWAP1 REVERT JUMPDEST PUSH1 0x40 MLOAD PUSH32 0x23B872DD00000000000000000000000000000000000000000000000000000000 DUP2 MSTORE PUSH20 0xFFFFFFFFFFFFFFFFFFFFFFFFFFFFFFFFFFFFFFFF DUP5 AND PUSH1 0x4 DUP3 ADD MSTORE PUSH20 0xFFFFFFFFFFFFFFFFFFFFFFFFFFFFFFFFFFFFFFFF DUP4 AND PUSH1 0x24 DUP3 ADD MSTORE DUP2 PUSH1 0x44 DUP3 ADD MSTORE PUSH1 0x20 DUP2 PUSH1 0x64 DUP4 PUSH1 0x0 PUSH20 0xFFFFFFFFFFFFFFFFFFFFFFFFFFFFFFFFFFFFFFFF DUP11 AND GAS CALL RETURNDATASIZE PUSH1 0x1 DUP4 MLOAD EQ PUSH1 0x20 DUP3 LT ISZERO AND DUP2 ISZERO OR DUP3 AND SWAP2 POP DUP2 PUSH2 0xEC0 JUMPI DUP1 PUSH1 0x0 DUP5 RETURNDATACOPY DUP1 DUP4 REVERT JUMPDEST POP POP POP POP POP POP POP JUMP JUMPDEST PUSH1 0x60 PUSH2 0xED3 PUSH2 0x1958 JUMP JUMPDEST PUSH1 0x40 DUP4 ADD MLOAD PUSH1 0xC0 ADD MLOAD MLOAD PUSH1 0x60 SWAP1 PUSH1 0x1C ADD PUSH8 0xFFFFFFFFFFFFFFFF DUP2 GT DUP1 ISZERO PUSH2 0xEF9 JUMPI PUSH1 0x0 DUP1 REVERT JUMPDEST POP PUSH1 0x40 MLOAD SWAP1 DUP1 DUP3 MSTORE DUP1 PUSH1 0x1F ADD PUSH1 0x1F NOT AND PUSH1 0x20 ADD DUP3 ADD PUSH1 0x40 MSTORE DUP1 ISZERO PUSH2 0xF24 JUMPI PUSH1 0x20 DUP3 ADD DUP2 DUP1 CALLDATASIZE DUP4 CALLDATACOPY ADD SWAP1 POP JUMPDEST POP SWAP1 POP PUSH1 0x60 DUP5 PUSH1 0x40 ADD MLOAD PUSH1 0xC0 ADD MLOAD SWAP1 POP PUSH1 0xA0 DUP2 MLOAD LT ISZERO PUSH2 0xF40 JUMPI INVALID JUMPDEST PUSH1 0x20 DUP3 DUP2 ADD MSTORE DUP1 MLOAD PUSH1 0x24 DUP3 ADD SWAP1 PUSH1 0x40 DUP5 ADD SWAP1 PUSH2 0xF81 SWAP1 DUP3 SWAP1 DUP5 SWAP1 PUSH32 0xFFFFFFFFFFFFFFFFFFFFFFFFFFFFFFFFFFFFFFFFFFFFFFFFFFFFFFFFFFFFFFFC ADD PUSH2 0x1615 JUMP JUMPDEST DUP4 DUP1 PUSH1 0x20 ADD SWAP1 MLOAD DUP2 ADD SWAP1 PUSH2 0xF95 SWAP2 SWAP1 PUSH2 0x1FAB JUMP JUMPDEST SWAP5 POP POP POP POP POP PUSH2 0x9F1 DUP4 PUSH1 0x20 ADD MLOAD PUSH4 0x8AA6539B PUSH1 0xE0 SHL PUSH1 0x40 MLOAD DUP1 PUSH2 0x100 ADD PUSH1 0x40 MSTORE DUP1 DUP8 PUSH1 0x40 ADD MLOAD PUSH1 0x0 ADD MLOAD PUSH20 0xFFFFFFFFFFFFFFFFFFFFFFFFFFFFFFFFFFFFFFFF AND DUP2 MSTORE PUSH1 0x20 ADD DUP6 PUSH1 0x0 ADD MLOAD PUSH20 0xFFFFFFFFFFFFFFFFFFFFFFFFFFFFFFFFFFFFFFFF AND DUP2 MSTORE PUSH1 0x20 ADD DUP6 PUSH1 0x20 ADD MLOAD PUSH20 0xFFFFFFFFFFFFFFFFFFFFFFFFFFFFFFFFFFFFFFFF AND DUP2 MSTORE PUSH1 0x20 ADD DUP6 PUSH1 0x40 ADD MLOAD DUP2 MSTORE PUSH1 0x20 ADD DUP6 PUSH1 0x60 ADD MLOAD DUP2 MSTORE PUSH1 0x20 ADD DUP6 PUSH1 0x80 ADD MLOAD DUP2 MSTORE PUSH1 0x20 ADD PUSH1 0x0 ISZERO ISZERO DUP2 MSTORE PUSH1 0x20 ADD DUP8 PUSH1 0x40 ADD MLOAD PUSH1 0x0 ADD MLOAD PUSH20 0xFFFFFFFFFFFFFFFFFFFFFFFFFFFFFFFFFFFFFFFF AND DUP2 MSTORE POP PUSH1 0x40 MLOAD PUSH1 0x24 ADD PUSH2 0x1074 SWAP2 SWAP1 PUSH2 0x29E3 JUMP JUMPDEST PUSH1 0x40 DUP1 MLOAD PUSH32 0xFFFFFFFFFFFFFFFFFFFFFFFFFFFFFFFFFFFFFFFFFFFFFFFFFFFFFFFFFFFFFFE0 DUP2 DUP5 SUB ADD DUP2 MSTORE SWAP2 DUP2 MSTORE PUSH1 0x20 DUP3 ADD DUP1 MLOAD PUSH28 0xFFFFFFFFFFFFFFFFFFFFFFFFFFFFFFFFFFFFFFFFFFFFFFFFFFFFFFFF AND PUSH32 0xFFFFFFFF00000000000000000000000000000000000000000000000000000000 SWAP1 SWAP5 AND SWAP4 SWAP1 SWAP4 OR SWAP1 SWAP3 MSTORE SWAP1 DUP7 ADD MLOAD PUSH1 0xE0 ADD MLOAD PUSH2 0x16F6 JUMP JUMPDEST PUSH1 0x60 PUSH2 0x1108 PUSH2 0x19B3 JUMP JUMPDEST PUSH2 0x1110 PUSH2 0x1A17 JUMP JUMPDEST PUSH1 0x0 PUSH1 0x60 PUSH2 0x1125 DUP7 PUSH1 0x40 ADD MLOAD PUSH1 0xC0 ADD MLOAD PUSH2 0x1782 JUMP JUMPDEST SWAP1 POP DUP1 DUP1 PUSH1 0x20 ADD SWAP1 MLOAD DUP2 ADD SWAP1 PUSH2 0x113B SWAP2 SWAP1 PUSH2 0x204E JUMP JUMPDEST PUSH1 0x20 DUP10 ADD MLOAD PUSH1 0x40 DUP1 DUP12 ADD MLOAD MLOAD SWAP1 MLOAD SWAP5 SWAP9 POP SWAP3 SWAP7 POP SWAP1 SWAP5 POP PUSH2 0x1218 SWAP3 SWAP1 SWAP2 PUSH32 0x414E4CCF00000000000000000000000000000000000000000000000000000000 SWAP2 PUSH2 0x118E SWAP2 DUP10 SWAP2 DUP10 SWAP2 DUP10 SWAP2 CALLER SWAP1 PUSH1 0x24 ADD PUSH2 0x27D1 JUMP JUMPDEST PUSH1 0x40 DUP1 MLOAD PUSH32 0xFFFFFFFFFFFFFFFFFFFFFFFFFFFFFFFFFFFFFFFFFFFFFFFFFFFFFFFFFFFFFFE0 DUP2 DUP5 SUB ADD DUP2 MSTORE SWAP2 DUP2 MSTORE PUSH1 0x20 DUP3 ADD DUP1 MLOAD PUSH28 0xFFFFFFFFFFFFFFFFFFFFFFFFFFFFFFFFFFFFFFFFFFFFFFFFFFFFFFFF AND PUSH32 0xFFFFFFFF00000000000000000000000000000000000000000000000000000000 SWAP1 SWAP5 AND SWAP4 SWAP1 SWAP4 OR SWAP1 SWAP3 MSTORE SWAP1 DUP10 ADD MLOAD PUSH1 0xE0 ADD MLOAD PUSH2 0x16F6 JUMP JUMPDEST SWAP7 SWAP6 POP POP POP POP POP POP JUMP JUMPDEST PUSH1 0x60 PUSH2 0x122C PUSH2 0x1A40 JUMP JUMPDEST PUSH2 0x1234 PUSH2 0x1A17 JUMP JUMPDEST PUSH1 0x0 PUSH1 0x60 PUSH2 0x1249 DUP7 PUSH1 0x40 ADD MLOAD PUSH1 0xC0 ADD MLOAD PUSH2 0x1782 JUMP JUMPDEST SWAP1 POP DUP1 DUP1 PUSH1 0x20 ADD SWAP1 MLOAD DUP2 ADD SWAP1 PUSH2 0x125F SWAP2 SWAP1 PUSH2 0x21F8 JUMP JUMPDEST PUSH1 0x20 DUP10 ADD MLOAD PUSH1 0x40 DUP1 DUP12 ADD MLOAD MLOAD SWAP1 MLOAD SWAP5 SWAP9 POP SWAP3 SWAP7 POP SWAP1 SWAP5 POP PUSH2 0x1218 SWAP3 SWAP1 SWAP2 PUSH32 0xAA6B21CD00000000000000000000000000000000000000000000000000000000 SWAP2 PUSH2 0x118E SWAP2 DUP10 SWAP2 DUP10 SWAP2 DUP10 SWAP2 PUSH1 0x0 SWAP1 DUP3 SWAP1 PUSH1 0x24 ADD PUSH2 0x28E2 JUMP JUMPDEST PUSH1 0x60 PUSH32 0x547A32A328D8A78DBE9BF090FA60BA3D4D1C6833A592A2C942666CE3249C1210 DUP4 DUP4 PUSH1 0x40 MLOAD PUSH1 0x24 ADD PUSH2 0x74B SWAP3 SWAP2 SWAP1 PUSH2 0x2581 JUMP JUMPDEST PUSH1 0x60 PUSH32 0xA78002A166FCAE5236D89E3FF35C53DADB775F7818DE4A020714CBA4BF360822 DUP5 DUP5 DUP5 PUSH1 0x40 MLOAD PUSH1 0x24 ADD PUSH2 0xB5A SWAP4 SWAP3 SWAP2 SWAP1 PUSH2 0x24EF JUMP JUMPDEST PUSH1 0x60 PUSH32 0xBEA726EFDF9868BBC5755DCE9F13D585B3CF731177BE75300D15BB8F5E286158 DUP5 DUP5 DUP5 PUSH1 0x40 MLOAD PUSH1 0x24 ADD PUSH2 0xB5A SWAP4 SWAP3 SWAP2 SWAP1 PUSH2 0x25EA JUMP JUMPDEST PUSH1 0x60 PUSH32 0x6FEC11A99EBB0FF14B6648F609F57864DADEBA8B29869C4DF2B3B76894147849 DUP6 DUP6 DUP6 DUP6 PUSH1 0x40 MLOAD PUSH1 0x24 ADD PUSH2 0x1395 SWAP5 SWAP4 SWAP3 SWAP2 SWAP1 PUSH2 0x2600 JUMP JUMPDEST PUSH1 0x40 DUP1 MLOAD PUSH32 0xFFFFFFFFFFFFFFFFFFFFFFFFFFFFFFFFFFFFFFFFFFFFFFFFFFFFFFFFFFFFFFE0 DUP2 DUP5 SUB ADD DUP2 MSTORE SWAP2 SWAP1 MSTORE PUSH1 0x20 DUP2 ADD DUP1 MLOAD PUSH28 0xFFFFFFFFFFFFFFFFFFFFFFFFFFFFFFFFFFFFFFFFFFFFFFFFFFFFFFFF AND PUSH32 0xFFFFFFFF00000000000000000000000000000000000000000000000000000000 SWAP1 SWAP4 AND SWAP3 SWAP1 SWAP3 OR SWAP1 SWAP2 MSTORE SWAP1 POP SWAP5 SWAP4 POP POP POP POP JUMP JUMPDEST PUSH1 0x60 PUSH32 0xA5ADE45208123132815E1591A1C7E64045FD006152F5E85D100AEE42BA02C75 DUP5 DUP5 DUP5 PUSH1 0x40 MLOAD PUSH1 0x24 ADD PUSH2 0xB5A SWAP4 SWAP3 SWAP2 SWAP1 PUSH2 0x25EA JUMP JUMPDEST PUSH1 0x0 PUSH2 0x1460 DUP4 DUP4 PUSH2 0x17EF JUMP JUMPDEST PUSH1 0x2 DUP3 MLOAD PUSH1 0x3 DUP2 GT ISZERO PUSH2 0x146F JUMPI INVALID JUMPDEST EQ ISZERO PUSH2 0x14D7 JUMPI PUSH1 0x1 DUP4 DUP4 PUSH1 0x20 ADD MLOAD DUP5 PUSH1 0x40 ADD MLOAD DUP6 PUSH1 0x60 ADD MLOAD PUSH1 0x40 MLOAD PUSH1 0x0 DUP2 MSTORE PUSH1 0x20 ADD PUSH1 0x40 MSTORE PUSH1 0x40 MLOAD PUSH2 0x14A4 SWAP5 SWAP4 SWAP3 SWAP2 SWAP1 PUSH2 0x261B JUMP JUMPDEST PUSH1 0x20 PUSH1 0x40 MLOAD PUSH1 0x20 DUP2 SUB SWAP1 DUP1 DUP5 SUB SWAP1 DUP6 GAS STATICCALL ISZERO DUP1 ISZERO PUSH2 0x14C6 JUMPI RETURNDATASIZE PUSH1 0x0 DUP1 RETURNDATACOPY RETURNDATASIZE PUSH1 0x0 REVERT JUMPDEST POP POP POP PUSH1 0x20 PUSH1 0x40 MLOAD SUB MLOAD SWAP1 POP PUSH2 0x157C JUMP JUMPDEST PUSH1 0x3 DUP3 MLOAD PUSH1 0x3 DUP2 GT ISZERO PUSH2 0x14E6 JUMPI INVALID JUMPDEST EQ ISZERO PUSH2 0x157C JUMPI PUSH1 0x0 PUSH32 0x19457468657265756D205369676E6564204D6573736167653A0A333200000000 PUSH1 0x0 MSTORE DUP4 PUSH1 0x1C MSTORE PUSH1 0x3C PUSH1 0x0 KECCAK256 SWAP1 POP PUSH1 0x1 DUP2 DUP5 PUSH1 0x20 ADD MLOAD DUP6 PUSH1 0x40 ADD MLOAD DUP7 PUSH1 0x60 ADD MLOAD PUSH1 0x40 MLOAD PUSH1 0x0 DUP2 MSTORE PUSH1 0x20 ADD PUSH1 0x40 MSTORE PUSH1 0x40 MLOAD PUSH2 0x154C SWAP5 SWAP4 SWAP3 SWAP2 SWAP1 PUSH2 0x261B JUMP JUMPDEST PUSH1 0x20 PUSH1 0x40 MLOAD PUSH1 0x20 DUP2 SUB SWAP1 DUP1 DUP5 SUB SWAP1 DUP6 GAS STATICCALL ISZERO DUP1 ISZERO PUSH2 0x156E JUMPI RETURNDATASIZE PUSH1 0x0 DUP1 RETURNDATACOPY RETURNDATASIZE PUSH1 0x0 REVERT JUMPDEST POP POP POP PUSH1 0x20 PUSH1 0x40 MLOAD SUB MLOAD SWAP2 POP POP JUMPDEST PUSH20 0xFFFFFFFFFFFFFFFFFFFFFFFFFFFFFFFFFFFFFFFF DUP2 AND PUSH2 0x6C3 JUMPI PUSH2 0x6C3 PUSH2 0x271 PUSH1 0x5 DUP6 PUSH2 0x18A3 JUMP JUMPDEST PUSH1 0x60 PUSH32 0x4C7607A3EBBA99C9ACDE0E2A04D88829F7001B63F028B796DDA6FF02406DDAD5 DUP6 DUP6 DUP6 DUP6 PUSH1 0x40 MLOAD PUSH1 0x24 ADD PUSH2 0x1395 SWAP5 SWAP4 SWAP3 SWAP2 SWAP1 PUSH2 0x2731 JUMP JUMPDEST PUSH1 0x60 PUSH32 0xFE251A07F3CBFFD23C1C1DB9EC776D259099C832333D99EF48CACFA93A4D7B32 DUP4 DUP4 PUSH1 0x40 MLOAD PUSH1 0x24 ADD PUSH2 0x74B SWAP3 SWAP2 SWAP1 PUSH2 0x25DC JUMP JUMPDEST PUSH1 0x20 DUP2 LT ISZERO PUSH2 0x165C JUMPI DUP2 MLOAD DUP4 MLOAD PUSH1 0x20 DUP4 SWAP1 SUB PUSH2 0x100 EXP PUSH32 0xFFFFFFFFFFFFFFFFFFFFFFFFFFFFFFFFFFFFFFFFFFFFFFFFFFFFFFFFFFFFFFFF ADD DUP1 NOT SWAP1 SWAP3 AND SWAP2 AND OR DUP4 MSTORE PUSH2 0x16F1 JUMP JUMPDEST DUP3 DUP3 EQ ISZERO PUSH2 0x1669 JUMPI PUSH2 0x16F1 JUMP JUMPDEST DUP3 DUP3 GT ISZERO PUSH2 0x16A3 JUMPI PUSH1 0x20 DUP2 SUB SWAP1 POP DUP1 DUP3 ADD DUP2 DUP5 ADD DUP2 MLOAD JUMPDEST DUP3 DUP6 LT ISZERO PUSH2 0x169B JUMPI DUP5 MLOAD DUP7 MSTORE PUSH1 0x20 SWAP6 DUP7 ADD SWAP6 SWAP1 SWAP5 ADD SWAP4 PUSH2 0x1680 JUMP JUMPDEST SWAP1 MSTORE POP PUSH2 0x16F1 JUMP JUMPDEST PUSH1 0x20 DUP2 SUB SWAP1 POP DUP1 DUP3 ADD DUP2 DUP5 ADD DUP4 MLOAD JUMPDEST DUP2 DUP7 SLT ISZERO PUSH2 0x16EC JUMPI DUP3 MLOAD DUP3 MSTORE PUSH32 0xFFFFFFFFFFFFFFFFFFFFFFFFFFFFFFFFFFFFFFFFFFFFFFFFFFFFFFFFFFFFFFE0 SWAP3 DUP4 ADD SWAP3 SWAP1 SWAP2 ADD SWAP1 PUSH2 0x16B2 JUMP JUMPDEST DUP6 MSTORE POP POP JUMPDEST POP POP POP JUMP JUMPDEST PUSH1 0x60 PUSH1 0x0 ADDRESS PUSH20 0xFFFFFFFFFFFFFFFFFFFFFFFFFFFFFFFFFFFFFFFF AND DUP4 DUP6 PUSH1 0x40 MLOAD PUSH2 0x1720 SWAP2 SWAP1 PUSH2 0x2416 JUMP JUMPDEST PUSH1 0x0 PUSH1 0x40 MLOAD DUP1 DUP4 SUB DUP2 DUP6 DUP8 GAS CALL SWAP3 POP POP POP RETURNDATASIZE DUP1 PUSH1 0x0 DUP2 EQ PUSH2 0x175D JUMPI PUSH1 0x40 MLOAD SWAP2 POP PUSH1 0x1F NOT PUSH1 0x3F RETURNDATASIZE ADD AND DUP3 ADD PUSH1 0x40 MSTORE RETURNDATASIZE DUP3 MSTORE RETURNDATASIZE PUSH1 0x0 PUSH1 0x20 DUP5 ADD RETURNDATACOPY PUSH2 0x1762 JUMP JUMPDEST PUSH1 0x60 SWAP2 POP JUMPDEST POP SWAP3 POP SWAP1 POP DUP1 PUSH2 0x177A JUMPI PUSH2 0x177A PUSH2 0x271 DUP7 DUP7 DUP6 PUSH2 0x18D9 JUMP JUMPDEST POP SWAP4 SWAP3 POP POP POP JUMP JUMPDEST PUSH1 0x60 PUSH1 0x4 DUP3 MLOAD SUB PUSH8 0xFFFFFFFFFFFFFFFF DUP2 GT DUP1 ISZERO PUSH2 0x179F JUMPI PUSH1 0x0 DUP1 REVERT JUMPDEST POP PUSH1 0x40 MLOAD SWAP1 DUP1 DUP3 MSTORE DUP1 PUSH1 0x1F ADD PUSH1 0x1F NOT AND PUSH1 0x20 ADD DUP3 ADD PUSH1 0x40 MSTORE DUP1 ISZERO PUSH2 0x17CA JUMPI PUSH1 0x20 DUP3 ADD DUP2 DUP1 CALLDATASIZE DUP4 CALLDATACOPY ADD SWAP1 POP JUMPDEST POP SWAP1 POP PUSH1 0x0 DUP1 PUSH1 0x24 DUP5 ADD SWAP2 POP PUSH1 0x20 DUP4 ADD SWAP1 POP PUSH2 0x17E8 DUP2 DUP4 DUP6 MLOAD PUSH2 0x1615 JUMP JUMPDEST POP POP SWAP2 SWAP1 POP JUMP JUMPDEST PUSH1 0x40 DUP2 ADD MLOAD PUSH32 0xFFFFFFFFFFFFFFFFFFFFFFFFFFFFFFFEBAAEDCE6AF48A03BBFD25E8CD0364141 GT ISZERO DUP1 PUSH2 0x1846 JUMPI POP PUSH1 0x60 DUP2 ADD MLOAD PUSH32 0x7FFFFFFFFFFFFFFFFFFFFFFFFFFFFFFF5D576E7357A4501DDFE92F46681B20A1 GT ISZERO JUMPDEST ISZERO PUSH2 0x1859 JUMPI PUSH2 0x1859 PUSH2 0x271 PUSH1 0x5 DUP5 PUSH2 0x18A3 JUMP JUMPDEST PUSH1 0x0 DUP2 MLOAD PUSH1 0x3 DUP2 GT ISZERO PUSH2 0x1868 JUMPI INVALID JUMPDEST EQ ISZERO PUSH2 0x187C JUMPI PUSH2 0x187C PUSH2 0x271 PUSH1 0x3 DUP5 PUSH2 0x18A3 JUMP JUMPDEST PUSH1 0x1 DUP2 MLOAD PUSH1 0x3 DUP2 GT ISZERO PUSH2 0x188B JUMPI INVALID JUMPDEST EQ ISZERO PUSH2 0x189F JUMPI PUSH2 0x189F PUSH2 0x271 PUSH1 0x0 DUP5 PUSH2 0x18A3 JUMP JUMPDEST POP POP JUMP JUMPDEST PUSH1 0x60 PUSH32 0xF18F11F3027E735C758137924B262D4D3AFF0037DCD785ACA3C699FA05D960BD DUP4 DUP4 PUSH1 0x40 MLOAD PUSH1 0x24 ADD PUSH2 0x74B SWAP3 SWAP2 SWAP1 PUSH2 0x2715 JUMP JUMPDEST PUSH1 0x60 PUSH32 0xA9F0C547643C02AFED4CF2699E794BC383EFFCA840EED62FDDB64A15A4E55BC4 DUP5 DUP5 DUP5 PUSH1 0x40 MLOAD PUSH1 0x24 ADD PUSH2 0xB5A SWAP4 SWAP3 SWAP2 SWAP1 PUSH2 0x25B1 JUMP JUMPDEST PUSH1 0x40 DUP1 MLOAD PUSH1 0xE0 DUP2 ADD DUP3 MSTORE PUSH1 0x0 DUP1 DUP3 MSTORE PUSH1 0x20 DUP3 ADD MSTORE SWAP1 DUP2 ADD PUSH2 0x1930 PUSH2 0x1A94 JUMP JUMPDEST DUP2 MSTORE PUSH1 0x20 ADD PUSH2 0x193D PUSH2 0x1A17 JUMP JUMPDEST DUP2 MSTORE PUSH1 0x0 PUSH1 0x20 DUP3 ADD DUP2 SWAP1 MSTORE PUSH1 0x40 DUP3 ADD DUP2 SWAP1 MSTORE PUSH1 0x60 SWAP1 SWAP2 ADD MSTORE SWAP1 JUMP JUMPDEST PUSH1 0x40 MLOAD DUP1 PUSH1 0xA0 ADD PUSH1 0x40 MSTORE DUP1 PUSH1 0x0 PUSH20 0xFFFFFFFFFFFFFFFFFFFFFFFFFFFFFFFFFFFFFFFF AND DUP2 MSTORE PUSH1 0x20 ADD PUSH1 0x0 PUSH20 0xFFFFFFFFFFFFFFFFFFFFFFFFFFFFFFFFFFFFFFFF AND DUP2 MSTORE PUSH1 0x20 ADD PUSH1 0x0 DUP2 MSTORE PUSH1 0x20 ADD PUSH1 0x0 DUP2 MSTORE PUSH1 0x20 ADD PUSH1 0x60 DUP2 MSTORE POP SWAP1 JUMP JUMPDEST PUSH1 0x40 DUP1 MLOAD PUSH2 0x180 DUP2 ADD DUP3 MSTORE PUSH1 0x0 DUP1 DUP3 MSTORE PUSH1 0x20 DUP3 ADD DUP2 SWAP1 MSTORE SWAP2 DUP2 ADD DUP3 SWAP1 MSTORE PUSH1 0x60 DUP2 ADD DUP3 SWAP1 MSTORE PUSH1 0x80 DUP2 ADD DUP3 SWAP1 MSTORE PUSH1 0xA0 DUP2 ADD DUP3 SWAP1 MSTORE PUSH1 0xC0 DUP2 ADD DUP3 SWAP1 MSTORE PUSH1 0xE0 DUP2 ADD DUP3 SWAP1 MSTORE PUSH2 0x100 DUP2 ADD DUP3 SWAP1 MSTORE PUSH2 0x120 DUP2 ADD DUP3 SWAP1 MSTORE PUSH2 0x140 DUP2 ADD DUP3 SWAP1 MSTORE PUSH2 0x160 DUP2 ADD SWAP2 SWAP1 SWAP2 MSTORE SWAP1 JUMP JUMPDEST PUSH1 0x40 DUP1 MLOAD PUSH1 0x80 DUP2 ADD SWAP1 SWAP2 MSTORE DUP1 PUSH1 0x0 DUP2 MSTORE PUSH1 0x0 PUSH1 0x20 DUP3 ADD DUP2 SWAP1 MSTORE PUSH1 0x40 DUP3 ADD DUP2 SWAP1 MSTORE PUSH1 0x60 SWAP1 SWAP2 ADD MSTORE SWAP1 JUMP JUMPDEST PUSH1 0x40 DUP1 MLOAD PUSH2 0x140 DUP2 ADD DUP3 MSTORE PUSH1 0x0 DUP1 DUP3 MSTORE PUSH1 0x20 DUP3 ADD DUP2 SWAP1 MSTORE SWAP2 DUP2 ADD DUP3 SWAP1 MSTORE PUSH1 0x60 DUP2 ADD DUP3 SWAP1 MSTORE PUSH1 0x80 DUP2 ADD DUP3 SWAP1 MSTORE PUSH1 0xA0 DUP2 ADD DUP3 SWAP1 MSTORE PUSH1 0xC0 DUP2 ADD DUP3 SWAP1 MSTORE PUSH1 0xE0 DUP2 ADD DUP3 SWAP1 MSTORE PUSH2 0x100 DUP2 ADD DUP3 SWAP1 MSTORE PUSH2 0x120 DUP2 ADD SWAP2 SWAP1 SWAP2 MSTORE SWAP1 JUMP JUMPDEST PUSH1 0x40 MLOAD DUP1 PUSH2 0x140 ADD PUSH1 0x40 MSTORE DUP1 PUSH1 0x0 PUSH20 0xFFFFFFFFFFFFFFFFFFFFFFFFFFFFFFFFFFFFFFFF AND DUP2 MSTORE PUSH1 0x20 ADD PUSH1 0x0 PUSH20 0xFFFFFFFFFFFFFFFFFFFFFFFFFFFFFFFFFFFFFFFF AND DUP2 MSTORE PUSH1 0x20 ADD PUSH1 0x0 DUP2 MSTORE PUSH1 0x20 ADD PUSH1 0x0 DUP2 MSTORE PUSH1 0x20 ADD PUSH1 0x0 DUP2 MSTORE PUSH1 0x20 ADD PUSH1 0x0 DUP2 MSTORE PUSH1 0x20 ADD PUSH1 0x60 DUP2 MSTORE PUSH1 0x20 ADD PUSH1 0x0 DUP2 MSTORE PUSH1 0x20 ADD PUSH1 0x0 PUSH20 0xFFFFFFFFFFFFFFFFFFFFFFFFFFFFFFFFFFFFFFFF AND DUP2 MSTORE PUSH1 0x20 ADD PUSH1 0x0 DUP2 MSTORE POP SWAP1 JUMP JUMPDEST DUP1 CALLDATALOAD PUSH2 0x6C3 DUP2 PUSH2 0x2B4B JUMP JUMPDEST DUP1 MLOAD PUSH2 0x6C3 DUP2 PUSH2 0x2B4B JUMP JUMPDEST PUSH1 0x0 DUP3 PUSH1 0x1F DUP4 ADD SLT PUSH2 0x1B4F JUMPI DUP1 DUP2 REVERT JUMPDEST DUP2 CALLDATALOAD PUSH2 0x1B62 PUSH2 0x1B5D DUP3 PUSH2 0x2AAE JUMP JUMPDEST PUSH2 0x2A87 JUMP JUMPDEST DUP2 DUP2 MSTORE SWAP2 POP PUSH1 0x20 DUP1 DUP4 ADD SWAP1 DUP5 DUP2 ADD PUSH1 0x80 DUP1 DUP6 MUL DUP8 ADD DUP4 ADD DUP9 LT ISZERO PUSH2 0x1B85 JUMPI PUSH1 0x0 DUP1 REVERT JUMPDEST PUSH1 0x0 JUMPDEST DUP6 DUP2 LT ISZERO PUSH2 0x1BAC JUMPI PUSH2 0x1B9A DUP10 DUP5 PUSH2 0x1DE4 JUMP JUMPDEST DUP6 MSTORE SWAP4 DUP4 ADD SWAP4 SWAP2 DUP2 ADD SWAP2 PUSH1 0x1 ADD PUSH2 0x1B88 JUMP JUMPDEST POP POP POP POP POP POP SWAP3 SWAP2 POP POP JUMP JUMPDEST PUSH1 0x0 DUP3 PUSH1 0x1F DUP4 ADD SLT PUSH2 0x1BC8 JUMPI DUP1 DUP2 REVERT JUMPDEST DUP2 MLOAD PUSH2 0x1BD6 PUSH2 0x1B5D DUP3 PUSH2 0x2AAE JUMP JUMPDEST DUP2 DUP2 MSTORE SWAP2 POP PUSH1 0x20 DUP1 DUP4 ADD SWAP1 DUP5 DUP2 ADD PUSH1 0x0 JUMPDEST DUP5 DUP2 LT ISZERO PUSH2 0x1C7D JUMPI DUP2 MLOAD DUP8 ADD PUSH1 0x40 DUP1 PUSH32 0xFFFFFFFFFFFFFFFFFFFFFFFFFFFFFFFFFFFFFFFFFFFFFFFFFFFFFFFFFFFFFFE0 DUP4 DUP13 SUB ADD SLT ISZERO PUSH2 0x1C26 JUMPI PUSH1 0x0 DUP1 REVERT JUMPDEST PUSH2 0x1C2F DUP2 PUSH2 0x2A87 JUMP JUMPDEST PUSH2 0x1C3B DUP12 DUP8 DUP6 ADD PUSH2 0x1EB6 JUMP JUMPDEST DUP2 MSTORE SWAP1 DUP3 ADD MLOAD SWAP1 PUSH8 0xFFFFFFFFFFFFFFFF DUP3 GT ISZERO PUSH2 0x1C57 JUMPI PUSH1 0x0 DUP1 REVERT JUMPDEST PUSH2 0x1C65 DUP12 DUP8 DUP5 DUP7 ADD ADD PUSH2 0x1CD6 JUMP JUMPDEST DUP2 DUP8 ADD MSTORE DUP7 MSTORE POP POP SWAP3 DUP3 ADD SWAP3 SWAP1 DUP3 ADD SWAP1 PUSH1 0x1 ADD PUSH2 0x1BE7 JUMP JUMPDEST POP POP POP POP POP SWAP3 SWAP2 POP POP JUMP JUMPDEST PUSH1 0x0 DUP3 PUSH1 0x1F DUP4 ADD SLT PUSH2 0x1C98 JUMPI DUP1 DUP2 REVERT JUMPDEST DUP2 CALLDATALOAD PUSH2 0x1CA6 PUSH2 0x1B5D DUP3 PUSH2 0x2ACE JUMP JUMPDEST SWAP2 POP DUP1 DUP3 MSTORE DUP4 PUSH1 0x20 DUP3 DUP6 ADD ADD GT ISZERO PUSH2 0x1CBD JUMPI PUSH1 0x0 DUP1 REVERT JUMPDEST DUP1 PUSH1 0x20 DUP5 ADD PUSH1 0x20 DUP5 ADD CALLDATACOPY PUSH1 0x0 SWAP1 DUP3 ADD PUSH1 0x20 ADD MSTORE SWAP3 SWAP2 POP POP JUMP JUMPDEST PUSH1 0x0 DUP3 PUSH1 0x1F DUP4 ADD SLT PUSH2 0x1CE6 JUMPI DUP1 DUP2 REVERT JUMPDEST DUP2 MLOAD PUSH2 0x1CF4 PUSH2 0x1B5D DUP3 PUSH2 0x2ACE JUMP JUMPDEST SWAP2 POP DUP1 DUP3 MSTORE DUP4 PUSH1 0x20 DUP3 DUP6 ADD ADD GT ISZERO PUSH2 0x1D0B JUMPI PUSH1 0x0 DUP1 REVERT JUMPDEST PUSH2 0x1D1C DUP2 PUSH1 0x20 DUP5 ADD PUSH1 0x20 DUP7 ADD PUSH2 0x2B1B JUMP JUMPDEST POP SWAP3 SWAP2 POP POP JUMP JUMPDEST PUSH1 0x0 PUSH2 0x140 DUP1 DUP4 DUP6 SUB SLT ISZERO PUSH2 0x1D36 JUMPI DUP2 DUP3 REVERT JUMPDEST PUSH2 0x1D3F DUP2 PUSH2 0x2A87 JUMP JUMPDEST SWAP2 POP POP PUSH2 0x1D4C DUP4 DUP4 PUSH2 0x1B29 JUMP JUMPDEST DUP2 MSTORE PUSH2 0x1D5B DUP4 PUSH1 0x20 DUP5 ADD PUSH2 0x1B29 JUMP JUMPDEST PUSH1 0x20 DUP3 ADD MSTORE PUSH1 0x40 DUP3 ADD CALLDATALOAD PUSH1 0x40 DUP3 ADD MSTORE PUSH1 0x60 DUP3 ADD CALLDATALOAD PUSH1 0x60 DUP3 ADD MSTORE PUSH1 0x80 DUP3 ADD CALLDATALOAD PUSH1 0x80 DUP3 ADD MSTORE PUSH1 0xA0 DUP3 ADD CALLDATALOAD PUSH1 0xA0 DUP3 ADD MSTORE PUSH1 0xC0 DUP3 ADD CALLDATALOAD PUSH8 0xFFFFFFFFFFFFFFFF DUP2 GT ISZERO PUSH2 0x1DA2 JUMPI PUSH1 0x0 DUP1 REVERT JUMPDEST PUSH2 0x1DAE DUP5 DUP3 DUP6 ADD PUSH2 0x1C88 JUMP JUMPDEST PUSH1 0xC0 DUP4 ADD MSTORE POP PUSH1 0xE0 DUP3 ADD CALLDATALOAD PUSH1 0xE0 DUP3 ADD MSTORE PUSH2 0x100 PUSH2 0x1DCD DUP5 DUP3 DUP6 ADD PUSH2 0x1B29 JUMP JUMPDEST DUP2 DUP4 ADD MSTORE POP PUSH2 0x120 DUP1 DUP4 ADD CALLDATALOAD DUP2 DUP4 ADD MSTORE POP SWAP3 SWAP2 POP POP JUMP JUMPDEST PUSH1 0x0 PUSH1 0x80 DUP3 DUP5 SUB SLT ISZERO PUSH2 0x1DF5 JUMPI DUP1 DUP2 REVERT JUMPDEST PUSH2 0x1DFF PUSH1 0x80 PUSH2 0x2A87 JUMP JUMPDEST SWAP1 POP DUP2 CALLDATALOAD PUSH2 0x1E0C DUP2 PUSH2 0x2B6D JUMP JUMPDEST DUP2 MSTORE PUSH1 0x20 DUP3 ADD CALLDATALOAD PUSH2 0x1E1C DUP2 PUSH2 0x2B7A JUMP JUMPDEST DUP1 PUSH1 0x20 DUP4 ADD MSTORE POP PUSH1 0x40 DUP3 ADD CALLDATALOAD PUSH1 0x40 DUP3 ADD MSTORE PUSH1 0x60 DUP3 ADD CALLDATALOAD PUSH1 0x60 DUP3 ADD MSTORE SWAP3 SWAP2 POP POP JUMP JUMPDEST PUSH1 0x0 PUSH1 0x80 DUP3 DUP5 SUB SLT ISZERO PUSH2 0x1E4E JUMPI DUP1 DUP2 REVERT JUMPDEST PUSH2 0x1E58 PUSH1 0x80 PUSH2 0x2A87 JUMP JUMPDEST SWAP1 POP DUP2 MLOAD PUSH2 0x1E65 DUP2 PUSH2 0x2B6D JUMP JUMPDEST DUP2 MSTORE PUSH1 0x20 DUP3 ADD MLOAD PUSH2 0x1E75 DUP2 PUSH2 0x2B7A JUMP JUMPDEST DUP1 PUSH1 0x20 DUP4 ADD MSTORE POP PUSH1 0x40 DUP3 ADD MLOAD PUSH1 0x40 DUP3 ADD MSTORE PUSH1 0x60 DUP3 ADD MLOAD PUSH1 0x60 DUP3 ADD MSTORE SWAP3 SWAP2 POP POP JUMP JUMPDEST DUP1 MLOAD PUSH16 0xFFFFFFFFFFFFFFFFFFFFFFFFFFFFFFFF DUP2 AND DUP2 EQ PUSH2 0x6C3 JUMPI PUSH1 0x0 DUP1 REVERT JUMPDEST DUP1 MLOAD PUSH4 0xFFFFFFFF DUP2 AND DUP2 EQ PUSH2 0x6C3 JUMPI PUSH1 0x0 DUP1 REVERT JUMPDEST DUP1 MLOAD PUSH8 0xFFFFFFFFFFFFFFFF DUP2 AND DUP2 EQ PUSH2 0x6C3 JUMPI PUSH1 0x0 DUP1 REVERT JUMPDEST PUSH1 0x0 DUP1 PUSH1 0x40 DUP4 DUP6 SUB SLT ISZERO PUSH2 0x1EF4 JUMPI DUP2 DUP3 REVERT JUMPDEST DUP3 CALLDATALOAD PUSH8 0xFFFFFFFFFFFFFFFF DUP1 DUP3 GT ISZERO PUSH2 0x1F0B JUMPI DUP4 DUP5 REVERT JUMPDEST DUP2 DUP6 ADD SWAP2 POP DUP6 PUSH1 0x1F DUP4 ADD SLT PUSH2 0x1F1E JUMPI DUP4 DUP5 REVERT JUMPDEST DUP2 CALLDATALOAD PUSH2 0x1F2C PUSH2 0x1B5D DUP3 PUSH2 0x2AAE JUMP JUMPDEST DUP2 DUP2 MSTORE PUSH1 0x20 DUP1 DUP3 ADD SWAP2 SWAP1 DUP6 DUP2 ADD DUP9 JUMPDEST DUP6 DUP2 LT ISZERO PUSH2 0x1F64 JUMPI PUSH2 0x1F52 DUP13 DUP5 DUP5 CALLDATALOAD DUP12 ADD ADD PUSH2 0x1D23 JUMP JUMPDEST DUP6 MSTORE SWAP4 DUP3 ADD SWAP4 SWAP1 DUP3 ADD SWAP1 PUSH1 0x1 ADD PUSH2 0x1F3B JUMP JUMPDEST POP SWAP2 SWAP8 POP DUP9 ADD CALLDATALOAD SWAP5 POP POP POP POP DUP1 DUP3 GT ISZERO PUSH2 0x1F7C JUMPI DUP3 DUP4 REVERT JUMPDEST POP PUSH2 0x1F89 DUP6 DUP3 DUP7 ADD PUSH2 0x1B3F JUMP JUMPDEST SWAP2 POP POP SWAP3 POP SWAP3 SWAP1 POP JUMP JUMPDEST PUSH1 0x0 PUSH1 0x20 DUP3 DUP5 SUB SLT ISZERO PUSH2 0x1FA4 JUMPI DUP1 DUP2 REVERT JUMPDEST POP CALLDATALOAD SWAP2 SWAP1 POP JUMP JUMPDEST PUSH1 0x0 PUSH1 0x20 DUP3 DUP5 SUB SLT ISZERO PUSH2 0x1FBC JUMPI DUP1 DUP2 REVERT JUMPDEST DUP2 MLOAD PUSH8 0xFFFFFFFFFFFFFFFF DUP1 DUP3 GT ISZERO PUSH2 0x1FD3 JUMPI DUP3 DUP4 REVERT JUMPDEST SWAP1 DUP4 ADD SWAP1 PUSH1 0xA0 DUP3 DUP7 SUB SLT ISZERO PUSH2 0x1FE6 JUMPI DUP3 DUP4 REVERT JUMPDEST PUSH2 0x1FF0 PUSH1 0xA0 PUSH2 0x2A87 JUMP JUMPDEST PUSH2 0x1FFA DUP7 DUP5 PUSH2 0x1B34 JUMP JUMPDEST DUP2 MSTORE PUSH2 0x2009 DUP7 PUSH1 0x20 DUP6 ADD PUSH2 0x1B34 JUMP JUMPDEST PUSH1 0x20 DUP3 ADD MSTORE PUSH1 0x40 DUP4 ADD MLOAD PUSH1 0x40 DUP3 ADD MSTORE PUSH1 0x60 DUP4 ADD MLOAD PUSH1 0x60 DUP3 ADD MSTORE PUSH1 0x80 DUP4 ADD MLOAD DUP3 DUP2 GT ISZERO PUSH2 0x2033 JUMPI DUP5 DUP6 REVERT JUMPDEST PUSH2 0x203F DUP8 DUP3 DUP7 ADD PUSH2 0x1BB8 JUMP JUMPDEST PUSH1 0x80 DUP4 ADD MSTORE POP SWAP6 SWAP5 POP POP POP POP POP JUMP JUMPDEST PUSH1 0x0 DUP1 PUSH1 0x0 DUP4 DUP6 SUB PUSH2 0x220 DUP2 SLT ISZERO PUSH2 0x2064 JUMPI DUP2 DUP3 REVERT JUMPDEST PUSH2 0x180 DUP1 DUP3 SLT ISZERO PUSH2 0x2073 JUMPI DUP3 DUP4 REVERT JUMPDEST PUSH2 0x207C DUP2 PUSH2 0x2A87 JUMP JUMPDEST SWAP2 POP PUSH2 0x2088 DUP8 DUP8 PUSH2 0x1B34 JUMP JUMPDEST DUP3 MSTORE PUSH2 0x2097 DUP8 PUSH1 0x20 DUP9 ADD PUSH2 0x1B34 JUMP JUMPDEST PUSH1 0x20 DUP4 ADD MSTORE PUSH2 0x20A9 DUP8 PUSH1 0x40 DUP9 ADD PUSH2 0x1E96 JUMP JUMPDEST PUSH1 0x40 DUP4 ADD MSTORE PUSH2 0x20BB DUP8 PUSH1 0x60 DUP9 ADD PUSH2 0x1E96 JUMP JUMPDEST PUSH1 0x60 DUP4 ADD MSTORE PUSH2 0x20CD DUP8 PUSH1 0x80 DUP9 ADD PUSH2 0x1E96 JUMP JUMPDEST PUSH1 0x80 DUP4 ADD MSTORE PUSH2 0x20DF DUP8 PUSH1 0xA0 DUP9 ADD PUSH2 0x1B34 JUMP JUMPDEST PUSH1 0xA0 DUP4 ADD MSTORE PUSH2 0x20F1 DUP8 PUSH1 0xC0 DUP9 ADD PUSH2 0x1B34 JUMP JUMPDEST PUSH1 0xC0 DUP4 ADD MSTORE PUSH2 0x2103 DUP8 PUSH1 0xE0 DUP9 ADD PUSH2 0x1B34 JUMP JUMPDEST PUSH1 0xE0 DUP4 ADD MSTORE PUSH2 0x100 PUSH2 0x2117 DUP9 DUP3 DUP10 ADD PUSH2 0x1B34 JUMP JUMPDEST SWAP1 DUP4 ADD MSTORE PUSH2 0x120 DUP7 DUP2 ADD MLOAD SWAP1 DUP4 ADD MSTORE PUSH2 0x140 PUSH2 0x2135 DUP9 DUP3 DUP10 ADD PUSH2 0x1ECA JUMP JUMPDEST DUP2 DUP5 ADD MSTORE POP PUSH2 0x160 DUP1 DUP8 ADD MLOAD DUP2 DUP5 ADD MSTORE POP DUP2 SWAP5 POP PUSH2 0x2155 DUP8 DUP3 DUP9 ADD PUSH2 0x1E3D JUMP JUMPDEST SWAP4 POP POP POP PUSH2 0x2167 DUP6 PUSH2 0x200 DUP7 ADD PUSH2 0x1E96 JUMP JUMPDEST SWAP1 POP SWAP3 POP SWAP3 POP SWAP3 JUMP JUMPDEST PUSH1 0x0 PUSH1 0x20 DUP3 DUP5 SUB SLT ISZERO PUSH2 0x2181 JUMPI DUP1 DUP2 REVERT JUMPDEST DUP2 CALLDATALOAD PUSH8 0xFFFFFFFFFFFFFFFF DUP2 GT ISZERO PUSH2 0x2197 JUMPI DUP2 DUP3 REVERT JUMPDEST PUSH2 0x21A3 DUP5 DUP3 DUP6 ADD PUSH2 0x1D23 JUMP JUMPDEST SWAP5 SWAP4 POP POP POP POP JUMP JUMPDEST PUSH1 0x0 DUP1 PUSH1 0xA0 DUP4 DUP6 SUB SLT ISZERO PUSH2 0x21BD JUMPI DUP2 DUP3 REVERT JUMPDEST DUP3 CALLDATALOAD PUSH8 0xFFFFFFFFFFFFFFFF DUP2 GT ISZERO PUSH2 0x21D3 JUMPI DUP3 DUP4 REVERT JUMPDEST PUSH2 0x21DF DUP6 DUP3 DUP7 ADD PUSH2 0x1D23 JUMP JUMPDEST SWAP3 POP POP PUSH2 0x21EF DUP5 PUSH1 0x20 DUP6 ADD PUSH2 0x1DE4 JUMP JUMPDEST SWAP1 POP SWAP3 POP SWAP3 SWAP1 POP JUMP JUMPDEST PUSH1 0x0 DUP1 PUSH1 0x0 DUP4 DUP6 SUB PUSH2 0x1E0 DUP2 SLT ISZERO PUSH2 0x220E JUMPI DUP2 DUP3 REVERT JUMPDEST PUSH2 0x140 DUP1 DUP3 SLT ISZERO PUSH2 0x221D JUMPI DUP3 DUP4 REVERT JUMPDEST PUSH2 0x2226 DUP2 PUSH2 0x2A87 JUMP JUMPDEST SWAP2 POP PUSH2 0x2232 DUP8 DUP8 PUSH2 0x1B34 JUMP JUMPDEST DUP3 MSTORE PUSH2 0x2241 DUP8 PUSH1 0x20 DUP9 ADD PUSH2 0x1B34 JUMP JUMPDEST PUSH1 0x20 DUP4 ADD MSTORE PUSH2 0x2253 DUP8 PUSH1 0x40 DUP9 ADD PUSH2 0x1E96 JUMP JUMPDEST PUSH1 0x40 DUP4 ADD MSTORE PUSH2 0x2265 DUP8 PUSH1 0x60 DUP9 ADD PUSH2 0x1E96 JUMP JUMPDEST PUSH1 0x60 DUP4 ADD MSTORE PUSH2 0x2277 DUP8 PUSH1 0x80 DUP9 ADD PUSH2 0x1B34 JUMP JUMPDEST PUSH1 0x80 DUP4 ADD MSTORE PUSH2 0x2289 DUP8 PUSH1 0xA0 DUP9 ADD PUSH2 0x1B34 JUMP JUMPDEST PUSH1 0xA0 DUP4 ADD MSTORE PUSH2 0x229B DUP8 PUSH1 0xC0 DUP9 ADD PUSH2 0x1B34 JUMP JUMPDEST PUSH1 0xC0 DUP4 ADD MSTORE PUSH1 0xE0 DUP7 ADD MLOAD PUSH1 0xE0 DUP4 ADD MSTORE PUSH2 0x100 PUSH2 0x22B9 DUP9 DUP3 DUP10 ADD PUSH2 0x1ECA JUMP JUMPDEST DUP2 DUP5 ADD MSTORE POP PUSH2 0x120 DUP1 DUP8 ADD MLOAD DUP2 DUP5 ADD MSTORE POP DUP2 SWAP5 POP PUSH2 0x22D9 DUP8 DUP3 DUP9 ADD PUSH2 0x1E3D JUMP JUMPDEST SWAP4 POP POP POP PUSH2 0x2167 DUP6 PUSH2 0x1C0 DUP7 ADD PUSH2 0x1E96 JUMP JUMPDEST PUSH20 0xFFFFFFFFFFFFFFFFFFFFFFFFFFFFFFFFFFFFFFFF AND SWAP1 MSTORE JUMP JUMPDEST PUSH1 0x0 DUP2 MLOAD DUP1 DUP5 MSTORE PUSH1 0x20 DUP1 DUP6 ADD DUP1 DUP2 SWAP7 POP DUP3 DUP5 MUL DUP2 ADD SWAP2 POP DUP3 DUP7 ADD DUP6 JUMPDEST DUP6 DUP2 LT ISZERO PUSH2 0x2365 JUMPI DUP3 DUP5 SUB DUP10 MSTORE DUP2 MLOAD DUP1 MLOAD PUSH4 0xFFFFFFFF AND DUP6 MSTORE DUP6 ADD MLOAD PUSH1 0x40 DUP7 DUP7 ADD DUP2 SWAP1 MSTORE PUSH2 0x2351 DUP2 DUP8 ADD DUP4 PUSH2 0x2378 JUMP JUMPDEST SWAP11 DUP8 ADD SWAP11 SWAP6 POP POP POP SWAP1 DUP5 ADD SWAP1 PUSH1 0x1 ADD PUSH2 0x2321 JUMP JUMPDEST POP SWAP2 SWAP8 SWAP7 POP POP POP POP POP POP POP JUMP JUMPDEST ISZERO ISZERO SWAP1 MSTORE JUMP JUMPDEST PUSH1 0x0 DUP2 MLOAD DUP1 DUP5 MSTORE PUSH2 0x2390 DUP2 PUSH1 0x20 DUP7 ADD PUSH1 0x20 DUP7 ADD PUSH2 0x2B1B JUMP JUMPDEST PUSH1 0x1F ADD PUSH32 0xFFFFFFFFFFFFFFFFFFFFFFFFFFFFFFFFFFFFFFFFFFFFFFFFFFFFFFFFFFFFFFE0 AND SWAP3 SWAP1 SWAP3 ADD PUSH1 0x20 ADD SWAP3 SWAP2 POP POP JUMP JUMPDEST DUP1 MLOAD PUSH1 0x4 DUP2 LT PUSH2 0x23CE JUMPI INVALID JUMPDEST DUP3 MSTORE PUSH1 0x20 DUP2 DUP2 ADD MLOAD PUSH1 0xFF AND SWAP1 DUP4 ADD MSTORE PUSH1 0x40 DUP1 DUP3 ADD MLOAD SWAP1 DUP4 ADD MSTORE PUSH1 0x60 SWAP1 DUP2 ADD MLOAD SWAP2 ADD MSTORE JUMP JUMPDEST PUSH16 0xFFFFFFFFFFFFFFFFFFFFFFFFFFFFFFFF AND SWAP1 MSTORE JUMP JUMPDEST PUSH8 0xFFFFFFFFFFFFFFFF AND SWAP1 MSTORE JUMP JUMPDEST PUSH1 0x0 DUP3 MLOAD PUSH2 0x2428 DUP2 DUP5 PUSH1 0x20 DUP8 ADD PUSH2 0x2B1B JUMP JUMPDEST SWAP2 SWAP1 SWAP2 ADD SWAP3 SWAP2 POP POP JUMP JUMPDEST PUSH32 0x1901000000000000000000000000000000000000000000000000000000000000 DUP2 MSTORE PUSH1 0x2 DUP2 ADD SWAP3 SWAP1 SWAP3 MSTORE PUSH1 0x22 DUP3 ADD MSTORE PUSH1 0x42 ADD SWAP1 JUMP JUMPDEST PUSH1 0x0 PUSH1 0x20 DUP1 DUP4 ADD DUP2 DUP5 MSTORE DUP1 DUP6 MLOAD DUP1 DUP4 MSTORE PUSH1 0x40 DUP7 ADD SWAP2 POP PUSH1 0x40 DUP5 DUP3 MUL DUP8 ADD ADD SWAP3 POP DUP4 DUP8 ADD DUP6 JUMPDEST DUP3 DUP2 LT ISZERO PUSH2 0x24D9 JUMPI PUSH32 0xFFFFFFFFFFFFFFFFFFFFFFFFFFFFFFFFFFFFFFFFFFFFFFFFFFFFFFFFFFFFFFC0 DUP9 DUP7 SUB ADD DUP5 MSTORE PUSH2 0x24C7 DUP6 DUP4 MLOAD PUSH2 0x2378 JUMP JUMPDEST SWAP5 POP SWAP3 DUP6 ADD SWAP3 SWAP1 DUP6 ADD SWAP1 PUSH1 0x1 ADD PUSH2 0x248D JUMP JUMPDEST POP SWAP3 SWAP8 SWAP7 POP POP POP POP POP POP POP JUMP JUMPDEST SWAP1 DUP2 MSTORE PUSH1 0x20 ADD SWAP1 JUMP JUMPDEST SWAP3 DUP4 MSTORE PUSH20 0xFFFFFFFFFFFFFFFFFFFFFFFFFFFFFFFFFFFFFFFF SWAP2 DUP3 AND PUSH1 0x20 DUP5 ADD MSTORE AND PUSH1 0x40 DUP3 ADD MSTORE PUSH1 0x60 ADD SWAP1 JUMP JUMPDEST SWAP11 DUP12 MSTORE PUSH20 0xFFFFFFFFFFFFFFFFFFFFFFFFFFFFFFFFFFFFFFFF SWAP10 DUP11 AND PUSH1 0x20 DUP13 ADD MSTORE SWAP8 DUP10 AND PUSH1 0x40 DUP12 ADD MSTORE PUSH1 0x60 DUP11 ADD SWAP7 SWAP1 SWAP7 MSTORE PUSH1 0x80 DUP10 ADD SWAP5 SWAP1 SWAP5 MSTORE PUSH1 0xA0 DUP9 ADD SWAP3 SWAP1 SWAP3 MSTORE PUSH1 0xC0 DUP8 ADD MSTORE PUSH1 0xE0 DUP7 ADD MSTORE PUSH2 0x100 DUP6 ADD MSTORE SWAP1 SWAP2 AND PUSH2 0x120 DUP4 ADD MSTORE PUSH2 0x140 DUP3 ADD MSTORE PUSH2 0x160 ADD SWAP1 JUMP JUMPDEST SWAP2 DUP3 MSTORE PUSH32 0xFFFFFFFF00000000000000000000000000000000000000000000000000000000 AND PUSH1 0x20 DUP3 ADD MSTORE PUSH1 0x40 ADD SWAP1 JUMP JUMPDEST PUSH1 0x0 DUP5 DUP3 MSTORE PUSH1 0x60 PUSH1 0x20 DUP4 ADD MSTORE PUSH2 0x25CA PUSH1 0x60 DUP4 ADD DUP6 PUSH2 0x2378 JUMP JUMPDEST DUP3 DUP2 SUB PUSH1 0x40 DUP5 ADD MSTORE PUSH2 0x1218 DUP2 DUP6 PUSH2 0x2378 JUMP JUMPDEST SWAP2 DUP3 MSTORE PUSH1 0x20 DUP3 ADD MSTORE PUSH1 0x40 ADD SWAP1 JUMP JUMPDEST SWAP3 DUP4 MSTORE PUSH1 0x20 DUP4 ADD SWAP2 SWAP1 SWAP2 MSTORE PUSH1 0x40 DUP3 ADD MSTORE PUSH1 0x60 ADD SWAP1 JUMP JUMPDEST SWAP4 DUP5 MSTORE PUSH1 0x20 DUP5 ADD SWAP3 SWAP1 SWAP3 MSTORE PUSH1 0x40 DUP4 ADD MSTORE PUSH1 0x60 DUP3 ADD MSTORE PUSH1 0x80 ADD SWAP1 JUMP JUMPDEST SWAP4 DUP5 MSTORE PUSH1 0xFF SWAP3 SWAP1 SWAP3 AND PUSH1 0x20 DUP5 ADD MSTORE PUSH1 0x40 DUP4 ADD MSTORE PUSH1 0x60 DUP3 ADD MSTORE PUSH1 0x80 ADD SWAP1 JUMP JUMPDEST PUSH32 0xFFFFFFFF00000000000000000000000000000000000000000000000000000000 SWAP2 SWAP1 SWAP2 AND DUP2 MSTORE PUSH1 0x20 ADD SWAP1 JUMP JUMPDEST PUSH32 0xFFFFFFFF00000000000000000000000000000000000000000000000000000000 SWAP3 SWAP1 SWAP3 AND DUP3 MSTORE PUSH20 0xFFFFFFFFFFFFFFFFFFFFFFFFFFFFFFFFFFFFFFFF AND PUSH1 0x20 DUP3 ADD MSTORE PUSH1 0x40 ADD SWAP1 JUMP JUMPDEST PUSH32 0xFFFFFFFF00000000000000000000000000000000000000000000000000000000 SWAP3 SWAP1 SWAP3 AND DUP3 MSTORE PUSH1 0x20 DUP3 ADD MSTORE PUSH1 0x40 ADD SWAP1 JUMP JUMPDEST PUSH1 0x0 PUSH1 0x20 DUP3 MSTORE PUSH2 0x9F1 PUSH1 0x20 DUP4 ADD DUP5 PUSH2 0x2378 JUMP JUMPDEST PUSH1 0x60 DUP2 ADD PUSH1 0x8 DUP6 LT PUSH2 0x2701 JUMPI INVALID JUMPDEST SWAP4 DUP2 MSTORE PUSH1 0x20 DUP2 ADD SWAP3 SWAP1 SWAP3 MSTORE PUSH1 0x40 SWAP1 SWAP2 ADD MSTORE SWAP1 JUMP JUMPDEST PUSH1 0x40 DUP2 ADD PUSH2 0x2722 DUP5 PUSH2 0x2B10 JUMP JUMPDEST DUP3 MSTORE DUP3 PUSH1 0x20 DUP4 ADD MSTORE SWAP4 SWAP3 POP POP POP JUMP JUMPDEST PUSH1 0x0 PUSH2 0x273C DUP7 PUSH2 0x2B10 JUMP JUMPDEST DUP3 MSTORE DUP5 PUSH1 0x20 DUP4 ADD MSTORE PUSH20 0xFFFFFFFFFFFFFFFFFFFFFFFFFFFFFFFFFFFFFFFF DUP5 AND PUSH1 0x40 DUP4 ADD MSTORE PUSH1 0x80 PUSH1 0x60 DUP4 ADD MSTORE PUSH2 0x1218 PUSH1 0x80 DUP4 ADD DUP5 PUSH2 0x2378 JUMP JUMPDEST PUSH1 0x20 DUP1 DUP3 MSTORE PUSH1 0x24 SWAP1 DUP3 ADD MSTORE PUSH32 0x466978696E546F6B656E5370656E6465722F43414E4E4F545F494E564F4B455F PUSH1 0x40 DUP3 ADD MSTORE PUSH32 0x53454C4600000000000000000000000000000000000000000000000000000000 PUSH1 0x60 DUP3 ADD MSTORE PUSH1 0x80 ADD SWAP1 JUMP JUMPDEST PUSH1 0x0 PUSH2 0x260 DUP3 ADD SWAP1 POP PUSH2 0x27E5 DUP3 DUP9 MLOAD PUSH2 0x22EB JUMP JUMPDEST PUSH1 0x20 DUP8 ADD MLOAD PUSH2 0x27F7 PUSH1 0x20 DUP5 ADD DUP3 PUSH2 0x22EB JUMP JUMPDEST POP PUSH1 0x40 DUP8 ADD MLOAD PUSH2 0x280A PUSH1 0x40 DUP5 ADD DUP3 PUSH2 0x23F2 JUMP JUMPDEST POP PUSH1 0x60 DUP8 ADD MLOAD PUSH2 0x281D PUSH1 0x60 DUP5 ADD DUP3 PUSH2 0x23F2 JUMP JUMPDEST POP PUSH1 0x80 DUP8 ADD MLOAD PUSH2 0x2830 PUSH1 0x80 DUP5 ADD DUP3 PUSH2 0x23F2 JUMP JUMPDEST POP PUSH1 0xA0 DUP8 ADD MLOAD PUSH2 0x2843 PUSH1 0xA0 DUP5 ADD DUP3 PUSH2 0x22EB JUMP JUMPDEST POP PUSH1 0xC0 DUP8 ADD MLOAD PUSH2 0x2856 PUSH1 0xC0 DUP5 ADD DUP3 PUSH2 0x22EB JUMP JUMPDEST POP PUSH1 0xE0 DUP8 ADD MLOAD PUSH2 0x2869 PUSH1 0xE0 DUP5 ADD DUP3 PUSH2 0x22EB JUMP JUMPDEST POP PUSH2 0x100 DUP1 DUP9 ADD MLOAD PUSH2 0x287D DUP3 DUP6 ADD DUP3 PUSH2 0x22EB JUMP JUMPDEST POP POP PUSH2 0x120 DUP8 DUP2 ADD MLOAD SWAP1 DUP4 ADD MSTORE PUSH2 0x140 DUP1 DUP9 ADD MLOAD PUSH2 0x289D DUP3 DUP6 ADD DUP3 PUSH2 0x2408 JUMP JUMPDEST POP POP PUSH2 0x160 DUP8 DUP2 ADD MLOAD SWAP1 DUP4 ADD MSTORE PUSH2 0x28B8 PUSH2 0x180 DUP4 ADD DUP8 PUSH2 0x23C2 JUMP JUMPDEST PUSH2 0x28C6 PUSH2 0x200 DUP4 ADD DUP7 PUSH2 0x23F2 JUMP JUMPDEST PUSH2 0x28D4 PUSH2 0x220 DUP4 ADD DUP6 PUSH2 0x22EB JUMP JUMPDEST PUSH2 0x1218 PUSH2 0x240 DUP4 ADD DUP5 PUSH2 0x22EB JUMP JUMPDEST PUSH1 0x0 PUSH2 0x240 DUP3 ADD SWAP1 POP PUSH2 0x28F6 DUP3 DUP10 MLOAD PUSH2 0x22EB JUMP JUMPDEST PUSH1 0x20 DUP9 ADD MLOAD PUSH2 0x2908 PUSH1 0x20 DUP5 ADD DUP3 PUSH2 0x22EB JUMP JUMPDEST POP PUSH1 0x40 DUP9 ADD MLOAD PUSH2 0x291B PUSH1 0x40 DUP5 ADD DUP3 PUSH2 0x23F2 JUMP JUMPDEST POP PUSH1 0x60 DUP9 ADD MLOAD PUSH2 0x292E PUSH1 0x60 DUP5 ADD DUP3 PUSH2 0x23F2 JUMP JUMPDEST POP PUSH1 0x80 DUP9 ADD MLOAD PUSH2 0x2941 PUSH1 0x80 DUP5 ADD DUP3 PUSH2 0x22EB JUMP JUMPDEST POP PUSH1 0xA0 DUP9 ADD MLOAD PUSH2 0x2954 PUSH1 0xA0 DUP5 ADD DUP3 PUSH2 0x22EB JUMP JUMPDEST POP PUSH1 0xC0 DUP9 ADD MLOAD PUSH2 0x2967 PUSH1 0xC0 DUP5 ADD DUP3 PUSH2 0x22EB JUMP JUMPDEST POP PUSH1 0xE0 DUP9 ADD MLOAD PUSH1 0xE0 DUP4 ADD MSTORE PUSH2 0x100 DUP1 DUP10 ADD MLOAD PUSH2 0x2985 DUP3 DUP6 ADD DUP3 PUSH2 0x2408 JUMP JUMPDEST POP POP PUSH2 0x120 DUP9 DUP2 ADD MLOAD SWAP1 DUP4 ADD MSTORE PUSH2 0x29A0 PUSH2 0x140 DUP4 ADD DUP9 PUSH2 0x23C2 JUMP JUMPDEST PUSH2 0x29AE PUSH2 0x1C0 DUP4 ADD DUP8 PUSH2 0x23F2 JUMP JUMPDEST PUSH2 0x29BC PUSH2 0x1E0 DUP4 ADD DUP7 PUSH2 0x22EB JUMP JUMPDEST PUSH2 0x29CA PUSH2 0x200 DUP4 ADD DUP6 PUSH2 0x2372 JUMP JUMPDEST PUSH2 0x29D8 PUSH2 0x220 DUP4 ADD DUP5 PUSH2 0x22EB JUMP JUMPDEST SWAP8 SWAP7 POP POP POP POP POP POP POP JUMP JUMPDEST PUSH1 0x0 PUSH1 0x20 DUP3 MSTORE PUSH20 0xFFFFFFFFFFFFFFFFFFFFFFFFFFFFFFFFFFFFFFFF DUP1 DUP5 MLOAD AND PUSH1 0x20 DUP5 ADD MSTORE DUP1 PUSH1 0x20 DUP6 ADD MLOAD AND PUSH1 0x40 DUP5 ADD MSTORE POP PUSH1 0x40 DUP4 ADD MLOAD PUSH2 0x2A26 PUSH1 0x60 DUP5 ADD DUP3 PUSH2 0x22EB JUMP JUMPDEST POP PUSH1 0x60 DUP4 ADD MLOAD PUSH1 0x80 DUP4 ADD MSTORE PUSH1 0x80 DUP4 ADD MLOAD PUSH1 0xA0 DUP4 ADD MSTORE PUSH1 0xA0 DUP4 ADD MLOAD PUSH2 0x100 DUP1 PUSH1 0xC0 DUP6 ADD MSTORE PUSH2 0x2A57 PUSH2 0x120 DUP6 ADD DUP4 PUSH2 0x2305 JUMP JUMPDEST SWAP2 POP PUSH1 0xC0 DUP6 ADD MLOAD PUSH2 0x2A6B PUSH1 0xE0 DUP7 ADD DUP3 PUSH2 0x2372 JUMP JUMPDEST POP PUSH1 0xE0 DUP6 ADD MLOAD PUSH2 0x2A7D DUP3 DUP7 ADD DUP3 PUSH2 0x22EB JUMP JUMPDEST POP SWAP1 SWAP5 SWAP4 POP POP POP POP JUMP JUMPDEST PUSH1 0x40 MLOAD DUP2 DUP2 ADD PUSH8 0xFFFFFFFFFFFFFFFF DUP2 GT DUP3 DUP3 LT OR ISZERO PUSH2 0x2AA6 JUMPI PUSH1 0x0 DUP1 REVERT JUMPDEST PUSH1 0x40 MSTORE SWAP2 SWAP1 POP JUMP JUMPDEST PUSH1 0x0 PUSH8 0xFFFFFFFFFFFFFFFF DUP3 GT ISZERO PUSH2 0x2AC4 JUMPI DUP1 DUP2 REVERT JUMPDEST POP PUSH1 0x20 SWAP1 DUP2 MUL ADD SWAP1 JUMP JUMPDEST PUSH1 0x0 PUSH8 0xFFFFFFFFFFFFFFFF DUP3 GT ISZERO PUSH2 0x2AE4 JUMPI DUP1 DUP2 REVERT JUMPDEST POP PUSH1 0x1F ADD PUSH32 0xFFFFFFFFFFFFFFFFFFFFFFFFFFFFFFFFFFFFFFFFFFFFFFFFFFFFFFFFFFFFFFE0 AND PUSH1 0x20 ADD SWAP1 JUMP JUMPDEST DUP1 PUSH1 0x6 DUP2 LT PUSH2 0x311 JUMPI INVALID JUMPDEST PUSH1 0x0 JUMPDEST DUP4 DUP2 LT ISZERO PUSH2 0x2B36 JUMPI DUP2 DUP2 ADD MLOAD DUP4 DUP3 ADD MSTORE PUSH1 0x20 ADD PUSH2 0x2B1E JUMP JUMPDEST DUP4 DUP2 GT ISZERO PUSH2 0x2B45 JUMPI PUSH1 0x0 DUP5 DUP5 ADD MSTORE JUMPDEST POP POP POP POP JUMP JUMPDEST PUSH20 0xFFFFFFFFFFFFFFFFFFFFFFFFFFFFFFFFFFFFFFFF DUP2 AND DUP2 EQ PUSH2 0xDBE JUMPI PUSH1 0x0 DUP1 REVERT JUMPDEST PUSH1 0x4 DUP2 LT PUSH2 0xDBE JUMPI PUSH1 0x0 DUP1 REVERT JUMPDEST PUSH1 0xFF DUP2 AND DUP2 EQ PUSH2 0xDBE JUMPI PUSH1 0x0 DUP1 REVERT INVALID LOG2 PUSH5 0x6970667358 0x22 SLT KECCAK256 SWAP7 PUSH22 0xA4E7D4996B5464FF393B8403AD06921CBCF005D6ED5A 0xB2 0xFB 0xB5 DUP9 0xA5 PUSH16 0x4BF764736F6C634300060C0033000000 "
            },
            "methodIdentifiers": {
                "EIP712_DOMAIN_SEPARATOR()": "dab400f3",
                "FEATURE_NAME()": "6ae4b4f7",
                "FEATURE_VERSION()": "031b905c",
                "MTX_EIP712_TYPEHASH()": "d036092d",
                "batchExecuteMetaTransactions((address,address,uint256,uint256,uint256,uint256,bytes,uint256,address,uint256)[],(uint8,uint8,bytes32,bytes32)[])": "c5579ec8",
                "executeMetaTransaction((address,address,uint256,uint256,uint256,uint256,bytes,uint256,address,uint256),(uint8,uint8,bytes32,bytes32))": "3d61ed3e",
                "getMetaTransactionExecutedBlock((address,address,uint256,uint256,uint256,uint256,bytes,uint256,address,uint256))": "3fb2da38",
                "getMetaTransactionHash((address,address,uint256,uint256,uint256,uint256,bytes,uint256,address,uint256))": "ae550497",
                "getMetaTransactionHashExecutedBlock(bytes32)": "72d17d03",
                "migrate()": "8fd3ab80"
            }
        }
    },
    "sourceTreeHashHex": "0xf8f6736bbdf0b7ff51d3ae330d1261a381f420b215eb10473922061a976f70d1",
    "compiler": {
        "name": "solc",
        "version": "0.6.12+commit.27d51765",
        "settings": {
            "remappings": [
                "@0x/contracts-utils=/home/runner/work/protocol/protocol/node_modules/@0x/contracts-utils",
                "@0x/contracts-erc20=/home/runner/work/protocol/protocol/contracts/zero-ex/node_modules/@0x/contracts-erc20"
            ],
            "optimizer": {
                "enabled": true,
                "runs": 1000000,
                "details": {
                    "yul": true,
                    "deduplicate": true,
                    "cse": true,
                    "constantOptimizer": true
                }
            },
            "outputSelection": {
                "*": {
                    "*": [
                        "abi",
                        "devdoc",
                        "evm.bytecode.object",
                        "evm.bytecode.sourceMap",
                        "evm.deployedBytecode.object",
                        "evm.deployedBytecode.sourceMap",
                        "evm.methodIdentifiers"
                    ]
                }
            },
            "evmVersion": "istanbul"
        }
    },
    "chains": {}
}