{
    "schemaVersion": "2.0.0",
    "contractName": "MultiplexFeature",
    "compilerOutput": {
        "abi": [
            {
                "inputs": [
                    {
                        "internalType": "address",
                        "name": "zeroExAddress",
                        "type": "address"
                    },
                    {
                        "internalType": "contract IEtherTokenV06",
                        "name": "weth",
                        "type": "address"
                    },
                    {
                        "internalType": "contract ILiquidityProviderSandbox",
                        "name": "sandbox",
                        "type": "address"
                    },
                    {
                        "internalType": "address",
                        "name": "uniswapFactory",
                        "type": "address"
                    },
                    {
                        "internalType": "address",
                        "name": "sushiswapFactory",
                        "type": "address"
                    },
                    {
                        "internalType": "bytes32",
                        "name": "uniswapPairInitCodeHash",
                        "type": "bytes32"
                    },
                    {
                        "internalType": "bytes32",
                        "name": "sushiswapPairInitCodeHash",
                        "type": "bytes32"
                    }
                ],
                "stateMutability": "nonpayable",
                "type": "constructor"
            },
            {
                "anonymous": false,
                "inputs": [
                    {
                        "indexed": false,
                        "internalType": "bytes32",
                        "name": "orderHash",
                        "type": "bytes32"
                    },
                    {
                        "indexed": false,
                        "internalType": "address",
                        "name": "maker",
                        "type": "address"
                    },
                    {
                        "indexed": false,
                        "internalType": "uint64",
                        "name": "expiry",
                        "type": "uint64"
                    }
                ],
                "name": "ExpiredOtcOrder",
                "type": "event"
            },
            {
                "anonymous": false,
                "inputs": [
                    {
                        "indexed": false,
                        "internalType": "bytes32",
                        "name": "orderHash",
                        "type": "bytes32"
                    },
                    {
                        "indexed": false,
                        "internalType": "address",
                        "name": "maker",
                        "type": "address"
                    },
                    {
                        "indexed": false,
                        "internalType": "uint64",
                        "name": "expiry",
                        "type": "uint64"
                    }
                ],
                "name": "ExpiredRfqOrder",
                "type": "event"
            },
            {
                "anonymous": false,
                "inputs": [
                    {
                        "indexed": false,
                        "internalType": "address",
                        "name": "inputToken",
                        "type": "address"
                    },
                    {
                        "indexed": false,
                        "internalType": "address",
                        "name": "outputToken",
                        "type": "address"
                    },
                    {
                        "indexed": false,
                        "internalType": "uint256",
                        "name": "inputTokenAmount",
                        "type": "uint256"
                    },
                    {
                        "indexed": false,
                        "internalType": "uint256",
                        "name": "outputTokenAmount",
                        "type": "uint256"
                    },
                    {
                        "indexed": false,
                        "internalType": "address",
                        "name": "provider",
                        "type": "address"
                    },
                    {
                        "indexed": false,
                        "internalType": "address",
                        "name": "recipient",
                        "type": "address"
                    }
                ],
                "name": "LiquidityProviderSwap",
                "type": "event"
            },
            {
                "inputs": [],
                "name": "EIP712_DOMAIN_SEPARATOR",
                "outputs": [
                    {
                        "internalType": "bytes32",
                        "name": "",
                        "type": "bytes32"
                    }
                ],
                "stateMutability": "view",
                "type": "function"
            },
            {
                "inputs": [],
                "name": "FEATURE_NAME",
                "outputs": [
                    {
                        "internalType": "string",
                        "name": "",
                        "type": "string"
                    }
                ],
                "stateMutability": "view",
                "type": "function"
            },
            {
                "inputs": [],
                "name": "FEATURE_VERSION",
                "outputs": [
                    {
                        "internalType": "uint256",
                        "name": "",
                        "type": "uint256"
                    }
                ],
                "stateMutability": "view",
                "type": "function"
            },
            {
                "inputs": [
                    {
                        "components": [
                            {
                                "internalType": "contract IERC20TokenV06",
                                "name": "inputToken",
                                "type": "address"
                            },
                            {
                                "internalType": "contract IERC20TokenV06",
                                "name": "outputToken",
                                "type": "address"
                            },
                            {
                                "internalType": "uint256",
                                "name": "sellAmount",
                                "type": "uint256"
                            },
                            {
                                "components": [
                                    {
                                        "internalType": "enum IMultiplexFeature.MultiplexSubcall",
                                        "name": "id",
                                        "type": "uint8"
                                    },
                                    {
                                        "internalType": "uint256",
                                        "name": "sellAmount",
                                        "type": "uint256"
                                    },
                                    {
                                        "internalType": "bytes",
                                        "name": "data",
                                        "type": "bytes"
                                    }
                                ],
                                "internalType": "struct IMultiplexFeature.BatchSellSubcall[]",
                                "name": "calls",
                                "type": "tuple[]"
                            },
                            {
                                "internalType": "bool",
                                "name": "useSelfBalance",
                                "type": "bool"
                            },
                            {
                                "internalType": "address",
                                "name": "recipient",
                                "type": "address"
                            }
                        ],
                        "internalType": "struct IMultiplexFeature.BatchSellParams",
                        "name": "params",
                        "type": "tuple"
                    },
                    {
                        "internalType": "bytes",
                        "name": "wrappedCallData",
                        "type": "bytes"
                    },
                    {
                        "internalType": "uint256",
                        "name": "sellAmount",
                        "type": "uint256"
                    }
                ],
                "name": "_batchSellLiquidityProviderExternal",
                "outputs": [
                    {
                        "internalType": "uint256",
                        "name": "boughtAmount",
                        "type": "uint256"
                    }
                ],
                "stateMutability": "payable",
                "type": "function"
            },
            {
                "inputs": [
                    {
                        "components": [
                            {
                                "internalType": "contract IERC20TokenV06",
                                "name": "inputToken",
                                "type": "address"
                            },
                            {
                                "internalType": "contract IERC20TokenV06",
                                "name": "outputToken",
                                "type": "address"
                            },
                            {
                                "internalType": "uint256",
                                "name": "sellAmount",
                                "type": "uint256"
                            },
                            {
                                "components": [
                                    {
                                        "internalType": "enum IMultiplexFeature.MultiplexSubcall",
                                        "name": "id",
                                        "type": "uint8"
                                    },
                                    {
                                        "internalType": "uint256",
                                        "name": "sellAmount",
                                        "type": "uint256"
                                    },
                                    {
                                        "internalType": "bytes",
                                        "name": "data",
                                        "type": "bytes"
                                    }
                                ],
                                "internalType": "struct IMultiplexFeature.BatchSellSubcall[]",
                                "name": "calls",
                                "type": "tuple[]"
                            },
                            {
                                "internalType": "bool",
                                "name": "useSelfBalance",
                                "type": "bool"
                            },
                            {
                                "internalType": "address",
                                "name": "recipient",
                                "type": "address"
                            }
                        ],
                        "internalType": "struct IMultiplexFeature.BatchSellParams",
                        "name": "params",
                        "type": "tuple"
                    },
                    {
                        "internalType": "bytes",
                        "name": "wrappedCallData",
                        "type": "bytes"
                    },
                    {
                        "internalType": "uint256",
                        "name": "sellAmount",
                        "type": "uint256"
                    }
                ],
                "name": "_batchSellUniswapV2External",
                "outputs": [
                    {
                        "internalType": "uint256",
                        "name": "boughtAmount",
                        "type": "uint256"
                    }
                ],
                "stateMutability": "payable",
                "type": "function"
            },
            {
                "inputs": [],
                "name": "migrate",
                "outputs": [
                    {
                        "internalType": "bytes4",
                        "name": "success",
                        "type": "bytes4"
                    }
                ],
                "stateMutability": "nonpayable",
                "type": "function"
            },
            {
                "inputs": [
                    {
                        "internalType": "contract IERC20TokenV06",
                        "name": "outputToken",
                        "type": "address"
                    },
                    {
                        "components": [
                            {
                                "internalType": "enum IMultiplexFeature.MultiplexSubcall",
                                "name": "id",
                                "type": "uint8"
                            },
                            {
                                "internalType": "uint256",
                                "name": "sellAmount",
                                "type": "uint256"
                            },
                            {
                                "internalType": "bytes",
                                "name": "data",
                                "type": "bytes"
                            }
                        ],
                        "internalType": "struct IMultiplexFeature.BatchSellSubcall[]",
                        "name": "calls",
                        "type": "tuple[]"
                    },
                    {
                        "internalType": "uint256",
                        "name": "minBuyAmount",
                        "type": "uint256"
                    }
                ],
                "name": "multiplexBatchSellEthForToken",
                "outputs": [
                    {
                        "internalType": "uint256",
                        "name": "boughtAmount",
                        "type": "uint256"
                    }
                ],
                "stateMutability": "payable",
                "type": "function"
            },
            {
                "inputs": [
                    {
                        "internalType": "contract IERC20TokenV06",
                        "name": "inputToken",
                        "type": "address"
                    },
                    {
                        "components": [
                            {
                                "internalType": "enum IMultiplexFeature.MultiplexSubcall",
                                "name": "id",
                                "type": "uint8"
                            },
                            {
                                "internalType": "uint256",
                                "name": "sellAmount",
                                "type": "uint256"
                            },
                            {
                                "internalType": "bytes",
                                "name": "data",
                                "type": "bytes"
                            }
                        ],
                        "internalType": "struct IMultiplexFeature.BatchSellSubcall[]",
                        "name": "calls",
                        "type": "tuple[]"
                    },
                    {
                        "internalType": "uint256",
                        "name": "sellAmount",
                        "type": "uint256"
                    },
                    {
                        "internalType": "uint256",
                        "name": "minBuyAmount",
                        "type": "uint256"
                    }
                ],
                "name": "multiplexBatchSellTokenForEth",
                "outputs": [
                    {
                        "internalType": "uint256",
                        "name": "boughtAmount",
                        "type": "uint256"
                    }
                ],
                "stateMutability": "nonpayable",
                "type": "function"
            },
            {
                "inputs": [
                    {
                        "internalType": "contract IERC20TokenV06",
                        "name": "inputToken",
                        "type": "address"
                    },
                    {
                        "internalType": "contract IERC20TokenV06",
                        "name": "outputToken",
                        "type": "address"
                    },
                    {
                        "components": [
                            {
                                "internalType": "enum IMultiplexFeature.MultiplexSubcall",
                                "name": "id",
                                "type": "uint8"
                            },
                            {
                                "internalType": "uint256",
                                "name": "sellAmount",
                                "type": "uint256"
                            },
                            {
                                "internalType": "bytes",
                                "name": "data",
                                "type": "bytes"
                            }
                        ],
                        "internalType": "struct IMultiplexFeature.BatchSellSubcall[]",
                        "name": "calls",
                        "type": "tuple[]"
                    },
                    {
                        "internalType": "uint256",
                        "name": "sellAmount",
                        "type": "uint256"
                    },
                    {
                        "internalType": "uint256",
                        "name": "minBuyAmount",
                        "type": "uint256"
                    }
                ],
                "name": "multiplexBatchSellTokenForToken",
                "outputs": [
                    {
                        "internalType": "uint256",
                        "name": "boughtAmount",
                        "type": "uint256"
                    }
                ],
                "stateMutability": "nonpayable",
                "type": "function"
            },
            {
                "inputs": [
                    {
                        "internalType": "address[]",
                        "name": "tokens",
                        "type": "address[]"
                    },
                    {
                        "components": [
                            {
                                "internalType": "enum IMultiplexFeature.MultiplexSubcall",
                                "name": "id",
                                "type": "uint8"
                            },
                            {
                                "internalType": "bytes",
                                "name": "data",
                                "type": "bytes"
                            }
                        ],
                        "internalType": "struct IMultiplexFeature.MultiHopSellSubcall[]",
                        "name": "calls",
                        "type": "tuple[]"
                    },
                    {
                        "internalType": "uint256",
                        "name": "minBuyAmount",
                        "type": "uint256"
                    }
                ],
                "name": "multiplexMultiHopSellEthForToken",
                "outputs": [
                    {
                        "internalType": "uint256",
                        "name": "boughtAmount",
                        "type": "uint256"
                    }
                ],
                "stateMutability": "payable",
                "type": "function"
            },
            {
                "inputs": [
                    {
                        "internalType": "address[]",
                        "name": "tokens",
                        "type": "address[]"
                    },
                    {
                        "components": [
                            {
                                "internalType": "enum IMultiplexFeature.MultiplexSubcall",
                                "name": "id",
                                "type": "uint8"
                            },
                            {
                                "internalType": "bytes",
                                "name": "data",
                                "type": "bytes"
                            }
                        ],
                        "internalType": "struct IMultiplexFeature.MultiHopSellSubcall[]",
                        "name": "calls",
                        "type": "tuple[]"
                    },
                    {
                        "internalType": "uint256",
                        "name": "sellAmount",
                        "type": "uint256"
                    },
                    {
                        "internalType": "uint256",
                        "name": "minBuyAmount",
                        "type": "uint256"
                    }
                ],
                "name": "multiplexMultiHopSellTokenForEth",
                "outputs": [
                    {
                        "internalType": "uint256",
                        "name": "boughtAmount",
                        "type": "uint256"
                    }
                ],
                "stateMutability": "nonpayable",
                "type": "function"
            },
            {
                "inputs": [
                    {
                        "internalType": "address[]",
                        "name": "tokens",
                        "type": "address[]"
                    },
                    {
                        "components": [
                            {
                                "internalType": "enum IMultiplexFeature.MultiplexSubcall",
                                "name": "id",
                                "type": "uint8"
                            },
                            {
                                "internalType": "bytes",
                                "name": "data",
                                "type": "bytes"
                            }
                        ],
                        "internalType": "struct IMultiplexFeature.MultiHopSellSubcall[]",
                        "name": "calls",
                        "type": "tuple[]"
                    },
                    {
                        "internalType": "uint256",
                        "name": "sellAmount",
                        "type": "uint256"
                    },
                    {
                        "internalType": "uint256",
                        "name": "minBuyAmount",
                        "type": "uint256"
                    }
                ],
                "name": "multiplexMultiHopSellTokenForToken",
                "outputs": [
                    {
                        "internalType": "uint256",
                        "name": "boughtAmount",
                        "type": "uint256"
                    }
                ],
                "stateMutability": "nonpayable",
                "type": "function"
            }
        ],
        "devdoc": {
            "details": "This feature enables efficient batch and multi-hop trades      using different liquidity sources.",
            "kind": "dev",
            "methods": {
                "migrate()": {
                    "details": "Initialize and register this feature.      Should be delegatecalled by `Migrate.migrate()`.",
                    "returns": {
                        "success": "`LibMigrate.SUCCESS` on success."
                    }
                },
                "multiplexBatchSellEthForToken(address,(uint8,uint256,bytes)[],uint256)": {
                    "details": "Sells attached ETH for `outputToken` using the provided      calls.",
                    "params": {
                        "calls": "The calls to use to sell the attached ETH.",
                        "minBuyAmount": "The minimum amount of `outputToken` that        must be bought for this function to not revert.",
                        "outputToken": "The token to buy."
                    },
                    "returns": {
                        "boughtAmount": "The amount of `outputToken` bought."
                    }
                },
                "multiplexBatchSellTokenForEth(address,(uint8,uint256,bytes)[],uint256,uint256)": {
                    "details": "Sells `sellAmount` of the given `inputToken` for ETH      using the provided calls.",
                    "params": {
                        "calls": "The calls to use to sell the input tokens.",
                        "inputToken": "The token to sell.",
                        "minBuyAmount": "The minimum amount of ETH that        must be bought for this function to not revert.",
                        "sellAmount": "The amount of `inputToken` to sell."
                    },
                    "returns": {
                        "boughtAmount": "The amount of ETH bought."
                    }
                },
                "multiplexBatchSellTokenForToken(address,address,(uint8,uint256,bytes)[],uint256,uint256)": {
                    "details": "Sells `sellAmount` of the given `inputToken` for      `outputToken` using the provided calls.",
                    "params": {
                        "calls": "The calls to use to sell the input tokens.",
                        "inputToken": "The token to sell.",
                        "minBuyAmount": "The minimum amount of `outputToken`        that must be bought for this function to not revert.",
                        "outputToken": "The token to buy.",
                        "sellAmount": "The amount of `inputToken` to sell."
                    },
                    "returns": {
                        "boughtAmount": "The amount of `outputToken` bought."
                    }
                },
                "multiplexMultiHopSellEthForToken(address[],(uint8,bytes)[],uint256)": {
                    "details": "Sells attached ETH via the given sequence of tokens      and calls. `tokens[0]` must be WETH.      The last token in `tokens` is the output token that      will ultimately be sent to `msg.sender`",
                    "params": {
                        "calls": "The sequence of calls to use for the sell.",
                        "minBuyAmount": "The minimum amount of output tokens that        must be bought for this function to not revert.",
                        "tokens": "The sequence of tokens to use for the sell,        i.e. `tokens[i]` will be sold for `tokens[i+1]` via        `calls[i]`."
                    },
                    "returns": {
                        "boughtAmount": "The amount of output tokens bought."
                    }
                },
                "multiplexMultiHopSellTokenForEth(address[],(uint8,bytes)[],uint256,uint256)": {
                    "details": "Sells `sellAmount` of the input token (`tokens[0]`)      for ETH via the given sequence of tokens and calls.      The last token in `tokens` must be WETH.",
                    "params": {
                        "calls": "The sequence of calls to use for the sell.",
                        "minBuyAmount": "The minimum amount of ETH that        must be bought for this function to not revert.",
                        "sellAmount": "The amount of `inputToken` to sell.",
                        "tokens": "The sequence of tokens to use for the sell,        i.e. `tokens[i]` will be sold for `tokens[i+1]` via        `calls[i]`."
                    },
                    "returns": {
                        "boughtAmount": "The amount of ETH bought."
                    }
                },
                "multiplexMultiHopSellTokenForToken(address[],(uint8,bytes)[],uint256,uint256)": {
                    "details": "Sells `sellAmount` of the input token (`tokens[0]`)      via the given sequence of tokens and calls.      The last token in `tokens` is the output token that      will ultimately be sent to `msg.sender`",
                    "params": {
                        "calls": "The sequence of calls to use for the sell.",
                        "minBuyAmount": "The minimum amount of output tokens that        must be bought for this function to not revert.",
                        "sellAmount": "The amount of `inputToken` to sell.",
                        "tokens": "The sequence of tokens to use for the sell,        i.e. `tokens[i]` will be sold for `tokens[i+1]` via        `calls[i]`."
                    },
                    "returns": {
                        "boughtAmount": "The amount of output tokens bought."
                    }
                }
            },
            "stateVariables": {
                "FEATURE_NAME": {
                    "details": "Name of this feature."
                },
                "FEATURE_VERSION": {
                    "details": "Version of this feature."
                },
                "HIGH_BIT": {
                    "details": "The highest bit of a uint256 value."
                },
                "LOWER_255_BITS": {
                    "details": "Mask of the lower 255 bits of a uint256 value."
                },
                "WETH": {
                    "details": "The WETH token contract."
                }
            },
            "version": 1
        },
        "evm": {
            "bytecode": {
                "linkReferences": {},
                "object": "0x6101a060405262000014600260008062000143565b610160523480156200002557600080fd5b5060405162005a5438038062005a54833981016040819052620000489162000175565b30606090811b60805285901b6001600160601b03191660a05260405184908490849084908b904690620000e8907f8b73c3c69bb8fe3d512ecc4cf759cc79239f7b179b0ffacaa9a75d522b39400f907f9e5dae0addaf20578aeb5d70341d092b53b4e14480ac5726438fd436df7ba427907f06c015bd22b4c69690933c1058878ebdfef31f9aaae40bbe86d8a09fe1b2972c908590879060200162000207565b60408051601f19818403018152919052805160209091012060c05250506001600160601b0319606094851b811660e05292841b831661010052610120919091526101405296901b90951661018052506200024c945050505050565b6bffffffff0000000000000000604084901b1667ffffffff00000000602084901b161763ffffffff8216179392505050565b600080600080600080600060e0888a03121562000190578283fd5b87516200019d8162000233565b6020890151909750620001b08162000233565b6040890151909650620001c38162000233565b6060890151909550620001d68162000233565b6080890151909450620001e98162000233565b8093505060a0880151915060c0880151905092959891949750929550565b9485526020850193909352604084019190915260608301526001600160a01b0316608082015260a00190565b6001600160a01b03811681146200024957600080fd5b50565b60805160601c60a05160601c60c05160e05160601c6101005160601c6101205161014051610160516101805160601c615755620002ff6000398061083b52806108d452806109f65280610aa55280610cbe5280610db15280610e4052508061021e525080610f63525080611002525080610f19525080610fb8525080610d8b528061343452508061065f52806125c352508061025a52806104e752806117a75280612d2752806130e552506157556000f3fe6080604052600436106100c75760003560e01c806377725df6116100745780639a2967d21161004e5780639a2967d2146101d4578063dab400f3146101f4578063f35b473314610209576100c7565b806377725df6146101725780637a1eb1b9146101925780638fd3ab80146101b2576100c7565b8063209c02c5116100a5578063209c02c51461012a5780635161b9661461013d5780636ae4b4f714610150576100c7565b8063031b905c146100cc57806308378817146100f75780630f3b31b21461010a575b600080fd5b3480156100d857600080fd5b506100e161021c565b6040516100ee919061480a565b60405180910390f35b6100e1610105366004614277565b610240565b34801561011657600080fd5b506100e1610125366004613e77565b610479565b6100e1610138366004614277565b6104cd565b6100e161014b366004613e0d565b610837565b34801561015c57600080fd5b5061016561098f565b6040516100ee9190614999565b34801561017e57600080fd5b506100e161018d3660046141be565b6109c8565b34801561019e57600080fd5b506100e16101ad366004614205565b610b16565b3480156101be57600080fd5b506101c7610b9d565b6040516100ee9190614849565b3480156101e057600080fd5b506100e16101ef366004613e77565b610cba565b34801561020057600080fd5b506100e1610d89565b6100e1610217366004614178565b610dad565b7f000000000000000000000000000000000000000000000000000000000000000081565b60003073ffffffffffffffffffffffffffffffffffffffff7f00000000000000000000000000000000000000000000000000000000000000001614156102bb576040517f08c379a00000000000000000000000000000000000000000000000000000000081526004016102b290614dd1565b60405180910390fd5b606060006102cb85870187613ee8565b91509150600282511015801561032c57506102e96020880188613c4b565b73ffffffffffffffffffffffffffffffffffffffff168260008151811061030c57fe5b602002602001015173ffffffffffffffffffffffffffffffffffffffff16145b801561038957506103436040880160208901613c4b565b73ffffffffffffffffffffffffffffffffffffffff168260018451038151811061036957fe5b602002602001015173ffffffffffffffffffffffffffffffffffffffff16145b6103bf576040517f08c379a00000000000000000000000000000000000000000000000000000000081526004016102b290614cba565b60006103f4836000815181106103d157fe5b6020026020010151846001815181106103e657fe5b602002602001015184610ecb565b905061040660a0890160808a0161415c565b1561042f5761042a8360008151811061041b57fe5b60200260200101518287611033565b61044f565b61044f8360008151811061043f57fe5b6020026020010151338388611115565b61046b8386848461046660c08e0160a08f01613c4b565b611214565b93505050505b949350505050565b60006104c46040518060a001604052808781526020018581526020018681526020016000151581526020013373ffffffffffffffffffffffffffffffffffffffff168152508361139a565b95945050505050565b60003073ffffffffffffffffffffffffffffffffffffffff7f000000000000000000000000000000000000000000000000000000000000000016141561053f576040517f08c379a00000000000000000000000000000000000000000000000000000000081526004016102b290614f0e565b6000606061054f85870187613c67565b909250905061056460a088016080890161415c565b15610585576105806105796020890189613c4b565b8386611033565b61059d565b61059d6105956020890189613c4b565b338487611115565b60006105af6040890160208a01613c4b565b73ffffffffffffffffffffffffffffffffffffffff166370a082316105da60c08b0160a08c01613c4b565b6040518263ffffffff1660e01b81526004016105f691906147a2565b60206040518083038186803b15801561060e57600080fd5b505afa158015610622573d6000803e3d6000fd5b505050506040513d601f19601f820116820180604052508101906106469190614539565b905073ffffffffffffffffffffffffffffffffffffffff7f00000000000000000000000000000000000000000000000000000000000000001663bb503e218461069260208c018c613c4b565b6106a260408d0160208e01613c4b565b6106b260c08e0160a08f01613c4b565b6000886040518763ffffffff1660e01b81526004016106d696959493929190614906565b600060405180830381600087803b1580156106f057600080fd5b505af1158015610704573d6000803e3d6000fd5b505050506107bc8189602001602081019061071f9190613c4b565b73ffffffffffffffffffffffffffffffffffffffff166370a0823161074a60c08d0160a08e01613c4b565b6040518263ffffffff1660e01b815260040161076691906147a2565b60206040518083038186803b15801561077e57600080fd5b505afa158015610792573d6000803e3d6000fd5b505050506040513d601f19601f820116820180604052508101906107b69190614539565b9061155b565b93507f40a6ba9513d09e3488135e0e0d10e2d4382b792720155b144cbea89ac9db6d346107ec60208a018a613c4b565b6107fc60408b0160208c01613c4b565b8787878d60a00160208101906108129190613c4b565b604051610824969594939291906147c3565b60405180910390a1505050949350505050565b60007f000000000000000000000000000000000000000000000000000000000000000073ffffffffffffffffffffffffffffffffffffffff168460008151811061087d57fe5b602002602001015173ffffffffffffffffffffffffffffffffffffffff16146108d2576040517f08c379a00000000000000000000000000000000000000000000000000000000081526004016102b290614d17565b7f000000000000000000000000000000000000000000000000000000000000000073ffffffffffffffffffffffffffffffffffffffff1663d0e30db0346040518263ffffffff1660e01b81526004016000604051808303818588803b15801561093a57600080fd5b505af115801561094e573d6000803e3d6000fd5b50506040805160a081018252888152346020820152908101879052600160608201523360808201526109859350915084905061139a565b90505b9392505050565b6040518060400160405280601081526020017f4d756c7469706c6578466561747572650000000000000000000000000000000081525081565b6000610a656040518060c001604052808773ffffffffffffffffffffffffffffffffffffffff1681526020017f000000000000000000000000000000000000000000000000000000000000000073ffffffffffffffffffffffffffffffffffffffff1681526020018581526020018681526020016000151581526020013073ffffffffffffffffffffffffffffffffffffffff1681525083611584565b6040517f2e1a7d4d00000000000000000000000000000000000000000000000000000000815290915073ffffffffffffffffffffffffffffffffffffffff7f00000000000000000000000000000000000000000000000000000000000000001690632e1a7d4d90610ada90849060040161480a565b600060405180830381600087803b158015610af457600080fd5b505af1158015610b08573d6000803e3d6000fd5b5050505061047133826116c9565b6000610b936040518060c001604052808873ffffffffffffffffffffffffffffffffffffffff1681526020018773ffffffffffffffffffffffffffffffffffffffff1681526020018581526020018681526020016000151581526020013373ffffffffffffffffffffffffffffffffffffffff1681525083611584565b9695505050505050565b6000610bc87ff35b473300000000000000000000000000000000000000000000000000000000611771565b610bf17f77725df600000000000000000000000000000000000000000000000000000000611771565b610c1a7f7a1eb1b900000000000000000000000000000000000000000000000000000000611771565b610c437f5161b96600000000000000000000000000000000000000000000000000000000611771565b610c6c7f9a2967d200000000000000000000000000000000000000000000000000000000611771565b610c957f0f3b31b200000000000000000000000000000000000000000000000000000000611771565b507f2c64c5ef0000000000000000000000000000000000000000000000000000000090565b60007f000000000000000000000000000000000000000000000000000000000000000073ffffffffffffffffffffffffffffffffffffffff1685600187510381518110610d0357fe5b602002602001015173ffffffffffffffffffffffffffffffffffffffff1614610d58576040517f08c379a00000000000000000000000000000000000000000000000000000000081526004016102b290614fee565b6040805160a0810182528681526020810185905290810185905260006060820152306080820152610a65908361139a565b7f000000000000000000000000000000000000000000000000000000000000000081565b60007f000000000000000000000000000000000000000000000000000000000000000073ffffffffffffffffffffffffffffffffffffffff1663d0e30db0346040518263ffffffff1660e01b81526004016000604051808303818588803b158015610e1757600080fd5b505af1158015610e2b573d6000803e3d6000fd5b50505050506109856040518060c001604052807f000000000000000000000000000000000000000000000000000000000000000073ffffffffffffffffffffffffffffffffffffffff1681526020018673ffffffffffffffffffffffffffffffffffffffff1681526020013481526020018581526020016001151581526020013373ffffffffffffffffffffffffffffffffffffffff1681525083611584565b60008060008473ffffffffffffffffffffffffffffffffffffffff168673ffffffffffffffffffffffffffffffffffffffff1610610f0a578486610f0d565b85855b915091508315610fb6577f00000000000000000000000000000000000000000000000000000000000000008282604051602001610f4b9291906146b0565b604051602081830303815290604052805190602001207f0000000000000000000000000000000000000000000000000000000000000000604051602001610f949392919061473c565b6040516020818303038152906040528051906020012060001c92505050610988565b7f00000000000000000000000000000000000000000000000000000000000000008282604051602001610fea9291906146b0565b604051602081830303815290604052805190602001207f0000000000000000000000000000000000000000000000000000000000000000604051602001610f949392919061473c565b73ffffffffffffffffffffffffffffffffffffffff8316301415611083576040517f08c379a00000000000000000000000000000000000000000000000000000000081526004016102b290614f91565b6040517fa9059cbb00000000000000000000000000000000000000000000000000000000815273ffffffffffffffffffffffffffffffffffffffff83166004820152816024820152602081604483600073ffffffffffffffffffffffffffffffffffffffff89165af13d6001835114602082101516811517821691508161110d57806000843e8083fd5b505050505050565b73ffffffffffffffffffffffffffffffffffffffff8416301415611165576040517f08c379a00000000000000000000000000000000000000000000000000000000081526004016102b290614f91565b6040517f23b872dd00000000000000000000000000000000000000000000000000000000815273ffffffffffffffffffffffffffffffffffffffff8416600482015273ffffffffffffffffffffffffffffffffffffffff83166024820152816044820152602081606483600073ffffffffffffffffffffffffffffffffffffffff8a165af13d6001835114602082101516811517821691508161120b57806000843e8083fd5b50505050505050565b6000805b60018751038110156113905760008088838151811061123357fe5b602002602001015189846001018151811061124a57fe5b6020026020010151915091506112628683838b611804565b93506000808273ffffffffffffffffffffffffffffffffffffffff168473ffffffffffffffffffffffffffffffffffffffff16106112a2578560006112a6565b6000865b91509150600060028c510386106112bd57876112de565b6112de848d88600201815181106112d057fe5b60200260200101518c610ecb565b604080516000815260208101918290527f022c0d9f0000000000000000000000000000000000000000000000000000000090915290915073ffffffffffffffffffffffffffffffffffffffff8a169063022c0d9f906113469086908690869060248101615580565b600060405180830381600087803b15801561136057600080fd5b505af1158015611374573d6000803e3d6000fd5b50505050809850869a5050505050508080600101915050611218565b5095945050505050565b604082015151825151600091600101146113e0576040517f08c379a00000000000000000000000000000000000000000000000000000000081526004016102b290614bda565b82518051600091907fffffffffffffffffffffffffffffffffffffffffffffffffffffffffffffffff810190811061141457fe5b6020026020010151905060008173ffffffffffffffffffffffffffffffffffffffff166370a0823186608001516040518263ffffffff1660e01b815260040161145d91906147a2565b60206040518083038186803b15801561147557600080fd5b505afa158015611489573d6000803e3d6000fd5b505050506040513d601f19601f820116820180604052508101906114ad9190614539565b90506114b7613665565b6114c0866119c2565b90506000611505838573ffffffffffffffffffffffffffffffffffffffff166370a082318a608001516040518263ffffffff1660e01b815260040161076691906147a2565b9050611515818360000151611c15565b945085851015611551576040517f08c379a00000000000000000000000000000000000000000000000000000000081526004016102b290614eb1565b5050505092915050565b6000828211156115795761157961157460028585611c2b565b611cd0565b508082035b92915050565b600080836020015173ffffffffffffffffffffffffffffffffffffffff166370a082318560a001516040518263ffffffff1660e01b81526004016115c891906147a2565b60206040518083038186803b1580156115e057600080fd5b505afa1580156115f4573d6000803e3d6000fd5b505050506040513d601f19601f820116820180604052508101906116189190614539565b90506116226136b9565b61162b85611cd8565b9050600061167483876020015173ffffffffffffffffffffffffffffffffffffffff166370a082318960a001516040518263ffffffff1660e01b815260040161076691906147a2565b9050611684818360200151611c15565b9350848410156116c0576040517f08c379a00000000000000000000000000000000000000000000000000000000081526004016102b290614a66565b50505092915050565b60008273ffffffffffffffffffffffffffffffffffffffff16826040516116ef9061479f565b60006040518083038185875af1925050503d806000811461172c576040519150601f19603f3d011682016040523d82523d6000602084013e611731565b606091505b505090508061176c576040517f08c379a00000000000000000000000000000000000000000000000000000000081526004016102b2906150ce565b505050565b6040517f6eb224cb0000000000000000000000000000000000000000000000000000000081523090636eb224cb906117cf9084907f000000000000000000000000000000000000000000000000000000000000000090600401614876565b600060405180830381600087803b1580156117e957600080fd5b505af11580156117fd573d6000803e3d6000fd5b5050505050565b600080821161183f576040517f08c379a00000000000000000000000000000000000000000000000000000000081526004016102b29061504b565b6000808673ffffffffffffffffffffffffffffffffffffffff16630902f1ac6040518163ffffffff1660e01b815260040160606040518083038186803b15801561188857600080fd5b505afa15801561189c573d6000803e3d6000fd5b505050506040513d601f19601f820116820180604052508101906118c091906144bf565b506dffffffffffffffffffffffffffff1691506dffffffffffffffffffffffffffff1691506000821180156118f55750600081115b61192b576040517f08c379a00000000000000000000000000000000000000000000000000000000081526004016102b29061512b565b6000808673ffffffffffffffffffffffffffffffffffffffff168873ffffffffffffffffffffffffffffffffffffffff161061196857828461196b565b83835b9092509050600061197e876103e5611ec0565b9050600061198c8284611ec0565b905060006119a6836119a0876103e8611ec0565b90611ef1565b90508082816119b157fe5b049c9b505050505050505050505050565b6119ca613665565b602082015181526119dc826000611f0d565b73ffffffffffffffffffffffffffffffffffffffff1660208201526060820151158015611a235750602081015173ffffffffffffffffffffffffffffffffffffffff163314155b15611a5457611a548260000151600081518110611a3c57fe5b60200260200101513383602001518560200151611115565b81606001518015611a7f5750602081015173ffffffffffffffffffffffffffffffffffffffff163014155b15611aaf57611aaf8260000151600081518110611a9857fe5b602002602001015182602001518460200151611033565b600060608201525b816040015151816060015114611c1057611acf6136d3565b8260400151826060015181518110611ae357fe5b60200260200101519050611afe838360600151600101611f0d565b73ffffffffffffffffffffffffffffffffffffffff166040830152600381516008811115611b2857fe5b1415611b4257611b3d828483602001516120cd565b611bdf565b600481516008811115611b5157fe5b1415611b6557611b3d828260200151612216565b600581516008811115611b7457fe5b1415611b8957611b3d828483602001516124d1565b600781516008811115611b9857fe5b1415611bad57611b3d8284836020015161270f565b6040517f08c379a00000000000000000000000000000000000000000000000000000000081526004016102b2906151ae565b50604081015173ffffffffffffffffffffffffffffffffffffffff1660208201526060810180516001019052611ab7565b919050565b6000818310611c245781610988565b5090919050565b606063e946c1bb60e01b848484604051602401611c4a93929190614961565b604080517fffffffffffffffffffffffffffffffffffffffffffffffffffffffffffffffe08184030181529190526020810180517bffffffffffffffffffffffffffffffffffffffffffffffffffffffff167fffffffff000000000000000000000000000000000000000000000000000000009093169290921790915290509392505050565b805160208201fd5b611ce06136b9565b60005b8260600151518114611e81576040830151825110611d0057611e81565b611d086136eb565b83606001518281518110611d1857fe5b602002602001015190506000611d3b8260200151866040015186600001516127fa565b9050600182516008811115611d4c57fe5b1415611d6757611d62848684604001518461288c565b611e77565b600282516008811115611d7657fe5b1415611d8c57611d628486846040015184612ade565b600382516008811115611d9b57fe5b1415611db157611d628486846040015184612d21565b600482516008811115611dc057fe5b1415611dd657611d628486846040015184612e91565b600582516008811115611de557fe5b1415611dfb57611d6284868460400151846130df565b600682516008811115611e0a57fe5b1415611e2057611d628486846040015184613137565b600882516008811115611e2f57fe5b1415611e4557611d628486846040015184613288565b6040517f08c379a00000000000000000000000000000000000000000000000000000000081526004016102b2906149ac565b5050600101611ce3565b506040820151815114611c10576040517f08c379a00000000000000000000000000000000000000000000000000000000081526004016102b290614a09565b600082611ecf5750600061157e565b82820282848281611edc57fe5b04146109885761098861157460018686611c2b565b6000828201838110156109885761098861157460008686611c2b565b6000826040015151821415611f2757506080820151612080565b611f2f6136d3565b83604001518381518110611f3f57fe5b6020026020010151905060036008811115611f5657fe5b81516008811115611f6357fe5b1415611fc557606060008260200151806020019051810190611f859190613f38565b91509150611fbc82600081518110611f9957fe5b602002602001015183600181518110611fae57fe5b602002602001015183610ecb565b9350505061207e565b600581516008811115611fd457fe5b1415611ffa578060200151806020019051810190611ff29190613cb5565b50915061207e565b60048151600881111561200957fe5b1480612021575060078151600881111561201f57fe5b145b1561204c578215801561203657508360600151155b1561204357339150612047565b3091505b61207e565b6040517f08c379a00000000000000000000000000000000000000000000000000000000081526004016102b290614b7d565b505b73ffffffffffffffffffffffffffffffffffffffff811661157e576040517f08c379a00000000000000000000000000000000000000000000000000000000081526004016102b290614d74565b60606000828060200190518101906120e59190613f38565b9150915060028251101580156121525750835160608601518151811061210757fe5b602002602001015173ffffffffffffffffffffffffffffffffffffffff168260008151811061213257fe5b602002602001015173ffffffffffffffffffffffffffffffffffffffff16145b80156121be5750836000015185606001516001018151811061217057fe5b602002602001015173ffffffffffffffffffffffffffffffffffffffff168260018451038151811061219e57fe5b602002602001015173ffffffffffffffffffffffffffffffffffffffff16145b6121f4576040517f08c379a00000000000000000000000000000000000000000000000000000000081526004016102b290614b20565b61220d8286600001518388602001518960400151611214565b90945250505050565b600060603073ffffffffffffffffffffffffffffffffffffffff16846020015173ffffffffffffffffffffffffffffffffffffffff161415612368578351604080860151905130927f4a931ba10000000000000000000000000000000000000000000000000000000092612292928892916000916024016148be565b604080517fffffffffffffffffffffffffffffffffffffffffffffffffffffffffffffffe08184030181529181526020820180517bffffffffffffffffffffffffffffffffffffffffffffffffffffffff167fffffffff0000000000000000000000000000000000000000000000000000000090941693909317909252905161231b91906146ea565b6000604051808303816000865af19150503d8060008114612358576040519150601f19603f3d011682016040523d82523d6000602084013e61235d565b606091505b509092509050612478565b8351604080860151905130927f6af479b200000000000000000000000000000000000000000000000000000000926123a8928892916000916024016148be565b604080517fffffffffffffffffffffffffffffffffffffffffffffffffffffffffffffffe08184030181529181526020820180517bffffffffffffffffffffffffffffffffffffffffffffffffffffffff167fffffffff0000000000000000000000000000000000000000000000000000000090941693909317909252905161243191906146ea565b600060405180830381855af49150503d806000811461246c576040519150601f19603f3d011682016040523d82523d6000602084013e612471565b606091505b5090925090505b811561249957808060200190518101906124929190614539565b84526124cb565b6040517f08c379a00000000000000000000000000000000000000000000000000000000081526004016102b290614c5d565b50505050565b600082600001518460600151815181106124e757fe5b602002602001015190506000836000015185606001516001018151811061250a57fe5b60200260200101519050600060608480602001905181019061252c9190613cb5565b9150915060008373ffffffffffffffffffffffffffffffffffffffff166370a0823189604001516040518263ffffffff1660e01b815260040161256f91906147a2565b60206040518083038186803b15801561258757600080fd5b505afa15801561259b573d6000803e3d6000fd5b505050506040513d601f19601f820116820180604052508101906125bf9190614539565b90507f000000000000000000000000000000000000000000000000000000000000000073ffffffffffffffffffffffffffffffffffffffff1663bb503e218487878c604001516000886040518763ffffffff1660e01b815260040161262996959493929190614906565b600060405180830381600087803b15801561264357600080fd5b505af1158015612657573d6000803e3d6000fd5b505089516040808c015190517f70a082310000000000000000000000000000000000000000000000000000000081529193506126bb9250849173ffffffffffffffffffffffffffffffffffffffff8916916370a082319161076691906004016147a2565b808a526040808b015190517f40a6ba9513d09e3488135e0e0d10e2d4382b792720155b144cbea89ac9db6d34926126fc928a928a92879290918b91906147c3565b60405180910390a1505050505050505050565b61271761370d565b8180602001905181019061272b9190613f7d565b6060808301919091528351908501518151811061274457fe5b602090810291909101015173ffffffffffffffffffffffffffffffffffffffff168152825160608501518151600190910190811061277e57fe5b60209081029190910181015173ffffffffffffffffffffffffffffffffffffffff16908201528351604082015260608401511515806127be575082606001515b15156080820152604084015173ffffffffffffffffffffffffffffffffffffffff1660a08201526127ee81611cd8565b60200151909352505050565b60007f8000000000000000000000000000000000000000000000000000000000000000808516141561287e57612877670de0b6b3a764000061285e7f7fffffffffffffffffffffffffffffffffffffffffffffffffffffffffffffff871682611c15565b85028161286757fe5b04612872858561155b565b611c15565b9050610988565b61287784612872858561155b565b612894613741565b61289c613795565b838060200190518101906128b091906143e0565b915091504267ffffffffffffffff1682610100015167ffffffffffffffff16116129355760006128e76128e2846132f9565b613430565b90507fd9ee00a67daf7d99c37893015dc900862c9a02650ef2d318697e502e5fb8bbe281846080015185610100015160405161292593929190614813565b60405180910390a15050506124cb565b846000015173ffffffffffffffffffffffffffffffffffffffff16826020015173ffffffffffffffffffffffffffffffffffffffff161480156129ab5750846020015173ffffffffffffffffffffffffffffffffffffffff16826000015173ffffffffffffffffffffffffffffffffffffffff16145b6129e1576040517f08c379a00000000000000000000000000000000000000000000000000000000081526004016102b290614e54565b3063aa6b21cd83836129f287613482565b338a608001518b60a001516040518763ffffffff1660e01b8152600401612a1e969594939291906153e6565b6040805180830381600087803b158015612a3757600080fd5b505af1925050508015612a85575060408051601f3d9081017fffffffffffffffffffffffffffffffffffffffffffffffffffffffffffffffe0168201909252612a829181019061450b565b60015b612a8e5761110d565b8751612aac906fffffffffffffffffffffffffffffffff8416611ef1565b88526020880151612acf906fffffffffffffffffffffffffffffffff8316611ef1565b60208901525050505050505050565b612ae66137be565b612aee613795565b83806020019051810190612b029190614315565b91509150846000015173ffffffffffffffffffffffffffffffffffffffff16826020015173ffffffffffffffffffffffffffffffffffffffff16148015612b7c5750846020015173ffffffffffffffffffffffffffffffffffffffff16826000015173ffffffffffffffffffffffffffffffffffffffff16145b612bb2576040517f08c379a00000000000000000000000000000000000000000000000000000000081526004016102b290614ac3565b60e082015160c01c67ffffffffffffffff42168111612c23576000612bd96128e2856134ae565b90507f5574c085411e1dce1414a21a43f286a7bc07de97b0aa6b9143fd5dca66faa58381856080015184604051612c1293929190614813565b60405180910390a1505050506124cb565b3063e4ba84398484612c3488613482565b338b608001518c60a001516040518763ffffffff1660e01b8152600401612c60969594939291906152f3565b6040805180830381600087803b158015612c7957600080fd5b505af1925050508015612cc7575060408051601f3d9081017fffffffffffffffffffffffffffffffffffffffffffffffffffffffffffffffe0168201909252612cc49181019061450b565b60015b612cd05761120b565b8851612cee906fffffffffffffffffffffffffffffffff8416611ef1565b89526020890151612d11906fffffffffffffffffffffffffffffffff8316611ef1565b60208a0152505050505050505050565b600060607f000000000000000000000000000000000000000000000000000000000000000073ffffffffffffffffffffffffffffffffffffffff16630837881760e01b868686604051602401612d799392919061520b565b604080517fffffffffffffffffffffffffffffffffffffffffffffffffffffffffffffffe08184030181529181526020820180517bffffffffffffffffffffffffffffffffffffffffffffffffffffffff167fffffffff00000000000000000000000000000000000000000000000000000000909416939093179092529051612e0291906146ea565b600060405180830381855af49150503d8060008114612e3d576040519150601f19603f3d011682016040523d82523d6000602084013e612e42565b606091505b5091509150811561110d57600081806020019051810190612e639190614539565b8751909150612e729085611ef1565b87526020870151612e839082611ef1565b602088015250505050505050565b60006060846080015115612fb45760a085015160405130917f4a931ba10000000000000000000000000000000000000000000000000000000091612ede91889188916000916024016148be565b604080517fffffffffffffffffffffffffffffffffffffffffffffffffffffffffffffffe08184030181529181526020820180517bffffffffffffffffffffffffffffffffffffffffffffffffffffffff167fffffffff00000000000000000000000000000000000000000000000000000000909416939093179092529051612f6791906146ea565b6000604051808303816000865af19150503d8060008114612fa4576040519150601f19603f3d011682016040523d82523d6000602084013e612fa9565b606091505b5090925090506130c3565b60a085015160405130917f6af479b20000000000000000000000000000000000000000000000000000000091612ff391889188916000916024016148be565b604080517fffffffffffffffffffffffffffffffffffffffffffffffffffffffffffffffe08184030181529181526020820180517bffffffffffffffffffffffffffffffffffffffffffffffffffffffff167fffffffff0000000000000000000000000000000000000000000000000000000090941693909317909252905161307c91906146ea565b600060405180830381855af49150503d80600081146130b7576040519150601f19603f3d011682016040523d82523d6000602084013e6130bc565b606091505b5090925090505b811561110d57600081806020019051810190612e639190614539565b600060607f000000000000000000000000000000000000000000000000000000000000000073ffffffffffffffffffffffffffffffffffffffff1663209c02c560e01b868686604051602401612d799392919061520b565b61313f613802565b338152835173ffffffffffffffffffffffffffffffffffffffff9081166020808401919091528086015182166040840152606083018490526000608080850191909152860151151560c084015260a086015190911660e083015283516131ac919085018101908501614079565b60a08201526040517f8aa6539b0000000000000000000000000000000000000000000000000000000081523090638aa6539b906131ed9084906004016154dc565b602060405180830381600087803b15801561320757600080fd5b505af1925050508015613255575060408051601f3d9081017fffffffffffffffffffffffffffffffffffffffffffffffffffffffffffffffe016820190925261325291810190614539565b60015b61325e576117fd565b855161326a9084611ef1565b8652602086015161327b9082611ef1565b6020870152505050505050565b613290613845565b828060200190518101906132a49190613cfa565b60408301528152602081018290526080808501511515606083015260a085015173ffffffffffffffffffffffffffffffffffffffff169082015260006132e9826119c2565b51865190915061326a9084611ef1565b60006040517fe593d3fdfa8b60e5e17a1b2204662ecbe15c23f2084b9ad5bae40359540a7da98152825173ffffffffffffffffffffffffffffffffffffffff166020820152602083015173ffffffffffffffffffffffffffffffffffffffff16604082015260408301516fffffffffffffffffffffffffffffffff16606082015260608301516fffffffffffffffffffffffffffffffff166080820152608083015173ffffffffffffffffffffffffffffffffffffffff1660a082015260a083015173ffffffffffffffffffffffffffffffffffffffff1660c082015260c083015173ffffffffffffffffffffffffffffffffffffffff1660e082015260e083015161010082015261010083015167ffffffffffffffff166101208201526101208301516101408201526101608120915050919050565b60007f000000000000000000000000000000000000000000000000000000000000000082604051602001613465929190614706565b604051602081830303815290604052805190602001209050919050565b60006fffffffffffffffffffffffffffffffff8211156134aa576134aa6115746003846135c3565b5090565b60006040517f2f754524de756ae72459efbe1ec88c19a745639821de528ac3fb88f9e65e35c88152825173ffffffffffffffffffffffffffffffffffffffff166020820152602083015173ffffffffffffffffffffffffffffffffffffffff16604082015260408301516fffffffffffffffffffffffffffffffff16606082015260608301516fffffffffffffffffffffffffffffffff166080820152608083015173ffffffffffffffffffffffffffffffffffffffff1660a082015260a083015173ffffffffffffffffffffffffffffffffffffffff1660c082015260c083015173ffffffffffffffffffffffffffffffffffffffff1660e082015260e08301516101008201526101208120915050919050565b606063c996af7b60e01b83836040516024016135e0929190614982565b604080517fffffffffffffffffffffffffffffffffffffffffffffffffffffffffffffffe08184030181529190526020810180517bffffffffffffffffffffffffffffffffffffffffffffffffffffffff167fffffffff0000000000000000000000000000000000000000000000000000000090931692909217909152905092915050565b604051806080016040528060008152602001600073ffffffffffffffffffffffffffffffffffffffff168152602001600073ffffffffffffffffffffffffffffffffffffffff168152602001600081525090565b604051806040016040528060008152602001600081525090565b60408051808201909152600081526060602082015290565b6040805160608101909152806000815260200160008152602001606081525090565b6040805160c0810182526000808252602082018190529181018290526060808201526080810182905260a081019190915290565b6040805161014081018252600080825260208201819052918101829052606081018290526080810182905260a0810182905260c0810182905260e08101829052610100810182905261012081019190915290565b604080516080810190915280600081526000602082018190526040820181905260609091015290565b6040805161010081018252600080825260208201819052918101829052606081018290526080810182905260a0810182905260c0810182905260e081019190915290565b604080516101008101825260008082526020820181905291810182905260608082018390526080820183905260a082015260c0810182905260e081019190915290565b6040518060a00160405280606081526020016000815260200160608152602001600015158152602001600073ffffffffffffffffffffffffffffffffffffffff1681525090565b805161157e81615696565b600082601f8301126138a7578081fd5b81356138ba6138b5826155e2565b6155bb565b8181529150602080830190848101818402860182018710156138db57600080fd5b60005b848110156139035781356138f181615696565b845292820192908201906001016138de565b505050505092915050565b600082601f83011261391e578081fd5b815161392c6138b5826155e2565b81815291506020808301908481018184028601820187101561394d57600080fd5b60005b8481101561390357815161396381615696565b84529282019290820190600101613950565b600082601f830112613985578081fd5b81356139936138b5826155e2565b818152915060208083019084810160005b8481101561390357813587016060807fffffffffffffffffffffffffffffffffffffffffffffffffffffffffffffffe0838c030112156139e357600080fd5b6139ec816155bb565b858301356139f9816156c6565b815260408381013587830152918301359167ffffffffffffffff831115613a1f57600080fd5b613a2d8c8885870101613b0a565b908201528652505092820192908201906001016139a4565b600082601f830112613a55578081fd5b8135613a636138b5826155e2565b818152915060208083019084810160005b8481101561390357813587016040807fffffffffffffffffffffffffffffffffffffffffffffffffffffffffffffffe0838c03011215613ab357600080fd5b613abc816155bb565b613ac88b878501613ba5565b8152908201359067ffffffffffffffff821115613ae457600080fd5b613af28b8784860101613b0a565b81870152865250509282019290820190600101613a74565b600082601f830112613b1a578081fd5b8135613b286138b582615602565b9150808252836020828501011115613b3f57600080fd5b8060208401602084013760009082016020015292915050565b600082601f830112613b68578081fd5b8151613b766138b582615602565b9150808252836020828501011115613b8d57600080fd5b613b9e81602084016020860161565d565b5092915050565b803561157e816156c6565b600060808284031215613bc1578081fd5b613bcb60806155bb565b9050815160048110613bdc57600080fd5b8152602082015160ff81168114613bf257600080fd5b80602083015250604082015160408201526060820151606082015292915050565b80516fffffffffffffffffffffffffffffffff8116811461157e57600080fd5b805167ffffffffffffffff8116811461157e57600080fd5b600060208284031215613c5c578081fd5b813561098881615696565b60008060408385031215613c79578081fd5b8235613c8481615696565b9150602083013567ffffffffffffffff811115613c9f578182fd5b613cab85828601613b0a565b9150509250929050565b60008060408385031215613cc7578182fd5b8251613cd281615696565b602084015190925067ffffffffffffffff811115613cee578182fd5b613cab85828601613b58565b60008060408385031215613d0c578182fd5b825167ffffffffffffffff80821115613d23578384fd5b613d2f8683870161390e565b9350602091508185015181811115613d45578384fd5b8501601f81018713613d55578384fd5b8051613d636138b5826155e2565b81815284810190838601875b84811015613dfc578151860160407fffffffffffffffffffffffffffffffffffffffffffffffffffffffffffffffe0828f03011215613dac57898afd5b613db660406155bb565b89820151613dc3816156c6565b8152604082015189811115613dd6578b8cfd5b613de48f8c83860101613b58565b828c0152508552509287019290870190600101613d6f565b50979a909950975050505050505050565b600080600060608486031215613e21578081fd5b833567ffffffffffffffff80821115613e38578283fd5b613e4487838801613897565b94506020860135915080821115613e59578283fd5b50613e6686828701613a45565b925050604084013590509250925092565b60008060008060808587031215613e8c578182fd5b843567ffffffffffffffff80821115613ea3578384fd5b613eaf88838901613897565b95506020870135915080821115613ec4578384fd5b50613ed187828801613a45565b949794965050505060408301359260600135919050565b60008060408385031215613efa578182fd5b823567ffffffffffffffff811115613f10578283fd5b613f1c85828601613897565b9250506020830135613f2d816156b8565b809150509250929050565b60008060408385031215613f4a578182fd5b825167ffffffffffffffff811115613f60578283fd5b613f6c8582860161390e565b9250506020830151613f2d816156b8565b60006020808385031215613f8f578182fd5b825167ffffffffffffffff80821115613fa6578384fd5b818501915085601f830112613fb9578384fd5b8151613fc76138b5826155e2565b81815284810190848601875b8481101561406a57815187016060807fffffffffffffffffffffffffffffffffffffffffffffffffffffffffffffffe0838f03011215614011578a8bfd5b61401a816155bb565b8a830151614027816156c6565b81526040838101518c830152918301519189831115614044578c8dfd5b6140528f8d85870101613b58565b90820152865250509287019290870190600101613fd3565b50909998505050505050505050565b6000602080838503121561408b578182fd5b825167ffffffffffffffff808211156140a2578384fd5b818501915085601f8301126140b5578384fd5b81516140c36138b5826155e2565b81815284810190848601875b8481101561406a57815187016040807fffffffffffffffffffffffffffffffffffffffffffffffffffffffffffffffe0838f0301121561410d578a8bfd5b614116816155bb565b8a8301516141238161570d565b8152908201519088821115614136578b8cfd5b6141448e8c84860101613b58565b818c01528652505092870192908701906001016140cf565b60006020828403121561416d578081fd5b8135610988816156b8565b60008060006060848603121561418c578081fd5b833561419781615696565b9250602084013567ffffffffffffffff8111156141b2578182fd5b613e6686828701613975565b600080600080608085870312156141d3578182fd5b84356141de81615696565b9350602085013567ffffffffffffffff8111156141f9578283fd5b613ed187828801613975565b600080600080600060a0868803121561421c578283fd5b853561422781615696565b9450602086013561423781615696565b9350604086013567ffffffffffffffff811115614252578384fd5b61425e88828901613975565b9598949750949560608101359550608001359392505050565b6000806000806060858703121561428c578182fd5b843567ffffffffffffffff808211156142a3578384fd5b9086019060c082890312156142b6578384fd5b909450602086013590808211156142cb578384fd5b818701915087601f8301126142de578384fd5b8135818111156142ec578485fd5b8860208285010111156142fd578485fd5b95986020929092019750949560400135945092505050565b600080828403610180811215614329578283fd5b61010080821215614338578384fd5b614341816155bb565b9150845161434e81615696565b825261435d866020870161388c565b602083015261436f8660408701613c13565b60408301526143818660608701613c13565b6060830152614393866080870161388c565b60808301526143a58660a0870161388c565b60a08301526143b78660c0870161388c565b60c083015260e085015160e08301528193506143d586828701613bb0565b925050509250929050565b6000808284036101c08112156143f4578283fd5b61014080821215614403578384fd5b61440c816155bb565b9150614418868661388c565b8252614427866020870161388c565b60208301526144398660408701613c13565b604083015261444b8660608701613c13565b606083015261445d866080870161388c565b608083015261446f8660a0870161388c565b60a08301526144818660c0870161388c565b60c083015260e085015160e083015261010061449f87828801613c33565b81840152506101208086015181840152508193506143d586828701613bb0565b6000806000606084860312156144d3578081fd5b83516144de816156d3565b60208501519093506144ef816156d3565b60408501519092506145008161570d565b809150509250925092565b6000806040838503121561451d578182fd5b8251614528816156ef565b6020840151909250613f2d816156ef565b60006020828403121561454a578081fd5b5051919050565b600081516009811061455f57fe5b80845250602082015160208401526040820151606060408501526104716060850182614613565b73ffffffffffffffffffffffffffffffffffffffff169052565b6000815180845260208085018081965082840281019150828601855b858110156146005782840389528151805163ffffffff16855285015160408686018190526145ec81870183614613565b9a87019a95505050908401906001016145bc565b5091979650505050505050565b15159052565b6000815180845261462b81602086016020860161565d565b601f017fffffffffffffffffffffffffffffffffffffffffffffffffffffffffffffffe0169290920160200192915050565b805161466881615689565b825260208181015160ff169083015260408082015190830152606090810151910152565b6fffffffffffffffffffffffffffffffff169052565b67ffffffffffffffff169052565b7fffffffffffffffffffffffffffffffffffffffff000000000000000000000000606093841b811682529190921b16601482015260280190565b600082516146fc81846020870161565d565b9190910192915050565b7f190100000000000000000000000000000000000000000000000000000000000081526002810192909252602282015260420190565b7fff00000000000000000000000000000000000000000000000000000000000000815260609390931b7fffffffffffffffffffffffffffffffffffffffff0000000000000000000000001660018401526015830191909152603582015260550190565b90565b73ffffffffffffffffffffffffffffffffffffffff91909116815260200190565b73ffffffffffffffffffffffffffffffffffffffff96871681529486166020860152604085019390935260608401919091528316608083015290911660a082015260c00190565b90815260200190565b92835273ffffffffffffffffffffffffffffffffffffffff91909116602083015267ffffffffffffffff16604082015260600190565b7fffffffff0000000000000000000000000000000000000000000000000000000091909116815260200190565b7fffffffff0000000000000000000000000000000000000000000000000000000092909216825273ffffffffffffffffffffffffffffffffffffffff16602082015260400190565b6000608082526148d16080830187614613565b60208301959095525060ff92909216604083015273ffffffffffffffffffffffffffffffffffffffff16606090910152919050565b600073ffffffffffffffffffffffffffffffffffffffff80891683528088166020840152808716604084015280861660608401525083608083015260c060a083015261495560c0830184614613565b98975050505050505050565b6060810161496e85615689565b938152602081019290925260409091015290565b6040810161498f84615689565b9281526020015290565b6000602082526109886020830184614613565b60208082526033908201527f4d756c7469706c6578466561747572653a3a5f6578656375746542617463685360408201527f656c6c2f494e56414c49445f53554243414c4c00000000000000000000000000606082015260800190565b60208082526039908201527f4d756c7469706c6578466561747572653a3a5f6578656375746542617463685360408201527f656c6c2f494e434f52524543545f414d4f554e545f534f4c4400000000000000606082015260800190565b60208082526031908201527f4d756c7469706c6578466561747572653a3a5f6d756c7469706c65784261746360408201527f6853656c6c2f554e444552424f55474854000000000000000000000000000000606082015260800190565b60208082526039908201527f4d756c7469706c65784f74633a3a5f626174636853656c6c4f74634f7264657260408201527f2f4f54435f4f524445525f494e56414c49445f544f4b454e5300000000000000606082015260800190565b60208082526039908201527f4d756c7469706c6578556e697377617056323a3a5f6d756c7469486f7053656c60408201527f6c556e697377617056322f494e56414c49445f544f4b454e5300000000000000606082015260800190565b60208082526033908201527f4d756c7469706c6578466561747572653a3a5f636f6d70757465486f7054617260408201527f6765742f494e56414c49445f53554243414c4c00000000000000000000000000606082015260800190565b60208082526041908201527f4d756c7469706c6578466561747572653a3a5f6d756c7469706c65784d756c7460408201527f69486f7053656c6c2f4d49534d4154434845445f41525241595f4c454e47544860608201527f5300000000000000000000000000000000000000000000000000000000000000608082015260a00190565b60208082526036908201527f4d756c7469706c6578556e697377617056333a3a5f6d756c7469486f7053656c60408201527f6c556e697377617056332f535741505f4641494c454400000000000000000000606082015260800190565b60208082526036908201527f4d756c7469706c6578556e697377617056323a3a5f626174636853656c6c556e60408201527f697377617056322f494e56414c49445f544f4b454e5300000000000000000000606082015260800190565b6020808252603b908201527f4d756c7469706c6578466561747572653a3a6d756c7469706c65784d756c746960408201527f486f7053656c6c457468466f72546f6b656e2f4e4f545f574554480000000000606082015260800190565b60208082526032908201527f4d756c7469706c6578466561747572653a3a5f636f6d70757465486f7054617260408201527f6765742f5441524745545f49535f4e554c4c0000000000000000000000000000606082015260800190565b60208082526049908201527f4d756c7469706c65784c697175696469747950726f76696465723a3a5f62617460408201527f636853656c6c556e6973776170563245787465726e616c2f4f4e4c595f44454c60608201527f454741544543414c4c0000000000000000000000000000000000000000000000608082015260a00190565b60208082526039908201527f4d756c7469706c65785266713a3a5f626174636853656c6c5266714f7264657260408201527f2f5246515f4f524445525f494e56414c49445f544f4b454e5300000000000000606082015260800190565b60208082526034908201527f4d756c7469706c6578466561747572653a3a5f6d756c7469706c65784d756c7460408201527f69486f7053656c6c2f554e444552424f55474854000000000000000000000000606082015260800190565b60208082526051908201527f4d756c7469706c65784c697175696469747950726f76696465723a3a5f62617460408201527f636853656c6c4c697175696469747950726f766964657245787465726e616c2f60608201527f4f4e4c595f44454c454741544543414c4c000000000000000000000000000000608082015260a00190565b60208082526024908201527f466978696e546f6b656e5370656e6465722f43414e4e4f545f494e564f4b455f60408201527f53454c4600000000000000000000000000000000000000000000000000000000606082015260800190565b6020808252603b908201527f4d756c7469706c6578466561747572653a3a6d756c7469706c65784d756c746960408201527f486f7053656c6c546f6b656e466f724574682f4e4f545f574554480000000000606082015260800190565b60208082526049908201527f4d756c7469706c6578556e697377617056323a3a5f636f6d70757465556e697360408201527f7761704f7574707574416d6f756e742f494e53554646494349454e545f494e5060608201527f55545f414d4f554e540000000000000000000000000000000000000000000000608082015260a00190565b6020808252602e908201527f4d756c7469706c6578466561747572653a3a5f7472616e736665724574682f5460408201527f52414e534645525f4641494c4544000000000000000000000000000000000000606082015260800190565b60208082526046908201527f4d756c7469706c6578556e697377617056323a3a5f636f6d70757465556e697360408201527f7761704f7574707574416d6f756e742f494e53554646494349454e545f4c495160608201527f5549444954590000000000000000000000000000000000000000000000000000608082015260a00190565b60208082526036908201527f4d756c7469706c6578466561747572653a3a5f657865637574654d756c74694860408201527f6f7053656c6c2f494e56414c49445f53554243414c4c00000000000000000000606082015260800190565b60006060825261012082016152208651615644565b6060840152602073ffffffffffffffffffffffffffffffffffffffff81880151166080850152604087015160a0850152606087015160c080860152828151615268818661480a565b9450918301918491508084028201865b828110156152a2578682038452615290828651614551565b94860194938601939150600101615278565b5060808b015195506152b760e089018761460d565b60a08b015195506152cc610100890187614586565b878103858901526152dd818b614613565b9650505050505050826040830152949350505050565b865161020082019061530490615644565b825273ffffffffffffffffffffffffffffffffffffffff602089015116602083015260408801516fffffffffffffffffffffffffffffffff80821660408501528060608b0151166060850152505060808801516153646080840182614586565b5060a088015161537760a0840182614586565b5060c088015161538a60c0840182614586565b5060e088015160e08301526153a361010083018861465d565b6153b161018083018761468c565b6153bf6101a0830186614586565b6153cd6101c083018561460d565b6153db6101e0830184614586565b979650505050505050565b6000610240820190506153fa828951614586565b602088015161540c6020840182614586565b50604088015161541f604084018261468c565b506060880151615432606084018261468c565b5060808801516154456080840182614586565b5060a088015161545860a0840182614586565b5060c088015161546b60c0840182614586565b5060e088015160e083015261010080890151615489828501826146a2565b505061012088810151908301526154a461014083018861465d565b6154b26101c083018761468c565b6154c06101e0830186614586565b6154ce61020083018561460d565b6153db610220830184614586565b60006020825273ffffffffffffffffffffffffffffffffffffffff80845116602084015280602085015116604084015250604083015161551f6060840182614586565b5060608301516080830152608083015160a083015260a08301516101008060c08501526155506101208501836145a0565b915060c085015161556460e086018261460d565b5060e085015161557682860182614586565b5090949350505050565b600085825284602083015273ffffffffffffffffffffffffffffffffffffffff8416604083015260806060830152610b936080830184614613565b60405181810167ffffffffffffffff811182821017156155da57600080fd5b604052919050565b600067ffffffffffffffff8211156155f8578081fd5b5060209081020190565b600067ffffffffffffffff821115615618578081fd5b50601f017fffffffffffffffffffffffffffffffffffffffffffffffffffffffffffffffe01660200190565b73ffffffffffffffffffffffffffffffffffffffff1690565b60005b83811015615678578181015183820152602001615660565b838111156124cb5750506000910152565b6004811061569357fe5b50565b73ffffffffffffffffffffffffffffffffffffffff8116811461569357600080fd5b801515811461569357600080fd5b6009811061569357600080fd5b6dffffffffffffffffffffffffffff8116811461569357600080fd5b6fffffffffffffffffffffffffffffffff8116811461569357600080fd5b63ffffffff8116811461569357600080fdfea264697066735822122061698ff36f33bc6810ef488849ce415f6c4787aec4c65dc2e15364abd0bbcd9064736f6c634300060c0033",
                "opcodes": "PUSH2 0x1A0 PUSH1 0x40 MSTORE PUSH3 0x14 PUSH1 0x2 PUSH1 0x0 DUP1 PUSH3 0x143 JUMP JUMPDEST PUSH2 0x160 MSTORE CALLVALUE DUP1 ISZERO PUSH3 0x25 JUMPI PUSH1 0x0 DUP1 REVERT JUMPDEST POP PUSH1 0x40 MLOAD PUSH3 0x5A54 CODESIZE SUB DUP1 PUSH3 0x5A54 DUP4 CODECOPY DUP2 ADD PUSH1 0x40 DUP2 SWAP1 MSTORE PUSH3 0x48 SWAP2 PUSH3 0x175 JUMP JUMPDEST ADDRESS PUSH1 0x60 SWAP1 DUP2 SHL PUSH1 0x80 MSTORE DUP6 SWAP1 SHL PUSH1 0x1 PUSH1 0x1 PUSH1 0x60 SHL SUB NOT AND PUSH1 0xA0 MSTORE PUSH1 0x40 MLOAD DUP5 SWAP1 DUP5 SWAP1 DUP5 SWAP1 DUP5 SWAP1 DUP12 SWAP1 CHAINID SWAP1 PUSH3 0xE8 SWAP1 PUSH32 0x8B73C3C69BB8FE3D512ECC4CF759CC79239F7B179B0FFACAA9A75D522B39400F SWAP1 PUSH32 0x9E5DAE0ADDAF20578AEB5D70341D092B53B4E14480AC5726438FD436DF7BA427 SWAP1 PUSH32 0x6C015BD22B4C69690933C1058878EBDFEF31F9AAAE40BBE86D8A09FE1B2972C SWAP1 DUP6 SWAP1 DUP8 SWAP1 PUSH1 0x20 ADD PUSH3 0x207 JUMP JUMPDEST PUSH1 0x40 DUP1 MLOAD PUSH1 0x1F NOT DUP2 DUP5 SUB ADD DUP2 MSTORE SWAP2 SWAP1 MSTORE DUP1 MLOAD PUSH1 0x20 SWAP1 SWAP2 ADD KECCAK256 PUSH1 0xC0 MSTORE POP POP PUSH1 0x1 PUSH1 0x1 PUSH1 0x60 SHL SUB NOT PUSH1 0x60 SWAP5 DUP6 SHL DUP2 AND PUSH1 0xE0 MSTORE SWAP3 DUP5 SHL DUP4 AND PUSH2 0x100 MSTORE PUSH2 0x120 SWAP2 SWAP1 SWAP2 MSTORE PUSH2 0x140 MSTORE SWAP7 SWAP1 SHL SWAP1 SWAP6 AND PUSH2 0x180 MSTORE POP PUSH3 0x24C SWAP5 POP POP POP POP POP JUMP JUMPDEST PUSH12 0xFFFFFFFF0000000000000000 PUSH1 0x40 DUP5 SWAP1 SHL AND PUSH8 0xFFFFFFFF00000000 PUSH1 0x20 DUP5 SWAP1 SHL AND OR PUSH4 0xFFFFFFFF DUP3 AND OR SWAP4 SWAP3 POP POP POP JUMP JUMPDEST PUSH1 0x0 DUP1 PUSH1 0x0 DUP1 PUSH1 0x0 DUP1 PUSH1 0x0 PUSH1 0xE0 DUP9 DUP11 SUB SLT ISZERO PUSH3 0x190 JUMPI DUP3 DUP4 REVERT JUMPDEST DUP8 MLOAD PUSH3 0x19D DUP2 PUSH3 0x233 JUMP JUMPDEST PUSH1 0x20 DUP10 ADD MLOAD SWAP1 SWAP8 POP PUSH3 0x1B0 DUP2 PUSH3 0x233 JUMP JUMPDEST PUSH1 0x40 DUP10 ADD MLOAD SWAP1 SWAP7 POP PUSH3 0x1C3 DUP2 PUSH3 0x233 JUMP JUMPDEST PUSH1 0x60 DUP10 ADD MLOAD SWAP1 SWAP6 POP PUSH3 0x1D6 DUP2 PUSH3 0x233 JUMP JUMPDEST PUSH1 0x80 DUP10 ADD MLOAD SWAP1 SWAP5 POP PUSH3 0x1E9 DUP2 PUSH3 0x233 JUMP JUMPDEST DUP1 SWAP4 POP POP PUSH1 0xA0 DUP9 ADD MLOAD SWAP2 POP PUSH1 0xC0 DUP9 ADD MLOAD SWAP1 POP SWAP3 SWAP6 SWAP9 SWAP2 SWAP5 SWAP8 POP SWAP3 SWAP6 POP JUMP JUMPDEST SWAP5 DUP6 MSTORE PUSH1 0x20 DUP6 ADD SWAP4 SWAP1 SWAP4 MSTORE PUSH1 0x40 DUP5 ADD SWAP2 SWAP1 SWAP2 MSTORE PUSH1 0x60 DUP4 ADD MSTORE PUSH1 0x1 PUSH1 0x1 PUSH1 0xA0 SHL SUB AND PUSH1 0x80 DUP3 ADD MSTORE PUSH1 0xA0 ADD SWAP1 JUMP JUMPDEST PUSH1 0x1 PUSH1 0x1 PUSH1 0xA0 SHL SUB DUP2 AND DUP2 EQ PUSH3 0x249 JUMPI PUSH1 0x0 DUP1 REVERT JUMPDEST POP JUMP JUMPDEST PUSH1 0x80 MLOAD PUSH1 0x60 SHR PUSH1 0xA0 MLOAD PUSH1 0x60 SHR PUSH1 0xC0 MLOAD PUSH1 0xE0 MLOAD PUSH1 0x60 SHR PUSH2 0x100 MLOAD PUSH1 0x60 SHR PUSH2 0x120 MLOAD PUSH2 0x140 MLOAD PUSH2 0x160 MLOAD PUSH2 0x180 MLOAD PUSH1 0x60 SHR PUSH2 0x5755 PUSH3 0x2FF PUSH1 0x0 CODECOPY DUP1 PUSH2 0x83B MSTORE DUP1 PUSH2 0x8D4 MSTORE DUP1 PUSH2 0x9F6 MSTORE DUP1 PUSH2 0xAA5 MSTORE DUP1 PUSH2 0xCBE MSTORE DUP1 PUSH2 0xDB1 MSTORE DUP1 PUSH2 0xE40 MSTORE POP DUP1 PUSH2 0x21E MSTORE POP DUP1 PUSH2 0xF63 MSTORE POP DUP1 PUSH2 0x1002 MSTORE POP DUP1 PUSH2 0xF19 MSTORE POP DUP1 PUSH2 0xFB8 MSTORE POP DUP1 PUSH2 0xD8B MSTORE DUP1 PUSH2 0x3434 MSTORE POP DUP1 PUSH2 0x65F MSTORE DUP1 PUSH2 0x25C3 MSTORE POP DUP1 PUSH2 0x25A MSTORE DUP1 PUSH2 0x4E7 MSTORE DUP1 PUSH2 0x17A7 MSTORE DUP1 PUSH2 0x2D27 MSTORE DUP1 PUSH2 0x30E5 MSTORE POP PUSH2 0x5755 PUSH1 0x0 RETURN INVALID PUSH1 0x80 PUSH1 0x40 MSTORE PUSH1 0x4 CALLDATASIZE LT PUSH2 0xC7 JUMPI PUSH1 0x0 CALLDATALOAD PUSH1 0xE0 SHR DUP1 PUSH4 0x77725DF6 GT PUSH2 0x74 JUMPI DUP1 PUSH4 0x9A2967D2 GT PUSH2 0x4E JUMPI DUP1 PUSH4 0x9A2967D2 EQ PUSH2 0x1D4 JUMPI DUP1 PUSH4 0xDAB400F3 EQ PUSH2 0x1F4 JUMPI DUP1 PUSH4 0xF35B4733 EQ PUSH2 0x209 JUMPI PUSH2 0xC7 JUMP JUMPDEST DUP1 PUSH4 0x77725DF6 EQ PUSH2 0x172 JUMPI DUP1 PUSH4 0x7A1EB1B9 EQ PUSH2 0x192 JUMPI DUP1 PUSH4 0x8FD3AB80 EQ PUSH2 0x1B2 JUMPI PUSH2 0xC7 JUMP JUMPDEST DUP1 PUSH4 0x209C02C5 GT PUSH2 0xA5 JUMPI DUP1 PUSH4 0x209C02C5 EQ PUSH2 0x12A JUMPI DUP1 PUSH4 0x5161B966 EQ PUSH2 0x13D JUMPI DUP1 PUSH4 0x6AE4B4F7 EQ PUSH2 0x150 JUMPI PUSH2 0xC7 JUMP JUMPDEST DUP1 PUSH4 0x31B905C EQ PUSH2 0xCC JUMPI DUP1 PUSH4 0x8378817 EQ PUSH2 0xF7 JUMPI DUP1 PUSH4 0xF3B31B2 EQ PUSH2 0x10A JUMPI JUMPDEST PUSH1 0x0 DUP1 REVERT JUMPDEST CALLVALUE DUP1 ISZERO PUSH2 0xD8 JUMPI PUSH1 0x0 DUP1 REVERT JUMPDEST POP PUSH2 0xE1 PUSH2 0x21C JUMP JUMPDEST PUSH1 0x40 MLOAD PUSH2 0xEE SWAP2 SWAP1 PUSH2 0x480A JUMP JUMPDEST PUSH1 0x40 MLOAD DUP1 SWAP2 SUB SWAP1 RETURN JUMPDEST PUSH2 0xE1 PUSH2 0x105 CALLDATASIZE PUSH1 0x4 PUSH2 0x4277 JUMP JUMPDEST PUSH2 0x240 JUMP JUMPDEST CALLVALUE DUP1 ISZERO PUSH2 0x116 JUMPI PUSH1 0x0 DUP1 REVERT JUMPDEST POP PUSH2 0xE1 PUSH2 0x125 CALLDATASIZE PUSH1 0x4 PUSH2 0x3E77 JUMP JUMPDEST PUSH2 0x479 JUMP JUMPDEST PUSH2 0xE1 PUSH2 0x138 CALLDATASIZE PUSH1 0x4 PUSH2 0x4277 JUMP JUMPDEST PUSH2 0x4CD JUMP JUMPDEST PUSH2 0xE1 PUSH2 0x14B CALLDATASIZE PUSH1 0x4 PUSH2 0x3E0D JUMP JUMPDEST PUSH2 0x837 JUMP JUMPDEST CALLVALUE DUP1 ISZERO PUSH2 0x15C JUMPI PUSH1 0x0 DUP1 REVERT JUMPDEST POP PUSH2 0x165 PUSH2 0x98F JUMP JUMPDEST PUSH1 0x40 MLOAD PUSH2 0xEE SWAP2 SWAP1 PUSH2 0x4999 JUMP JUMPDEST CALLVALUE DUP1 ISZERO PUSH2 0x17E JUMPI PUSH1 0x0 DUP1 REVERT JUMPDEST POP PUSH2 0xE1 PUSH2 0x18D CALLDATASIZE PUSH1 0x4 PUSH2 0x41BE JUMP JUMPDEST PUSH2 0x9C8 JUMP JUMPDEST CALLVALUE DUP1 ISZERO PUSH2 0x19E JUMPI PUSH1 0x0 DUP1 REVERT JUMPDEST POP PUSH2 0xE1 PUSH2 0x1AD CALLDATASIZE PUSH1 0x4 PUSH2 0x4205 JUMP JUMPDEST PUSH2 0xB16 JUMP JUMPDEST CALLVALUE DUP1 ISZERO PUSH2 0x1BE JUMPI PUSH1 0x0 DUP1 REVERT JUMPDEST POP PUSH2 0x1C7 PUSH2 0xB9D JUMP JUMPDEST PUSH1 0x40 MLOAD PUSH2 0xEE SWAP2 SWAP1 PUSH2 0x4849 JUMP JUMPDEST CALLVALUE DUP1 ISZERO PUSH2 0x1E0 JUMPI PUSH1 0x0 DUP1 REVERT JUMPDEST POP PUSH2 0xE1 PUSH2 0x1EF CALLDATASIZE PUSH1 0x4 PUSH2 0x3E77 JUMP JUMPDEST PUSH2 0xCBA JUMP JUMPDEST CALLVALUE DUP1 ISZERO PUSH2 0x200 JUMPI PUSH1 0x0 DUP1 REVERT JUMPDEST POP PUSH2 0xE1 PUSH2 0xD89 JUMP JUMPDEST PUSH2 0xE1 PUSH2 0x217 CALLDATASIZE PUSH1 0x4 PUSH2 0x4178 JUMP JUMPDEST PUSH2 0xDAD JUMP JUMPDEST PUSH32 0x0 DUP2 JUMP JUMPDEST PUSH1 0x0 ADDRESS PUSH20 0xFFFFFFFFFFFFFFFFFFFFFFFFFFFFFFFFFFFFFFFF PUSH32 0x0 AND EQ ISZERO PUSH2 0x2BB JUMPI PUSH1 0x40 MLOAD PUSH32 0x8C379A000000000000000000000000000000000000000000000000000000000 DUP2 MSTORE PUSH1 0x4 ADD PUSH2 0x2B2 SWAP1 PUSH2 0x4DD1 JUMP JUMPDEST PUSH1 0x40 MLOAD DUP1 SWAP2 SUB SWAP1 REVERT JUMPDEST PUSH1 0x60 PUSH1 0x0 PUSH2 0x2CB DUP6 DUP8 ADD DUP8 PUSH2 0x3EE8 JUMP JUMPDEST SWAP2 POP SWAP2 POP PUSH1 0x2 DUP3 MLOAD LT ISZERO DUP1 ISZERO PUSH2 0x32C JUMPI POP PUSH2 0x2E9 PUSH1 0x20 DUP9 ADD DUP9 PUSH2 0x3C4B JUMP JUMPDEST PUSH20 0xFFFFFFFFFFFFFFFFFFFFFFFFFFFFFFFFFFFFFFFF AND DUP3 PUSH1 0x0 DUP2 MLOAD DUP2 LT PUSH2 0x30C JUMPI INVALID JUMPDEST PUSH1 0x20 MUL PUSH1 0x20 ADD ADD MLOAD PUSH20 0xFFFFFFFFFFFFFFFFFFFFFFFFFFFFFFFFFFFFFFFF AND EQ JUMPDEST DUP1 ISZERO PUSH2 0x389 JUMPI POP PUSH2 0x343 PUSH1 0x40 DUP9 ADD PUSH1 0x20 DUP10 ADD PUSH2 0x3C4B JUMP JUMPDEST PUSH20 0xFFFFFFFFFFFFFFFFFFFFFFFFFFFFFFFFFFFFFFFF AND DUP3 PUSH1 0x1 DUP5 MLOAD SUB DUP2 MLOAD DUP2 LT PUSH2 0x369 JUMPI INVALID JUMPDEST PUSH1 0x20 MUL PUSH1 0x20 ADD ADD MLOAD PUSH20 0xFFFFFFFFFFFFFFFFFFFFFFFFFFFFFFFFFFFFFFFF AND EQ JUMPDEST PUSH2 0x3BF JUMPI PUSH1 0x40 MLOAD PUSH32 0x8C379A000000000000000000000000000000000000000000000000000000000 DUP2 MSTORE PUSH1 0x4 ADD PUSH2 0x2B2 SWAP1 PUSH2 0x4CBA JUMP JUMPDEST PUSH1 0x0 PUSH2 0x3F4 DUP4 PUSH1 0x0 DUP2 MLOAD DUP2 LT PUSH2 0x3D1 JUMPI INVALID JUMPDEST PUSH1 0x20 MUL PUSH1 0x20 ADD ADD MLOAD DUP5 PUSH1 0x1 DUP2 MLOAD DUP2 LT PUSH2 0x3E6 JUMPI INVALID JUMPDEST PUSH1 0x20 MUL PUSH1 0x20 ADD ADD MLOAD DUP5 PUSH2 0xECB JUMP JUMPDEST SWAP1 POP PUSH2 0x406 PUSH1 0xA0 DUP10 ADD PUSH1 0x80 DUP11 ADD PUSH2 0x415C JUMP JUMPDEST ISZERO PUSH2 0x42F JUMPI PUSH2 0x42A DUP4 PUSH1 0x0 DUP2 MLOAD DUP2 LT PUSH2 0x41B JUMPI INVALID JUMPDEST PUSH1 0x20 MUL PUSH1 0x20 ADD ADD MLOAD DUP3 DUP8 PUSH2 0x1033 JUMP JUMPDEST PUSH2 0x44F JUMP JUMPDEST PUSH2 0x44F DUP4 PUSH1 0x0 DUP2 MLOAD DUP2 LT PUSH2 0x43F JUMPI INVALID JUMPDEST PUSH1 0x20 MUL PUSH1 0x20 ADD ADD MLOAD CALLER DUP4 DUP9 PUSH2 0x1115 JUMP JUMPDEST PUSH2 0x46B DUP4 DUP7 DUP5 DUP5 PUSH2 0x466 PUSH1 0xC0 DUP15 ADD PUSH1 0xA0 DUP16 ADD PUSH2 0x3C4B JUMP JUMPDEST PUSH2 0x1214 JUMP JUMPDEST SWAP4 POP POP POP POP JUMPDEST SWAP5 SWAP4 POP POP POP POP JUMP JUMPDEST PUSH1 0x0 PUSH2 0x4C4 PUSH1 0x40 MLOAD DUP1 PUSH1 0xA0 ADD PUSH1 0x40 MSTORE DUP1 DUP8 DUP2 MSTORE PUSH1 0x20 ADD DUP6 DUP2 MSTORE PUSH1 0x20 ADD DUP7 DUP2 MSTORE PUSH1 0x20 ADD PUSH1 0x0 ISZERO ISZERO DUP2 MSTORE PUSH1 0x20 ADD CALLER PUSH20 0xFFFFFFFFFFFFFFFFFFFFFFFFFFFFFFFFFFFFFFFF AND DUP2 MSTORE POP DUP4 PUSH2 0x139A JUMP JUMPDEST SWAP6 SWAP5 POP POP POP POP POP JUMP JUMPDEST PUSH1 0x0 ADDRESS PUSH20 0xFFFFFFFFFFFFFFFFFFFFFFFFFFFFFFFFFFFFFFFF PUSH32 0x0 AND EQ ISZERO PUSH2 0x53F JUMPI PUSH1 0x40 MLOAD PUSH32 0x8C379A000000000000000000000000000000000000000000000000000000000 DUP2 MSTORE PUSH1 0x4 ADD PUSH2 0x2B2 SWAP1 PUSH2 0x4F0E JUMP JUMPDEST PUSH1 0x0 PUSH1 0x60 PUSH2 0x54F DUP6 DUP8 ADD DUP8 PUSH2 0x3C67 JUMP JUMPDEST SWAP1 SWAP3 POP SWAP1 POP PUSH2 0x564 PUSH1 0xA0 DUP9 ADD PUSH1 0x80 DUP10 ADD PUSH2 0x415C JUMP JUMPDEST ISZERO PUSH2 0x585 JUMPI PUSH2 0x580 PUSH2 0x579 PUSH1 0x20 DUP10 ADD DUP10 PUSH2 0x3C4B JUMP JUMPDEST DUP4 DUP7 PUSH2 0x1033 JUMP JUMPDEST PUSH2 0x59D JUMP JUMPDEST PUSH2 0x59D PUSH2 0x595 PUSH1 0x20 DUP10 ADD DUP10 PUSH2 0x3C4B JUMP JUMPDEST CALLER DUP5 DUP8 PUSH2 0x1115 JUMP JUMPDEST PUSH1 0x0 PUSH2 0x5AF PUSH1 0x40 DUP10 ADD PUSH1 0x20 DUP11 ADD PUSH2 0x3C4B JUMP JUMPDEST PUSH20 0xFFFFFFFFFFFFFFFFFFFFFFFFFFFFFFFFFFFFFFFF AND PUSH4 0x70A08231 PUSH2 0x5DA PUSH1 0xC0 DUP12 ADD PUSH1 0xA0 DUP13 ADD PUSH2 0x3C4B JUMP JUMPDEST PUSH1 0x40 MLOAD DUP3 PUSH4 0xFFFFFFFF AND PUSH1 0xE0 SHL DUP2 MSTORE PUSH1 0x4 ADD PUSH2 0x5F6 SWAP2 SWAP1 PUSH2 0x47A2 JUMP JUMPDEST PUSH1 0x20 PUSH1 0x40 MLOAD DUP1 DUP4 SUB DUP2 DUP7 DUP1 EXTCODESIZE ISZERO DUP1 ISZERO PUSH2 0x60E JUMPI PUSH1 0x0 DUP1 REVERT JUMPDEST POP GAS STATICCALL ISZERO DUP1 ISZERO PUSH2 0x622 JUMPI RETURNDATASIZE PUSH1 0x0 DUP1 RETURNDATACOPY RETURNDATASIZE PUSH1 0x0 REVERT JUMPDEST POP POP POP POP PUSH1 0x40 MLOAD RETURNDATASIZE PUSH1 0x1F NOT PUSH1 0x1F DUP3 ADD AND DUP3 ADD DUP1 PUSH1 0x40 MSTORE POP DUP2 ADD SWAP1 PUSH2 0x646 SWAP2 SWAP1 PUSH2 0x4539 JUMP JUMPDEST SWAP1 POP PUSH20 0xFFFFFFFFFFFFFFFFFFFFFFFFFFFFFFFFFFFFFFFF PUSH32 0x0 AND PUSH4 0xBB503E21 DUP5 PUSH2 0x692 PUSH1 0x20 DUP13 ADD DUP13 PUSH2 0x3C4B JUMP JUMPDEST PUSH2 0x6A2 PUSH1 0x40 DUP14 ADD PUSH1 0x20 DUP15 ADD PUSH2 0x3C4B JUMP JUMPDEST PUSH2 0x6B2 PUSH1 0xC0 DUP15 ADD PUSH1 0xA0 DUP16 ADD PUSH2 0x3C4B JUMP JUMPDEST PUSH1 0x0 DUP9 PUSH1 0x40 MLOAD DUP8 PUSH4 0xFFFFFFFF AND PUSH1 0xE0 SHL DUP2 MSTORE PUSH1 0x4 ADD PUSH2 0x6D6 SWAP7 SWAP6 SWAP5 SWAP4 SWAP3 SWAP2 SWAP1 PUSH2 0x4906 JUMP JUMPDEST PUSH1 0x0 PUSH1 0x40 MLOAD DUP1 DUP4 SUB DUP2 PUSH1 0x0 DUP8 DUP1 EXTCODESIZE ISZERO DUP1 ISZERO PUSH2 0x6F0 JUMPI PUSH1 0x0 DUP1 REVERT JUMPDEST POP GAS CALL ISZERO DUP1 ISZERO PUSH2 0x704 JUMPI RETURNDATASIZE PUSH1 0x0 DUP1 RETURNDATACOPY RETURNDATASIZE PUSH1 0x0 REVERT JUMPDEST POP POP POP POP PUSH2 0x7BC DUP2 DUP10 PUSH1 0x20 ADD PUSH1 0x20 DUP2 ADD SWAP1 PUSH2 0x71F SWAP2 SWAP1 PUSH2 0x3C4B JUMP JUMPDEST PUSH20 0xFFFFFFFFFFFFFFFFFFFFFFFFFFFFFFFFFFFFFFFF AND PUSH4 0x70A08231 PUSH2 0x74A PUSH1 0xC0 DUP14 ADD PUSH1 0xA0 DUP15 ADD PUSH2 0x3C4B JUMP JUMPDEST PUSH1 0x40 MLOAD DUP3 PUSH4 0xFFFFFFFF AND PUSH1 0xE0 SHL DUP2 MSTORE PUSH1 0x4 ADD PUSH2 0x766 SWAP2 SWAP1 PUSH2 0x47A2 JUMP JUMPDEST PUSH1 0x20 PUSH1 0x40 MLOAD DUP1 DUP4 SUB DUP2 DUP7 DUP1 EXTCODESIZE ISZERO DUP1 ISZERO PUSH2 0x77E JUMPI PUSH1 0x0 DUP1 REVERT JUMPDEST POP GAS STATICCALL ISZERO DUP1 ISZERO PUSH2 0x792 JUMPI RETURNDATASIZE PUSH1 0x0 DUP1 RETURNDATACOPY RETURNDATASIZE PUSH1 0x0 REVERT JUMPDEST POP POP POP POP PUSH1 0x40 MLOAD RETURNDATASIZE PUSH1 0x1F NOT PUSH1 0x1F DUP3 ADD AND DUP3 ADD DUP1 PUSH1 0x40 MSTORE POP DUP2 ADD SWAP1 PUSH2 0x7B6 SWAP2 SWAP1 PUSH2 0x4539 JUMP JUMPDEST SWAP1 PUSH2 0x155B JUMP JUMPDEST SWAP4 POP PUSH32 0x40A6BA9513D09E3488135E0E0D10E2D4382B792720155B144CBEA89AC9DB6D34 PUSH2 0x7EC PUSH1 0x20 DUP11 ADD DUP11 PUSH2 0x3C4B JUMP JUMPDEST PUSH2 0x7FC PUSH1 0x40 DUP12 ADD PUSH1 0x20 DUP13 ADD PUSH2 0x3C4B JUMP JUMPDEST DUP8 DUP8 DUP8 DUP14 PUSH1 0xA0 ADD PUSH1 0x20 DUP2 ADD SWAP1 PUSH2 0x812 SWAP2 SWAP1 PUSH2 0x3C4B JUMP JUMPDEST PUSH1 0x40 MLOAD PUSH2 0x824 SWAP7 SWAP6 SWAP5 SWAP4 SWAP3 SWAP2 SWAP1 PUSH2 0x47C3 JUMP JUMPDEST PUSH1 0x40 MLOAD DUP1 SWAP2 SUB SWAP1 LOG1 POP POP POP SWAP5 SWAP4 POP POP POP POP JUMP JUMPDEST PUSH1 0x0 PUSH32 0x0 PUSH20 0xFFFFFFFFFFFFFFFFFFFFFFFFFFFFFFFFFFFFFFFF AND DUP5 PUSH1 0x0 DUP2 MLOAD DUP2 LT PUSH2 0x87D JUMPI INVALID JUMPDEST PUSH1 0x20 MUL PUSH1 0x20 ADD ADD MLOAD PUSH20 0xFFFFFFFFFFFFFFFFFFFFFFFFFFFFFFFFFFFFFFFF AND EQ PUSH2 0x8D2 JUMPI PUSH1 0x40 MLOAD PUSH32 0x8C379A000000000000000000000000000000000000000000000000000000000 DUP2 MSTORE PUSH1 0x4 ADD PUSH2 0x2B2 SWAP1 PUSH2 0x4D17 JUMP JUMPDEST PUSH32 0x0 PUSH20 0xFFFFFFFFFFFFFFFFFFFFFFFFFFFFFFFFFFFFFFFF AND PUSH4 0xD0E30DB0 CALLVALUE PUSH1 0x40 MLOAD DUP3 PUSH4 0xFFFFFFFF AND PUSH1 0xE0 SHL DUP2 MSTORE PUSH1 0x4 ADD PUSH1 0x0 PUSH1 0x40 MLOAD DUP1 DUP4 SUB DUP2 DUP6 DUP9 DUP1 EXTCODESIZE ISZERO DUP1 ISZERO PUSH2 0x93A JUMPI PUSH1 0x0 DUP1 REVERT JUMPDEST POP GAS CALL ISZERO DUP1 ISZERO PUSH2 0x94E JUMPI RETURNDATASIZE PUSH1 0x0 DUP1 RETURNDATACOPY RETURNDATASIZE PUSH1 0x0 REVERT JUMPDEST POP POP PUSH1 0x40 DUP1 MLOAD PUSH1 0xA0 DUP2 ADD DUP3 MSTORE DUP9 DUP2 MSTORE CALLVALUE PUSH1 0x20 DUP3 ADD MSTORE SWAP1 DUP2 ADD DUP8 SWAP1 MSTORE PUSH1 0x1 PUSH1 0x60 DUP3 ADD MSTORE CALLER PUSH1 0x80 DUP3 ADD MSTORE PUSH2 0x985 SWAP4 POP SWAP2 POP DUP5 SWAP1 POP PUSH2 0x139A JUMP JUMPDEST SWAP1 POP JUMPDEST SWAP4 SWAP3 POP POP POP JUMP JUMPDEST PUSH1 0x40 MLOAD DUP1 PUSH1 0x40 ADD PUSH1 0x40 MSTORE DUP1 PUSH1 0x10 DUP2 MSTORE PUSH1 0x20 ADD PUSH32 0x4D756C7469706C65784665617475726500000000000000000000000000000000 DUP2 MSTORE POP DUP2 JUMP JUMPDEST PUSH1 0x0 PUSH2 0xA65 PUSH1 0x40 MLOAD DUP1 PUSH1 0xC0 ADD PUSH1 0x40 MSTORE DUP1 DUP8 PUSH20 0xFFFFFFFFFFFFFFFFFFFFFFFFFFFFFFFFFFFFFFFF AND DUP2 MSTORE PUSH1 0x20 ADD PUSH32 0x0 PUSH20 0xFFFFFFFFFFFFFFFFFFFFFFFFFFFFFFFFFFFFFFFF AND DUP2 MSTORE PUSH1 0x20 ADD DUP6 DUP2 MSTORE PUSH1 0x20 ADD DUP7 DUP2 MSTORE PUSH1 0x20 ADD PUSH1 0x0 ISZERO ISZERO DUP2 MSTORE PUSH1 0x20 ADD ADDRESS PUSH20 0xFFFFFFFFFFFFFFFFFFFFFFFFFFFFFFFFFFFFFFFF AND DUP2 MSTORE POP DUP4 PUSH2 0x1584 JUMP JUMPDEST PUSH1 0x40 MLOAD PUSH32 0x2E1A7D4D00000000000000000000000000000000000000000000000000000000 DUP2 MSTORE SWAP1 SWAP2 POP PUSH20 0xFFFFFFFFFFFFFFFFFFFFFFFFFFFFFFFFFFFFFFFF PUSH32 0x0 AND SWAP1 PUSH4 0x2E1A7D4D SWAP1 PUSH2 0xADA SWAP1 DUP5 SWAP1 PUSH1 0x4 ADD PUSH2 0x480A JUMP JUMPDEST PUSH1 0x0 PUSH1 0x40 MLOAD DUP1 DUP4 SUB DUP2 PUSH1 0x0 DUP8 DUP1 EXTCODESIZE ISZERO DUP1 ISZERO PUSH2 0xAF4 JUMPI PUSH1 0x0 DUP1 REVERT JUMPDEST POP GAS CALL ISZERO DUP1 ISZERO PUSH2 0xB08 JUMPI RETURNDATASIZE PUSH1 0x0 DUP1 RETURNDATACOPY RETURNDATASIZE PUSH1 0x0 REVERT JUMPDEST POP POP POP POP PUSH2 0x471 CALLER DUP3 PUSH2 0x16C9 JUMP JUMPDEST PUSH1 0x0 PUSH2 0xB93 PUSH1 0x40 MLOAD DUP1 PUSH1 0xC0 ADD PUSH1 0x40 MSTORE DUP1 DUP9 PUSH20 0xFFFFFFFFFFFFFFFFFFFFFFFFFFFFFFFFFFFFFFFF AND DUP2 MSTORE PUSH1 0x20 ADD DUP8 PUSH20 0xFFFFFFFFFFFFFFFFFFFFFFFFFFFFFFFFFFFFFFFF AND DUP2 MSTORE PUSH1 0x20 ADD DUP6 DUP2 MSTORE PUSH1 0x20 ADD DUP7 DUP2 MSTORE PUSH1 0x20 ADD PUSH1 0x0 ISZERO ISZERO DUP2 MSTORE PUSH1 0x20 ADD CALLER PUSH20 0xFFFFFFFFFFFFFFFFFFFFFFFFFFFFFFFFFFFFFFFF AND DUP2 MSTORE POP DUP4 PUSH2 0x1584 JUMP JUMPDEST SWAP7 SWAP6 POP POP POP POP POP POP JUMP JUMPDEST PUSH1 0x0 PUSH2 0xBC8 PUSH32 0xF35B473300000000000000000000000000000000000000000000000000000000 PUSH2 0x1771 JUMP JUMPDEST PUSH2 0xBF1 PUSH32 0x77725DF600000000000000000000000000000000000000000000000000000000 PUSH2 0x1771 JUMP JUMPDEST PUSH2 0xC1A PUSH32 0x7A1EB1B900000000000000000000000000000000000000000000000000000000 PUSH2 0x1771 JUMP JUMPDEST PUSH2 0xC43 PUSH32 0x5161B96600000000000000000000000000000000000000000000000000000000 PUSH2 0x1771 JUMP JUMPDEST PUSH2 0xC6C PUSH32 0x9A2967D200000000000000000000000000000000000000000000000000000000 PUSH2 0x1771 JUMP JUMPDEST PUSH2 0xC95 PUSH32 0xF3B31B200000000000000000000000000000000000000000000000000000000 PUSH2 0x1771 JUMP JUMPDEST POP PUSH32 0x2C64C5EF00000000000000000000000000000000000000000000000000000000 SWAP1 JUMP JUMPDEST PUSH1 0x0 PUSH32 0x0 PUSH20 0xFFFFFFFFFFFFFFFFFFFFFFFFFFFFFFFFFFFFFFFF AND DUP6 PUSH1 0x1 DUP8 MLOAD SUB DUP2 MLOAD DUP2 LT PUSH2 0xD03 JUMPI INVALID JUMPDEST PUSH1 0x20 MUL PUSH1 0x20 ADD ADD MLOAD PUSH20 0xFFFFFFFFFFFFFFFFFFFFFFFFFFFFFFFFFFFFFFFF AND EQ PUSH2 0xD58 JUMPI PUSH1 0x40 MLOAD PUSH32 0x8C379A000000000000000000000000000000000000000000000000000000000 DUP2 MSTORE PUSH1 0x4 ADD PUSH2 0x2B2 SWAP1 PUSH2 0x4FEE JUMP JUMPDEST PUSH1 0x40 DUP1 MLOAD PUSH1 0xA0 DUP2 ADD DUP3 MSTORE DUP7 DUP2 MSTORE PUSH1 0x20 DUP2 ADD DUP6 SWAP1 MSTORE SWAP1 DUP2 ADD DUP6 SWAP1 MSTORE PUSH1 0x0 PUSH1 0x60 DUP3 ADD MSTORE ADDRESS PUSH1 0x80 DUP3 ADD MSTORE PUSH2 0xA65 SWAP1 DUP4 PUSH2 0x139A JUMP JUMPDEST PUSH32 0x0 DUP2 JUMP JUMPDEST PUSH1 0x0 PUSH32 0x0 PUSH20 0xFFFFFFFFFFFFFFFFFFFFFFFFFFFFFFFFFFFFFFFF AND PUSH4 0xD0E30DB0 CALLVALUE PUSH1 0x40 MLOAD DUP3 PUSH4 0xFFFFFFFF AND PUSH1 0xE0 SHL DUP2 MSTORE PUSH1 0x4 ADD PUSH1 0x0 PUSH1 0x40 MLOAD DUP1 DUP4 SUB DUP2 DUP6 DUP9 DUP1 EXTCODESIZE ISZERO DUP1 ISZERO PUSH2 0xE17 JUMPI PUSH1 0x0 DUP1 REVERT JUMPDEST POP GAS CALL ISZERO DUP1 ISZERO PUSH2 0xE2B JUMPI RETURNDATASIZE PUSH1 0x0 DUP1 RETURNDATACOPY RETURNDATASIZE PUSH1 0x0 REVERT JUMPDEST POP POP POP POP POP PUSH2 0x985 PUSH1 0x40 MLOAD DUP1 PUSH1 0xC0 ADD PUSH1 0x40 MSTORE DUP1 PUSH32 0x0 PUSH20 0xFFFFFFFFFFFFFFFFFFFFFFFFFFFFFFFFFFFFFFFF AND DUP2 MSTORE PUSH1 0x20 ADD DUP7 PUSH20 0xFFFFFFFFFFFFFFFFFFFFFFFFFFFFFFFFFFFFFFFF AND DUP2 MSTORE PUSH1 0x20 ADD CALLVALUE DUP2 MSTORE PUSH1 0x20 ADD DUP6 DUP2 MSTORE PUSH1 0x20 ADD PUSH1 0x1 ISZERO ISZERO DUP2 MSTORE PUSH1 0x20 ADD CALLER PUSH20 0xFFFFFFFFFFFFFFFFFFFFFFFFFFFFFFFFFFFFFFFF AND DUP2 MSTORE POP DUP4 PUSH2 0x1584 JUMP JUMPDEST PUSH1 0x0 DUP1 PUSH1 0x0 DUP5 PUSH20 0xFFFFFFFFFFFFFFFFFFFFFFFFFFFFFFFFFFFFFFFF AND DUP7 PUSH20 0xFFFFFFFFFFFFFFFFFFFFFFFFFFFFFFFFFFFFFFFF AND LT PUSH2 0xF0A JUMPI DUP5 DUP7 PUSH2 0xF0D JUMP JUMPDEST DUP6 DUP6 JUMPDEST SWAP2 POP SWAP2 POP DUP4 ISZERO PUSH2 0xFB6 JUMPI PUSH32 0x0 DUP3 DUP3 PUSH1 0x40 MLOAD PUSH1 0x20 ADD PUSH2 0xF4B SWAP3 SWAP2 SWAP1 PUSH2 0x46B0 JUMP JUMPDEST PUSH1 0x40 MLOAD PUSH1 0x20 DUP2 DUP4 SUB SUB DUP2 MSTORE SWAP1 PUSH1 0x40 MSTORE DUP1 MLOAD SWAP1 PUSH1 0x20 ADD KECCAK256 PUSH32 0x0 PUSH1 0x40 MLOAD PUSH1 0x20 ADD PUSH2 0xF94 SWAP4 SWAP3 SWAP2 SWAP1 PUSH2 0x473C JUMP JUMPDEST PUSH1 0x40 MLOAD PUSH1 0x20 DUP2 DUP4 SUB SUB DUP2 MSTORE SWAP1 PUSH1 0x40 MSTORE DUP1 MLOAD SWAP1 PUSH1 0x20 ADD KECCAK256 PUSH1 0x0 SHR SWAP3 POP POP POP PUSH2 0x988 JUMP JUMPDEST PUSH32 0x0 DUP3 DUP3 PUSH1 0x40 MLOAD PUSH1 0x20 ADD PUSH2 0xFEA SWAP3 SWAP2 SWAP1 PUSH2 0x46B0 JUMP JUMPDEST PUSH1 0x40 MLOAD PUSH1 0x20 DUP2 DUP4 SUB SUB DUP2 MSTORE SWAP1 PUSH1 0x40 MSTORE DUP1 MLOAD SWAP1 PUSH1 0x20 ADD KECCAK256 PUSH32 0x0 PUSH1 0x40 MLOAD PUSH1 0x20 ADD PUSH2 0xF94 SWAP4 SWAP3 SWAP2 SWAP1 PUSH2 0x473C JUMP JUMPDEST PUSH20 0xFFFFFFFFFFFFFFFFFFFFFFFFFFFFFFFFFFFFFFFF DUP4 AND ADDRESS EQ ISZERO PUSH2 0x1083 JUMPI PUSH1 0x40 MLOAD PUSH32 0x8C379A000000000000000000000000000000000000000000000000000000000 DUP2 MSTORE PUSH1 0x4 ADD PUSH2 0x2B2 SWAP1 PUSH2 0x4F91 JUMP JUMPDEST PUSH1 0x40 MLOAD PUSH32 0xA9059CBB00000000000000000000000000000000000000000000000000000000 DUP2 MSTORE PUSH20 0xFFFFFFFFFFFFFFFFFFFFFFFFFFFFFFFFFFFFFFFF DUP4 AND PUSH1 0x4 DUP3 ADD MSTORE DUP2 PUSH1 0x24 DUP3 ADD MSTORE PUSH1 0x20 DUP2 PUSH1 0x44 DUP4 PUSH1 0x0 PUSH20 0xFFFFFFFFFFFFFFFFFFFFFFFFFFFFFFFFFFFFFFFF DUP10 AND GAS CALL RETURNDATASIZE PUSH1 0x1 DUP4 MLOAD EQ PUSH1 0x20 DUP3 LT ISZERO AND DUP2 ISZERO OR DUP3 AND SWAP2 POP DUP2 PUSH2 0x110D JUMPI DUP1 PUSH1 0x0 DUP5 RETURNDATACOPY DUP1 DUP4 REVERT JUMPDEST POP POP POP POP POP POP JUMP JUMPDEST PUSH20 0xFFFFFFFFFFFFFFFFFFFFFFFFFFFFFFFFFFFFFFFF DUP5 AND ADDRESS EQ ISZERO PUSH2 0x1165 JUMPI PUSH1 0x40 MLOAD PUSH32 0x8C379A000000000000000000000000000000000000000000000000000000000 DUP2 MSTORE PUSH1 0x4 ADD PUSH2 0x2B2 SWAP1 PUSH2 0x4F91 JUMP JUMPDEST PUSH1 0x40 MLOAD PUSH32 0x23B872DD00000000000000000000000000000000000000000000000000000000 DUP2 MSTORE PUSH20 0xFFFFFFFFFFFFFFFFFFFFFFFFFFFFFFFFFFFFFFFF DUP5 AND PUSH1 0x4 DUP3 ADD MSTORE PUSH20 0xFFFFFFFFFFFFFFFFFFFFFFFFFFFFFFFFFFFFFFFF DUP4 AND PUSH1 0x24 DUP3 ADD MSTORE DUP2 PUSH1 0x44 DUP3 ADD MSTORE PUSH1 0x20 DUP2 PUSH1 0x64 DUP4 PUSH1 0x0 PUSH20 0xFFFFFFFFFFFFFFFFFFFFFFFFFFFFFFFFFFFFFFFF DUP11 AND GAS CALL RETURNDATASIZE PUSH1 0x1 DUP4 MLOAD EQ PUSH1 0x20 DUP3 LT ISZERO AND DUP2 ISZERO OR DUP3 AND SWAP2 POP DUP2 PUSH2 0x120B JUMPI DUP1 PUSH1 0x0 DUP5 RETURNDATACOPY DUP1 DUP4 REVERT JUMPDEST POP POP POP POP POP POP POP JUMP JUMPDEST PUSH1 0x0 DUP1 JUMPDEST PUSH1 0x1 DUP8 MLOAD SUB DUP2 LT ISZERO PUSH2 0x1390 JUMPI PUSH1 0x0 DUP1 DUP9 DUP4 DUP2 MLOAD DUP2 LT PUSH2 0x1233 JUMPI INVALID JUMPDEST PUSH1 0x20 MUL PUSH1 0x20 ADD ADD MLOAD DUP10 DUP5 PUSH1 0x1 ADD DUP2 MLOAD DUP2 LT PUSH2 0x124A JUMPI INVALID JUMPDEST PUSH1 0x20 MUL PUSH1 0x20 ADD ADD MLOAD SWAP2 POP SWAP2 POP PUSH2 0x1262 DUP7 DUP4 DUP4 DUP12 PUSH2 0x1804 JUMP JUMPDEST SWAP4 POP PUSH1 0x0 DUP1 DUP3 PUSH20 0xFFFFFFFFFFFFFFFFFFFFFFFFFFFFFFFFFFFFFFFF AND DUP5 PUSH20 0xFFFFFFFFFFFFFFFFFFFFFFFFFFFFFFFFFFFFFFFF AND LT PUSH2 0x12A2 JUMPI DUP6 PUSH1 0x0 PUSH2 0x12A6 JUMP JUMPDEST PUSH1 0x0 DUP7 JUMPDEST SWAP2 POP SWAP2 POP PUSH1 0x0 PUSH1 0x2 DUP13 MLOAD SUB DUP7 LT PUSH2 0x12BD JUMPI DUP8 PUSH2 0x12DE JUMP JUMPDEST PUSH2 0x12DE DUP5 DUP14 DUP9 PUSH1 0x2 ADD DUP2 MLOAD DUP2 LT PUSH2 0x12D0 JUMPI INVALID JUMPDEST PUSH1 0x20 MUL PUSH1 0x20 ADD ADD MLOAD DUP13 PUSH2 0xECB JUMP JUMPDEST PUSH1 0x40 DUP1 MLOAD PUSH1 0x0 DUP2 MSTORE PUSH1 0x20 DUP2 ADD SWAP2 DUP3 SWAP1 MSTORE PUSH32 0x22C0D9F00000000000000000000000000000000000000000000000000000000 SWAP1 SWAP2 MSTORE SWAP1 SWAP2 POP PUSH20 0xFFFFFFFFFFFFFFFFFFFFFFFFFFFFFFFFFFFFFFFF DUP11 AND SWAP1 PUSH4 0x22C0D9F SWAP1 PUSH2 0x1346 SWAP1 DUP7 SWAP1 DUP7 SWAP1 DUP7 SWAP1 PUSH1 0x24 DUP2 ADD PUSH2 0x5580 JUMP JUMPDEST PUSH1 0x0 PUSH1 0x40 MLOAD DUP1 DUP4 SUB DUP2 PUSH1 0x0 DUP8 DUP1 EXTCODESIZE ISZERO DUP1 ISZERO PUSH2 0x1360 JUMPI PUSH1 0x0 DUP1 REVERT JUMPDEST POP GAS CALL ISZERO DUP1 ISZERO PUSH2 0x1374 JUMPI RETURNDATASIZE PUSH1 0x0 DUP1 RETURNDATACOPY RETURNDATASIZE PUSH1 0x0 REVERT JUMPDEST POP POP POP POP DUP1 SWAP9 POP DUP7 SWAP11 POP POP POP POP POP POP DUP1 DUP1 PUSH1 0x1 ADD SWAP2 POP POP PUSH2 0x1218 JUMP JUMPDEST POP SWAP6 SWAP5 POP POP POP POP POP JUMP JUMPDEST PUSH1 0x40 DUP3 ADD MLOAD MLOAD DUP3 MLOAD MLOAD PUSH1 0x0 SWAP2 PUSH1 0x1 ADD EQ PUSH2 0x13E0 JUMPI PUSH1 0x40 MLOAD PUSH32 0x8C379A000000000000000000000000000000000000000000000000000000000 DUP2 MSTORE PUSH1 0x4 ADD PUSH2 0x2B2 SWAP1 PUSH2 0x4BDA JUMP JUMPDEST DUP3 MLOAD DUP1 MLOAD PUSH1 0x0 SWAP2 SWAP1 PUSH32 0xFFFFFFFFFFFFFFFFFFFFFFFFFFFFFFFFFFFFFFFFFFFFFFFFFFFFFFFFFFFFFFFF DUP2 ADD SWAP1 DUP2 LT PUSH2 0x1414 JUMPI INVALID JUMPDEST PUSH1 0x20 MUL PUSH1 0x20 ADD ADD MLOAD SWAP1 POP PUSH1 0x0 DUP2 PUSH20 0xFFFFFFFFFFFFFFFFFFFFFFFFFFFFFFFFFFFFFFFF AND PUSH4 0x70A08231 DUP7 PUSH1 0x80 ADD MLOAD PUSH1 0x40 MLOAD DUP3 PUSH4 0xFFFFFFFF AND PUSH1 0xE0 SHL DUP2 MSTORE PUSH1 0x4 ADD PUSH2 0x145D SWAP2 SWAP1 PUSH2 0x47A2 JUMP JUMPDEST PUSH1 0x20 PUSH1 0x40 MLOAD DUP1 DUP4 SUB DUP2 DUP7 DUP1 EXTCODESIZE ISZERO DUP1 ISZERO PUSH2 0x1475 JUMPI PUSH1 0x0 DUP1 REVERT JUMPDEST POP GAS STATICCALL ISZERO DUP1 ISZERO PUSH2 0x1489 JUMPI RETURNDATASIZE PUSH1 0x0 DUP1 RETURNDATACOPY RETURNDATASIZE PUSH1 0x0 REVERT JUMPDEST POP POP POP POP PUSH1 0x40 MLOAD RETURNDATASIZE PUSH1 0x1F NOT PUSH1 0x1F DUP3 ADD AND DUP3 ADD DUP1 PUSH1 0x40 MSTORE POP DUP2 ADD SWAP1 PUSH2 0x14AD SWAP2 SWAP1 PUSH2 0x4539 JUMP JUMPDEST SWAP1 POP PUSH2 0x14B7 PUSH2 0x3665 JUMP JUMPDEST PUSH2 0x14C0 DUP7 PUSH2 0x19C2 JUMP JUMPDEST SWAP1 POP PUSH1 0x0 PUSH2 0x1505 DUP4 DUP6 PUSH20 0xFFFFFFFFFFFFFFFFFFFFFFFFFFFFFFFFFFFFFFFF AND PUSH4 0x70A08231 DUP11 PUSH1 0x80 ADD MLOAD PUSH1 0x40 MLOAD DUP3 PUSH4 0xFFFFFFFF AND PUSH1 0xE0 SHL DUP2 MSTORE PUSH1 0x4 ADD PUSH2 0x766 SWAP2 SWAP1 PUSH2 0x47A2 JUMP JUMPDEST SWAP1 POP PUSH2 0x1515 DUP2 DUP4 PUSH1 0x0 ADD MLOAD PUSH2 0x1C15 JUMP JUMPDEST SWAP5 POP DUP6 DUP6 LT ISZERO PUSH2 0x1551 JUMPI PUSH1 0x40 MLOAD PUSH32 0x8C379A000000000000000000000000000000000000000000000000000000000 DUP2 MSTORE PUSH1 0x4 ADD PUSH2 0x2B2 SWAP1 PUSH2 0x4EB1 JUMP JUMPDEST POP POP POP POP SWAP3 SWAP2 POP POP JUMP JUMPDEST PUSH1 0x0 DUP3 DUP3 GT ISZERO PUSH2 0x1579 JUMPI PUSH2 0x1579 PUSH2 0x1574 PUSH1 0x2 DUP6 DUP6 PUSH2 0x1C2B JUMP JUMPDEST PUSH2 0x1CD0 JUMP JUMPDEST POP DUP1 DUP3 SUB JUMPDEST SWAP3 SWAP2 POP POP JUMP JUMPDEST PUSH1 0x0 DUP1 DUP4 PUSH1 0x20 ADD MLOAD PUSH20 0xFFFFFFFFFFFFFFFFFFFFFFFFFFFFFFFFFFFFFFFF AND PUSH4 0x70A08231 DUP6 PUSH1 0xA0 ADD MLOAD PUSH1 0x40 MLOAD DUP3 PUSH4 0xFFFFFFFF AND PUSH1 0xE0 SHL DUP2 MSTORE PUSH1 0x4 ADD PUSH2 0x15C8 SWAP2 SWAP1 PUSH2 0x47A2 JUMP JUMPDEST PUSH1 0x20 PUSH1 0x40 MLOAD DUP1 DUP4 SUB DUP2 DUP7 DUP1 EXTCODESIZE ISZERO DUP1 ISZERO PUSH2 0x15E0 JUMPI PUSH1 0x0 DUP1 REVERT JUMPDEST POP GAS STATICCALL ISZERO DUP1 ISZERO PUSH2 0x15F4 JUMPI RETURNDATASIZE PUSH1 0x0 DUP1 RETURNDATACOPY RETURNDATASIZE PUSH1 0x0 REVERT JUMPDEST POP POP POP POP PUSH1 0x40 MLOAD RETURNDATASIZE PUSH1 0x1F NOT PUSH1 0x1F DUP3 ADD AND DUP3 ADD DUP1 PUSH1 0x40 MSTORE POP DUP2 ADD SWAP1 PUSH2 0x1618 SWAP2 SWAP1 PUSH2 0x4539 JUMP JUMPDEST SWAP1 POP PUSH2 0x1622 PUSH2 0x36B9 JUMP JUMPDEST PUSH2 0x162B DUP6 PUSH2 0x1CD8 JUMP JUMPDEST SWAP1 POP PUSH1 0x0 PUSH2 0x1674 DUP4 DUP8 PUSH1 0x20 ADD MLOAD PUSH20 0xFFFFFFFFFFFFFFFFFFFFFFFFFFFFFFFFFFFFFFFF AND PUSH4 0x70A08231 DUP10 PUSH1 0xA0 ADD MLOAD PUSH1 0x40 MLOAD DUP3 PUSH4 0xFFFFFFFF AND PUSH1 0xE0 SHL DUP2 MSTORE PUSH1 0x4 ADD PUSH2 0x766 SWAP2 SWAP1 PUSH2 0x47A2 JUMP JUMPDEST SWAP1 POP PUSH2 0x1684 DUP2 DUP4 PUSH1 0x20 ADD MLOAD PUSH2 0x1C15 JUMP JUMPDEST SWAP4 POP DUP5 DUP5 LT ISZERO PUSH2 0x16C0 JUMPI PUSH1 0x40 MLOAD PUSH32 0x8C379A000000000000000000000000000000000000000000000000000000000 DUP2 MSTORE PUSH1 0x4 ADD PUSH2 0x2B2 SWAP1 PUSH2 0x4A66 JUMP JUMPDEST POP POP POP SWAP3 SWAP2 POP POP JUMP JUMPDEST PUSH1 0x0 DUP3 PUSH20 0xFFFFFFFFFFFFFFFFFFFFFFFFFFFFFFFFFFFFFFFF AND DUP3 PUSH1 0x40 MLOAD PUSH2 0x16EF SWAP1 PUSH2 0x479F JUMP JUMPDEST PUSH1 0x0 PUSH1 0x40 MLOAD DUP1 DUP4 SUB DUP2 DUP6 DUP8 GAS CALL SWAP3 POP POP POP RETURNDATASIZE DUP1 PUSH1 0x0 DUP2 EQ PUSH2 0x172C JUMPI PUSH1 0x40 MLOAD SWAP2 POP PUSH1 0x1F NOT PUSH1 0x3F RETURNDATASIZE ADD AND DUP3 ADD PUSH1 0x40 MSTORE RETURNDATASIZE DUP3 MSTORE RETURNDATASIZE PUSH1 0x0 PUSH1 0x20 DUP5 ADD RETURNDATACOPY PUSH2 0x1731 JUMP JUMPDEST PUSH1 0x60 SWAP2 POP JUMPDEST POP POP SWAP1 POP DUP1 PUSH2 0x176C JUMPI PUSH1 0x40 MLOAD PUSH32 0x8C379A000000000000000000000000000000000000000000000000000000000 DUP2 MSTORE PUSH1 0x4 ADD PUSH2 0x2B2 SWAP1 PUSH2 0x50CE JUMP JUMPDEST POP POP POP JUMP JUMPDEST PUSH1 0x40 MLOAD PUSH32 0x6EB224CB00000000000000000000000000000000000000000000000000000000 DUP2 MSTORE ADDRESS SWAP1 PUSH4 0x6EB224CB SWAP1 PUSH2 0x17CF SWAP1 DUP5 SWAP1 PUSH32 0x0 SWAP1 PUSH1 0x4 ADD PUSH2 0x4876 JUMP JUMPDEST PUSH1 0x0 PUSH1 0x40 MLOAD DUP1 DUP4 SUB DUP2 PUSH1 0x0 DUP8 DUP1 EXTCODESIZE ISZERO DUP1 ISZERO PUSH2 0x17E9 JUMPI PUSH1 0x0 DUP1 REVERT JUMPDEST POP GAS CALL ISZERO DUP1 ISZERO PUSH2 0x17FD JUMPI RETURNDATASIZE PUSH1 0x0 DUP1 RETURNDATACOPY RETURNDATASIZE PUSH1 0x0 REVERT JUMPDEST POP POP POP POP POP JUMP JUMPDEST PUSH1 0x0 DUP1 DUP3 GT PUSH2 0x183F JUMPI PUSH1 0x40 MLOAD PUSH32 0x8C379A000000000000000000000000000000000000000000000000000000000 DUP2 MSTORE PUSH1 0x4 ADD PUSH2 0x2B2 SWAP1 PUSH2 0x504B JUMP JUMPDEST PUSH1 0x0 DUP1 DUP7 PUSH20 0xFFFFFFFFFFFFFFFFFFFFFFFFFFFFFFFFFFFFFFFF AND PUSH4 0x902F1AC PUSH1 0x40 MLOAD DUP2 PUSH4 0xFFFFFFFF AND PUSH1 0xE0 SHL DUP2 MSTORE PUSH1 0x4 ADD PUSH1 0x60 PUSH1 0x40 MLOAD DUP1 DUP4 SUB DUP2 DUP7 DUP1 EXTCODESIZE ISZERO DUP1 ISZERO PUSH2 0x1888 JUMPI PUSH1 0x0 DUP1 REVERT JUMPDEST POP GAS STATICCALL ISZERO DUP1 ISZERO PUSH2 0x189C JUMPI RETURNDATASIZE PUSH1 0x0 DUP1 RETURNDATACOPY RETURNDATASIZE PUSH1 0x0 REVERT JUMPDEST POP POP POP POP PUSH1 0x40 MLOAD RETURNDATASIZE PUSH1 0x1F NOT PUSH1 0x1F DUP3 ADD AND DUP3 ADD DUP1 PUSH1 0x40 MSTORE POP DUP2 ADD SWAP1 PUSH2 0x18C0 SWAP2 SWAP1 PUSH2 0x44BF JUMP JUMPDEST POP PUSH14 0xFFFFFFFFFFFFFFFFFFFFFFFFFFFF AND SWAP2 POP PUSH14 0xFFFFFFFFFFFFFFFFFFFFFFFFFFFF AND SWAP2 POP PUSH1 0x0 DUP3 GT DUP1 ISZERO PUSH2 0x18F5 JUMPI POP PUSH1 0x0 DUP2 GT JUMPDEST PUSH2 0x192B JUMPI PUSH1 0x40 MLOAD PUSH32 0x8C379A000000000000000000000000000000000000000000000000000000000 DUP2 MSTORE PUSH1 0x4 ADD PUSH2 0x2B2 SWAP1 PUSH2 0x512B JUMP JUMPDEST PUSH1 0x0 DUP1 DUP7 PUSH20 0xFFFFFFFFFFFFFFFFFFFFFFFFFFFFFFFFFFFFFFFF AND DUP9 PUSH20 0xFFFFFFFFFFFFFFFFFFFFFFFFFFFFFFFFFFFFFFFF AND LT PUSH2 0x1968 JUMPI DUP3 DUP5 PUSH2 0x196B JUMP JUMPDEST DUP4 DUP4 JUMPDEST SWAP1 SWAP3 POP SWAP1 POP PUSH1 0x0 PUSH2 0x197E DUP8 PUSH2 0x3E5 PUSH2 0x1EC0 JUMP JUMPDEST SWAP1 POP PUSH1 0x0 PUSH2 0x198C DUP3 DUP5 PUSH2 0x1EC0 JUMP JUMPDEST SWAP1 POP PUSH1 0x0 PUSH2 0x19A6 DUP4 PUSH2 0x19A0 DUP8 PUSH2 0x3E8 PUSH2 0x1EC0 JUMP JUMPDEST SWAP1 PUSH2 0x1EF1 JUMP JUMPDEST SWAP1 POP DUP1 DUP3 DUP2 PUSH2 0x19B1 JUMPI INVALID JUMPDEST DIV SWAP13 SWAP12 POP POP POP POP POP POP POP POP POP POP POP POP JUMP JUMPDEST PUSH2 0x19CA PUSH2 0x3665 JUMP JUMPDEST PUSH1 0x20 DUP3 ADD MLOAD DUP2 MSTORE PUSH2 0x19DC DUP3 PUSH1 0x0 PUSH2 0x1F0D JUMP JUMPDEST PUSH20 0xFFFFFFFFFFFFFFFFFFFFFFFFFFFFFFFFFFFFFFFF AND PUSH1 0x20 DUP3 ADD MSTORE PUSH1 0x60 DUP3 ADD MLOAD ISZERO DUP1 ISZERO PUSH2 0x1A23 JUMPI POP PUSH1 0x20 DUP2 ADD MLOAD PUSH20 0xFFFFFFFFFFFFFFFFFFFFFFFFFFFFFFFFFFFFFFFF AND CALLER EQ ISZERO JUMPDEST ISZERO PUSH2 0x1A54 JUMPI PUSH2 0x1A54 DUP3 PUSH1 0x0 ADD MLOAD PUSH1 0x0 DUP2 MLOAD DUP2 LT PUSH2 0x1A3C JUMPI INVALID JUMPDEST PUSH1 0x20 MUL PUSH1 0x20 ADD ADD MLOAD CALLER DUP4 PUSH1 0x20 ADD MLOAD DUP6 PUSH1 0x20 ADD MLOAD PUSH2 0x1115 JUMP JUMPDEST DUP2 PUSH1 0x60 ADD MLOAD DUP1 ISZERO PUSH2 0x1A7F JUMPI POP PUSH1 0x20 DUP2 ADD MLOAD PUSH20 0xFFFFFFFFFFFFFFFFFFFFFFFFFFFFFFFFFFFFFFFF AND ADDRESS EQ ISZERO JUMPDEST ISZERO PUSH2 0x1AAF JUMPI PUSH2 0x1AAF DUP3 PUSH1 0x0 ADD MLOAD PUSH1 0x0 DUP2 MLOAD DUP2 LT PUSH2 0x1A98 JUMPI INVALID JUMPDEST PUSH1 0x20 MUL PUSH1 0x20 ADD ADD MLOAD DUP3 PUSH1 0x20 ADD MLOAD DUP5 PUSH1 0x20 ADD MLOAD PUSH2 0x1033 JUMP JUMPDEST PUSH1 0x0 PUSH1 0x60 DUP3 ADD MSTORE JUMPDEST DUP2 PUSH1 0x40 ADD MLOAD MLOAD DUP2 PUSH1 0x60 ADD MLOAD EQ PUSH2 0x1C10 JUMPI PUSH2 0x1ACF PUSH2 0x36D3 JUMP JUMPDEST DUP3 PUSH1 0x40 ADD MLOAD DUP3 PUSH1 0x60 ADD MLOAD DUP2 MLOAD DUP2 LT PUSH2 0x1AE3 JUMPI INVALID JUMPDEST PUSH1 0x20 MUL PUSH1 0x20 ADD ADD MLOAD SWAP1 POP PUSH2 0x1AFE DUP4 DUP4 PUSH1 0x60 ADD MLOAD PUSH1 0x1 ADD PUSH2 0x1F0D JUMP JUMPDEST PUSH20 0xFFFFFFFFFFFFFFFFFFFFFFFFFFFFFFFFFFFFFFFF AND PUSH1 0x40 DUP4 ADD MSTORE PUSH1 0x3 DUP2 MLOAD PUSH1 0x8 DUP2 GT ISZERO PUSH2 0x1B28 JUMPI INVALID JUMPDEST EQ ISZERO PUSH2 0x1B42 JUMPI PUSH2 0x1B3D DUP3 DUP5 DUP4 PUSH1 0x20 ADD MLOAD PUSH2 0x20CD JUMP JUMPDEST PUSH2 0x1BDF JUMP JUMPDEST PUSH1 0x4 DUP2 MLOAD PUSH1 0x8 DUP2 GT ISZERO PUSH2 0x1B51 JUMPI INVALID JUMPDEST EQ ISZERO PUSH2 0x1B65 JUMPI PUSH2 0x1B3D DUP3 DUP3 PUSH1 0x20 ADD MLOAD PUSH2 0x2216 JUMP JUMPDEST PUSH1 0x5 DUP2 MLOAD PUSH1 0x8 DUP2 GT ISZERO PUSH2 0x1B74 JUMPI INVALID JUMPDEST EQ ISZERO PUSH2 0x1B89 JUMPI PUSH2 0x1B3D DUP3 DUP5 DUP4 PUSH1 0x20 ADD MLOAD PUSH2 0x24D1 JUMP JUMPDEST PUSH1 0x7 DUP2 MLOAD PUSH1 0x8 DUP2 GT ISZERO PUSH2 0x1B98 JUMPI INVALID JUMPDEST EQ ISZERO PUSH2 0x1BAD JUMPI PUSH2 0x1B3D DUP3 DUP5 DUP4 PUSH1 0x20 ADD MLOAD PUSH2 0x270F JUMP JUMPDEST PUSH1 0x40 MLOAD PUSH32 0x8C379A000000000000000000000000000000000000000000000000000000000 DUP2 MSTORE PUSH1 0x4 ADD PUSH2 0x2B2 SWAP1 PUSH2 0x51AE JUMP JUMPDEST POP PUSH1 0x40 DUP2 ADD MLOAD PUSH20 0xFFFFFFFFFFFFFFFFFFFFFFFFFFFFFFFFFFFFFFFF AND PUSH1 0x20 DUP3 ADD MSTORE PUSH1 0x60 DUP2 ADD DUP1 MLOAD PUSH1 0x1 ADD SWAP1 MSTORE PUSH2 0x1AB7 JUMP JUMPDEST SWAP2 SWAP1 POP JUMP JUMPDEST PUSH1 0x0 DUP2 DUP4 LT PUSH2 0x1C24 JUMPI DUP2 PUSH2 0x988 JUMP JUMPDEST POP SWAP1 SWAP2 SWAP1 POP JUMP JUMPDEST PUSH1 0x60 PUSH4 0xE946C1BB PUSH1 0xE0 SHL DUP5 DUP5 DUP5 PUSH1 0x40 MLOAD PUSH1 0x24 ADD PUSH2 0x1C4A SWAP4 SWAP3 SWAP2 SWAP1 PUSH2 0x4961 JUMP JUMPDEST PUSH1 0x40 DUP1 MLOAD PUSH32 0xFFFFFFFFFFFFFFFFFFFFFFFFFFFFFFFFFFFFFFFFFFFFFFFFFFFFFFFFFFFFFFE0 DUP2 DUP5 SUB ADD DUP2 MSTORE SWAP2 SWAP1 MSTORE PUSH1 0x20 DUP2 ADD DUP1 MLOAD PUSH28 0xFFFFFFFFFFFFFFFFFFFFFFFFFFFFFFFFFFFFFFFFFFFFFFFFFFFFFFFF AND PUSH32 0xFFFFFFFF00000000000000000000000000000000000000000000000000000000 SWAP1 SWAP4 AND SWAP3 SWAP1 SWAP3 OR SWAP1 SWAP2 MSTORE SWAP1 POP SWAP4 SWAP3 POP POP POP JUMP JUMPDEST DUP1 MLOAD PUSH1 0x20 DUP3 ADD REVERT JUMPDEST PUSH2 0x1CE0 PUSH2 0x36B9 JUMP JUMPDEST PUSH1 0x0 JUMPDEST DUP3 PUSH1 0x60 ADD MLOAD MLOAD DUP2 EQ PUSH2 0x1E81 JUMPI PUSH1 0x40 DUP4 ADD MLOAD DUP3 MLOAD LT PUSH2 0x1D00 JUMPI PUSH2 0x1E81 JUMP JUMPDEST PUSH2 0x1D08 PUSH2 0x36EB JUMP JUMPDEST DUP4 PUSH1 0x60 ADD MLOAD DUP3 DUP2 MLOAD DUP2 LT PUSH2 0x1D18 JUMPI INVALID JUMPDEST PUSH1 0x20 MUL PUSH1 0x20 ADD ADD MLOAD SWAP1 POP PUSH1 0x0 PUSH2 0x1D3B DUP3 PUSH1 0x20 ADD MLOAD DUP7 PUSH1 0x40 ADD MLOAD DUP7 PUSH1 0x0 ADD MLOAD PUSH2 0x27FA JUMP JUMPDEST SWAP1 POP PUSH1 0x1 DUP3 MLOAD PUSH1 0x8 DUP2 GT ISZERO PUSH2 0x1D4C JUMPI INVALID JUMPDEST EQ ISZERO PUSH2 0x1D67 JUMPI PUSH2 0x1D62 DUP5 DUP7 DUP5 PUSH1 0x40 ADD MLOAD DUP5 PUSH2 0x288C JUMP JUMPDEST PUSH2 0x1E77 JUMP JUMPDEST PUSH1 0x2 DUP3 MLOAD PUSH1 0x8 DUP2 GT ISZERO PUSH2 0x1D76 JUMPI INVALID JUMPDEST EQ ISZERO PUSH2 0x1D8C JUMPI PUSH2 0x1D62 DUP5 DUP7 DUP5 PUSH1 0x40 ADD MLOAD DUP5 PUSH2 0x2ADE JUMP JUMPDEST PUSH1 0x3 DUP3 MLOAD PUSH1 0x8 DUP2 GT ISZERO PUSH2 0x1D9B JUMPI INVALID JUMPDEST EQ ISZERO PUSH2 0x1DB1 JUMPI PUSH2 0x1D62 DUP5 DUP7 DUP5 PUSH1 0x40 ADD MLOAD DUP5 PUSH2 0x2D21 JUMP JUMPDEST PUSH1 0x4 DUP3 MLOAD PUSH1 0x8 DUP2 GT ISZERO PUSH2 0x1DC0 JUMPI INVALID JUMPDEST EQ ISZERO PUSH2 0x1DD6 JUMPI PUSH2 0x1D62 DUP5 DUP7 DUP5 PUSH1 0x40 ADD MLOAD DUP5 PUSH2 0x2E91 JUMP JUMPDEST PUSH1 0x5 DUP3 MLOAD PUSH1 0x8 DUP2 GT ISZERO PUSH2 0x1DE5 JUMPI INVALID JUMPDEST EQ ISZERO PUSH2 0x1DFB JUMPI PUSH2 0x1D62 DUP5 DUP7 DUP5 PUSH1 0x40 ADD MLOAD DUP5 PUSH2 0x30DF JUMP JUMPDEST PUSH1 0x6 DUP3 MLOAD PUSH1 0x8 DUP2 GT ISZERO PUSH2 0x1E0A JUMPI INVALID JUMPDEST EQ ISZERO PUSH2 0x1E20 JUMPI PUSH2 0x1D62 DUP5 DUP7 DUP5 PUSH1 0x40 ADD MLOAD DUP5 PUSH2 0x3137 JUMP JUMPDEST PUSH1 0x8 DUP3 MLOAD PUSH1 0x8 DUP2 GT ISZERO PUSH2 0x1E2F JUMPI INVALID JUMPDEST EQ ISZERO PUSH2 0x1E45 JUMPI PUSH2 0x1D62 DUP5 DUP7 DUP5 PUSH1 0x40 ADD MLOAD DUP5 PUSH2 0x3288 JUMP JUMPDEST PUSH1 0x40 MLOAD PUSH32 0x8C379A000000000000000000000000000000000000000000000000000000000 DUP2 MSTORE PUSH1 0x4 ADD PUSH2 0x2B2 SWAP1 PUSH2 0x49AC JUMP JUMPDEST POP POP PUSH1 0x1 ADD PUSH2 0x1CE3 JUMP JUMPDEST POP PUSH1 0x40 DUP3 ADD MLOAD DUP2 MLOAD EQ PUSH2 0x1C10 JUMPI PUSH1 0x40 MLOAD PUSH32 0x8C379A000000000000000000000000000000000000000000000000000000000 DUP2 MSTORE PUSH1 0x4 ADD PUSH2 0x2B2 SWAP1 PUSH2 0x4A09 JUMP JUMPDEST PUSH1 0x0 DUP3 PUSH2 0x1ECF JUMPI POP PUSH1 0x0 PUSH2 0x157E JUMP JUMPDEST DUP3 DUP3 MUL DUP3 DUP5 DUP3 DUP2 PUSH2 0x1EDC JUMPI INVALID JUMPDEST DIV EQ PUSH2 0x988 JUMPI PUSH2 0x988 PUSH2 0x1574 PUSH1 0x1 DUP7 DUP7 PUSH2 0x1C2B JUMP JUMPDEST PUSH1 0x0 DUP3 DUP3 ADD DUP4 DUP2 LT ISZERO PUSH2 0x988 JUMPI PUSH2 0x988 PUSH2 0x1574 PUSH1 0x0 DUP7 DUP7 PUSH2 0x1C2B JUMP JUMPDEST PUSH1 0x0 DUP3 PUSH1 0x40 ADD MLOAD MLOAD DUP3 EQ ISZERO PUSH2 0x1F27 JUMPI POP PUSH1 0x80 DUP3 ADD MLOAD PUSH2 0x2080 JUMP JUMPDEST PUSH2 0x1F2F PUSH2 0x36D3 JUMP JUMPDEST DUP4 PUSH1 0x40 ADD MLOAD DUP4 DUP2 MLOAD DUP2 LT PUSH2 0x1F3F JUMPI INVALID JUMPDEST PUSH1 0x20 MUL PUSH1 0x20 ADD ADD MLOAD SWAP1 POP PUSH1 0x3 PUSH1 0x8 DUP2 GT ISZERO PUSH2 0x1F56 JUMPI INVALID JUMPDEST DUP2 MLOAD PUSH1 0x8 DUP2 GT ISZERO PUSH2 0x1F63 JUMPI INVALID JUMPDEST EQ ISZERO PUSH2 0x1FC5 JUMPI PUSH1 0x60 PUSH1 0x0 DUP3 PUSH1 0x20 ADD MLOAD DUP1 PUSH1 0x20 ADD SWAP1 MLOAD DUP2 ADD SWAP1 PUSH2 0x1F85 SWAP2 SWAP1 PUSH2 0x3F38 JUMP JUMPDEST SWAP2 POP SWAP2 POP PUSH2 0x1FBC DUP3 PUSH1 0x0 DUP2 MLOAD DUP2 LT PUSH2 0x1F99 JUMPI INVALID JUMPDEST PUSH1 0x20 MUL PUSH1 0x20 ADD ADD MLOAD DUP4 PUSH1 0x1 DUP2 MLOAD DUP2 LT PUSH2 0x1FAE JUMPI INVALID JUMPDEST PUSH1 0x20 MUL PUSH1 0x20 ADD ADD MLOAD DUP4 PUSH2 0xECB JUMP JUMPDEST SWAP4 POP POP POP PUSH2 0x207E JUMP JUMPDEST PUSH1 0x5 DUP2 MLOAD PUSH1 0x8 DUP2 GT ISZERO PUSH2 0x1FD4 JUMPI INVALID JUMPDEST EQ ISZERO PUSH2 0x1FFA JUMPI DUP1 PUSH1 0x20 ADD MLOAD DUP1 PUSH1 0x20 ADD SWAP1 MLOAD DUP2 ADD SWAP1 PUSH2 0x1FF2 SWAP2 SWAP1 PUSH2 0x3CB5 JUMP JUMPDEST POP SWAP2 POP PUSH2 0x207E JUMP JUMPDEST PUSH1 0x4 DUP2 MLOAD PUSH1 0x8 DUP2 GT ISZERO PUSH2 0x2009 JUMPI INVALID JUMPDEST EQ DUP1 PUSH2 0x2021 JUMPI POP PUSH1 0x7 DUP2 MLOAD PUSH1 0x8 DUP2 GT ISZERO PUSH2 0x201F JUMPI INVALID JUMPDEST EQ JUMPDEST ISZERO PUSH2 0x204C JUMPI DUP3 ISZERO DUP1 ISZERO PUSH2 0x2036 JUMPI POP DUP4 PUSH1 0x60 ADD MLOAD ISZERO JUMPDEST ISZERO PUSH2 0x2043 JUMPI CALLER SWAP2 POP PUSH2 0x2047 JUMP JUMPDEST ADDRESS SWAP2 POP JUMPDEST PUSH2 0x207E JUMP JUMPDEST PUSH1 0x40 MLOAD PUSH32 0x8C379A000000000000000000000000000000000000000000000000000000000 DUP2 MSTORE PUSH1 0x4 ADD PUSH2 0x2B2 SWAP1 PUSH2 0x4B7D JUMP JUMPDEST POP JUMPDEST PUSH20 0xFFFFFFFFFFFFFFFFFFFFFFFFFFFFFFFFFFFFFFFF DUP2 AND PUSH2 0x157E JUMPI PUSH1 0x40 MLOAD PUSH32 0x8C379A000000000000000000000000000000000000000000000000000000000 DUP2 MSTORE PUSH1 0x4 ADD PUSH2 0x2B2 SWAP1 PUSH2 0x4D74 JUMP JUMPDEST PUSH1 0x60 PUSH1 0x0 DUP3 DUP1 PUSH1 0x20 ADD SWAP1 MLOAD DUP2 ADD SWAP1 PUSH2 0x20E5 SWAP2 SWAP1 PUSH2 0x3F38 JUMP JUMPDEST SWAP2 POP SWAP2 POP PUSH1 0x2 DUP3 MLOAD LT ISZERO DUP1 ISZERO PUSH2 0x2152 JUMPI POP DUP4 MLOAD PUSH1 0x60 DUP7 ADD MLOAD DUP2 MLOAD DUP2 LT PUSH2 0x2107 JUMPI INVALID JUMPDEST PUSH1 0x20 MUL PUSH1 0x20 ADD ADD MLOAD PUSH20 0xFFFFFFFFFFFFFFFFFFFFFFFFFFFFFFFFFFFFFFFF AND DUP3 PUSH1 0x0 DUP2 MLOAD DUP2 LT PUSH2 0x2132 JUMPI INVALID JUMPDEST PUSH1 0x20 MUL PUSH1 0x20 ADD ADD MLOAD PUSH20 0xFFFFFFFFFFFFFFFFFFFFFFFFFFFFFFFFFFFFFFFF AND EQ JUMPDEST DUP1 ISZERO PUSH2 0x21BE JUMPI POP DUP4 PUSH1 0x0 ADD MLOAD DUP6 PUSH1 0x60 ADD MLOAD PUSH1 0x1 ADD DUP2 MLOAD DUP2 LT PUSH2 0x2170 JUMPI INVALID JUMPDEST PUSH1 0x20 MUL PUSH1 0x20 ADD ADD MLOAD PUSH20 0xFFFFFFFFFFFFFFFFFFFFFFFFFFFFFFFFFFFFFFFF AND DUP3 PUSH1 0x1 DUP5 MLOAD SUB DUP2 MLOAD DUP2 LT PUSH2 0x219E JUMPI INVALID JUMPDEST PUSH1 0x20 MUL PUSH1 0x20 ADD ADD MLOAD PUSH20 0xFFFFFFFFFFFFFFFFFFFFFFFFFFFFFFFFFFFFFFFF AND EQ JUMPDEST PUSH2 0x21F4 JUMPI PUSH1 0x40 MLOAD PUSH32 0x8C379A000000000000000000000000000000000000000000000000000000000 DUP2 MSTORE PUSH1 0x4 ADD PUSH2 0x2B2 SWAP1 PUSH2 0x4B20 JUMP JUMPDEST PUSH2 0x220D DUP3 DUP7 PUSH1 0x0 ADD MLOAD DUP4 DUP9 PUSH1 0x20 ADD MLOAD DUP10 PUSH1 0x40 ADD MLOAD PUSH2 0x1214 JUMP JUMPDEST SWAP1 SWAP5 MSTORE POP POP POP POP JUMP JUMPDEST PUSH1 0x0 PUSH1 0x60 ADDRESS PUSH20 0xFFFFFFFFFFFFFFFFFFFFFFFFFFFFFFFFFFFFFFFF AND DUP5 PUSH1 0x20 ADD MLOAD PUSH20 0xFFFFFFFFFFFFFFFFFFFFFFFFFFFFFFFFFFFFFFFF AND EQ ISZERO PUSH2 0x2368 JUMPI DUP4 MLOAD PUSH1 0x40 DUP1 DUP7 ADD MLOAD SWAP1 MLOAD ADDRESS SWAP3 PUSH32 0x4A931BA100000000000000000000000000000000000000000000000000000000 SWAP3 PUSH2 0x2292 SWAP3 DUP9 SWAP3 SWAP2 PUSH1 0x0 SWAP2 PUSH1 0x24 ADD PUSH2 0x48BE JUMP JUMPDEST PUSH1 0x40 DUP1 MLOAD PUSH32 0xFFFFFFFFFFFFFFFFFFFFFFFFFFFFFFFFFFFFFFFFFFFFFFFFFFFFFFFFFFFFFFE0 DUP2 DUP5 SUB ADD DUP2 MSTORE SWAP2 DUP2 MSTORE PUSH1 0x20 DUP3 ADD DUP1 MLOAD PUSH28 0xFFFFFFFFFFFFFFFFFFFFFFFFFFFFFFFFFFFFFFFFFFFFFFFFFFFFFFFF AND PUSH32 0xFFFFFFFF00000000000000000000000000000000000000000000000000000000 SWAP1 SWAP5 AND SWAP4 SWAP1 SWAP4 OR SWAP1 SWAP3 MSTORE SWAP1 MLOAD PUSH2 0x231B SWAP2 SWAP1 PUSH2 0x46EA JUMP JUMPDEST PUSH1 0x0 PUSH1 0x40 MLOAD DUP1 DUP4 SUB DUP2 PUSH1 0x0 DUP7 GAS CALL SWAP2 POP POP RETURNDATASIZE DUP1 PUSH1 0x0 DUP2 EQ PUSH2 0x2358 JUMPI PUSH1 0x40 MLOAD SWAP2 POP PUSH1 0x1F NOT PUSH1 0x3F RETURNDATASIZE ADD AND DUP3 ADD PUSH1 0x40 MSTORE RETURNDATASIZE DUP3 MSTORE RETURNDATASIZE PUSH1 0x0 PUSH1 0x20 DUP5 ADD RETURNDATACOPY PUSH2 0x235D JUMP JUMPDEST PUSH1 0x60 SWAP2 POP JUMPDEST POP SWAP1 SWAP3 POP SWAP1 POP PUSH2 0x2478 JUMP JUMPDEST DUP4 MLOAD PUSH1 0x40 DUP1 DUP7 ADD MLOAD SWAP1 MLOAD ADDRESS SWAP3 PUSH32 0x6AF479B200000000000000000000000000000000000000000000000000000000 SWAP3 PUSH2 0x23A8 SWAP3 DUP9 SWAP3 SWAP2 PUSH1 0x0 SWAP2 PUSH1 0x24 ADD PUSH2 0x48BE JUMP JUMPDEST PUSH1 0x40 DUP1 MLOAD PUSH32 0xFFFFFFFFFFFFFFFFFFFFFFFFFFFFFFFFFFFFFFFFFFFFFFFFFFFFFFFFFFFFFFE0 DUP2 DUP5 SUB ADD DUP2 MSTORE SWAP2 DUP2 MSTORE PUSH1 0x20 DUP3 ADD DUP1 MLOAD PUSH28 0xFFFFFFFFFFFFFFFFFFFFFFFFFFFFFFFFFFFFFFFFFFFFFFFFFFFFFFFF AND PUSH32 0xFFFFFFFF00000000000000000000000000000000000000000000000000000000 SWAP1 SWAP5 AND SWAP4 SWAP1 SWAP4 OR SWAP1 SWAP3 MSTORE SWAP1 MLOAD PUSH2 0x2431 SWAP2 SWAP1 PUSH2 0x46EA JUMP JUMPDEST PUSH1 0x0 PUSH1 0x40 MLOAD DUP1 DUP4 SUB DUP2 DUP6 GAS DELEGATECALL SWAP2 POP POP RETURNDATASIZE DUP1 PUSH1 0x0 DUP2 EQ PUSH2 0x246C JUMPI PUSH1 0x40 MLOAD SWAP2 POP PUSH1 0x1F NOT PUSH1 0x3F RETURNDATASIZE ADD AND DUP3 ADD PUSH1 0x40 MSTORE RETURNDATASIZE DUP3 MSTORE RETURNDATASIZE PUSH1 0x0 PUSH1 0x20 DUP5 ADD RETURNDATACOPY PUSH2 0x2471 JUMP JUMPDEST PUSH1 0x60 SWAP2 POP JUMPDEST POP SWAP1 SWAP3 POP SWAP1 POP JUMPDEST DUP2 ISZERO PUSH2 0x2499 JUMPI DUP1 DUP1 PUSH1 0x20 ADD SWAP1 MLOAD DUP2 ADD SWAP1 PUSH2 0x2492 SWAP2 SWAP1 PUSH2 0x4539 JUMP JUMPDEST DUP5 MSTORE PUSH2 0x24CB JUMP JUMPDEST PUSH1 0x40 MLOAD PUSH32 0x8C379A000000000000000000000000000000000000000000000000000000000 DUP2 MSTORE PUSH1 0x4 ADD PUSH2 0x2B2 SWAP1 PUSH2 0x4C5D JUMP JUMPDEST POP POP POP POP JUMP JUMPDEST PUSH1 0x0 DUP3 PUSH1 0x0 ADD MLOAD DUP5 PUSH1 0x60 ADD MLOAD DUP2 MLOAD DUP2 LT PUSH2 0x24E7 JUMPI INVALID JUMPDEST PUSH1 0x20 MUL PUSH1 0x20 ADD ADD MLOAD SWAP1 POP PUSH1 0x0 DUP4 PUSH1 0x0 ADD MLOAD DUP6 PUSH1 0x60 ADD MLOAD PUSH1 0x1 ADD DUP2 MLOAD DUP2 LT PUSH2 0x250A JUMPI INVALID JUMPDEST PUSH1 0x20 MUL PUSH1 0x20 ADD ADD MLOAD SWAP1 POP PUSH1 0x0 PUSH1 0x60 DUP5 DUP1 PUSH1 0x20 ADD SWAP1 MLOAD DUP2 ADD SWAP1 PUSH2 0x252C SWAP2 SWAP1 PUSH2 0x3CB5 JUMP JUMPDEST SWAP2 POP SWAP2 POP PUSH1 0x0 DUP4 PUSH20 0xFFFFFFFFFFFFFFFFFFFFFFFFFFFFFFFFFFFFFFFF AND PUSH4 0x70A08231 DUP10 PUSH1 0x40 ADD MLOAD PUSH1 0x40 MLOAD DUP3 PUSH4 0xFFFFFFFF AND PUSH1 0xE0 SHL DUP2 MSTORE PUSH1 0x4 ADD PUSH2 0x256F SWAP2 SWAP1 PUSH2 0x47A2 JUMP JUMPDEST PUSH1 0x20 PUSH1 0x40 MLOAD DUP1 DUP4 SUB DUP2 DUP7 DUP1 EXTCODESIZE ISZERO DUP1 ISZERO PUSH2 0x2587 JUMPI PUSH1 0x0 DUP1 REVERT JUMPDEST POP GAS STATICCALL ISZERO DUP1 ISZERO PUSH2 0x259B JUMPI RETURNDATASIZE PUSH1 0x0 DUP1 RETURNDATACOPY RETURNDATASIZE PUSH1 0x0 REVERT JUMPDEST POP POP POP POP PUSH1 0x40 MLOAD RETURNDATASIZE PUSH1 0x1F NOT PUSH1 0x1F DUP3 ADD AND DUP3 ADD DUP1 PUSH1 0x40 MSTORE POP DUP2 ADD SWAP1 PUSH2 0x25BF SWAP2 SWAP1 PUSH2 0x4539 JUMP JUMPDEST SWAP1 POP PUSH32 0x0 PUSH20 0xFFFFFFFFFFFFFFFFFFFFFFFFFFFFFFFFFFFFFFFF AND PUSH4 0xBB503E21 DUP5 DUP8 DUP8 DUP13 PUSH1 0x40 ADD MLOAD PUSH1 0x0 DUP9 PUSH1 0x40 MLOAD DUP8 PUSH4 0xFFFFFFFF AND PUSH1 0xE0 SHL DUP2 MSTORE PUSH1 0x4 ADD PUSH2 0x2629 SWAP7 SWAP6 SWAP5 SWAP4 SWAP3 SWAP2 SWAP1 PUSH2 0x4906 JUMP JUMPDEST PUSH1 0x0 PUSH1 0x40 MLOAD DUP1 DUP4 SUB DUP2 PUSH1 0x0 DUP8 DUP1 EXTCODESIZE ISZERO DUP1 ISZERO PUSH2 0x2643 JUMPI PUSH1 0x0 DUP1 REVERT JUMPDEST POP GAS CALL ISZERO DUP1 ISZERO PUSH2 0x2657 JUMPI RETURNDATASIZE PUSH1 0x0 DUP1 RETURNDATACOPY RETURNDATASIZE PUSH1 0x0 REVERT JUMPDEST POP POP DUP10 MLOAD PUSH1 0x40 DUP1 DUP13 ADD MLOAD SWAP1 MLOAD PUSH32 0x70A0823100000000000000000000000000000000000000000000000000000000 DUP2 MSTORE SWAP2 SWAP4 POP PUSH2 0x26BB SWAP3 POP DUP5 SWAP2 PUSH20 0xFFFFFFFFFFFFFFFFFFFFFFFFFFFFFFFFFFFFFFFF DUP10 AND SWAP2 PUSH4 0x70A08231 SWAP2 PUSH2 0x766 SWAP2 SWAP1 PUSH1 0x4 ADD PUSH2 0x47A2 JUMP JUMPDEST DUP1 DUP11 MSTORE PUSH1 0x40 DUP1 DUP12 ADD MLOAD SWAP1 MLOAD PUSH32 0x40A6BA9513D09E3488135E0E0D10E2D4382B792720155B144CBEA89AC9DB6D34 SWAP3 PUSH2 0x26FC SWAP3 DUP11 SWAP3 DUP11 SWAP3 DUP8 SWAP3 SWAP1 SWAP2 DUP12 SWAP2 SWAP1 PUSH2 0x47C3 JUMP JUMPDEST PUSH1 0x40 MLOAD DUP1 SWAP2 SUB SWAP1 LOG1 POP POP POP POP POP POP POP POP POP JUMP JUMPDEST PUSH2 0x2717 PUSH2 0x370D JUMP JUMPDEST DUP2 DUP1 PUSH1 0x20 ADD SWAP1 MLOAD DUP2 ADD SWAP1 PUSH2 0x272B SWAP2 SWAP1 PUSH2 0x3F7D JUMP JUMPDEST PUSH1 0x60 DUP1 DUP4 ADD SWAP2 SWAP1 SWAP2 MSTORE DUP4 MLOAD SWAP1 DUP6 ADD MLOAD DUP2 MLOAD DUP2 LT PUSH2 0x2744 JUMPI INVALID JUMPDEST PUSH1 0x20 SWAP1 DUP2 MUL SWAP2 SWAP1 SWAP2 ADD ADD MLOAD PUSH20 0xFFFFFFFFFFFFFFFFFFFFFFFFFFFFFFFFFFFFFFFF AND DUP2 MSTORE DUP3 MLOAD PUSH1 0x60 DUP6 ADD MLOAD DUP2 MLOAD PUSH1 0x1 SWAP1 SWAP2 ADD SWAP1 DUP2 LT PUSH2 0x277E JUMPI INVALID JUMPDEST PUSH1 0x20 SWAP1 DUP2 MUL SWAP2 SWAP1 SWAP2 ADD DUP2 ADD MLOAD PUSH20 0xFFFFFFFFFFFFFFFFFFFFFFFFFFFFFFFFFFFFFFFF AND SWAP1 DUP3 ADD MSTORE DUP4 MLOAD PUSH1 0x40 DUP3 ADD MSTORE PUSH1 0x60 DUP5 ADD MLOAD ISZERO ISZERO DUP1 PUSH2 0x27BE JUMPI POP DUP3 PUSH1 0x60 ADD MLOAD JUMPDEST ISZERO ISZERO PUSH1 0x80 DUP3 ADD MSTORE PUSH1 0x40 DUP5 ADD MLOAD PUSH20 0xFFFFFFFFFFFFFFFFFFFFFFFFFFFFFFFFFFFFFFFF AND PUSH1 0xA0 DUP3 ADD MSTORE PUSH2 0x27EE DUP2 PUSH2 0x1CD8 JUMP JUMPDEST PUSH1 0x20 ADD MLOAD SWAP1 SWAP4 MSTORE POP POP POP JUMP JUMPDEST PUSH1 0x0 PUSH32 0x8000000000000000000000000000000000000000000000000000000000000000 DUP1 DUP6 AND EQ ISZERO PUSH2 0x287E JUMPI PUSH2 0x2877 PUSH8 0xDE0B6B3A7640000 PUSH2 0x285E PUSH32 0x7FFFFFFFFFFFFFFFFFFFFFFFFFFFFFFFFFFFFFFFFFFFFFFFFFFFFFFFFFFFFFFF DUP8 AND DUP3 PUSH2 0x1C15 JUMP JUMPDEST DUP6 MUL DUP2 PUSH2 0x2867 JUMPI INVALID JUMPDEST DIV PUSH2 0x2872 DUP6 DUP6 PUSH2 0x155B JUMP JUMPDEST PUSH2 0x1C15 JUMP JUMPDEST SWAP1 POP PUSH2 0x988 JUMP JUMPDEST PUSH2 0x2877 DUP5 PUSH2 0x2872 DUP6 DUP6 PUSH2 0x155B JUMP JUMPDEST PUSH2 0x2894 PUSH2 0x3741 JUMP JUMPDEST PUSH2 0x289C PUSH2 0x3795 JUMP JUMPDEST DUP4 DUP1 PUSH1 0x20 ADD SWAP1 MLOAD DUP2 ADD SWAP1 PUSH2 0x28B0 SWAP2 SWAP1 PUSH2 0x43E0 JUMP JUMPDEST SWAP2 POP SWAP2 POP TIMESTAMP PUSH8 0xFFFFFFFFFFFFFFFF AND DUP3 PUSH2 0x100 ADD MLOAD PUSH8 0xFFFFFFFFFFFFFFFF AND GT PUSH2 0x2935 JUMPI PUSH1 0x0 PUSH2 0x28E7 PUSH2 0x28E2 DUP5 PUSH2 0x32F9 JUMP JUMPDEST PUSH2 0x3430 JUMP JUMPDEST SWAP1 POP PUSH32 0xD9EE00A67DAF7D99C37893015DC900862C9A02650EF2D318697E502E5FB8BBE2 DUP2 DUP5 PUSH1 0x80 ADD MLOAD DUP6 PUSH2 0x100 ADD MLOAD PUSH1 0x40 MLOAD PUSH2 0x2925 SWAP4 SWAP3 SWAP2 SWAP1 PUSH2 0x4813 JUMP JUMPDEST PUSH1 0x40 MLOAD DUP1 SWAP2 SUB SWAP1 LOG1 POP POP POP PUSH2 0x24CB JUMP JUMPDEST DUP5 PUSH1 0x0 ADD MLOAD PUSH20 0xFFFFFFFFFFFFFFFFFFFFFFFFFFFFFFFFFFFFFFFF AND DUP3 PUSH1 0x20 ADD MLOAD PUSH20 0xFFFFFFFFFFFFFFFFFFFFFFFFFFFFFFFFFFFFFFFF AND EQ DUP1 ISZERO PUSH2 0x29AB JUMPI POP DUP5 PUSH1 0x20 ADD MLOAD PUSH20 0xFFFFFFFFFFFFFFFFFFFFFFFFFFFFFFFFFFFFFFFF AND DUP3 PUSH1 0x0 ADD MLOAD PUSH20 0xFFFFFFFFFFFFFFFFFFFFFFFFFFFFFFFFFFFFFFFF AND EQ JUMPDEST PUSH2 0x29E1 JUMPI PUSH1 0x40 MLOAD PUSH32 0x8C379A000000000000000000000000000000000000000000000000000000000 DUP2 MSTORE PUSH1 0x4 ADD PUSH2 0x2B2 SWAP1 PUSH2 0x4E54 JUMP JUMPDEST ADDRESS PUSH4 0xAA6B21CD DUP4 DUP4 PUSH2 0x29F2 DUP8 PUSH2 0x3482 JUMP JUMPDEST CALLER DUP11 PUSH1 0x80 ADD MLOAD DUP12 PUSH1 0xA0 ADD MLOAD PUSH1 0x40 MLOAD DUP8 PUSH4 0xFFFFFFFF AND PUSH1 0xE0 SHL DUP2 MSTORE PUSH1 0x4 ADD PUSH2 0x2A1E SWAP7 SWAP6 SWAP5 SWAP4 SWAP3 SWAP2 SWAP1 PUSH2 0x53E6 JUMP JUMPDEST PUSH1 0x40 DUP1 MLOAD DUP1 DUP4 SUB DUP2 PUSH1 0x0 DUP8 DUP1 EXTCODESIZE ISZERO DUP1 ISZERO PUSH2 0x2A37 JUMPI PUSH1 0x0 DUP1 REVERT JUMPDEST POP GAS CALL SWAP3 POP POP POP DUP1 ISZERO PUSH2 0x2A85 JUMPI POP PUSH1 0x40 DUP1 MLOAD PUSH1 0x1F RETURNDATASIZE SWAP1 DUP2 ADD PUSH32 0xFFFFFFFFFFFFFFFFFFFFFFFFFFFFFFFFFFFFFFFFFFFFFFFFFFFFFFFFFFFFFFE0 AND DUP3 ADD SWAP1 SWAP3 MSTORE PUSH2 0x2A82 SWAP2 DUP2 ADD SWAP1 PUSH2 0x450B JUMP JUMPDEST PUSH1 0x1 JUMPDEST PUSH2 0x2A8E JUMPI PUSH2 0x110D JUMP JUMPDEST DUP8 MLOAD PUSH2 0x2AAC SWAP1 PUSH16 0xFFFFFFFFFFFFFFFFFFFFFFFFFFFFFFFF DUP5 AND PUSH2 0x1EF1 JUMP JUMPDEST DUP9 MSTORE PUSH1 0x20 DUP9 ADD MLOAD PUSH2 0x2ACF SWAP1 PUSH16 0xFFFFFFFFFFFFFFFFFFFFFFFFFFFFFFFF DUP4 AND PUSH2 0x1EF1 JUMP JUMPDEST PUSH1 0x20 DUP10 ADD MSTORE POP POP POP POP POP POP POP POP JUMP JUMPDEST PUSH2 0x2AE6 PUSH2 0x37BE JUMP JUMPDEST PUSH2 0x2AEE PUSH2 0x3795 JUMP JUMPDEST DUP4 DUP1 PUSH1 0x20 ADD SWAP1 MLOAD DUP2 ADD SWAP1 PUSH2 0x2B02 SWAP2 SWAP1 PUSH2 0x4315 JUMP JUMPDEST SWAP2 POP SWAP2 POP DUP5 PUSH1 0x0 ADD MLOAD PUSH20 0xFFFFFFFFFFFFFFFFFFFFFFFFFFFFFFFFFFFFFFFF AND DUP3 PUSH1 0x20 ADD MLOAD PUSH20 0xFFFFFFFFFFFFFFFFFFFFFFFFFFFFFFFFFFFFFFFF AND EQ DUP1 ISZERO PUSH2 0x2B7C JUMPI POP DUP5 PUSH1 0x20 ADD MLOAD PUSH20 0xFFFFFFFFFFFFFFFFFFFFFFFFFFFFFFFFFFFFFFFF AND DUP3 PUSH1 0x0 ADD MLOAD PUSH20 0xFFFFFFFFFFFFFFFFFFFFFFFFFFFFFFFFFFFFFFFF AND EQ JUMPDEST PUSH2 0x2BB2 JUMPI PUSH1 0x40 MLOAD PUSH32 0x8C379A000000000000000000000000000000000000000000000000000000000 DUP2 MSTORE PUSH1 0x4 ADD PUSH2 0x2B2 SWAP1 PUSH2 0x4AC3 JUMP JUMPDEST PUSH1 0xE0 DUP3 ADD MLOAD PUSH1 0xC0 SHR PUSH8 0xFFFFFFFFFFFFFFFF TIMESTAMP AND DUP2 GT PUSH2 0x2C23 JUMPI PUSH1 0x0 PUSH2 0x2BD9 PUSH2 0x28E2 DUP6 PUSH2 0x34AE JUMP JUMPDEST SWAP1 POP PUSH32 0x5574C085411E1DCE1414A21A43F286A7BC07DE97B0AA6B9143FD5DCA66FAA583 DUP2 DUP6 PUSH1 0x80 ADD MLOAD DUP5 PUSH1 0x40 MLOAD PUSH2 0x2C12 SWAP4 SWAP3 SWAP2 SWAP1 PUSH2 0x4813 JUMP JUMPDEST PUSH1 0x40 MLOAD DUP1 SWAP2 SUB SWAP1 LOG1 POP POP POP POP PUSH2 0x24CB JUMP JUMPDEST ADDRESS PUSH4 0xE4BA8439 DUP5 DUP5 PUSH2 0x2C34 DUP9 PUSH2 0x3482 JUMP JUMPDEST CALLER DUP12 PUSH1 0x80 ADD MLOAD DUP13 PUSH1 0xA0 ADD MLOAD PUSH1 0x40 MLOAD DUP8 PUSH4 0xFFFFFFFF AND PUSH1 0xE0 SHL DUP2 MSTORE PUSH1 0x4 ADD PUSH2 0x2C60 SWAP7 SWAP6 SWAP5 SWAP4 SWAP3 SWAP2 SWAP1 PUSH2 0x52F3 JUMP JUMPDEST PUSH1 0x40 DUP1 MLOAD DUP1 DUP4 SUB DUP2 PUSH1 0x0 DUP8 DUP1 EXTCODESIZE ISZERO DUP1 ISZERO PUSH2 0x2C79 JUMPI PUSH1 0x0 DUP1 REVERT JUMPDEST POP GAS CALL SWAP3 POP POP POP DUP1 ISZERO PUSH2 0x2CC7 JUMPI POP PUSH1 0x40 DUP1 MLOAD PUSH1 0x1F RETURNDATASIZE SWAP1 DUP2 ADD PUSH32 0xFFFFFFFFFFFFFFFFFFFFFFFFFFFFFFFFFFFFFFFFFFFFFFFFFFFFFFFFFFFFFFE0 AND DUP3 ADD SWAP1 SWAP3 MSTORE PUSH2 0x2CC4 SWAP2 DUP2 ADD SWAP1 PUSH2 0x450B JUMP JUMPDEST PUSH1 0x1 JUMPDEST PUSH2 0x2CD0 JUMPI PUSH2 0x120B JUMP JUMPDEST DUP9 MLOAD PUSH2 0x2CEE SWAP1 PUSH16 0xFFFFFFFFFFFFFFFFFFFFFFFFFFFFFFFF DUP5 AND PUSH2 0x1EF1 JUMP JUMPDEST DUP10 MSTORE PUSH1 0x20 DUP10 ADD MLOAD PUSH2 0x2D11 SWAP1 PUSH16 0xFFFFFFFFFFFFFFFFFFFFFFFFFFFFFFFF DUP4 AND PUSH2 0x1EF1 JUMP JUMPDEST PUSH1 0x20 DUP11 ADD MSTORE POP POP POP POP POP POP POP POP POP JUMP JUMPDEST PUSH1 0x0 PUSH1 0x60 PUSH32 0x0 PUSH20 0xFFFFFFFFFFFFFFFFFFFFFFFFFFFFFFFFFFFFFFFF AND PUSH4 0x8378817 PUSH1 0xE0 SHL DUP7 DUP7 DUP7 PUSH1 0x40 MLOAD PUSH1 0x24 ADD PUSH2 0x2D79 SWAP4 SWAP3 SWAP2 SWAP1 PUSH2 0x520B JUMP JUMPDEST PUSH1 0x40 DUP1 MLOAD PUSH32 0xFFFFFFFFFFFFFFFFFFFFFFFFFFFFFFFFFFFFFFFFFFFFFFFFFFFFFFFFFFFFFFE0 DUP2 DUP5 SUB ADD DUP2 MSTORE SWAP2 DUP2 MSTORE PUSH1 0x20 DUP3 ADD DUP1 MLOAD PUSH28 0xFFFFFFFFFFFFFFFFFFFFFFFFFFFFFFFFFFFFFFFFFFFFFFFFFFFFFFFF AND PUSH32 0xFFFFFFFF00000000000000000000000000000000000000000000000000000000 SWAP1 SWAP5 AND SWAP4 SWAP1 SWAP4 OR SWAP1 SWAP3 MSTORE SWAP1 MLOAD PUSH2 0x2E02 SWAP2 SWAP1 PUSH2 0x46EA JUMP JUMPDEST PUSH1 0x0 PUSH1 0x40 MLOAD DUP1 DUP4 SUB DUP2 DUP6 GAS DELEGATECALL SWAP2 POP POP RETURNDATASIZE DUP1 PUSH1 0x0 DUP2 EQ PUSH2 0x2E3D JUMPI PUSH1 0x40 MLOAD SWAP2 POP PUSH1 0x1F NOT PUSH1 0x3F RETURNDATASIZE ADD AND DUP3 ADD PUSH1 0x40 MSTORE RETURNDATASIZE DUP3 MSTORE RETURNDATASIZE PUSH1 0x0 PUSH1 0x20 DUP5 ADD RETURNDATACOPY PUSH2 0x2E42 JUMP JUMPDEST PUSH1 0x60 SWAP2 POP JUMPDEST POP SWAP2 POP SWAP2 POP DUP2 ISZERO PUSH2 0x110D JUMPI PUSH1 0x0 DUP2 DUP1 PUSH1 0x20 ADD SWAP1 MLOAD DUP2 ADD SWAP1 PUSH2 0x2E63 SWAP2 SWAP1 PUSH2 0x4539 JUMP JUMPDEST DUP8 MLOAD SWAP1 SWAP2 POP PUSH2 0x2E72 SWAP1 DUP6 PUSH2 0x1EF1 JUMP JUMPDEST DUP8 MSTORE PUSH1 0x20 DUP8 ADD MLOAD PUSH2 0x2E83 SWAP1 DUP3 PUSH2 0x1EF1 JUMP JUMPDEST PUSH1 0x20 DUP9 ADD MSTORE POP POP POP POP POP POP POP JUMP JUMPDEST PUSH1 0x0 PUSH1 0x60 DUP5 PUSH1 0x80 ADD MLOAD ISZERO PUSH2 0x2FB4 JUMPI PUSH1 0xA0 DUP6 ADD MLOAD PUSH1 0x40 MLOAD ADDRESS SWAP2 PUSH32 0x4A931BA100000000000000000000000000000000000000000000000000000000 SWAP2 PUSH2 0x2EDE SWAP2 DUP9 SWAP2 DUP9 SWAP2 PUSH1 0x0 SWAP2 PUSH1 0x24 ADD PUSH2 0x48BE JUMP JUMPDEST PUSH1 0x40 DUP1 MLOAD PUSH32 0xFFFFFFFFFFFFFFFFFFFFFFFFFFFFFFFFFFFFFFFFFFFFFFFFFFFFFFFFFFFFFFE0 DUP2 DUP5 SUB ADD DUP2 MSTORE SWAP2 DUP2 MSTORE PUSH1 0x20 DUP3 ADD DUP1 MLOAD PUSH28 0xFFFFFFFFFFFFFFFFFFFFFFFFFFFFFFFFFFFFFFFFFFFFFFFFFFFFFFFF AND PUSH32 0xFFFFFFFF00000000000000000000000000000000000000000000000000000000 SWAP1 SWAP5 AND SWAP4 SWAP1 SWAP4 OR SWAP1 SWAP3 MSTORE SWAP1 MLOAD PUSH2 0x2F67 SWAP2 SWAP1 PUSH2 0x46EA JUMP JUMPDEST PUSH1 0x0 PUSH1 0x40 MLOAD DUP1 DUP4 SUB DUP2 PUSH1 0x0 DUP7 GAS CALL SWAP2 POP POP RETURNDATASIZE DUP1 PUSH1 0x0 DUP2 EQ PUSH2 0x2FA4 JUMPI PUSH1 0x40 MLOAD SWAP2 POP PUSH1 0x1F NOT PUSH1 0x3F RETURNDATASIZE ADD AND DUP3 ADD PUSH1 0x40 MSTORE RETURNDATASIZE DUP3 MSTORE RETURNDATASIZE PUSH1 0x0 PUSH1 0x20 DUP5 ADD RETURNDATACOPY PUSH2 0x2FA9 JUMP JUMPDEST PUSH1 0x60 SWAP2 POP JUMPDEST POP SWAP1 SWAP3 POP SWAP1 POP PUSH2 0x30C3 JUMP JUMPDEST PUSH1 0xA0 DUP6 ADD MLOAD PUSH1 0x40 MLOAD ADDRESS SWAP2 PUSH32 0x6AF479B200000000000000000000000000000000000000000000000000000000 SWAP2 PUSH2 0x2FF3 SWAP2 DUP9 SWAP2 DUP9 SWAP2 PUSH1 0x0 SWAP2 PUSH1 0x24 ADD PUSH2 0x48BE JUMP JUMPDEST PUSH1 0x40 DUP1 MLOAD PUSH32 0xFFFFFFFFFFFFFFFFFFFFFFFFFFFFFFFFFFFFFFFFFFFFFFFFFFFFFFFFFFFFFFE0 DUP2 DUP5 SUB ADD DUP2 MSTORE SWAP2 DUP2 MSTORE PUSH1 0x20 DUP3 ADD DUP1 MLOAD PUSH28 0xFFFFFFFFFFFFFFFFFFFFFFFFFFFFFFFFFFFFFFFFFFFFFFFFFFFFFFFF AND PUSH32 0xFFFFFFFF00000000000000000000000000000000000000000000000000000000 SWAP1 SWAP5 AND SWAP4 SWAP1 SWAP4 OR SWAP1 SWAP3 MSTORE SWAP1 MLOAD PUSH2 0x307C SWAP2 SWAP1 PUSH2 0x46EA JUMP JUMPDEST PUSH1 0x0 PUSH1 0x40 MLOAD DUP1 DUP4 SUB DUP2 DUP6 GAS DELEGATECALL SWAP2 POP POP RETURNDATASIZE DUP1 PUSH1 0x0 DUP2 EQ PUSH2 0x30B7 JUMPI PUSH1 0x40 MLOAD SWAP2 POP PUSH1 0x1F NOT PUSH1 0x3F RETURNDATASIZE ADD AND DUP3 ADD PUSH1 0x40 MSTORE RETURNDATASIZE DUP3 MSTORE RETURNDATASIZE PUSH1 0x0 PUSH1 0x20 DUP5 ADD RETURNDATACOPY PUSH2 0x30BC JUMP JUMPDEST PUSH1 0x60 SWAP2 POP JUMPDEST POP SWAP1 SWAP3 POP SWAP1 POP JUMPDEST DUP2 ISZERO PUSH2 0x110D JUMPI PUSH1 0x0 DUP2 DUP1 PUSH1 0x20 ADD SWAP1 MLOAD DUP2 ADD SWAP1 PUSH2 0x2E63 SWAP2 SWAP1 PUSH2 0x4539 JUMP JUMPDEST PUSH1 0x0 PUSH1 0x60 PUSH32 0x0 PUSH20 0xFFFFFFFFFFFFFFFFFFFFFFFFFFFFFFFFFFFFFFFF AND PUSH4 0x209C02C5 PUSH1 0xE0 SHL DUP7 DUP7 DUP7 PUSH1 0x40 MLOAD PUSH1 0x24 ADD PUSH2 0x2D79 SWAP4 SWAP3 SWAP2 SWAP1 PUSH2 0x520B JUMP JUMPDEST PUSH2 0x313F PUSH2 0x3802 JUMP JUMPDEST CALLER DUP2 MSTORE DUP4 MLOAD PUSH20 0xFFFFFFFFFFFFFFFFFFFFFFFFFFFFFFFFFFFFFFFF SWAP1 DUP2 AND PUSH1 0x20 DUP1 DUP5 ADD SWAP2 SWAP1 SWAP2 MSTORE DUP1 DUP7 ADD MLOAD DUP3 AND PUSH1 0x40 DUP5 ADD MSTORE PUSH1 0x60 DUP4 ADD DUP5 SWAP1 MSTORE PUSH1 0x0 PUSH1 0x80 DUP1 DUP6 ADD SWAP2 SWAP1 SWAP2 MSTORE DUP7 ADD MLOAD ISZERO ISZERO PUSH1 0xC0 DUP5 ADD MSTORE PUSH1 0xA0 DUP7 ADD MLOAD SWAP1 SWAP2 AND PUSH1 0xE0 DUP4 ADD MSTORE DUP4 MLOAD PUSH2 0x31AC SWAP2 SWAP1 DUP6 ADD DUP2 ADD SWAP1 DUP6 ADD PUSH2 0x4079 JUMP JUMPDEST PUSH1 0xA0 DUP3 ADD MSTORE PUSH1 0x40 MLOAD PUSH32 0x8AA6539B00000000000000000000000000000000000000000000000000000000 DUP2 MSTORE ADDRESS SWAP1 PUSH4 0x8AA6539B SWAP1 PUSH2 0x31ED SWAP1 DUP5 SWAP1 PUSH1 0x4 ADD PUSH2 0x54DC JUMP JUMPDEST PUSH1 0x20 PUSH1 0x40 MLOAD DUP1 DUP4 SUB DUP2 PUSH1 0x0 DUP8 DUP1 EXTCODESIZE ISZERO DUP1 ISZERO PUSH2 0x3207 JUMPI PUSH1 0x0 DUP1 REVERT JUMPDEST POP GAS CALL SWAP3 POP POP POP DUP1 ISZERO PUSH2 0x3255 JUMPI POP PUSH1 0x40 DUP1 MLOAD PUSH1 0x1F RETURNDATASIZE SWAP1 DUP2 ADD PUSH32 0xFFFFFFFFFFFFFFFFFFFFFFFFFFFFFFFFFFFFFFFFFFFFFFFFFFFFFFFFFFFFFFE0 AND DUP3 ADD SWAP1 SWAP3 MSTORE PUSH2 0x3252 SWAP2 DUP2 ADD SWAP1 PUSH2 0x4539 JUMP JUMPDEST PUSH1 0x1 JUMPDEST PUSH2 0x325E JUMPI PUSH2 0x17FD JUMP JUMPDEST DUP6 MLOAD PUSH2 0x326A SWAP1 DUP5 PUSH2 0x1EF1 JUMP JUMPDEST DUP7 MSTORE PUSH1 0x20 DUP7 ADD MLOAD PUSH2 0x327B SWAP1 DUP3 PUSH2 0x1EF1 JUMP JUMPDEST PUSH1 0x20 DUP8 ADD MSTORE POP POP POP POP POP POP JUMP JUMPDEST PUSH2 0x3290 PUSH2 0x3845 JUMP JUMPDEST DUP3 DUP1 PUSH1 0x20 ADD SWAP1 MLOAD DUP2 ADD SWAP1 PUSH2 0x32A4 SWAP2 SWAP1 PUSH2 0x3CFA JUMP JUMPDEST PUSH1 0x40 DUP4 ADD MSTORE DUP2 MSTORE PUSH1 0x20 DUP2 ADD DUP3 SWAP1 MSTORE PUSH1 0x80 DUP1 DUP6 ADD MLOAD ISZERO ISZERO PUSH1 0x60 DUP4 ADD MSTORE PUSH1 0xA0 DUP6 ADD MLOAD PUSH20 0xFFFFFFFFFFFFFFFFFFFFFFFFFFFFFFFFFFFFFFFF AND SWAP1 DUP3 ADD MSTORE PUSH1 0x0 PUSH2 0x32E9 DUP3 PUSH2 0x19C2 JUMP JUMPDEST MLOAD DUP7 MLOAD SWAP1 SWAP2 POP PUSH2 0x326A SWAP1 DUP5 PUSH2 0x1EF1 JUMP JUMPDEST PUSH1 0x0 PUSH1 0x40 MLOAD PUSH32 0xE593D3FDFA8B60E5E17A1B2204662ECBE15C23F2084B9AD5BAE40359540A7DA9 DUP2 MSTORE DUP3 MLOAD PUSH20 0xFFFFFFFFFFFFFFFFFFFFFFFFFFFFFFFFFFFFFFFF AND PUSH1 0x20 DUP3 ADD MSTORE PUSH1 0x20 DUP4 ADD MLOAD PUSH20 0xFFFFFFFFFFFFFFFFFFFFFFFFFFFFFFFFFFFFFFFF AND PUSH1 0x40 DUP3 ADD MSTORE PUSH1 0x40 DUP4 ADD MLOAD PUSH16 0xFFFFFFFFFFFFFFFFFFFFFFFFFFFFFFFF AND PUSH1 0x60 DUP3 ADD MSTORE PUSH1 0x60 DUP4 ADD MLOAD PUSH16 0xFFFFFFFFFFFFFFFFFFFFFFFFFFFFFFFF AND PUSH1 0x80 DUP3 ADD MSTORE PUSH1 0x80 DUP4 ADD MLOAD PUSH20 0xFFFFFFFFFFFFFFFFFFFFFFFFFFFFFFFFFFFFFFFF AND PUSH1 0xA0 DUP3 ADD MSTORE PUSH1 0xA0 DUP4 ADD MLOAD PUSH20 0xFFFFFFFFFFFFFFFFFFFFFFFFFFFFFFFFFFFFFFFF AND PUSH1 0xC0 DUP3 ADD MSTORE PUSH1 0xC0 DUP4 ADD MLOAD PUSH20 0xFFFFFFFFFFFFFFFFFFFFFFFFFFFFFFFFFFFFFFFF AND PUSH1 0xE0 DUP3 ADD MSTORE PUSH1 0xE0 DUP4 ADD MLOAD PUSH2 0x100 DUP3 ADD MSTORE PUSH2 0x100 DUP4 ADD MLOAD PUSH8 0xFFFFFFFFFFFFFFFF AND PUSH2 0x120 DUP3 ADD MSTORE PUSH2 0x120 DUP4 ADD MLOAD PUSH2 0x140 DUP3 ADD MSTORE PUSH2 0x160 DUP2 KECCAK256 SWAP2 POP POP SWAP2 SWAP1 POP JUMP JUMPDEST PUSH1 0x0 PUSH32 0x0 DUP3 PUSH1 0x40 MLOAD PUSH1 0x20 ADD PUSH2 0x3465 SWAP3 SWAP2 SWAP1 PUSH2 0x4706 JUMP JUMPDEST PUSH1 0x40 MLOAD PUSH1 0x20 DUP2 DUP4 SUB SUB DUP2 MSTORE SWAP1 PUSH1 0x40 MSTORE DUP1 MLOAD SWAP1 PUSH1 0x20 ADD KECCAK256 SWAP1 POP SWAP2 SWAP1 POP JUMP JUMPDEST PUSH1 0x0 PUSH16 0xFFFFFFFFFFFFFFFFFFFFFFFFFFFFFFFF DUP3 GT ISZERO PUSH2 0x34AA JUMPI PUSH2 0x34AA PUSH2 0x1574 PUSH1 0x3 DUP5 PUSH2 0x35C3 JUMP JUMPDEST POP SWAP1 JUMP JUMPDEST PUSH1 0x0 PUSH1 0x40 MLOAD PUSH32 0x2F754524DE756AE72459EFBE1EC88C19A745639821DE528AC3FB88F9E65E35C8 DUP2 MSTORE DUP3 MLOAD PUSH20 0xFFFFFFFFFFFFFFFFFFFFFFFFFFFFFFFFFFFFFFFF AND PUSH1 0x20 DUP3 ADD MSTORE PUSH1 0x20 DUP4 ADD MLOAD PUSH20 0xFFFFFFFFFFFFFFFFFFFFFFFFFFFFFFFFFFFFFFFF AND PUSH1 0x40 DUP3 ADD MSTORE PUSH1 0x40 DUP4 ADD MLOAD PUSH16 0xFFFFFFFFFFFFFFFFFFFFFFFFFFFFFFFF AND PUSH1 0x60 DUP3 ADD MSTORE PUSH1 0x60 DUP4 ADD MLOAD PUSH16 0xFFFFFFFFFFFFFFFFFFFFFFFFFFFFFFFF AND PUSH1 0x80 DUP3 ADD MSTORE PUSH1 0x80 DUP4 ADD MLOAD PUSH20 0xFFFFFFFFFFFFFFFFFFFFFFFFFFFFFFFFFFFFFFFF AND PUSH1 0xA0 DUP3 ADD MSTORE PUSH1 0xA0 DUP4 ADD MLOAD PUSH20 0xFFFFFFFFFFFFFFFFFFFFFFFFFFFFFFFFFFFFFFFF AND PUSH1 0xC0 DUP3 ADD MSTORE PUSH1 0xC0 DUP4 ADD MLOAD PUSH20 0xFFFFFFFFFFFFFFFFFFFFFFFFFFFFFFFFFFFFFFFF AND PUSH1 0xE0 DUP3 ADD MSTORE PUSH1 0xE0 DUP4 ADD MLOAD PUSH2 0x100 DUP3 ADD MSTORE PUSH2 0x120 DUP2 KECCAK256 SWAP2 POP POP SWAP2 SWAP1 POP JUMP JUMPDEST PUSH1 0x60 PUSH4 0xC996AF7B PUSH1 0xE0 SHL DUP4 DUP4 PUSH1 0x40 MLOAD PUSH1 0x24 ADD PUSH2 0x35E0 SWAP3 SWAP2 SWAP1 PUSH2 0x4982 JUMP JUMPDEST PUSH1 0x40 DUP1 MLOAD PUSH32 0xFFFFFFFFFFFFFFFFFFFFFFFFFFFFFFFFFFFFFFFFFFFFFFFFFFFFFFFFFFFFFFE0 DUP2 DUP5 SUB ADD DUP2 MSTORE SWAP2 SWAP1 MSTORE PUSH1 0x20 DUP2 ADD DUP1 MLOAD PUSH28 0xFFFFFFFFFFFFFFFFFFFFFFFFFFFFFFFFFFFFFFFFFFFFFFFFFFFFFFFF AND PUSH32 0xFFFFFFFF00000000000000000000000000000000000000000000000000000000 SWAP1 SWAP4 AND SWAP3 SWAP1 SWAP3 OR SWAP1 SWAP2 MSTORE SWAP1 POP SWAP3 SWAP2 POP POP JUMP JUMPDEST PUSH1 0x40 MLOAD DUP1 PUSH1 0x80 ADD PUSH1 0x40 MSTORE DUP1 PUSH1 0x0 DUP2 MSTORE PUSH1 0x20 ADD PUSH1 0x0 PUSH20 0xFFFFFFFFFFFFFFFFFFFFFFFFFFFFFFFFFFFFFFFF AND DUP2 MSTORE PUSH1 0x20 ADD PUSH1 0x0 PUSH20 0xFFFFFFFFFFFFFFFFFFFFFFFFFFFFFFFFFFFFFFFF AND DUP2 MSTORE PUSH1 0x20 ADD PUSH1 0x0 DUP2 MSTORE POP SWAP1 JUMP JUMPDEST PUSH1 0x40 MLOAD DUP1 PUSH1 0x40 ADD PUSH1 0x40 MSTORE DUP1 PUSH1 0x0 DUP2 MSTORE PUSH1 0x20 ADD PUSH1 0x0 DUP2 MSTORE POP SWAP1 JUMP JUMPDEST PUSH1 0x40 DUP1 MLOAD DUP1 DUP3 ADD SWAP1 SWAP2 MSTORE PUSH1 0x0 DUP2 MSTORE PUSH1 0x60 PUSH1 0x20 DUP3 ADD MSTORE SWAP1 JUMP JUMPDEST PUSH1 0x40 DUP1 MLOAD PUSH1 0x60 DUP2 ADD SWAP1 SWAP2 MSTORE DUP1 PUSH1 0x0 DUP2 MSTORE PUSH1 0x20 ADD PUSH1 0x0 DUP2 MSTORE PUSH1 0x20 ADD PUSH1 0x60 DUP2 MSTORE POP SWAP1 JUMP JUMPDEST PUSH1 0x40 DUP1 MLOAD PUSH1 0xC0 DUP2 ADD DUP3 MSTORE PUSH1 0x0 DUP1 DUP3 MSTORE PUSH1 0x20 DUP3 ADD DUP2 SWAP1 MSTORE SWAP2 DUP2 ADD DUP3 SWAP1 MSTORE PUSH1 0x60 DUP1 DUP3 ADD MSTORE PUSH1 0x80 DUP2 ADD DUP3 SWAP1 MSTORE PUSH1 0xA0 DUP2 ADD SWAP2 SWAP1 SWAP2 MSTORE SWAP1 JUMP JUMPDEST PUSH1 0x40 DUP1 MLOAD PUSH2 0x140 DUP2 ADD DUP3 MSTORE PUSH1 0x0 DUP1 DUP3 MSTORE PUSH1 0x20 DUP3 ADD DUP2 SWAP1 MSTORE SWAP2 DUP2 ADD DUP3 SWAP1 MSTORE PUSH1 0x60 DUP2 ADD DUP3 SWAP1 MSTORE PUSH1 0x80 DUP2 ADD DUP3 SWAP1 MSTORE PUSH1 0xA0 DUP2 ADD DUP3 SWAP1 MSTORE PUSH1 0xC0 DUP2 ADD DUP3 SWAP1 MSTORE PUSH1 0xE0 DUP2 ADD DUP3 SWAP1 MSTORE PUSH2 0x100 DUP2 ADD DUP3 SWAP1 MSTORE PUSH2 0x120 DUP2 ADD SWAP2 SWAP1 SWAP2 MSTORE SWAP1 JUMP JUMPDEST PUSH1 0x40 DUP1 MLOAD PUSH1 0x80 DUP2 ADD SWAP1 SWAP2 MSTORE DUP1 PUSH1 0x0 DUP2 MSTORE PUSH1 0x0 PUSH1 0x20 DUP3 ADD DUP2 SWAP1 MSTORE PUSH1 0x40 DUP3 ADD DUP2 SWAP1 MSTORE PUSH1 0x60 SWAP1 SWAP2 ADD MSTORE SWAP1 JUMP JUMPDEST PUSH1 0x40 DUP1 MLOAD PUSH2 0x100 DUP2 ADD DUP3 MSTORE PUSH1 0x0 DUP1 DUP3 MSTORE PUSH1 0x20 DUP3 ADD DUP2 SWAP1 MSTORE SWAP2 DUP2 ADD DUP3 SWAP1 MSTORE PUSH1 0x60 DUP2 ADD DUP3 SWAP1 MSTORE PUSH1 0x80 DUP2 ADD DUP3 SWAP1 MSTORE PUSH1 0xA0 DUP2 ADD DUP3 SWAP1 MSTORE PUSH1 0xC0 DUP2 ADD DUP3 SWAP1 MSTORE PUSH1 0xE0 DUP2 ADD SWAP2 SWAP1 SWAP2 MSTORE SWAP1 JUMP JUMPDEST PUSH1 0x40 DUP1 MLOAD PUSH2 0x100 DUP2 ADD DUP3 MSTORE PUSH1 0x0 DUP1 DUP3 MSTORE PUSH1 0x20 DUP3 ADD DUP2 SWAP1 MSTORE SWAP2 DUP2 ADD DUP3 SWAP1 MSTORE PUSH1 0x60 DUP1 DUP3 ADD DUP4 SWAP1 MSTORE PUSH1 0x80 DUP3 ADD DUP4 SWAP1 MSTORE PUSH1 0xA0 DUP3 ADD MSTORE PUSH1 0xC0 DUP2 ADD DUP3 SWAP1 MSTORE PUSH1 0xE0 DUP2 ADD SWAP2 SWAP1 SWAP2 MSTORE SWAP1 JUMP JUMPDEST PUSH1 0x40 MLOAD DUP1 PUSH1 0xA0 ADD PUSH1 0x40 MSTORE DUP1 PUSH1 0x60 DUP2 MSTORE PUSH1 0x20 ADD PUSH1 0x0 DUP2 MSTORE PUSH1 0x20 ADD PUSH1 0x60 DUP2 MSTORE PUSH1 0x20 ADD PUSH1 0x0 ISZERO ISZERO DUP2 MSTORE PUSH1 0x20 ADD PUSH1 0x0 PUSH20 0xFFFFFFFFFFFFFFFFFFFFFFFFFFFFFFFFFFFFFFFF AND DUP2 MSTORE POP SWAP1 JUMP JUMPDEST DUP1 MLOAD PUSH2 0x157E DUP2 PUSH2 0x5696 JUMP JUMPDEST PUSH1 0x0 DUP3 PUSH1 0x1F DUP4 ADD SLT PUSH2 0x38A7 JUMPI DUP1 DUP2 REVERT JUMPDEST DUP2 CALLDATALOAD PUSH2 0x38BA PUSH2 0x38B5 DUP3 PUSH2 0x55E2 JUMP JUMPDEST PUSH2 0x55BB JUMP JUMPDEST DUP2 DUP2 MSTORE SWAP2 POP PUSH1 0x20 DUP1 DUP4 ADD SWAP1 DUP5 DUP2 ADD DUP2 DUP5 MUL DUP7 ADD DUP3 ADD DUP8 LT ISZERO PUSH2 0x38DB JUMPI PUSH1 0x0 DUP1 REVERT JUMPDEST PUSH1 0x0 JUMPDEST DUP5 DUP2 LT ISZERO PUSH2 0x3903 JUMPI DUP2 CALLDATALOAD PUSH2 0x38F1 DUP2 PUSH2 0x5696 JUMP JUMPDEST DUP5 MSTORE SWAP3 DUP3 ADD SWAP3 SWAP1 DUP3 ADD SWAP1 PUSH1 0x1 ADD PUSH2 0x38DE JUMP JUMPDEST POP POP POP POP POP SWAP3 SWAP2 POP POP JUMP JUMPDEST PUSH1 0x0 DUP3 PUSH1 0x1F DUP4 ADD SLT PUSH2 0x391E JUMPI DUP1 DUP2 REVERT JUMPDEST DUP2 MLOAD PUSH2 0x392C PUSH2 0x38B5 DUP3 PUSH2 0x55E2 JUMP JUMPDEST DUP2 DUP2 MSTORE SWAP2 POP PUSH1 0x20 DUP1 DUP4 ADD SWAP1 DUP5 DUP2 ADD DUP2 DUP5 MUL DUP7 ADD DUP3 ADD DUP8 LT ISZERO PUSH2 0x394D JUMPI PUSH1 0x0 DUP1 REVERT JUMPDEST PUSH1 0x0 JUMPDEST DUP5 DUP2 LT ISZERO PUSH2 0x3903 JUMPI DUP2 MLOAD PUSH2 0x3963 DUP2 PUSH2 0x5696 JUMP JUMPDEST DUP5 MSTORE SWAP3 DUP3 ADD SWAP3 SWAP1 DUP3 ADD SWAP1 PUSH1 0x1 ADD PUSH2 0x3950 JUMP JUMPDEST PUSH1 0x0 DUP3 PUSH1 0x1F DUP4 ADD SLT PUSH2 0x3985 JUMPI DUP1 DUP2 REVERT JUMPDEST DUP2 CALLDATALOAD PUSH2 0x3993 PUSH2 0x38B5 DUP3 PUSH2 0x55E2 JUMP JUMPDEST DUP2 DUP2 MSTORE SWAP2 POP PUSH1 0x20 DUP1 DUP4 ADD SWAP1 DUP5 DUP2 ADD PUSH1 0x0 JUMPDEST DUP5 DUP2 LT ISZERO PUSH2 0x3903 JUMPI DUP2 CALLDATALOAD DUP8 ADD PUSH1 0x60 DUP1 PUSH32 0xFFFFFFFFFFFFFFFFFFFFFFFFFFFFFFFFFFFFFFFFFFFFFFFFFFFFFFFFFFFFFFE0 DUP4 DUP13 SUB ADD SLT ISZERO PUSH2 0x39E3 JUMPI PUSH1 0x0 DUP1 REVERT JUMPDEST PUSH2 0x39EC DUP2 PUSH2 0x55BB JUMP JUMPDEST DUP6 DUP4 ADD CALLDATALOAD PUSH2 0x39F9 DUP2 PUSH2 0x56C6 JUMP JUMPDEST DUP2 MSTORE PUSH1 0x40 DUP4 DUP2 ADD CALLDATALOAD DUP8 DUP4 ADD MSTORE SWAP2 DUP4 ADD CALLDATALOAD SWAP2 PUSH8 0xFFFFFFFFFFFFFFFF DUP4 GT ISZERO PUSH2 0x3A1F JUMPI PUSH1 0x0 DUP1 REVERT JUMPDEST PUSH2 0x3A2D DUP13 DUP9 DUP6 DUP8 ADD ADD PUSH2 0x3B0A JUMP JUMPDEST SWAP1 DUP3 ADD MSTORE DUP7 MSTORE POP POP SWAP3 DUP3 ADD SWAP3 SWAP1 DUP3 ADD SWAP1 PUSH1 0x1 ADD PUSH2 0x39A4 JUMP JUMPDEST PUSH1 0x0 DUP3 PUSH1 0x1F DUP4 ADD SLT PUSH2 0x3A55 JUMPI DUP1 DUP2 REVERT JUMPDEST DUP2 CALLDATALOAD PUSH2 0x3A63 PUSH2 0x38B5 DUP3 PUSH2 0x55E2 JUMP JUMPDEST DUP2 DUP2 MSTORE SWAP2 POP PUSH1 0x20 DUP1 DUP4 ADD SWAP1 DUP5 DUP2 ADD PUSH1 0x0 JUMPDEST DUP5 DUP2 LT ISZERO PUSH2 0x3903 JUMPI DUP2 CALLDATALOAD DUP8 ADD PUSH1 0x40 DUP1 PUSH32 0xFFFFFFFFFFFFFFFFFFFFFFFFFFFFFFFFFFFFFFFFFFFFFFFFFFFFFFFFFFFFFFE0 DUP4 DUP13 SUB ADD SLT ISZERO PUSH2 0x3AB3 JUMPI PUSH1 0x0 DUP1 REVERT JUMPDEST PUSH2 0x3ABC DUP2 PUSH2 0x55BB JUMP JUMPDEST PUSH2 0x3AC8 DUP12 DUP8 DUP6 ADD PUSH2 0x3BA5 JUMP JUMPDEST DUP2 MSTORE SWAP1 DUP3 ADD CALLDATALOAD SWAP1 PUSH8 0xFFFFFFFFFFFFFFFF DUP3 GT ISZERO PUSH2 0x3AE4 JUMPI PUSH1 0x0 DUP1 REVERT JUMPDEST PUSH2 0x3AF2 DUP12 DUP8 DUP5 DUP7 ADD ADD PUSH2 0x3B0A JUMP JUMPDEST DUP2 DUP8 ADD MSTORE DUP7 MSTORE POP POP SWAP3 DUP3 ADD SWAP3 SWAP1 DUP3 ADD SWAP1 PUSH1 0x1 ADD PUSH2 0x3A74 JUMP JUMPDEST PUSH1 0x0 DUP3 PUSH1 0x1F DUP4 ADD SLT PUSH2 0x3B1A JUMPI DUP1 DUP2 REVERT JUMPDEST DUP2 CALLDATALOAD PUSH2 0x3B28 PUSH2 0x38B5 DUP3 PUSH2 0x5602 JUMP JUMPDEST SWAP2 POP DUP1 DUP3 MSTORE DUP4 PUSH1 0x20 DUP3 DUP6 ADD ADD GT ISZERO PUSH2 0x3B3F JUMPI PUSH1 0x0 DUP1 REVERT JUMPDEST DUP1 PUSH1 0x20 DUP5 ADD PUSH1 0x20 DUP5 ADD CALLDATACOPY PUSH1 0x0 SWAP1 DUP3 ADD PUSH1 0x20 ADD MSTORE SWAP3 SWAP2 POP POP JUMP JUMPDEST PUSH1 0x0 DUP3 PUSH1 0x1F DUP4 ADD SLT PUSH2 0x3B68 JUMPI DUP1 DUP2 REVERT JUMPDEST DUP2 MLOAD PUSH2 0x3B76 PUSH2 0x38B5 DUP3 PUSH2 0x5602 JUMP JUMPDEST SWAP2 POP DUP1 DUP3 MSTORE DUP4 PUSH1 0x20 DUP3 DUP6 ADD ADD GT ISZERO PUSH2 0x3B8D JUMPI PUSH1 0x0 DUP1 REVERT JUMPDEST PUSH2 0x3B9E DUP2 PUSH1 0x20 DUP5 ADD PUSH1 0x20 DUP7 ADD PUSH2 0x565D JUMP JUMPDEST POP SWAP3 SWAP2 POP POP JUMP JUMPDEST DUP1 CALLDATALOAD PUSH2 0x157E DUP2 PUSH2 0x56C6 JUMP JUMPDEST PUSH1 0x0 PUSH1 0x80 DUP3 DUP5 SUB SLT ISZERO PUSH2 0x3BC1 JUMPI DUP1 DUP2 REVERT JUMPDEST PUSH2 0x3BCB PUSH1 0x80 PUSH2 0x55BB JUMP JUMPDEST SWAP1 POP DUP2 MLOAD PUSH1 0x4 DUP2 LT PUSH2 0x3BDC JUMPI PUSH1 0x0 DUP1 REVERT JUMPDEST DUP2 MSTORE PUSH1 0x20 DUP3 ADD MLOAD PUSH1 0xFF DUP2 AND DUP2 EQ PUSH2 0x3BF2 JUMPI PUSH1 0x0 DUP1 REVERT JUMPDEST DUP1 PUSH1 0x20 DUP4 ADD MSTORE POP PUSH1 0x40 DUP3 ADD MLOAD PUSH1 0x40 DUP3 ADD MSTORE PUSH1 0x60 DUP3 ADD MLOAD PUSH1 0x60 DUP3 ADD MSTORE SWAP3 SWAP2 POP POP JUMP JUMPDEST DUP1 MLOAD PUSH16 0xFFFFFFFFFFFFFFFFFFFFFFFFFFFFFFFF DUP2 AND DUP2 EQ PUSH2 0x157E JUMPI PUSH1 0x0 DUP1 REVERT JUMPDEST DUP1 MLOAD PUSH8 0xFFFFFFFFFFFFFFFF DUP2 AND DUP2 EQ PUSH2 0x157E JUMPI PUSH1 0x0 DUP1 REVERT JUMPDEST PUSH1 0x0 PUSH1 0x20 DUP3 DUP5 SUB SLT ISZERO PUSH2 0x3C5C JUMPI DUP1 DUP2 REVERT JUMPDEST DUP2 CALLDATALOAD PUSH2 0x988 DUP2 PUSH2 0x5696 JUMP JUMPDEST PUSH1 0x0 DUP1 PUSH1 0x40 DUP4 DUP6 SUB SLT ISZERO PUSH2 0x3C79 JUMPI DUP1 DUP2 REVERT JUMPDEST DUP3 CALLDATALOAD PUSH2 0x3C84 DUP2 PUSH2 0x5696 JUMP JUMPDEST SWAP2 POP PUSH1 0x20 DUP4 ADD CALLDATALOAD PUSH8 0xFFFFFFFFFFFFFFFF DUP2 GT ISZERO PUSH2 0x3C9F JUMPI DUP2 DUP3 REVERT JUMPDEST PUSH2 0x3CAB DUP6 DUP3 DUP7 ADD PUSH2 0x3B0A JUMP JUMPDEST SWAP2 POP POP SWAP3 POP SWAP3 SWAP1 POP JUMP JUMPDEST PUSH1 0x0 DUP1 PUSH1 0x40 DUP4 DUP6 SUB SLT ISZERO PUSH2 0x3CC7 JUMPI DUP2 DUP3 REVERT JUMPDEST DUP3 MLOAD PUSH2 0x3CD2 DUP2 PUSH2 0x5696 JUMP JUMPDEST PUSH1 0x20 DUP5 ADD MLOAD SWAP1 SWAP3 POP PUSH8 0xFFFFFFFFFFFFFFFF DUP2 GT ISZERO PUSH2 0x3CEE JUMPI DUP2 DUP3 REVERT JUMPDEST PUSH2 0x3CAB DUP6 DUP3 DUP7 ADD PUSH2 0x3B58 JUMP JUMPDEST PUSH1 0x0 DUP1 PUSH1 0x40 DUP4 DUP6 SUB SLT ISZERO PUSH2 0x3D0C JUMPI DUP2 DUP3 REVERT JUMPDEST DUP3 MLOAD PUSH8 0xFFFFFFFFFFFFFFFF DUP1 DUP3 GT ISZERO PUSH2 0x3D23 JUMPI DUP4 DUP5 REVERT JUMPDEST PUSH2 0x3D2F DUP7 DUP4 DUP8 ADD PUSH2 0x390E JUMP JUMPDEST SWAP4 POP PUSH1 0x20 SWAP2 POP DUP2 DUP6 ADD MLOAD DUP2 DUP2 GT ISZERO PUSH2 0x3D45 JUMPI DUP4 DUP5 REVERT JUMPDEST DUP6 ADD PUSH1 0x1F DUP2 ADD DUP8 SGT PUSH2 0x3D55 JUMPI DUP4 DUP5 REVERT JUMPDEST DUP1 MLOAD PUSH2 0x3D63 PUSH2 0x38B5 DUP3 PUSH2 0x55E2 JUMP JUMPDEST DUP2 DUP2 MSTORE DUP5 DUP2 ADD SWAP1 DUP4 DUP7 ADD DUP8 JUMPDEST DUP5 DUP2 LT ISZERO PUSH2 0x3DFC JUMPI DUP2 MLOAD DUP7 ADD PUSH1 0x40 PUSH32 0xFFFFFFFFFFFFFFFFFFFFFFFFFFFFFFFFFFFFFFFFFFFFFFFFFFFFFFFFFFFFFFE0 DUP3 DUP16 SUB ADD SLT ISZERO PUSH2 0x3DAC JUMPI DUP10 DUP11 REVERT JUMPDEST PUSH2 0x3DB6 PUSH1 0x40 PUSH2 0x55BB JUMP JUMPDEST DUP10 DUP3 ADD MLOAD PUSH2 0x3DC3 DUP2 PUSH2 0x56C6 JUMP JUMPDEST DUP2 MSTORE PUSH1 0x40 DUP3 ADD MLOAD DUP10 DUP2 GT ISZERO PUSH2 0x3DD6 JUMPI DUP12 DUP13 REVERT JUMPDEST PUSH2 0x3DE4 DUP16 DUP13 DUP4 DUP7 ADD ADD PUSH2 0x3B58 JUMP JUMPDEST DUP3 DUP13 ADD MSTORE POP DUP6 MSTORE POP SWAP3 DUP8 ADD SWAP3 SWAP1 DUP8 ADD SWAP1 PUSH1 0x1 ADD PUSH2 0x3D6F JUMP JUMPDEST POP SWAP8 SWAP11 SWAP1 SWAP10 POP SWAP8 POP POP POP POP POP POP POP POP JUMP JUMPDEST PUSH1 0x0 DUP1 PUSH1 0x0 PUSH1 0x60 DUP5 DUP7 SUB SLT ISZERO PUSH2 0x3E21 JUMPI DUP1 DUP2 REVERT JUMPDEST DUP4 CALLDATALOAD PUSH8 0xFFFFFFFFFFFFFFFF DUP1 DUP3 GT ISZERO PUSH2 0x3E38 JUMPI DUP3 DUP4 REVERT JUMPDEST PUSH2 0x3E44 DUP8 DUP4 DUP9 ADD PUSH2 0x3897 JUMP JUMPDEST SWAP5 POP PUSH1 0x20 DUP7 ADD CALLDATALOAD SWAP2 POP DUP1 DUP3 GT ISZERO PUSH2 0x3E59 JUMPI DUP3 DUP4 REVERT JUMPDEST POP PUSH2 0x3E66 DUP7 DUP3 DUP8 ADD PUSH2 0x3A45 JUMP JUMPDEST SWAP3 POP POP PUSH1 0x40 DUP5 ADD CALLDATALOAD SWAP1 POP SWAP3 POP SWAP3 POP SWAP3 JUMP JUMPDEST PUSH1 0x0 DUP1 PUSH1 0x0 DUP1 PUSH1 0x80 DUP6 DUP8 SUB SLT ISZERO PUSH2 0x3E8C JUMPI DUP2 DUP3 REVERT JUMPDEST DUP5 CALLDATALOAD PUSH8 0xFFFFFFFFFFFFFFFF DUP1 DUP3 GT ISZERO PUSH2 0x3EA3 JUMPI DUP4 DUP5 REVERT JUMPDEST PUSH2 0x3EAF DUP9 DUP4 DUP10 ADD PUSH2 0x3897 JUMP JUMPDEST SWAP6 POP PUSH1 0x20 DUP8 ADD CALLDATALOAD SWAP2 POP DUP1 DUP3 GT ISZERO PUSH2 0x3EC4 JUMPI DUP4 DUP5 REVERT JUMPDEST POP PUSH2 0x3ED1 DUP8 DUP3 DUP9 ADD PUSH2 0x3A45 JUMP JUMPDEST SWAP5 SWAP8 SWAP5 SWAP7 POP POP POP POP PUSH1 0x40 DUP4 ADD CALLDATALOAD SWAP3 PUSH1 0x60 ADD CALLDATALOAD SWAP2 SWAP1 POP JUMP JUMPDEST PUSH1 0x0 DUP1 PUSH1 0x40 DUP4 DUP6 SUB SLT ISZERO PUSH2 0x3EFA JUMPI DUP2 DUP3 REVERT JUMPDEST DUP3 CALLDATALOAD PUSH8 0xFFFFFFFFFFFFFFFF DUP2 GT ISZERO PUSH2 0x3F10 JUMPI DUP3 DUP4 REVERT JUMPDEST PUSH2 0x3F1C DUP6 DUP3 DUP7 ADD PUSH2 0x3897 JUMP JUMPDEST SWAP3 POP POP PUSH1 0x20 DUP4 ADD CALLDATALOAD PUSH2 0x3F2D DUP2 PUSH2 0x56B8 JUMP JUMPDEST DUP1 SWAP2 POP POP SWAP3 POP SWAP3 SWAP1 POP JUMP JUMPDEST PUSH1 0x0 DUP1 PUSH1 0x40 DUP4 DUP6 SUB SLT ISZERO PUSH2 0x3F4A JUMPI DUP2 DUP3 REVERT JUMPDEST DUP3 MLOAD PUSH8 0xFFFFFFFFFFFFFFFF DUP2 GT ISZERO PUSH2 0x3F60 JUMPI DUP3 DUP4 REVERT JUMPDEST PUSH2 0x3F6C DUP6 DUP3 DUP7 ADD PUSH2 0x390E JUMP JUMPDEST SWAP3 POP POP PUSH1 0x20 DUP4 ADD MLOAD PUSH2 0x3F2D DUP2 PUSH2 0x56B8 JUMP JUMPDEST PUSH1 0x0 PUSH1 0x20 DUP1 DUP4 DUP6 SUB SLT ISZERO PUSH2 0x3F8F JUMPI DUP2 DUP3 REVERT JUMPDEST DUP3 MLOAD PUSH8 0xFFFFFFFFFFFFFFFF DUP1 DUP3 GT ISZERO PUSH2 0x3FA6 JUMPI DUP4 DUP5 REVERT JUMPDEST DUP2 DUP6 ADD SWAP2 POP DUP6 PUSH1 0x1F DUP4 ADD SLT PUSH2 0x3FB9 JUMPI DUP4 DUP5 REVERT JUMPDEST DUP2 MLOAD PUSH2 0x3FC7 PUSH2 0x38B5 DUP3 PUSH2 0x55E2 JUMP JUMPDEST DUP2 DUP2 MSTORE DUP5 DUP2 ADD SWAP1 DUP5 DUP7 ADD DUP8 JUMPDEST DUP5 DUP2 LT ISZERO PUSH2 0x406A JUMPI DUP2 MLOAD DUP8 ADD PUSH1 0x60 DUP1 PUSH32 0xFFFFFFFFFFFFFFFFFFFFFFFFFFFFFFFFFFFFFFFFFFFFFFFFFFFFFFFFFFFFFFE0 DUP4 DUP16 SUB ADD SLT ISZERO PUSH2 0x4011 JUMPI DUP11 DUP12 REVERT JUMPDEST PUSH2 0x401A DUP2 PUSH2 0x55BB JUMP JUMPDEST DUP11 DUP4 ADD MLOAD PUSH2 0x4027 DUP2 PUSH2 0x56C6 JUMP JUMPDEST DUP2 MSTORE PUSH1 0x40 DUP4 DUP2 ADD MLOAD DUP13 DUP4 ADD MSTORE SWAP2 DUP4 ADD MLOAD SWAP2 DUP10 DUP4 GT ISZERO PUSH2 0x4044 JUMPI DUP13 DUP14 REVERT JUMPDEST PUSH2 0x4052 DUP16 DUP14 DUP6 DUP8 ADD ADD PUSH2 0x3B58 JUMP JUMPDEST SWAP1 DUP3 ADD MSTORE DUP7 MSTORE POP POP SWAP3 DUP8 ADD SWAP3 SWAP1 DUP8 ADD SWAP1 PUSH1 0x1 ADD PUSH2 0x3FD3 JUMP JUMPDEST POP SWAP1 SWAP10 SWAP9 POP POP POP POP POP POP POP POP POP JUMP JUMPDEST PUSH1 0x0 PUSH1 0x20 DUP1 DUP4 DUP6 SUB SLT ISZERO PUSH2 0x408B JUMPI DUP2 DUP3 REVERT JUMPDEST DUP3 MLOAD PUSH8 0xFFFFFFFFFFFFFFFF DUP1 DUP3 GT ISZERO PUSH2 0x40A2 JUMPI DUP4 DUP5 REVERT JUMPDEST DUP2 DUP6 ADD SWAP2 POP DUP6 PUSH1 0x1F DUP4 ADD SLT PUSH2 0x40B5 JUMPI DUP4 DUP5 REVERT JUMPDEST DUP2 MLOAD PUSH2 0x40C3 PUSH2 0x38B5 DUP3 PUSH2 0x55E2 JUMP JUMPDEST DUP2 DUP2 MSTORE DUP5 DUP2 ADD SWAP1 DUP5 DUP7 ADD DUP8 JUMPDEST DUP5 DUP2 LT ISZERO PUSH2 0x406A JUMPI DUP2 MLOAD DUP8 ADD PUSH1 0x40 DUP1 PUSH32 0xFFFFFFFFFFFFFFFFFFFFFFFFFFFFFFFFFFFFFFFFFFFFFFFFFFFFFFFFFFFFFFE0 DUP4 DUP16 SUB ADD SLT ISZERO PUSH2 0x410D JUMPI DUP11 DUP12 REVERT JUMPDEST PUSH2 0x4116 DUP2 PUSH2 0x55BB JUMP JUMPDEST DUP11 DUP4 ADD MLOAD PUSH2 0x4123 DUP2 PUSH2 0x570D JUMP JUMPDEST DUP2 MSTORE SWAP1 DUP3 ADD MLOAD SWAP1 DUP9 DUP3 GT ISZERO PUSH2 0x4136 JUMPI DUP12 DUP13 REVERT JUMPDEST PUSH2 0x4144 DUP15 DUP13 DUP5 DUP7 ADD ADD PUSH2 0x3B58 JUMP JUMPDEST DUP2 DUP13 ADD MSTORE DUP7 MSTORE POP POP SWAP3 DUP8 ADD SWAP3 SWAP1 DUP8 ADD SWAP1 PUSH1 0x1 ADD PUSH2 0x40CF JUMP JUMPDEST PUSH1 0x0 PUSH1 0x20 DUP3 DUP5 SUB SLT ISZERO PUSH2 0x416D JUMPI DUP1 DUP2 REVERT JUMPDEST DUP2 CALLDATALOAD PUSH2 0x988 DUP2 PUSH2 0x56B8 JUMP JUMPDEST PUSH1 0x0 DUP1 PUSH1 0x0 PUSH1 0x60 DUP5 DUP7 SUB SLT ISZERO PUSH2 0x418C JUMPI DUP1 DUP2 REVERT JUMPDEST DUP4 CALLDATALOAD PUSH2 0x4197 DUP2 PUSH2 0x5696 JUMP JUMPDEST SWAP3 POP PUSH1 0x20 DUP5 ADD CALLDATALOAD PUSH8 0xFFFFFFFFFFFFFFFF DUP2 GT ISZERO PUSH2 0x41B2 JUMPI DUP2 DUP3 REVERT JUMPDEST PUSH2 0x3E66 DUP7 DUP3 DUP8 ADD PUSH2 0x3975 JUMP JUMPDEST PUSH1 0x0 DUP1 PUSH1 0x0 DUP1 PUSH1 0x80 DUP6 DUP8 SUB SLT ISZERO PUSH2 0x41D3 JUMPI DUP2 DUP3 REVERT JUMPDEST DUP5 CALLDATALOAD PUSH2 0x41DE DUP2 PUSH2 0x5696 JUMP JUMPDEST SWAP4 POP PUSH1 0x20 DUP6 ADD CALLDATALOAD PUSH8 0xFFFFFFFFFFFFFFFF DUP2 GT ISZERO PUSH2 0x41F9 JUMPI DUP3 DUP4 REVERT JUMPDEST PUSH2 0x3ED1 DUP8 DUP3 DUP9 ADD PUSH2 0x3975 JUMP JUMPDEST PUSH1 0x0 DUP1 PUSH1 0x0 DUP1 PUSH1 0x0 PUSH1 0xA0 DUP7 DUP9 SUB SLT ISZERO PUSH2 0x421C JUMPI DUP3 DUP4 REVERT JUMPDEST DUP6 CALLDATALOAD PUSH2 0x4227 DUP2 PUSH2 0x5696 JUMP JUMPDEST SWAP5 POP PUSH1 0x20 DUP7 ADD CALLDATALOAD PUSH2 0x4237 DUP2 PUSH2 0x5696 JUMP JUMPDEST SWAP4 POP PUSH1 0x40 DUP7 ADD CALLDATALOAD PUSH8 0xFFFFFFFFFFFFFFFF DUP2 GT ISZERO PUSH2 0x4252 JUMPI DUP4 DUP5 REVERT JUMPDEST PUSH2 0x425E DUP9 DUP3 DUP10 ADD PUSH2 0x3975 JUMP JUMPDEST SWAP6 SWAP9 SWAP5 SWAP8 POP SWAP5 SWAP6 PUSH1 0x60 DUP2 ADD CALLDATALOAD SWAP6 POP PUSH1 0x80 ADD CALLDATALOAD SWAP4 SWAP3 POP POP POP JUMP JUMPDEST PUSH1 0x0 DUP1 PUSH1 0x0 DUP1 PUSH1 0x60 DUP6 DUP8 SUB SLT ISZERO PUSH2 0x428C JUMPI DUP2 DUP3 REVERT JUMPDEST DUP5 CALLDATALOAD PUSH8 0xFFFFFFFFFFFFFFFF DUP1 DUP3 GT ISZERO PUSH2 0x42A3 JUMPI DUP4 DUP5 REVERT JUMPDEST SWAP1 DUP7 ADD SWAP1 PUSH1 0xC0 DUP3 DUP10 SUB SLT ISZERO PUSH2 0x42B6 JUMPI DUP4 DUP5 REVERT JUMPDEST SWAP1 SWAP5 POP PUSH1 0x20 DUP7 ADD CALLDATALOAD SWAP1 DUP1 DUP3 GT ISZERO PUSH2 0x42CB JUMPI DUP4 DUP5 REVERT JUMPDEST DUP2 DUP8 ADD SWAP2 POP DUP8 PUSH1 0x1F DUP4 ADD SLT PUSH2 0x42DE JUMPI DUP4 DUP5 REVERT JUMPDEST DUP2 CALLDATALOAD DUP2 DUP2 GT ISZERO PUSH2 0x42EC JUMPI DUP5 DUP6 REVERT JUMPDEST DUP9 PUSH1 0x20 DUP3 DUP6 ADD ADD GT ISZERO PUSH2 0x42FD JUMPI DUP5 DUP6 REVERT JUMPDEST SWAP6 SWAP9 PUSH1 0x20 SWAP3 SWAP1 SWAP3 ADD SWAP8 POP SWAP5 SWAP6 PUSH1 0x40 ADD CALLDATALOAD SWAP5 POP SWAP3 POP POP POP JUMP JUMPDEST PUSH1 0x0 DUP1 DUP3 DUP5 SUB PUSH2 0x180 DUP2 SLT ISZERO PUSH2 0x4329 JUMPI DUP3 DUP4 REVERT JUMPDEST PUSH2 0x100 DUP1 DUP3 SLT ISZERO PUSH2 0x4338 JUMPI DUP4 DUP5 REVERT JUMPDEST PUSH2 0x4341 DUP2 PUSH2 0x55BB JUMP JUMPDEST SWAP2 POP DUP5 MLOAD PUSH2 0x434E DUP2 PUSH2 0x5696 JUMP JUMPDEST DUP3 MSTORE PUSH2 0x435D DUP7 PUSH1 0x20 DUP8 ADD PUSH2 0x388C JUMP JUMPDEST PUSH1 0x20 DUP4 ADD MSTORE PUSH2 0x436F DUP7 PUSH1 0x40 DUP8 ADD PUSH2 0x3C13 JUMP JUMPDEST PUSH1 0x40 DUP4 ADD MSTORE PUSH2 0x4381 DUP7 PUSH1 0x60 DUP8 ADD PUSH2 0x3C13 JUMP JUMPDEST PUSH1 0x60 DUP4 ADD MSTORE PUSH2 0x4393 DUP7 PUSH1 0x80 DUP8 ADD PUSH2 0x388C JUMP JUMPDEST PUSH1 0x80 DUP4 ADD MSTORE PUSH2 0x43A5 DUP7 PUSH1 0xA0 DUP8 ADD PUSH2 0x388C JUMP JUMPDEST PUSH1 0xA0 DUP4 ADD MSTORE PUSH2 0x43B7 DUP7 PUSH1 0xC0 DUP8 ADD PUSH2 0x388C JUMP JUMPDEST PUSH1 0xC0 DUP4 ADD MSTORE PUSH1 0xE0 DUP6 ADD MLOAD PUSH1 0xE0 DUP4 ADD MSTORE DUP2 SWAP4 POP PUSH2 0x43D5 DUP7 DUP3 DUP8 ADD PUSH2 0x3BB0 JUMP JUMPDEST SWAP3 POP POP POP SWAP3 POP SWAP3 SWAP1 POP JUMP JUMPDEST PUSH1 0x0 DUP1 DUP3 DUP5 SUB PUSH2 0x1C0 DUP2 SLT ISZERO PUSH2 0x43F4 JUMPI DUP3 DUP4 REVERT JUMPDEST PUSH2 0x140 DUP1 DUP3 SLT ISZERO PUSH2 0x4403 JUMPI DUP4 DUP5 REVERT JUMPDEST PUSH2 0x440C DUP2 PUSH2 0x55BB JUMP JUMPDEST SWAP2 POP PUSH2 0x4418 DUP7 DUP7 PUSH2 0x388C JUMP JUMPDEST DUP3 MSTORE PUSH2 0x4427 DUP7 PUSH1 0x20 DUP8 ADD PUSH2 0x388C JUMP JUMPDEST PUSH1 0x20 DUP4 ADD MSTORE PUSH2 0x4439 DUP7 PUSH1 0x40 DUP8 ADD PUSH2 0x3C13 JUMP JUMPDEST PUSH1 0x40 DUP4 ADD MSTORE PUSH2 0x444B DUP7 PUSH1 0x60 DUP8 ADD PUSH2 0x3C13 JUMP JUMPDEST PUSH1 0x60 DUP4 ADD MSTORE PUSH2 0x445D DUP7 PUSH1 0x80 DUP8 ADD PUSH2 0x388C JUMP JUMPDEST PUSH1 0x80 DUP4 ADD MSTORE PUSH2 0x446F DUP7 PUSH1 0xA0 DUP8 ADD PUSH2 0x388C JUMP JUMPDEST PUSH1 0xA0 DUP4 ADD MSTORE PUSH2 0x4481 DUP7 PUSH1 0xC0 DUP8 ADD PUSH2 0x388C JUMP JUMPDEST PUSH1 0xC0 DUP4 ADD MSTORE PUSH1 0xE0 DUP6 ADD MLOAD PUSH1 0xE0 DUP4 ADD MSTORE PUSH2 0x100 PUSH2 0x449F DUP8 DUP3 DUP9 ADD PUSH2 0x3C33 JUMP JUMPDEST DUP2 DUP5 ADD MSTORE POP PUSH2 0x120 DUP1 DUP7 ADD MLOAD DUP2 DUP5 ADD MSTORE POP DUP2 SWAP4 POP PUSH2 0x43D5 DUP7 DUP3 DUP8 ADD PUSH2 0x3BB0 JUMP JUMPDEST PUSH1 0x0 DUP1 PUSH1 0x0 PUSH1 0x60 DUP5 DUP7 SUB SLT ISZERO PUSH2 0x44D3 JUMPI DUP1 DUP2 REVERT JUMPDEST DUP4 MLOAD PUSH2 0x44DE DUP2 PUSH2 0x56D3 JUMP JUMPDEST PUSH1 0x20 DUP6 ADD MLOAD SWAP1 SWAP4 POP PUSH2 0x44EF DUP2 PUSH2 0x56D3 JUMP JUMPDEST PUSH1 0x40 DUP6 ADD MLOAD SWAP1 SWAP3 POP PUSH2 0x4500 DUP2 PUSH2 0x570D JUMP JUMPDEST DUP1 SWAP2 POP POP SWAP3 POP SWAP3 POP SWAP3 JUMP JUMPDEST PUSH1 0x0 DUP1 PUSH1 0x40 DUP4 DUP6 SUB SLT ISZERO PUSH2 0x451D JUMPI DUP2 DUP3 REVERT JUMPDEST DUP3 MLOAD PUSH2 0x4528 DUP2 PUSH2 0x56EF JUMP JUMPDEST PUSH1 0x20 DUP5 ADD MLOAD SWAP1 SWAP3 POP PUSH2 0x3F2D DUP2 PUSH2 0x56EF JUMP JUMPDEST PUSH1 0x0 PUSH1 0x20 DUP3 DUP5 SUB SLT ISZERO PUSH2 0x454A JUMPI DUP1 DUP2 REVERT JUMPDEST POP MLOAD SWAP2 SWAP1 POP JUMP JUMPDEST PUSH1 0x0 DUP2 MLOAD PUSH1 0x9 DUP2 LT PUSH2 0x455F JUMPI INVALID JUMPDEST DUP1 DUP5 MSTORE POP PUSH1 0x20 DUP3 ADD MLOAD PUSH1 0x20 DUP5 ADD MSTORE PUSH1 0x40 DUP3 ADD MLOAD PUSH1 0x60 PUSH1 0x40 DUP6 ADD MSTORE PUSH2 0x471 PUSH1 0x60 DUP6 ADD DUP3 PUSH2 0x4613 JUMP JUMPDEST PUSH20 0xFFFFFFFFFFFFFFFFFFFFFFFFFFFFFFFFFFFFFFFF AND SWAP1 MSTORE JUMP JUMPDEST PUSH1 0x0 DUP2 MLOAD DUP1 DUP5 MSTORE PUSH1 0x20 DUP1 DUP6 ADD DUP1 DUP2 SWAP7 POP DUP3 DUP5 MUL DUP2 ADD SWAP2 POP DUP3 DUP7 ADD DUP6 JUMPDEST DUP6 DUP2 LT ISZERO PUSH2 0x4600 JUMPI DUP3 DUP5 SUB DUP10 MSTORE DUP2 MLOAD DUP1 MLOAD PUSH4 0xFFFFFFFF AND DUP6 MSTORE DUP6 ADD MLOAD PUSH1 0x40 DUP7 DUP7 ADD DUP2 SWAP1 MSTORE PUSH2 0x45EC DUP2 DUP8 ADD DUP4 PUSH2 0x4613 JUMP JUMPDEST SWAP11 DUP8 ADD SWAP11 SWAP6 POP POP POP SWAP1 DUP5 ADD SWAP1 PUSH1 0x1 ADD PUSH2 0x45BC JUMP JUMPDEST POP SWAP2 SWAP8 SWAP7 POP POP POP POP POP POP POP JUMP JUMPDEST ISZERO ISZERO SWAP1 MSTORE JUMP JUMPDEST PUSH1 0x0 DUP2 MLOAD DUP1 DUP5 MSTORE PUSH2 0x462B DUP2 PUSH1 0x20 DUP7 ADD PUSH1 0x20 DUP7 ADD PUSH2 0x565D JUMP JUMPDEST PUSH1 0x1F ADD PUSH32 0xFFFFFFFFFFFFFFFFFFFFFFFFFFFFFFFFFFFFFFFFFFFFFFFFFFFFFFFFFFFFFFE0 AND SWAP3 SWAP1 SWAP3 ADD PUSH1 0x20 ADD SWAP3 SWAP2 POP POP JUMP JUMPDEST DUP1 MLOAD PUSH2 0x4668 DUP2 PUSH2 0x5689 JUMP JUMPDEST DUP3 MSTORE PUSH1 0x20 DUP2 DUP2 ADD MLOAD PUSH1 0xFF AND SWAP1 DUP4 ADD MSTORE PUSH1 0x40 DUP1 DUP3 ADD MLOAD SWAP1 DUP4 ADD MSTORE PUSH1 0x60 SWAP1 DUP2 ADD MLOAD SWAP2 ADD MSTORE JUMP JUMPDEST PUSH16 0xFFFFFFFFFFFFFFFFFFFFFFFFFFFFFFFF AND SWAP1 MSTORE JUMP JUMPDEST PUSH8 0xFFFFFFFFFFFFFFFF AND SWAP1 MSTORE JUMP JUMPDEST PUSH32 0xFFFFFFFFFFFFFFFFFFFFFFFFFFFFFFFFFFFFFFFF000000000000000000000000 PUSH1 0x60 SWAP4 DUP5 SHL DUP2 AND DUP3 MSTORE SWAP2 SWAP1 SWAP3 SHL AND PUSH1 0x14 DUP3 ADD MSTORE PUSH1 0x28 ADD SWAP1 JUMP JUMPDEST PUSH1 0x0 DUP3 MLOAD PUSH2 0x46FC DUP2 DUP5 PUSH1 0x20 DUP8 ADD PUSH2 0x565D JUMP JUMPDEST SWAP2 SWAP1 SWAP2 ADD SWAP3 SWAP2 POP POP JUMP JUMPDEST PUSH32 0x1901000000000000000000000000000000000000000000000000000000000000 DUP2 MSTORE PUSH1 0x2 DUP2 ADD SWAP3 SWAP1 SWAP3 MSTORE PUSH1 0x22 DUP3 ADD MSTORE PUSH1 0x42 ADD SWAP1 JUMP JUMPDEST PUSH32 0xFF00000000000000000000000000000000000000000000000000000000000000 DUP2 MSTORE PUSH1 0x60 SWAP4 SWAP1 SWAP4 SHL PUSH32 0xFFFFFFFFFFFFFFFFFFFFFFFFFFFFFFFFFFFFFFFF000000000000000000000000 AND PUSH1 0x1 DUP5 ADD MSTORE PUSH1 0x15 DUP4 ADD SWAP2 SWAP1 SWAP2 MSTORE PUSH1 0x35 DUP3 ADD MSTORE PUSH1 0x55 ADD SWAP1 JUMP JUMPDEST SWAP1 JUMP JUMPDEST PUSH20 0xFFFFFFFFFFFFFFFFFFFFFFFFFFFFFFFFFFFFFFFF SWAP2 SWAP1 SWAP2 AND DUP2 MSTORE PUSH1 0x20 ADD SWAP1 JUMP JUMPDEST PUSH20 0xFFFFFFFFFFFFFFFFFFFFFFFFFFFFFFFFFFFFFFFF SWAP7 DUP8 AND DUP2 MSTORE SWAP5 DUP7 AND PUSH1 0x20 DUP7 ADD MSTORE PUSH1 0x40 DUP6 ADD SWAP4 SWAP1 SWAP4 MSTORE PUSH1 0x60 DUP5 ADD SWAP2 SWAP1 SWAP2 MSTORE DUP4 AND PUSH1 0x80 DUP4 ADD MSTORE SWAP1 SWAP2 AND PUSH1 0xA0 DUP3 ADD MSTORE PUSH1 0xC0 ADD SWAP1 JUMP JUMPDEST SWAP1 DUP2 MSTORE PUSH1 0x20 ADD SWAP1 JUMP JUMPDEST SWAP3 DUP4 MSTORE PUSH20 0xFFFFFFFFFFFFFFFFFFFFFFFFFFFFFFFFFFFFFFFF SWAP2 SWAP1 SWAP2 AND PUSH1 0x20 DUP4 ADD MSTORE PUSH8 0xFFFFFFFFFFFFFFFF AND PUSH1 0x40 DUP3 ADD MSTORE PUSH1 0x60 ADD SWAP1 JUMP JUMPDEST PUSH32 0xFFFFFFFF00000000000000000000000000000000000000000000000000000000 SWAP2 SWAP1 SWAP2 AND DUP2 MSTORE PUSH1 0x20 ADD SWAP1 JUMP JUMPDEST PUSH32 0xFFFFFFFF00000000000000000000000000000000000000000000000000000000 SWAP3 SWAP1 SWAP3 AND DUP3 MSTORE PUSH20 0xFFFFFFFFFFFFFFFFFFFFFFFFFFFFFFFFFFFFFFFF AND PUSH1 0x20 DUP3 ADD MSTORE PUSH1 0x40 ADD SWAP1 JUMP JUMPDEST PUSH1 0x0 PUSH1 0x80 DUP3 MSTORE PUSH2 0x48D1 PUSH1 0x80 DUP4 ADD DUP8 PUSH2 0x4613 JUMP JUMPDEST PUSH1 0x20 DUP4 ADD SWAP6 SWAP1 SWAP6 MSTORE POP PUSH1 0xFF SWAP3 SWAP1 SWAP3 AND PUSH1 0x40 DUP4 ADD MSTORE PUSH20 0xFFFFFFFFFFFFFFFFFFFFFFFFFFFFFFFFFFFFFFFF AND PUSH1 0x60 SWAP1 SWAP2 ADD MSTORE SWAP2 SWAP1 POP JUMP JUMPDEST PUSH1 0x0 PUSH20 0xFFFFFFFFFFFFFFFFFFFFFFFFFFFFFFFFFFFFFFFF DUP1 DUP10 AND DUP4 MSTORE DUP1 DUP9 AND PUSH1 0x20 DUP5 ADD MSTORE DUP1 DUP8 AND PUSH1 0x40 DUP5 ADD MSTORE DUP1 DUP7 AND PUSH1 0x60 DUP5 ADD MSTORE POP DUP4 PUSH1 0x80 DUP4 ADD MSTORE PUSH1 0xC0 PUSH1 0xA0 DUP4 ADD MSTORE PUSH2 0x4955 PUSH1 0xC0 DUP4 ADD DUP5 PUSH2 0x4613 JUMP JUMPDEST SWAP9 SWAP8 POP POP POP POP POP POP POP POP JUMP JUMPDEST PUSH1 0x60 DUP2 ADD PUSH2 0x496E DUP6 PUSH2 0x5689 JUMP JUMPDEST SWAP4 DUP2 MSTORE PUSH1 0x20 DUP2 ADD SWAP3 SWAP1 SWAP3 MSTORE PUSH1 0x40 SWAP1 SWAP2 ADD MSTORE SWAP1 JUMP JUMPDEST PUSH1 0x40 DUP2 ADD PUSH2 0x498F DUP5 PUSH2 0x5689 JUMP JUMPDEST SWAP3 DUP2 MSTORE PUSH1 0x20 ADD MSTORE SWAP1 JUMP JUMPDEST PUSH1 0x0 PUSH1 0x20 DUP3 MSTORE PUSH2 0x988 PUSH1 0x20 DUP4 ADD DUP5 PUSH2 0x4613 JUMP JUMPDEST PUSH1 0x20 DUP1 DUP3 MSTORE PUSH1 0x33 SWAP1 DUP3 ADD MSTORE PUSH32 0x4D756C7469706C6578466561747572653A3A5F65786563757465426174636853 PUSH1 0x40 DUP3 ADD MSTORE PUSH32 0x656C6C2F494E56414C49445F53554243414C4C00000000000000000000000000 PUSH1 0x60 DUP3 ADD MSTORE PUSH1 0x80 ADD SWAP1 JUMP JUMPDEST PUSH1 0x20 DUP1 DUP3 MSTORE PUSH1 0x39 SWAP1 DUP3 ADD MSTORE PUSH32 0x4D756C7469706C6578466561747572653A3A5F65786563757465426174636853 PUSH1 0x40 DUP3 ADD MSTORE PUSH32 0x656C6C2F494E434F52524543545F414D4F554E545F534F4C4400000000000000 PUSH1 0x60 DUP3 ADD MSTORE PUSH1 0x80 ADD SWAP1 JUMP JUMPDEST PUSH1 0x20 DUP1 DUP3 MSTORE PUSH1 0x31 SWAP1 DUP3 ADD MSTORE PUSH32 0x4D756C7469706C6578466561747572653A3A5F6D756C7469706C657842617463 PUSH1 0x40 DUP3 ADD MSTORE PUSH32 0x6853656C6C2F554E444552424F55474854000000000000000000000000000000 PUSH1 0x60 DUP3 ADD MSTORE PUSH1 0x80 ADD SWAP1 JUMP JUMPDEST PUSH1 0x20 DUP1 DUP3 MSTORE PUSH1 0x39 SWAP1 DUP3 ADD MSTORE PUSH32 0x4D756C7469706C65784F74633A3A5F626174636853656C6C4F74634F72646572 PUSH1 0x40 DUP3 ADD MSTORE PUSH32 0x2F4F54435F4F524445525F494E56414C49445F544F4B454E5300000000000000 PUSH1 0x60 DUP3 ADD MSTORE PUSH1 0x80 ADD SWAP1 JUMP JUMPDEST PUSH1 0x20 DUP1 DUP3 MSTORE PUSH1 0x39 SWAP1 DUP3 ADD MSTORE PUSH32 0x4D756C7469706C6578556E697377617056323A3A5F6D756C7469486F7053656C PUSH1 0x40 DUP3 ADD MSTORE PUSH32 0x6C556E697377617056322F494E56414C49445F544F4B454E5300000000000000 PUSH1 0x60 DUP3 ADD MSTORE PUSH1 0x80 ADD SWAP1 JUMP JUMPDEST PUSH1 0x20 DUP1 DUP3 MSTORE PUSH1 0x33 SWAP1 DUP3 ADD MSTORE PUSH32 0x4D756C7469706C6578466561747572653A3A5F636F6D70757465486F70546172 PUSH1 0x40 DUP3 ADD MSTORE PUSH32 0x6765742F494E56414C49445F53554243414C4C00000000000000000000000000 PUSH1 0x60 DUP3 ADD MSTORE PUSH1 0x80 ADD SWAP1 JUMP JUMPDEST PUSH1 0x20 DUP1 DUP3 MSTORE PUSH1 0x41 SWAP1 DUP3 ADD MSTORE PUSH32 0x4D756C7469706C6578466561747572653A3A5F6D756C7469706C65784D756C74 PUSH1 0x40 DUP3 ADD MSTORE PUSH32 0x69486F7053656C6C2F4D49534D4154434845445F41525241595F4C454E475448 PUSH1 0x60 DUP3 ADD MSTORE PUSH32 0x5300000000000000000000000000000000000000000000000000000000000000 PUSH1 0x80 DUP3 ADD MSTORE PUSH1 0xA0 ADD SWAP1 JUMP JUMPDEST PUSH1 0x20 DUP1 DUP3 MSTORE PUSH1 0x36 SWAP1 DUP3 ADD MSTORE PUSH32 0x4D756C7469706C6578556E697377617056333A3A5F6D756C7469486F7053656C PUSH1 0x40 DUP3 ADD MSTORE PUSH32 0x6C556E697377617056332F535741505F4641494C454400000000000000000000 PUSH1 0x60 DUP3 ADD MSTORE PUSH1 0x80 ADD SWAP1 JUMP JUMPDEST PUSH1 0x20 DUP1 DUP3 MSTORE PUSH1 0x36 SWAP1 DUP3 ADD MSTORE PUSH32 0x4D756C7469706C6578556E697377617056323A3A5F626174636853656C6C556E PUSH1 0x40 DUP3 ADD MSTORE PUSH32 0x697377617056322F494E56414C49445F544F4B454E5300000000000000000000 PUSH1 0x60 DUP3 ADD MSTORE PUSH1 0x80 ADD SWAP1 JUMP JUMPDEST PUSH1 0x20 DUP1 DUP3 MSTORE PUSH1 0x3B SWAP1 DUP3 ADD MSTORE PUSH32 0x4D756C7469706C6578466561747572653A3A6D756C7469706C65784D756C7469 PUSH1 0x40 DUP3 ADD MSTORE PUSH32 0x486F7053656C6C457468466F72546F6B656E2F4E4F545F574554480000000000 PUSH1 0x60 DUP3 ADD MSTORE PUSH1 0x80 ADD SWAP1 JUMP JUMPDEST PUSH1 0x20 DUP1 DUP3 MSTORE PUSH1 0x32 SWAP1 DUP3 ADD MSTORE PUSH32 0x4D756C7469706C6578466561747572653A3A5F636F6D70757465486F70546172 PUSH1 0x40 DUP3 ADD MSTORE PUSH32 0x6765742F5441524745545F49535F4E554C4C0000000000000000000000000000 PUSH1 0x60 DUP3 ADD MSTORE PUSH1 0x80 ADD SWAP1 JUMP JUMPDEST PUSH1 0x20 DUP1 DUP3 MSTORE PUSH1 0x49 SWAP1 DUP3 ADD MSTORE PUSH32 0x4D756C7469706C65784C697175696469747950726F76696465723A3A5F626174 PUSH1 0x40 DUP3 ADD MSTORE PUSH32 0x636853656C6C556E6973776170563245787465726E616C2F4F4E4C595F44454C PUSH1 0x60 DUP3 ADD MSTORE PUSH32 0x454741544543414C4C0000000000000000000000000000000000000000000000 PUSH1 0x80 DUP3 ADD MSTORE PUSH1 0xA0 ADD SWAP1 JUMP JUMPDEST PUSH1 0x20 DUP1 DUP3 MSTORE PUSH1 0x39 SWAP1 DUP3 ADD MSTORE PUSH32 0x4D756C7469706C65785266713A3A5F626174636853656C6C5266714F72646572 PUSH1 0x40 DUP3 ADD MSTORE PUSH32 0x2F5246515F4F524445525F494E56414C49445F544F4B454E5300000000000000 PUSH1 0x60 DUP3 ADD MSTORE PUSH1 0x80 ADD SWAP1 JUMP JUMPDEST PUSH1 0x20 DUP1 DUP3 MSTORE PUSH1 0x34 SWAP1 DUP3 ADD MSTORE PUSH32 0x4D756C7469706C6578466561747572653A3A5F6D756C7469706C65784D756C74 PUSH1 0x40 DUP3 ADD MSTORE PUSH32 0x69486F7053656C6C2F554E444552424F55474854000000000000000000000000 PUSH1 0x60 DUP3 ADD MSTORE PUSH1 0x80 ADD SWAP1 JUMP JUMPDEST PUSH1 0x20 DUP1 DUP3 MSTORE PUSH1 0x51 SWAP1 DUP3 ADD MSTORE PUSH32 0x4D756C7469706C65784C697175696469747950726F76696465723A3A5F626174 PUSH1 0x40 DUP3 ADD MSTORE PUSH32 0x636853656C6C4C697175696469747950726F766964657245787465726E616C2F PUSH1 0x60 DUP3 ADD MSTORE PUSH32 0x4F4E4C595F44454C454741544543414C4C000000000000000000000000000000 PUSH1 0x80 DUP3 ADD MSTORE PUSH1 0xA0 ADD SWAP1 JUMP JUMPDEST PUSH1 0x20 DUP1 DUP3 MSTORE PUSH1 0x24 SWAP1 DUP3 ADD MSTORE PUSH32 0x466978696E546F6B656E5370656E6465722F43414E4E4F545F494E564F4B455F PUSH1 0x40 DUP3 ADD MSTORE PUSH32 0x53454C4600000000000000000000000000000000000000000000000000000000 PUSH1 0x60 DUP3 ADD MSTORE PUSH1 0x80 ADD SWAP1 JUMP JUMPDEST PUSH1 0x20 DUP1 DUP3 MSTORE PUSH1 0x3B SWAP1 DUP3 ADD MSTORE PUSH32 0x4D756C7469706C6578466561747572653A3A6D756C7469706C65784D756C7469 PUSH1 0x40 DUP3 ADD MSTORE PUSH32 0x486F7053656C6C546F6B656E466F724574682F4E4F545F574554480000000000 PUSH1 0x60 DUP3 ADD MSTORE PUSH1 0x80 ADD SWAP1 JUMP JUMPDEST PUSH1 0x20 DUP1 DUP3 MSTORE PUSH1 0x49 SWAP1 DUP3 ADD MSTORE PUSH32 0x4D756C7469706C6578556E697377617056323A3A5F636F6D70757465556E6973 PUSH1 0x40 DUP3 ADD MSTORE PUSH32 0x7761704F7574707574416D6F756E742F494E53554646494349454E545F494E50 PUSH1 0x60 DUP3 ADD MSTORE PUSH32 0x55545F414D4F554E540000000000000000000000000000000000000000000000 PUSH1 0x80 DUP3 ADD MSTORE PUSH1 0xA0 ADD SWAP1 JUMP JUMPDEST PUSH1 0x20 DUP1 DUP3 MSTORE PUSH1 0x2E SWAP1 DUP3 ADD MSTORE PUSH32 0x4D756C7469706C6578466561747572653A3A5F7472616E736665724574682F54 PUSH1 0x40 DUP3 ADD MSTORE PUSH32 0x52414E534645525F4641494C4544000000000000000000000000000000000000 PUSH1 0x60 DUP3 ADD MSTORE PUSH1 0x80 ADD SWAP1 JUMP JUMPDEST PUSH1 0x20 DUP1 DUP3 MSTORE PUSH1 0x46 SWAP1 DUP3 ADD MSTORE PUSH32 0x4D756C7469706C6578556E697377617056323A3A5F636F6D70757465556E6973 PUSH1 0x40 DUP3 ADD MSTORE PUSH32 0x7761704F7574707574416D6F756E742F494E53554646494349454E545F4C4951 PUSH1 0x60 DUP3 ADD MSTORE PUSH32 0x5549444954590000000000000000000000000000000000000000000000000000 PUSH1 0x80 DUP3 ADD MSTORE PUSH1 0xA0 ADD SWAP1 JUMP JUMPDEST PUSH1 0x20 DUP1 DUP3 MSTORE PUSH1 0x36 SWAP1 DUP3 ADD MSTORE PUSH32 0x4D756C7469706C6578466561747572653A3A5F657865637574654D756C746948 PUSH1 0x40 DUP3 ADD MSTORE PUSH32 0x6F7053656C6C2F494E56414C49445F53554243414C4C00000000000000000000 PUSH1 0x60 DUP3 ADD MSTORE PUSH1 0x80 ADD SWAP1 JUMP JUMPDEST PUSH1 0x0 PUSH1 0x60 DUP3 MSTORE PUSH2 0x120 DUP3 ADD PUSH2 0x5220 DUP7 MLOAD PUSH2 0x5644 JUMP JUMPDEST PUSH1 0x60 DUP5 ADD MSTORE PUSH1 0x20 PUSH20 0xFFFFFFFFFFFFFFFFFFFFFFFFFFFFFFFFFFFFFFFF DUP2 DUP9 ADD MLOAD AND PUSH1 0x80 DUP6 ADD MSTORE PUSH1 0x40 DUP8 ADD MLOAD PUSH1 0xA0 DUP6 ADD MSTORE PUSH1 0x60 DUP8 ADD MLOAD PUSH1 0xC0 DUP1 DUP7 ADD MSTORE DUP3 DUP2 MLOAD PUSH2 0x5268 DUP2 DUP7 PUSH2 0x480A JUMP JUMPDEST SWAP5 POP SWAP2 DUP4 ADD SWAP2 DUP5 SWAP2 POP DUP1 DUP5 MUL DUP3 ADD DUP7 JUMPDEST DUP3 DUP2 LT ISZERO PUSH2 0x52A2 JUMPI DUP7 DUP3 SUB DUP5 MSTORE PUSH2 0x5290 DUP3 DUP7 MLOAD PUSH2 0x4551 JUMP JUMPDEST SWAP5 DUP7 ADD SWAP5 SWAP4 DUP7 ADD SWAP4 SWAP2 POP PUSH1 0x1 ADD PUSH2 0x5278 JUMP JUMPDEST POP PUSH1 0x80 DUP12 ADD MLOAD SWAP6 POP PUSH2 0x52B7 PUSH1 0xE0 DUP10 ADD DUP8 PUSH2 0x460D JUMP JUMPDEST PUSH1 0xA0 DUP12 ADD MLOAD SWAP6 POP PUSH2 0x52CC PUSH2 0x100 DUP10 ADD DUP8 PUSH2 0x4586 JUMP JUMPDEST DUP8 DUP2 SUB DUP6 DUP10 ADD MSTORE PUSH2 0x52DD DUP2 DUP12 PUSH2 0x4613 JUMP JUMPDEST SWAP7 POP POP POP POP POP POP POP DUP3 PUSH1 0x40 DUP4 ADD MSTORE SWAP5 SWAP4 POP POP POP POP JUMP JUMPDEST DUP7 MLOAD PUSH2 0x200 DUP3 ADD SWAP1 PUSH2 0x5304 SWAP1 PUSH2 0x5644 JUMP JUMPDEST DUP3 MSTORE PUSH20 0xFFFFFFFFFFFFFFFFFFFFFFFFFFFFFFFFFFFFFFFF PUSH1 0x20 DUP10 ADD MLOAD AND PUSH1 0x20 DUP4 ADD MSTORE PUSH1 0x40 DUP9 ADD MLOAD PUSH16 0xFFFFFFFFFFFFFFFFFFFFFFFFFFFFFFFF DUP1 DUP3 AND PUSH1 0x40 DUP6 ADD MSTORE DUP1 PUSH1 0x60 DUP12 ADD MLOAD AND PUSH1 0x60 DUP6 ADD MSTORE POP POP PUSH1 0x80 DUP9 ADD MLOAD PUSH2 0x5364 PUSH1 0x80 DUP5 ADD DUP3 PUSH2 0x4586 JUMP JUMPDEST POP PUSH1 0xA0 DUP9 ADD MLOAD PUSH2 0x5377 PUSH1 0xA0 DUP5 ADD DUP3 PUSH2 0x4586 JUMP JUMPDEST POP PUSH1 0xC0 DUP9 ADD MLOAD PUSH2 0x538A PUSH1 0xC0 DUP5 ADD DUP3 PUSH2 0x4586 JUMP JUMPDEST POP PUSH1 0xE0 DUP9 ADD MLOAD PUSH1 0xE0 DUP4 ADD MSTORE PUSH2 0x53A3 PUSH2 0x100 DUP4 ADD DUP9 PUSH2 0x465D JUMP JUMPDEST PUSH2 0x53B1 PUSH2 0x180 DUP4 ADD DUP8 PUSH2 0x468C JUMP JUMPDEST PUSH2 0x53BF PUSH2 0x1A0 DUP4 ADD DUP7 PUSH2 0x4586 JUMP JUMPDEST PUSH2 0x53CD PUSH2 0x1C0 DUP4 ADD DUP6 PUSH2 0x460D JUMP JUMPDEST PUSH2 0x53DB PUSH2 0x1E0 DUP4 ADD DUP5 PUSH2 0x4586 JUMP JUMPDEST SWAP8 SWAP7 POP POP POP POP POP POP POP JUMP JUMPDEST PUSH1 0x0 PUSH2 0x240 DUP3 ADD SWAP1 POP PUSH2 0x53FA DUP3 DUP10 MLOAD PUSH2 0x4586 JUMP JUMPDEST PUSH1 0x20 DUP9 ADD MLOAD PUSH2 0x540C PUSH1 0x20 DUP5 ADD DUP3 PUSH2 0x4586 JUMP JUMPDEST POP PUSH1 0x40 DUP9 ADD MLOAD PUSH2 0x541F PUSH1 0x40 DUP5 ADD DUP3 PUSH2 0x468C JUMP JUMPDEST POP PUSH1 0x60 DUP9 ADD MLOAD PUSH2 0x5432 PUSH1 0x60 DUP5 ADD DUP3 PUSH2 0x468C JUMP JUMPDEST POP PUSH1 0x80 DUP9 ADD MLOAD PUSH2 0x5445 PUSH1 0x80 DUP5 ADD DUP3 PUSH2 0x4586 JUMP JUMPDEST POP PUSH1 0xA0 DUP9 ADD MLOAD PUSH2 0x5458 PUSH1 0xA0 DUP5 ADD DUP3 PUSH2 0x4586 JUMP JUMPDEST POP PUSH1 0xC0 DUP9 ADD MLOAD PUSH2 0x546B PUSH1 0xC0 DUP5 ADD DUP3 PUSH2 0x4586 JUMP JUMPDEST POP PUSH1 0xE0 DUP9 ADD MLOAD PUSH1 0xE0 DUP4 ADD MSTORE PUSH2 0x100 DUP1 DUP10 ADD MLOAD PUSH2 0x5489 DUP3 DUP6 ADD DUP3 PUSH2 0x46A2 JUMP JUMPDEST POP POP PUSH2 0x120 DUP9 DUP2 ADD MLOAD SWAP1 DUP4 ADD MSTORE PUSH2 0x54A4 PUSH2 0x140 DUP4 ADD DUP9 PUSH2 0x465D JUMP JUMPDEST PUSH2 0x54B2 PUSH2 0x1C0 DUP4 ADD DUP8 PUSH2 0x468C JUMP JUMPDEST PUSH2 0x54C0 PUSH2 0x1E0 DUP4 ADD DUP7 PUSH2 0x4586 JUMP JUMPDEST PUSH2 0x54CE PUSH2 0x200 DUP4 ADD DUP6 PUSH2 0x460D JUMP JUMPDEST PUSH2 0x53DB PUSH2 0x220 DUP4 ADD DUP5 PUSH2 0x4586 JUMP JUMPDEST PUSH1 0x0 PUSH1 0x20 DUP3 MSTORE PUSH20 0xFFFFFFFFFFFFFFFFFFFFFFFFFFFFFFFFFFFFFFFF DUP1 DUP5 MLOAD AND PUSH1 0x20 DUP5 ADD MSTORE DUP1 PUSH1 0x20 DUP6 ADD MLOAD AND PUSH1 0x40 DUP5 ADD MSTORE POP PUSH1 0x40 DUP4 ADD MLOAD PUSH2 0x551F PUSH1 0x60 DUP5 ADD DUP3 PUSH2 0x4586 JUMP JUMPDEST POP PUSH1 0x60 DUP4 ADD MLOAD PUSH1 0x80 DUP4 ADD MSTORE PUSH1 0x80 DUP4 ADD MLOAD PUSH1 0xA0 DUP4 ADD MSTORE PUSH1 0xA0 DUP4 ADD MLOAD PUSH2 0x100 DUP1 PUSH1 0xC0 DUP6 ADD MSTORE PUSH2 0x5550 PUSH2 0x120 DUP6 ADD DUP4 PUSH2 0x45A0 JUMP JUMPDEST SWAP2 POP PUSH1 0xC0 DUP6 ADD MLOAD PUSH2 0x5564 PUSH1 0xE0 DUP7 ADD DUP3 PUSH2 0x460D JUMP JUMPDEST POP PUSH1 0xE0 DUP6 ADD MLOAD PUSH2 0x5576 DUP3 DUP7 ADD DUP3 PUSH2 0x4586 JUMP JUMPDEST POP SWAP1 SWAP5 SWAP4 POP POP POP POP JUMP JUMPDEST PUSH1 0x0 DUP6 DUP3 MSTORE DUP5 PUSH1 0x20 DUP4 ADD MSTORE PUSH20 0xFFFFFFFFFFFFFFFFFFFFFFFFFFFFFFFFFFFFFFFF DUP5 AND PUSH1 0x40 DUP4 ADD MSTORE PUSH1 0x80 PUSH1 0x60 DUP4 ADD MSTORE PUSH2 0xB93 PUSH1 0x80 DUP4 ADD DUP5 PUSH2 0x4613 JUMP JUMPDEST PUSH1 0x40 MLOAD DUP2 DUP2 ADD PUSH8 0xFFFFFFFFFFFFFFFF DUP2 GT DUP3 DUP3 LT OR ISZERO PUSH2 0x55DA JUMPI PUSH1 0x0 DUP1 REVERT JUMPDEST PUSH1 0x40 MSTORE SWAP2 SWAP1 POP JUMP JUMPDEST PUSH1 0x0 PUSH8 0xFFFFFFFFFFFFFFFF DUP3 GT ISZERO PUSH2 0x55F8 JUMPI DUP1 DUP2 REVERT JUMPDEST POP PUSH1 0x20 SWAP1 DUP2 MUL ADD SWAP1 JUMP JUMPDEST PUSH1 0x0 PUSH8 0xFFFFFFFFFFFFFFFF DUP3 GT ISZERO PUSH2 0x5618 JUMPI DUP1 DUP2 REVERT JUMPDEST POP PUSH1 0x1F ADD PUSH32 0xFFFFFFFFFFFFFFFFFFFFFFFFFFFFFFFFFFFFFFFFFFFFFFFFFFFFFFFFFFFFFFE0 AND PUSH1 0x20 ADD SWAP1 JUMP JUMPDEST PUSH20 0xFFFFFFFFFFFFFFFFFFFFFFFFFFFFFFFFFFFFFFFF AND SWAP1 JUMP JUMPDEST PUSH1 0x0 JUMPDEST DUP4 DUP2 LT ISZERO PUSH2 0x5678 JUMPI DUP2 DUP2 ADD MLOAD DUP4 DUP3 ADD MSTORE PUSH1 0x20 ADD PUSH2 0x5660 JUMP JUMPDEST DUP4 DUP2 GT ISZERO PUSH2 0x24CB JUMPI POP POP PUSH1 0x0 SWAP2 ADD MSTORE JUMP JUMPDEST PUSH1 0x4 DUP2 LT PUSH2 0x5693 JUMPI INVALID JUMPDEST POP JUMP JUMPDEST PUSH20 0xFFFFFFFFFFFFFFFFFFFFFFFFFFFFFFFFFFFFFFFF DUP2 AND DUP2 EQ PUSH2 0x5693 JUMPI PUSH1 0x0 DUP1 REVERT JUMPDEST DUP1 ISZERO ISZERO DUP2 EQ PUSH2 0x5693 JUMPI PUSH1 0x0 DUP1 REVERT JUMPDEST PUSH1 0x9 DUP2 LT PUSH2 0x5693 JUMPI PUSH1 0x0 DUP1 REVERT JUMPDEST PUSH14 0xFFFFFFFFFFFFFFFFFFFFFFFFFFFF DUP2 AND DUP2 EQ PUSH2 0x5693 JUMPI PUSH1 0x0 DUP1 REVERT JUMPDEST PUSH16 0xFFFFFFFFFFFFFFFFFFFFFFFFFFFFFFFF DUP2 AND DUP2 EQ PUSH2 0x5693 JUMPI PUSH1 0x0 DUP1 REVERT JUMPDEST PUSH4 0xFFFFFFFF DUP2 AND DUP2 EQ PUSH2 0x5693 JUMPI PUSH1 0x0 DUP1 REVERT INVALID LOG2 PUSH5 0x6970667358 0x22 SLT KECCAK256 PUSH2 0x698F RETURN PUSH16 0x33BC6810EF488849CE415F6C4787AEC4 0xC6 0x5D 0xC2 0xE1 MSTORE8 PUSH5 0xABD0BBCD90 PUSH5 0x736F6C6343 STOP MOD 0xC STOP CALLER "
            },
            "methodIdentifiers": {
                "EIP712_DOMAIN_SEPARATOR()": "dab400f3",
                "FEATURE_NAME()": "6ae4b4f7",
                "FEATURE_VERSION()": "031b905c",
                "_batchSellLiquidityProviderExternal((address,address,uint256,(uint8,uint256,bytes)[],bool,address),bytes,uint256)": "209c02c5",
                "_batchSellUniswapV2External((address,address,uint256,(uint8,uint256,bytes)[],bool,address),bytes,uint256)": "08378817",
                "migrate()": "8fd3ab80",
                "multiplexBatchSellEthForToken(address,(uint8,uint256,bytes)[],uint256)": "f35b4733",
                "multiplexBatchSellTokenForEth(address,(uint8,uint256,bytes)[],uint256,uint256)": "77725df6",
                "multiplexBatchSellTokenForToken(address,address,(uint8,uint256,bytes)[],uint256,uint256)": "7a1eb1b9",
                "multiplexMultiHopSellEthForToken(address[],(uint8,bytes)[],uint256)": "5161b966",
                "multiplexMultiHopSellTokenForEth(address[],(uint8,bytes)[],uint256,uint256)": "9a2967d2",
                "multiplexMultiHopSellTokenForToken(address[],(uint8,bytes)[],uint256,uint256)": "0f3b31b2"
            }
        }
    },
    "sourceTreeHashHex": "0x8ba99ede2d2d90c8ac1a97f94684656dbeb1943f262568ffc604b9cdf1587a0b",
    "compiler": {
        "name": "solc",
        "version": "0.6.12+commit.27d51765",
        "settings": {
            "remappings": [
                "@0x/contracts-utils=/home/runner/work/protocol/protocol/node_modules/@0x/contracts-utils",
                "@0x/contracts-erc20=/home/runner/work/protocol/protocol/contracts/zero-ex/node_modules/@0x/contracts-erc20"
            ],
            "optimizer": {
                "enabled": true,
                "runs": 1000000,
                "details": {
                    "yul": true,
                    "deduplicate": true,
                    "cse": true,
                    "constantOptimizer": true
                }
            },
            "outputSelection": {
                "*": {
                    "*": [
                        "abi",
                        "devdoc",
                        "evm.bytecode.object",
                        "evm.bytecode.sourceMap",
                        "evm.deployedBytecode.object",
                        "evm.deployedBytecode.sourceMap",
                        "evm.methodIdentifiers"
                    ]
                }
            },
            "evmVersion": "istanbul"
        }
    },
    "chains": {}
}