{
    "schemaVersion": "2.0.0",
    "contractName": "NativeOrdersFeature",
    "compilerOutput": {
        "abi": [
            {
                "inputs": [
                    {
                        "internalType": "address",
                        "name": "zeroExAddress",
                        "type": "address"
                    },
                    {
                        "internalType": "contract IEtherTokenV06",
                        "name": "weth",
                        "type": "address"
                    },
                    {
                        "internalType": "contract IStaking",
                        "name": "staking",
                        "type": "address"
                    },
                    {
                        "internalType": "contract FeeCollectorController",
                        "name": "feeCollectorController",
                        "type": "address"
                    },
                    {
                        "internalType": "uint32",
                        "name": "protocolFeeMultiplier",
                        "type": "uint32"
                    }
                ],
                "stateMutability": "nonpayable",
                "type": "constructor"
            },
            {
                "anonymous": false,
                "inputs": [
                    {
                        "indexed": false,
                        "internalType": "bytes32",
                        "name": "orderHash",
                        "type": "bytes32"
                    },
                    {
                        "indexed": false,
                        "internalType": "address",
                        "name": "maker",
                        "type": "address"
                    },
                    {
                        "indexed": false,
                        "internalType": "address",
                        "name": "taker",
                        "type": "address"
                    },
                    {
                        "indexed": false,
                        "internalType": "address",
                        "name": "feeRecipient",
                        "type": "address"
                    },
                    {
                        "indexed": false,
                        "internalType": "address",
                        "name": "makerToken",
                        "type": "address"
                    },
                    {
                        "indexed": false,
                        "internalType": "address",
                        "name": "takerToken",
                        "type": "address"
                    },
                    {
                        "indexed": false,
                        "internalType": "uint128",
                        "name": "takerTokenFilledAmount",
                        "type": "uint128"
                    },
                    {
                        "indexed": false,
                        "internalType": "uint128",
                        "name": "makerTokenFilledAmount",
                        "type": "uint128"
                    },
                    {
                        "indexed": false,
                        "internalType": "uint128",
                        "name": "takerTokenFeeFilledAmount",
                        "type": "uint128"
                    },
                    {
                        "indexed": false,
                        "internalType": "uint256",
                        "name": "protocolFeePaid",
                        "type": "uint256"
                    },
                    {
                        "indexed": false,
                        "internalType": "bytes32",
                        "name": "pool",
                        "type": "bytes32"
                    }
                ],
                "name": "LimitOrderFilled",
                "type": "event"
            },
            {
                "anonymous": false,
                "inputs": [
                    {
                        "indexed": false,
                        "internalType": "bytes32",
                        "name": "orderHash",
                        "type": "bytes32"
                    },
                    {
                        "indexed": false,
                        "internalType": "address",
                        "name": "maker",
                        "type": "address"
                    }
                ],
                "name": "OrderCancelled",
                "type": "event"
            },
            {
                "anonymous": false,
                "inputs": [
                    {
                        "indexed": false,
                        "internalType": "address",
                        "name": "maker",
                        "type": "address"
                    },
                    {
                        "indexed": false,
                        "internalType": "address",
                        "name": "signer",
                        "type": "address"
                    },
                    {
                        "indexed": false,
                        "internalType": "bool",
                        "name": "allowed",
                        "type": "bool"
                    }
                ],
                "name": "OrderSignerRegistered",
                "type": "event"
            },
            {
                "anonymous": false,
                "inputs": [
                    {
                        "indexed": false,
                        "internalType": "address",
                        "name": "maker",
                        "type": "address"
                    },
                    {
                        "indexed": false,
                        "internalType": "address",
                        "name": "makerToken",
                        "type": "address"
                    },
                    {
                        "indexed": false,
                        "internalType": "address",
                        "name": "takerToken",
                        "type": "address"
                    },
                    {
                        "indexed": false,
                        "internalType": "uint256",
                        "name": "minValidSalt",
                        "type": "uint256"
                    }
                ],
                "name": "PairCancelledLimitOrders",
                "type": "event"
            },
            {
                "anonymous": false,
                "inputs": [
                    {
                        "indexed": false,
                        "internalType": "address",
                        "name": "maker",
                        "type": "address"
                    },
                    {
                        "indexed": false,
                        "internalType": "address",
                        "name": "makerToken",
                        "type": "address"
                    },
                    {
                        "indexed": false,
                        "internalType": "address",
                        "name": "takerToken",
                        "type": "address"
                    },
                    {
                        "indexed": false,
                        "internalType": "uint256",
                        "name": "minValidSalt",
                        "type": "uint256"
                    }
                ],
                "name": "PairCancelledRfqOrders",
                "type": "event"
            },
            {
                "anonymous": false,
                "inputs": [
                    {
                        "indexed": false,
                        "internalType": "bytes32",
                        "name": "orderHash",
                        "type": "bytes32"
                    },
                    {
                        "indexed": false,
                        "internalType": "address",
                        "name": "maker",
                        "type": "address"
                    },
                    {
                        "indexed": false,
                        "internalType": "address",
                        "name": "taker",
                        "type": "address"
                    },
                    {
                        "indexed": false,
                        "internalType": "address",
                        "name": "makerToken",
                        "type": "address"
                    },
                    {
                        "indexed": false,
                        "internalType": "address",
                        "name": "takerToken",
                        "type": "address"
                    },
                    {
                        "indexed": false,
                        "internalType": "uint128",
                        "name": "takerTokenFilledAmount",
                        "type": "uint128"
                    },
                    {
                        "indexed": false,
                        "internalType": "uint128",
                        "name": "makerTokenFilledAmount",
                        "type": "uint128"
                    },
                    {
                        "indexed": false,
                        "internalType": "bytes32",
                        "name": "pool",
                        "type": "bytes32"
                    }
                ],
                "name": "RfqOrderFilled",
                "type": "event"
            },
            {
                "anonymous": false,
                "inputs": [
                    {
                        "indexed": false,
                        "internalType": "address",
                        "name": "origin",
                        "type": "address"
                    },
                    {
                        "indexed": false,
                        "internalType": "address[]",
                        "name": "addrs",
                        "type": "address[]"
                    },
                    {
                        "indexed": false,
                        "internalType": "bool",
                        "name": "allowed",
                        "type": "bool"
                    }
                ],
                "name": "RfqOrderOriginsAllowed",
                "type": "event"
            },
            {
                "inputs": [],
                "name": "EIP712_DOMAIN_SEPARATOR",
                "outputs": [
                    {
                        "internalType": "bytes32",
                        "name": "",
                        "type": "bytes32"
                    }
                ],
                "stateMutability": "view",
                "type": "function"
            },
            {
                "inputs": [],
                "name": "FEATURE_NAME",
                "outputs": [
                    {
                        "internalType": "string",
                        "name": "",
                        "type": "string"
                    }
                ],
                "stateMutability": "view",
                "type": "function"
            },
            {
                "inputs": [],
                "name": "FEATURE_VERSION",
                "outputs": [
                    {
                        "internalType": "uint256",
                        "name": "",
                        "type": "uint256"
                    }
                ],
                "stateMutability": "view",
                "type": "function"
            },
            {
                "inputs": [],
                "name": "PROTOCOL_FEE_MULTIPLIER",
                "outputs": [
                    {
                        "internalType": "uint32",
                        "name": "",
                        "type": "uint32"
                    }
                ],
                "stateMutability": "view",
                "type": "function"
            },
            {
                "inputs": [
                    {
                        "components": [
                            {
                                "internalType": "contract IERC20TokenV06",
                                "name": "makerToken",
                                "type": "address"
                            },
                            {
                                "internalType": "contract IERC20TokenV06",
                                "name": "takerToken",
                                "type": "address"
                            },
                            {
                                "internalType": "uint128",
                                "name": "makerAmount",
                                "type": "uint128"
                            },
                            {
                                "internalType": "uint128",
                                "name": "takerAmount",
                                "type": "uint128"
                            },
                            {
                                "internalType": "uint128",
                                "name": "takerTokenFeeAmount",
                                "type": "uint128"
                            },
                            {
                                "internalType": "address",
                                "name": "maker",
                                "type": "address"
                            },
                            {
                                "internalType": "address",
                                "name": "taker",
                                "type": "address"
                            },
                            {
                                "internalType": "address",
                                "name": "sender",
                                "type": "address"
                            },
                            {
                                "internalType": "address",
                                "name": "feeRecipient",
                                "type": "address"
                            },
                            {
                                "internalType": "bytes32",
                                "name": "pool",
                                "type": "bytes32"
                            },
                            {
                                "internalType": "uint64",
                                "name": "expiry",
                                "type": "uint64"
                            },
                            {
                                "internalType": "uint256",
                                "name": "salt",
                                "type": "uint256"
                            }
                        ],
                        "internalType": "struct LibNativeOrder.LimitOrder",
                        "name": "order",
                        "type": "tuple"
                    },
                    {
                        "components": [
                            {
                                "internalType": "enum LibSignature.SignatureType",
                                "name": "signatureType",
                                "type": "uint8"
                            },
                            {
                                "internalType": "uint8",
                                "name": "v",
                                "type": "uint8"
                            },
                            {
                                "internalType": "bytes32",
                                "name": "r",
                                "type": "bytes32"
                            },
                            {
                                "internalType": "bytes32",
                                "name": "s",
                                "type": "bytes32"
                            }
                        ],
                        "internalType": "struct LibSignature.Signature",
                        "name": "signature",
                        "type": "tuple"
                    },
                    {
                        "internalType": "uint128",
                        "name": "takerTokenFillAmount",
                        "type": "uint128"
                    },
                    {
                        "internalType": "address",
                        "name": "taker",
                        "type": "address"
                    },
                    {
                        "internalType": "address",
                        "name": "sender",
                        "type": "address"
                    }
                ],
                "name": "_fillLimitOrder",
                "outputs": [
                    {
                        "internalType": "uint128",
                        "name": "takerTokenFilledAmount",
                        "type": "uint128"
                    },
                    {
                        "internalType": "uint128",
                        "name": "makerTokenFilledAmount",
                        "type": "uint128"
                    }
                ],
                "stateMutability": "payable",
                "type": "function"
            },
            {
                "inputs": [
                    {
                        "components": [
                            {
                                "internalType": "contract IERC20TokenV06",
                                "name": "makerToken",
                                "type": "address"
                            },
                            {
                                "internalType": "contract IERC20TokenV06",
                                "name": "takerToken",
                                "type": "address"
                            },
                            {
                                "internalType": "uint128",
                                "name": "makerAmount",
                                "type": "uint128"
                            },
                            {
                                "internalType": "uint128",
                                "name": "takerAmount",
                                "type": "uint128"
                            },
                            {
                                "internalType": "address",
                                "name": "maker",
                                "type": "address"
                            },
                            {
                                "internalType": "address",
                                "name": "taker",
                                "type": "address"
                            },
                            {
                                "internalType": "address",
                                "name": "txOrigin",
                                "type": "address"
                            },
                            {
                                "internalType": "bytes32",
                                "name": "pool",
                                "type": "bytes32"
                            },
                            {
                                "internalType": "uint64",
                                "name": "expiry",
                                "type": "uint64"
                            },
                            {
                                "internalType": "uint256",
                                "name": "salt",
                                "type": "uint256"
                            }
                        ],
                        "internalType": "struct LibNativeOrder.RfqOrder",
                        "name": "order",
                        "type": "tuple"
                    },
                    {
                        "components": [
                            {
                                "internalType": "enum LibSignature.SignatureType",
                                "name": "signatureType",
                                "type": "uint8"
                            },
                            {
                                "internalType": "uint8",
                                "name": "v",
                                "type": "uint8"
                            },
                            {
                                "internalType": "bytes32",
                                "name": "r",
                                "type": "bytes32"
                            },
                            {
                                "internalType": "bytes32",
                                "name": "s",
                                "type": "bytes32"
                            }
                        ],
                        "internalType": "struct LibSignature.Signature",
                        "name": "signature",
                        "type": "tuple"
                    },
                    {
                        "internalType": "uint128",
                        "name": "takerTokenFillAmount",
                        "type": "uint128"
                    },
                    {
                        "internalType": "address",
                        "name": "taker",
                        "type": "address"
                    },
                    {
                        "internalType": "bool",
                        "name": "useSelfBalance",
                        "type": "bool"
                    },
                    {
                        "internalType": "address",
                        "name": "recipient",
                        "type": "address"
                    }
                ],
                "name": "_fillRfqOrder",
                "outputs": [
                    {
                        "internalType": "uint128",
                        "name": "takerTokenFilledAmount",
                        "type": "uint128"
                    },
                    {
                        "internalType": "uint128",
                        "name": "makerTokenFilledAmount",
                        "type": "uint128"
                    }
                ],
                "stateMutability": "nonpayable",
                "type": "function"
            },
            {
                "inputs": [
                    {
                        "components": [
                            {
                                "internalType": "contract IERC20TokenV06",
                                "name": "makerToken",
                                "type": "address"
                            },
                            {
                                "internalType": "contract IERC20TokenV06",
                                "name": "takerToken",
                                "type": "address"
                            },
                            {
                                "internalType": "uint128",
                                "name": "makerAmount",
                                "type": "uint128"
                            },
                            {
                                "internalType": "uint128",
                                "name": "takerAmount",
                                "type": "uint128"
                            },
                            {
                                "internalType": "uint128",
                                "name": "takerTokenFeeAmount",
                                "type": "uint128"
                            },
                            {
                                "internalType": "address",
                                "name": "maker",
                                "type": "address"
                            },
                            {
                                "internalType": "address",
                                "name": "taker",
                                "type": "address"
                            },
                            {
                                "internalType": "address",
                                "name": "sender",
                                "type": "address"
                            },
                            {
                                "internalType": "address",
                                "name": "feeRecipient",
                                "type": "address"
                            },
                            {
                                "internalType": "bytes32",
                                "name": "pool",
                                "type": "bytes32"
                            },
                            {
                                "internalType": "uint64",
                                "name": "expiry",
                                "type": "uint64"
                            },
                            {
                                "internalType": "uint256",
                                "name": "salt",
                                "type": "uint256"
                            }
                        ],
                        "internalType": "struct LibNativeOrder.LimitOrder[]",
                        "name": "orders",
                        "type": "tuple[]"
                    }
                ],
                "name": "batchCancelLimitOrders",
                "outputs": [],
                "stateMutability": "nonpayable",
                "type": "function"
            },
            {
                "inputs": [
                    {
                        "internalType": "contract IERC20TokenV06[]",
                        "name": "makerTokens",
                        "type": "address[]"
                    },
                    {
                        "internalType": "contract IERC20TokenV06[]",
                        "name": "takerTokens",
                        "type": "address[]"
                    },
                    {
                        "internalType": "uint256[]",
                        "name": "minValidSalts",
                        "type": "uint256[]"
                    }
                ],
                "name": "batchCancelPairLimitOrders",
                "outputs": [],
                "stateMutability": "nonpayable",
                "type": "function"
            },
            {
                "inputs": [
                    {
                        "internalType": "address",
                        "name": "maker",
                        "type": "address"
                    },
                    {
                        "internalType": "contract IERC20TokenV06[]",
                        "name": "makerTokens",
                        "type": "address[]"
                    },
                    {
                        "internalType": "contract IERC20TokenV06[]",
                        "name": "takerTokens",
                        "type": "address[]"
                    },
                    {
                        "internalType": "uint256[]",
                        "name": "minValidSalts",
                        "type": "uint256[]"
                    }
                ],
                "name": "batchCancelPairLimitOrdersWithSigner",
                "outputs": [],
                "stateMutability": "nonpayable",
                "type": "function"
            },
            {
                "inputs": [
                    {
                        "internalType": "contract IERC20TokenV06[]",
                        "name": "makerTokens",
                        "type": "address[]"
                    },
                    {
                        "internalType": "contract IERC20TokenV06[]",
                        "name": "takerTokens",
                        "type": "address[]"
                    },
                    {
                        "internalType": "uint256[]",
                        "name": "minValidSalts",
                        "type": "uint256[]"
                    }
                ],
                "name": "batchCancelPairRfqOrders",
                "outputs": [],
                "stateMutability": "nonpayable",
                "type": "function"
            },
            {
                "inputs": [
                    {
                        "internalType": "address",
                        "name": "maker",
                        "type": "address"
                    },
                    {
                        "internalType": "contract IERC20TokenV06[]",
                        "name": "makerTokens",
                        "type": "address[]"
                    },
                    {
                        "internalType": "contract IERC20TokenV06[]",
                        "name": "takerTokens",
                        "type": "address[]"
                    },
                    {
                        "internalType": "uint256[]",
                        "name": "minValidSalts",
                        "type": "uint256[]"
                    }
                ],
                "name": "batchCancelPairRfqOrdersWithSigner",
                "outputs": [],
                "stateMutability": "nonpayable",
                "type": "function"
            },
            {
                "inputs": [
                    {
                        "components": [
                            {
                                "internalType": "contract IERC20TokenV06",
                                "name": "makerToken",
                                "type": "address"
                            },
                            {
                                "internalType": "contract IERC20TokenV06",
                                "name": "takerToken",
                                "type": "address"
                            },
                            {
                                "internalType": "uint128",
                                "name": "makerAmount",
                                "type": "uint128"
                            },
                            {
                                "internalType": "uint128",
                                "name": "takerAmount",
                                "type": "uint128"
                            },
                            {
                                "internalType": "address",
                                "name": "maker",
                                "type": "address"
                            },
                            {
                                "internalType": "address",
                                "name": "taker",
                                "type": "address"
                            },
                            {
                                "internalType": "address",
                                "name": "txOrigin",
                                "type": "address"
                            },
                            {
                                "internalType": "bytes32",
                                "name": "pool",
                                "type": "bytes32"
                            },
                            {
                                "internalType": "uint64",
                                "name": "expiry",
                                "type": "uint64"
                            },
                            {
                                "internalType": "uint256",
                                "name": "salt",
                                "type": "uint256"
                            }
                        ],
                        "internalType": "struct LibNativeOrder.RfqOrder[]",
                        "name": "orders",
                        "type": "tuple[]"
                    }
                ],
                "name": "batchCancelRfqOrders",
                "outputs": [],
                "stateMutability": "nonpayable",
                "type": "function"
            },
            {
                "inputs": [
                    {
                        "components": [
                            {
                                "internalType": "contract IERC20TokenV06",
                                "name": "makerToken",
                                "type": "address"
                            },
                            {
                                "internalType": "contract IERC20TokenV06",
                                "name": "takerToken",
                                "type": "address"
                            },
                            {
                                "internalType": "uint128",
                                "name": "makerAmount",
                                "type": "uint128"
                            },
                            {
                                "internalType": "uint128",
                                "name": "takerAmount",
                                "type": "uint128"
                            },
                            {
                                "internalType": "uint128",
                                "name": "takerTokenFeeAmount",
                                "type": "uint128"
                            },
                            {
                                "internalType": "address",
                                "name": "maker",
                                "type": "address"
                            },
                            {
                                "internalType": "address",
                                "name": "taker",
                                "type": "address"
                            },
                            {
                                "internalType": "address",
                                "name": "sender",
                                "type": "address"
                            },
                            {
                                "internalType": "address",
                                "name": "feeRecipient",
                                "type": "address"
                            },
                            {
                                "internalType": "bytes32",
                                "name": "pool",
                                "type": "bytes32"
                            },
                            {
                                "internalType": "uint64",
                                "name": "expiry",
                                "type": "uint64"
                            },
                            {
                                "internalType": "uint256",
                                "name": "salt",
                                "type": "uint256"
                            }
                        ],
                        "internalType": "struct LibNativeOrder.LimitOrder[]",
                        "name": "orders",
                        "type": "tuple[]"
                    },
                    {
                        "components": [
                            {
                                "internalType": "enum LibSignature.SignatureType",
                                "name": "signatureType",
                                "type": "uint8"
                            },
                            {
                                "internalType": "uint8",
                                "name": "v",
                                "type": "uint8"
                            },
                            {
                                "internalType": "bytes32",
                                "name": "r",
                                "type": "bytes32"
                            },
                            {
                                "internalType": "bytes32",
                                "name": "s",
                                "type": "bytes32"
                            }
                        ],
                        "internalType": "struct LibSignature.Signature[]",
                        "name": "signatures",
                        "type": "tuple[]"
                    }
                ],
                "name": "batchGetLimitOrderRelevantStates",
                "outputs": [
                    {
                        "components": [
                            {
                                "internalType": "bytes32",
                                "name": "orderHash",
                                "type": "bytes32"
                            },
                            {
                                "internalType": "enum LibNativeOrder.OrderStatus",
                                "name": "status",
                                "type": "uint8"
                            },
                            {
                                "internalType": "uint128",
                                "name": "takerTokenFilledAmount",
                                "type": "uint128"
                            }
                        ],
                        "internalType": "struct LibNativeOrder.OrderInfo[]",
                        "name": "orderInfos",
                        "type": "tuple[]"
                    },
                    {
                        "internalType": "uint128[]",
                        "name": "actualFillableTakerTokenAmounts",
                        "type": "uint128[]"
                    },
                    {
                        "internalType": "bool[]",
                        "name": "isSignatureValids",
                        "type": "bool[]"
                    }
                ],
                "stateMutability": "view",
                "type": "function"
            },
            {
                "inputs": [
                    {
                        "components": [
                            {
                                "internalType": "contract IERC20TokenV06",
                                "name": "makerToken",
                                "type": "address"
                            },
                            {
                                "internalType": "contract IERC20TokenV06",
                                "name": "takerToken",
                                "type": "address"
                            },
                            {
                                "internalType": "uint128",
                                "name": "makerAmount",
                                "type": "uint128"
                            },
                            {
                                "internalType": "uint128",
                                "name": "takerAmount",
                                "type": "uint128"
                            },
                            {
                                "internalType": "address",
                                "name": "maker",
                                "type": "address"
                            },
                            {
                                "internalType": "address",
                                "name": "taker",
                                "type": "address"
                            },
                            {
                                "internalType": "address",
                                "name": "txOrigin",
                                "type": "address"
                            },
                            {
                                "internalType": "bytes32",
                                "name": "pool",
                                "type": "bytes32"
                            },
                            {
                                "internalType": "uint64",
                                "name": "expiry",
                                "type": "uint64"
                            },
                            {
                                "internalType": "uint256",
                                "name": "salt",
                                "type": "uint256"
                            }
                        ],
                        "internalType": "struct LibNativeOrder.RfqOrder[]",
                        "name": "orders",
                        "type": "tuple[]"
                    },
                    {
                        "components": [
                            {
                                "internalType": "enum LibSignature.SignatureType",
                                "name": "signatureType",
                                "type": "uint8"
                            },
                            {
                                "internalType": "uint8",
                                "name": "v",
                                "type": "uint8"
                            },
                            {
                                "internalType": "bytes32",
                                "name": "r",
                                "type": "bytes32"
                            },
                            {
                                "internalType": "bytes32",
                                "name": "s",
                                "type": "bytes32"
                            }
                        ],
                        "internalType": "struct LibSignature.Signature[]",
                        "name": "signatures",
                        "type": "tuple[]"
                    }
                ],
                "name": "batchGetRfqOrderRelevantStates",
                "outputs": [
                    {
                        "components": [
                            {
                                "internalType": "bytes32",
                                "name": "orderHash",
                                "type": "bytes32"
                            },
                            {
                                "internalType": "enum LibNativeOrder.OrderStatus",
                                "name": "status",
                                "type": "uint8"
                            },
                            {
                                "internalType": "uint128",
                                "name": "takerTokenFilledAmount",
                                "type": "uint128"
                            }
                        ],
                        "internalType": "struct LibNativeOrder.OrderInfo[]",
                        "name": "orderInfos",
                        "type": "tuple[]"
                    },
                    {
                        "internalType": "uint128[]",
                        "name": "actualFillableTakerTokenAmounts",
                        "type": "uint128[]"
                    },
                    {
                        "internalType": "bool[]",
                        "name": "isSignatureValids",
                        "type": "bool[]"
                    }
                ],
                "stateMutability": "view",
                "type": "function"
            },
            {
                "inputs": [
                    {
                        "components": [
                            {
                                "internalType": "contract IERC20TokenV06",
                                "name": "makerToken",
                                "type": "address"
                            },
                            {
                                "internalType": "contract IERC20TokenV06",
                                "name": "takerToken",
                                "type": "address"
                            },
                            {
                                "internalType": "uint128",
                                "name": "makerAmount",
                                "type": "uint128"
                            },
                            {
                                "internalType": "uint128",
                                "name": "takerAmount",
                                "type": "uint128"
                            },
                            {
                                "internalType": "uint128",
                                "name": "takerTokenFeeAmount",
                                "type": "uint128"
                            },
                            {
                                "internalType": "address",
                                "name": "maker",
                                "type": "address"
                            },
                            {
                                "internalType": "address",
                                "name": "taker",
                                "type": "address"
                            },
                            {
                                "internalType": "address",
                                "name": "sender",
                                "type": "address"
                            },
                            {
                                "internalType": "address",
                                "name": "feeRecipient",
                                "type": "address"
                            },
                            {
                                "internalType": "bytes32",
                                "name": "pool",
                                "type": "bytes32"
                            },
                            {
                                "internalType": "uint64",
                                "name": "expiry",
                                "type": "uint64"
                            },
                            {
                                "internalType": "uint256",
                                "name": "salt",
                                "type": "uint256"
                            }
                        ],
                        "internalType": "struct LibNativeOrder.LimitOrder",
                        "name": "order",
                        "type": "tuple"
                    }
                ],
                "name": "cancelLimitOrder",
                "outputs": [],
                "stateMutability": "nonpayable",
                "type": "function"
            },
            {
                "inputs": [
                    {
                        "internalType": "contract IERC20TokenV06",
                        "name": "makerToken",
                        "type": "address"
                    },
                    {
                        "internalType": "contract IERC20TokenV06",
                        "name": "takerToken",
                        "type": "address"
                    },
                    {
                        "internalType": "uint256",
                        "name": "minValidSalt",
                        "type": "uint256"
                    }
                ],
                "name": "cancelPairLimitOrders",
                "outputs": [],
                "stateMutability": "nonpayable",
                "type": "function"
            },
            {
                "inputs": [
                    {
                        "internalType": "address",
                        "name": "maker",
                        "type": "address"
                    },
                    {
                        "internalType": "contract IERC20TokenV06",
                        "name": "makerToken",
                        "type": "address"
                    },
                    {
                        "internalType": "contract IERC20TokenV06",
                        "name": "takerToken",
                        "type": "address"
                    },
                    {
                        "internalType": "uint256",
                        "name": "minValidSalt",
                        "type": "uint256"
                    }
                ],
                "name": "cancelPairLimitOrdersWithSigner",
                "outputs": [],
                "stateMutability": "nonpayable",
                "type": "function"
            },
            {
                "inputs": [
                    {
                        "internalType": "contract IERC20TokenV06",
                        "name": "makerToken",
                        "type": "address"
                    },
                    {
                        "internalType": "contract IERC20TokenV06",
                        "name": "takerToken",
                        "type": "address"
                    },
                    {
                        "internalType": "uint256",
                        "name": "minValidSalt",
                        "type": "uint256"
                    }
                ],
                "name": "cancelPairRfqOrders",
                "outputs": [],
                "stateMutability": "nonpayable",
                "type": "function"
            },
            {
                "inputs": [
                    {
                        "internalType": "address",
                        "name": "maker",
                        "type": "address"
                    },
                    {
                        "internalType": "contract IERC20TokenV06",
                        "name": "makerToken",
                        "type": "address"
                    },
                    {
                        "internalType": "contract IERC20TokenV06",
                        "name": "takerToken",
                        "type": "address"
                    },
                    {
                        "internalType": "uint256",
                        "name": "minValidSalt",
                        "type": "uint256"
                    }
                ],
                "name": "cancelPairRfqOrdersWithSigner",
                "outputs": [],
                "stateMutability": "nonpayable",
                "type": "function"
            },
            {
                "inputs": [
                    {
                        "components": [
                            {
                                "internalType": "contract IERC20TokenV06",
                                "name": "makerToken",
                                "type": "address"
                            },
                            {
                                "internalType": "contract IERC20TokenV06",
                                "name": "takerToken",
                                "type": "address"
                            },
                            {
                                "internalType": "uint128",
                                "name": "makerAmount",
                                "type": "uint128"
                            },
                            {
                                "internalType": "uint128",
                                "name": "takerAmount",
                                "type": "uint128"
                            },
                            {
                                "internalType": "address",
                                "name": "maker",
                                "type": "address"
                            },
                            {
                                "internalType": "address",
                                "name": "taker",
                                "type": "address"
                            },
                            {
                                "internalType": "address",
                                "name": "txOrigin",
                                "type": "address"
                            },
                            {
                                "internalType": "bytes32",
                                "name": "pool",
                                "type": "bytes32"
                            },
                            {
                                "internalType": "uint64",
                                "name": "expiry",
                                "type": "uint64"
                            },
                            {
                                "internalType": "uint256",
                                "name": "salt",
                                "type": "uint256"
                            }
                        ],
                        "internalType": "struct LibNativeOrder.RfqOrder",
                        "name": "order",
                        "type": "tuple"
                    }
                ],
                "name": "cancelRfqOrder",
                "outputs": [],
                "stateMutability": "nonpayable",
                "type": "function"
            },
            {
                "inputs": [
                    {
                        "components": [
                            {
                                "internalType": "contract IERC20TokenV06",
                                "name": "makerToken",
                                "type": "address"
                            },
                            {
                                "internalType": "contract IERC20TokenV06",
                                "name": "takerToken",
                                "type": "address"
                            },
                            {
                                "internalType": "uint128",
                                "name": "makerAmount",
                                "type": "uint128"
                            },
                            {
                                "internalType": "uint128",
                                "name": "takerAmount",
                                "type": "uint128"
                            },
                            {
                                "internalType": "uint128",
                                "name": "takerTokenFeeAmount",
                                "type": "uint128"
                            },
                            {
                                "internalType": "address",
                                "name": "maker",
                                "type": "address"
                            },
                            {
                                "internalType": "address",
                                "name": "taker",
                                "type": "address"
                            },
                            {
                                "internalType": "address",
                                "name": "sender",
                                "type": "address"
                            },
                            {
                                "internalType": "address",
                                "name": "feeRecipient",
                                "type": "address"
                            },
                            {
                                "internalType": "bytes32",
                                "name": "pool",
                                "type": "bytes32"
                            },
                            {
                                "internalType": "uint64",
                                "name": "expiry",
                                "type": "uint64"
                            },
                            {
                                "internalType": "uint256",
                                "name": "salt",
                                "type": "uint256"
                            }
                        ],
                        "internalType": "struct LibNativeOrder.LimitOrder",
                        "name": "order",
                        "type": "tuple"
                    },
                    {
                        "components": [
                            {
                                "internalType": "enum LibSignature.SignatureType",
                                "name": "signatureType",
                                "type": "uint8"
                            },
                            {
                                "internalType": "uint8",
                                "name": "v",
                                "type": "uint8"
                            },
                            {
                                "internalType": "bytes32",
                                "name": "r",
                                "type": "bytes32"
                            },
                            {
                                "internalType": "bytes32",
                                "name": "s",
                                "type": "bytes32"
                            }
                        ],
                        "internalType": "struct LibSignature.Signature",
                        "name": "signature",
                        "type": "tuple"
                    },
                    {
                        "internalType": "uint128",
                        "name": "takerTokenFillAmount",
                        "type": "uint128"
                    }
                ],
                "name": "fillLimitOrder",
                "outputs": [
                    {
                        "internalType": "uint128",
                        "name": "takerTokenFilledAmount",
                        "type": "uint128"
                    },
                    {
                        "internalType": "uint128",
                        "name": "makerTokenFilledAmount",
                        "type": "uint128"
                    }
                ],
                "stateMutability": "payable",
                "type": "function"
            },
            {
                "inputs": [
                    {
                        "components": [
                            {
                                "internalType": "contract IERC20TokenV06",
                                "name": "makerToken",
                                "type": "address"
                            },
                            {
                                "internalType": "contract IERC20TokenV06",
                                "name": "takerToken",
                                "type": "address"
                            },
                            {
                                "internalType": "uint128",
                                "name": "makerAmount",
                                "type": "uint128"
                            },
                            {
                                "internalType": "uint128",
                                "name": "takerAmount",
                                "type": "uint128"
                            },
                            {
                                "internalType": "uint128",
                                "name": "takerTokenFeeAmount",
                                "type": "uint128"
                            },
                            {
                                "internalType": "address",
                                "name": "maker",
                                "type": "address"
                            },
                            {
                                "internalType": "address",
                                "name": "taker",
                                "type": "address"
                            },
                            {
                                "internalType": "address",
                                "name": "sender",
                                "type": "address"
                            },
                            {
                                "internalType": "address",
                                "name": "feeRecipient",
                                "type": "address"
                            },
                            {
                                "internalType": "bytes32",
                                "name": "pool",
                                "type": "bytes32"
                            },
                            {
                                "internalType": "uint64",
                                "name": "expiry",
                                "type": "uint64"
                            },
                            {
                                "internalType": "uint256",
                                "name": "salt",
                                "type": "uint256"
                            }
                        ],
                        "internalType": "struct LibNativeOrder.LimitOrder",
                        "name": "order",
                        "type": "tuple"
                    },
                    {
                        "components": [
                            {
                                "internalType": "enum LibSignature.SignatureType",
                                "name": "signatureType",
                                "type": "uint8"
                            },
                            {
                                "internalType": "uint8",
                                "name": "v",
                                "type": "uint8"
                            },
                            {
                                "internalType": "bytes32",
                                "name": "r",
                                "type": "bytes32"
                            },
                            {
                                "internalType": "bytes32",
                                "name": "s",
                                "type": "bytes32"
                            }
                        ],
                        "internalType": "struct LibSignature.Signature",
                        "name": "signature",
                        "type": "tuple"
                    },
                    {
                        "internalType": "uint128",
                        "name": "takerTokenFillAmount",
                        "type": "uint128"
                    }
                ],
                "name": "fillOrKillLimitOrder",
                "outputs": [
                    {
                        "internalType": "uint128",
                        "name": "makerTokenFilledAmount",
                        "type": "uint128"
                    }
                ],
                "stateMutability": "payable",
                "type": "function"
            },
            {
                "inputs": [
                    {
                        "components": [
                            {
                                "internalType": "contract IERC20TokenV06",
                                "name": "makerToken",
                                "type": "address"
                            },
                            {
                                "internalType": "contract IERC20TokenV06",
                                "name": "takerToken",
                                "type": "address"
                            },
                            {
                                "internalType": "uint128",
                                "name": "makerAmount",
                                "type": "uint128"
                            },
                            {
                                "internalType": "uint128",
                                "name": "takerAmount",
                                "type": "uint128"
                            },
                            {
                                "internalType": "address",
                                "name": "maker",
                                "type": "address"
                            },
                            {
                                "internalType": "address",
                                "name": "taker",
                                "type": "address"
                            },
                            {
                                "internalType": "address",
                                "name": "txOrigin",
                                "type": "address"
                            },
                            {
                                "internalType": "bytes32",
                                "name": "pool",
                                "type": "bytes32"
                            },
                            {
                                "internalType": "uint64",
                                "name": "expiry",
                                "type": "uint64"
                            },
                            {
                                "internalType": "uint256",
                                "name": "salt",
                                "type": "uint256"
                            }
                        ],
                        "internalType": "struct LibNativeOrder.RfqOrder",
                        "name": "order",
                        "type": "tuple"
                    },
                    {
                        "components": [
                            {
                                "internalType": "enum LibSignature.SignatureType",
                                "name": "signatureType",
                                "type": "uint8"
                            },
                            {
                                "internalType": "uint8",
                                "name": "v",
                                "type": "uint8"
                            },
                            {
                                "internalType": "bytes32",
                                "name": "r",
                                "type": "bytes32"
                            },
                            {
                                "internalType": "bytes32",
                                "name": "s",
                                "type": "bytes32"
                            }
                        ],
                        "internalType": "struct LibSignature.Signature",
                        "name": "signature",
                        "type": "tuple"
                    },
                    {
                        "internalType": "uint128",
                        "name": "takerTokenFillAmount",
                        "type": "uint128"
                    }
                ],
                "name": "fillOrKillRfqOrder",
                "outputs": [
                    {
                        "internalType": "uint128",
                        "name": "makerTokenFilledAmount",
                        "type": "uint128"
                    }
                ],
                "stateMutability": "nonpayable",
                "type": "function"
            },
            {
                "inputs": [
                    {
                        "components": [
                            {
                                "internalType": "contract IERC20TokenV06",
                                "name": "makerToken",
                                "type": "address"
                            },
                            {
                                "internalType": "contract IERC20TokenV06",
                                "name": "takerToken",
                                "type": "address"
                            },
                            {
                                "internalType": "uint128",
                                "name": "makerAmount",
                                "type": "uint128"
                            },
                            {
                                "internalType": "uint128",
                                "name": "takerAmount",
                                "type": "uint128"
                            },
                            {
                                "internalType": "address",
                                "name": "maker",
                                "type": "address"
                            },
                            {
                                "internalType": "address",
                                "name": "taker",
                                "type": "address"
                            },
                            {
                                "internalType": "address",
                                "name": "txOrigin",
                                "type": "address"
                            },
                            {
                                "internalType": "bytes32",
                                "name": "pool",
                                "type": "bytes32"
                            },
                            {
                                "internalType": "uint64",
                                "name": "expiry",
                                "type": "uint64"
                            },
                            {
                                "internalType": "uint256",
                                "name": "salt",
                                "type": "uint256"
                            }
                        ],
                        "internalType": "struct LibNativeOrder.RfqOrder",
                        "name": "order",
                        "type": "tuple"
                    },
                    {
                        "components": [
                            {
                                "internalType": "enum LibSignature.SignatureType",
                                "name": "signatureType",
                                "type": "uint8"
                            },
                            {
                                "internalType": "uint8",
                                "name": "v",
                                "type": "uint8"
                            },
                            {
                                "internalType": "bytes32",
                                "name": "r",
                                "type": "bytes32"
                            },
                            {
                                "internalType": "bytes32",
                                "name": "s",
                                "type": "bytes32"
                            }
                        ],
                        "internalType": "struct LibSignature.Signature",
                        "name": "signature",
                        "type": "tuple"
                    },
                    {
                        "internalType": "uint128",
                        "name": "takerTokenFillAmount",
                        "type": "uint128"
                    }
                ],
                "name": "fillRfqOrder",
                "outputs": [
                    {
                        "internalType": "uint128",
                        "name": "takerTokenFilledAmount",
                        "type": "uint128"
                    },
                    {
                        "internalType": "uint128",
                        "name": "makerTokenFilledAmount",
                        "type": "uint128"
                    }
                ],
                "stateMutability": "nonpayable",
                "type": "function"
            },
            {
                "inputs": [
                    {
                        "components": [
                            {
                                "internalType": "contract IERC20TokenV06",
                                "name": "makerToken",
                                "type": "address"
                            },
                            {
                                "internalType": "contract IERC20TokenV06",
                                "name": "takerToken",
                                "type": "address"
                            },
                            {
                                "internalType": "uint128",
                                "name": "makerAmount",
                                "type": "uint128"
                            },
                            {
                                "internalType": "uint128",
                                "name": "takerAmount",
                                "type": "uint128"
                            },
                            {
                                "internalType": "uint128",
                                "name": "takerTokenFeeAmount",
                                "type": "uint128"
                            },
                            {
                                "internalType": "address",
                                "name": "maker",
                                "type": "address"
                            },
                            {
                                "internalType": "address",
                                "name": "taker",
                                "type": "address"
                            },
                            {
                                "internalType": "address",
                                "name": "sender",
                                "type": "address"
                            },
                            {
                                "internalType": "address",
                                "name": "feeRecipient",
                                "type": "address"
                            },
                            {
                                "internalType": "bytes32",
                                "name": "pool",
                                "type": "bytes32"
                            },
                            {
                                "internalType": "uint64",
                                "name": "expiry",
                                "type": "uint64"
                            },
                            {
                                "internalType": "uint256",
                                "name": "salt",
                                "type": "uint256"
                            }
                        ],
                        "internalType": "struct LibNativeOrder.LimitOrder",
                        "name": "order",
                        "type": "tuple"
                    }
                ],
                "name": "getLimitOrderHash",
                "outputs": [
                    {
                        "internalType": "bytes32",
                        "name": "orderHash",
                        "type": "bytes32"
                    }
                ],
                "stateMutability": "view",
                "type": "function"
            },
            {
                "inputs": [
                    {
                        "components": [
                            {
                                "internalType": "contract IERC20TokenV06",
                                "name": "makerToken",
                                "type": "address"
                            },
                            {
                                "internalType": "contract IERC20TokenV06",
                                "name": "takerToken",
                                "type": "address"
                            },
                            {
                                "internalType": "uint128",
                                "name": "makerAmount",
                                "type": "uint128"
                            },
                            {
                                "internalType": "uint128",
                                "name": "takerAmount",
                                "type": "uint128"
                            },
                            {
                                "internalType": "uint128",
                                "name": "takerTokenFeeAmount",
                                "type": "uint128"
                            },
                            {
                                "internalType": "address",
                                "name": "maker",
                                "type": "address"
                            },
                            {
                                "internalType": "address",
                                "name": "taker",
                                "type": "address"
                            },
                            {
                                "internalType": "address",
                                "name": "sender",
                                "type": "address"
                            },
                            {
                                "internalType": "address",
                                "name": "feeRecipient",
                                "type": "address"
                            },
                            {
                                "internalType": "bytes32",
                                "name": "pool",
                                "type": "bytes32"
                            },
                            {
                                "internalType": "uint64",
                                "name": "expiry",
                                "type": "uint64"
                            },
                            {
                                "internalType": "uint256",
                                "name": "salt",
                                "type": "uint256"
                            }
                        ],
                        "internalType": "struct LibNativeOrder.LimitOrder",
                        "name": "order",
                        "type": "tuple"
                    }
                ],
                "name": "getLimitOrderInfo",
                "outputs": [
                    {
                        "components": [
                            {
                                "internalType": "bytes32",
                                "name": "orderHash",
                                "type": "bytes32"
                            },
                            {
                                "internalType": "enum LibNativeOrder.OrderStatus",
                                "name": "status",
                                "type": "uint8"
                            },
                            {
                                "internalType": "uint128",
                                "name": "takerTokenFilledAmount",
                                "type": "uint128"
                            }
                        ],
                        "internalType": "struct LibNativeOrder.OrderInfo",
                        "name": "orderInfo",
                        "type": "tuple"
                    }
                ],
                "stateMutability": "view",
                "type": "function"
            },
            {
                "inputs": [
                    {
                        "components": [
                            {
                                "internalType": "contract IERC20TokenV06",
                                "name": "makerToken",
                                "type": "address"
                            },
                            {
                                "internalType": "contract IERC20TokenV06",
                                "name": "takerToken",
                                "type": "address"
                            },
                            {
                                "internalType": "uint128",
                                "name": "makerAmount",
                                "type": "uint128"
                            },
                            {
                                "internalType": "uint128",
                                "name": "takerAmount",
                                "type": "uint128"
                            },
                            {
                                "internalType": "uint128",
                                "name": "takerTokenFeeAmount",
                                "type": "uint128"
                            },
                            {
                                "internalType": "address",
                                "name": "maker",
                                "type": "address"
                            },
                            {
                                "internalType": "address",
                                "name": "taker",
                                "type": "address"
                            },
                            {
                                "internalType": "address",
                                "name": "sender",
                                "type": "address"
                            },
                            {
                                "internalType": "address",
                                "name": "feeRecipient",
                                "type": "address"
                            },
                            {
                                "internalType": "bytes32",
                                "name": "pool",
                                "type": "bytes32"
                            },
                            {
                                "internalType": "uint64",
                                "name": "expiry",
                                "type": "uint64"
                            },
                            {
                                "internalType": "uint256",
                                "name": "salt",
                                "type": "uint256"
                            }
                        ],
                        "internalType": "struct LibNativeOrder.LimitOrder",
                        "name": "order",
                        "type": "tuple"
                    },
                    {
                        "components": [
                            {
                                "internalType": "enum LibSignature.SignatureType",
                                "name": "signatureType",
                                "type": "uint8"
                            },
                            {
                                "internalType": "uint8",
                                "name": "v",
                                "type": "uint8"
                            },
                            {
                                "internalType": "bytes32",
                                "name": "r",
                                "type": "bytes32"
                            },
                            {
                                "internalType": "bytes32",
                                "name": "s",
                                "type": "bytes32"
                            }
                        ],
                        "internalType": "struct LibSignature.Signature",
                        "name": "signature",
                        "type": "tuple"
                    }
                ],
                "name": "getLimitOrderRelevantState",
                "outputs": [
                    {
                        "components": [
                            {
                                "internalType": "bytes32",
                                "name": "orderHash",
                                "type": "bytes32"
                            },
                            {
                                "internalType": "enum LibNativeOrder.OrderStatus",
                                "name": "status",
                                "type": "uint8"
                            },
                            {
                                "internalType": "uint128",
                                "name": "takerTokenFilledAmount",
                                "type": "uint128"
                            }
                        ],
                        "internalType": "struct LibNativeOrder.OrderInfo",
                        "name": "orderInfo",
                        "type": "tuple"
                    },
                    {
                        "internalType": "uint128",
                        "name": "actualFillableTakerTokenAmount",
                        "type": "uint128"
                    },
                    {
                        "internalType": "bool",
                        "name": "isSignatureValid",
                        "type": "bool"
                    }
                ],
                "stateMutability": "view",
                "type": "function"
            },
            {
                "inputs": [],
                "name": "getProtocolFeeMultiplier",
                "outputs": [
                    {
                        "internalType": "uint32",
                        "name": "multiplier",
                        "type": "uint32"
                    }
                ],
                "stateMutability": "view",
                "type": "function"
            },
            {
                "inputs": [
                    {
                        "components": [
                            {
                                "internalType": "contract IERC20TokenV06",
                                "name": "makerToken",
                                "type": "address"
                            },
                            {
                                "internalType": "contract IERC20TokenV06",
                                "name": "takerToken",
                                "type": "address"
                            },
                            {
                                "internalType": "uint128",
                                "name": "makerAmount",
                                "type": "uint128"
                            },
                            {
                                "internalType": "uint128",
                                "name": "takerAmount",
                                "type": "uint128"
                            },
                            {
                                "internalType": "address",
                                "name": "maker",
                                "type": "address"
                            },
                            {
                                "internalType": "address",
                                "name": "taker",
                                "type": "address"
                            },
                            {
                                "internalType": "address",
                                "name": "txOrigin",
                                "type": "address"
                            },
                            {
                                "internalType": "bytes32",
                                "name": "pool",
                                "type": "bytes32"
                            },
                            {
                                "internalType": "uint64",
                                "name": "expiry",
                                "type": "uint64"
                            },
                            {
                                "internalType": "uint256",
                                "name": "salt",
                                "type": "uint256"
                            }
                        ],
                        "internalType": "struct LibNativeOrder.RfqOrder",
                        "name": "order",
                        "type": "tuple"
                    }
                ],
                "name": "getRfqOrderHash",
                "outputs": [
                    {
                        "internalType": "bytes32",
                        "name": "orderHash",
                        "type": "bytes32"
                    }
                ],
                "stateMutability": "view",
                "type": "function"
            },
            {
                "inputs": [
                    {
                        "components": [
                            {
                                "internalType": "contract IERC20TokenV06",
                                "name": "makerToken",
                                "type": "address"
                            },
                            {
                                "internalType": "contract IERC20TokenV06",
                                "name": "takerToken",
                                "type": "address"
                            },
                            {
                                "internalType": "uint128",
                                "name": "makerAmount",
                                "type": "uint128"
                            },
                            {
                                "internalType": "uint128",
                                "name": "takerAmount",
                                "type": "uint128"
                            },
                            {
                                "internalType": "address",
                                "name": "maker",
                                "type": "address"
                            },
                            {
                                "internalType": "address",
                                "name": "taker",
                                "type": "address"
                            },
                            {
                                "internalType": "address",
                                "name": "txOrigin",
                                "type": "address"
                            },
                            {
                                "internalType": "bytes32",
                                "name": "pool",
                                "type": "bytes32"
                            },
                            {
                                "internalType": "uint64",
                                "name": "expiry",
                                "type": "uint64"
                            },
                            {
                                "internalType": "uint256",
                                "name": "salt",
                                "type": "uint256"
                            }
                        ],
                        "internalType": "struct LibNativeOrder.RfqOrder",
                        "name": "order",
                        "type": "tuple"
                    }
                ],
                "name": "getRfqOrderInfo",
                "outputs": [
                    {
                        "components": [
                            {
                                "internalType": "bytes32",
                                "name": "orderHash",
                                "type": "bytes32"
                            },
                            {
                                "internalType": "enum LibNativeOrder.OrderStatus",
                                "name": "status",
                                "type": "uint8"
                            },
                            {
                                "internalType": "uint128",
                                "name": "takerTokenFilledAmount",
                                "type": "uint128"
                            }
                        ],
                        "internalType": "struct LibNativeOrder.OrderInfo",
                        "name": "orderInfo",
                        "type": "tuple"
                    }
                ],
                "stateMutability": "view",
                "type": "function"
            },
            {
                "inputs": [
                    {
                        "components": [
                            {
                                "internalType": "contract IERC20TokenV06",
                                "name": "makerToken",
                                "type": "address"
                            },
                            {
                                "internalType": "contract IERC20TokenV06",
                                "name": "takerToken",
                                "type": "address"
                            },
                            {
                                "internalType": "uint128",
                                "name": "makerAmount",
                                "type": "uint128"
                            },
                            {
                                "internalType": "uint128",
                                "name": "takerAmount",
                                "type": "uint128"
                            },
                            {
                                "internalType": "address",
                                "name": "maker",
                                "type": "address"
                            },
                            {
                                "internalType": "address",
                                "name": "taker",
                                "type": "address"
                            },
                            {
                                "internalType": "address",
                                "name": "txOrigin",
                                "type": "address"
                            },
                            {
                                "internalType": "bytes32",
                                "name": "pool",
                                "type": "bytes32"
                            },
                            {
                                "internalType": "uint64",
                                "name": "expiry",
                                "type": "uint64"
                            },
                            {
                                "internalType": "uint256",
                                "name": "salt",
                                "type": "uint256"
                            }
                        ],
                        "internalType": "struct LibNativeOrder.RfqOrder",
                        "name": "order",
                        "type": "tuple"
                    },
                    {
                        "components": [
                            {
                                "internalType": "enum LibSignature.SignatureType",
                                "name": "signatureType",
                                "type": "uint8"
                            },
                            {
                                "internalType": "uint8",
                                "name": "v",
                                "type": "uint8"
                            },
                            {
                                "internalType": "bytes32",
                                "name": "r",
                                "type": "bytes32"
                            },
                            {
                                "internalType": "bytes32",
                                "name": "s",
                                "type": "bytes32"
                            }
                        ],
                        "internalType": "struct LibSignature.Signature",
                        "name": "signature",
                        "type": "tuple"
                    }
                ],
                "name": "getRfqOrderRelevantState",
                "outputs": [
                    {
                        "components": [
                            {
                                "internalType": "bytes32",
                                "name": "orderHash",
                                "type": "bytes32"
                            },
                            {
                                "internalType": "enum LibNativeOrder.OrderStatus",
                                "name": "status",
                                "type": "uint8"
                            },
                            {
                                "internalType": "uint128",
                                "name": "takerTokenFilledAmount",
                                "type": "uint128"
                            }
                        ],
                        "internalType": "struct LibNativeOrder.OrderInfo",
                        "name": "orderInfo",
                        "type": "tuple"
                    },
                    {
                        "internalType": "uint128",
                        "name": "actualFillableTakerTokenAmount",
                        "type": "uint128"
                    },
                    {
                        "internalType": "bool",
                        "name": "isSignatureValid",
                        "type": "bool"
                    }
                ],
                "stateMutability": "view",
                "type": "function"
            },
            {
                "inputs": [
                    {
                        "internalType": "address",
                        "name": "maker",
                        "type": "address"
                    },
                    {
                        "internalType": "address",
                        "name": "signer",
                        "type": "address"
                    }
                ],
                "name": "isValidOrderSigner",
                "outputs": [
                    {
                        "internalType": "bool",
                        "name": "isValid",
                        "type": "bool"
                    }
                ],
                "stateMutability": "view",
                "type": "function"
            },
            {
                "inputs": [],
                "name": "migrate",
                "outputs": [
                    {
                        "internalType": "bytes4",
                        "name": "success",
                        "type": "bytes4"
                    }
                ],
                "stateMutability": "nonpayable",
                "type": "function"
            },
            {
                "inputs": [
                    {
                        "internalType": "address",
                        "name": "signer",
                        "type": "address"
                    },
                    {
                        "internalType": "bool",
                        "name": "allowed",
                        "type": "bool"
                    }
                ],
                "name": "registerAllowedOrderSigner",
                "outputs": [],
                "stateMutability": "nonpayable",
                "type": "function"
            },
            {
                "inputs": [
                    {
                        "internalType": "address[]",
                        "name": "origins",
                        "type": "address[]"
                    },
                    {
                        "internalType": "bool",
                        "name": "allowed",
                        "type": "bool"
                    }
                ],
                "name": "registerAllowedRfqOrigins",
                "outputs": [],
                "stateMutability": "nonpayable",
                "type": "function"
            },
            {
                "inputs": [
                    {
                        "internalType": "bytes32[]",
                        "name": "poolIds",
                        "type": "bytes32[]"
                    }
                ],
                "name": "transferProtocolFeesForPools",
                "outputs": [],
                "stateMutability": "nonpayable",
                "type": "function"
            }
        ],
        "devdoc": {
            "details": "Feature for interacting with limit and RFQ orders.",
            "kind": "dev",
            "methods": {
                "_fillLimitOrder((address,address,uint128,uint128,uint128,address,address,address,address,bytes32,uint64,uint256),(uint8,uint8,bytes32,bytes32),uint128,address,address)": {
                    "details": "Fill a limit order. Internal variant. ETH protocol fees can be      attached to this call.",
                    "params": {
                        "order": "The limit order.",
                        "sender": "The order sender.",
                        "signature": "The order signature.",
                        "taker": "The order taker.",
                        "takerTokenFillAmount": "Maximum taker token to fill this order with."
                    },
                    "returns": {
                        "makerTokenFilledAmount": "How much maker token was filled.",
                        "takerTokenFilledAmount": "How much maker token was filled."
                    }
                },
                "_fillRfqOrder((address,address,uint128,uint128,address,address,address,bytes32,uint64,uint256),(uint8,uint8,bytes32,bytes32),uint128,address,bool,address)": {
                    "details": "Fill an RFQ order. Internal variant.",
                    "params": {
                        "order": "The RFQ order.",
                        "recipient": "The recipient of the maker tokens.",
                        "signature": "The order signature.",
                        "taker": "The order taker.",
                        "takerTokenFillAmount": "Maximum taker token to fill this order with.",
                        "useSelfBalance": "Whether to use the ExchangeProxy's transient        balance of taker tokens to fill the order."
                    },
                    "returns": {
                        "makerTokenFilledAmount": "How much maker token was filled.",
                        "takerTokenFilledAmount": "How much maker token was filled."
                    }
                },
                "batchCancelLimitOrders((address,address,uint128,uint128,uint128,address,address,address,address,bytes32,uint64,uint256)[])": {
                    "details": "Cancel multiple limit orders. The caller must be the maker or a valid order signer.      Silently succeeds if the order has already been cancelled.",
                    "params": {
                        "orders": "The limit orders."
                    }
                },
                "batchCancelPairLimitOrders(address[],address[],uint256[])": {
                    "details": "Cancel all limit orders for a given maker and pair with a salt less      than the value provided. The caller must be the maker. Subsequent      calls to this function with the same caller and pair require the      new salt to be >= the old salt.",
                    "params": {
                        "makerTokens": "The maker tokens.",
                        "minValidSalts": "The new minimum valid salts.",
                        "takerTokens": "The taker tokens."
                    }
                },
                "batchCancelPairLimitOrdersWithSigner(address,address[],address[],uint256[])": {
                    "details": "Cancel all limit orders for a given maker and pair with a salt less      than the value provided. The caller must be a signer registered to the maker.      Subsequent calls to this function with the same caller and pair require the      new salt to be >= the old salt.",
                    "params": {
                        "maker": "the maker for whom the msg.sender is the signer.",
                        "makerTokens": "The maker tokens.",
                        "minValidSalts": "The new minimum valid salts.",
                        "takerTokens": "The taker tokens."
                    }
                },
                "batchCancelPairRfqOrders(address[],address[],uint256[])": {
                    "details": "Cancel all RFQ orders for a given maker and pair with a salt less      than the value provided. The caller must be the maker. Subsequent      calls to this function with the same caller and pair require the      new salt to be >= the old salt.",
                    "params": {
                        "makerTokens": "The maker tokens.",
                        "minValidSalts": "The new minimum valid salts.",
                        "takerTokens": "The taker tokens."
                    }
                },
                "batchCancelPairRfqOrdersWithSigner(address,address[],address[],uint256[])": {
                    "details": "Cancel all RFQ orders for a given maker and pairs with salts less      than the values provided. The caller must be a signer registered to the maker.      Subsequent calls to this function with the same caller and pair require the      new salt to be >= the old salt.",
                    "params": {
                        "maker": "the maker for whom the msg.sender is the signer.",
                        "makerTokens": "The maker tokens.",
                        "minValidSalts": "The new minimum valid salts.",
                        "takerTokens": "The taker tokens."
                    }
                },
                "batchCancelRfqOrders((address,address,uint128,uint128,address,address,address,bytes32,uint64,uint256)[])": {
                    "details": "Cancel multiple RFQ orders. The caller must be the maker or a valid order signer.      Silently succeeds if the order has already been cancelled.",
                    "params": {
                        "orders": "The RFQ orders."
                    }
                },
                "batchGetLimitOrderRelevantStates((address,address,uint128,uint128,uint128,address,address,address,address,bytes32,uint64,uint256)[],(uint8,uint8,bytes32,bytes32)[])": {
                    "details": "Batch version of `getLimitOrderRelevantState()`, without reverting.      Orders that would normally cause `getLimitOrderRelevantState()`      to revert will have empty results.",
                    "params": {
                        "orders": "The limit orders.",
                        "signatures": "The order signatures."
                    },
                    "returns": {
                        "actualFillableTakerTokenAmounts": "How much of each order is fillable         based on maker funds, in taker tokens.",
                        "isSignatureValids": "Whether each signature is valid for the order.",
                        "orderInfos": "Info about the orders."
                    }
                },
                "batchGetRfqOrderRelevantStates((address,address,uint128,uint128,address,address,address,bytes32,uint64,uint256)[],(uint8,uint8,bytes32,bytes32)[])": {
                    "details": "Batch version of `getRfqOrderRelevantState()`, without reverting.      Orders that would normally cause `getRfqOrderRelevantState()`      to revert will have empty results.",
                    "params": {
                        "orders": "The RFQ orders.",
                        "signatures": "The order signatures."
                    },
                    "returns": {
                        "actualFillableTakerTokenAmounts": "How much of each order is fillable         based on maker funds, in taker tokens.",
                        "isSignatureValids": "Whether each signature is valid for the order.",
                        "orderInfos": "Info about the orders."
                    }
                },
                "cancelLimitOrder((address,address,uint128,uint128,uint128,address,address,address,address,bytes32,uint64,uint256))": {
                    "details": "Cancel a single limit order. The caller must be the maker or a valid order signer.      Silently succeeds if the order has already been cancelled.",
                    "params": {
                        "order": "The limit order."
                    }
                },
                "cancelPairLimitOrders(address,address,uint256)": {
                    "details": "Cancel all limit orders for a given maker and pair with a salt less      than the value provided. The caller must be the maker. Subsequent      calls to this function with the same caller and pair require the      new salt to be >= the old salt.",
                    "params": {
                        "makerToken": "The maker token.",
                        "minValidSalt": "The new minimum valid salt.",
                        "takerToken": "The taker token."
                    }
                },
                "cancelPairLimitOrdersWithSigner(address,address,address,uint256)": {
                    "details": "Cancel all limit orders for a given maker and pair with a salt less      than the value provided. The caller must be a signer registered to the maker.      Subsequent calls to this function with the same caller and pair require the      new salt to be >= the old salt.",
                    "params": {
                        "maker": "the maker for whom the msg.sender is the signer.",
                        "makerToken": "The maker token.",
                        "minValidSalt": "The new minimum valid salt.",
                        "takerToken": "The taker token."
                    }
                },
                "cancelPairRfqOrders(address,address,uint256)": {
                    "details": "Cancel all RFQ orders for a given maker and pair with a salt less      than the value provided. The caller must be the maker. Subsequent      calls to this function with the same caller and pair require the      new salt to be >= the old salt.",
                    "params": {
                        "makerToken": "The maker token.",
                        "minValidSalt": "The new minimum valid salt.",
                        "takerToken": "The taker token."
                    }
                },
                "cancelPairRfqOrdersWithSigner(address,address,address,uint256)": {
                    "details": "Cancel all RFQ orders for a given maker and pair with a salt less      than the value provided. The caller must be a signer registered to the maker.      Subsequent calls to this function with the same caller and pair require the      new salt to be >= the old salt.",
                    "params": {
                        "maker": "the maker for whom the msg.sender is the signer.",
                        "makerToken": "The maker token.",
                        "minValidSalt": "The new minimum valid salt.",
                        "takerToken": "The taker token."
                    }
                },
                "cancelRfqOrder((address,address,uint128,uint128,address,address,address,bytes32,uint64,uint256))": {
                    "details": "Cancel a single RFQ order. The caller must be the maker or a valid order signer.      Silently succeeds if the order has already been cancelled.",
                    "params": {
                        "order": "The RFQ order."
                    }
                },
                "fillLimitOrder((address,address,uint128,uint128,uint128,address,address,address,address,bytes32,uint64,uint256),(uint8,uint8,bytes32,bytes32),uint128)": {
                    "details": "Fill a limit order. The taker and sender will be the caller.",
                    "params": {
                        "order": "The limit order. ETH protocol fees can be      attached to this call. Any unspent ETH will be refunded to      the caller.",
                        "signature": "The order signature.",
                        "takerTokenFillAmount": "Maximum taker token amount to fill this order with."
                    },
                    "returns": {
                        "makerTokenFilledAmount": "How much maker token was filled.",
                        "takerTokenFilledAmount": "How much maker token was filled."
                    }
                },
                "fillOrKillLimitOrder((address,address,uint128,uint128,uint128,address,address,address,address,bytes32,uint64,uint256),(uint8,uint8,bytes32,bytes32),uint128)": {
                    "details": "Fill an RFQ order for exactly `takerTokenFillAmount` taker tokens.      The taker will be the caller. ETH protocol fees can be      attached to this call. Any unspent ETH will be refunded to      the caller.",
                    "params": {
                        "order": "The limit order.",
                        "signature": "The order signature.",
                        "takerTokenFillAmount": "How much taker token to fill this order with."
                    },
                    "returns": {
                        "makerTokenFilledAmount": "How much maker token was filled."
                    }
                },
                "fillOrKillRfqOrder((address,address,uint128,uint128,address,address,address,bytes32,uint64,uint256),(uint8,uint8,bytes32,bytes32),uint128)": {
                    "details": "Fill an RFQ order for exactly `takerTokenFillAmount` taker tokens.      The taker will be the caller. ETH protocol fees can be      attached to this call. Any unspent ETH will be refunded to      the caller.",
                    "params": {
                        "order": "The RFQ order.",
                        "signature": "The order signature.",
                        "takerTokenFillAmount": "How much taker token to fill this order with."
                    },
                    "returns": {
                        "makerTokenFilledAmount": "How much maker token was filled."
                    }
                },
                "fillRfqOrder((address,address,uint128,uint128,address,address,address,bytes32,uint64,uint256),(uint8,uint8,bytes32,bytes32),uint128)": {
                    "details": "Fill an RFQ order for up to `takerTokenFillAmount` taker tokens.      The taker will be the caller. ETH should be attached to pay the      protocol fee.",
                    "params": {
                        "order": "The RFQ order.",
                        "signature": "The order signature.",
                        "takerTokenFillAmount": "Maximum taker token amount to fill this order with."
                    },
                    "returns": {
                        "makerTokenFilledAmount": "How much maker token was filled.",
                        "takerTokenFilledAmount": "How much maker token was filled."
                    }
                },
                "getLimitOrderHash((address,address,uint128,uint128,uint128,address,address,address,address,bytes32,uint64,uint256))": {
                    "details": "Get the canonical hash of a limit order.",
                    "params": {
                        "order": "The limit order."
                    },
                    "returns": {
                        "orderHash": "The order hash."
                    }
                },
                "getLimitOrderInfo((address,address,uint128,uint128,uint128,address,address,address,address,bytes32,uint64,uint256))": {
                    "details": "Get the order info for a limit order.",
                    "params": {
                        "order": "The limit order."
                    },
                    "returns": {
                        "orderInfo": "Info about the order."
                    }
                },
                "getLimitOrderRelevantState((address,address,uint128,uint128,uint128,address,address,address,address,bytes32,uint64,uint256),(uint8,uint8,bytes32,bytes32))": {
                    "details": "Get order info, fillable amount, and signature validity for a limit order.      Fillable amount is determined using balances and allowances of the maker.",
                    "params": {
                        "order": "The limit order.",
                        "signature": "The order signature."
                    },
                    "returns": {
                        "actualFillableTakerTokenAmount": "How much of the order is fillable         based on maker funds, in taker tokens.",
                        "isSignatureValid": "Whether the signature is valid.",
                        "orderInfo": "Info about the order."
                    }
                },
                "getProtocolFeeMultiplier()": {
                    "details": "Get the protocol fee multiplier. This should be multiplied by the      gas price to arrive at the required protocol fee to fill a native order.",
                    "returns": {
                        "multiplier": "The protocol fee multiplier."
                    }
                },
                "getRfqOrderHash((address,address,uint128,uint128,address,address,address,bytes32,uint64,uint256))": {
                    "details": "Get the canonical hash of an RFQ order.",
                    "params": {
                        "order": "The RFQ order."
                    },
                    "returns": {
                        "orderHash": "The order hash."
                    }
                },
                "getRfqOrderInfo((address,address,uint128,uint128,address,address,address,bytes32,uint64,uint256))": {
                    "details": "Get the order info for an RFQ order.",
                    "params": {
                        "order": "The RFQ order."
                    },
                    "returns": {
                        "orderInfo": "Info about the order."
                    }
                },
                "getRfqOrderRelevantState((address,address,uint128,uint128,address,address,address,bytes32,uint64,uint256),(uint8,uint8,bytes32,bytes32))": {
                    "details": "Get order info, fillable amount, and signature validity for an RFQ order.      Fillable amount is determined using balances and allowances of the maker.",
                    "params": {
                        "order": "The RFQ order.",
                        "signature": "The order signature."
                    },
                    "returns": {
                        "actualFillableTakerTokenAmount": "How much of the order is fillable         based on maker funds, in taker tokens.",
                        "isSignatureValid": "Whether the signature is valid.",
                        "orderInfo": "Info about the order."
                    }
                },
                "isValidOrderSigner(address,address)": {
                    "details": "checks if a given address is registered to sign on behalf of a maker address",
                    "params": {
                        "maker": "The maker address encoded in an order (can be a contract)",
                        "signer": "The address that is providing a signature"
                    }
                },
                "migrate()": {
                    "details": "Initialize and register this feature.      Should be delegatecalled by `Migrate.migrate()`.",
                    "returns": {
                        "success": "`LibMigrate.SUCCESS` on success."
                    }
                },
                "registerAllowedOrderSigner(address,bool)": {
                    "details": "register a signer who can sign on behalf of msg.sender",
                    "params": {
                        "allowed": "True to register, false to unregister.",
                        "signer": "The address from which you plan to generate signatures"
                    }
                },
                "registerAllowedRfqOrigins(address[],bool)": {
                    "details": "Mark what tx.origin addresses are allowed to fill an order that      specifies the message sender as its txOrigin.",
                    "params": {
                        "allowed": "True to register, false to unregister.",
                        "origins": "An array of origin addresses to update."
                    }
                },
                "transferProtocolFeesForPools(bytes32[])": {
                    "details": "Transfers protocol fees from the `FeeCollector` pools into      the staking contract.",
                    "params": {
                        "poolIds": "Staking pool IDs"
                    }
                }
            },
            "stateVariables": {
                "FEATURE_NAME": {
                    "details": "Name of this feature."
                },
                "FEATURE_VERSION": {
                    "details": "Version of this feature."
                }
            },
            "version": 1
        },
        "evm": {
            "bytecode": {
                "linkReferences": {},
                "object": "0x61018060405262000015600160036000620001d1565b610160523480156200002657600080fd5b5060405162005c8138038062005c81833981016040819052620000499162000203565b848484848483838383838383838c808060004690507f8b73c3c69bb8fe3d512ecc4cf759cc79239f7b179b0ffacaa9a75d522b39400f7f9e5dae0addaf20578aeb5d70341d092b53b4e14480ac5726438fd436df7ba4277f06c015bd22b4c69690933c1058878ebdfef31f9aaae40bbe86d8a09fe1b2972c8385604051602001620000d9959493929190620002a2565b60408051601f1981840301815282825280516020918201206080526001600160601b031960608a901b1660c052633c9506a360e21b835290516001600160a01b038916965063f2541a8c95506004808401955091935091829003018186803b1580156200014557600080fd5b505afa1580156200015a573d6000803e3d6000fd5b505050506040513d601f19601f8201168201806040525081019062000180919062000289565b60e0908152606094851b6001600160601b03199081166101005293851b9093166101205290911b6001600160e01b03191660a0525030901b6101405250620002e79c50505050505050505050505050565b6bffffffff0000000000000000604084901b1667ffffffff00000000602084901b161763ffffffff8216179392505050565b600080600080600060a086880312156200021b578081fd5b85516200022881620002ce565b60208701519095506200023b81620002ce565b60408701519094506200024e81620002ce565b60608701519093506200026181620002ce565b608087015190925063ffffffff811681146200027b578182fd5b809150509295509295909350565b6000602082840312156200029b578081fd5b5051919050565b9485526020850193909352604084019190915260608301526001600160a01b0316608082015260a00190565b6001600160a01b0381168114620002e457600080fd5b50565b60805160a05160e01c60c05160601c60e0516101005160601c6101205160601c6101405160601c61016051615919620003686000398061071a52508061326d525080612728525080612639525080613e605250806125ac5280613e3f525080610c6c52806115965280613e13525080611ce352806120bc52506159196000f3fe60806040526004361061024f5760003560e01c80639a4f809c11610138578063b4658bfb116100b0578063ea7faa611161007f578063f6e0f6a511610064578063f6e0f6a51461069d578063fd5f995b146106bd578063fe55a3ef146106dd5761024f565b8063ea7faa611461066a578063f6274f661461068a5761024f565b8063b4658bfb146105f5578063d0a55fb014610615578063dab400f314610635578063dd11d2251461064a5761024f565b8063aa6b21cd11610107578063ad354eeb116100ec578063ad354eeb14610586578063b09f1fb1146105b5578063b10a33f4146105d55761024f565b8063aa6b21cd14610546578063aa77476c146105665761024f565b80639a4f809c146104d15780639baa45a8146104f15780639f0434f514610511578063a0edcef5146105315761024f565b8063487b5c20116101cb57806386a0c8d71161019a5780639240529c1161017f5780639240529c1461047e578063935c82a41461049157806395480889146104b15761024f565b806386a0c8d71461043c5780638fd3ab801461045c5761024f565b8063487b5c20146103ab5780636ae4b4f7146103cd5780636b52a4a8146103ef5780637d49ec1a1461041c5761024f565b8063346693c5116102225780633cd2f026116102075780633cd2f0261461033d578063414e4ccf1461035d578063438cdfc51461037e5761024f565b8063346693c5146102f057806337f381d81461031d5761024f565b8063016a6d6514610254578063031b905c1461028a5780630f0e8cf71461029f5780631fb09795146102c1575b600080fd5b34801561026057600080fd5b5061027461026f366004614bb6565b6106fd565b60405161028191906150b4565b60405180910390f35b34801561029657600080fd5b50610274610718565b3480156102ab57600080fd5b506102bf6102ba366004614705565b61073c565b005b3480156102cd57600080fd5b506102e16102dc366004614a1e565b6107ec565b60405161028193929190615677565b3480156102fc57600080fd5b5061031061030b366004614bb6565b610904565b6040516102819190615669565b34801561032957600080fd5b506102e1610338366004614bd2565b6109bc565b34801561034957600080fd5b506102bf610358366004614696565b610abc565b61037061036b366004614ac7565b610aef565b6040516102819291906157c2565b34801561038a57600080fd5b5061039e610399366004614c08565b610b99565b60405161028191906157a5565b3480156103b757600080fd5b506103c0610c6a565b60405161028191906157f3565b3480156103d957600080fd5b506103e2610c8e565b60405161028191906152f1565b3480156103fb57600080fd5b5061040f61040a36600461449b565b610cc7565b60405161028191906150a9565b34801561042857600080fd5b506102bf610437366004614a02565b610d15565b34801561044857600080fd5b506102bf610457366004614705565b610d96565b34801561046857600080fd5b50610471610e37565b6040516102819190615236565b61039e61048c366004614a7c565b611355565b34801561049d57600080fd5b506102bf6104ac366004614597565b611418565b3480156104bd57600080fd5b506103106104cc366004614a02565b61143f565b3480156104dd57600080fd5b506102bf6104ec3660046149c2565b6114ca565b3480156104fd57600080fd5b506102bf61050c366004614814565b6114d6565b34801561051d57600080fd5b506102bf61052c3660046144d3565b611506565b34801561053d57600080fd5b506103c0611594565b34801561055257600080fd5b50610370610561366004614c48565b6115b8565b34801561057257600080fd5b50610370610581366004614c08565b611666565b34801561059257600080fd5b506105a66105a13660046148b3565b6116d4565b6040516102819392919061500b565b3480156105c157600080fd5b506102bf6105d03660046145e7565b61193a565b3480156105e157600080fd5b506102bf6105f0366004614597565b611a53565b34801561060157600080fd5b506105a661061036600461477f565b611a7a565b34801561062157600080fd5b506102bf6106303660046149c2565b611cd5565b34801561064157600080fd5b50610274611ce1565b34801561065657600080fd5b50610274610665366004614a02565b611d05565b34801561067657600080fd5b506102bf61068536600461456a565b611d13565b610370610698366004614a7c565b611daf565b3480156106a957600080fd5b506102bf6106b8366004614915565b611e4d565b3480156106c957600080fd5b506102bf6106d83660046144d3565b611e7d565b3480156106e957600080fd5b506102bf6106f8366004614bb6565b611f04565b600061071061070b83611f81565b6120b8565b90505b919050565b7f000000000000000000000000000000000000000000000000000000000000000081565b8151835114801561074e575080518351145b61078d576040517f08c379a00000000000000000000000000000000000000000000000000000000081526004016107849061541c565b60405180910390fd5b60005b83518110156107e6576107de338583815181106107a957fe5b60200260200101518584815181106107bd57fe5b60200260200101518585815181106107d157fe5b602002602001015161210a565b600101610790565b50505050565b6107f46140e7565b6000806108008561143f565b92506108916040518060a001604052808760a0015173ffffffffffffffffffffffffffffffffffffffff168152602001876000015173ffffffffffffffffffffffffffffffffffffffff16815260200187604001516fffffffffffffffffffffffffffffffff16815260200187606001516fffffffffffffffffffffffffffffffff168152602001858152506121f2565b83519092506000906108b1906108ac36889003880188614ccd565b61231b565b90508073ffffffffffffffffffffffffffffffffffffffff168660a0015173ffffffffffffffffffffffffffffffffffffffff1614806108fa57506108fa8660a0015182610cc7565b9150509250925092565b61090c6140e7565b610915826106fd565b8152600061092161246c565b608084015173ffffffffffffffffffffffffffffffffffffffff9081166000908152600292909201602090815260408084208751841685528252808420828801519093168452919052902054606084015161010085015161012086015192935061098f928592919085612479565b60c083015173ffffffffffffffffffffffffffffffffffffffff166109b657600060208301525b50919050565b6109c46140e7565b6000806109d085610904565b9250610a616040518060a00160405280876080015173ffffffffffffffffffffffffffffffffffffffff168152602001876000015173ffffffffffffffffffffffffffffffffffffffff16815260200187604001516fffffffffffffffffffffffffffffffff16815260200187606001516fffffffffffffffffffffffffffffffff168152602001858152506121f2565b91506000610a7384600001518661231b565b90508073ffffffffffffffffffffffffffffffffffffffff16866080015173ffffffffffffffffffffffffffffffffffffffff1614806108fa57506108fa866080015182610cc7565b60005b81811015610aea57610ae2838383818110610ad657fe5b9050602002013561256c565b600101610abf565b505050565b600080333014610b0a57610b0a610b05336127ba565b612872565b610b12614109565b610b7f6040518060a001604052808a8152602001898152602001886fffffffffffffffffffffffffffffffff1681526020018773ffffffffffffffffffffffffffffffffffffffff1681526020018673ffffffffffffffffffffffffffffffffffffffff1681525061287a565b602081015160409091015190999098509650505050505050565b6000610ba3614109565b6040805160c081018252868152602081018690526fffffffffffffffffffffffffffffffff85169181019190915233606082018190526000608083015260a0820152610bee90612c4d565b9050826fffffffffffffffffffffffffffffffff1681602001516fffffffffffffffffffffffffffffffff161015610c5e57610c5e610b05610c2f876106fd565b83602001516fffffffffffffffffffffffffffffffff16866fffffffffffffffffffffffffffffffff16612ff6565b60400151949350505050565b7f000000000000000000000000000000000000000000000000000000000000000090565b6040518060400160405280600b81526020017f4c696d69744f726465727300000000000000000000000000000000000000000081525081565b6000610cd161246c565b73ffffffffffffffffffffffffffffffffffffffff808516600090815260049290920160209081526040808420928616845291905290205460ff1690505b92915050565b6000610d2082611d05565b90508160a0015173ffffffffffffffffffffffffffffffffffffffff163373ffffffffffffffffffffffffffffffffffffffff1614158015610d6d5750610d6b8260a0015133610cc7565b155b15610d8457610d84610b0582338560a001516130b4565b610d92818360a001516130ec565b5050565b81518351148015610da8575080518351145b610dde576040517f08c379a00000000000000000000000000000000000000000000000000000000081526004016107849061541c565b60005b83518110156107e657610e2f33858381518110610dfa57fe5b6020026020010151858481518110610e0e57fe5b6020026020010151858581518110610e2257fe5b602002602001015161315f565b600101610de1565b6000610e627f3cd2f02600000000000000000000000000000000000000000000000000000000613237565b610e8b7ff6274f6600000000000000000000000000000000000000000000000000000000613237565b610eb47faa77476c00000000000000000000000000000000000000000000000000000000613237565b610edd7f9240529c00000000000000000000000000000000000000000000000000000000613237565b610f067f438cdfc500000000000000000000000000000000000000000000000000000000613237565b610f2f7f414e4ccf00000000000000000000000000000000000000000000000000000000613237565b610f587faa6b21cd00000000000000000000000000000000000000000000000000000000613237565b610f817f7d49ec1a00000000000000000000000000000000000000000000000000000000613237565b610faa7ffe55a3ef00000000000000000000000000000000000000000000000000000000613237565b610fd37f9baa45a800000000000000000000000000000000000000000000000000000000613237565b610ffc7ff6e0f6a500000000000000000000000000000000000000000000000000000000613237565b6110257fd0a55fb000000000000000000000000000000000000000000000000000000000613237565b61104e7fb10a33f400000000000000000000000000000000000000000000000000000000613237565b6110777f86a0c8d700000000000000000000000000000000000000000000000000000000613237565b6110a07f9f0434f500000000000000000000000000000000000000000000000000000000613237565b6110c97f9a4f809c00000000000000000000000000000000000000000000000000000000613237565b6110f27f935c82a400000000000000000000000000000000000000000000000000000000613237565b61111b7f0f0e8cf700000000000000000000000000000000000000000000000000000000613237565b6111447ffd5f995b00000000000000000000000000000000000000000000000000000000613237565b61116d7f9548088900000000000000000000000000000000000000000000000000000000613237565b6111967f346693c500000000000000000000000000000000000000000000000000000000613237565b6111bf7fdd11d22500000000000000000000000000000000000000000000000000000000613237565b6111e87f016a6d6500000000000000000000000000000000000000000000000000000000613237565b6112117f487b5c2000000000000000000000000000000000000000000000000000000000613237565b61123a7fb09f1fb100000000000000000000000000000000000000000000000000000000613237565b6112637f1fb0979500000000000000000000000000000000000000000000000000000000613237565b61128c7f37f381d800000000000000000000000000000000000000000000000000000000613237565b6112b57fb4658bfb00000000000000000000000000000000000000000000000000000000613237565b6112de7fad354eeb00000000000000000000000000000000000000000000000000000000613237565b6113077fea7faa6100000000000000000000000000000000000000000000000000000000613237565b6113307f6b52a4a800000000000000000000000000000000000000000000000000000000613237565b507f2c64c5ef0000000000000000000000000000000000000000000000000000000090565b600061135f614109565b6113cc6040518060a00160405280878152602001868152602001856fffffffffffffffffffffffffffffffff1681526020013373ffffffffffffffffffffffffffffffffffffffff1681526020013373ffffffffffffffffffffffffffffffffffffffff1681525061287a565b9050826fffffffffffffffffffffffffffffffff1681602001516fffffffffffffffffffffffffffffffff16101561140d5761140d610b05610c2f87611d05565b8051610c5e906132c3565b6114228433610cc7565b61143357611433610b058533613366565b6107e68484848461210a565b6114476140e7565b61145082611d05565b8152600061145c61246c565b60a084015173ffffffffffffffffffffffffffffffffffffffff908116600090815260019290920160209081526040808420875184168552825280842082880151909316845291905290205460608401516101408501516101608601519293506109b6928592919085612479565b610aea3384848461210a565b60005b8151811015610d92576114fe8282815181106114f157fe5b6020026020010151610d15565b6001016114d9565b81518351148015611518575080518351145b61154e576040517f08c379a00000000000000000000000000000000000000000000000000000000081526004016107849061541c565b6115588433610cc7565b61156957611569610b058533613366565b60005b835181101561158d5761158585858381518110610dfa57fe5b60010161156c565b5050505050565b7f000000000000000000000000000000000000000000000000000000000000000081565b6000803330146115ce576115ce610b05336127ba565b6115d6614109565b61164b6040518060c001604052808b81526020018a8152602001896fffffffffffffffffffffffffffffffff1681526020018873ffffffffffffffffffffffffffffffffffffffff16815260200187151581526020018673ffffffffffffffffffffffffffffffffffffffff16815250612c4d565b6020810151604090910151909a909950975050505050505050565b600080611671614109565b6040805160c081018252878152602081018790526fffffffffffffffffffffffffffffffff86169181019190915233606082018190526000608083015260a08201526116bc90612c4d565b60208101516040909101519097909650945050505050565b60608080858414611711576040517f08c379a000000000000000000000000000000000000000000000000000000000815260040161078490615362565b8567ffffffffffffffff8111801561172857600080fd5b5060405190808252806020026020018201604052801561176257816020015b61174f6140e7565b8152602001906001900390816117475790505b5092508567ffffffffffffffff8111801561177c57600080fd5b506040519080825280602002602001820160405280156117a6578160200160208202803683370190505b5091508567ffffffffffffffff811180156117c057600080fd5b506040519080825280602002602001820160405280156117ea578160200160208202803683370190505b50905060005b8681101561192f57306337f381d889898481811061180a57fe5b9050610140020188888581811061181d57fe5b9050608002016040518363ffffffff1660e01b81526004016118409291906156ad565b60a06040518083038186803b15801561185857600080fd5b505afa9250505080156118a6575060408051601f3d9081017fffffffffffffffffffffffffffffffffffffffffffffffffffffffffffffffe01682019092526118a391810190614b3a565b60015b6118af57611927565b828785815181106118bc57fe5b6020026020010181905250818685815181106118d457fe5b60200260200101906fffffffffffffffffffffffffffffffff1690816fffffffffffffffffffffffffffffffff16815250508085858151811061191357fe5b911515602092830291909101909101525050505b6001016117f0565b509450945094915050565b333214611973576040517f08c379a0000000000000000000000000000000000000000000000000000000008152600401610784906153bf565b600061197d61246c565b905060005b8351811015611a1257336000908152600383016020526040812085518592908790859081106119ad57fe5b60209081029190910181015173ffffffffffffffffffffffffffffffffffffffff16825281019190915260400160002080547fffffffffffffffffffffffffffffffffffffffffffffffffffffffffffffff0016911515919091179055600101611982565b507f02dfead5eb769b298e82dd9650b31c40559a3d42701dbf53c931bc2682847c31338484604051611a4693929190614f15565b60405180910390a1505050565b611a5d8433610cc7565b611a6e57611a6e610b058533613366565b6107e68484848461315f565b60608080858414611ab7576040517f08c379a000000000000000000000000000000000000000000000000000000000815260040161078490615362565b8567ffffffffffffffff81118015611ace57600080fd5b50604051908082528060200260200182016040528015611b0857816020015b611af56140e7565b815260200190600190039081611aed5790505b5092508567ffffffffffffffff81118015611b2257600080fd5b50604051908082528060200260200182016040528015611b4c578160200160208202803683370190505b5091508567ffffffffffffffff81118015611b6657600080fd5b50604051908082528060200260200182016040528015611b90578160200160208202803683370190505b50905060005b8681101561192f5730631fb09795898984818110611bb057fe5b90506101800201888885818110611bc357fe5b9050608002016040518363ffffffff1660e01b8152600401611be6929190615533565b60a06040518083038186803b158015611bfe57600080fd5b505afa925050508015611c4c575060408051601f3d9081017fffffffffffffffffffffffffffffffffffffffffffffffffffffffffffffffe0168201909252611c4991810190614b3a565b60015b611c5557611ccd565b82878581518110611c6257fe5b602002602001018190525081868581518110611c7a57fe5b60200260200101906fffffffffffffffffffffffffffffffff1690816fffffffffffffffffffffffffffffffff168152505080858581518110611cb957fe5b911515602092830291909101909101525050505b600101611b96565b610aea3384848461315f565b7f000000000000000000000000000000000000000000000000000000000000000081565b600061071061070b83613421565b6000611d1d61246c565b336000818152600483016020908152604080832073ffffffffffffffffffffffffffffffffffffffff891684529091529081902080547fffffffffffffffffffffffffffffffffffffffffffffffffffffffffffffff0016861515179055519192507f6ea9dbe8b2cc119348716a9220a0742ad62b7884ecb0ff4b32cd508121fd937991611a46919086908690614ee4565b600080611dba614109565b611e276040518060a00160405280888152602001878152602001866fffffffffffffffffffffffffffffffff1681526020013373ffffffffffffffffffffffffffffffffffffffff1681526020013373ffffffffffffffffffffffffffffffffffffffff1681525061287a565b9050611e3681600001516132c3565b602081015160409091015190969095509350505050565b60005b8151811015610d9257611e75828281518110611e6857fe5b6020026020010151611f04565b600101611e50565b81518351148015611e8f575080518351145b611ec5576040517f08c379a00000000000000000000000000000000000000000000000000000000081526004016107849061541c565b611ecf8433610cc7565b611ee057611ee0610b058533613366565b60005b835181101561158d57611efc858583815181106107a957fe5b600101611ee3565b6000611f0f826106fd565b9050816080015173ffffffffffffffffffffffffffffffffffffffff163373ffffffffffffffffffffffffffffffffffffffff1614158015611f5c5750611f5a826080015133610cc7565b155b15611f7357611f73610b05823385608001516130b4565b610d928183608001516130ec565b60006040517fe593d3fdfa8b60e5e17a1b2204662ecbe15c23f2084b9ad5bae40359540a7da98152825173ffffffffffffffffffffffffffffffffffffffff166020820152602083015173ffffffffffffffffffffffffffffffffffffffff16604082015260408301516fffffffffffffffffffffffffffffffff16606082015260608301516fffffffffffffffffffffffffffffffff166080820152608083015173ffffffffffffffffffffffffffffffffffffffff1660a082015260a083015173ffffffffffffffffffffffffffffffffffffffff1660c082015260c083015173ffffffffffffffffffffffffffffffffffffffff1660e082015260e083015161010082015261010083015167ffffffffffffffff166101208201526101208301516101408201526101608120915050919050565b60007f0000000000000000000000000000000000000000000000000000000000000000826040516020016120ed929190614e59565b604051602081830303815290604052805190602001209050919050565b600061211461246c565b73ffffffffffffffffffffffffffffffffffffffff8087166000908152600283016020908152604080832089851684528252808320938816835292905220549091508281111561216b5761216b610b058483613598565b73ffffffffffffffffffffffffffffffffffffffff80871660009081526002840160209081526040808320898516845282528083209388168352929052819020849055517ffe7ffb1edfe79f4df716cb2dcad21cf2f31b104d816a7976ba1e6e4653c1efb1906121e2908890889088908890614fae565b60405180910390a1505050505050565b600081604001516fffffffffffffffffffffffffffffffff166000148061222d575060608201516fffffffffffffffffffffffffffffffff16155b1561223a57506000610713565b6001826080015160200151600481111561225057fe5b1461225d57506000610713565b60006122b68360800151604001518460600151036fffffffffffffffffffffffffffffffff1684606001516fffffffffffffffffffffffffffffffff1685604001516fffffffffffffffffffffffffffffffff166135ce565b90506122d3816122ce856020015186600001516135ec565b61371e565b905061231461230f8285604001516fffffffffffffffffffffffffffffffff1686606001516fffffffffffffffffffffffffffffffff16613734565b613758565b9392505050565b60006123278383613784565b60028251600381111561233657fe5b141561239e576001838360200151846040015185606001516040516000815260200160405260405161236b9493929190615218565b6020604051602081039080840390855afa15801561238d573d6000803e3d6000fd5b505050602060405103519050612443565b6003825160038111156123ad57fe5b14156124435760007f19457468657265756d205369676e6564204d6573736167653a0a33320000000060005283601c52603c6000209050600181846020015185604001518660600151604051600081526020016040526040516124139493929190615218565b6020604051602081039080840390855afa158015612435573d6000803e3d6000fd5b505050602060405103519150505b73ffffffffffffffffffffffffffffffffffffffff8116610d0f57610d0f610b05600585613830565b600080610d0f6007613866565b600061248361246c565b865160009081526020829052604090819020546fffffffffffffffffffffffffffffffff808216928a01839052929350918716116124da576020870160025b908160048111156124cf57fe5b81525050505061158d565b7f800000000000000000000000000000000000000000000000000000000000000081161561250d576020870160036124c2565b504267ffffffffffffffff168467ffffffffffffffff1611612547576020860160045b9081600481111561253d57fe5b815250505061158d565b8282111561255a57602086016003612530565b60016020870181905250505050505050565b6040517f319bed9a00000000000000000000000000000000000000000000000000000000815260009073ffffffffffffffffffffffffffffffffffffffff7f0000000000000000000000000000000000000000000000000000000000000000169063319bed9a906125e19085906004016150b4565b602060405180830381600087803b1580156125fb57600080fd5b505af115801561260f573d6000803e3d6000fd5b505050506040513d601f19601f8201168201806040525081019061263391906149a6565b905060007f000000000000000000000000000000000000000000000000000000000000000073ffffffffffffffffffffffffffffffffffffffff166370a08231836040518263ffffffff1660e01b81526004016126909190614e92565b60206040518083038186803b1580156126a857600080fd5b505afa1580156126bc573d6000803e3d6000fd5b505050506040513d601f19601f820116820180604052508101906126e09190614ce8565b90506001811115610aea576040517fa3b4a32700000000000000000000000000000000000000000000000000000000815273ffffffffffffffffffffffffffffffffffffffff7f0000000000000000000000000000000000000000000000000000000000000000169063a3b4a3279061278390859081907fffffffffffffffffffffffffffffffffffffffffffffffffffffffffffffffff870190600401614eb3565b600060405180830381600087803b15801561279d57600080fd5b505af11580156127b1573d6000803e3d6000fd5b50505050505050565b60607ff0ec779b0bcda6d84abf99ee2c67647d1100ebbb553a9c2d1c2ba1579592832c826040516024016127ee9190614e92565b604080517fffffffffffffffffffffffffffffffffffffffffffffffffffffffffffffffe08184030181529190526020810180517bffffffffffffffffffffffffffffffffffffffffffffffffffffffff167fffffffff00000000000000000000000000000000000000000000000000000000909316929092179091529050919050565b805160208201fd5b612882614109565b61288a6140e7565b82516128959061143f565b90506001816020015160048111156128a957fe5b146128ce576128ce610b058260000151836020015160048111156128c957fe5b613881565b825160c0015173ffffffffffffffffffffffffffffffffffffffff16158015906129305750826060015173ffffffffffffffffffffffffffffffffffffffff16836000015160c0015173ffffffffffffffffffffffffffffffffffffffff1614155b1561295357612953610b0582600001518560600151866000015160c001516138b7565b825160e0015173ffffffffffffffffffffffffffffffffffffffff16158015906129b55750826080015173ffffffffffffffffffffffffffffffffffffffff16836000015160e0015173ffffffffffffffffffffffffffffffffffffffff1614155b156129d8576129d8610b0582600001518560800151866000015160e001516138ef565b60006129ec8260000151856020015161231b565b9050836000015160a0015173ffffffffffffffffffffffffffffffffffffffff168173ffffffffffffffffffffffffffffffffffffffff1614158015612a3f5750835160a00151612a3d9082610cc7565b155b15612a5b578151845160a00151612a5b91610b05918490613927565b5082516101200151612a6c9061395f565b8252604080516101408101825282518152845160a09081015173ffffffffffffffffffffffffffffffffffffffff9081166020808501919091526060808901805184168688015251831681860152885151831660808601528851909101519091169183019190915285518301516fffffffffffffffffffffffffffffffff90811660c0840152865190910151811660e083015285830151811661010083015291830151909116610120820152612b2190613a34565b6fffffffffffffffffffffffffffffffff908116604085015290811660208401528351608001511615612bd857612ba382602001516fffffffffffffffffffffffffffffffff168460000151606001516fffffffffffffffffffffffffffffffff168560000151608001516fffffffffffffffffffffffffffffffff166135ce565b6fffffffffffffffffffffffffffffffff166060808401829052845160208101519186015161010090910151612bd893613bf5565b8051835160a08101516060808701516101008401518451602080870151908a01516040808c0151968c01518c51610120909a015191517fab614d2b738543c0ea21f56347cf696a3a0c42a7cbec3212a5ca22a4dcff21249b612c3f9b909a9993909161510d565b60405180910390a150919050565b612c55614109565b612c5d6140e7565b8251612c6890610904565b9050600181602001516004811115612c7c57fe5b14612c9c57612c9c610b058260000151836020015160048111156128c957fe5b6000612ca661246c565b845160c0015190915073ffffffffffffffffffffffffffffffffffffffff163214801590612d0c5750835160c0015173ffffffffffffffffffffffffffffffffffffffff166000908152600382016020908152604080832032845290915290205460ff16155b15612d28578151845160c00151612d2891610b05913290613ceb565b50825160a0015173ffffffffffffffffffffffffffffffffffffffff1615801590612d8b5750826060015173ffffffffffffffffffffffffffffffffffffffff16836000015160a0015173ffffffffffffffffffffffffffffffffffffffff1614155b15612dae57612dae610b0582600001518560600151866000015160a001516138b7565b6000612dc28260000151856020015161231b565b905083600001516080015173ffffffffffffffffffffffffffffffffffffffff168173ffffffffffffffffffffffffffffffffffffffff1614158015612e155750835160800151612e139082610cc7565b155b15612e31578151845160800151612e3191610b05918490613927565b50604080516101408101825282518152845160809081015173ffffffffffffffffffffffffffffffffffffffff166020830152850151612f7c92820190612e7c578560600151612e7e565b305b73ffffffffffffffffffffffffffffffffffffffff1681526020018560a0015173ffffffffffffffffffffffffffffffffffffffff16815260200185600001516000015173ffffffffffffffffffffffffffffffffffffffff16815260200185600001516020015173ffffffffffffffffffffffffffffffffffffffff1681526020018560000151604001516fffffffffffffffffffffffffffffffff1681526020018560000151606001516fffffffffffffffffffffffffffffffff16815260200185604001516fffffffffffffffffffffffffffffffff16815260200183604001516fffffffffffffffffffffffffffffffff16815250613a34565b6fffffffffffffffffffffffffffffffff908116604080860182905292909116602080860182905284518751608081015160608a015182519483015160e09093015197517f829fa99d94dc4636925b38632e625736a614c154d55006b7ab6bea979c210c3298612c3f98959793969295929493929161518d565b60607f21948612b5ef214ec0508df4901600e07a810a371be76b25d59ade73826e3d9784848460405160240161302e939291906151f1565b604080517fffffffffffffffffffffffffffffffffffffffffffffffffffffffffffffffe08184030181529190526020810180517bffffffffffffffffffffffffffffffffffffffffffffffffffffffff167fffffffff000000000000000000000000000000000000000000000000000000009093169290921790915290509392505050565b60607f88b2c08e4a5f57d416ad23dad18c20497ccfe684b1379b28fd564adaf582b80f84848460405160240161302e939291906150e1565b60006130f661246c565b6000848152602082905260409081902080547f8000000000000000000000000000000000000000000000000000000000000000179055519091507fa6eb7cdc219e1518ced964e9a34e61d68a94e4f1569db3e84256ba981ba5275390611a4690859085906150bd565b600061316961246c565b73ffffffffffffffffffffffffffffffffffffffff808716600090815260018301602090815260408083208985168452825280832093881683529290522054909150828111156131c0576131c0610b058483613598565b73ffffffffffffffffffffffffffffffffffffffff80871660009081526001840160209081526040808320898516845282528083209388168352929052819020849055517fa91fe7ae62fce669df2c7f880f8c14d178531aae72515558e5c948e37c32a572906121e2908890889088908890614fae565b6040517f6eb224cb0000000000000000000000000000000000000000000000000000000081523090636eb224cb906132959084907f000000000000000000000000000000000000000000000000000000000000000090600401615263565b600060405180830381600087803b1580156132af57600080fd5b505af115801561158d573d6000803e3d6000fd5b80341180156132d25750333014155b156133635760006132e33483613d23565b905060003373ffffffffffffffffffffffffffffffffffffffff168260405161330b90614e8f565b60006040518083038185875af1925050503d8060008114613348576040519150601f19603f3d011682016040523d82523d6000602084013e61334d565b606091505b5050905080610aea57610aea610b053384613d42565b50565b60607f84356db366796dc6e2aeb1ad74b631fe4e5ec6a650464da6059e9f95c8810a10838360405160240161339c929190614f87565b604080517fffffffffffffffffffffffffffffffffffffffffffffffffffffffffffffffe08184030181529190526020810180517bffffffffffffffffffffffffffffffffffffffffffffffffffffffff167fffffffff0000000000000000000000000000000000000000000000000000000090931692909217909152905092915050565b60006040517fce918627cb55462ddbb85e73de69a8b322f2bc88f4507c52fcad6d4c33c29d498152825173ffffffffffffffffffffffffffffffffffffffff166020820152602083015173ffffffffffffffffffffffffffffffffffffffff16604082015260408301516fffffffffffffffffffffffffffffffff16606082015260608301516fffffffffffffffffffffffffffffffff16608082015260808301516fffffffffffffffffffffffffffffffff1660a082015260a083015173ffffffffffffffffffffffffffffffffffffffff1660c082015260c083015173ffffffffffffffffffffffffffffffffffffffff1660e082015260e083015173ffffffffffffffffffffffffffffffffffffffff1661010082015261010083015173ffffffffffffffffffffffffffffffffffffffff1661012082015261012083015161014082015261014083015167ffffffffffffffff166101608201526101608301516101808201526101a08120915050919050565b60607fb12bc7e7d341f4431d6faf05f991ee3b779183e341b24243064e10c886cd1873838360405160240161339c9291906157e5565b60006135e4836135de8685613d78565b90613da9565b949350505050565b60006123148373ffffffffffffffffffffffffffffffffffffffff1663dd62ed3e84306040518363ffffffff1660e01b815260040161362c929190614f87565b60206040518083038186803b15801561364457600080fd5b505afa158015613658573d6000803e3d6000fd5b505050506040513d601f19601f8201168201806040525081019061367c9190614ce8565b6040517f70a0823100000000000000000000000000000000000000000000000000000000815273ffffffffffffffffffffffffffffffffffffffff8616906370a08231906136ce908790600401614e92565b60206040518083038186803b1580156136e657600080fd5b505afa1580156136fa573d6000803e3d6000fd5b505050506040513d601f19601f820116820180604052508101906122ce9190614ce8565b600081831061372d5781612314565b5090919050565b60006135e4836135de613748826001613d23565b6137528887613d78565b90613dd3565b60006fffffffffffffffffffffffffffffffff82111561378057613780610b05600384613def565b5090565b60408101517ffffffffffffffffffffffffffffffffebaaedce6af48a03bbfd25e8cd03641411115806137db575060608101517f7fffffffffffffffffffffffffffffff5d576e7357a4501ddfe92f46681b20a111155b156137ee576137ee610b05600584613830565b6000815160038111156137fd57fe5b141561381157613811610b05600384613830565b60018151600381111561382057fe5b1415610d9257610d92610b056000845b60607ff18f11f3027e735c758137924b262d4d3aff0037dcd785aca3c699fa05d960bd838360405160240161339c9291906152e3565b6000608082600881111561387657fe5b600101901b92915050565b60607f47ab394e41470191eaf9fa542e84ac483a12665fbd616eb8d1c022ced6c94000838360405160240161339c929190615207565b60607f5d3300180a4547b3e27137be832d3ebf56f1ba5ebb30dd580999c61f77fa639684848460405160240161302e939291906150e1565b60607f15e6a383bb02d79ee933b927fbecba78cdde16cba84b94a99661f44bcce3b73684848460405160240161302e939291906150e1565b60607ff13e65d925201525f3d71a731833b19bb26e44cfbd97caf72a366b73866f712484848460405160240161302e939291906150e1565b60008061396a613e0c565b90508061397b576000915050610713565b600061398684613e38565b905060008173ffffffffffffffffffffffffffffffffffffffff16836040516139ae90614e8f565b60006040518083038185875af1925050503d80600081146139eb576040519150601f19603f3d011682016040523d82523d6000602084013e6139f0565b606091505b5050905080613a2b576040517f08c379a0000000000000000000000000000000000000000000000000000000008152600401610784906154d6565b50909392505050565b600080613a73836101000151613a6e8561012001518660e001516fffffffffffffffffffffffffffffffff16613e8590919063ffffffff16565b613ee6565b9150613abe826fffffffffffffffffffffffffffffffff168460e001516fffffffffffffffffffffffffffffffff168560c001516fffffffffffffffffffffffffffffffff166135ce565b90506fffffffffffffffffffffffffffffffff82161580613aef57506fffffffffffffffffffffffffffffffff8116155b15613aff57506000905080613bf0565b610120830151613b21906fffffffffffffffffffffffffffffffff1683613f19565b6fffffffffffffffffffffffffffffffff16613b3b61246c565b845160009081526020919091526040908190209190915583015173ffffffffffffffffffffffffffffffffffffffff16301415613b9c57613b978360a001518460200151846fffffffffffffffffffffffffffffffff16613f6e565b613bc6565b613bc68360a0015184604001518560200151856fffffffffffffffffffffffffffffffff16613bf5565b613bf0836080015184602001518560600151846fffffffffffffffffffffffffffffffff16613bf5565b915091565b73ffffffffffffffffffffffffffffffffffffffff8416301415613c45576040517f08c379a000000000000000000000000000000000000000000000000000000000815260040161078490615479565b6040517f23b872dd00000000000000000000000000000000000000000000000000000000815273ffffffffffffffffffffffffffffffffffffffff8416600482015273ffffffffffffffffffffffffffffffffffffffff83166024820152816044820152602081606483600073ffffffffffffffffffffffffffffffffffffffff8a165af13d600183511460208210151681151782169150816127b157806000843e8083fd5b60607fc0972f3cc4234ca2091de7e7bc7081494bd29ac280167d66f0d44168973b163484848460405160240161302e939291906150e1565b600082821115613d3c57613d3c610b0560028585614050565b50900390565b60607fbde95cc2119e0200d80642397198abfcf98e6e4dddd0de9c6320d86252ad40ab838360405160240161339c929190614fe5565b600082613d8757506000610d0f565b82820282848281613d9457fe5b041461231457612314610b0560018686614050565b600081613dbf57613dbf610b0560038585614050565b6000828481613dca57fe5b04949350505050565b60008282018381101561231457612314610b0560008686614050565b606063c996af7b60e01b838360405160240161339c9291906152cc565b63ffffffff7f0000000000000000000000000000000000000000000000000000000000000000163a0290565b60006107107f00000000000000000000000000000000000000000000000000000000000000007f00000000000000000000000000000000000000000000000000000000000000008461406f565b6000826fffffffffffffffffffffffffffffffff16826fffffffffffffffffffffffffffffffff161115613d3c57613d3c610b056002856fffffffffffffffffffffffffffffffff16856fffffffffffffffffffffffffffffffff16614050565b6000816fffffffffffffffffffffffffffffffff16836fffffffffffffffffffffffffffffffff161061372d5781612314565b60008282016fffffffffffffffffffffffffffffffff808516908216101561231457612314610b056000866fffffffffffffffffffffffffffffffff16866fffffffffffffffffffffffffffffffff16614050565b73ffffffffffffffffffffffffffffffffffffffff8316301415613fbe576040517f08c379a000000000000000000000000000000000000000000000000000000000815260040161078490615479565b6040517fa9059cbb00000000000000000000000000000000000000000000000000000000815273ffffffffffffffffffffffffffffffffffffffff83166004820152816024820152602081604483600073ffffffffffffffffffffffffffffffffffffffff89165af13d6001835114602082101516811517821691508161404857806000843e8083fd5b505050505050565b606063e946c1bb60e01b84848460405160240161302e939291906152ab565b6040516000906140a9907fff0000000000000000000000000000000000000000000000000000000000000090869085908790602001614df5565b604080517fffffffffffffffffffffffffffffffffffffffffffffffffffffffffffffffe08184030181529190528051602090910120949350505050565b6040805160608101909152600080825260208201908152600060209091015290565b60408051608081018252600080825260208201819052918101829052606081019190915290565b8035610d0f81615888565b600082601f83011261414b578081fd5b813561415e6141598261582b565b615804565b81815291506020808301908481018184028601820187101561417f57600080fd5b60005b848110156141a757813561419581615888565b84529282019290820190600101614182565b505050505092915050565b60008083601f8401126141c3578182fd5b50813567ffffffffffffffff8111156141da578182fd5b6020830191508360206080830285010111156141f557600080fd5b9250929050565b600082601f83011261420c578081fd5b813561421a6141598261582b565b81815291506020808301908481018184028601820187101561423b57600080fd5b60005b848110156141a75781358452928201929082019060010161423e565b8035610d0f816158aa565b6000610180808385031215614278578182fd5b61428181615804565b91505061428e8383614130565b815261429d8360208401614130565b60208201526142af8360408401614478565b60408201526142c18360608401614478565b60608201526142d38360808401614478565b60808201526142e58360a08401614130565b60a08201526142f78360c08401614130565b60c08201526143098360e08401614130565b60e082015261010061431d84828501614130565b90820152610120828101359082015261014061433b84828501614483565b818301525061016080830135818301525092915050565b6000610140808385031215614365578182fd5b61436e81615804565b91505061437b8383614130565b815261438a8360208401614130565b602082015261439c8360408401614478565b60408201526143ae8360608401614478565b60608201526143c08360808401614130565b60808201526143d28360a08401614130565b60a08201526143e48360c08401614130565b60c082015260e082013560e082015261010061440284828501614483565b818301525061012080830135818301525092915050565b60006080828403121561442a578081fd5b6144346080615804565b90508135614441816158b8565b8152602082013560ff8116811461445757600080fd5b80602083015250604082013560408201526060820135606082015292915050565b8035610d0f816158c5565b803567ffffffffffffffff81168114610d0f57600080fd5b600080604083850312156144ad578182fd5b82356144b881615888565b915060208301356144c881615888565b809150509250929050565b600080600080608085870312156144e8578182fd5b84356144f381615888565b9350602085013567ffffffffffffffff8082111561450f578384fd5b61451b8883890161413b565b94506040870135915080821115614530578384fd5b61453c8883890161413b565b93506060870135915080821115614551578283fd5b5061455e878288016141fc565b91505092959194509250565b6000806040838503121561457c578182fd5b823561458781615888565b915060208301356144c8816158aa565b600080600080608085870312156145ac578182fd5b84356145b781615888565b935060208501356145c781615888565b925060408501356145d781615888565b9396929550929360600135925050565b600080604083850312156145f9578182fd5b823567ffffffffffffffff81111561460f578283fd5b8301601f8101851361461f578283fd5b803561462d6141598261582b565b80828252602080830192508085018982838702880101111561464d578788fd5b8795505b8486101561467857803561466481615888565b845260019590950194928101928101614651565b5081965061468889828a0161425a565b955050505050509250929050565b600080602083850312156146a8578182fd5b823567ffffffffffffffff808211156146bf578384fd5b818501915085601f8301126146d2578384fd5b8135818111156146e0578485fd5b86602080830285010111156146f3578485fd5b60209290920196919550909350505050565b600080600060608486031215614719578081fd5b833567ffffffffffffffff80821115614730578283fd5b61473c8783880161413b565b94506020860135915080821115614751578283fd5b61475d8783880161413b565b93506040860135915080821115614772578283fd5b506108fa868287016141fc565b60008060008060408587031215614794578182fd5b843567ffffffffffffffff808211156147ab578384fd5b818701915087601f8301126147be578384fd5b8135818111156147cc578485fd5b886020610180830285010111156147e1578485fd5b6020928301965094509086013590808211156147fb578384fd5b50614808878288016141b2565b95989497509550505050565b60006020808385031215614826578182fd5b823567ffffffffffffffff81111561483c578283fd5b8301601f8101851361484c578283fd5b803561485a6141598261582b565b81815283810190838501610180808502860187018a1015614879578788fd5b8795505b848610156148a55761488f8a83614265565b845260019590950194928601929081019061487d565b509098975050505050505050565b600080600080604085870312156148c8578182fd5b843567ffffffffffffffff808211156148df578384fd5b818701915087601f8301126148f2578384fd5b813581811115614900578485fd5b886020610140830285010111156147e1578485fd5b60006020808385031215614927578182fd5b823567ffffffffffffffff81111561493d578283fd5b8301601f8101851361494d578283fd5b803561495b6141598261582b565b81815283810190838501610140808502860187018a101561497a578788fd5b8795505b848610156148a5576149908a83614352565b845260019590950194928601929081019061497e565b6000602082840312156149b7578081fd5b815161231481615888565b6000806000606084860312156149d6578081fd5b83356149e181615888565b925060208401356149f181615888565b929592945050506040919091013590565b60006101808284031215614a14578081fd5b6123148383614265565b600080828403610200811215614a32578283fd5b614a3c8585614265565b925060807ffffffffffffffffffffffffffffffffffffffffffffffffffffffffffffffe8082011215614a6d578182fd5b50610180830190509250929050565b60008060006102208486031215614a91578081fd5b614a9b8585614265565b9250614aab856101808601614419565b9150610200840135614abc816158c5565b809150509250925092565b60008060008060006102608688031215614adf578283fd5b614ae98787614265565b9450614af9876101808801614419565b9350610200860135614b0a816158c5565b9250610220860135614b1b81615888565b9150610240860135614b2c81615888565b809150509295509295909350565b600080600083850360a0811215614b4f578182fd5b6060811215614b5c578182fd5b50614b676060615804565b84518152602085015160058110614b7c578283fd5b60208201526040850151614b8f816158c5565b60408201526060850151909350614ba5816158c5565b6080850151909250614abc816158aa565b60006101408284031215614bc8578081fd5b6123148383614352565b6000806101c08385031215614be5578182fd5b614bef8484614352565b9150614bff846101408501614419565b90509250929050565b60008060006101e08486031215614c1d578081fd5b614c278585614352565b9250614c37856101408601614419565b91506101c0840135614abc816158c5565b6000806000806000806102408789031215614c61578384fd5b614c6b8888614352565b9550614c7b886101408901614419565b94506101c0870135614c8c816158c5565b93506101e0870135614c9d81615888565b9250610200870135614cae816158aa565b9150610220870135614cbf81615888565b809150509295509295509295565b600060808284031215614cde578081fd5b6123148383614419565b600060208284031215614cf9578081fd5b5051919050565b73ffffffffffffffffffffffffffffffffffffffff169052565b6000815180845260208085019450808401835b83811015614d4b578151151587529582019590820190600101614d2d565b509495945050505050565b80518252602081015160058110614d6957fe5b60208301526040908101516fffffffffffffffffffffffffffffffff16910152565b8035614d96816158b8565b614d9f8161587e565b8252602081013560ff8116808214614db657600080fd5b60208401525060408181013590830152606090810135910152565b6fffffffffffffffffffffffffffffffff169052565b67ffffffffffffffff169052565b7fff0000000000000000000000000000000000000000000000000000000000000094909416845260609290921b7fffffffffffffffffffffffffffffffffffffffff0000000000000000000000001660018401526015830152603582015260550190565b7f190100000000000000000000000000000000000000000000000000000000000081526002810192909252602282015260420190565b90565b73ffffffffffffffffffffffffffffffffffffffff91909116815260200190565b73ffffffffffffffffffffffffffffffffffffffff9384168152919092166020820152604081019190915260600190565b73ffffffffffffffffffffffffffffffffffffffff9384168152919092166020820152901515604082015260600190565b60006060820173ffffffffffffffffffffffffffffffffffffffff808716845260206060818601528287518085526080870191508289019450855b81811015614f6e578551851683529483019491830191600101614f50565b5050809450505050508215156040830152949350505050565b73ffffffffffffffffffffffffffffffffffffffff92831681529116602082015260400190565b73ffffffffffffffffffffffffffffffffffffffff9485168152928416602084015292166040820152606081019190915260800190565b73ffffffffffffffffffffffffffffffffffffffff929092168252602082015260400190565b60608082528451828201819052600091906020906080850190828901855b8281101561504c5761503c848351614d56565b9285019290840190600101615029565b505050848103828601528651808252908201925086820190845b8181101561508957615079858451614dd1565b9383019391830191600101615066565b50505050828103604084015261509f8185614d1a565b9695505050505050565b901515815260200190565b90815260200190565b91825273ffffffffffffffffffffffffffffffffffffffff16602082015260400190565b92835273ffffffffffffffffffffffffffffffffffffffff918216602084015216604082015260600190565b9a8b5273ffffffffffffffffffffffffffffffffffffffff998a1660208c015297891660408b015295881660608a015293871660808901529190951660a08701526fffffffffffffffffffffffffffffffff94851660c0870152841660e08601529092166101008401526101208301919091526101408201526101600190565b97885273ffffffffffffffffffffffffffffffffffffffff968716602089015294861660408801529285166060870152931660808501526fffffffffffffffffffffffffffffffff92831660a085015290911660c083015260e08201526101000190565b9283526020830191909152604082015260600190565b91825260ff16602082015260400190565b93845260ff9290921660208401526040830152606082015260800190565b7fffffffff0000000000000000000000000000000000000000000000000000000091909116815260200190565b7fffffffff0000000000000000000000000000000000000000000000000000000092909216825273ffffffffffffffffffffffffffffffffffffffff16602082015260400190565b606081016152b88561587e565b938152602081019290925260409091015290565b604081016152d98461587e565b9281526020015290565b60408101600684106152d957fe5b6000602080835283518082850152825b8181101561531d57858101830151858201604001528201615301565b8181111561532e5783604083870101525b50601f017fffffffffffffffffffffffffffffffffffffffffffffffffffffffffffffffe016929092016040019392505050565b6020808252602c908201527f4e61746976654f7264657273466561747572652f4d49534d4154434845445f4160408201527f525241595f4c454e475448530000000000000000000000000000000000000000606082015260800190565b60208082526027908201527f4e61746976654f7264657273466561747572652f4e4f5f434f4e54524143545f60408201527f4f524947494e5300000000000000000000000000000000000000000000000000606082015260800190565b60208082526038908201527f4e61746976654f7264657273466561747572652f4d49534d4154434845445f5060408201527f4149525f4f52444552535f41525241595f4c454e475448530000000000000000606082015260800190565b60208082526024908201527f466978696e546f6b656e5370656e6465722f43414e4e4f545f494e564f4b455f60408201527f53454c4600000000000000000000000000000000000000000000000000000000606082015260800190565b60208082526027908201527f466978696e50726f746f636f6c466565732f45544845525f5452414e5346455260408201527f5f46414c49454400000000000000000000000000000000000000000000000000606082015260800190565b61020081016020840161554f8361554a8388614130565b614d00565b615559818661584b565b90506155686020840182614d00565b506155766040850185615858565b6155836040840182614dd1565b506155916060850185615858565b61559e6060840182614dd1565b506155ac6080850185615858565b6155b96080840182614dd1565b506155c760a085018561584b565b6155d460a0840182614d00565b506155e260c085018561584b565b6155ef60c0840182614d00565b506155fd60e085018561584b565b61560a60e0840182614d00565b5061010061561a8186018661584b565b61562682850182614d00565b5050610120848101359083015261014061564281860186615865565b61564e82850182614de7565b50506101608481013590830152612314610180830184614d8b565b60608101610d0f8284614d56565b60a081016156858286614d56565b6fffffffffffffffffffffffffffffffff841660608301528215156080830152949350505050565b6101c08101602084016156c48361554a8388614130565b6156ce818661584b565b90506156dd6020840182614d00565b506156eb6040850185615858565b6156f86040840182614dd1565b506157066060850185615858565b6157136060840182614dd1565b50615721608085018561584b565b61572e6080840182614d00565b5061573c60a085018561584b565b61574960a0840182614d00565b5061575760c085018561584b565b61576460c0840182614d00565b5060e084013560e083015261010061577e81860186615865565b61578a82850182614de7565b50506101208481013590830152612314610140830184614d8b565b6fffffffffffffffffffffffffffffffff91909116815260200190565b6fffffffffffffffffffffffffffffffff92831681529116602082015260400190565b918252602082015260400190565b63ffffffff91909116815260200190565b60405181810167ffffffffffffffff8111828210171561582357600080fd5b604052919050565b600067ffffffffffffffff821115615841578081fd5b5060209081020190565b6000823561231481615888565b60008235612314816158c5565b6000823567ffffffffffffffff81168114612314578182fd5b6004811061336357fe5b73ffffffffffffffffffffffffffffffffffffffff8116811461336357600080fd5b801515811461336357600080fd5b6004811061336357600080fd5b6fffffffffffffffffffffffffffffffff8116811461336357600080fdfea2646970667358221220ddf7f9c9d65fe45e6898b05cd3959d4948cb4d51eeed986a1f1c5828747c46c364736f6c634300060c0033",
                "opcodes": "PUSH2 0x180 PUSH1 0x40 MSTORE PUSH3 0x15 PUSH1 0x1 PUSH1 0x3 PUSH1 0x0 PUSH3 0x1D1 JUMP JUMPDEST PUSH2 0x160 MSTORE CALLVALUE DUP1 ISZERO PUSH3 0x26 JUMPI PUSH1 0x0 DUP1 REVERT JUMPDEST POP PUSH1 0x40 MLOAD PUSH3 0x5C81 CODESIZE SUB DUP1 PUSH3 0x5C81 DUP4 CODECOPY DUP2 ADD PUSH1 0x40 DUP2 SWAP1 MSTORE PUSH3 0x49 SWAP2 PUSH3 0x203 JUMP JUMPDEST DUP5 DUP5 DUP5 DUP5 DUP5 DUP4 DUP4 DUP4 DUP4 DUP4 DUP4 DUP4 DUP4 DUP13 DUP1 DUP1 PUSH1 0x0 CHAINID SWAP1 POP PUSH32 0x8B73C3C69BB8FE3D512ECC4CF759CC79239F7B179B0FFACAA9A75D522B39400F PUSH32 0x9E5DAE0ADDAF20578AEB5D70341D092B53B4E14480AC5726438FD436DF7BA427 PUSH32 0x6C015BD22B4C69690933C1058878EBDFEF31F9AAAE40BBE86D8A09FE1B2972C DUP4 DUP6 PUSH1 0x40 MLOAD PUSH1 0x20 ADD PUSH3 0xD9 SWAP6 SWAP5 SWAP4 SWAP3 SWAP2 SWAP1 PUSH3 0x2A2 JUMP JUMPDEST PUSH1 0x40 DUP1 MLOAD PUSH1 0x1F NOT DUP2 DUP5 SUB ADD DUP2 MSTORE DUP3 DUP3 MSTORE DUP1 MLOAD PUSH1 0x20 SWAP2 DUP3 ADD KECCAK256 PUSH1 0x80 MSTORE PUSH1 0x1 PUSH1 0x1 PUSH1 0x60 SHL SUB NOT PUSH1 0x60 DUP11 SWAP1 SHL AND PUSH1 0xC0 MSTORE PUSH4 0x3C9506A3 PUSH1 0xE2 SHL DUP4 MSTORE SWAP1 MLOAD PUSH1 0x1 PUSH1 0x1 PUSH1 0xA0 SHL SUB DUP10 AND SWAP7 POP PUSH4 0xF2541A8C SWAP6 POP PUSH1 0x4 DUP1 DUP5 ADD SWAP6 POP SWAP2 SWAP4 POP SWAP2 DUP3 SWAP1 SUB ADD DUP2 DUP7 DUP1 EXTCODESIZE ISZERO DUP1 ISZERO PUSH3 0x145 JUMPI PUSH1 0x0 DUP1 REVERT JUMPDEST POP GAS STATICCALL ISZERO DUP1 ISZERO PUSH3 0x15A JUMPI RETURNDATASIZE PUSH1 0x0 DUP1 RETURNDATACOPY RETURNDATASIZE PUSH1 0x0 REVERT JUMPDEST POP POP POP POP PUSH1 0x40 MLOAD RETURNDATASIZE PUSH1 0x1F NOT PUSH1 0x1F DUP3 ADD AND DUP3 ADD DUP1 PUSH1 0x40 MSTORE POP DUP2 ADD SWAP1 PUSH3 0x180 SWAP2 SWAP1 PUSH3 0x289 JUMP JUMPDEST PUSH1 0xE0 SWAP1 DUP2 MSTORE PUSH1 0x60 SWAP5 DUP6 SHL PUSH1 0x1 PUSH1 0x1 PUSH1 0x60 SHL SUB NOT SWAP1 DUP2 AND PUSH2 0x100 MSTORE SWAP4 DUP6 SHL SWAP1 SWAP4 AND PUSH2 0x120 MSTORE SWAP1 SWAP2 SHL PUSH1 0x1 PUSH1 0x1 PUSH1 0xE0 SHL SUB NOT AND PUSH1 0xA0 MSTORE POP ADDRESS SWAP1 SHL PUSH2 0x140 MSTORE POP PUSH3 0x2E7 SWAP13 POP POP POP POP POP POP POP POP POP POP POP POP POP JUMP JUMPDEST PUSH12 0xFFFFFFFF0000000000000000 PUSH1 0x40 DUP5 SWAP1 SHL AND PUSH8 0xFFFFFFFF00000000 PUSH1 0x20 DUP5 SWAP1 SHL AND OR PUSH4 0xFFFFFFFF DUP3 AND OR SWAP4 SWAP3 POP POP POP JUMP JUMPDEST PUSH1 0x0 DUP1 PUSH1 0x0 DUP1 PUSH1 0x0 PUSH1 0xA0 DUP7 DUP9 SUB SLT ISZERO PUSH3 0x21B JUMPI DUP1 DUP2 REVERT JUMPDEST DUP6 MLOAD PUSH3 0x228 DUP2 PUSH3 0x2CE JUMP JUMPDEST PUSH1 0x20 DUP8 ADD MLOAD SWAP1 SWAP6 POP PUSH3 0x23B DUP2 PUSH3 0x2CE JUMP JUMPDEST PUSH1 0x40 DUP8 ADD MLOAD SWAP1 SWAP5 POP PUSH3 0x24E DUP2 PUSH3 0x2CE JUMP JUMPDEST PUSH1 0x60 DUP8 ADD MLOAD SWAP1 SWAP4 POP PUSH3 0x261 DUP2 PUSH3 0x2CE JUMP JUMPDEST PUSH1 0x80 DUP8 ADD MLOAD SWAP1 SWAP3 POP PUSH4 0xFFFFFFFF DUP2 AND DUP2 EQ PUSH3 0x27B JUMPI DUP2 DUP3 REVERT JUMPDEST DUP1 SWAP2 POP POP SWAP3 SWAP6 POP SWAP3 SWAP6 SWAP1 SWAP4 POP JUMP JUMPDEST PUSH1 0x0 PUSH1 0x20 DUP3 DUP5 SUB SLT ISZERO PUSH3 0x29B JUMPI DUP1 DUP2 REVERT JUMPDEST POP MLOAD SWAP2 SWAP1 POP JUMP JUMPDEST SWAP5 DUP6 MSTORE PUSH1 0x20 DUP6 ADD SWAP4 SWAP1 SWAP4 MSTORE PUSH1 0x40 DUP5 ADD SWAP2 SWAP1 SWAP2 MSTORE PUSH1 0x60 DUP4 ADD MSTORE PUSH1 0x1 PUSH1 0x1 PUSH1 0xA0 SHL SUB AND PUSH1 0x80 DUP3 ADD MSTORE PUSH1 0xA0 ADD SWAP1 JUMP JUMPDEST PUSH1 0x1 PUSH1 0x1 PUSH1 0xA0 SHL SUB DUP2 AND DUP2 EQ PUSH3 0x2E4 JUMPI PUSH1 0x0 DUP1 REVERT JUMPDEST POP JUMP JUMPDEST PUSH1 0x80 MLOAD PUSH1 0xA0 MLOAD PUSH1 0xE0 SHR PUSH1 0xC0 MLOAD PUSH1 0x60 SHR PUSH1 0xE0 MLOAD PUSH2 0x100 MLOAD PUSH1 0x60 SHR PUSH2 0x120 MLOAD PUSH1 0x60 SHR PUSH2 0x140 MLOAD PUSH1 0x60 SHR PUSH2 0x160 MLOAD PUSH2 0x5919 PUSH3 0x368 PUSH1 0x0 CODECOPY DUP1 PUSH2 0x71A MSTORE POP DUP1 PUSH2 0x326D MSTORE POP DUP1 PUSH2 0x2728 MSTORE POP DUP1 PUSH2 0x2639 MSTORE POP DUP1 PUSH2 0x3E60 MSTORE POP DUP1 PUSH2 0x25AC MSTORE DUP1 PUSH2 0x3E3F MSTORE POP DUP1 PUSH2 0xC6C MSTORE DUP1 PUSH2 0x1596 MSTORE DUP1 PUSH2 0x3E13 MSTORE POP DUP1 PUSH2 0x1CE3 MSTORE DUP1 PUSH2 0x20BC MSTORE POP PUSH2 0x5919 PUSH1 0x0 RETURN INVALID PUSH1 0x80 PUSH1 0x40 MSTORE PUSH1 0x4 CALLDATASIZE LT PUSH2 0x24F JUMPI PUSH1 0x0 CALLDATALOAD PUSH1 0xE0 SHR DUP1 PUSH4 0x9A4F809C GT PUSH2 0x138 JUMPI DUP1 PUSH4 0xB4658BFB GT PUSH2 0xB0 JUMPI DUP1 PUSH4 0xEA7FAA61 GT PUSH2 0x7F JUMPI DUP1 PUSH4 0xF6E0F6A5 GT PUSH2 0x64 JUMPI DUP1 PUSH4 0xF6E0F6A5 EQ PUSH2 0x69D JUMPI DUP1 PUSH4 0xFD5F995B EQ PUSH2 0x6BD JUMPI DUP1 PUSH4 0xFE55A3EF EQ PUSH2 0x6DD JUMPI PUSH2 0x24F JUMP JUMPDEST DUP1 PUSH4 0xEA7FAA61 EQ PUSH2 0x66A JUMPI DUP1 PUSH4 0xF6274F66 EQ PUSH2 0x68A JUMPI PUSH2 0x24F JUMP JUMPDEST DUP1 PUSH4 0xB4658BFB EQ PUSH2 0x5F5 JUMPI DUP1 PUSH4 0xD0A55FB0 EQ PUSH2 0x615 JUMPI DUP1 PUSH4 0xDAB400F3 EQ PUSH2 0x635 JUMPI DUP1 PUSH4 0xDD11D225 EQ PUSH2 0x64A JUMPI PUSH2 0x24F JUMP JUMPDEST DUP1 PUSH4 0xAA6B21CD GT PUSH2 0x107 JUMPI DUP1 PUSH4 0xAD354EEB GT PUSH2 0xEC JUMPI DUP1 PUSH4 0xAD354EEB EQ PUSH2 0x586 JUMPI DUP1 PUSH4 0xB09F1FB1 EQ PUSH2 0x5B5 JUMPI DUP1 PUSH4 0xB10A33F4 EQ PUSH2 0x5D5 JUMPI PUSH2 0x24F JUMP JUMPDEST DUP1 PUSH4 0xAA6B21CD EQ PUSH2 0x546 JUMPI DUP1 PUSH4 0xAA77476C EQ PUSH2 0x566 JUMPI PUSH2 0x24F JUMP JUMPDEST DUP1 PUSH4 0x9A4F809C EQ PUSH2 0x4D1 JUMPI DUP1 PUSH4 0x9BAA45A8 EQ PUSH2 0x4F1 JUMPI DUP1 PUSH4 0x9F0434F5 EQ PUSH2 0x511 JUMPI DUP1 PUSH4 0xA0EDCEF5 EQ PUSH2 0x531 JUMPI PUSH2 0x24F JUMP JUMPDEST DUP1 PUSH4 0x487B5C20 GT PUSH2 0x1CB JUMPI DUP1 PUSH4 0x86A0C8D7 GT PUSH2 0x19A JUMPI DUP1 PUSH4 0x9240529C GT PUSH2 0x17F JUMPI DUP1 PUSH4 0x9240529C EQ PUSH2 0x47E JUMPI DUP1 PUSH4 0x935C82A4 EQ PUSH2 0x491 JUMPI DUP1 PUSH4 0x95480889 EQ PUSH2 0x4B1 JUMPI PUSH2 0x24F JUMP JUMPDEST DUP1 PUSH4 0x86A0C8D7 EQ PUSH2 0x43C JUMPI DUP1 PUSH4 0x8FD3AB80 EQ PUSH2 0x45C JUMPI PUSH2 0x24F JUMP JUMPDEST DUP1 PUSH4 0x487B5C20 EQ PUSH2 0x3AB JUMPI DUP1 PUSH4 0x6AE4B4F7 EQ PUSH2 0x3CD JUMPI DUP1 PUSH4 0x6B52A4A8 EQ PUSH2 0x3EF JUMPI DUP1 PUSH4 0x7D49EC1A EQ PUSH2 0x41C JUMPI PUSH2 0x24F JUMP JUMPDEST DUP1 PUSH4 0x346693C5 GT PUSH2 0x222 JUMPI DUP1 PUSH4 0x3CD2F026 GT PUSH2 0x207 JUMPI DUP1 PUSH4 0x3CD2F026 EQ PUSH2 0x33D JUMPI DUP1 PUSH4 0x414E4CCF EQ PUSH2 0x35D JUMPI DUP1 PUSH4 0x438CDFC5 EQ PUSH2 0x37E JUMPI PUSH2 0x24F JUMP JUMPDEST DUP1 PUSH4 0x346693C5 EQ PUSH2 0x2F0 JUMPI DUP1 PUSH4 0x37F381D8 EQ PUSH2 0x31D JUMPI PUSH2 0x24F JUMP JUMPDEST DUP1 PUSH4 0x16A6D65 EQ PUSH2 0x254 JUMPI DUP1 PUSH4 0x31B905C EQ PUSH2 0x28A JUMPI DUP1 PUSH4 0xF0E8CF7 EQ PUSH2 0x29F JUMPI DUP1 PUSH4 0x1FB09795 EQ PUSH2 0x2C1 JUMPI JUMPDEST PUSH1 0x0 DUP1 REVERT JUMPDEST CALLVALUE DUP1 ISZERO PUSH2 0x260 JUMPI PUSH1 0x0 DUP1 REVERT JUMPDEST POP PUSH2 0x274 PUSH2 0x26F CALLDATASIZE PUSH1 0x4 PUSH2 0x4BB6 JUMP JUMPDEST PUSH2 0x6FD JUMP JUMPDEST PUSH1 0x40 MLOAD PUSH2 0x281 SWAP2 SWAP1 PUSH2 0x50B4 JUMP JUMPDEST PUSH1 0x40 MLOAD DUP1 SWAP2 SUB SWAP1 RETURN JUMPDEST CALLVALUE DUP1 ISZERO PUSH2 0x296 JUMPI PUSH1 0x0 DUP1 REVERT JUMPDEST POP PUSH2 0x274 PUSH2 0x718 JUMP JUMPDEST CALLVALUE DUP1 ISZERO PUSH2 0x2AB JUMPI PUSH1 0x0 DUP1 REVERT JUMPDEST POP PUSH2 0x2BF PUSH2 0x2BA CALLDATASIZE PUSH1 0x4 PUSH2 0x4705 JUMP JUMPDEST PUSH2 0x73C JUMP JUMPDEST STOP JUMPDEST CALLVALUE DUP1 ISZERO PUSH2 0x2CD JUMPI PUSH1 0x0 DUP1 REVERT JUMPDEST POP PUSH2 0x2E1 PUSH2 0x2DC CALLDATASIZE PUSH1 0x4 PUSH2 0x4A1E JUMP JUMPDEST PUSH2 0x7EC JUMP JUMPDEST PUSH1 0x40 MLOAD PUSH2 0x281 SWAP4 SWAP3 SWAP2 SWAP1 PUSH2 0x5677 JUMP JUMPDEST CALLVALUE DUP1 ISZERO PUSH2 0x2FC JUMPI PUSH1 0x0 DUP1 REVERT JUMPDEST POP PUSH2 0x310 PUSH2 0x30B CALLDATASIZE PUSH1 0x4 PUSH2 0x4BB6 JUMP JUMPDEST PUSH2 0x904 JUMP JUMPDEST PUSH1 0x40 MLOAD PUSH2 0x281 SWAP2 SWAP1 PUSH2 0x5669 JUMP JUMPDEST CALLVALUE DUP1 ISZERO PUSH2 0x329 JUMPI PUSH1 0x0 DUP1 REVERT JUMPDEST POP PUSH2 0x2E1 PUSH2 0x338 CALLDATASIZE PUSH1 0x4 PUSH2 0x4BD2 JUMP JUMPDEST PUSH2 0x9BC JUMP JUMPDEST CALLVALUE DUP1 ISZERO PUSH2 0x349 JUMPI PUSH1 0x0 DUP1 REVERT JUMPDEST POP PUSH2 0x2BF PUSH2 0x358 CALLDATASIZE PUSH1 0x4 PUSH2 0x4696 JUMP JUMPDEST PUSH2 0xABC JUMP JUMPDEST PUSH2 0x370 PUSH2 0x36B CALLDATASIZE PUSH1 0x4 PUSH2 0x4AC7 JUMP JUMPDEST PUSH2 0xAEF JUMP JUMPDEST PUSH1 0x40 MLOAD PUSH2 0x281 SWAP3 SWAP2 SWAP1 PUSH2 0x57C2 JUMP JUMPDEST CALLVALUE DUP1 ISZERO PUSH2 0x38A JUMPI PUSH1 0x0 DUP1 REVERT JUMPDEST POP PUSH2 0x39E PUSH2 0x399 CALLDATASIZE PUSH1 0x4 PUSH2 0x4C08 JUMP JUMPDEST PUSH2 0xB99 JUMP JUMPDEST PUSH1 0x40 MLOAD PUSH2 0x281 SWAP2 SWAP1 PUSH2 0x57A5 JUMP JUMPDEST CALLVALUE DUP1 ISZERO PUSH2 0x3B7 JUMPI PUSH1 0x0 DUP1 REVERT JUMPDEST POP PUSH2 0x3C0 PUSH2 0xC6A JUMP JUMPDEST PUSH1 0x40 MLOAD PUSH2 0x281 SWAP2 SWAP1 PUSH2 0x57F3 JUMP JUMPDEST CALLVALUE DUP1 ISZERO PUSH2 0x3D9 JUMPI PUSH1 0x0 DUP1 REVERT JUMPDEST POP PUSH2 0x3E2 PUSH2 0xC8E JUMP JUMPDEST PUSH1 0x40 MLOAD PUSH2 0x281 SWAP2 SWAP1 PUSH2 0x52F1 JUMP JUMPDEST CALLVALUE DUP1 ISZERO PUSH2 0x3FB JUMPI PUSH1 0x0 DUP1 REVERT JUMPDEST POP PUSH2 0x40F PUSH2 0x40A CALLDATASIZE PUSH1 0x4 PUSH2 0x449B JUMP JUMPDEST PUSH2 0xCC7 JUMP JUMPDEST PUSH1 0x40 MLOAD PUSH2 0x281 SWAP2 SWAP1 PUSH2 0x50A9 JUMP JUMPDEST CALLVALUE DUP1 ISZERO PUSH2 0x428 JUMPI PUSH1 0x0 DUP1 REVERT JUMPDEST POP PUSH2 0x2BF PUSH2 0x437 CALLDATASIZE PUSH1 0x4 PUSH2 0x4A02 JUMP JUMPDEST PUSH2 0xD15 JUMP JUMPDEST CALLVALUE DUP1 ISZERO PUSH2 0x448 JUMPI PUSH1 0x0 DUP1 REVERT JUMPDEST POP PUSH2 0x2BF PUSH2 0x457 CALLDATASIZE PUSH1 0x4 PUSH2 0x4705 JUMP JUMPDEST PUSH2 0xD96 JUMP JUMPDEST CALLVALUE DUP1 ISZERO PUSH2 0x468 JUMPI PUSH1 0x0 DUP1 REVERT JUMPDEST POP PUSH2 0x471 PUSH2 0xE37 JUMP JUMPDEST PUSH1 0x40 MLOAD PUSH2 0x281 SWAP2 SWAP1 PUSH2 0x5236 JUMP JUMPDEST PUSH2 0x39E PUSH2 0x48C CALLDATASIZE PUSH1 0x4 PUSH2 0x4A7C JUMP JUMPDEST PUSH2 0x1355 JUMP JUMPDEST CALLVALUE DUP1 ISZERO PUSH2 0x49D JUMPI PUSH1 0x0 DUP1 REVERT JUMPDEST POP PUSH2 0x2BF PUSH2 0x4AC CALLDATASIZE PUSH1 0x4 PUSH2 0x4597 JUMP JUMPDEST PUSH2 0x1418 JUMP JUMPDEST CALLVALUE DUP1 ISZERO PUSH2 0x4BD JUMPI PUSH1 0x0 DUP1 REVERT JUMPDEST POP PUSH2 0x310 PUSH2 0x4CC CALLDATASIZE PUSH1 0x4 PUSH2 0x4A02 JUMP JUMPDEST PUSH2 0x143F JUMP JUMPDEST CALLVALUE DUP1 ISZERO PUSH2 0x4DD JUMPI PUSH1 0x0 DUP1 REVERT JUMPDEST POP PUSH2 0x2BF PUSH2 0x4EC CALLDATASIZE PUSH1 0x4 PUSH2 0x49C2 JUMP JUMPDEST PUSH2 0x14CA JUMP JUMPDEST CALLVALUE DUP1 ISZERO PUSH2 0x4FD JUMPI PUSH1 0x0 DUP1 REVERT JUMPDEST POP PUSH2 0x2BF PUSH2 0x50C CALLDATASIZE PUSH1 0x4 PUSH2 0x4814 JUMP JUMPDEST PUSH2 0x14D6 JUMP JUMPDEST CALLVALUE DUP1 ISZERO PUSH2 0x51D JUMPI PUSH1 0x0 DUP1 REVERT JUMPDEST POP PUSH2 0x2BF PUSH2 0x52C CALLDATASIZE PUSH1 0x4 PUSH2 0x44D3 JUMP JUMPDEST PUSH2 0x1506 JUMP JUMPDEST CALLVALUE DUP1 ISZERO PUSH2 0x53D JUMPI PUSH1 0x0 DUP1 REVERT JUMPDEST POP PUSH2 0x3C0 PUSH2 0x1594 JUMP JUMPDEST CALLVALUE DUP1 ISZERO PUSH2 0x552 JUMPI PUSH1 0x0 DUP1 REVERT JUMPDEST POP PUSH2 0x370 PUSH2 0x561 CALLDATASIZE PUSH1 0x4 PUSH2 0x4C48 JUMP JUMPDEST PUSH2 0x15B8 JUMP JUMPDEST CALLVALUE DUP1 ISZERO PUSH2 0x572 JUMPI PUSH1 0x0 DUP1 REVERT JUMPDEST POP PUSH2 0x370 PUSH2 0x581 CALLDATASIZE PUSH1 0x4 PUSH2 0x4C08 JUMP JUMPDEST PUSH2 0x1666 JUMP JUMPDEST CALLVALUE DUP1 ISZERO PUSH2 0x592 JUMPI PUSH1 0x0 DUP1 REVERT JUMPDEST POP PUSH2 0x5A6 PUSH2 0x5A1 CALLDATASIZE PUSH1 0x4 PUSH2 0x48B3 JUMP JUMPDEST PUSH2 0x16D4 JUMP JUMPDEST PUSH1 0x40 MLOAD PUSH2 0x281 SWAP4 SWAP3 SWAP2 SWAP1 PUSH2 0x500B JUMP JUMPDEST CALLVALUE DUP1 ISZERO PUSH2 0x5C1 JUMPI PUSH1 0x0 DUP1 REVERT JUMPDEST POP PUSH2 0x2BF PUSH2 0x5D0 CALLDATASIZE PUSH1 0x4 PUSH2 0x45E7 JUMP JUMPDEST PUSH2 0x193A JUMP JUMPDEST CALLVALUE DUP1 ISZERO PUSH2 0x5E1 JUMPI PUSH1 0x0 DUP1 REVERT JUMPDEST POP PUSH2 0x2BF PUSH2 0x5F0 CALLDATASIZE PUSH1 0x4 PUSH2 0x4597 JUMP JUMPDEST PUSH2 0x1A53 JUMP JUMPDEST CALLVALUE DUP1 ISZERO PUSH2 0x601 JUMPI PUSH1 0x0 DUP1 REVERT JUMPDEST POP PUSH2 0x5A6 PUSH2 0x610 CALLDATASIZE PUSH1 0x4 PUSH2 0x477F JUMP JUMPDEST PUSH2 0x1A7A JUMP JUMPDEST CALLVALUE DUP1 ISZERO PUSH2 0x621 JUMPI PUSH1 0x0 DUP1 REVERT JUMPDEST POP PUSH2 0x2BF PUSH2 0x630 CALLDATASIZE PUSH1 0x4 PUSH2 0x49C2 JUMP JUMPDEST PUSH2 0x1CD5 JUMP JUMPDEST CALLVALUE DUP1 ISZERO PUSH2 0x641 JUMPI PUSH1 0x0 DUP1 REVERT JUMPDEST POP PUSH2 0x274 PUSH2 0x1CE1 JUMP JUMPDEST CALLVALUE DUP1 ISZERO PUSH2 0x656 JUMPI PUSH1 0x0 DUP1 REVERT JUMPDEST POP PUSH2 0x274 PUSH2 0x665 CALLDATASIZE PUSH1 0x4 PUSH2 0x4A02 JUMP JUMPDEST PUSH2 0x1D05 JUMP JUMPDEST CALLVALUE DUP1 ISZERO PUSH2 0x676 JUMPI PUSH1 0x0 DUP1 REVERT JUMPDEST POP PUSH2 0x2BF PUSH2 0x685 CALLDATASIZE PUSH1 0x4 PUSH2 0x456A JUMP JUMPDEST PUSH2 0x1D13 JUMP JUMPDEST PUSH2 0x370 PUSH2 0x698 CALLDATASIZE PUSH1 0x4 PUSH2 0x4A7C JUMP JUMPDEST PUSH2 0x1DAF JUMP JUMPDEST CALLVALUE DUP1 ISZERO PUSH2 0x6A9 JUMPI PUSH1 0x0 DUP1 REVERT JUMPDEST POP PUSH2 0x2BF PUSH2 0x6B8 CALLDATASIZE PUSH1 0x4 PUSH2 0x4915 JUMP JUMPDEST PUSH2 0x1E4D JUMP JUMPDEST CALLVALUE DUP1 ISZERO PUSH2 0x6C9 JUMPI PUSH1 0x0 DUP1 REVERT JUMPDEST POP PUSH2 0x2BF PUSH2 0x6D8 CALLDATASIZE PUSH1 0x4 PUSH2 0x44D3 JUMP JUMPDEST PUSH2 0x1E7D JUMP JUMPDEST CALLVALUE DUP1 ISZERO PUSH2 0x6E9 JUMPI PUSH1 0x0 DUP1 REVERT JUMPDEST POP PUSH2 0x2BF PUSH2 0x6F8 CALLDATASIZE PUSH1 0x4 PUSH2 0x4BB6 JUMP JUMPDEST PUSH2 0x1F04 JUMP JUMPDEST PUSH1 0x0 PUSH2 0x710 PUSH2 0x70B DUP4 PUSH2 0x1F81 JUMP JUMPDEST PUSH2 0x20B8 JUMP JUMPDEST SWAP1 POP JUMPDEST SWAP2 SWAP1 POP JUMP JUMPDEST PUSH32 0x0 DUP2 JUMP JUMPDEST DUP2 MLOAD DUP4 MLOAD EQ DUP1 ISZERO PUSH2 0x74E JUMPI POP DUP1 MLOAD DUP4 MLOAD EQ JUMPDEST PUSH2 0x78D JUMPI PUSH1 0x40 MLOAD PUSH32 0x8C379A000000000000000000000000000000000000000000000000000000000 DUP2 MSTORE PUSH1 0x4 ADD PUSH2 0x784 SWAP1 PUSH2 0x541C JUMP JUMPDEST PUSH1 0x40 MLOAD DUP1 SWAP2 SUB SWAP1 REVERT JUMPDEST PUSH1 0x0 JUMPDEST DUP4 MLOAD DUP2 LT ISZERO PUSH2 0x7E6 JUMPI PUSH2 0x7DE CALLER DUP6 DUP4 DUP2 MLOAD DUP2 LT PUSH2 0x7A9 JUMPI INVALID JUMPDEST PUSH1 0x20 MUL PUSH1 0x20 ADD ADD MLOAD DUP6 DUP5 DUP2 MLOAD DUP2 LT PUSH2 0x7BD JUMPI INVALID JUMPDEST PUSH1 0x20 MUL PUSH1 0x20 ADD ADD MLOAD DUP6 DUP6 DUP2 MLOAD DUP2 LT PUSH2 0x7D1 JUMPI INVALID JUMPDEST PUSH1 0x20 MUL PUSH1 0x20 ADD ADD MLOAD PUSH2 0x210A JUMP JUMPDEST PUSH1 0x1 ADD PUSH2 0x790 JUMP JUMPDEST POP POP POP POP JUMP JUMPDEST PUSH2 0x7F4 PUSH2 0x40E7 JUMP JUMPDEST PUSH1 0x0 DUP1 PUSH2 0x800 DUP6 PUSH2 0x143F JUMP JUMPDEST SWAP3 POP PUSH2 0x891 PUSH1 0x40 MLOAD DUP1 PUSH1 0xA0 ADD PUSH1 0x40 MSTORE DUP1 DUP8 PUSH1 0xA0 ADD MLOAD PUSH20 0xFFFFFFFFFFFFFFFFFFFFFFFFFFFFFFFFFFFFFFFF AND DUP2 MSTORE PUSH1 0x20 ADD DUP8 PUSH1 0x0 ADD MLOAD PUSH20 0xFFFFFFFFFFFFFFFFFFFFFFFFFFFFFFFFFFFFFFFF AND DUP2 MSTORE PUSH1 0x20 ADD DUP8 PUSH1 0x40 ADD MLOAD PUSH16 0xFFFFFFFFFFFFFFFFFFFFFFFFFFFFFFFF AND DUP2 MSTORE PUSH1 0x20 ADD DUP8 PUSH1 0x60 ADD MLOAD PUSH16 0xFFFFFFFFFFFFFFFFFFFFFFFFFFFFFFFF AND DUP2 MSTORE PUSH1 0x20 ADD DUP6 DUP2 MSTORE POP PUSH2 0x21F2 JUMP JUMPDEST DUP4 MLOAD SWAP1 SWAP3 POP PUSH1 0x0 SWAP1 PUSH2 0x8B1 SWAP1 PUSH2 0x8AC CALLDATASIZE DUP9 SWAP1 SUB DUP9 ADD DUP9 PUSH2 0x4CCD JUMP JUMPDEST PUSH2 0x231B JUMP JUMPDEST SWAP1 POP DUP1 PUSH20 0xFFFFFFFFFFFFFFFFFFFFFFFFFFFFFFFFFFFFFFFF AND DUP7 PUSH1 0xA0 ADD MLOAD PUSH20 0xFFFFFFFFFFFFFFFFFFFFFFFFFFFFFFFFFFFFFFFF AND EQ DUP1 PUSH2 0x8FA JUMPI POP PUSH2 0x8FA DUP7 PUSH1 0xA0 ADD MLOAD DUP3 PUSH2 0xCC7 JUMP JUMPDEST SWAP2 POP POP SWAP3 POP SWAP3 POP SWAP3 JUMP JUMPDEST PUSH2 0x90C PUSH2 0x40E7 JUMP JUMPDEST PUSH2 0x915 DUP3 PUSH2 0x6FD JUMP JUMPDEST DUP2 MSTORE PUSH1 0x0 PUSH2 0x921 PUSH2 0x246C JUMP JUMPDEST PUSH1 0x80 DUP5 ADD MLOAD PUSH20 0xFFFFFFFFFFFFFFFFFFFFFFFFFFFFFFFFFFFFFFFF SWAP1 DUP2 AND PUSH1 0x0 SWAP1 DUP2 MSTORE PUSH1 0x2 SWAP3 SWAP1 SWAP3 ADD PUSH1 0x20 SWAP1 DUP2 MSTORE PUSH1 0x40 DUP1 DUP5 KECCAK256 DUP8 MLOAD DUP5 AND DUP6 MSTORE DUP3 MSTORE DUP1 DUP5 KECCAK256 DUP3 DUP9 ADD MLOAD SWAP1 SWAP4 AND DUP5 MSTORE SWAP2 SWAP1 MSTORE SWAP1 KECCAK256 SLOAD PUSH1 0x60 DUP5 ADD MLOAD PUSH2 0x100 DUP6 ADD MLOAD PUSH2 0x120 DUP7 ADD MLOAD SWAP3 SWAP4 POP PUSH2 0x98F SWAP3 DUP6 SWAP3 SWAP2 SWAP1 DUP6 PUSH2 0x2479 JUMP JUMPDEST PUSH1 0xC0 DUP4 ADD MLOAD PUSH20 0xFFFFFFFFFFFFFFFFFFFFFFFFFFFFFFFFFFFFFFFF AND PUSH2 0x9B6 JUMPI PUSH1 0x0 PUSH1 0x20 DUP4 ADD MSTORE JUMPDEST POP SWAP2 SWAP1 POP JUMP JUMPDEST PUSH2 0x9C4 PUSH2 0x40E7 JUMP JUMPDEST PUSH1 0x0 DUP1 PUSH2 0x9D0 DUP6 PUSH2 0x904 JUMP JUMPDEST SWAP3 POP PUSH2 0xA61 PUSH1 0x40 MLOAD DUP1 PUSH1 0xA0 ADD PUSH1 0x40 MSTORE DUP1 DUP8 PUSH1 0x80 ADD MLOAD PUSH20 0xFFFFFFFFFFFFFFFFFFFFFFFFFFFFFFFFFFFFFFFF AND DUP2 MSTORE PUSH1 0x20 ADD DUP8 PUSH1 0x0 ADD MLOAD PUSH20 0xFFFFFFFFFFFFFFFFFFFFFFFFFFFFFFFFFFFFFFFF AND DUP2 MSTORE PUSH1 0x20 ADD DUP8 PUSH1 0x40 ADD MLOAD PUSH16 0xFFFFFFFFFFFFFFFFFFFFFFFFFFFFFFFF AND DUP2 MSTORE PUSH1 0x20 ADD DUP8 PUSH1 0x60 ADD MLOAD PUSH16 0xFFFFFFFFFFFFFFFFFFFFFFFFFFFFFFFF AND DUP2 MSTORE PUSH1 0x20 ADD DUP6 DUP2 MSTORE POP PUSH2 0x21F2 JUMP JUMPDEST SWAP2 POP PUSH1 0x0 PUSH2 0xA73 DUP5 PUSH1 0x0 ADD MLOAD DUP7 PUSH2 0x231B JUMP JUMPDEST SWAP1 POP DUP1 PUSH20 0xFFFFFFFFFFFFFFFFFFFFFFFFFFFFFFFFFFFFFFFF AND DUP7 PUSH1 0x80 ADD MLOAD PUSH20 0xFFFFFFFFFFFFFFFFFFFFFFFFFFFFFFFFFFFFFFFF AND EQ DUP1 PUSH2 0x8FA JUMPI POP PUSH2 0x8FA DUP7 PUSH1 0x80 ADD MLOAD DUP3 PUSH2 0xCC7 JUMP JUMPDEST PUSH1 0x0 JUMPDEST DUP2 DUP2 LT ISZERO PUSH2 0xAEA JUMPI PUSH2 0xAE2 DUP4 DUP4 DUP4 DUP2 DUP2 LT PUSH2 0xAD6 JUMPI INVALID JUMPDEST SWAP1 POP PUSH1 0x20 MUL ADD CALLDATALOAD PUSH2 0x256C JUMP JUMPDEST PUSH1 0x1 ADD PUSH2 0xABF JUMP JUMPDEST POP POP POP JUMP JUMPDEST PUSH1 0x0 DUP1 CALLER ADDRESS EQ PUSH2 0xB0A JUMPI PUSH2 0xB0A PUSH2 0xB05 CALLER PUSH2 0x27BA JUMP JUMPDEST PUSH2 0x2872 JUMP JUMPDEST PUSH2 0xB12 PUSH2 0x4109 JUMP JUMPDEST PUSH2 0xB7F PUSH1 0x40 MLOAD DUP1 PUSH1 0xA0 ADD PUSH1 0x40 MSTORE DUP1 DUP11 DUP2 MSTORE PUSH1 0x20 ADD DUP10 DUP2 MSTORE PUSH1 0x20 ADD DUP9 PUSH16 0xFFFFFFFFFFFFFFFFFFFFFFFFFFFFFFFF AND DUP2 MSTORE PUSH1 0x20 ADD DUP8 PUSH20 0xFFFFFFFFFFFFFFFFFFFFFFFFFFFFFFFFFFFFFFFF AND DUP2 MSTORE PUSH1 0x20 ADD DUP7 PUSH20 0xFFFFFFFFFFFFFFFFFFFFFFFFFFFFFFFFFFFFFFFF AND DUP2 MSTORE POP PUSH2 0x287A JUMP JUMPDEST PUSH1 0x20 DUP2 ADD MLOAD PUSH1 0x40 SWAP1 SWAP2 ADD MLOAD SWAP1 SWAP10 SWAP1 SWAP9 POP SWAP7 POP POP POP POP POP POP POP JUMP JUMPDEST PUSH1 0x0 PUSH2 0xBA3 PUSH2 0x4109 JUMP JUMPDEST PUSH1 0x40 DUP1 MLOAD PUSH1 0xC0 DUP2 ADD DUP3 MSTORE DUP7 DUP2 MSTORE PUSH1 0x20 DUP2 ADD DUP7 SWAP1 MSTORE PUSH16 0xFFFFFFFFFFFFFFFFFFFFFFFFFFFFFFFF DUP6 AND SWAP2 DUP2 ADD SWAP2 SWAP1 SWAP2 MSTORE CALLER PUSH1 0x60 DUP3 ADD DUP2 SWAP1 MSTORE PUSH1 0x0 PUSH1 0x80 DUP4 ADD MSTORE PUSH1 0xA0 DUP3 ADD MSTORE PUSH2 0xBEE SWAP1 PUSH2 0x2C4D JUMP JUMPDEST SWAP1 POP DUP3 PUSH16 0xFFFFFFFFFFFFFFFFFFFFFFFFFFFFFFFF AND DUP2 PUSH1 0x20 ADD MLOAD PUSH16 0xFFFFFFFFFFFFFFFFFFFFFFFFFFFFFFFF AND LT ISZERO PUSH2 0xC5E JUMPI PUSH2 0xC5E PUSH2 0xB05 PUSH2 0xC2F DUP8 PUSH2 0x6FD JUMP JUMPDEST DUP4 PUSH1 0x20 ADD MLOAD PUSH16 0xFFFFFFFFFFFFFFFFFFFFFFFFFFFFFFFF AND DUP7 PUSH16 0xFFFFFFFFFFFFFFFFFFFFFFFFFFFFFFFF AND PUSH2 0x2FF6 JUMP JUMPDEST PUSH1 0x40 ADD MLOAD SWAP5 SWAP4 POP POP POP POP JUMP JUMPDEST PUSH32 0x0 SWAP1 JUMP JUMPDEST PUSH1 0x40 MLOAD DUP1 PUSH1 0x40 ADD PUSH1 0x40 MSTORE DUP1 PUSH1 0xB DUP2 MSTORE PUSH1 0x20 ADD PUSH32 0x4C696D69744F7264657273000000000000000000000000000000000000000000 DUP2 MSTORE POP DUP2 JUMP JUMPDEST PUSH1 0x0 PUSH2 0xCD1 PUSH2 0x246C JUMP JUMPDEST PUSH20 0xFFFFFFFFFFFFFFFFFFFFFFFFFFFFFFFFFFFFFFFF DUP1 DUP6 AND PUSH1 0x0 SWAP1 DUP2 MSTORE PUSH1 0x4 SWAP3 SWAP1 SWAP3 ADD PUSH1 0x20 SWAP1 DUP2 MSTORE PUSH1 0x40 DUP1 DUP5 KECCAK256 SWAP3 DUP7 AND DUP5 MSTORE SWAP2 SWAP1 MSTORE SWAP1 KECCAK256 SLOAD PUSH1 0xFF AND SWAP1 POP JUMPDEST SWAP3 SWAP2 POP POP JUMP JUMPDEST PUSH1 0x0 PUSH2 0xD20 DUP3 PUSH2 0x1D05 JUMP JUMPDEST SWAP1 POP DUP2 PUSH1 0xA0 ADD MLOAD PUSH20 0xFFFFFFFFFFFFFFFFFFFFFFFFFFFFFFFFFFFFFFFF AND CALLER PUSH20 0xFFFFFFFFFFFFFFFFFFFFFFFFFFFFFFFFFFFFFFFF AND EQ ISZERO DUP1 ISZERO PUSH2 0xD6D JUMPI POP PUSH2 0xD6B DUP3 PUSH1 0xA0 ADD MLOAD CALLER PUSH2 0xCC7 JUMP JUMPDEST ISZERO JUMPDEST ISZERO PUSH2 0xD84 JUMPI PUSH2 0xD84 PUSH2 0xB05 DUP3 CALLER DUP6 PUSH1 0xA0 ADD MLOAD PUSH2 0x30B4 JUMP JUMPDEST PUSH2 0xD92 DUP2 DUP4 PUSH1 0xA0 ADD MLOAD PUSH2 0x30EC JUMP JUMPDEST POP POP JUMP JUMPDEST DUP2 MLOAD DUP4 MLOAD EQ DUP1 ISZERO PUSH2 0xDA8 JUMPI POP DUP1 MLOAD DUP4 MLOAD EQ JUMPDEST PUSH2 0xDDE JUMPI PUSH1 0x40 MLOAD PUSH32 0x8C379A000000000000000000000000000000000000000000000000000000000 DUP2 MSTORE PUSH1 0x4 ADD PUSH2 0x784 SWAP1 PUSH2 0x541C JUMP JUMPDEST PUSH1 0x0 JUMPDEST DUP4 MLOAD DUP2 LT ISZERO PUSH2 0x7E6 JUMPI PUSH2 0xE2F CALLER DUP6 DUP4 DUP2 MLOAD DUP2 LT PUSH2 0xDFA JUMPI INVALID JUMPDEST PUSH1 0x20 MUL PUSH1 0x20 ADD ADD MLOAD DUP6 DUP5 DUP2 MLOAD DUP2 LT PUSH2 0xE0E JUMPI INVALID JUMPDEST PUSH1 0x20 MUL PUSH1 0x20 ADD ADD MLOAD DUP6 DUP6 DUP2 MLOAD DUP2 LT PUSH2 0xE22 JUMPI INVALID JUMPDEST PUSH1 0x20 MUL PUSH1 0x20 ADD ADD MLOAD PUSH2 0x315F JUMP JUMPDEST PUSH1 0x1 ADD PUSH2 0xDE1 JUMP JUMPDEST PUSH1 0x0 PUSH2 0xE62 PUSH32 0x3CD2F02600000000000000000000000000000000000000000000000000000000 PUSH2 0x3237 JUMP JUMPDEST PUSH2 0xE8B PUSH32 0xF6274F6600000000000000000000000000000000000000000000000000000000 PUSH2 0x3237 JUMP JUMPDEST PUSH2 0xEB4 PUSH32 0xAA77476C00000000000000000000000000000000000000000000000000000000 PUSH2 0x3237 JUMP JUMPDEST PUSH2 0xEDD PUSH32 0x9240529C00000000000000000000000000000000000000000000000000000000 PUSH2 0x3237 JUMP JUMPDEST PUSH2 0xF06 PUSH32 0x438CDFC500000000000000000000000000000000000000000000000000000000 PUSH2 0x3237 JUMP JUMPDEST PUSH2 0xF2F PUSH32 0x414E4CCF00000000000000000000000000000000000000000000000000000000 PUSH2 0x3237 JUMP JUMPDEST PUSH2 0xF58 PUSH32 0xAA6B21CD00000000000000000000000000000000000000000000000000000000 PUSH2 0x3237 JUMP JUMPDEST PUSH2 0xF81 PUSH32 0x7D49EC1A00000000000000000000000000000000000000000000000000000000 PUSH2 0x3237 JUMP JUMPDEST PUSH2 0xFAA PUSH32 0xFE55A3EF00000000000000000000000000000000000000000000000000000000 PUSH2 0x3237 JUMP JUMPDEST PUSH2 0xFD3 PUSH32 0x9BAA45A800000000000000000000000000000000000000000000000000000000 PUSH2 0x3237 JUMP JUMPDEST PUSH2 0xFFC PUSH32 0xF6E0F6A500000000000000000000000000000000000000000000000000000000 PUSH2 0x3237 JUMP JUMPDEST PUSH2 0x1025 PUSH32 0xD0A55FB000000000000000000000000000000000000000000000000000000000 PUSH2 0x3237 JUMP JUMPDEST PUSH2 0x104E PUSH32 0xB10A33F400000000000000000000000000000000000000000000000000000000 PUSH2 0x3237 JUMP JUMPDEST PUSH2 0x1077 PUSH32 0x86A0C8D700000000000000000000000000000000000000000000000000000000 PUSH2 0x3237 JUMP JUMPDEST PUSH2 0x10A0 PUSH32 0x9F0434F500000000000000000000000000000000000000000000000000000000 PUSH2 0x3237 JUMP JUMPDEST PUSH2 0x10C9 PUSH32 0x9A4F809C00000000000000000000000000000000000000000000000000000000 PUSH2 0x3237 JUMP JUMPDEST PUSH2 0x10F2 PUSH32 0x935C82A400000000000000000000000000000000000000000000000000000000 PUSH2 0x3237 JUMP JUMPDEST PUSH2 0x111B PUSH32 0xF0E8CF700000000000000000000000000000000000000000000000000000000 PUSH2 0x3237 JUMP JUMPDEST PUSH2 0x1144 PUSH32 0xFD5F995B00000000000000000000000000000000000000000000000000000000 PUSH2 0x3237 JUMP JUMPDEST PUSH2 0x116D PUSH32 0x9548088900000000000000000000000000000000000000000000000000000000 PUSH2 0x3237 JUMP JUMPDEST PUSH2 0x1196 PUSH32 0x346693C500000000000000000000000000000000000000000000000000000000 PUSH2 0x3237 JUMP JUMPDEST PUSH2 0x11BF PUSH32 0xDD11D22500000000000000000000000000000000000000000000000000000000 PUSH2 0x3237 JUMP JUMPDEST PUSH2 0x11E8 PUSH32 0x16A6D6500000000000000000000000000000000000000000000000000000000 PUSH2 0x3237 JUMP JUMPDEST PUSH2 0x1211 PUSH32 0x487B5C2000000000000000000000000000000000000000000000000000000000 PUSH2 0x3237 JUMP JUMPDEST PUSH2 0x123A PUSH32 0xB09F1FB100000000000000000000000000000000000000000000000000000000 PUSH2 0x3237 JUMP JUMPDEST PUSH2 0x1263 PUSH32 0x1FB0979500000000000000000000000000000000000000000000000000000000 PUSH2 0x3237 JUMP JUMPDEST PUSH2 0x128C PUSH32 0x37F381D800000000000000000000000000000000000000000000000000000000 PUSH2 0x3237 JUMP JUMPDEST PUSH2 0x12B5 PUSH32 0xB4658BFB00000000000000000000000000000000000000000000000000000000 PUSH2 0x3237 JUMP JUMPDEST PUSH2 0x12DE PUSH32 0xAD354EEB00000000000000000000000000000000000000000000000000000000 PUSH2 0x3237 JUMP JUMPDEST PUSH2 0x1307 PUSH32 0xEA7FAA6100000000000000000000000000000000000000000000000000000000 PUSH2 0x3237 JUMP JUMPDEST PUSH2 0x1330 PUSH32 0x6B52A4A800000000000000000000000000000000000000000000000000000000 PUSH2 0x3237 JUMP JUMPDEST POP PUSH32 0x2C64C5EF00000000000000000000000000000000000000000000000000000000 SWAP1 JUMP JUMPDEST PUSH1 0x0 PUSH2 0x135F PUSH2 0x4109 JUMP JUMPDEST PUSH2 0x13CC PUSH1 0x40 MLOAD DUP1 PUSH1 0xA0 ADD PUSH1 0x40 MSTORE DUP1 DUP8 DUP2 MSTORE PUSH1 0x20 ADD DUP7 DUP2 MSTORE PUSH1 0x20 ADD DUP6 PUSH16 0xFFFFFFFFFFFFFFFFFFFFFFFFFFFFFFFF AND DUP2 MSTORE PUSH1 0x20 ADD CALLER PUSH20 0xFFFFFFFFFFFFFFFFFFFFFFFFFFFFFFFFFFFFFFFF AND DUP2 MSTORE PUSH1 0x20 ADD CALLER PUSH20 0xFFFFFFFFFFFFFFFFFFFFFFFFFFFFFFFFFFFFFFFF AND DUP2 MSTORE POP PUSH2 0x287A JUMP JUMPDEST SWAP1 POP DUP3 PUSH16 0xFFFFFFFFFFFFFFFFFFFFFFFFFFFFFFFF AND DUP2 PUSH1 0x20 ADD MLOAD PUSH16 0xFFFFFFFFFFFFFFFFFFFFFFFFFFFFFFFF AND LT ISZERO PUSH2 0x140D JUMPI PUSH2 0x140D PUSH2 0xB05 PUSH2 0xC2F DUP8 PUSH2 0x1D05 JUMP JUMPDEST DUP1 MLOAD PUSH2 0xC5E SWAP1 PUSH2 0x32C3 JUMP JUMPDEST PUSH2 0x1422 DUP5 CALLER PUSH2 0xCC7 JUMP JUMPDEST PUSH2 0x1433 JUMPI PUSH2 0x1433 PUSH2 0xB05 DUP6 CALLER PUSH2 0x3366 JUMP JUMPDEST PUSH2 0x7E6 DUP5 DUP5 DUP5 DUP5 PUSH2 0x210A JUMP JUMPDEST PUSH2 0x1447 PUSH2 0x40E7 JUMP JUMPDEST PUSH2 0x1450 DUP3 PUSH2 0x1D05 JUMP JUMPDEST DUP2 MSTORE PUSH1 0x0 PUSH2 0x145C PUSH2 0x246C JUMP JUMPDEST PUSH1 0xA0 DUP5 ADD MLOAD PUSH20 0xFFFFFFFFFFFFFFFFFFFFFFFFFFFFFFFFFFFFFFFF SWAP1 DUP2 AND PUSH1 0x0 SWAP1 DUP2 MSTORE PUSH1 0x1 SWAP3 SWAP1 SWAP3 ADD PUSH1 0x20 SWAP1 DUP2 MSTORE PUSH1 0x40 DUP1 DUP5 KECCAK256 DUP8 MLOAD DUP5 AND DUP6 MSTORE DUP3 MSTORE DUP1 DUP5 KECCAK256 DUP3 DUP9 ADD MLOAD SWAP1 SWAP4 AND DUP5 MSTORE SWAP2 SWAP1 MSTORE SWAP1 KECCAK256 SLOAD PUSH1 0x60 DUP5 ADD MLOAD PUSH2 0x140 DUP6 ADD MLOAD PUSH2 0x160 DUP7 ADD MLOAD SWAP3 SWAP4 POP PUSH2 0x9B6 SWAP3 DUP6 SWAP3 SWAP2 SWAP1 DUP6 PUSH2 0x2479 JUMP JUMPDEST PUSH2 0xAEA CALLER DUP5 DUP5 DUP5 PUSH2 0x210A JUMP JUMPDEST PUSH1 0x0 JUMPDEST DUP2 MLOAD DUP2 LT ISZERO PUSH2 0xD92 JUMPI PUSH2 0x14FE DUP3 DUP3 DUP2 MLOAD DUP2 LT PUSH2 0x14F1 JUMPI INVALID JUMPDEST PUSH1 0x20 MUL PUSH1 0x20 ADD ADD MLOAD PUSH2 0xD15 JUMP JUMPDEST PUSH1 0x1 ADD PUSH2 0x14D9 JUMP JUMPDEST DUP2 MLOAD DUP4 MLOAD EQ DUP1 ISZERO PUSH2 0x1518 JUMPI POP DUP1 MLOAD DUP4 MLOAD EQ JUMPDEST PUSH2 0x154E JUMPI PUSH1 0x40 MLOAD PUSH32 0x8C379A000000000000000000000000000000000000000000000000000000000 DUP2 MSTORE PUSH1 0x4 ADD PUSH2 0x784 SWAP1 PUSH2 0x541C JUMP JUMPDEST PUSH2 0x1558 DUP5 CALLER PUSH2 0xCC7 JUMP JUMPDEST PUSH2 0x1569 JUMPI PUSH2 0x1569 PUSH2 0xB05 DUP6 CALLER PUSH2 0x3366 JUMP JUMPDEST PUSH1 0x0 JUMPDEST DUP4 MLOAD DUP2 LT ISZERO PUSH2 0x158D JUMPI PUSH2 0x1585 DUP6 DUP6 DUP4 DUP2 MLOAD DUP2 LT PUSH2 0xDFA JUMPI INVALID JUMPDEST PUSH1 0x1 ADD PUSH2 0x156C JUMP JUMPDEST POP POP POP POP POP JUMP JUMPDEST PUSH32 0x0 DUP2 JUMP JUMPDEST PUSH1 0x0 DUP1 CALLER ADDRESS EQ PUSH2 0x15CE JUMPI PUSH2 0x15CE PUSH2 0xB05 CALLER PUSH2 0x27BA JUMP JUMPDEST PUSH2 0x15D6 PUSH2 0x4109 JUMP JUMPDEST PUSH2 0x164B PUSH1 0x40 MLOAD DUP1 PUSH1 0xC0 ADD PUSH1 0x40 MSTORE DUP1 DUP12 DUP2 MSTORE PUSH1 0x20 ADD DUP11 DUP2 MSTORE PUSH1 0x20 ADD DUP10 PUSH16 0xFFFFFFFFFFFFFFFFFFFFFFFFFFFFFFFF AND DUP2 MSTORE PUSH1 0x20 ADD DUP9 PUSH20 0xFFFFFFFFFFFFFFFFFFFFFFFFFFFFFFFFFFFFFFFF AND DUP2 MSTORE PUSH1 0x20 ADD DUP8 ISZERO ISZERO DUP2 MSTORE PUSH1 0x20 ADD DUP7 PUSH20 0xFFFFFFFFFFFFFFFFFFFFFFFFFFFFFFFFFFFFFFFF AND DUP2 MSTORE POP PUSH2 0x2C4D JUMP JUMPDEST PUSH1 0x20 DUP2 ADD MLOAD PUSH1 0x40 SWAP1 SWAP2 ADD MLOAD SWAP1 SWAP11 SWAP1 SWAP10 POP SWAP8 POP POP POP POP POP POP POP POP JUMP JUMPDEST PUSH1 0x0 DUP1 PUSH2 0x1671 PUSH2 0x4109 JUMP JUMPDEST PUSH1 0x40 DUP1 MLOAD PUSH1 0xC0 DUP2 ADD DUP3 MSTORE DUP8 DUP2 MSTORE PUSH1 0x20 DUP2 ADD DUP8 SWAP1 MSTORE PUSH16 0xFFFFFFFFFFFFFFFFFFFFFFFFFFFFFFFF DUP7 AND SWAP2 DUP2 ADD SWAP2 SWAP1 SWAP2 MSTORE CALLER PUSH1 0x60 DUP3 ADD DUP2 SWAP1 MSTORE PUSH1 0x0 PUSH1 0x80 DUP4 ADD MSTORE PUSH1 0xA0 DUP3 ADD MSTORE PUSH2 0x16BC SWAP1 PUSH2 0x2C4D JUMP JUMPDEST PUSH1 0x20 DUP2 ADD MLOAD PUSH1 0x40 SWAP1 SWAP2 ADD MLOAD SWAP1 SWAP8 SWAP1 SWAP7 POP SWAP5 POP POP POP POP POP JUMP JUMPDEST PUSH1 0x60 DUP1 DUP1 DUP6 DUP5 EQ PUSH2 0x1711 JUMPI PUSH1 0x40 MLOAD PUSH32 0x8C379A000000000000000000000000000000000000000000000000000000000 DUP2 MSTORE PUSH1 0x4 ADD PUSH2 0x784 SWAP1 PUSH2 0x5362 JUMP JUMPDEST DUP6 PUSH8 0xFFFFFFFFFFFFFFFF DUP2 GT DUP1 ISZERO PUSH2 0x1728 JUMPI PUSH1 0x0 DUP1 REVERT JUMPDEST POP PUSH1 0x40 MLOAD SWAP1 DUP1 DUP3 MSTORE DUP1 PUSH1 0x20 MUL PUSH1 0x20 ADD DUP3 ADD PUSH1 0x40 MSTORE DUP1 ISZERO PUSH2 0x1762 JUMPI DUP2 PUSH1 0x20 ADD JUMPDEST PUSH2 0x174F PUSH2 0x40E7 JUMP JUMPDEST DUP2 MSTORE PUSH1 0x20 ADD SWAP1 PUSH1 0x1 SWAP1 SUB SWAP1 DUP2 PUSH2 0x1747 JUMPI SWAP1 POP JUMPDEST POP SWAP3 POP DUP6 PUSH8 0xFFFFFFFFFFFFFFFF DUP2 GT DUP1 ISZERO PUSH2 0x177C JUMPI PUSH1 0x0 DUP1 REVERT JUMPDEST POP PUSH1 0x40 MLOAD SWAP1 DUP1 DUP3 MSTORE DUP1 PUSH1 0x20 MUL PUSH1 0x20 ADD DUP3 ADD PUSH1 0x40 MSTORE DUP1 ISZERO PUSH2 0x17A6 JUMPI DUP2 PUSH1 0x20 ADD PUSH1 0x20 DUP3 MUL DUP1 CALLDATASIZE DUP4 CALLDATACOPY ADD SWAP1 POP JUMPDEST POP SWAP2 POP DUP6 PUSH8 0xFFFFFFFFFFFFFFFF DUP2 GT DUP1 ISZERO PUSH2 0x17C0 JUMPI PUSH1 0x0 DUP1 REVERT JUMPDEST POP PUSH1 0x40 MLOAD SWAP1 DUP1 DUP3 MSTORE DUP1 PUSH1 0x20 MUL PUSH1 0x20 ADD DUP3 ADD PUSH1 0x40 MSTORE DUP1 ISZERO PUSH2 0x17EA JUMPI DUP2 PUSH1 0x20 ADD PUSH1 0x20 DUP3 MUL DUP1 CALLDATASIZE DUP4 CALLDATACOPY ADD SWAP1 POP JUMPDEST POP SWAP1 POP PUSH1 0x0 JUMPDEST DUP7 DUP2 LT ISZERO PUSH2 0x192F JUMPI ADDRESS PUSH4 0x37F381D8 DUP10 DUP10 DUP5 DUP2 DUP2 LT PUSH2 0x180A JUMPI INVALID JUMPDEST SWAP1 POP PUSH2 0x140 MUL ADD DUP9 DUP9 DUP6 DUP2 DUP2 LT PUSH2 0x181D JUMPI INVALID JUMPDEST SWAP1 POP PUSH1 0x80 MUL ADD PUSH1 0x40 MLOAD DUP4 PUSH4 0xFFFFFFFF AND PUSH1 0xE0 SHL DUP2 MSTORE PUSH1 0x4 ADD PUSH2 0x1840 SWAP3 SWAP2 SWAP1 PUSH2 0x56AD JUMP JUMPDEST PUSH1 0xA0 PUSH1 0x40 MLOAD DUP1 DUP4 SUB DUP2 DUP7 DUP1 EXTCODESIZE ISZERO DUP1 ISZERO PUSH2 0x1858 JUMPI PUSH1 0x0 DUP1 REVERT JUMPDEST POP GAS STATICCALL SWAP3 POP POP POP DUP1 ISZERO PUSH2 0x18A6 JUMPI POP PUSH1 0x40 DUP1 MLOAD PUSH1 0x1F RETURNDATASIZE SWAP1 DUP2 ADD PUSH32 0xFFFFFFFFFFFFFFFFFFFFFFFFFFFFFFFFFFFFFFFFFFFFFFFFFFFFFFFFFFFFFFE0 AND DUP3 ADD SWAP1 SWAP3 MSTORE PUSH2 0x18A3 SWAP2 DUP2 ADD SWAP1 PUSH2 0x4B3A JUMP JUMPDEST PUSH1 0x1 JUMPDEST PUSH2 0x18AF JUMPI PUSH2 0x1927 JUMP JUMPDEST DUP3 DUP8 DUP6 DUP2 MLOAD DUP2 LT PUSH2 0x18BC JUMPI INVALID JUMPDEST PUSH1 0x20 MUL PUSH1 0x20 ADD ADD DUP2 SWAP1 MSTORE POP DUP2 DUP7 DUP6 DUP2 MLOAD DUP2 LT PUSH2 0x18D4 JUMPI INVALID JUMPDEST PUSH1 0x20 MUL PUSH1 0x20 ADD ADD SWAP1 PUSH16 0xFFFFFFFFFFFFFFFFFFFFFFFFFFFFFFFF AND SWAP1 DUP2 PUSH16 0xFFFFFFFFFFFFFFFFFFFFFFFFFFFFFFFF AND DUP2 MSTORE POP POP DUP1 DUP6 DUP6 DUP2 MLOAD DUP2 LT PUSH2 0x1913 JUMPI INVALID JUMPDEST SWAP2 ISZERO ISZERO PUSH1 0x20 SWAP3 DUP4 MUL SWAP2 SWAP1 SWAP2 ADD SWAP1 SWAP2 ADD MSTORE POP POP POP JUMPDEST PUSH1 0x1 ADD PUSH2 0x17F0 JUMP JUMPDEST POP SWAP5 POP SWAP5 POP SWAP5 SWAP2 POP POP JUMP JUMPDEST CALLER ORIGIN EQ PUSH2 0x1973 JUMPI PUSH1 0x40 MLOAD PUSH32 0x8C379A000000000000000000000000000000000000000000000000000000000 DUP2 MSTORE PUSH1 0x4 ADD PUSH2 0x784 SWAP1 PUSH2 0x53BF JUMP JUMPDEST PUSH1 0x0 PUSH2 0x197D PUSH2 0x246C JUMP JUMPDEST SWAP1 POP PUSH1 0x0 JUMPDEST DUP4 MLOAD DUP2 LT ISZERO PUSH2 0x1A12 JUMPI CALLER PUSH1 0x0 SWAP1 DUP2 MSTORE PUSH1 0x3 DUP4 ADD PUSH1 0x20 MSTORE PUSH1 0x40 DUP2 KECCAK256 DUP6 MLOAD DUP6 SWAP3 SWAP1 DUP8 SWAP1 DUP6 SWAP1 DUP2 LT PUSH2 0x19AD JUMPI INVALID JUMPDEST PUSH1 0x20 SWAP1 DUP2 MUL SWAP2 SWAP1 SWAP2 ADD DUP2 ADD MLOAD PUSH20 0xFFFFFFFFFFFFFFFFFFFFFFFFFFFFFFFFFFFFFFFF AND DUP3 MSTORE DUP2 ADD SWAP2 SWAP1 SWAP2 MSTORE PUSH1 0x40 ADD PUSH1 0x0 KECCAK256 DUP1 SLOAD PUSH32 0xFFFFFFFFFFFFFFFFFFFFFFFFFFFFFFFFFFFFFFFFFFFFFFFFFFFFFFFFFFFFFF00 AND SWAP2 ISZERO ISZERO SWAP2 SWAP1 SWAP2 OR SWAP1 SSTORE PUSH1 0x1 ADD PUSH2 0x1982 JUMP JUMPDEST POP PUSH32 0x2DFEAD5EB769B298E82DD9650B31C40559A3D42701DBF53C931BC2682847C31 CALLER DUP5 DUP5 PUSH1 0x40 MLOAD PUSH2 0x1A46 SWAP4 SWAP3 SWAP2 SWAP1 PUSH2 0x4F15 JUMP JUMPDEST PUSH1 0x40 MLOAD DUP1 SWAP2 SUB SWAP1 LOG1 POP POP POP JUMP JUMPDEST PUSH2 0x1A5D DUP5 CALLER PUSH2 0xCC7 JUMP JUMPDEST PUSH2 0x1A6E JUMPI PUSH2 0x1A6E PUSH2 0xB05 DUP6 CALLER PUSH2 0x3366 JUMP JUMPDEST PUSH2 0x7E6 DUP5 DUP5 DUP5 DUP5 PUSH2 0x315F JUMP JUMPDEST PUSH1 0x60 DUP1 DUP1 DUP6 DUP5 EQ PUSH2 0x1AB7 JUMPI PUSH1 0x40 MLOAD PUSH32 0x8C379A000000000000000000000000000000000000000000000000000000000 DUP2 MSTORE PUSH1 0x4 ADD PUSH2 0x784 SWAP1 PUSH2 0x5362 JUMP JUMPDEST DUP6 PUSH8 0xFFFFFFFFFFFFFFFF DUP2 GT DUP1 ISZERO PUSH2 0x1ACE JUMPI PUSH1 0x0 DUP1 REVERT JUMPDEST POP PUSH1 0x40 MLOAD SWAP1 DUP1 DUP3 MSTORE DUP1 PUSH1 0x20 MUL PUSH1 0x20 ADD DUP3 ADD PUSH1 0x40 MSTORE DUP1 ISZERO PUSH2 0x1B08 JUMPI DUP2 PUSH1 0x20 ADD JUMPDEST PUSH2 0x1AF5 PUSH2 0x40E7 JUMP JUMPDEST DUP2 MSTORE PUSH1 0x20 ADD SWAP1 PUSH1 0x1 SWAP1 SUB SWAP1 DUP2 PUSH2 0x1AED JUMPI SWAP1 POP JUMPDEST POP SWAP3 POP DUP6 PUSH8 0xFFFFFFFFFFFFFFFF DUP2 GT DUP1 ISZERO PUSH2 0x1B22 JUMPI PUSH1 0x0 DUP1 REVERT JUMPDEST POP PUSH1 0x40 MLOAD SWAP1 DUP1 DUP3 MSTORE DUP1 PUSH1 0x20 MUL PUSH1 0x20 ADD DUP3 ADD PUSH1 0x40 MSTORE DUP1 ISZERO PUSH2 0x1B4C JUMPI DUP2 PUSH1 0x20 ADD PUSH1 0x20 DUP3 MUL DUP1 CALLDATASIZE DUP4 CALLDATACOPY ADD SWAP1 POP JUMPDEST POP SWAP2 POP DUP6 PUSH8 0xFFFFFFFFFFFFFFFF DUP2 GT DUP1 ISZERO PUSH2 0x1B66 JUMPI PUSH1 0x0 DUP1 REVERT JUMPDEST POP PUSH1 0x40 MLOAD SWAP1 DUP1 DUP3 MSTORE DUP1 PUSH1 0x20 MUL PUSH1 0x20 ADD DUP3 ADD PUSH1 0x40 MSTORE DUP1 ISZERO PUSH2 0x1B90 JUMPI DUP2 PUSH1 0x20 ADD PUSH1 0x20 DUP3 MUL DUP1 CALLDATASIZE DUP4 CALLDATACOPY ADD SWAP1 POP JUMPDEST POP SWAP1 POP PUSH1 0x0 JUMPDEST DUP7 DUP2 LT ISZERO PUSH2 0x192F JUMPI ADDRESS PUSH4 0x1FB09795 DUP10 DUP10 DUP5 DUP2 DUP2 LT PUSH2 0x1BB0 JUMPI INVALID JUMPDEST SWAP1 POP PUSH2 0x180 MUL ADD DUP9 DUP9 DUP6 DUP2 DUP2 LT PUSH2 0x1BC3 JUMPI INVALID JUMPDEST SWAP1 POP PUSH1 0x80 MUL ADD PUSH1 0x40 MLOAD DUP4 PUSH4 0xFFFFFFFF AND PUSH1 0xE0 SHL DUP2 MSTORE PUSH1 0x4 ADD PUSH2 0x1BE6 SWAP3 SWAP2 SWAP1 PUSH2 0x5533 JUMP JUMPDEST PUSH1 0xA0 PUSH1 0x40 MLOAD DUP1 DUP4 SUB DUP2 DUP7 DUP1 EXTCODESIZE ISZERO DUP1 ISZERO PUSH2 0x1BFE JUMPI PUSH1 0x0 DUP1 REVERT JUMPDEST POP GAS STATICCALL SWAP3 POP POP POP DUP1 ISZERO PUSH2 0x1C4C JUMPI POP PUSH1 0x40 DUP1 MLOAD PUSH1 0x1F RETURNDATASIZE SWAP1 DUP2 ADD PUSH32 0xFFFFFFFFFFFFFFFFFFFFFFFFFFFFFFFFFFFFFFFFFFFFFFFFFFFFFFFFFFFFFFE0 AND DUP3 ADD SWAP1 SWAP3 MSTORE PUSH2 0x1C49 SWAP2 DUP2 ADD SWAP1 PUSH2 0x4B3A JUMP JUMPDEST PUSH1 0x1 JUMPDEST PUSH2 0x1C55 JUMPI PUSH2 0x1CCD JUMP JUMPDEST DUP3 DUP8 DUP6 DUP2 MLOAD DUP2 LT PUSH2 0x1C62 JUMPI INVALID JUMPDEST PUSH1 0x20 MUL PUSH1 0x20 ADD ADD DUP2 SWAP1 MSTORE POP DUP2 DUP7 DUP6 DUP2 MLOAD DUP2 LT PUSH2 0x1C7A JUMPI INVALID JUMPDEST PUSH1 0x20 MUL PUSH1 0x20 ADD ADD SWAP1 PUSH16 0xFFFFFFFFFFFFFFFFFFFFFFFFFFFFFFFF AND SWAP1 DUP2 PUSH16 0xFFFFFFFFFFFFFFFFFFFFFFFFFFFFFFFF AND DUP2 MSTORE POP POP DUP1 DUP6 DUP6 DUP2 MLOAD DUP2 LT PUSH2 0x1CB9 JUMPI INVALID JUMPDEST SWAP2 ISZERO ISZERO PUSH1 0x20 SWAP3 DUP4 MUL SWAP2 SWAP1 SWAP2 ADD SWAP1 SWAP2 ADD MSTORE POP POP POP JUMPDEST PUSH1 0x1 ADD PUSH2 0x1B96 JUMP JUMPDEST PUSH2 0xAEA CALLER DUP5 DUP5 DUP5 PUSH2 0x315F JUMP JUMPDEST PUSH32 0x0 DUP2 JUMP JUMPDEST PUSH1 0x0 PUSH2 0x710 PUSH2 0x70B DUP4 PUSH2 0x3421 JUMP JUMPDEST PUSH1 0x0 PUSH2 0x1D1D PUSH2 0x246C JUMP JUMPDEST CALLER PUSH1 0x0 DUP2 DUP2 MSTORE PUSH1 0x4 DUP4 ADD PUSH1 0x20 SWAP1 DUP2 MSTORE PUSH1 0x40 DUP1 DUP4 KECCAK256 PUSH20 0xFFFFFFFFFFFFFFFFFFFFFFFFFFFFFFFFFFFFFFFF DUP10 AND DUP5 MSTORE SWAP1 SWAP2 MSTORE SWAP1 DUP2 SWAP1 KECCAK256 DUP1 SLOAD PUSH32 0xFFFFFFFFFFFFFFFFFFFFFFFFFFFFFFFFFFFFFFFFFFFFFFFFFFFFFFFFFFFFFF00 AND DUP7 ISZERO ISZERO OR SWAP1 SSTORE MLOAD SWAP2 SWAP3 POP PUSH32 0x6EA9DBE8B2CC119348716A9220A0742AD62B7884ECB0FF4B32CD508121FD9379 SWAP2 PUSH2 0x1A46 SWAP2 SWAP1 DUP7 SWAP1 DUP7 SWAP1 PUSH2 0x4EE4 JUMP JUMPDEST PUSH1 0x0 DUP1 PUSH2 0x1DBA PUSH2 0x4109 JUMP JUMPDEST PUSH2 0x1E27 PUSH1 0x40 MLOAD DUP1 PUSH1 0xA0 ADD PUSH1 0x40 MSTORE DUP1 DUP9 DUP2 MSTORE PUSH1 0x20 ADD DUP8 DUP2 MSTORE PUSH1 0x20 ADD DUP7 PUSH16 0xFFFFFFFFFFFFFFFFFFFFFFFFFFFFFFFF AND DUP2 MSTORE PUSH1 0x20 ADD CALLER PUSH20 0xFFFFFFFFFFFFFFFFFFFFFFFFFFFFFFFFFFFFFFFF AND DUP2 MSTORE PUSH1 0x20 ADD CALLER PUSH20 0xFFFFFFFFFFFFFFFFFFFFFFFFFFFFFFFFFFFFFFFF AND DUP2 MSTORE POP PUSH2 0x287A JUMP JUMPDEST SWAP1 POP PUSH2 0x1E36 DUP2 PUSH1 0x0 ADD MLOAD PUSH2 0x32C3 JUMP JUMPDEST PUSH1 0x20 DUP2 ADD MLOAD PUSH1 0x40 SWAP1 SWAP2 ADD MLOAD SWAP1 SWAP7 SWAP1 SWAP6 POP SWAP4 POP POP POP POP JUMP JUMPDEST PUSH1 0x0 JUMPDEST DUP2 MLOAD DUP2 LT ISZERO PUSH2 0xD92 JUMPI PUSH2 0x1E75 DUP3 DUP3 DUP2 MLOAD DUP2 LT PUSH2 0x1E68 JUMPI INVALID JUMPDEST PUSH1 0x20 MUL PUSH1 0x20 ADD ADD MLOAD PUSH2 0x1F04 JUMP JUMPDEST PUSH1 0x1 ADD PUSH2 0x1E50 JUMP JUMPDEST DUP2 MLOAD DUP4 MLOAD EQ DUP1 ISZERO PUSH2 0x1E8F JUMPI POP DUP1 MLOAD DUP4 MLOAD EQ JUMPDEST PUSH2 0x1EC5 JUMPI PUSH1 0x40 MLOAD PUSH32 0x8C379A000000000000000000000000000000000000000000000000000000000 DUP2 MSTORE PUSH1 0x4 ADD PUSH2 0x784 SWAP1 PUSH2 0x541C JUMP JUMPDEST PUSH2 0x1ECF DUP5 CALLER PUSH2 0xCC7 JUMP JUMPDEST PUSH2 0x1EE0 JUMPI PUSH2 0x1EE0 PUSH2 0xB05 DUP6 CALLER PUSH2 0x3366 JUMP JUMPDEST PUSH1 0x0 JUMPDEST DUP4 MLOAD DUP2 LT ISZERO PUSH2 0x158D JUMPI PUSH2 0x1EFC DUP6 DUP6 DUP4 DUP2 MLOAD DUP2 LT PUSH2 0x7A9 JUMPI INVALID JUMPDEST PUSH1 0x1 ADD PUSH2 0x1EE3 JUMP JUMPDEST PUSH1 0x0 PUSH2 0x1F0F DUP3 PUSH2 0x6FD JUMP JUMPDEST SWAP1 POP DUP2 PUSH1 0x80 ADD MLOAD PUSH20 0xFFFFFFFFFFFFFFFFFFFFFFFFFFFFFFFFFFFFFFFF AND CALLER PUSH20 0xFFFFFFFFFFFFFFFFFFFFFFFFFFFFFFFFFFFFFFFF AND EQ ISZERO DUP1 ISZERO PUSH2 0x1F5C JUMPI POP PUSH2 0x1F5A DUP3 PUSH1 0x80 ADD MLOAD CALLER PUSH2 0xCC7 JUMP JUMPDEST ISZERO JUMPDEST ISZERO PUSH2 0x1F73 JUMPI PUSH2 0x1F73 PUSH2 0xB05 DUP3 CALLER DUP6 PUSH1 0x80 ADD MLOAD PUSH2 0x30B4 JUMP JUMPDEST PUSH2 0xD92 DUP2 DUP4 PUSH1 0x80 ADD MLOAD PUSH2 0x30EC JUMP JUMPDEST PUSH1 0x0 PUSH1 0x40 MLOAD PUSH32 0xE593D3FDFA8B60E5E17A1B2204662ECBE15C23F2084B9AD5BAE40359540A7DA9 DUP2 MSTORE DUP3 MLOAD PUSH20 0xFFFFFFFFFFFFFFFFFFFFFFFFFFFFFFFFFFFFFFFF AND PUSH1 0x20 DUP3 ADD MSTORE PUSH1 0x20 DUP4 ADD MLOAD PUSH20 0xFFFFFFFFFFFFFFFFFFFFFFFFFFFFFFFFFFFFFFFF AND PUSH1 0x40 DUP3 ADD MSTORE PUSH1 0x40 DUP4 ADD MLOAD PUSH16 0xFFFFFFFFFFFFFFFFFFFFFFFFFFFFFFFF AND PUSH1 0x60 DUP3 ADD MSTORE PUSH1 0x60 DUP4 ADD MLOAD PUSH16 0xFFFFFFFFFFFFFFFFFFFFFFFFFFFFFFFF AND PUSH1 0x80 DUP3 ADD MSTORE PUSH1 0x80 DUP4 ADD MLOAD PUSH20 0xFFFFFFFFFFFFFFFFFFFFFFFFFFFFFFFFFFFFFFFF AND PUSH1 0xA0 DUP3 ADD MSTORE PUSH1 0xA0 DUP4 ADD MLOAD PUSH20 0xFFFFFFFFFFFFFFFFFFFFFFFFFFFFFFFFFFFFFFFF AND PUSH1 0xC0 DUP3 ADD MSTORE PUSH1 0xC0 DUP4 ADD MLOAD PUSH20 0xFFFFFFFFFFFFFFFFFFFFFFFFFFFFFFFFFFFFFFFF AND PUSH1 0xE0 DUP3 ADD MSTORE PUSH1 0xE0 DUP4 ADD MLOAD PUSH2 0x100 DUP3 ADD MSTORE PUSH2 0x100 DUP4 ADD MLOAD PUSH8 0xFFFFFFFFFFFFFFFF AND PUSH2 0x120 DUP3 ADD MSTORE PUSH2 0x120 DUP4 ADD MLOAD PUSH2 0x140 DUP3 ADD MSTORE PUSH2 0x160 DUP2 KECCAK256 SWAP2 POP POP SWAP2 SWAP1 POP JUMP JUMPDEST PUSH1 0x0 PUSH32 0x0 DUP3 PUSH1 0x40 MLOAD PUSH1 0x20 ADD PUSH2 0x20ED SWAP3 SWAP2 SWAP1 PUSH2 0x4E59 JUMP JUMPDEST PUSH1 0x40 MLOAD PUSH1 0x20 DUP2 DUP4 SUB SUB DUP2 MSTORE SWAP1 PUSH1 0x40 MSTORE DUP1 MLOAD SWAP1 PUSH1 0x20 ADD KECCAK256 SWAP1 POP SWAP2 SWAP1 POP JUMP JUMPDEST PUSH1 0x0 PUSH2 0x2114 PUSH2 0x246C JUMP JUMPDEST PUSH20 0xFFFFFFFFFFFFFFFFFFFFFFFFFFFFFFFFFFFFFFFF DUP1 DUP8 AND PUSH1 0x0 SWAP1 DUP2 MSTORE PUSH1 0x2 DUP4 ADD PUSH1 0x20 SWAP1 DUP2 MSTORE PUSH1 0x40 DUP1 DUP4 KECCAK256 DUP10 DUP6 AND DUP5 MSTORE DUP3 MSTORE DUP1 DUP4 KECCAK256 SWAP4 DUP9 AND DUP4 MSTORE SWAP3 SWAP1 MSTORE KECCAK256 SLOAD SWAP1 SWAP2 POP DUP3 DUP2 GT ISZERO PUSH2 0x216B JUMPI PUSH2 0x216B PUSH2 0xB05 DUP5 DUP4 PUSH2 0x3598 JUMP JUMPDEST PUSH20 0xFFFFFFFFFFFFFFFFFFFFFFFFFFFFFFFFFFFFFFFF DUP1 DUP8 AND PUSH1 0x0 SWAP1 DUP2 MSTORE PUSH1 0x2 DUP5 ADD PUSH1 0x20 SWAP1 DUP2 MSTORE PUSH1 0x40 DUP1 DUP4 KECCAK256 DUP10 DUP6 AND DUP5 MSTORE DUP3 MSTORE DUP1 DUP4 KECCAK256 SWAP4 DUP9 AND DUP4 MSTORE SWAP3 SWAP1 MSTORE DUP2 SWAP1 KECCAK256 DUP5 SWAP1 SSTORE MLOAD PUSH32 0xFE7FFB1EDFE79F4DF716CB2DCAD21CF2F31B104D816A7976BA1E6E4653C1EFB1 SWAP1 PUSH2 0x21E2 SWAP1 DUP9 SWAP1 DUP9 SWAP1 DUP9 SWAP1 DUP9 SWAP1 PUSH2 0x4FAE JUMP JUMPDEST PUSH1 0x40 MLOAD DUP1 SWAP2 SUB SWAP1 LOG1 POP POP POP POP POP POP JUMP JUMPDEST PUSH1 0x0 DUP2 PUSH1 0x40 ADD MLOAD PUSH16 0xFFFFFFFFFFFFFFFFFFFFFFFFFFFFFFFF AND PUSH1 0x0 EQ DUP1 PUSH2 0x222D JUMPI POP PUSH1 0x60 DUP3 ADD MLOAD PUSH16 0xFFFFFFFFFFFFFFFFFFFFFFFFFFFFFFFF AND ISZERO JUMPDEST ISZERO PUSH2 0x223A JUMPI POP PUSH1 0x0 PUSH2 0x713 JUMP JUMPDEST PUSH1 0x1 DUP3 PUSH1 0x80 ADD MLOAD PUSH1 0x20 ADD MLOAD PUSH1 0x4 DUP2 GT ISZERO PUSH2 0x2250 JUMPI INVALID JUMPDEST EQ PUSH2 0x225D JUMPI POP PUSH1 0x0 PUSH2 0x713 JUMP JUMPDEST PUSH1 0x0 PUSH2 0x22B6 DUP4 PUSH1 0x80 ADD MLOAD PUSH1 0x40 ADD MLOAD DUP5 PUSH1 0x60 ADD MLOAD SUB PUSH16 0xFFFFFFFFFFFFFFFFFFFFFFFFFFFFFFFF AND DUP5 PUSH1 0x60 ADD MLOAD PUSH16 0xFFFFFFFFFFFFFFFFFFFFFFFFFFFFFFFF AND DUP6 PUSH1 0x40 ADD MLOAD PUSH16 0xFFFFFFFFFFFFFFFFFFFFFFFFFFFFFFFF AND PUSH2 0x35CE JUMP JUMPDEST SWAP1 POP PUSH2 0x22D3 DUP2 PUSH2 0x22CE DUP6 PUSH1 0x20 ADD MLOAD DUP7 PUSH1 0x0 ADD MLOAD PUSH2 0x35EC JUMP JUMPDEST PUSH2 0x371E JUMP JUMPDEST SWAP1 POP PUSH2 0x2314 PUSH2 0x230F DUP3 DUP6 PUSH1 0x40 ADD MLOAD PUSH16 0xFFFFFFFFFFFFFFFFFFFFFFFFFFFFFFFF AND DUP7 PUSH1 0x60 ADD MLOAD PUSH16 0xFFFFFFFFFFFFFFFFFFFFFFFFFFFFFFFF AND PUSH2 0x3734 JUMP JUMPDEST PUSH2 0x3758 JUMP JUMPDEST SWAP4 SWAP3 POP POP POP JUMP JUMPDEST PUSH1 0x0 PUSH2 0x2327 DUP4 DUP4 PUSH2 0x3784 JUMP JUMPDEST PUSH1 0x2 DUP3 MLOAD PUSH1 0x3 DUP2 GT ISZERO PUSH2 0x2336 JUMPI INVALID JUMPDEST EQ ISZERO PUSH2 0x239E JUMPI PUSH1 0x1 DUP4 DUP4 PUSH1 0x20 ADD MLOAD DUP5 PUSH1 0x40 ADD MLOAD DUP6 PUSH1 0x60 ADD MLOAD PUSH1 0x40 MLOAD PUSH1 0x0 DUP2 MSTORE PUSH1 0x20 ADD PUSH1 0x40 MSTORE PUSH1 0x40 MLOAD PUSH2 0x236B SWAP5 SWAP4 SWAP3 SWAP2 SWAP1 PUSH2 0x5218 JUMP JUMPDEST PUSH1 0x20 PUSH1 0x40 MLOAD PUSH1 0x20 DUP2 SUB SWAP1 DUP1 DUP5 SUB SWAP1 DUP6 GAS STATICCALL ISZERO DUP1 ISZERO PUSH2 0x238D JUMPI RETURNDATASIZE PUSH1 0x0 DUP1 RETURNDATACOPY RETURNDATASIZE PUSH1 0x0 REVERT JUMPDEST POP POP POP PUSH1 0x20 PUSH1 0x40 MLOAD SUB MLOAD SWAP1 POP PUSH2 0x2443 JUMP JUMPDEST PUSH1 0x3 DUP3 MLOAD PUSH1 0x3 DUP2 GT ISZERO PUSH2 0x23AD JUMPI INVALID JUMPDEST EQ ISZERO PUSH2 0x2443 JUMPI PUSH1 0x0 PUSH32 0x19457468657265756D205369676E6564204D6573736167653A0A333200000000 PUSH1 0x0 MSTORE DUP4 PUSH1 0x1C MSTORE PUSH1 0x3C PUSH1 0x0 KECCAK256 SWAP1 POP PUSH1 0x1 DUP2 DUP5 PUSH1 0x20 ADD MLOAD DUP6 PUSH1 0x40 ADD MLOAD DUP7 PUSH1 0x60 ADD MLOAD PUSH1 0x40 MLOAD PUSH1 0x0 DUP2 MSTORE PUSH1 0x20 ADD PUSH1 0x40 MSTORE PUSH1 0x40 MLOAD PUSH2 0x2413 SWAP5 SWAP4 SWAP3 SWAP2 SWAP1 PUSH2 0x5218 JUMP JUMPDEST PUSH1 0x20 PUSH1 0x40 MLOAD PUSH1 0x20 DUP2 SUB SWAP1 DUP1 DUP5 SUB SWAP1 DUP6 GAS STATICCALL ISZERO DUP1 ISZERO PUSH2 0x2435 JUMPI RETURNDATASIZE PUSH1 0x0 DUP1 RETURNDATACOPY RETURNDATASIZE PUSH1 0x0 REVERT JUMPDEST POP POP POP PUSH1 0x20 PUSH1 0x40 MLOAD SUB MLOAD SWAP2 POP POP JUMPDEST PUSH20 0xFFFFFFFFFFFFFFFFFFFFFFFFFFFFFFFFFFFFFFFF DUP2 AND PUSH2 0xD0F JUMPI PUSH2 0xD0F PUSH2 0xB05 PUSH1 0x5 DUP6 PUSH2 0x3830 JUMP JUMPDEST PUSH1 0x0 DUP1 PUSH2 0xD0F PUSH1 0x7 PUSH2 0x3866 JUMP JUMPDEST PUSH1 0x0 PUSH2 0x2483 PUSH2 0x246C JUMP JUMPDEST DUP7 MLOAD PUSH1 0x0 SWAP1 DUP2 MSTORE PUSH1 0x20 DUP3 SWAP1 MSTORE PUSH1 0x40 SWAP1 DUP2 SWAP1 KECCAK256 SLOAD PUSH16 0xFFFFFFFFFFFFFFFFFFFFFFFFFFFFFFFF DUP1 DUP3 AND SWAP3 DUP11 ADD DUP4 SWAP1 MSTORE SWAP3 SWAP4 POP SWAP2 DUP8 AND GT PUSH2 0x24DA JUMPI PUSH1 0x20 DUP8 ADD PUSH1 0x2 JUMPDEST SWAP1 DUP2 PUSH1 0x4 DUP2 GT ISZERO PUSH2 0x24CF JUMPI INVALID JUMPDEST DUP2 MSTORE POP POP POP POP PUSH2 0x158D JUMP JUMPDEST PUSH32 0x8000000000000000000000000000000000000000000000000000000000000000 DUP2 AND ISZERO PUSH2 0x250D JUMPI PUSH1 0x20 DUP8 ADD PUSH1 0x3 PUSH2 0x24C2 JUMP JUMPDEST POP TIMESTAMP PUSH8 0xFFFFFFFFFFFFFFFF AND DUP5 PUSH8 0xFFFFFFFFFFFFFFFF AND GT PUSH2 0x2547 JUMPI PUSH1 0x20 DUP7 ADD PUSH1 0x4 JUMPDEST SWAP1 DUP2 PUSH1 0x4 DUP2 GT ISZERO PUSH2 0x253D JUMPI INVALID JUMPDEST DUP2 MSTORE POP POP POP PUSH2 0x158D JUMP JUMPDEST DUP3 DUP3 GT ISZERO PUSH2 0x255A JUMPI PUSH1 0x20 DUP7 ADD PUSH1 0x3 PUSH2 0x2530 JUMP JUMPDEST PUSH1 0x1 PUSH1 0x20 DUP8 ADD DUP2 SWAP1 MSTORE POP POP POP POP POP POP POP JUMP JUMPDEST PUSH1 0x40 MLOAD PUSH32 0x319BED9A00000000000000000000000000000000000000000000000000000000 DUP2 MSTORE PUSH1 0x0 SWAP1 PUSH20 0xFFFFFFFFFFFFFFFFFFFFFFFFFFFFFFFFFFFFFFFF PUSH32 0x0 AND SWAP1 PUSH4 0x319BED9A SWAP1 PUSH2 0x25E1 SWAP1 DUP6 SWAP1 PUSH1 0x4 ADD PUSH2 0x50B4 JUMP JUMPDEST PUSH1 0x20 PUSH1 0x40 MLOAD DUP1 DUP4 SUB DUP2 PUSH1 0x0 DUP8 DUP1 EXTCODESIZE ISZERO DUP1 ISZERO PUSH2 0x25FB JUMPI PUSH1 0x0 DUP1 REVERT JUMPDEST POP GAS CALL ISZERO DUP1 ISZERO PUSH2 0x260F JUMPI RETURNDATASIZE PUSH1 0x0 DUP1 RETURNDATACOPY RETURNDATASIZE PUSH1 0x0 REVERT JUMPDEST POP POP POP POP PUSH1 0x40 MLOAD RETURNDATASIZE PUSH1 0x1F NOT PUSH1 0x1F DUP3 ADD AND DUP3 ADD DUP1 PUSH1 0x40 MSTORE POP DUP2 ADD SWAP1 PUSH2 0x2633 SWAP2 SWAP1 PUSH2 0x49A6 JUMP JUMPDEST SWAP1 POP PUSH1 0x0 PUSH32 0x0 PUSH20 0xFFFFFFFFFFFFFFFFFFFFFFFFFFFFFFFFFFFFFFFF AND PUSH4 0x70A08231 DUP4 PUSH1 0x40 MLOAD DUP3 PUSH4 0xFFFFFFFF AND PUSH1 0xE0 SHL DUP2 MSTORE PUSH1 0x4 ADD PUSH2 0x2690 SWAP2 SWAP1 PUSH2 0x4E92 JUMP JUMPDEST PUSH1 0x20 PUSH1 0x40 MLOAD DUP1 DUP4 SUB DUP2 DUP7 DUP1 EXTCODESIZE ISZERO DUP1 ISZERO PUSH2 0x26A8 JUMPI PUSH1 0x0 DUP1 REVERT JUMPDEST POP GAS STATICCALL ISZERO DUP1 ISZERO PUSH2 0x26BC JUMPI RETURNDATASIZE PUSH1 0x0 DUP1 RETURNDATACOPY RETURNDATASIZE PUSH1 0x0 REVERT JUMPDEST POP POP POP POP PUSH1 0x40 MLOAD RETURNDATASIZE PUSH1 0x1F NOT PUSH1 0x1F DUP3 ADD AND DUP3 ADD DUP1 PUSH1 0x40 MSTORE POP DUP2 ADD SWAP1 PUSH2 0x26E0 SWAP2 SWAP1 PUSH2 0x4CE8 JUMP JUMPDEST SWAP1 POP PUSH1 0x1 DUP2 GT ISZERO PUSH2 0xAEA JUMPI PUSH1 0x40 MLOAD PUSH32 0xA3B4A32700000000000000000000000000000000000000000000000000000000 DUP2 MSTORE PUSH20 0xFFFFFFFFFFFFFFFFFFFFFFFFFFFFFFFFFFFFFFFF PUSH32 0x0 AND SWAP1 PUSH4 0xA3B4A327 SWAP1 PUSH2 0x2783 SWAP1 DUP6 SWAP1 DUP2 SWAP1 PUSH32 0xFFFFFFFFFFFFFFFFFFFFFFFFFFFFFFFFFFFFFFFFFFFFFFFFFFFFFFFFFFFFFFFF DUP8 ADD SWAP1 PUSH1 0x4 ADD PUSH2 0x4EB3 JUMP JUMPDEST PUSH1 0x0 PUSH1 0x40 MLOAD DUP1 DUP4 SUB DUP2 PUSH1 0x0 DUP8 DUP1 EXTCODESIZE ISZERO DUP1 ISZERO PUSH2 0x279D JUMPI PUSH1 0x0 DUP1 REVERT JUMPDEST POP GAS CALL ISZERO DUP1 ISZERO PUSH2 0x27B1 JUMPI RETURNDATASIZE PUSH1 0x0 DUP1 RETURNDATACOPY RETURNDATASIZE PUSH1 0x0 REVERT JUMPDEST POP POP POP POP POP POP POP JUMP JUMPDEST PUSH1 0x60 PUSH32 0xF0EC779B0BCDA6D84ABF99EE2C67647D1100EBBB553A9C2D1C2BA1579592832C DUP3 PUSH1 0x40 MLOAD PUSH1 0x24 ADD PUSH2 0x27EE SWAP2 SWAP1 PUSH2 0x4E92 JUMP JUMPDEST PUSH1 0x40 DUP1 MLOAD PUSH32 0xFFFFFFFFFFFFFFFFFFFFFFFFFFFFFFFFFFFFFFFFFFFFFFFFFFFFFFFFFFFFFFE0 DUP2 DUP5 SUB ADD DUP2 MSTORE SWAP2 SWAP1 MSTORE PUSH1 0x20 DUP2 ADD DUP1 MLOAD PUSH28 0xFFFFFFFFFFFFFFFFFFFFFFFFFFFFFFFFFFFFFFFFFFFFFFFFFFFFFFFF AND PUSH32 0xFFFFFFFF00000000000000000000000000000000000000000000000000000000 SWAP1 SWAP4 AND SWAP3 SWAP1 SWAP3 OR SWAP1 SWAP2 MSTORE SWAP1 POP SWAP2 SWAP1 POP JUMP JUMPDEST DUP1 MLOAD PUSH1 0x20 DUP3 ADD REVERT JUMPDEST PUSH2 0x2882 PUSH2 0x4109 JUMP JUMPDEST PUSH2 0x288A PUSH2 0x40E7 JUMP JUMPDEST DUP3 MLOAD PUSH2 0x2895 SWAP1 PUSH2 0x143F JUMP JUMPDEST SWAP1 POP PUSH1 0x1 DUP2 PUSH1 0x20 ADD MLOAD PUSH1 0x4 DUP2 GT ISZERO PUSH2 0x28A9 JUMPI INVALID JUMPDEST EQ PUSH2 0x28CE JUMPI PUSH2 0x28CE PUSH2 0xB05 DUP3 PUSH1 0x0 ADD MLOAD DUP4 PUSH1 0x20 ADD MLOAD PUSH1 0x4 DUP2 GT ISZERO PUSH2 0x28C9 JUMPI INVALID JUMPDEST PUSH2 0x3881 JUMP JUMPDEST DUP3 MLOAD PUSH1 0xC0 ADD MLOAD PUSH20 0xFFFFFFFFFFFFFFFFFFFFFFFFFFFFFFFFFFFFFFFF AND ISZERO DUP1 ISZERO SWAP1 PUSH2 0x2930 JUMPI POP DUP3 PUSH1 0x60 ADD MLOAD PUSH20 0xFFFFFFFFFFFFFFFFFFFFFFFFFFFFFFFFFFFFFFFF AND DUP4 PUSH1 0x0 ADD MLOAD PUSH1 0xC0 ADD MLOAD PUSH20 0xFFFFFFFFFFFFFFFFFFFFFFFFFFFFFFFFFFFFFFFF AND EQ ISZERO JUMPDEST ISZERO PUSH2 0x2953 JUMPI PUSH2 0x2953 PUSH2 0xB05 DUP3 PUSH1 0x0 ADD MLOAD DUP6 PUSH1 0x60 ADD MLOAD DUP7 PUSH1 0x0 ADD MLOAD PUSH1 0xC0 ADD MLOAD PUSH2 0x38B7 JUMP JUMPDEST DUP3 MLOAD PUSH1 0xE0 ADD MLOAD PUSH20 0xFFFFFFFFFFFFFFFFFFFFFFFFFFFFFFFFFFFFFFFF AND ISZERO DUP1 ISZERO SWAP1 PUSH2 0x29B5 JUMPI POP DUP3 PUSH1 0x80 ADD MLOAD PUSH20 0xFFFFFFFFFFFFFFFFFFFFFFFFFFFFFFFFFFFFFFFF AND DUP4 PUSH1 0x0 ADD MLOAD PUSH1 0xE0 ADD MLOAD PUSH20 0xFFFFFFFFFFFFFFFFFFFFFFFFFFFFFFFFFFFFFFFF AND EQ ISZERO JUMPDEST ISZERO PUSH2 0x29D8 JUMPI PUSH2 0x29D8 PUSH2 0xB05 DUP3 PUSH1 0x0 ADD MLOAD DUP6 PUSH1 0x80 ADD MLOAD DUP7 PUSH1 0x0 ADD MLOAD PUSH1 0xE0 ADD MLOAD PUSH2 0x38EF JUMP JUMPDEST PUSH1 0x0 PUSH2 0x29EC DUP3 PUSH1 0x0 ADD MLOAD DUP6 PUSH1 0x20 ADD MLOAD PUSH2 0x231B JUMP JUMPDEST SWAP1 POP DUP4 PUSH1 0x0 ADD MLOAD PUSH1 0xA0 ADD MLOAD PUSH20 0xFFFFFFFFFFFFFFFFFFFFFFFFFFFFFFFFFFFFFFFF AND DUP2 PUSH20 0xFFFFFFFFFFFFFFFFFFFFFFFFFFFFFFFFFFFFFFFF AND EQ ISZERO DUP1 ISZERO PUSH2 0x2A3F JUMPI POP DUP4 MLOAD PUSH1 0xA0 ADD MLOAD PUSH2 0x2A3D SWAP1 DUP3 PUSH2 0xCC7 JUMP JUMPDEST ISZERO JUMPDEST ISZERO PUSH2 0x2A5B JUMPI DUP2 MLOAD DUP5 MLOAD PUSH1 0xA0 ADD MLOAD PUSH2 0x2A5B SWAP2 PUSH2 0xB05 SWAP2 DUP5 SWAP1 PUSH2 0x3927 JUMP JUMPDEST POP DUP3 MLOAD PUSH2 0x120 ADD MLOAD PUSH2 0x2A6C SWAP1 PUSH2 0x395F JUMP JUMPDEST DUP3 MSTORE PUSH1 0x40 DUP1 MLOAD PUSH2 0x140 DUP2 ADD DUP3 MSTORE DUP3 MLOAD DUP2 MSTORE DUP5 MLOAD PUSH1 0xA0 SWAP1 DUP2 ADD MLOAD PUSH20 0xFFFFFFFFFFFFFFFFFFFFFFFFFFFFFFFFFFFFFFFF SWAP1 DUP2 AND PUSH1 0x20 DUP1 DUP6 ADD SWAP2 SWAP1 SWAP2 MSTORE PUSH1 0x60 DUP1 DUP10 ADD DUP1 MLOAD DUP5 AND DUP7 DUP9 ADD MSTORE MLOAD DUP4 AND DUP2 DUP7 ADD MSTORE DUP9 MLOAD MLOAD DUP4 AND PUSH1 0x80 DUP7 ADD MSTORE DUP9 MLOAD SWAP1 SWAP2 ADD MLOAD SWAP1 SWAP2 AND SWAP2 DUP4 ADD SWAP2 SWAP1 SWAP2 MSTORE DUP6 MLOAD DUP4 ADD MLOAD PUSH16 0xFFFFFFFFFFFFFFFFFFFFFFFFFFFFFFFF SWAP1 DUP2 AND PUSH1 0xC0 DUP5 ADD MSTORE DUP7 MLOAD SWAP1 SWAP2 ADD MLOAD DUP2 AND PUSH1 0xE0 DUP4 ADD MSTORE DUP6 DUP4 ADD MLOAD DUP2 AND PUSH2 0x100 DUP4 ADD MSTORE SWAP2 DUP4 ADD MLOAD SWAP1 SWAP2 AND PUSH2 0x120 DUP3 ADD MSTORE PUSH2 0x2B21 SWAP1 PUSH2 0x3A34 JUMP JUMPDEST PUSH16 0xFFFFFFFFFFFFFFFFFFFFFFFFFFFFFFFF SWAP1 DUP2 AND PUSH1 0x40 DUP6 ADD MSTORE SWAP1 DUP2 AND PUSH1 0x20 DUP5 ADD MSTORE DUP4 MLOAD PUSH1 0x80 ADD MLOAD AND ISZERO PUSH2 0x2BD8 JUMPI PUSH2 0x2BA3 DUP3 PUSH1 0x20 ADD MLOAD PUSH16 0xFFFFFFFFFFFFFFFFFFFFFFFFFFFFFFFF AND DUP5 PUSH1 0x0 ADD MLOAD PUSH1 0x60 ADD MLOAD PUSH16 0xFFFFFFFFFFFFFFFFFFFFFFFFFFFFFFFF AND DUP6 PUSH1 0x0 ADD MLOAD PUSH1 0x80 ADD MLOAD PUSH16 0xFFFFFFFFFFFFFFFFFFFFFFFFFFFFFFFF AND PUSH2 0x35CE JUMP JUMPDEST PUSH16 0xFFFFFFFFFFFFFFFFFFFFFFFFFFFFFFFF AND PUSH1 0x60 DUP1 DUP5 ADD DUP3 SWAP1 MSTORE DUP5 MLOAD PUSH1 0x20 DUP2 ADD MLOAD SWAP2 DUP7 ADD MLOAD PUSH2 0x100 SWAP1 SWAP2 ADD MLOAD PUSH2 0x2BD8 SWAP4 PUSH2 0x3BF5 JUMP JUMPDEST DUP1 MLOAD DUP4 MLOAD PUSH1 0xA0 DUP2 ADD MLOAD PUSH1 0x60 DUP1 DUP8 ADD MLOAD PUSH2 0x100 DUP5 ADD MLOAD DUP5 MLOAD PUSH1 0x20 DUP1 DUP8 ADD MLOAD SWAP1 DUP11 ADD MLOAD PUSH1 0x40 DUP1 DUP13 ADD MLOAD SWAP7 DUP13 ADD MLOAD DUP13 MLOAD PUSH2 0x120 SWAP1 SWAP11 ADD MLOAD SWAP2 MLOAD PUSH32 0xAB614D2B738543C0EA21F56347CF696A3A0C42A7CBEC3212A5CA22A4DCFF2124 SWAP12 PUSH2 0x2C3F SWAP12 SWAP1 SWAP11 SWAP10 SWAP4 SWAP1 SWAP2 PUSH2 0x510D JUMP JUMPDEST PUSH1 0x40 MLOAD DUP1 SWAP2 SUB SWAP1 LOG1 POP SWAP2 SWAP1 POP JUMP JUMPDEST PUSH2 0x2C55 PUSH2 0x4109 JUMP JUMPDEST PUSH2 0x2C5D PUSH2 0x40E7 JUMP JUMPDEST DUP3 MLOAD PUSH2 0x2C68 SWAP1 PUSH2 0x904 JUMP JUMPDEST SWAP1 POP PUSH1 0x1 DUP2 PUSH1 0x20 ADD MLOAD PUSH1 0x4 DUP2 GT ISZERO PUSH2 0x2C7C JUMPI INVALID JUMPDEST EQ PUSH2 0x2C9C JUMPI PUSH2 0x2C9C PUSH2 0xB05 DUP3 PUSH1 0x0 ADD MLOAD DUP4 PUSH1 0x20 ADD MLOAD PUSH1 0x4 DUP2 GT ISZERO PUSH2 0x28C9 JUMPI INVALID JUMPDEST PUSH1 0x0 PUSH2 0x2CA6 PUSH2 0x246C JUMP JUMPDEST DUP5 MLOAD PUSH1 0xC0 ADD MLOAD SWAP1 SWAP2 POP PUSH20 0xFFFFFFFFFFFFFFFFFFFFFFFFFFFFFFFFFFFFFFFF AND ORIGIN EQ DUP1 ISZERO SWAP1 PUSH2 0x2D0C JUMPI POP DUP4 MLOAD PUSH1 0xC0 ADD MLOAD PUSH20 0xFFFFFFFFFFFFFFFFFFFFFFFFFFFFFFFFFFFFFFFF AND PUSH1 0x0 SWAP1 DUP2 MSTORE PUSH1 0x3 DUP3 ADD PUSH1 0x20 SWAP1 DUP2 MSTORE PUSH1 0x40 DUP1 DUP4 KECCAK256 ORIGIN DUP5 MSTORE SWAP1 SWAP2 MSTORE SWAP1 KECCAK256 SLOAD PUSH1 0xFF AND ISZERO JUMPDEST ISZERO PUSH2 0x2D28 JUMPI DUP2 MLOAD DUP5 MLOAD PUSH1 0xC0 ADD MLOAD PUSH2 0x2D28 SWAP2 PUSH2 0xB05 SWAP2 ORIGIN SWAP1 PUSH2 0x3CEB JUMP JUMPDEST POP DUP3 MLOAD PUSH1 0xA0 ADD MLOAD PUSH20 0xFFFFFFFFFFFFFFFFFFFFFFFFFFFFFFFFFFFFFFFF AND ISZERO DUP1 ISZERO SWAP1 PUSH2 0x2D8B JUMPI POP DUP3 PUSH1 0x60 ADD MLOAD PUSH20 0xFFFFFFFFFFFFFFFFFFFFFFFFFFFFFFFFFFFFFFFF AND DUP4 PUSH1 0x0 ADD MLOAD PUSH1 0xA0 ADD MLOAD PUSH20 0xFFFFFFFFFFFFFFFFFFFFFFFFFFFFFFFFFFFFFFFF AND EQ ISZERO JUMPDEST ISZERO PUSH2 0x2DAE JUMPI PUSH2 0x2DAE PUSH2 0xB05 DUP3 PUSH1 0x0 ADD MLOAD DUP6 PUSH1 0x60 ADD MLOAD DUP7 PUSH1 0x0 ADD MLOAD PUSH1 0xA0 ADD MLOAD PUSH2 0x38B7 JUMP JUMPDEST PUSH1 0x0 PUSH2 0x2DC2 DUP3 PUSH1 0x0 ADD MLOAD DUP6 PUSH1 0x20 ADD MLOAD PUSH2 0x231B JUMP JUMPDEST SWAP1 POP DUP4 PUSH1 0x0 ADD MLOAD PUSH1 0x80 ADD MLOAD PUSH20 0xFFFFFFFFFFFFFFFFFFFFFFFFFFFFFFFFFFFFFFFF AND DUP2 PUSH20 0xFFFFFFFFFFFFFFFFFFFFFFFFFFFFFFFFFFFFFFFF AND EQ ISZERO DUP1 ISZERO PUSH2 0x2E15 JUMPI POP DUP4 MLOAD PUSH1 0x80 ADD MLOAD PUSH2 0x2E13 SWAP1 DUP3 PUSH2 0xCC7 JUMP JUMPDEST ISZERO JUMPDEST ISZERO PUSH2 0x2E31 JUMPI DUP2 MLOAD DUP5 MLOAD PUSH1 0x80 ADD MLOAD PUSH2 0x2E31 SWAP2 PUSH2 0xB05 SWAP2 DUP5 SWAP1 PUSH2 0x3927 JUMP JUMPDEST POP PUSH1 0x40 DUP1 MLOAD PUSH2 0x140 DUP2 ADD DUP3 MSTORE DUP3 MLOAD DUP2 MSTORE DUP5 MLOAD PUSH1 0x80 SWAP1 DUP2 ADD MLOAD PUSH20 0xFFFFFFFFFFFFFFFFFFFFFFFFFFFFFFFFFFFFFFFF AND PUSH1 0x20 DUP4 ADD MSTORE DUP6 ADD MLOAD PUSH2 0x2F7C SWAP3 DUP3 ADD SWAP1 PUSH2 0x2E7C JUMPI DUP6 PUSH1 0x60 ADD MLOAD PUSH2 0x2E7E JUMP JUMPDEST ADDRESS JUMPDEST PUSH20 0xFFFFFFFFFFFFFFFFFFFFFFFFFFFFFFFFFFFFFFFF AND DUP2 MSTORE PUSH1 0x20 ADD DUP6 PUSH1 0xA0 ADD MLOAD PUSH20 0xFFFFFFFFFFFFFFFFFFFFFFFFFFFFFFFFFFFFFFFF AND DUP2 MSTORE PUSH1 0x20 ADD DUP6 PUSH1 0x0 ADD MLOAD PUSH1 0x0 ADD MLOAD PUSH20 0xFFFFFFFFFFFFFFFFFFFFFFFFFFFFFFFFFFFFFFFF AND DUP2 MSTORE PUSH1 0x20 ADD DUP6 PUSH1 0x0 ADD MLOAD PUSH1 0x20 ADD MLOAD PUSH20 0xFFFFFFFFFFFFFFFFFFFFFFFFFFFFFFFFFFFFFFFF AND DUP2 MSTORE PUSH1 0x20 ADD DUP6 PUSH1 0x0 ADD MLOAD PUSH1 0x40 ADD MLOAD PUSH16 0xFFFFFFFFFFFFFFFFFFFFFFFFFFFFFFFF AND DUP2 MSTORE PUSH1 0x20 ADD DUP6 PUSH1 0x0 ADD MLOAD PUSH1 0x60 ADD MLOAD PUSH16 0xFFFFFFFFFFFFFFFFFFFFFFFFFFFFFFFF AND DUP2 MSTORE PUSH1 0x20 ADD DUP6 PUSH1 0x40 ADD MLOAD PUSH16 0xFFFFFFFFFFFFFFFFFFFFFFFFFFFFFFFF AND DUP2 MSTORE PUSH1 0x20 ADD DUP4 PUSH1 0x40 ADD MLOAD PUSH16 0xFFFFFFFFFFFFFFFFFFFFFFFFFFFFFFFF AND DUP2 MSTORE POP PUSH2 0x3A34 JUMP JUMPDEST PUSH16 0xFFFFFFFFFFFFFFFFFFFFFFFFFFFFFFFF SWAP1 DUP2 AND PUSH1 0x40 DUP1 DUP7 ADD DUP3 SWAP1 MSTORE SWAP3 SWAP1 SWAP2 AND PUSH1 0x20 DUP1 DUP7 ADD DUP3 SWAP1 MSTORE DUP5 MLOAD DUP8 MLOAD PUSH1 0x80 DUP2 ADD MLOAD PUSH1 0x60 DUP11 ADD MLOAD DUP3 MLOAD SWAP5 DUP4 ADD MLOAD PUSH1 0xE0 SWAP1 SWAP4 ADD MLOAD SWAP8 MLOAD PUSH32 0x829FA99D94DC4636925B38632E625736A614C154D55006B7AB6BEA979C210C32 SWAP9 PUSH2 0x2C3F SWAP9 SWAP6 SWAP8 SWAP4 SWAP7 SWAP3 SWAP6 SWAP3 SWAP5 SWAP4 SWAP3 SWAP2 PUSH2 0x518D JUMP JUMPDEST PUSH1 0x60 PUSH32 0x21948612B5EF214EC0508DF4901600E07A810A371BE76B25D59ADE73826E3D97 DUP5 DUP5 DUP5 PUSH1 0x40 MLOAD PUSH1 0x24 ADD PUSH2 0x302E SWAP4 SWAP3 SWAP2 SWAP1 PUSH2 0x51F1 JUMP JUMPDEST PUSH1 0x40 DUP1 MLOAD PUSH32 0xFFFFFFFFFFFFFFFFFFFFFFFFFFFFFFFFFFFFFFFFFFFFFFFFFFFFFFFFFFFFFFE0 DUP2 DUP5 SUB ADD DUP2 MSTORE SWAP2 SWAP1 MSTORE PUSH1 0x20 DUP2 ADD DUP1 MLOAD PUSH28 0xFFFFFFFFFFFFFFFFFFFFFFFFFFFFFFFFFFFFFFFFFFFFFFFFFFFFFFFF AND PUSH32 0xFFFFFFFF00000000000000000000000000000000000000000000000000000000 SWAP1 SWAP4 AND SWAP3 SWAP1 SWAP3 OR SWAP1 SWAP2 MSTORE SWAP1 POP SWAP4 SWAP3 POP POP POP JUMP JUMPDEST PUSH1 0x60 PUSH32 0x88B2C08E4A5F57D416AD23DAD18C20497CCFE684B1379B28FD564ADAF582B80F DUP5 DUP5 DUP5 PUSH1 0x40 MLOAD PUSH1 0x24 ADD PUSH2 0x302E SWAP4 SWAP3 SWAP2 SWAP1 PUSH2 0x50E1 JUMP JUMPDEST PUSH1 0x0 PUSH2 0x30F6 PUSH2 0x246C JUMP JUMPDEST PUSH1 0x0 DUP5 DUP2 MSTORE PUSH1 0x20 DUP3 SWAP1 MSTORE PUSH1 0x40 SWAP1 DUP2 SWAP1 KECCAK256 DUP1 SLOAD PUSH32 0x8000000000000000000000000000000000000000000000000000000000000000 OR SWAP1 SSTORE MLOAD SWAP1 SWAP2 POP PUSH32 0xA6EB7CDC219E1518CED964E9A34E61D68A94E4F1569DB3E84256BA981BA52753 SWAP1 PUSH2 0x1A46 SWAP1 DUP6 SWAP1 DUP6 SWAP1 PUSH2 0x50BD JUMP JUMPDEST PUSH1 0x0 PUSH2 0x3169 PUSH2 0x246C JUMP JUMPDEST PUSH20 0xFFFFFFFFFFFFFFFFFFFFFFFFFFFFFFFFFFFFFFFF DUP1 DUP8 AND PUSH1 0x0 SWAP1 DUP2 MSTORE PUSH1 0x1 DUP4 ADD PUSH1 0x20 SWAP1 DUP2 MSTORE PUSH1 0x40 DUP1 DUP4 KECCAK256 DUP10 DUP6 AND DUP5 MSTORE DUP3 MSTORE DUP1 DUP4 KECCAK256 SWAP4 DUP9 AND DUP4 MSTORE SWAP3 SWAP1 MSTORE KECCAK256 SLOAD SWAP1 SWAP2 POP DUP3 DUP2 GT ISZERO PUSH2 0x31C0 JUMPI PUSH2 0x31C0 PUSH2 0xB05 DUP5 DUP4 PUSH2 0x3598 JUMP JUMPDEST PUSH20 0xFFFFFFFFFFFFFFFFFFFFFFFFFFFFFFFFFFFFFFFF DUP1 DUP8 AND PUSH1 0x0 SWAP1 DUP2 MSTORE PUSH1 0x1 DUP5 ADD PUSH1 0x20 SWAP1 DUP2 MSTORE PUSH1 0x40 DUP1 DUP4 KECCAK256 DUP10 DUP6 AND DUP5 MSTORE DUP3 MSTORE DUP1 DUP4 KECCAK256 SWAP4 DUP9 AND DUP4 MSTORE SWAP3 SWAP1 MSTORE DUP2 SWAP1 KECCAK256 DUP5 SWAP1 SSTORE MLOAD PUSH32 0xA91FE7AE62FCE669DF2C7F880F8C14D178531AAE72515558E5C948E37C32A572 SWAP1 PUSH2 0x21E2 SWAP1 DUP9 SWAP1 DUP9 SWAP1 DUP9 SWAP1 DUP9 SWAP1 PUSH2 0x4FAE JUMP JUMPDEST PUSH1 0x40 MLOAD PUSH32 0x6EB224CB00000000000000000000000000000000000000000000000000000000 DUP2 MSTORE ADDRESS SWAP1 PUSH4 0x6EB224CB SWAP1 PUSH2 0x3295 SWAP1 DUP5 SWAP1 PUSH32 0x0 SWAP1 PUSH1 0x4 ADD PUSH2 0x5263 JUMP JUMPDEST PUSH1 0x0 PUSH1 0x40 MLOAD DUP1 DUP4 SUB DUP2 PUSH1 0x0 DUP8 DUP1 EXTCODESIZE ISZERO DUP1 ISZERO PUSH2 0x32AF JUMPI PUSH1 0x0 DUP1 REVERT JUMPDEST POP GAS CALL ISZERO DUP1 ISZERO PUSH2 0x158D JUMPI RETURNDATASIZE PUSH1 0x0 DUP1 RETURNDATACOPY RETURNDATASIZE PUSH1 0x0 REVERT JUMPDEST DUP1 CALLVALUE GT DUP1 ISZERO PUSH2 0x32D2 JUMPI POP CALLER ADDRESS EQ ISZERO JUMPDEST ISZERO PUSH2 0x3363 JUMPI PUSH1 0x0 PUSH2 0x32E3 CALLVALUE DUP4 PUSH2 0x3D23 JUMP JUMPDEST SWAP1 POP PUSH1 0x0 CALLER PUSH20 0xFFFFFFFFFFFFFFFFFFFFFFFFFFFFFFFFFFFFFFFF AND DUP3 PUSH1 0x40 MLOAD PUSH2 0x330B SWAP1 PUSH2 0x4E8F JUMP JUMPDEST PUSH1 0x0 PUSH1 0x40 MLOAD DUP1 DUP4 SUB DUP2 DUP6 DUP8 GAS CALL SWAP3 POP POP POP RETURNDATASIZE DUP1 PUSH1 0x0 DUP2 EQ PUSH2 0x3348 JUMPI PUSH1 0x40 MLOAD SWAP2 POP PUSH1 0x1F NOT PUSH1 0x3F RETURNDATASIZE ADD AND DUP3 ADD PUSH1 0x40 MSTORE RETURNDATASIZE DUP3 MSTORE RETURNDATASIZE PUSH1 0x0 PUSH1 0x20 DUP5 ADD RETURNDATACOPY PUSH2 0x334D JUMP JUMPDEST PUSH1 0x60 SWAP2 POP JUMPDEST POP POP SWAP1 POP DUP1 PUSH2 0xAEA JUMPI PUSH2 0xAEA PUSH2 0xB05 CALLER DUP5 PUSH2 0x3D42 JUMP JUMPDEST POP JUMP JUMPDEST PUSH1 0x60 PUSH32 0x84356DB366796DC6E2AEB1AD74B631FE4E5EC6A650464DA6059E9F95C8810A10 DUP4 DUP4 PUSH1 0x40 MLOAD PUSH1 0x24 ADD PUSH2 0x339C SWAP3 SWAP2 SWAP1 PUSH2 0x4F87 JUMP JUMPDEST PUSH1 0x40 DUP1 MLOAD PUSH32 0xFFFFFFFFFFFFFFFFFFFFFFFFFFFFFFFFFFFFFFFFFFFFFFFFFFFFFFFFFFFFFFE0 DUP2 DUP5 SUB ADD DUP2 MSTORE SWAP2 SWAP1 MSTORE PUSH1 0x20 DUP2 ADD DUP1 MLOAD PUSH28 0xFFFFFFFFFFFFFFFFFFFFFFFFFFFFFFFFFFFFFFFFFFFFFFFFFFFFFFFF AND PUSH32 0xFFFFFFFF00000000000000000000000000000000000000000000000000000000 SWAP1 SWAP4 AND SWAP3 SWAP1 SWAP3 OR SWAP1 SWAP2 MSTORE SWAP1 POP SWAP3 SWAP2 POP POP JUMP JUMPDEST PUSH1 0x0 PUSH1 0x40 MLOAD PUSH32 0xCE918627CB55462DDBB85E73DE69A8B322F2BC88F4507C52FCAD6D4C33C29D49 DUP2 MSTORE DUP3 MLOAD PUSH20 0xFFFFFFFFFFFFFFFFFFFFFFFFFFFFFFFFFFFFFFFF AND PUSH1 0x20 DUP3 ADD MSTORE PUSH1 0x20 DUP4 ADD MLOAD PUSH20 0xFFFFFFFFFFFFFFFFFFFFFFFFFFFFFFFFFFFFFFFF AND PUSH1 0x40 DUP3 ADD MSTORE PUSH1 0x40 DUP4 ADD MLOAD PUSH16 0xFFFFFFFFFFFFFFFFFFFFFFFFFFFFFFFF AND PUSH1 0x60 DUP3 ADD MSTORE PUSH1 0x60 DUP4 ADD MLOAD PUSH16 0xFFFFFFFFFFFFFFFFFFFFFFFFFFFFFFFF AND PUSH1 0x80 DUP3 ADD MSTORE PUSH1 0x80 DUP4 ADD MLOAD PUSH16 0xFFFFFFFFFFFFFFFFFFFFFFFFFFFFFFFF AND PUSH1 0xA0 DUP3 ADD MSTORE PUSH1 0xA0 DUP4 ADD MLOAD PUSH20 0xFFFFFFFFFFFFFFFFFFFFFFFFFFFFFFFFFFFFFFFF AND PUSH1 0xC0 DUP3 ADD MSTORE PUSH1 0xC0 DUP4 ADD MLOAD PUSH20 0xFFFFFFFFFFFFFFFFFFFFFFFFFFFFFFFFFFFFFFFF AND PUSH1 0xE0 DUP3 ADD MSTORE PUSH1 0xE0 DUP4 ADD MLOAD PUSH20 0xFFFFFFFFFFFFFFFFFFFFFFFFFFFFFFFFFFFFFFFF AND PUSH2 0x100 DUP3 ADD MSTORE PUSH2 0x100 DUP4 ADD MLOAD PUSH20 0xFFFFFFFFFFFFFFFFFFFFFFFFFFFFFFFFFFFFFFFF AND PUSH2 0x120 DUP3 ADD MSTORE PUSH2 0x120 DUP4 ADD MLOAD PUSH2 0x140 DUP3 ADD MSTORE PUSH2 0x140 DUP4 ADD MLOAD PUSH8 0xFFFFFFFFFFFFFFFF AND PUSH2 0x160 DUP3 ADD MSTORE PUSH2 0x160 DUP4 ADD MLOAD PUSH2 0x180 DUP3 ADD MSTORE PUSH2 0x1A0 DUP2 KECCAK256 SWAP2 POP POP SWAP2 SWAP1 POP JUMP JUMPDEST PUSH1 0x60 PUSH32 0xB12BC7E7D341F4431D6FAF05F991EE3B779183E341B24243064E10C886CD1873 DUP4 DUP4 PUSH1 0x40 MLOAD PUSH1 0x24 ADD PUSH2 0x339C SWAP3 SWAP2 SWAP1 PUSH2 0x57E5 JUMP JUMPDEST PUSH1 0x0 PUSH2 0x35E4 DUP4 PUSH2 0x35DE DUP7 DUP6 PUSH2 0x3D78 JUMP JUMPDEST SWAP1 PUSH2 0x3DA9 JUMP JUMPDEST SWAP5 SWAP4 POP POP POP POP JUMP JUMPDEST PUSH1 0x0 PUSH2 0x2314 DUP4 PUSH20 0xFFFFFFFFFFFFFFFFFFFFFFFFFFFFFFFFFFFFFFFF AND PUSH4 0xDD62ED3E DUP5 ADDRESS PUSH1 0x40 MLOAD DUP4 PUSH4 0xFFFFFFFF AND PUSH1 0xE0 SHL DUP2 MSTORE PUSH1 0x4 ADD PUSH2 0x362C SWAP3 SWAP2 SWAP1 PUSH2 0x4F87 JUMP JUMPDEST PUSH1 0x20 PUSH1 0x40 MLOAD DUP1 DUP4 SUB DUP2 DUP7 DUP1 EXTCODESIZE ISZERO DUP1 ISZERO PUSH2 0x3644 JUMPI PUSH1 0x0 DUP1 REVERT JUMPDEST POP GAS STATICCALL ISZERO DUP1 ISZERO PUSH2 0x3658 JUMPI RETURNDATASIZE PUSH1 0x0 DUP1 RETURNDATACOPY RETURNDATASIZE PUSH1 0x0 REVERT JUMPDEST POP POP POP POP PUSH1 0x40 MLOAD RETURNDATASIZE PUSH1 0x1F NOT PUSH1 0x1F DUP3 ADD AND DUP3 ADD DUP1 PUSH1 0x40 MSTORE POP DUP2 ADD SWAP1 PUSH2 0x367C SWAP2 SWAP1 PUSH2 0x4CE8 JUMP JUMPDEST PUSH1 0x40 MLOAD PUSH32 0x70A0823100000000000000000000000000000000000000000000000000000000 DUP2 MSTORE PUSH20 0xFFFFFFFFFFFFFFFFFFFFFFFFFFFFFFFFFFFFFFFF DUP7 AND SWAP1 PUSH4 0x70A08231 SWAP1 PUSH2 0x36CE SWAP1 DUP8 SWAP1 PUSH1 0x4 ADD PUSH2 0x4E92 JUMP JUMPDEST PUSH1 0x20 PUSH1 0x40 MLOAD DUP1 DUP4 SUB DUP2 DUP7 DUP1 EXTCODESIZE ISZERO DUP1 ISZERO PUSH2 0x36E6 JUMPI PUSH1 0x0 DUP1 REVERT JUMPDEST POP GAS STATICCALL ISZERO DUP1 ISZERO PUSH2 0x36FA JUMPI RETURNDATASIZE PUSH1 0x0 DUP1 RETURNDATACOPY RETURNDATASIZE PUSH1 0x0 REVERT JUMPDEST POP POP POP POP PUSH1 0x40 MLOAD RETURNDATASIZE PUSH1 0x1F NOT PUSH1 0x1F DUP3 ADD AND DUP3 ADD DUP1 PUSH1 0x40 MSTORE POP DUP2 ADD SWAP1 PUSH2 0x22CE SWAP2 SWAP1 PUSH2 0x4CE8 JUMP JUMPDEST PUSH1 0x0 DUP2 DUP4 LT PUSH2 0x372D JUMPI DUP2 PUSH2 0x2314 JUMP JUMPDEST POP SWAP1 SWAP2 SWAP1 POP JUMP JUMPDEST PUSH1 0x0 PUSH2 0x35E4 DUP4 PUSH2 0x35DE PUSH2 0x3748 DUP3 PUSH1 0x1 PUSH2 0x3D23 JUMP JUMPDEST PUSH2 0x3752 DUP9 DUP8 PUSH2 0x3D78 JUMP JUMPDEST SWAP1 PUSH2 0x3DD3 JUMP JUMPDEST PUSH1 0x0 PUSH16 0xFFFFFFFFFFFFFFFFFFFFFFFFFFFFFFFF DUP3 GT ISZERO PUSH2 0x3780 JUMPI PUSH2 0x3780 PUSH2 0xB05 PUSH1 0x3 DUP5 PUSH2 0x3DEF JUMP JUMPDEST POP SWAP1 JUMP JUMPDEST PUSH1 0x40 DUP2 ADD MLOAD PUSH32 0xFFFFFFFFFFFFFFFFFFFFFFFFFFFFFFFEBAAEDCE6AF48A03BBFD25E8CD0364141 GT ISZERO DUP1 PUSH2 0x37DB JUMPI POP PUSH1 0x60 DUP2 ADD MLOAD PUSH32 0x7FFFFFFFFFFFFFFFFFFFFFFFFFFFFFFF5D576E7357A4501DDFE92F46681B20A1 GT ISZERO JUMPDEST ISZERO PUSH2 0x37EE JUMPI PUSH2 0x37EE PUSH2 0xB05 PUSH1 0x5 DUP5 PUSH2 0x3830 JUMP JUMPDEST PUSH1 0x0 DUP2 MLOAD PUSH1 0x3 DUP2 GT ISZERO PUSH2 0x37FD JUMPI INVALID JUMPDEST EQ ISZERO PUSH2 0x3811 JUMPI PUSH2 0x3811 PUSH2 0xB05 PUSH1 0x3 DUP5 PUSH2 0x3830 JUMP JUMPDEST PUSH1 0x1 DUP2 MLOAD PUSH1 0x3 DUP2 GT ISZERO PUSH2 0x3820 JUMPI INVALID JUMPDEST EQ ISZERO PUSH2 0xD92 JUMPI PUSH2 0xD92 PUSH2 0xB05 PUSH1 0x0 DUP5 JUMPDEST PUSH1 0x60 PUSH32 0xF18F11F3027E735C758137924B262D4D3AFF0037DCD785ACA3C699FA05D960BD DUP4 DUP4 PUSH1 0x40 MLOAD PUSH1 0x24 ADD PUSH2 0x339C SWAP3 SWAP2 SWAP1 PUSH2 0x52E3 JUMP JUMPDEST PUSH1 0x0 PUSH1 0x80 DUP3 PUSH1 0x8 DUP2 GT ISZERO PUSH2 0x3876 JUMPI INVALID JUMPDEST PUSH1 0x1 ADD SWAP1 SHL SWAP3 SWAP2 POP POP JUMP JUMPDEST PUSH1 0x60 PUSH32 0x47AB394E41470191EAF9FA542E84AC483A12665FBD616EB8D1C022CED6C94000 DUP4 DUP4 PUSH1 0x40 MLOAD PUSH1 0x24 ADD PUSH2 0x339C SWAP3 SWAP2 SWAP1 PUSH2 0x5207 JUMP JUMPDEST PUSH1 0x60 PUSH32 0x5D3300180A4547B3E27137BE832D3EBF56F1BA5EBB30DD580999C61F77FA6396 DUP5 DUP5 DUP5 PUSH1 0x40 MLOAD PUSH1 0x24 ADD PUSH2 0x302E SWAP4 SWAP3 SWAP2 SWAP1 PUSH2 0x50E1 JUMP JUMPDEST PUSH1 0x60 PUSH32 0x15E6A383BB02D79EE933B927FBECBA78CDDE16CBA84B94A99661F44BCCE3B736 DUP5 DUP5 DUP5 PUSH1 0x40 MLOAD PUSH1 0x24 ADD PUSH2 0x302E SWAP4 SWAP3 SWAP2 SWAP1 PUSH2 0x50E1 JUMP JUMPDEST PUSH1 0x60 PUSH32 0xF13E65D925201525F3D71A731833B19BB26E44CFBD97CAF72A366B73866F7124 DUP5 DUP5 DUP5 PUSH1 0x40 MLOAD PUSH1 0x24 ADD PUSH2 0x302E SWAP4 SWAP3 SWAP2 SWAP1 PUSH2 0x50E1 JUMP JUMPDEST PUSH1 0x0 DUP1 PUSH2 0x396A PUSH2 0x3E0C JUMP JUMPDEST SWAP1 POP DUP1 PUSH2 0x397B JUMPI PUSH1 0x0 SWAP2 POP POP PUSH2 0x713 JUMP JUMPDEST PUSH1 0x0 PUSH2 0x3986 DUP5 PUSH2 0x3E38 JUMP JUMPDEST SWAP1 POP PUSH1 0x0 DUP2 PUSH20 0xFFFFFFFFFFFFFFFFFFFFFFFFFFFFFFFFFFFFFFFF AND DUP4 PUSH1 0x40 MLOAD PUSH2 0x39AE SWAP1 PUSH2 0x4E8F JUMP JUMPDEST PUSH1 0x0 PUSH1 0x40 MLOAD DUP1 DUP4 SUB DUP2 DUP6 DUP8 GAS CALL SWAP3 POP POP POP RETURNDATASIZE DUP1 PUSH1 0x0 DUP2 EQ PUSH2 0x39EB JUMPI PUSH1 0x40 MLOAD SWAP2 POP PUSH1 0x1F NOT PUSH1 0x3F RETURNDATASIZE ADD AND DUP3 ADD PUSH1 0x40 MSTORE RETURNDATASIZE DUP3 MSTORE RETURNDATASIZE PUSH1 0x0 PUSH1 0x20 DUP5 ADD RETURNDATACOPY PUSH2 0x39F0 JUMP JUMPDEST PUSH1 0x60 SWAP2 POP JUMPDEST POP POP SWAP1 POP DUP1 PUSH2 0x3A2B JUMPI PUSH1 0x40 MLOAD PUSH32 0x8C379A000000000000000000000000000000000000000000000000000000000 DUP2 MSTORE PUSH1 0x4 ADD PUSH2 0x784 SWAP1 PUSH2 0x54D6 JUMP JUMPDEST POP SWAP1 SWAP4 SWAP3 POP POP POP JUMP JUMPDEST PUSH1 0x0 DUP1 PUSH2 0x3A73 DUP4 PUSH2 0x100 ADD MLOAD PUSH2 0x3A6E DUP6 PUSH2 0x120 ADD MLOAD DUP7 PUSH1 0xE0 ADD MLOAD PUSH16 0xFFFFFFFFFFFFFFFFFFFFFFFFFFFFFFFF AND PUSH2 0x3E85 SWAP1 SWAP2 SWAP1 PUSH4 0xFFFFFFFF AND JUMP JUMPDEST PUSH2 0x3EE6 JUMP JUMPDEST SWAP2 POP PUSH2 0x3ABE DUP3 PUSH16 0xFFFFFFFFFFFFFFFFFFFFFFFFFFFFFFFF AND DUP5 PUSH1 0xE0 ADD MLOAD PUSH16 0xFFFFFFFFFFFFFFFFFFFFFFFFFFFFFFFF AND DUP6 PUSH1 0xC0 ADD MLOAD PUSH16 0xFFFFFFFFFFFFFFFFFFFFFFFFFFFFFFFF AND PUSH2 0x35CE JUMP JUMPDEST SWAP1 POP PUSH16 0xFFFFFFFFFFFFFFFFFFFFFFFFFFFFFFFF DUP3 AND ISZERO DUP1 PUSH2 0x3AEF JUMPI POP PUSH16 0xFFFFFFFFFFFFFFFFFFFFFFFFFFFFFFFF DUP2 AND ISZERO JUMPDEST ISZERO PUSH2 0x3AFF JUMPI POP PUSH1 0x0 SWAP1 POP DUP1 PUSH2 0x3BF0 JUMP JUMPDEST PUSH2 0x120 DUP4 ADD MLOAD PUSH2 0x3B21 SWAP1 PUSH16 0xFFFFFFFFFFFFFFFFFFFFFFFFFFFFFFFF AND DUP4 PUSH2 0x3F19 JUMP JUMPDEST PUSH16 0xFFFFFFFFFFFFFFFFFFFFFFFFFFFFFFFF AND PUSH2 0x3B3B PUSH2 0x246C JUMP JUMPDEST DUP5 MLOAD PUSH1 0x0 SWAP1 DUP2 MSTORE PUSH1 0x20 SWAP2 SWAP1 SWAP2 MSTORE PUSH1 0x40 SWAP1 DUP2 SWAP1 KECCAK256 SWAP2 SWAP1 SWAP2 SSTORE DUP4 ADD MLOAD PUSH20 0xFFFFFFFFFFFFFFFFFFFFFFFFFFFFFFFFFFFFFFFF AND ADDRESS EQ ISZERO PUSH2 0x3B9C JUMPI PUSH2 0x3B97 DUP4 PUSH1 0xA0 ADD MLOAD DUP5 PUSH1 0x20 ADD MLOAD DUP5 PUSH16 0xFFFFFFFFFFFFFFFFFFFFFFFFFFFFFFFF AND PUSH2 0x3F6E JUMP JUMPDEST PUSH2 0x3BC6 JUMP JUMPDEST PUSH2 0x3BC6 DUP4 PUSH1 0xA0 ADD MLOAD DUP5 PUSH1 0x40 ADD MLOAD DUP6 PUSH1 0x20 ADD MLOAD DUP6 PUSH16 0xFFFFFFFFFFFFFFFFFFFFFFFFFFFFFFFF AND PUSH2 0x3BF5 JUMP JUMPDEST PUSH2 0x3BF0 DUP4 PUSH1 0x80 ADD MLOAD DUP5 PUSH1 0x20 ADD MLOAD DUP6 PUSH1 0x60 ADD MLOAD DUP5 PUSH16 0xFFFFFFFFFFFFFFFFFFFFFFFFFFFFFFFF AND PUSH2 0x3BF5 JUMP JUMPDEST SWAP2 POP SWAP2 JUMP JUMPDEST PUSH20 0xFFFFFFFFFFFFFFFFFFFFFFFFFFFFFFFFFFFFFFFF DUP5 AND ADDRESS EQ ISZERO PUSH2 0x3C45 JUMPI PUSH1 0x40 MLOAD PUSH32 0x8C379A000000000000000000000000000000000000000000000000000000000 DUP2 MSTORE PUSH1 0x4 ADD PUSH2 0x784 SWAP1 PUSH2 0x5479 JUMP JUMPDEST PUSH1 0x40 MLOAD PUSH32 0x23B872DD00000000000000000000000000000000000000000000000000000000 DUP2 MSTORE PUSH20 0xFFFFFFFFFFFFFFFFFFFFFFFFFFFFFFFFFFFFFFFF DUP5 AND PUSH1 0x4 DUP3 ADD MSTORE PUSH20 0xFFFFFFFFFFFFFFFFFFFFFFFFFFFFFFFFFFFFFFFF DUP4 AND PUSH1 0x24 DUP3 ADD MSTORE DUP2 PUSH1 0x44 DUP3 ADD MSTORE PUSH1 0x20 DUP2 PUSH1 0x64 DUP4 PUSH1 0x0 PUSH20 0xFFFFFFFFFFFFFFFFFFFFFFFFFFFFFFFFFFFFFFFF DUP11 AND GAS CALL RETURNDATASIZE PUSH1 0x1 DUP4 MLOAD EQ PUSH1 0x20 DUP3 LT ISZERO AND DUP2 ISZERO OR DUP3 AND SWAP2 POP DUP2 PUSH2 0x27B1 JUMPI DUP1 PUSH1 0x0 DUP5 RETURNDATACOPY DUP1 DUP4 REVERT JUMPDEST PUSH1 0x60 PUSH32 0xC0972F3CC4234CA2091DE7E7BC7081494BD29AC280167D66F0D44168973B1634 DUP5 DUP5 DUP5 PUSH1 0x40 MLOAD PUSH1 0x24 ADD PUSH2 0x302E SWAP4 SWAP3 SWAP2 SWAP1 PUSH2 0x50E1 JUMP JUMPDEST PUSH1 0x0 DUP3 DUP3 GT ISZERO PUSH2 0x3D3C JUMPI PUSH2 0x3D3C PUSH2 0xB05 PUSH1 0x2 DUP6 DUP6 PUSH2 0x4050 JUMP JUMPDEST POP SWAP1 SUB SWAP1 JUMP JUMPDEST PUSH1 0x60 PUSH32 0xBDE95CC2119E0200D80642397198ABFCF98E6E4DDDD0DE9C6320D86252AD40AB DUP4 DUP4 PUSH1 0x40 MLOAD PUSH1 0x24 ADD PUSH2 0x339C SWAP3 SWAP2 SWAP1 PUSH2 0x4FE5 JUMP JUMPDEST PUSH1 0x0 DUP3 PUSH2 0x3D87 JUMPI POP PUSH1 0x0 PUSH2 0xD0F JUMP JUMPDEST DUP3 DUP3 MUL DUP3 DUP5 DUP3 DUP2 PUSH2 0x3D94 JUMPI INVALID JUMPDEST DIV EQ PUSH2 0x2314 JUMPI PUSH2 0x2314 PUSH2 0xB05 PUSH1 0x1 DUP7 DUP7 PUSH2 0x4050 JUMP JUMPDEST PUSH1 0x0 DUP2 PUSH2 0x3DBF JUMPI PUSH2 0x3DBF PUSH2 0xB05 PUSH1 0x3 DUP6 DUP6 PUSH2 0x4050 JUMP JUMPDEST PUSH1 0x0 DUP3 DUP5 DUP2 PUSH2 0x3DCA JUMPI INVALID JUMPDEST DIV SWAP5 SWAP4 POP POP POP POP JUMP JUMPDEST PUSH1 0x0 DUP3 DUP3 ADD DUP4 DUP2 LT ISZERO PUSH2 0x2314 JUMPI PUSH2 0x2314 PUSH2 0xB05 PUSH1 0x0 DUP7 DUP7 PUSH2 0x4050 JUMP JUMPDEST PUSH1 0x60 PUSH4 0xC996AF7B PUSH1 0xE0 SHL DUP4 DUP4 PUSH1 0x40 MLOAD PUSH1 0x24 ADD PUSH2 0x339C SWAP3 SWAP2 SWAP1 PUSH2 0x52CC JUMP JUMPDEST PUSH4 0xFFFFFFFF PUSH32 0x0 AND GASPRICE MUL SWAP1 JUMP JUMPDEST PUSH1 0x0 PUSH2 0x710 PUSH32 0x0 PUSH32 0x0 DUP5 PUSH2 0x406F JUMP JUMPDEST PUSH1 0x0 DUP3 PUSH16 0xFFFFFFFFFFFFFFFFFFFFFFFFFFFFFFFF AND DUP3 PUSH16 0xFFFFFFFFFFFFFFFFFFFFFFFFFFFFFFFF AND GT ISZERO PUSH2 0x3D3C JUMPI PUSH2 0x3D3C PUSH2 0xB05 PUSH1 0x2 DUP6 PUSH16 0xFFFFFFFFFFFFFFFFFFFFFFFFFFFFFFFF AND DUP6 PUSH16 0xFFFFFFFFFFFFFFFFFFFFFFFFFFFFFFFF AND PUSH2 0x4050 JUMP JUMPDEST PUSH1 0x0 DUP2 PUSH16 0xFFFFFFFFFFFFFFFFFFFFFFFFFFFFFFFF AND DUP4 PUSH16 0xFFFFFFFFFFFFFFFFFFFFFFFFFFFFFFFF AND LT PUSH2 0x372D JUMPI DUP2 PUSH2 0x2314 JUMP JUMPDEST PUSH1 0x0 DUP3 DUP3 ADD PUSH16 0xFFFFFFFFFFFFFFFFFFFFFFFFFFFFFFFF DUP1 DUP6 AND SWAP1 DUP3 AND LT ISZERO PUSH2 0x2314 JUMPI PUSH2 0x2314 PUSH2 0xB05 PUSH1 0x0 DUP7 PUSH16 0xFFFFFFFFFFFFFFFFFFFFFFFFFFFFFFFF AND DUP7 PUSH16 0xFFFFFFFFFFFFFFFFFFFFFFFFFFFFFFFF AND PUSH2 0x4050 JUMP JUMPDEST PUSH20 0xFFFFFFFFFFFFFFFFFFFFFFFFFFFFFFFFFFFFFFFF DUP4 AND ADDRESS EQ ISZERO PUSH2 0x3FBE JUMPI PUSH1 0x40 MLOAD PUSH32 0x8C379A000000000000000000000000000000000000000000000000000000000 DUP2 MSTORE PUSH1 0x4 ADD PUSH2 0x784 SWAP1 PUSH2 0x5479 JUMP JUMPDEST PUSH1 0x40 MLOAD PUSH32 0xA9059CBB00000000000000000000000000000000000000000000000000000000 DUP2 MSTORE PUSH20 0xFFFFFFFFFFFFFFFFFFFFFFFFFFFFFFFFFFFFFFFF DUP4 AND PUSH1 0x4 DUP3 ADD MSTORE DUP2 PUSH1 0x24 DUP3 ADD MSTORE PUSH1 0x20 DUP2 PUSH1 0x44 DUP4 PUSH1 0x0 PUSH20 0xFFFFFFFFFFFFFFFFFFFFFFFFFFFFFFFFFFFFFFFF DUP10 AND GAS CALL RETURNDATASIZE PUSH1 0x1 DUP4 MLOAD EQ PUSH1 0x20 DUP3 LT ISZERO AND DUP2 ISZERO OR DUP3 AND SWAP2 POP DUP2 PUSH2 0x4048 JUMPI DUP1 PUSH1 0x0 DUP5 RETURNDATACOPY DUP1 DUP4 REVERT JUMPDEST POP POP POP POP POP POP JUMP JUMPDEST PUSH1 0x60 PUSH4 0xE946C1BB PUSH1 0xE0 SHL DUP5 DUP5 DUP5 PUSH1 0x40 MLOAD PUSH1 0x24 ADD PUSH2 0x302E SWAP4 SWAP3 SWAP2 SWAP1 PUSH2 0x52AB JUMP JUMPDEST PUSH1 0x40 MLOAD PUSH1 0x0 SWAP1 PUSH2 0x40A9 SWAP1 PUSH32 0xFF00000000000000000000000000000000000000000000000000000000000000 SWAP1 DUP7 SWAP1 DUP6 SWAP1 DUP8 SWAP1 PUSH1 0x20 ADD PUSH2 0x4DF5 JUMP JUMPDEST PUSH1 0x40 DUP1 MLOAD PUSH32 0xFFFFFFFFFFFFFFFFFFFFFFFFFFFFFFFFFFFFFFFFFFFFFFFFFFFFFFFFFFFFFFE0 DUP2 DUP5 SUB ADD DUP2 MSTORE SWAP2 SWAP1 MSTORE DUP1 MLOAD PUSH1 0x20 SWAP1 SWAP2 ADD KECCAK256 SWAP5 SWAP4 POP POP POP POP JUMP JUMPDEST PUSH1 0x40 DUP1 MLOAD PUSH1 0x60 DUP2 ADD SWAP1 SWAP2 MSTORE PUSH1 0x0 DUP1 DUP3 MSTORE PUSH1 0x20 DUP3 ADD SWAP1 DUP2 MSTORE PUSH1 0x0 PUSH1 0x20 SWAP1 SWAP2 ADD MSTORE SWAP1 JUMP JUMPDEST PUSH1 0x40 DUP1 MLOAD PUSH1 0x80 DUP2 ADD DUP3 MSTORE PUSH1 0x0 DUP1 DUP3 MSTORE PUSH1 0x20 DUP3 ADD DUP2 SWAP1 MSTORE SWAP2 DUP2 ADD DUP3 SWAP1 MSTORE PUSH1 0x60 DUP2 ADD SWAP2 SWAP1 SWAP2 MSTORE SWAP1 JUMP JUMPDEST DUP1 CALLDATALOAD PUSH2 0xD0F DUP2 PUSH2 0x5888 JUMP JUMPDEST PUSH1 0x0 DUP3 PUSH1 0x1F DUP4 ADD SLT PUSH2 0x414B JUMPI DUP1 DUP2 REVERT JUMPDEST DUP2 CALLDATALOAD PUSH2 0x415E PUSH2 0x4159 DUP3 PUSH2 0x582B JUMP JUMPDEST PUSH2 0x5804 JUMP JUMPDEST DUP2 DUP2 MSTORE SWAP2 POP PUSH1 0x20 DUP1 DUP4 ADD SWAP1 DUP5 DUP2 ADD DUP2 DUP5 MUL DUP7 ADD DUP3 ADD DUP8 LT ISZERO PUSH2 0x417F JUMPI PUSH1 0x0 DUP1 REVERT JUMPDEST PUSH1 0x0 JUMPDEST DUP5 DUP2 LT ISZERO PUSH2 0x41A7 JUMPI DUP2 CALLDATALOAD PUSH2 0x4195 DUP2 PUSH2 0x5888 JUMP JUMPDEST DUP5 MSTORE SWAP3 DUP3 ADD SWAP3 SWAP1 DUP3 ADD SWAP1 PUSH1 0x1 ADD PUSH2 0x4182 JUMP JUMPDEST POP POP POP POP POP SWAP3 SWAP2 POP POP JUMP JUMPDEST PUSH1 0x0 DUP1 DUP4 PUSH1 0x1F DUP5 ADD SLT PUSH2 0x41C3 JUMPI DUP2 DUP3 REVERT JUMPDEST POP DUP2 CALLDATALOAD PUSH8 0xFFFFFFFFFFFFFFFF DUP2 GT ISZERO PUSH2 0x41DA JUMPI DUP2 DUP3 REVERT JUMPDEST PUSH1 0x20 DUP4 ADD SWAP2 POP DUP4 PUSH1 0x20 PUSH1 0x80 DUP4 MUL DUP6 ADD ADD GT ISZERO PUSH2 0x41F5 JUMPI PUSH1 0x0 DUP1 REVERT JUMPDEST SWAP3 POP SWAP3 SWAP1 POP JUMP JUMPDEST PUSH1 0x0 DUP3 PUSH1 0x1F DUP4 ADD SLT PUSH2 0x420C JUMPI DUP1 DUP2 REVERT JUMPDEST DUP2 CALLDATALOAD PUSH2 0x421A PUSH2 0x4159 DUP3 PUSH2 0x582B JUMP JUMPDEST DUP2 DUP2 MSTORE SWAP2 POP PUSH1 0x20 DUP1 DUP4 ADD SWAP1 DUP5 DUP2 ADD DUP2 DUP5 MUL DUP7 ADD DUP3 ADD DUP8 LT ISZERO PUSH2 0x423B JUMPI PUSH1 0x0 DUP1 REVERT JUMPDEST PUSH1 0x0 JUMPDEST DUP5 DUP2 LT ISZERO PUSH2 0x41A7 JUMPI DUP2 CALLDATALOAD DUP5 MSTORE SWAP3 DUP3 ADD SWAP3 SWAP1 DUP3 ADD SWAP1 PUSH1 0x1 ADD PUSH2 0x423E JUMP JUMPDEST DUP1 CALLDATALOAD PUSH2 0xD0F DUP2 PUSH2 0x58AA JUMP JUMPDEST PUSH1 0x0 PUSH2 0x180 DUP1 DUP4 DUP6 SUB SLT ISZERO PUSH2 0x4278 JUMPI DUP2 DUP3 REVERT JUMPDEST PUSH2 0x4281 DUP2 PUSH2 0x5804 JUMP JUMPDEST SWAP2 POP POP PUSH2 0x428E DUP4 DUP4 PUSH2 0x4130 JUMP JUMPDEST DUP2 MSTORE PUSH2 0x429D DUP4 PUSH1 0x20 DUP5 ADD PUSH2 0x4130 JUMP JUMPDEST PUSH1 0x20 DUP3 ADD MSTORE PUSH2 0x42AF DUP4 PUSH1 0x40 DUP5 ADD PUSH2 0x4478 JUMP JUMPDEST PUSH1 0x40 DUP3 ADD MSTORE PUSH2 0x42C1 DUP4 PUSH1 0x60 DUP5 ADD PUSH2 0x4478 JUMP JUMPDEST PUSH1 0x60 DUP3 ADD MSTORE PUSH2 0x42D3 DUP4 PUSH1 0x80 DUP5 ADD PUSH2 0x4478 JUMP JUMPDEST PUSH1 0x80 DUP3 ADD MSTORE PUSH2 0x42E5 DUP4 PUSH1 0xA0 DUP5 ADD PUSH2 0x4130 JUMP JUMPDEST PUSH1 0xA0 DUP3 ADD MSTORE PUSH2 0x42F7 DUP4 PUSH1 0xC0 DUP5 ADD PUSH2 0x4130 JUMP JUMPDEST PUSH1 0xC0 DUP3 ADD MSTORE PUSH2 0x4309 DUP4 PUSH1 0xE0 DUP5 ADD PUSH2 0x4130 JUMP JUMPDEST PUSH1 0xE0 DUP3 ADD MSTORE PUSH2 0x100 PUSH2 0x431D DUP5 DUP3 DUP6 ADD PUSH2 0x4130 JUMP JUMPDEST SWAP1 DUP3 ADD MSTORE PUSH2 0x120 DUP3 DUP2 ADD CALLDATALOAD SWAP1 DUP3 ADD MSTORE PUSH2 0x140 PUSH2 0x433B DUP5 DUP3 DUP6 ADD PUSH2 0x4483 JUMP JUMPDEST DUP2 DUP4 ADD MSTORE POP PUSH2 0x160 DUP1 DUP4 ADD CALLDATALOAD DUP2 DUP4 ADD MSTORE POP SWAP3 SWAP2 POP POP JUMP JUMPDEST PUSH1 0x0 PUSH2 0x140 DUP1 DUP4 DUP6 SUB SLT ISZERO PUSH2 0x4365 JUMPI DUP2 DUP3 REVERT JUMPDEST PUSH2 0x436E DUP2 PUSH2 0x5804 JUMP JUMPDEST SWAP2 POP POP PUSH2 0x437B DUP4 DUP4 PUSH2 0x4130 JUMP JUMPDEST DUP2 MSTORE PUSH2 0x438A DUP4 PUSH1 0x20 DUP5 ADD PUSH2 0x4130 JUMP JUMPDEST PUSH1 0x20 DUP3 ADD MSTORE PUSH2 0x439C DUP4 PUSH1 0x40 DUP5 ADD PUSH2 0x4478 JUMP JUMPDEST PUSH1 0x40 DUP3 ADD MSTORE PUSH2 0x43AE DUP4 PUSH1 0x60 DUP5 ADD PUSH2 0x4478 JUMP JUMPDEST PUSH1 0x60 DUP3 ADD MSTORE PUSH2 0x43C0 DUP4 PUSH1 0x80 DUP5 ADD PUSH2 0x4130 JUMP JUMPDEST PUSH1 0x80 DUP3 ADD MSTORE PUSH2 0x43D2 DUP4 PUSH1 0xA0 DUP5 ADD PUSH2 0x4130 JUMP JUMPDEST PUSH1 0xA0 DUP3 ADD MSTORE PUSH2 0x43E4 DUP4 PUSH1 0xC0 DUP5 ADD PUSH2 0x4130 JUMP JUMPDEST PUSH1 0xC0 DUP3 ADD MSTORE PUSH1 0xE0 DUP3 ADD CALLDATALOAD PUSH1 0xE0 DUP3 ADD MSTORE PUSH2 0x100 PUSH2 0x4402 DUP5 DUP3 DUP6 ADD PUSH2 0x4483 JUMP JUMPDEST DUP2 DUP4 ADD MSTORE POP PUSH2 0x120 DUP1 DUP4 ADD CALLDATALOAD DUP2 DUP4 ADD MSTORE POP SWAP3 SWAP2 POP POP JUMP JUMPDEST PUSH1 0x0 PUSH1 0x80 DUP3 DUP5 SUB SLT ISZERO PUSH2 0x442A JUMPI DUP1 DUP2 REVERT JUMPDEST PUSH2 0x4434 PUSH1 0x80 PUSH2 0x5804 JUMP JUMPDEST SWAP1 POP DUP2 CALLDATALOAD PUSH2 0x4441 DUP2 PUSH2 0x58B8 JUMP JUMPDEST DUP2 MSTORE PUSH1 0x20 DUP3 ADD CALLDATALOAD PUSH1 0xFF DUP2 AND DUP2 EQ PUSH2 0x4457 JUMPI PUSH1 0x0 DUP1 REVERT JUMPDEST DUP1 PUSH1 0x20 DUP4 ADD MSTORE POP PUSH1 0x40 DUP3 ADD CALLDATALOAD PUSH1 0x40 DUP3 ADD MSTORE PUSH1 0x60 DUP3 ADD CALLDATALOAD PUSH1 0x60 DUP3 ADD MSTORE SWAP3 SWAP2 POP POP JUMP JUMPDEST DUP1 CALLDATALOAD PUSH2 0xD0F DUP2 PUSH2 0x58C5 JUMP JUMPDEST DUP1 CALLDATALOAD PUSH8 0xFFFFFFFFFFFFFFFF DUP2 AND DUP2 EQ PUSH2 0xD0F JUMPI PUSH1 0x0 DUP1 REVERT JUMPDEST PUSH1 0x0 DUP1 PUSH1 0x40 DUP4 DUP6 SUB SLT ISZERO PUSH2 0x44AD JUMPI DUP2 DUP3 REVERT JUMPDEST DUP3 CALLDATALOAD PUSH2 0x44B8 DUP2 PUSH2 0x5888 JUMP JUMPDEST SWAP2 POP PUSH1 0x20 DUP4 ADD CALLDATALOAD PUSH2 0x44C8 DUP2 PUSH2 0x5888 JUMP JUMPDEST DUP1 SWAP2 POP POP SWAP3 POP SWAP3 SWAP1 POP JUMP JUMPDEST PUSH1 0x0 DUP1 PUSH1 0x0 DUP1 PUSH1 0x80 DUP6 DUP8 SUB SLT ISZERO PUSH2 0x44E8 JUMPI DUP2 DUP3 REVERT JUMPDEST DUP5 CALLDATALOAD PUSH2 0x44F3 DUP2 PUSH2 0x5888 JUMP JUMPDEST SWAP4 POP PUSH1 0x20 DUP6 ADD CALLDATALOAD PUSH8 0xFFFFFFFFFFFFFFFF DUP1 DUP3 GT ISZERO PUSH2 0x450F JUMPI DUP4 DUP5 REVERT JUMPDEST PUSH2 0x451B DUP9 DUP4 DUP10 ADD PUSH2 0x413B JUMP JUMPDEST SWAP5 POP PUSH1 0x40 DUP8 ADD CALLDATALOAD SWAP2 POP DUP1 DUP3 GT ISZERO PUSH2 0x4530 JUMPI DUP4 DUP5 REVERT JUMPDEST PUSH2 0x453C DUP9 DUP4 DUP10 ADD PUSH2 0x413B JUMP JUMPDEST SWAP4 POP PUSH1 0x60 DUP8 ADD CALLDATALOAD SWAP2 POP DUP1 DUP3 GT ISZERO PUSH2 0x4551 JUMPI DUP3 DUP4 REVERT JUMPDEST POP PUSH2 0x455E DUP8 DUP3 DUP9 ADD PUSH2 0x41FC JUMP JUMPDEST SWAP2 POP POP SWAP3 SWAP6 SWAP2 SWAP5 POP SWAP3 POP JUMP JUMPDEST PUSH1 0x0 DUP1 PUSH1 0x40 DUP4 DUP6 SUB SLT ISZERO PUSH2 0x457C JUMPI DUP2 DUP3 REVERT JUMPDEST DUP3 CALLDATALOAD PUSH2 0x4587 DUP2 PUSH2 0x5888 JUMP JUMPDEST SWAP2 POP PUSH1 0x20 DUP4 ADD CALLDATALOAD PUSH2 0x44C8 DUP2 PUSH2 0x58AA JUMP JUMPDEST PUSH1 0x0 DUP1 PUSH1 0x0 DUP1 PUSH1 0x80 DUP6 DUP8 SUB SLT ISZERO PUSH2 0x45AC JUMPI DUP2 DUP3 REVERT JUMPDEST DUP5 CALLDATALOAD PUSH2 0x45B7 DUP2 PUSH2 0x5888 JUMP JUMPDEST SWAP4 POP PUSH1 0x20 DUP6 ADD CALLDATALOAD PUSH2 0x45C7 DUP2 PUSH2 0x5888 JUMP JUMPDEST SWAP3 POP PUSH1 0x40 DUP6 ADD CALLDATALOAD PUSH2 0x45D7 DUP2 PUSH2 0x5888 JUMP JUMPDEST SWAP4 SWAP7 SWAP3 SWAP6 POP SWAP3 SWAP4 PUSH1 0x60 ADD CALLDATALOAD SWAP3 POP POP JUMP JUMPDEST PUSH1 0x0 DUP1 PUSH1 0x40 DUP4 DUP6 SUB SLT ISZERO PUSH2 0x45F9 JUMPI DUP2 DUP3 REVERT JUMPDEST DUP3 CALLDATALOAD PUSH8 0xFFFFFFFFFFFFFFFF DUP2 GT ISZERO PUSH2 0x460F JUMPI DUP3 DUP4 REVERT JUMPDEST DUP4 ADD PUSH1 0x1F DUP2 ADD DUP6 SGT PUSH2 0x461F JUMPI DUP3 DUP4 REVERT JUMPDEST DUP1 CALLDATALOAD PUSH2 0x462D PUSH2 0x4159 DUP3 PUSH2 0x582B JUMP JUMPDEST DUP1 DUP3 DUP3 MSTORE PUSH1 0x20 DUP1 DUP4 ADD SWAP3 POP DUP1 DUP6 ADD DUP10 DUP3 DUP4 DUP8 MUL DUP9 ADD ADD GT ISZERO PUSH2 0x464D JUMPI DUP8 DUP9 REVERT JUMPDEST DUP8 SWAP6 POP JUMPDEST DUP5 DUP7 LT ISZERO PUSH2 0x4678 JUMPI DUP1 CALLDATALOAD PUSH2 0x4664 DUP2 PUSH2 0x5888 JUMP JUMPDEST DUP5 MSTORE PUSH1 0x1 SWAP6 SWAP1 SWAP6 ADD SWAP5 SWAP3 DUP2 ADD SWAP3 DUP2 ADD PUSH2 0x4651 JUMP JUMPDEST POP DUP2 SWAP7 POP PUSH2 0x4688 DUP10 DUP3 DUP11 ADD PUSH2 0x425A JUMP JUMPDEST SWAP6 POP POP POP POP POP POP SWAP3 POP SWAP3 SWAP1 POP JUMP JUMPDEST PUSH1 0x0 DUP1 PUSH1 0x20 DUP4 DUP6 SUB SLT ISZERO PUSH2 0x46A8 JUMPI DUP2 DUP3 REVERT JUMPDEST DUP3 CALLDATALOAD PUSH8 0xFFFFFFFFFFFFFFFF DUP1 DUP3 GT ISZERO PUSH2 0x46BF JUMPI DUP4 DUP5 REVERT JUMPDEST DUP2 DUP6 ADD SWAP2 POP DUP6 PUSH1 0x1F DUP4 ADD SLT PUSH2 0x46D2 JUMPI DUP4 DUP5 REVERT JUMPDEST DUP2 CALLDATALOAD DUP2 DUP2 GT ISZERO PUSH2 0x46E0 JUMPI DUP5 DUP6 REVERT JUMPDEST DUP7 PUSH1 0x20 DUP1 DUP4 MUL DUP6 ADD ADD GT ISZERO PUSH2 0x46F3 JUMPI DUP5 DUP6 REVERT JUMPDEST PUSH1 0x20 SWAP3 SWAP1 SWAP3 ADD SWAP7 SWAP2 SWAP6 POP SWAP1 SWAP4 POP POP POP POP JUMP JUMPDEST PUSH1 0x0 DUP1 PUSH1 0x0 PUSH1 0x60 DUP5 DUP7 SUB SLT ISZERO PUSH2 0x4719 JUMPI DUP1 DUP2 REVERT JUMPDEST DUP4 CALLDATALOAD PUSH8 0xFFFFFFFFFFFFFFFF DUP1 DUP3 GT ISZERO PUSH2 0x4730 JUMPI DUP3 DUP4 REVERT JUMPDEST PUSH2 0x473C DUP8 DUP4 DUP9 ADD PUSH2 0x413B JUMP JUMPDEST SWAP5 POP PUSH1 0x20 DUP7 ADD CALLDATALOAD SWAP2 POP DUP1 DUP3 GT ISZERO PUSH2 0x4751 JUMPI DUP3 DUP4 REVERT JUMPDEST PUSH2 0x475D DUP8 DUP4 DUP9 ADD PUSH2 0x413B JUMP JUMPDEST SWAP4 POP PUSH1 0x40 DUP7 ADD CALLDATALOAD SWAP2 POP DUP1 DUP3 GT ISZERO PUSH2 0x4772 JUMPI DUP3 DUP4 REVERT JUMPDEST POP PUSH2 0x8FA DUP7 DUP3 DUP8 ADD PUSH2 0x41FC JUMP JUMPDEST PUSH1 0x0 DUP1 PUSH1 0x0 DUP1 PUSH1 0x40 DUP6 DUP8 SUB SLT ISZERO PUSH2 0x4794 JUMPI DUP2 DUP3 REVERT JUMPDEST DUP5 CALLDATALOAD PUSH8 0xFFFFFFFFFFFFFFFF DUP1 DUP3 GT ISZERO PUSH2 0x47AB JUMPI DUP4 DUP5 REVERT JUMPDEST DUP2 DUP8 ADD SWAP2 POP DUP8 PUSH1 0x1F DUP4 ADD SLT PUSH2 0x47BE JUMPI DUP4 DUP5 REVERT JUMPDEST DUP2 CALLDATALOAD DUP2 DUP2 GT ISZERO PUSH2 0x47CC JUMPI DUP5 DUP6 REVERT JUMPDEST DUP9 PUSH1 0x20 PUSH2 0x180 DUP4 MUL DUP6 ADD ADD GT ISZERO PUSH2 0x47E1 JUMPI DUP5 DUP6 REVERT JUMPDEST PUSH1 0x20 SWAP3 DUP4 ADD SWAP7 POP SWAP5 POP SWAP1 DUP7 ADD CALLDATALOAD SWAP1 DUP1 DUP3 GT ISZERO PUSH2 0x47FB JUMPI DUP4 DUP5 REVERT JUMPDEST POP PUSH2 0x4808 DUP8 DUP3 DUP9 ADD PUSH2 0x41B2 JUMP JUMPDEST SWAP6 SWAP9 SWAP5 SWAP8 POP SWAP6 POP POP POP POP JUMP JUMPDEST PUSH1 0x0 PUSH1 0x20 DUP1 DUP4 DUP6 SUB SLT ISZERO PUSH2 0x4826 JUMPI DUP2 DUP3 REVERT JUMPDEST DUP3 CALLDATALOAD PUSH8 0xFFFFFFFFFFFFFFFF DUP2 GT ISZERO PUSH2 0x483C JUMPI DUP3 DUP4 REVERT JUMPDEST DUP4 ADD PUSH1 0x1F DUP2 ADD DUP6 SGT PUSH2 0x484C JUMPI DUP3 DUP4 REVERT JUMPDEST DUP1 CALLDATALOAD PUSH2 0x485A PUSH2 0x4159 DUP3 PUSH2 0x582B JUMP JUMPDEST DUP2 DUP2 MSTORE DUP4 DUP2 ADD SWAP1 DUP4 DUP6 ADD PUSH2 0x180 DUP1 DUP6 MUL DUP7 ADD DUP8 ADD DUP11 LT ISZERO PUSH2 0x4879 JUMPI DUP8 DUP9 REVERT JUMPDEST DUP8 SWAP6 POP JUMPDEST DUP5 DUP7 LT ISZERO PUSH2 0x48A5 JUMPI PUSH2 0x488F DUP11 DUP4 PUSH2 0x4265 JUMP JUMPDEST DUP5 MSTORE PUSH1 0x1 SWAP6 SWAP1 SWAP6 ADD SWAP5 SWAP3 DUP7 ADD SWAP3 SWAP1 DUP2 ADD SWAP1 PUSH2 0x487D JUMP JUMPDEST POP SWAP1 SWAP9 SWAP8 POP POP POP POP POP POP POP POP JUMP JUMPDEST PUSH1 0x0 DUP1 PUSH1 0x0 DUP1 PUSH1 0x40 DUP6 DUP8 SUB SLT ISZERO PUSH2 0x48C8 JUMPI DUP2 DUP3 REVERT JUMPDEST DUP5 CALLDATALOAD PUSH8 0xFFFFFFFFFFFFFFFF DUP1 DUP3 GT ISZERO PUSH2 0x48DF JUMPI DUP4 DUP5 REVERT JUMPDEST DUP2 DUP8 ADD SWAP2 POP DUP8 PUSH1 0x1F DUP4 ADD SLT PUSH2 0x48F2 JUMPI DUP4 DUP5 REVERT JUMPDEST DUP2 CALLDATALOAD DUP2 DUP2 GT ISZERO PUSH2 0x4900 JUMPI DUP5 DUP6 REVERT JUMPDEST DUP9 PUSH1 0x20 PUSH2 0x140 DUP4 MUL DUP6 ADD ADD GT ISZERO PUSH2 0x47E1 JUMPI DUP5 DUP6 REVERT JUMPDEST PUSH1 0x0 PUSH1 0x20 DUP1 DUP4 DUP6 SUB SLT ISZERO PUSH2 0x4927 JUMPI DUP2 DUP3 REVERT JUMPDEST DUP3 CALLDATALOAD PUSH8 0xFFFFFFFFFFFFFFFF DUP2 GT ISZERO PUSH2 0x493D JUMPI DUP3 DUP4 REVERT JUMPDEST DUP4 ADD PUSH1 0x1F DUP2 ADD DUP6 SGT PUSH2 0x494D JUMPI DUP3 DUP4 REVERT JUMPDEST DUP1 CALLDATALOAD PUSH2 0x495B PUSH2 0x4159 DUP3 PUSH2 0x582B JUMP JUMPDEST DUP2 DUP2 MSTORE DUP4 DUP2 ADD SWAP1 DUP4 DUP6 ADD PUSH2 0x140 DUP1 DUP6 MUL DUP7 ADD DUP8 ADD DUP11 LT ISZERO PUSH2 0x497A JUMPI DUP8 DUP9 REVERT JUMPDEST DUP8 SWAP6 POP JUMPDEST DUP5 DUP7 LT ISZERO PUSH2 0x48A5 JUMPI PUSH2 0x4990 DUP11 DUP4 PUSH2 0x4352 JUMP JUMPDEST DUP5 MSTORE PUSH1 0x1 SWAP6 SWAP1 SWAP6 ADD SWAP5 SWAP3 DUP7 ADD SWAP3 SWAP1 DUP2 ADD SWAP1 PUSH2 0x497E JUMP JUMPDEST PUSH1 0x0 PUSH1 0x20 DUP3 DUP5 SUB SLT ISZERO PUSH2 0x49B7 JUMPI DUP1 DUP2 REVERT JUMPDEST DUP2 MLOAD PUSH2 0x2314 DUP2 PUSH2 0x5888 JUMP JUMPDEST PUSH1 0x0 DUP1 PUSH1 0x0 PUSH1 0x60 DUP5 DUP7 SUB SLT ISZERO PUSH2 0x49D6 JUMPI DUP1 DUP2 REVERT JUMPDEST DUP4 CALLDATALOAD PUSH2 0x49E1 DUP2 PUSH2 0x5888 JUMP JUMPDEST SWAP3 POP PUSH1 0x20 DUP5 ADD CALLDATALOAD PUSH2 0x49F1 DUP2 PUSH2 0x5888 JUMP JUMPDEST SWAP3 SWAP6 SWAP3 SWAP5 POP POP POP PUSH1 0x40 SWAP2 SWAP1 SWAP2 ADD CALLDATALOAD SWAP1 JUMP JUMPDEST PUSH1 0x0 PUSH2 0x180 DUP3 DUP5 SUB SLT ISZERO PUSH2 0x4A14 JUMPI DUP1 DUP2 REVERT JUMPDEST PUSH2 0x2314 DUP4 DUP4 PUSH2 0x4265 JUMP JUMPDEST PUSH1 0x0 DUP1 DUP3 DUP5 SUB PUSH2 0x200 DUP2 SLT ISZERO PUSH2 0x4A32 JUMPI DUP3 DUP4 REVERT JUMPDEST PUSH2 0x4A3C DUP6 DUP6 PUSH2 0x4265 JUMP JUMPDEST SWAP3 POP PUSH1 0x80 PUSH32 0xFFFFFFFFFFFFFFFFFFFFFFFFFFFFFFFFFFFFFFFFFFFFFFFFFFFFFFFFFFFFFE80 DUP3 ADD SLT ISZERO PUSH2 0x4A6D JUMPI DUP2 DUP3 REVERT JUMPDEST POP PUSH2 0x180 DUP4 ADD SWAP1 POP SWAP3 POP SWAP3 SWAP1 POP JUMP JUMPDEST PUSH1 0x0 DUP1 PUSH1 0x0 PUSH2 0x220 DUP5 DUP7 SUB SLT ISZERO PUSH2 0x4A91 JUMPI DUP1 DUP2 REVERT JUMPDEST PUSH2 0x4A9B DUP6 DUP6 PUSH2 0x4265 JUMP JUMPDEST SWAP3 POP PUSH2 0x4AAB DUP6 PUSH2 0x180 DUP7 ADD PUSH2 0x4419 JUMP JUMPDEST SWAP2 POP PUSH2 0x200 DUP5 ADD CALLDATALOAD PUSH2 0x4ABC DUP2 PUSH2 0x58C5 JUMP JUMPDEST DUP1 SWAP2 POP POP SWAP3 POP SWAP3 POP SWAP3 JUMP JUMPDEST PUSH1 0x0 DUP1 PUSH1 0x0 DUP1 PUSH1 0x0 PUSH2 0x260 DUP7 DUP9 SUB SLT ISZERO PUSH2 0x4ADF JUMPI DUP3 DUP4 REVERT JUMPDEST PUSH2 0x4AE9 DUP8 DUP8 PUSH2 0x4265 JUMP JUMPDEST SWAP5 POP PUSH2 0x4AF9 DUP8 PUSH2 0x180 DUP9 ADD PUSH2 0x4419 JUMP JUMPDEST SWAP4 POP PUSH2 0x200 DUP7 ADD CALLDATALOAD PUSH2 0x4B0A DUP2 PUSH2 0x58C5 JUMP JUMPDEST SWAP3 POP PUSH2 0x220 DUP7 ADD CALLDATALOAD PUSH2 0x4B1B DUP2 PUSH2 0x5888 JUMP JUMPDEST SWAP2 POP PUSH2 0x240 DUP7 ADD CALLDATALOAD PUSH2 0x4B2C DUP2 PUSH2 0x5888 JUMP JUMPDEST DUP1 SWAP2 POP POP SWAP3 SWAP6 POP SWAP3 SWAP6 SWAP1 SWAP4 POP JUMP JUMPDEST PUSH1 0x0 DUP1 PUSH1 0x0 DUP4 DUP6 SUB PUSH1 0xA0 DUP2 SLT ISZERO PUSH2 0x4B4F JUMPI DUP2 DUP3 REVERT JUMPDEST PUSH1 0x60 DUP2 SLT ISZERO PUSH2 0x4B5C JUMPI DUP2 DUP3 REVERT JUMPDEST POP PUSH2 0x4B67 PUSH1 0x60 PUSH2 0x5804 JUMP JUMPDEST DUP5 MLOAD DUP2 MSTORE PUSH1 0x20 DUP6 ADD MLOAD PUSH1 0x5 DUP2 LT PUSH2 0x4B7C JUMPI DUP3 DUP4 REVERT JUMPDEST PUSH1 0x20 DUP3 ADD MSTORE PUSH1 0x40 DUP6 ADD MLOAD PUSH2 0x4B8F DUP2 PUSH2 0x58C5 JUMP JUMPDEST PUSH1 0x40 DUP3 ADD MSTORE PUSH1 0x60 DUP6 ADD MLOAD SWAP1 SWAP4 POP PUSH2 0x4BA5 DUP2 PUSH2 0x58C5 JUMP JUMPDEST PUSH1 0x80 DUP6 ADD MLOAD SWAP1 SWAP3 POP PUSH2 0x4ABC DUP2 PUSH2 0x58AA JUMP JUMPDEST PUSH1 0x0 PUSH2 0x140 DUP3 DUP5 SUB SLT ISZERO PUSH2 0x4BC8 JUMPI DUP1 DUP2 REVERT JUMPDEST PUSH2 0x2314 DUP4 DUP4 PUSH2 0x4352 JUMP JUMPDEST PUSH1 0x0 DUP1 PUSH2 0x1C0 DUP4 DUP6 SUB SLT ISZERO PUSH2 0x4BE5 JUMPI DUP2 DUP3 REVERT JUMPDEST PUSH2 0x4BEF DUP5 DUP5 PUSH2 0x4352 JUMP JUMPDEST SWAP2 POP PUSH2 0x4BFF DUP5 PUSH2 0x140 DUP6 ADD PUSH2 0x4419 JUMP JUMPDEST SWAP1 POP SWAP3 POP SWAP3 SWAP1 POP JUMP JUMPDEST PUSH1 0x0 DUP1 PUSH1 0x0 PUSH2 0x1E0 DUP5 DUP7 SUB SLT ISZERO PUSH2 0x4C1D JUMPI DUP1 DUP2 REVERT JUMPDEST PUSH2 0x4C27 DUP6 DUP6 PUSH2 0x4352 JUMP JUMPDEST SWAP3 POP PUSH2 0x4C37 DUP6 PUSH2 0x140 DUP7 ADD PUSH2 0x4419 JUMP JUMPDEST SWAP2 POP PUSH2 0x1C0 DUP5 ADD CALLDATALOAD PUSH2 0x4ABC DUP2 PUSH2 0x58C5 JUMP JUMPDEST PUSH1 0x0 DUP1 PUSH1 0x0 DUP1 PUSH1 0x0 DUP1 PUSH2 0x240 DUP8 DUP10 SUB SLT ISZERO PUSH2 0x4C61 JUMPI DUP4 DUP5 REVERT JUMPDEST PUSH2 0x4C6B DUP9 DUP9 PUSH2 0x4352 JUMP JUMPDEST SWAP6 POP PUSH2 0x4C7B DUP9 PUSH2 0x140 DUP10 ADD PUSH2 0x4419 JUMP JUMPDEST SWAP5 POP PUSH2 0x1C0 DUP8 ADD CALLDATALOAD PUSH2 0x4C8C DUP2 PUSH2 0x58C5 JUMP JUMPDEST SWAP4 POP PUSH2 0x1E0 DUP8 ADD CALLDATALOAD PUSH2 0x4C9D DUP2 PUSH2 0x5888 JUMP JUMPDEST SWAP3 POP PUSH2 0x200 DUP8 ADD CALLDATALOAD PUSH2 0x4CAE DUP2 PUSH2 0x58AA JUMP JUMPDEST SWAP2 POP PUSH2 0x220 DUP8 ADD CALLDATALOAD PUSH2 0x4CBF DUP2 PUSH2 0x5888 JUMP JUMPDEST DUP1 SWAP2 POP POP SWAP3 SWAP6 POP SWAP3 SWAP6 POP SWAP3 SWAP6 JUMP JUMPDEST PUSH1 0x0 PUSH1 0x80 DUP3 DUP5 SUB SLT ISZERO PUSH2 0x4CDE JUMPI DUP1 DUP2 REVERT JUMPDEST PUSH2 0x2314 DUP4 DUP4 PUSH2 0x4419 JUMP JUMPDEST PUSH1 0x0 PUSH1 0x20 DUP3 DUP5 SUB SLT ISZERO PUSH2 0x4CF9 JUMPI DUP1 DUP2 REVERT JUMPDEST POP MLOAD SWAP2 SWAP1 POP JUMP JUMPDEST PUSH20 0xFFFFFFFFFFFFFFFFFFFFFFFFFFFFFFFFFFFFFFFF AND SWAP1 MSTORE JUMP JUMPDEST PUSH1 0x0 DUP2 MLOAD DUP1 DUP5 MSTORE PUSH1 0x20 DUP1 DUP6 ADD SWAP5 POP DUP1 DUP5 ADD DUP4 JUMPDEST DUP4 DUP2 LT ISZERO PUSH2 0x4D4B JUMPI DUP2 MLOAD ISZERO ISZERO DUP8 MSTORE SWAP6 DUP3 ADD SWAP6 SWAP1 DUP3 ADD SWAP1 PUSH1 0x1 ADD PUSH2 0x4D2D JUMP JUMPDEST POP SWAP5 SWAP6 SWAP5 POP POP POP POP POP JUMP JUMPDEST DUP1 MLOAD DUP3 MSTORE PUSH1 0x20 DUP2 ADD MLOAD PUSH1 0x5 DUP2 LT PUSH2 0x4D69 JUMPI INVALID JUMPDEST PUSH1 0x20 DUP4 ADD MSTORE PUSH1 0x40 SWAP1 DUP2 ADD MLOAD PUSH16 0xFFFFFFFFFFFFFFFFFFFFFFFFFFFFFFFF AND SWAP2 ADD MSTORE JUMP JUMPDEST DUP1 CALLDATALOAD PUSH2 0x4D96 DUP2 PUSH2 0x58B8 JUMP JUMPDEST PUSH2 0x4D9F DUP2 PUSH2 0x587E JUMP JUMPDEST DUP3 MSTORE PUSH1 0x20 DUP2 ADD CALLDATALOAD PUSH1 0xFF DUP2 AND DUP1 DUP3 EQ PUSH2 0x4DB6 JUMPI PUSH1 0x0 DUP1 REVERT JUMPDEST PUSH1 0x20 DUP5 ADD MSTORE POP PUSH1 0x40 DUP2 DUP2 ADD CALLDATALOAD SWAP1 DUP4 ADD MSTORE PUSH1 0x60 SWAP1 DUP2 ADD CALLDATALOAD SWAP2 ADD MSTORE JUMP JUMPDEST PUSH16 0xFFFFFFFFFFFFFFFFFFFFFFFFFFFFFFFF AND SWAP1 MSTORE JUMP JUMPDEST PUSH8 0xFFFFFFFFFFFFFFFF AND SWAP1 MSTORE JUMP JUMPDEST PUSH32 0xFF00000000000000000000000000000000000000000000000000000000000000 SWAP5 SWAP1 SWAP5 AND DUP5 MSTORE PUSH1 0x60 SWAP3 SWAP1 SWAP3 SHL PUSH32 0xFFFFFFFFFFFFFFFFFFFFFFFFFFFFFFFFFFFFFFFF000000000000000000000000 AND PUSH1 0x1 DUP5 ADD MSTORE PUSH1 0x15 DUP4 ADD MSTORE PUSH1 0x35 DUP3 ADD MSTORE PUSH1 0x55 ADD SWAP1 JUMP JUMPDEST PUSH32 0x1901000000000000000000000000000000000000000000000000000000000000 DUP2 MSTORE PUSH1 0x2 DUP2 ADD SWAP3 SWAP1 SWAP3 MSTORE PUSH1 0x22 DUP3 ADD MSTORE PUSH1 0x42 ADD SWAP1 JUMP JUMPDEST SWAP1 JUMP JUMPDEST PUSH20 0xFFFFFFFFFFFFFFFFFFFFFFFFFFFFFFFFFFFFFFFF SWAP2 SWAP1 SWAP2 AND DUP2 MSTORE PUSH1 0x20 ADD SWAP1 JUMP JUMPDEST PUSH20 0xFFFFFFFFFFFFFFFFFFFFFFFFFFFFFFFFFFFFFFFF SWAP4 DUP5 AND DUP2 MSTORE SWAP2 SWAP1 SWAP3 AND PUSH1 0x20 DUP3 ADD MSTORE PUSH1 0x40 DUP2 ADD SWAP2 SWAP1 SWAP2 MSTORE PUSH1 0x60 ADD SWAP1 JUMP JUMPDEST PUSH20 0xFFFFFFFFFFFFFFFFFFFFFFFFFFFFFFFFFFFFFFFF SWAP4 DUP5 AND DUP2 MSTORE SWAP2 SWAP1 SWAP3 AND PUSH1 0x20 DUP3 ADD MSTORE SWAP1 ISZERO ISZERO PUSH1 0x40 DUP3 ADD MSTORE PUSH1 0x60 ADD SWAP1 JUMP JUMPDEST PUSH1 0x0 PUSH1 0x60 DUP3 ADD PUSH20 0xFFFFFFFFFFFFFFFFFFFFFFFFFFFFFFFFFFFFFFFF DUP1 DUP8 AND DUP5 MSTORE PUSH1 0x20 PUSH1 0x60 DUP2 DUP7 ADD MSTORE DUP3 DUP8 MLOAD DUP1 DUP6 MSTORE PUSH1 0x80 DUP8 ADD SWAP2 POP DUP3 DUP10 ADD SWAP5 POP DUP6 JUMPDEST DUP2 DUP2 LT ISZERO PUSH2 0x4F6E JUMPI DUP6 MLOAD DUP6 AND DUP4 MSTORE SWAP5 DUP4 ADD SWAP5 SWAP2 DUP4 ADD SWAP2 PUSH1 0x1 ADD PUSH2 0x4F50 JUMP JUMPDEST POP POP DUP1 SWAP5 POP POP POP POP POP DUP3 ISZERO ISZERO PUSH1 0x40 DUP4 ADD MSTORE SWAP5 SWAP4 POP POP POP POP JUMP JUMPDEST PUSH20 0xFFFFFFFFFFFFFFFFFFFFFFFFFFFFFFFFFFFFFFFF SWAP3 DUP4 AND DUP2 MSTORE SWAP2 AND PUSH1 0x20 DUP3 ADD MSTORE PUSH1 0x40 ADD SWAP1 JUMP JUMPDEST PUSH20 0xFFFFFFFFFFFFFFFFFFFFFFFFFFFFFFFFFFFFFFFF SWAP5 DUP6 AND DUP2 MSTORE SWAP3 DUP5 AND PUSH1 0x20 DUP5 ADD MSTORE SWAP3 AND PUSH1 0x40 DUP3 ADD MSTORE PUSH1 0x60 DUP2 ADD SWAP2 SWAP1 SWAP2 MSTORE PUSH1 0x80 ADD SWAP1 JUMP JUMPDEST PUSH20 0xFFFFFFFFFFFFFFFFFFFFFFFFFFFFFFFFFFFFFFFF SWAP3 SWAP1 SWAP3 AND DUP3 MSTORE PUSH1 0x20 DUP3 ADD MSTORE PUSH1 0x40 ADD SWAP1 JUMP JUMPDEST PUSH1 0x60 DUP1 DUP3 MSTORE DUP5 MLOAD DUP3 DUP3 ADD DUP2 SWAP1 MSTORE PUSH1 0x0 SWAP2 SWAP1 PUSH1 0x20 SWAP1 PUSH1 0x80 DUP6 ADD SWAP1 DUP3 DUP10 ADD DUP6 JUMPDEST DUP3 DUP2 LT ISZERO PUSH2 0x504C JUMPI PUSH2 0x503C DUP5 DUP4 MLOAD PUSH2 0x4D56 JUMP JUMPDEST SWAP3 DUP6 ADD SWAP3 SWAP1 DUP5 ADD SWAP1 PUSH1 0x1 ADD PUSH2 0x5029 JUMP JUMPDEST POP POP POP DUP5 DUP2 SUB DUP3 DUP7 ADD MSTORE DUP7 MLOAD DUP1 DUP3 MSTORE SWAP1 DUP3 ADD SWAP3 POP DUP7 DUP3 ADD SWAP1 DUP5 JUMPDEST DUP2 DUP2 LT ISZERO PUSH2 0x5089 JUMPI PUSH2 0x5079 DUP6 DUP5 MLOAD PUSH2 0x4DD1 JUMP JUMPDEST SWAP4 DUP4 ADD SWAP4 SWAP2 DUP4 ADD SWAP2 PUSH1 0x1 ADD PUSH2 0x5066 JUMP JUMPDEST POP POP POP POP DUP3 DUP2 SUB PUSH1 0x40 DUP5 ADD MSTORE PUSH2 0x509F DUP2 DUP6 PUSH2 0x4D1A JUMP JUMPDEST SWAP7 SWAP6 POP POP POP POP POP POP JUMP JUMPDEST SWAP1 ISZERO ISZERO DUP2 MSTORE PUSH1 0x20 ADD SWAP1 JUMP JUMPDEST SWAP1 DUP2 MSTORE PUSH1 0x20 ADD SWAP1 JUMP JUMPDEST SWAP2 DUP3 MSTORE PUSH20 0xFFFFFFFFFFFFFFFFFFFFFFFFFFFFFFFFFFFFFFFF AND PUSH1 0x20 DUP3 ADD MSTORE PUSH1 0x40 ADD SWAP1 JUMP JUMPDEST SWAP3 DUP4 MSTORE PUSH20 0xFFFFFFFFFFFFFFFFFFFFFFFFFFFFFFFFFFFFFFFF SWAP2 DUP3 AND PUSH1 0x20 DUP5 ADD MSTORE AND PUSH1 0x40 DUP3 ADD MSTORE PUSH1 0x60 ADD SWAP1 JUMP JUMPDEST SWAP11 DUP12 MSTORE PUSH20 0xFFFFFFFFFFFFFFFFFFFFFFFFFFFFFFFFFFFFFFFF SWAP10 DUP11 AND PUSH1 0x20 DUP13 ADD MSTORE SWAP8 DUP10 AND PUSH1 0x40 DUP12 ADD MSTORE SWAP6 DUP9 AND PUSH1 0x60 DUP11 ADD MSTORE SWAP4 DUP8 AND PUSH1 0x80 DUP10 ADD MSTORE SWAP2 SWAP1 SWAP6 AND PUSH1 0xA0 DUP8 ADD MSTORE PUSH16 0xFFFFFFFFFFFFFFFFFFFFFFFFFFFFFFFF SWAP5 DUP6 AND PUSH1 0xC0 DUP8 ADD MSTORE DUP5 AND PUSH1 0xE0 DUP7 ADD MSTORE SWAP1 SWAP3 AND PUSH2 0x100 DUP5 ADD MSTORE PUSH2 0x120 DUP4 ADD SWAP2 SWAP1 SWAP2 MSTORE PUSH2 0x140 DUP3 ADD MSTORE PUSH2 0x160 ADD SWAP1 JUMP JUMPDEST SWAP8 DUP9 MSTORE PUSH20 0xFFFFFFFFFFFFFFFFFFFFFFFFFFFFFFFFFFFFFFFF SWAP7 DUP8 AND PUSH1 0x20 DUP10 ADD MSTORE SWAP5 DUP7 AND PUSH1 0x40 DUP9 ADD MSTORE SWAP3 DUP6 AND PUSH1 0x60 DUP8 ADD MSTORE SWAP4 AND PUSH1 0x80 DUP6 ADD MSTORE PUSH16 0xFFFFFFFFFFFFFFFFFFFFFFFFFFFFFFFF SWAP3 DUP4 AND PUSH1 0xA0 DUP6 ADD MSTORE SWAP1 SWAP2 AND PUSH1 0xC0 DUP4 ADD MSTORE PUSH1 0xE0 DUP3 ADD MSTORE PUSH2 0x100 ADD SWAP1 JUMP JUMPDEST SWAP3 DUP4 MSTORE PUSH1 0x20 DUP4 ADD SWAP2 SWAP1 SWAP2 MSTORE PUSH1 0x40 DUP3 ADD MSTORE PUSH1 0x60 ADD SWAP1 JUMP JUMPDEST SWAP2 DUP3 MSTORE PUSH1 0xFF AND PUSH1 0x20 DUP3 ADD MSTORE PUSH1 0x40 ADD SWAP1 JUMP JUMPDEST SWAP4 DUP5 MSTORE PUSH1 0xFF SWAP3 SWAP1 SWAP3 AND PUSH1 0x20 DUP5 ADD MSTORE PUSH1 0x40 DUP4 ADD MSTORE PUSH1 0x60 DUP3 ADD MSTORE PUSH1 0x80 ADD SWAP1 JUMP JUMPDEST PUSH32 0xFFFFFFFF00000000000000000000000000000000000000000000000000000000 SWAP2 SWAP1 SWAP2 AND DUP2 MSTORE PUSH1 0x20 ADD SWAP1 JUMP JUMPDEST PUSH32 0xFFFFFFFF00000000000000000000000000000000000000000000000000000000 SWAP3 SWAP1 SWAP3 AND DUP3 MSTORE PUSH20 0xFFFFFFFFFFFFFFFFFFFFFFFFFFFFFFFFFFFFFFFF AND PUSH1 0x20 DUP3 ADD MSTORE PUSH1 0x40 ADD SWAP1 JUMP JUMPDEST PUSH1 0x60 DUP2 ADD PUSH2 0x52B8 DUP6 PUSH2 0x587E JUMP JUMPDEST SWAP4 DUP2 MSTORE PUSH1 0x20 DUP2 ADD SWAP3 SWAP1 SWAP3 MSTORE PUSH1 0x40 SWAP1 SWAP2 ADD MSTORE SWAP1 JUMP JUMPDEST PUSH1 0x40 DUP2 ADD PUSH2 0x52D9 DUP5 PUSH2 0x587E JUMP JUMPDEST SWAP3 DUP2 MSTORE PUSH1 0x20 ADD MSTORE SWAP1 JUMP JUMPDEST PUSH1 0x40 DUP2 ADD PUSH1 0x6 DUP5 LT PUSH2 0x52D9 JUMPI INVALID JUMPDEST PUSH1 0x0 PUSH1 0x20 DUP1 DUP4 MSTORE DUP4 MLOAD DUP1 DUP3 DUP6 ADD MSTORE DUP3 JUMPDEST DUP2 DUP2 LT ISZERO PUSH2 0x531D JUMPI DUP6 DUP2 ADD DUP4 ADD MLOAD DUP6 DUP3 ADD PUSH1 0x40 ADD MSTORE DUP3 ADD PUSH2 0x5301 JUMP JUMPDEST DUP2 DUP2 GT ISZERO PUSH2 0x532E JUMPI DUP4 PUSH1 0x40 DUP4 DUP8 ADD ADD MSTORE JUMPDEST POP PUSH1 0x1F ADD PUSH32 0xFFFFFFFFFFFFFFFFFFFFFFFFFFFFFFFFFFFFFFFFFFFFFFFFFFFFFFFFFFFFFFE0 AND SWAP3 SWAP1 SWAP3 ADD PUSH1 0x40 ADD SWAP4 SWAP3 POP POP POP JUMP JUMPDEST PUSH1 0x20 DUP1 DUP3 MSTORE PUSH1 0x2C SWAP1 DUP3 ADD MSTORE PUSH32 0x4E61746976654F7264657273466561747572652F4D49534D4154434845445F41 PUSH1 0x40 DUP3 ADD MSTORE PUSH32 0x525241595F4C454E475448530000000000000000000000000000000000000000 PUSH1 0x60 DUP3 ADD MSTORE PUSH1 0x80 ADD SWAP1 JUMP JUMPDEST PUSH1 0x20 DUP1 DUP3 MSTORE PUSH1 0x27 SWAP1 DUP3 ADD MSTORE PUSH32 0x4E61746976654F7264657273466561747572652F4E4F5F434F4E54524143545F PUSH1 0x40 DUP3 ADD MSTORE PUSH32 0x4F524947494E5300000000000000000000000000000000000000000000000000 PUSH1 0x60 DUP3 ADD MSTORE PUSH1 0x80 ADD SWAP1 JUMP JUMPDEST PUSH1 0x20 DUP1 DUP3 MSTORE PUSH1 0x38 SWAP1 DUP3 ADD MSTORE PUSH32 0x4E61746976654F7264657273466561747572652F4D49534D4154434845445F50 PUSH1 0x40 DUP3 ADD MSTORE PUSH32 0x4149525F4F52444552535F41525241595F4C454E475448530000000000000000 PUSH1 0x60 DUP3 ADD MSTORE PUSH1 0x80 ADD SWAP1 JUMP JUMPDEST PUSH1 0x20 DUP1 DUP3 MSTORE PUSH1 0x24 SWAP1 DUP3 ADD MSTORE PUSH32 0x466978696E546F6B656E5370656E6465722F43414E4E4F545F494E564F4B455F PUSH1 0x40 DUP3 ADD MSTORE PUSH32 0x53454C4600000000000000000000000000000000000000000000000000000000 PUSH1 0x60 DUP3 ADD MSTORE PUSH1 0x80 ADD SWAP1 JUMP JUMPDEST PUSH1 0x20 DUP1 DUP3 MSTORE PUSH1 0x27 SWAP1 DUP3 ADD MSTORE PUSH32 0x466978696E50726F746F636F6C466565732F45544845525F5452414E53464552 PUSH1 0x40 DUP3 ADD MSTORE PUSH32 0x5F46414C49454400000000000000000000000000000000000000000000000000 PUSH1 0x60 DUP3 ADD MSTORE PUSH1 0x80 ADD SWAP1 JUMP JUMPDEST PUSH2 0x200 DUP2 ADD PUSH1 0x20 DUP5 ADD PUSH2 0x554F DUP4 PUSH2 0x554A DUP4 DUP9 PUSH2 0x4130 JUMP JUMPDEST PUSH2 0x4D00 JUMP JUMPDEST PUSH2 0x5559 DUP2 DUP7 PUSH2 0x584B JUMP JUMPDEST SWAP1 POP PUSH2 0x5568 PUSH1 0x20 DUP5 ADD DUP3 PUSH2 0x4D00 JUMP JUMPDEST POP PUSH2 0x5576 PUSH1 0x40 DUP6 ADD DUP6 PUSH2 0x5858 JUMP JUMPDEST PUSH2 0x5583 PUSH1 0x40 DUP5 ADD DUP3 PUSH2 0x4DD1 JUMP JUMPDEST POP PUSH2 0x5591 PUSH1 0x60 DUP6 ADD DUP6 PUSH2 0x5858 JUMP JUMPDEST PUSH2 0x559E PUSH1 0x60 DUP5 ADD DUP3 PUSH2 0x4DD1 JUMP JUMPDEST POP PUSH2 0x55AC PUSH1 0x80 DUP6 ADD DUP6 PUSH2 0x5858 JUMP JUMPDEST PUSH2 0x55B9 PUSH1 0x80 DUP5 ADD DUP3 PUSH2 0x4DD1 JUMP JUMPDEST POP PUSH2 0x55C7 PUSH1 0xA0 DUP6 ADD DUP6 PUSH2 0x584B JUMP JUMPDEST PUSH2 0x55D4 PUSH1 0xA0 DUP5 ADD DUP3 PUSH2 0x4D00 JUMP JUMPDEST POP PUSH2 0x55E2 PUSH1 0xC0 DUP6 ADD DUP6 PUSH2 0x584B JUMP JUMPDEST PUSH2 0x55EF PUSH1 0xC0 DUP5 ADD DUP3 PUSH2 0x4D00 JUMP JUMPDEST POP PUSH2 0x55FD PUSH1 0xE0 DUP6 ADD DUP6 PUSH2 0x584B JUMP JUMPDEST PUSH2 0x560A PUSH1 0xE0 DUP5 ADD DUP3 PUSH2 0x4D00 JUMP JUMPDEST POP PUSH2 0x100 PUSH2 0x561A DUP2 DUP7 ADD DUP7 PUSH2 0x584B JUMP JUMPDEST PUSH2 0x5626 DUP3 DUP6 ADD DUP3 PUSH2 0x4D00 JUMP JUMPDEST POP POP PUSH2 0x120 DUP5 DUP2 ADD CALLDATALOAD SWAP1 DUP4 ADD MSTORE PUSH2 0x140 PUSH2 0x5642 DUP2 DUP7 ADD DUP7 PUSH2 0x5865 JUMP JUMPDEST PUSH2 0x564E DUP3 DUP6 ADD DUP3 PUSH2 0x4DE7 JUMP JUMPDEST POP POP PUSH2 0x160 DUP5 DUP2 ADD CALLDATALOAD SWAP1 DUP4 ADD MSTORE PUSH2 0x2314 PUSH2 0x180 DUP4 ADD DUP5 PUSH2 0x4D8B JUMP JUMPDEST PUSH1 0x60 DUP2 ADD PUSH2 0xD0F DUP3 DUP5 PUSH2 0x4D56 JUMP JUMPDEST PUSH1 0xA0 DUP2 ADD PUSH2 0x5685 DUP3 DUP7 PUSH2 0x4D56 JUMP JUMPDEST PUSH16 0xFFFFFFFFFFFFFFFFFFFFFFFFFFFFFFFF DUP5 AND PUSH1 0x60 DUP4 ADD MSTORE DUP3 ISZERO ISZERO PUSH1 0x80 DUP4 ADD MSTORE SWAP5 SWAP4 POP POP POP POP JUMP JUMPDEST PUSH2 0x1C0 DUP2 ADD PUSH1 0x20 DUP5 ADD PUSH2 0x56C4 DUP4 PUSH2 0x554A DUP4 DUP9 PUSH2 0x4130 JUMP JUMPDEST PUSH2 0x56CE DUP2 DUP7 PUSH2 0x584B JUMP JUMPDEST SWAP1 POP PUSH2 0x56DD PUSH1 0x20 DUP5 ADD DUP3 PUSH2 0x4D00 JUMP JUMPDEST POP PUSH2 0x56EB PUSH1 0x40 DUP6 ADD DUP6 PUSH2 0x5858 JUMP JUMPDEST PUSH2 0x56F8 PUSH1 0x40 DUP5 ADD DUP3 PUSH2 0x4DD1 JUMP JUMPDEST POP PUSH2 0x5706 PUSH1 0x60 DUP6 ADD DUP6 PUSH2 0x5858 JUMP JUMPDEST PUSH2 0x5713 PUSH1 0x60 DUP5 ADD DUP3 PUSH2 0x4DD1 JUMP JUMPDEST POP PUSH2 0x5721 PUSH1 0x80 DUP6 ADD DUP6 PUSH2 0x584B JUMP JUMPDEST PUSH2 0x572E PUSH1 0x80 DUP5 ADD DUP3 PUSH2 0x4D00 JUMP JUMPDEST POP PUSH2 0x573C PUSH1 0xA0 DUP6 ADD DUP6 PUSH2 0x584B JUMP JUMPDEST PUSH2 0x5749 PUSH1 0xA0 DUP5 ADD DUP3 PUSH2 0x4D00 JUMP JUMPDEST POP PUSH2 0x5757 PUSH1 0xC0 DUP6 ADD DUP6 PUSH2 0x584B JUMP JUMPDEST PUSH2 0x5764 PUSH1 0xC0 DUP5 ADD DUP3 PUSH2 0x4D00 JUMP JUMPDEST POP PUSH1 0xE0 DUP5 ADD CALLDATALOAD PUSH1 0xE0 DUP4 ADD MSTORE PUSH2 0x100 PUSH2 0x577E DUP2 DUP7 ADD DUP7 PUSH2 0x5865 JUMP JUMPDEST PUSH2 0x578A DUP3 DUP6 ADD DUP3 PUSH2 0x4DE7 JUMP JUMPDEST POP POP PUSH2 0x120 DUP5 DUP2 ADD CALLDATALOAD SWAP1 DUP4 ADD MSTORE PUSH2 0x2314 PUSH2 0x140 DUP4 ADD DUP5 PUSH2 0x4D8B JUMP JUMPDEST PUSH16 0xFFFFFFFFFFFFFFFFFFFFFFFFFFFFFFFF SWAP2 SWAP1 SWAP2 AND DUP2 MSTORE PUSH1 0x20 ADD SWAP1 JUMP JUMPDEST PUSH16 0xFFFFFFFFFFFFFFFFFFFFFFFFFFFFFFFF SWAP3 DUP4 AND DUP2 MSTORE SWAP2 AND PUSH1 0x20 DUP3 ADD MSTORE PUSH1 0x40 ADD SWAP1 JUMP JUMPDEST SWAP2 DUP3 MSTORE PUSH1 0x20 DUP3 ADD MSTORE PUSH1 0x40 ADD SWAP1 JUMP JUMPDEST PUSH4 0xFFFFFFFF SWAP2 SWAP1 SWAP2 AND DUP2 MSTORE PUSH1 0x20 ADD SWAP1 JUMP JUMPDEST PUSH1 0x40 MLOAD DUP2 DUP2 ADD PUSH8 0xFFFFFFFFFFFFFFFF DUP2 GT DUP3 DUP3 LT OR ISZERO PUSH2 0x5823 JUMPI PUSH1 0x0 DUP1 REVERT JUMPDEST PUSH1 0x40 MSTORE SWAP2 SWAP1 POP JUMP JUMPDEST PUSH1 0x0 PUSH8 0xFFFFFFFFFFFFFFFF DUP3 GT ISZERO PUSH2 0x5841 JUMPI DUP1 DUP2 REVERT JUMPDEST POP PUSH1 0x20 SWAP1 DUP2 MUL ADD SWAP1 JUMP JUMPDEST PUSH1 0x0 DUP3 CALLDATALOAD PUSH2 0x2314 DUP2 PUSH2 0x5888 JUMP JUMPDEST PUSH1 0x0 DUP3 CALLDATALOAD PUSH2 0x2314 DUP2 PUSH2 0x58C5 JUMP JUMPDEST PUSH1 0x0 DUP3 CALLDATALOAD PUSH8 0xFFFFFFFFFFFFFFFF DUP2 AND DUP2 EQ PUSH2 0x2314 JUMPI DUP2 DUP3 REVERT JUMPDEST PUSH1 0x4 DUP2 LT PUSH2 0x3363 JUMPI INVALID JUMPDEST PUSH20 0xFFFFFFFFFFFFFFFFFFFFFFFFFFFFFFFFFFFFFFFF DUP2 AND DUP2 EQ PUSH2 0x3363 JUMPI PUSH1 0x0 DUP1 REVERT JUMPDEST DUP1 ISZERO ISZERO DUP2 EQ PUSH2 0x3363 JUMPI PUSH1 0x0 DUP1 REVERT JUMPDEST PUSH1 0x4 DUP2 LT PUSH2 0x3363 JUMPI PUSH1 0x0 DUP1 REVERT JUMPDEST PUSH16 0xFFFFFFFFFFFFFFFFFFFFFFFFFFFFFFFF DUP2 AND DUP2 EQ PUSH2 0x3363 JUMPI PUSH1 0x0 DUP1 REVERT INVALID LOG2 PUSH5 0x6970667358 0x22 SLT KECCAK256 0xDD 0xF7 0xF9 0xC9 0xD6 0x5F 0xE4 0x5E PUSH9 0x98B05CD3959D4948CB 0x4D MLOAD 0xEE 0xED SWAP9 PUSH11 0x1F1C5828747C46C364736F PUSH13 0x634300060C0033000000000000 "
            },
            "methodIdentifiers": {
                "EIP712_DOMAIN_SEPARATOR()": "dab400f3",
                "FEATURE_NAME()": "6ae4b4f7",
                "FEATURE_VERSION()": "031b905c",
                "PROTOCOL_FEE_MULTIPLIER()": "a0edcef5",
                "_fillLimitOrder((address,address,uint128,uint128,uint128,address,address,address,address,bytes32,uint64,uint256),(uint8,uint8,bytes32,bytes32),uint128,address,address)": "414e4ccf",
                "_fillRfqOrder((address,address,uint128,uint128,address,address,address,bytes32,uint64,uint256),(uint8,uint8,bytes32,bytes32),uint128,address,bool,address)": "aa6b21cd",
                "batchCancelLimitOrders((address,address,uint128,uint128,uint128,address,address,address,address,bytes32,uint64,uint256)[])": "9baa45a8",
                "batchCancelPairLimitOrders(address[],address[],uint256[])": "86a0c8d7",
                "batchCancelPairLimitOrdersWithSigner(address,address[],address[],uint256[])": "9f0434f5",
                "batchCancelPairRfqOrders(address[],address[],uint256[])": "0f0e8cf7",
                "batchCancelPairRfqOrdersWithSigner(address,address[],address[],uint256[])": "fd5f995b",
                "batchCancelRfqOrders((address,address,uint128,uint128,address,address,address,bytes32,uint64,uint256)[])": "f6e0f6a5",
                "batchGetLimitOrderRelevantStates((address,address,uint128,uint128,uint128,address,address,address,address,bytes32,uint64,uint256)[],(uint8,uint8,bytes32,bytes32)[])": "b4658bfb",
                "batchGetRfqOrderRelevantStates((address,address,uint128,uint128,address,address,address,bytes32,uint64,uint256)[],(uint8,uint8,bytes32,bytes32)[])": "ad354eeb",
                "cancelLimitOrder((address,address,uint128,uint128,uint128,address,address,address,address,bytes32,uint64,uint256))": "7d49ec1a",
                "cancelPairLimitOrders(address,address,uint256)": "d0a55fb0",
                "cancelPairLimitOrdersWithSigner(address,address,address,uint256)": "b10a33f4",
                "cancelPairRfqOrders(address,address,uint256)": "9a4f809c",
                "cancelPairRfqOrdersWithSigner(address,address,address,uint256)": "935c82a4",
                "cancelRfqOrder((address,address,uint128,uint128,address,address,address,bytes32,uint64,uint256))": "fe55a3ef",
                "fillLimitOrder((address,address,uint128,uint128,uint128,address,address,address,address,bytes32,uint64,uint256),(uint8,uint8,bytes32,bytes32),uint128)": "f6274f66",
                "fillOrKillLimitOrder((address,address,uint128,uint128,uint128,address,address,address,address,bytes32,uint64,uint256),(uint8,uint8,bytes32,bytes32),uint128)": "9240529c",
                "fillOrKillRfqOrder((address,address,uint128,uint128,address,address,address,bytes32,uint64,uint256),(uint8,uint8,bytes32,bytes32),uint128)": "438cdfc5",
                "fillRfqOrder((address,address,uint128,uint128,address,address,address,bytes32,uint64,uint256),(uint8,uint8,bytes32,bytes32),uint128)": "aa77476c",
                "getLimitOrderHash((address,address,uint128,uint128,uint128,address,address,address,address,bytes32,uint64,uint256))": "dd11d225",
                "getLimitOrderInfo((address,address,uint128,uint128,uint128,address,address,address,address,bytes32,uint64,uint256))": "95480889",
                "getLimitOrderRelevantState((address,address,uint128,uint128,uint128,address,address,address,address,bytes32,uint64,uint256),(uint8,uint8,bytes32,bytes32))": "1fb09795",
                "getProtocolFeeMultiplier()": "487b5c20",
                "getRfqOrderHash((address,address,uint128,uint128,address,address,address,bytes32,uint64,uint256))": "016a6d65",
                "getRfqOrderInfo((address,address,uint128,uint128,address,address,address,bytes32,uint64,uint256))": "346693c5",
                "getRfqOrderRelevantState((address,address,uint128,uint128,address,address,address,bytes32,uint64,uint256),(uint8,uint8,bytes32,bytes32))": "37f381d8",
                "isValidOrderSigner(address,address)": "6b52a4a8",
                "migrate()": "8fd3ab80",
                "registerAllowedOrderSigner(address,bool)": "ea7faa61",
                "registerAllowedRfqOrigins(address[],bool)": "b09f1fb1",
                "transferProtocolFeesForPools(bytes32[])": "3cd2f026"
            }
        }
    },
    "sourceTreeHashHex": "0x9725e9efb8785e035b7be65c943815b11de7f3d3a2faf19a1b9bf8142bcb2504",
    "compiler": {
        "name": "solc",
        "version": "0.6.12+commit.27d51765",
        "settings": {
            "remappings": [
                "@0x/contracts-utils=/home/runner/work/protocol/protocol/node_modules/@0x/contracts-utils",
                "@0x/contracts-erc20=/home/runner/work/protocol/protocol/contracts/zero-ex/node_modules/@0x/contracts-erc20"
            ],
            "optimizer": {
                "enabled": true,
                "runs": 1000000,
                "details": {
                    "yul": true,
                    "deduplicate": true,
                    "cse": true,
                    "constantOptimizer": true
                }
            },
            "outputSelection": {
                "*": {
                    "*": [
                        "abi",
                        "devdoc",
                        "evm.bytecode.object",
                        "evm.bytecode.sourceMap",
                        "evm.deployedBytecode.object",
                        "evm.deployedBytecode.sourceMap",
                        "evm.methodIdentifiers"
                    ]
                }
            },
            "evmVersion": "istanbul"
        }
    },
    "chains": {}
}