{
    "schemaVersion": "2.0.0",
    "contractName": "OtcOrdersFeature",
    "compilerOutput": {
        "abi": [
            {
                "inputs": [
                    {
                        "internalType": "address",
                        "name": "zeroExAddress",
                        "type": "address"
                    },
                    {
                        "internalType": "contract IEtherTokenV06",
                        "name": "weth",
                        "type": "address"
                    }
                ],
                "stateMutability": "nonpayable",
                "type": "constructor"
            },
            {
                "anonymous": false,
                "inputs": [
                    {
                        "indexed": false,
                        "internalType": "bytes32",
                        "name": "orderHash",
                        "type": "bytes32"
                    },
                    {
                        "indexed": false,
                        "internalType": "address",
                        "name": "maker",
                        "type": "address"
                    },
                    {
                        "indexed": false,
                        "internalType": "address",
                        "name": "taker",
                        "type": "address"
                    },
                    {
                        "indexed": false,
                        "internalType": "address",
                        "name": "makerToken",
                        "type": "address"
                    },
                    {
                        "indexed": false,
                        "internalType": "address",
                        "name": "takerToken",
                        "type": "address"
                    },
                    {
                        "indexed": false,
                        "internalType": "uint128",
                        "name": "makerTokenFilledAmount",
                        "type": "uint128"
                    },
                    {
                        "indexed": false,
                        "internalType": "uint128",
                        "name": "takerTokenFilledAmount",
                        "type": "uint128"
                    }
                ],
                "name": "OtcOrderFilled",
                "type": "event"
            },
            {
                "inputs": [],
                "name": "EIP712_DOMAIN_SEPARATOR",
                "outputs": [
                    {
                        "internalType": "bytes32",
                        "name": "",
                        "type": "bytes32"
                    }
                ],
                "stateMutability": "view",
                "type": "function"
            },
            {
                "inputs": [],
                "name": "FEATURE_NAME",
                "outputs": [
                    {
                        "internalType": "string",
                        "name": "",
                        "type": "string"
                    }
                ],
                "stateMutability": "view",
                "type": "function"
            },
            {
                "inputs": [],
                "name": "FEATURE_VERSION",
                "outputs": [
                    {
                        "internalType": "uint256",
                        "name": "",
                        "type": "uint256"
                    }
                ],
                "stateMutability": "view",
                "type": "function"
            },
            {
                "inputs": [
                    {
                        "components": [
                            {
                                "internalType": "contract IERC20TokenV06",
                                "name": "makerToken",
                                "type": "address"
                            },
                            {
                                "internalType": "contract IERC20TokenV06",
                                "name": "takerToken",
                                "type": "address"
                            },
                            {
                                "internalType": "uint128",
                                "name": "makerAmount",
                                "type": "uint128"
                            },
                            {
                                "internalType": "uint128",
                                "name": "takerAmount",
                                "type": "uint128"
                            },
                            {
                                "internalType": "address",
                                "name": "maker",
                                "type": "address"
                            },
                            {
                                "internalType": "address",
                                "name": "taker",
                                "type": "address"
                            },
                            {
                                "internalType": "address",
                                "name": "txOrigin",
                                "type": "address"
                            },
                            {
                                "internalType": "uint256",
                                "name": "expiryAndNonce",
                                "type": "uint256"
                            }
                        ],
                        "internalType": "struct LibNativeOrder.OtcOrder",
                        "name": "order",
                        "type": "tuple"
                    },
                    {
                        "components": [
                            {
                                "internalType": "enum LibSignature.SignatureType",
                                "name": "signatureType",
                                "type": "uint8"
                            },
                            {
                                "internalType": "uint8",
                                "name": "v",
                                "type": "uint8"
                            },
                            {
                                "internalType": "bytes32",
                                "name": "r",
                                "type": "bytes32"
                            },
                            {
                                "internalType": "bytes32",
                                "name": "s",
                                "type": "bytes32"
                            }
                        ],
                        "internalType": "struct LibSignature.Signature",
                        "name": "makerSignature",
                        "type": "tuple"
                    },
                    {
                        "internalType": "uint128",
                        "name": "takerTokenFillAmount",
                        "type": "uint128"
                    },
                    {
                        "internalType": "address",
                        "name": "taker",
                        "type": "address"
                    },
                    {
                        "internalType": "bool",
                        "name": "useSelfBalance",
                        "type": "bool"
                    },
                    {
                        "internalType": "address",
                        "name": "recipient",
                        "type": "address"
                    }
                ],
                "name": "_fillOtcOrder",
                "outputs": [
                    {
                        "internalType": "uint128",
                        "name": "takerTokenFilledAmount",
                        "type": "uint128"
                    },
                    {
                        "internalType": "uint128",
                        "name": "makerTokenFilledAmount",
                        "type": "uint128"
                    }
                ],
                "stateMutability": "nonpayable",
                "type": "function"
            },
            {
                "inputs": [
                    {
                        "components": [
                            {
                                "internalType": "contract IERC20TokenV06",
                                "name": "makerToken",
                                "type": "address"
                            },
                            {
                                "internalType": "contract IERC20TokenV06",
                                "name": "takerToken",
                                "type": "address"
                            },
                            {
                                "internalType": "uint128",
                                "name": "makerAmount",
                                "type": "uint128"
                            },
                            {
                                "internalType": "uint128",
                                "name": "takerAmount",
                                "type": "uint128"
                            },
                            {
                                "internalType": "address",
                                "name": "maker",
                                "type": "address"
                            },
                            {
                                "internalType": "address",
                                "name": "taker",
                                "type": "address"
                            },
                            {
                                "internalType": "address",
                                "name": "txOrigin",
                                "type": "address"
                            },
                            {
                                "internalType": "uint256",
                                "name": "expiryAndNonce",
                                "type": "uint256"
                            }
                        ],
                        "internalType": "struct LibNativeOrder.OtcOrder[]",
                        "name": "orders",
                        "type": "tuple[]"
                    },
                    {
                        "components": [
                            {
                                "internalType": "enum LibSignature.SignatureType",
                                "name": "signatureType",
                                "type": "uint8"
                            },
                            {
                                "internalType": "uint8",
                                "name": "v",
                                "type": "uint8"
                            },
                            {
                                "internalType": "bytes32",
                                "name": "r",
                                "type": "bytes32"
                            },
                            {
                                "internalType": "bytes32",
                                "name": "s",
                                "type": "bytes32"
                            }
                        ],
                        "internalType": "struct LibSignature.Signature[]",
                        "name": "makerSignatures",
                        "type": "tuple[]"
                    },
                    {
                        "components": [
                            {
                                "internalType": "enum LibSignature.SignatureType",
                                "name": "signatureType",
                                "type": "uint8"
                            },
                            {
                                "internalType": "uint8",
                                "name": "v",
                                "type": "uint8"
                            },
                            {
                                "internalType": "bytes32",
                                "name": "r",
                                "type": "bytes32"
                            },
                            {
                                "internalType": "bytes32",
                                "name": "s",
                                "type": "bytes32"
                            }
                        ],
                        "internalType": "struct LibSignature.Signature[]",
                        "name": "takerSignatures",
                        "type": "tuple[]"
                    },
                    {
                        "internalType": "bool[]",
                        "name": "unwrapWeth",
                        "type": "bool[]"
                    }
                ],
                "name": "batchFillTakerSignedOtcOrders",
                "outputs": [
                    {
                        "internalType": "bool[]",
                        "name": "successes",
                        "type": "bool[]"
                    }
                ],
                "stateMutability": "nonpayable",
                "type": "function"
            },
            {
                "inputs": [
                    {
                        "components": [
                            {
                                "internalType": "contract IERC20TokenV06",
                                "name": "makerToken",
                                "type": "address"
                            },
                            {
                                "internalType": "contract IERC20TokenV06",
                                "name": "takerToken",
                                "type": "address"
                            },
                            {
                                "internalType": "uint128",
                                "name": "makerAmount",
                                "type": "uint128"
                            },
                            {
                                "internalType": "uint128",
                                "name": "takerAmount",
                                "type": "uint128"
                            },
                            {
                                "internalType": "address",
                                "name": "maker",
                                "type": "address"
                            },
                            {
                                "internalType": "address",
                                "name": "taker",
                                "type": "address"
                            },
                            {
                                "internalType": "address",
                                "name": "txOrigin",
                                "type": "address"
                            },
                            {
                                "internalType": "uint256",
                                "name": "expiryAndNonce",
                                "type": "uint256"
                            }
                        ],
                        "internalType": "struct LibNativeOrder.OtcOrder",
                        "name": "order",
                        "type": "tuple"
                    },
                    {
                        "components": [
                            {
                                "internalType": "enum LibSignature.SignatureType",
                                "name": "signatureType",
                                "type": "uint8"
                            },
                            {
                                "internalType": "uint8",
                                "name": "v",
                                "type": "uint8"
                            },
                            {
                                "internalType": "bytes32",
                                "name": "r",
                                "type": "bytes32"
                            },
                            {
                                "internalType": "bytes32",
                                "name": "s",
                                "type": "bytes32"
                            }
                        ],
                        "internalType": "struct LibSignature.Signature",
                        "name": "makerSignature",
                        "type": "tuple"
                    },
                    {
                        "internalType": "uint128",
                        "name": "takerTokenFillAmount",
                        "type": "uint128"
                    }
                ],
                "name": "fillOtcOrder",
                "outputs": [
                    {
                        "internalType": "uint128",
                        "name": "takerTokenFilledAmount",
                        "type": "uint128"
                    },
                    {
                        "internalType": "uint128",
                        "name": "makerTokenFilledAmount",
                        "type": "uint128"
                    }
                ],
                "stateMutability": "nonpayable",
                "type": "function"
            },
            {
                "inputs": [
                    {
                        "components": [
                            {
                                "internalType": "contract IERC20TokenV06",
                                "name": "makerToken",
                                "type": "address"
                            },
                            {
                                "internalType": "contract IERC20TokenV06",
                                "name": "takerToken",
                                "type": "address"
                            },
                            {
                                "internalType": "uint128",
                                "name": "makerAmount",
                                "type": "uint128"
                            },
                            {
                                "internalType": "uint128",
                                "name": "takerAmount",
                                "type": "uint128"
                            },
                            {
                                "internalType": "address",
                                "name": "maker",
                                "type": "address"
                            },
                            {
                                "internalType": "address",
                                "name": "taker",
                                "type": "address"
                            },
                            {
                                "internalType": "address",
                                "name": "txOrigin",
                                "type": "address"
                            },
                            {
                                "internalType": "uint256",
                                "name": "expiryAndNonce",
                                "type": "uint256"
                            }
                        ],
                        "internalType": "struct LibNativeOrder.OtcOrder",
                        "name": "order",
                        "type": "tuple"
                    },
                    {
                        "components": [
                            {
                                "internalType": "enum LibSignature.SignatureType",
                                "name": "signatureType",
                                "type": "uint8"
                            },
                            {
                                "internalType": "uint8",
                                "name": "v",
                                "type": "uint8"
                            },
                            {
                                "internalType": "bytes32",
                                "name": "r",
                                "type": "bytes32"
                            },
                            {
                                "internalType": "bytes32",
                                "name": "s",
                                "type": "bytes32"
                            }
                        ],
                        "internalType": "struct LibSignature.Signature",
                        "name": "makerSignature",
                        "type": "tuple"
                    },
                    {
                        "internalType": "uint128",
                        "name": "takerTokenFillAmount",
                        "type": "uint128"
                    }
                ],
                "name": "fillOtcOrderForEth",
                "outputs": [
                    {
                        "internalType": "uint128",
                        "name": "takerTokenFilledAmount",
                        "type": "uint128"
                    },
                    {
                        "internalType": "uint128",
                        "name": "makerTokenFilledAmount",
                        "type": "uint128"
                    }
                ],
                "stateMutability": "nonpayable",
                "type": "function"
            },
            {
                "inputs": [
                    {
                        "components": [
                            {
                                "internalType": "contract IERC20TokenV06",
                                "name": "makerToken",
                                "type": "address"
                            },
                            {
                                "internalType": "contract IERC20TokenV06",
                                "name": "takerToken",
                                "type": "address"
                            },
                            {
                                "internalType": "uint128",
                                "name": "makerAmount",
                                "type": "uint128"
                            },
                            {
                                "internalType": "uint128",
                                "name": "takerAmount",
                                "type": "uint128"
                            },
                            {
                                "internalType": "address",
                                "name": "maker",
                                "type": "address"
                            },
                            {
                                "internalType": "address",
                                "name": "taker",
                                "type": "address"
                            },
                            {
                                "internalType": "address",
                                "name": "txOrigin",
                                "type": "address"
                            },
                            {
                                "internalType": "uint256",
                                "name": "expiryAndNonce",
                                "type": "uint256"
                            }
                        ],
                        "internalType": "struct LibNativeOrder.OtcOrder",
                        "name": "order",
                        "type": "tuple"
                    },
                    {
                        "components": [
                            {
                                "internalType": "enum LibSignature.SignatureType",
                                "name": "signatureType",
                                "type": "uint8"
                            },
                            {
                                "internalType": "uint8",
                                "name": "v",
                                "type": "uint8"
                            },
                            {
                                "internalType": "bytes32",
                                "name": "r",
                                "type": "bytes32"
                            },
                            {
                                "internalType": "bytes32",
                                "name": "s",
                                "type": "bytes32"
                            }
                        ],
                        "internalType": "struct LibSignature.Signature",
                        "name": "makerSignature",
                        "type": "tuple"
                    }
                ],
                "name": "fillOtcOrderWithEth",
                "outputs": [
                    {
                        "internalType": "uint128",
                        "name": "takerTokenFilledAmount",
                        "type": "uint128"
                    },
                    {
                        "internalType": "uint128",
                        "name": "makerTokenFilledAmount",
                        "type": "uint128"
                    }
                ],
                "stateMutability": "payable",
                "type": "function"
            },
            {
                "inputs": [
                    {
                        "components": [
                            {
                                "internalType": "contract IERC20TokenV06",
                                "name": "makerToken",
                                "type": "address"
                            },
                            {
                                "internalType": "contract IERC20TokenV06",
                                "name": "takerToken",
                                "type": "address"
                            },
                            {
                                "internalType": "uint128",
                                "name": "makerAmount",
                                "type": "uint128"
                            },
                            {
                                "internalType": "uint128",
                                "name": "takerAmount",
                                "type": "uint128"
                            },
                            {
                                "internalType": "address",
                                "name": "maker",
                                "type": "address"
                            },
                            {
                                "internalType": "address",
                                "name": "taker",
                                "type": "address"
                            },
                            {
                                "internalType": "address",
                                "name": "txOrigin",
                                "type": "address"
                            },
                            {
                                "internalType": "uint256",
                                "name": "expiryAndNonce",
                                "type": "uint256"
                            }
                        ],
                        "internalType": "struct LibNativeOrder.OtcOrder",
                        "name": "order",
                        "type": "tuple"
                    },
                    {
                        "components": [
                            {
                                "internalType": "enum LibSignature.SignatureType",
                                "name": "signatureType",
                                "type": "uint8"
                            },
                            {
                                "internalType": "uint8",
                                "name": "v",
                                "type": "uint8"
                            },
                            {
                                "internalType": "bytes32",
                                "name": "r",
                                "type": "bytes32"
                            },
                            {
                                "internalType": "bytes32",
                                "name": "s",
                                "type": "bytes32"
                            }
                        ],
                        "internalType": "struct LibSignature.Signature",
                        "name": "makerSignature",
                        "type": "tuple"
                    },
                    {
                        "components": [
                            {
                                "internalType": "enum LibSignature.SignatureType",
                                "name": "signatureType",
                                "type": "uint8"
                            },
                            {
                                "internalType": "uint8",
                                "name": "v",
                                "type": "uint8"
                            },
                            {
                                "internalType": "bytes32",
                                "name": "r",
                                "type": "bytes32"
                            },
                            {
                                "internalType": "bytes32",
                                "name": "s",
                                "type": "bytes32"
                            }
                        ],
                        "internalType": "struct LibSignature.Signature",
                        "name": "takerSignature",
                        "type": "tuple"
                    }
                ],
                "name": "fillTakerSignedOtcOrder",
                "outputs": [],
                "stateMutability": "nonpayable",
                "type": "function"
            },
            {
                "inputs": [
                    {
                        "components": [
                            {
                                "internalType": "contract IERC20TokenV06",
                                "name": "makerToken",
                                "type": "address"
                            },
                            {
                                "internalType": "contract IERC20TokenV06",
                                "name": "takerToken",
                                "type": "address"
                            },
                            {
                                "internalType": "uint128",
                                "name": "makerAmount",
                                "type": "uint128"
                            },
                            {
                                "internalType": "uint128",
                                "name": "takerAmount",
                                "type": "uint128"
                            },
                            {
                                "internalType": "address",
                                "name": "maker",
                                "type": "address"
                            },
                            {
                                "internalType": "address",
                                "name": "taker",
                                "type": "address"
                            },
                            {
                                "internalType": "address",
                                "name": "txOrigin",
                                "type": "address"
                            },
                            {
                                "internalType": "uint256",
                                "name": "expiryAndNonce",
                                "type": "uint256"
                            }
                        ],
                        "internalType": "struct LibNativeOrder.OtcOrder",
                        "name": "order",
                        "type": "tuple"
                    },
                    {
                        "components": [
                            {
                                "internalType": "enum LibSignature.SignatureType",
                                "name": "signatureType",
                                "type": "uint8"
                            },
                            {
                                "internalType": "uint8",
                                "name": "v",
                                "type": "uint8"
                            },
                            {
                                "internalType": "bytes32",
                                "name": "r",
                                "type": "bytes32"
                            },
                            {
                                "internalType": "bytes32",
                                "name": "s",
                                "type": "bytes32"
                            }
                        ],
                        "internalType": "struct LibSignature.Signature",
                        "name": "makerSignature",
                        "type": "tuple"
                    },
                    {
                        "components": [
                            {
                                "internalType": "enum LibSignature.SignatureType",
                                "name": "signatureType",
                                "type": "uint8"
                            },
                            {
                                "internalType": "uint8",
                                "name": "v",
                                "type": "uint8"
                            },
                            {
                                "internalType": "bytes32",
                                "name": "r",
                                "type": "bytes32"
                            },
                            {
                                "internalType": "bytes32",
                                "name": "s",
                                "type": "bytes32"
                            }
                        ],
                        "internalType": "struct LibSignature.Signature",
                        "name": "takerSignature",
                        "type": "tuple"
                    }
                ],
                "name": "fillTakerSignedOtcOrderForEth",
                "outputs": [],
                "stateMutability": "nonpayable",
                "type": "function"
            },
            {
                "inputs": [
                    {
                        "components": [
                            {
                                "internalType": "contract IERC20TokenV06",
                                "name": "makerToken",
                                "type": "address"
                            },
                            {
                                "internalType": "contract IERC20TokenV06",
                                "name": "takerToken",
                                "type": "address"
                            },
                            {
                                "internalType": "uint128",
                                "name": "makerAmount",
                                "type": "uint128"
                            },
                            {
                                "internalType": "uint128",
                                "name": "takerAmount",
                                "type": "uint128"
                            },
                            {
                                "internalType": "address",
                                "name": "maker",
                                "type": "address"
                            },
                            {
                                "internalType": "address",
                                "name": "taker",
                                "type": "address"
                            },
                            {
                                "internalType": "address",
                                "name": "txOrigin",
                                "type": "address"
                            },
                            {
                                "internalType": "uint256",
                                "name": "expiryAndNonce",
                                "type": "uint256"
                            }
                        ],
                        "internalType": "struct LibNativeOrder.OtcOrder",
                        "name": "order",
                        "type": "tuple"
                    }
                ],
                "name": "getOtcOrderHash",
                "outputs": [
                    {
                        "internalType": "bytes32",
                        "name": "orderHash",
                        "type": "bytes32"
                    }
                ],
                "stateMutability": "view",
                "type": "function"
            },
            {
                "inputs": [
                    {
                        "components": [
                            {
                                "internalType": "contract IERC20TokenV06",
                                "name": "makerToken",
                                "type": "address"
                            },
                            {
                                "internalType": "contract IERC20TokenV06",
                                "name": "takerToken",
                                "type": "address"
                            },
                            {
                                "internalType": "uint128",
                                "name": "makerAmount",
                                "type": "uint128"
                            },
                            {
                                "internalType": "uint128",
                                "name": "takerAmount",
                                "type": "uint128"
                            },
                            {
                                "internalType": "address",
                                "name": "maker",
                                "type": "address"
                            },
                            {
                                "internalType": "address",
                                "name": "taker",
                                "type": "address"
                            },
                            {
                                "internalType": "address",
                                "name": "txOrigin",
                                "type": "address"
                            },
                            {
                                "internalType": "uint256",
                                "name": "expiryAndNonce",
                                "type": "uint256"
                            }
                        ],
                        "internalType": "struct LibNativeOrder.OtcOrder",
                        "name": "order",
                        "type": "tuple"
                    }
                ],
                "name": "getOtcOrderInfo",
                "outputs": [
                    {
                        "components": [
                            {
                                "internalType": "bytes32",
                                "name": "orderHash",
                                "type": "bytes32"
                            },
                            {
                                "internalType": "enum LibNativeOrder.OrderStatus",
                                "name": "status",
                                "type": "uint8"
                            }
                        ],
                        "internalType": "struct LibNativeOrder.OtcOrderInfo",
                        "name": "orderInfo",
                        "type": "tuple"
                    }
                ],
                "stateMutability": "view",
                "type": "function"
            },
            {
                "inputs": [
                    {
                        "internalType": "address",
                        "name": "txOrigin",
                        "type": "address"
                    },
                    {
                        "internalType": "uint64",
                        "name": "nonceBucket",
                        "type": "uint64"
                    }
                ],
                "name": "lastOtcTxOriginNonce",
                "outputs": [
                    {
                        "internalType": "uint128",
                        "name": "lastNonce",
                        "type": "uint128"
                    }
                ],
                "stateMutability": "view",
                "type": "function"
            },
            {
                "inputs": [],
                "name": "migrate",
                "outputs": [
                    {
                        "internalType": "bytes4",
                        "name": "success",
                        "type": "bytes4"
                    }
                ],
                "stateMutability": "nonpayable",
                "type": "function"
            }
        ],
        "devdoc": {
            "details": "Feature for interacting with OTC orders.",
            "kind": "dev",
            "methods": {
                "_fillOtcOrder((address,address,uint128,uint128,address,address,address,uint256),(uint8,uint8,bytes32,bytes32),uint128,address,bool,address)": {
                    "details": "Fill an OTC order for up to `takerTokenFillAmount` taker tokens.      Internal variant.",
                    "params": {
                        "makerSignature": "The order signature from the maker.",
                        "order": "The OTC order.",
                        "recipient": "The recipient of the bought maker tokens.",
                        "taker": "The address to fill the order in the context of.",
                        "takerTokenFillAmount": "Maximum taker token amount to fill this        order with.",
                        "useSelfBalance": "Whether to use the Exchange Proxy's balance        of input tokens."
                    },
                    "returns": {
                        "makerTokenFilledAmount": "How much maker token was filled.",
                        "takerTokenFilledAmount": "How much taker token was filled."
                    }
                },
                "batchFillTakerSignedOtcOrders((address,address,uint128,uint128,address,address,address,uint256)[],(uint8,uint8,bytes32,bytes32)[],(uint8,uint8,bytes32,bytes32)[],bool[])": {
                    "details": "Fills multiple taker-signed OTC orders.",
                    "params": {
                        "makerSignatures": "Array of maker signatures for each order.",
                        "orders": "Array of OTC orders.",
                        "takerSignatures": "Array of taker signatures for each order.",
                        "unwrapWeth": "Array of booleans representing whether or not         to unwrap bought WETH into ETH for each order. Should be set         to false if the maker token is not WETH."
                    },
                    "returns": {
                        "successes": "Array of booleans representing whether or not         each order in `orders` was filled successfully."
                    }
                },
                "fillOtcOrder((address,address,uint128,uint128,address,address,address,uint256),(uint8,uint8,bytes32,bytes32),uint128)": {
                    "details": "Fill an OTC order for up to `takerTokenFillAmount` taker tokens.",
                    "params": {
                        "makerSignature": "The order signature from the maker.",
                        "order": "The OTC order.",
                        "takerTokenFillAmount": "Maximum taker token amount to fill this        order with."
                    },
                    "returns": {
                        "makerTokenFilledAmount": "How much maker token was filled.",
                        "takerTokenFilledAmount": "How much taker token was filled."
                    }
                },
                "fillOtcOrderForEth((address,address,uint128,uint128,address,address,address,uint256),(uint8,uint8,bytes32,bytes32),uint128)": {
                    "details": "Fill an OTC order for up to `takerTokenFillAmount` taker tokens.      Unwraps bought WETH into ETH. before sending it to       the taker.",
                    "params": {
                        "makerSignature": "The order signature from the maker.",
                        "order": "The OTC order.",
                        "takerTokenFillAmount": "Maximum taker token amount to fill this        order with."
                    },
                    "returns": {
                        "makerTokenFilledAmount": "How much maker token was filled.",
                        "takerTokenFilledAmount": "How much taker token was filled."
                    }
                },
                "fillOtcOrderWithEth((address,address,uint128,uint128,address,address,address,uint256),(uint8,uint8,bytes32,bytes32))": {
                    "details": "Fill an OTC order whose taker token is WETH for up      to `msg.value`.",
                    "params": {
                        "makerSignature": "The order signature from the maker.",
                        "order": "The OTC order."
                    },
                    "returns": {
                        "makerTokenFilledAmount": "How much maker token was filled.",
                        "takerTokenFilledAmount": "How much taker token was filled."
                    }
                },
                "fillTakerSignedOtcOrder((address,address,uint128,uint128,address,address,address,uint256),(uint8,uint8,bytes32,bytes32),(uint8,uint8,bytes32,bytes32))": {
                    "details": "Fully fill an OTC order. \"Meta-transaction\" variant,      requires order to be signed by both maker and taker.",
                    "params": {
                        "makerSignature": "The order signature from the maker.",
                        "order": "The OTC order.",
                        "takerSignature": "The order signature from the taker."
                    }
                },
                "fillTakerSignedOtcOrderForEth((address,address,uint128,uint128,address,address,address,uint256),(uint8,uint8,bytes32,bytes32),(uint8,uint8,bytes32,bytes32))": {
                    "details": "Fully fill an OTC order. \"Meta-transaction\" variant,      requires order to be signed by both maker and taker.      Unwraps bought WETH into ETH. before sending it to       the taker.",
                    "params": {
                        "makerSignature": "The order signature from the maker.",
                        "order": "The OTC order.",
                        "takerSignature": "The order signature from the taker."
                    }
                },
                "getOtcOrderHash((address,address,uint128,uint128,address,address,address,uint256))": {
                    "details": "Get the canonical hash of an OTC order.",
                    "params": {
                        "order": "The OTC order."
                    },
                    "returns": {
                        "orderHash": "The order hash."
                    }
                },
                "getOtcOrderInfo((address,address,uint128,uint128,address,address,address,uint256))": {
                    "details": "Get the order info for an OTC order.",
                    "params": {
                        "order": "The OTC order."
                    },
                    "returns": {
                        "orderInfo": "Info about the order."
                    }
                },
                "lastOtcTxOriginNonce(address,uint64)": {
                    "details": "Get the last nonce used for a particular      tx.origin address and nonce bucket.",
                    "params": {
                        "nonceBucket": "The nonce bucket index.",
                        "txOrigin": "The address."
                    },
                    "returns": {
                        "lastNonce": "The last nonce value used."
                    }
                },
                "migrate()": {
                    "details": "Initialize and register this feature.      Should be delegatecalled by `Migrate.migrate()`.",
                    "returns": {
                        "success": "`LibMigrate.SUCCESS` on success."
                    }
                }
            },
            "stateVariables": {
                "ETH_TOKEN_ADDRESS": {
                    "details": "ETH pseudo-token address."
                },
                "FEATURE_NAME": {
                    "details": "Name of this feature."
                },
                "FEATURE_VERSION": {
                    "details": "Version of this feature."
                },
                "WETH": {
                    "details": "The WETH token contract."
                }
            },
            "version": 1
        },
        "evm": {
            "bytecode": {
                "linkReferences": {},
                "object": "0x61010060405262000014600160008062000101565b60c0523480156200002457600080fd5b5060405162002e6038038062002e60833981016040819052620000479162000133565b3060601b60805260405182904690620000cd907f8b73c3c69bb8fe3d512ecc4cf759cc79239f7b179b0ffacaa9a75d522b39400f907f9e5dae0addaf20578aeb5d70341d092b53b4e14480ac5726438fd436df7ba427907f06c015bd22b4c69690933c1058878ebdfef31f9aaae40bbe86d8a09fe1b2972c908590879060200162000171565b60408051808303601f19018152919052805160209091012060a052505060601b6001600160601b03191660e05250620001b6565b6bffffffff0000000000000000604084901b1667ffffffff00000000602084901b161763ffffffff8216179392505050565b6000806040838503121562000146578182fd5b825162000153816200019d565b602084015190925062000166816200019d565b809150509250929050565b9485526020850193909352604084019190915260608301526001600160a01b0316608082015260a00190565b6001600160a01b0381168114620001b357600080fd5b50565b60805160601c60a05160c05160e05160601c612c416200021f6000398061045152806104a9528061060a528061069d528061076952806108755280610bfb5280610cef5250806102d2525080610dcb528061183052508061102052806119705250612c416000f3fe6080604052600436106100dd5760003560e01c80638c807c431161007f578063dab400f311610059578063dab400f31461024e578063dac748d414610263578063e4ba843914610283578063e52d1764146102a3576100dd565b80638c807c43146101df5780638fd3ab801461020c578063a578efaf1461022e576100dd565b806359ebfb45116100bb57806359ebfb451461014f5780636ae4b4f71461017c578063706394d51461019e578063724d3953146101bf576100dd565b8063031b905c146100e25780634f9481101461010d57806353476b891461012f575b600080fd5b3480156100ee57600080fd5b506100f76102d0565b604051610104919061264b565b60405180910390f35b34801561011957600080fd5b5061012d61012836600461242a565b6102f4565b005b34801561013b57600080fd5b506100f761014a3660046123d8565b610399565b34801561015b57600080fd5b5061016f61016a366004612285565b6103b4565b6040516101049190612af2565b34801561018857600080fd5b50610191610413565b60405161010491906127c7565b6101b16101ac3660046123f4565b61044c565b604051610104929190612b0f565b3480156101cb57600080fd5b5061012d6101da36600461242a565b610767565b3480156101eb57600080fd5b506101ff6101fa3660046123d8565b61094e565b6040516101049190612a0f565b34801561021857600080fd5b50610221610a35565b604051610104919061270c565b34801561023a57600080fd5b506101b1610249366004612472565b610bf6565b34801561025a57600080fd5b506100f7610dc9565b34801561026f57600080fd5b506101b161027e366004612472565b610ded565b34801561028f57600080fd5b506101b161029e3660046124bd565b610e64565b3480156102af57600080fd5b506102c36102be3660046122c9565b610f13565b6040516101049190612605565b7f000000000000000000000000000000000000000000000000000000000000000081565b6102fc612052565b6103058461094e565b9050600061031782600001518461119d565b9050610325858386846112ee565b61033585866060015183846114d1565b50507fac75f773e3a92f1a02b12134d65e1f47f8a14eabe4eaf1e24624918e6a8b269f8260000151866080015183886000015189602001518a604001518b6060015160405161038a9796959493929190612680565b60405180910390a15050505050565b60006103ac6103a783611717565b61182c565b90505b919050565b6000806103bf61187e565b73ffffffffffffffffffffffffffffffffffffffff851660009081526020918252604080822067ffffffffffffffff8716835290925220546fffffffffffffffffffffffffffffffff169150505b92915050565b6040518060400160405280600981526020017f4f74634f7264657273000000000000000000000000000000000000000000000081525081565b6000807f000000000000000000000000000000000000000000000000000000000000000073ffffffffffffffffffffffffffffffffffffffff16846020015173ffffffffffffffffffffffffffffffffffffffff16141561052d577f000000000000000000000000000000000000000000000000000000000000000073ffffffffffffffffffffffffffffffffffffffff1663d0e30db0346040518263ffffffff1660e01b81526004016000604051808303818588803b15801561050f57600080fd5b505af1158015610523573d6000803e3d6000fd5b505050505061059d565b602084015173ffffffffffffffffffffffffffffffffffffffff1673eeeeeeeeeeeeeeeeeeeeeeeeeeeeeeeeeeeeeeee1461059d576040517f08c379a0000000000000000000000000000000000000000000000000000000008152600401610594906129b2565b60405180910390fd5b6105a5612052565b6105ae8561094e565b90506105bc858286336112ee565b6105d0856105c93461188b565b30336114d1565b9093509150346fffffffffffffffffffffffffffffffff84161015610711576000836fffffffffffffffffffffffffffffffff16340390507f000000000000000000000000000000000000000000000000000000000000000073ffffffffffffffffffffffffffffffffffffffff16866020015173ffffffffffffffffffffffffffffffffffffffff161415610705576040517f2e1a7d4d00000000000000000000000000000000000000000000000000000000815273ffffffffffffffffffffffffffffffffffffffff7f00000000000000000000000000000000000000000000000000000000000000001690632e1a7d4d906106d290849060040161264b565b600060405180830381600087803b1580156106ec57600080fd5b505af1158015610700573d6000803e3d6000fd5b505050505b61070f33826118b7565b505b80516080860151865160208801516040517fac75f773e3a92f1a02b12134d65e1f47f8a14eabe4eaf1e24624918e6a8b269f946107579490939092339289908b90612680565b60405180910390a1509250929050565b7f000000000000000000000000000000000000000000000000000000000000000073ffffffffffffffffffffffffffffffffffffffff16836000015173ffffffffffffffffffffffffffffffffffffffff16146107f0576040517f08c379a000000000000000000000000000000000000000000000000000000000815260040161059490612818565b6107f8612052565b6108018461094e565b9050600061081382600001518461119d565b9050610821858386846112ee565b61083185866060015183306114d1565b505060408086015190517f2e1a7d4d00000000000000000000000000000000000000000000000000000000815273ffffffffffffffffffffffffffffffffffffffff7f00000000000000000000000000000000000000000000000000000000000000001691632e1a7d4d916108a99190600401612af2565b600060405180830381600087803b1580156108c357600080fd5b505af11580156108d7573d6000803e3d6000fd5b505050506108fb8186604001516fffffffffffffffffffffffffffffffff166118b7565b7fac75f773e3a92f1a02b12134d65e1f47f8a14eabe4eaf1e24624918e6a8b269f8260000151866080015183886000015189602001518a604001518b6060015160405161038a9796959493929190612680565b610956612052565b61095f82610399565b8152600061096b61187e565b60e084015160c08086015173ffffffffffffffffffffffffffffffffffffffff16600090815260208481526040808320608086901c67ffffffffffffffff811685529252909120549394509082901c929091906fffffffffffffffffffffffffffffffff90811690821681106109fd576020860160005b908160048111156109ef57fe5b8152505050505050506103af565b4267ffffffffffffffff168467ffffffffffffffff1611610a23576020860160046109e2565b50506001602085015250919392505050565b6000610a607fdac748d40000000000000000000000000000000000000000000000000000000061193a565b610a897fa578efaf0000000000000000000000000000000000000000000000000000000061193a565b610ab27f706394d50000000000000000000000000000000000000000000000000000000061193a565b610adb7f724d39530000000000000000000000000000000000000000000000000000000061193a565b610b047f4f9481100000000000000000000000000000000000000000000000000000000061193a565b610b2d7fe52d17640000000000000000000000000000000000000000000000000000000061193a565b610b567fe4ba84390000000000000000000000000000000000000000000000000000000061193a565b610b7f7f8c807c430000000000000000000000000000000000000000000000000000000061193a565b610ba87f53476b890000000000000000000000000000000000000000000000000000000061193a565b610bd17f59ebfb450000000000000000000000000000000000000000000000000000000061193a565b507f2c64c5ef0000000000000000000000000000000000000000000000000000000090565b6000807f000000000000000000000000000000000000000000000000000000000000000073ffffffffffffffffffffffffffffffffffffffff16856000015173ffffffffffffffffffffffffffffffffffffffff1614610c82576040517f08c379a0000000000000000000000000000000000000000000000000000000008152600401610594906128f8565b610c8a612052565b610c938661094e565b9050610ca1868287336112ee565b610cad868533306114d1565b6040517f2e1a7d4d000000000000000000000000000000000000000000000000000000008152919450925073ffffffffffffffffffffffffffffffffffffffff7f00000000000000000000000000000000000000000000000000000000000000001690632e1a7d4d90610d24908590600401612af2565b600060405180830381600087803b158015610d3e57600080fd5b505af1158015610d52573d6000803e3d6000fd5b50505050610d7233836fffffffffffffffffffffffffffffffff166118b7565b80516080870151875160208901516040517fac75f773e3a92f1a02b12134d65e1f47f8a14eabe4eaf1e24624918e6a8b269f94610db89490939092339289908b90612680565b60405180910390a150935093915050565b7f000000000000000000000000000000000000000000000000000000000000000081565b600080610df8612052565b610e018661094e565b9050610e0f868287336112ee565b610e1b868533336114d1565b82516080890151895160208b01516040519598509396507fac75f773e3a92f1a02b12134d65e1f47f8a14eabe4eaf1e24624918e6a8b269f94610db89433929189908b90612680565b600080333014610e7f57610e7f610e7a336119cd565b611a85565b610e87612052565b610e908961094e565b9050610e9e89828a896112ee565b610eb6898887610eae5788610eb0565b305b876114d1565b825160808c01518c5160208e01516040519598509396507fac75f773e3a92f1a02b12134d65e1f47f8a14eabe4eaf1e24624918e6a8b269f94610eff948c929189908b90612680565b60405180910390a150965096945050505050565b606083518551148015610f27575082518551145b8015610f34575081518551145b610f6a576040517f08c379a000000000000000000000000000000000000000000000000000000000815260040161059490612875565b845167ffffffffffffffff81118015610f8257600080fd5b50604051908082528060200260200182016040528015610fac578160200160208202803683370190505b50905060005b85518114611194576000838281518110610fc857fe5b6020026020010151610ffa577f4f9481100000000000000000000000000000000000000000000000000000000061101c565b7f724d3953000000000000000000000000000000000000000000000000000000005b90507f000000000000000000000000000000000000000000000000000000000000000073ffffffffffffffffffffffffffffffffffffffff168188848151811061106257fe5b602002602001015188858151811061107657fe5b602002602001015188868151811061108a57fe5b60200260200101516040516024016110a493929190612a34565b604080517fffffffffffffffffffffffffffffffffffffffffffffffffffffffffffffffe08184030181529181526020820180517bffffffffffffffffffffffffffffffffffffffffffffffffffffffff167fffffffff0000000000000000000000000000000000000000000000000000000090941693909317909252905161112d919061258f565b600060405180830381855af49150503d8060008114611168576040519150601f19603f3d011682016040523d82523d6000602084013e61116d565b606091505b505083838151811061117b57fe5b9115156020928302919091019091015250600101610fb2565b50949350505050565b60006111a98383611a8d565b6002825160038111156111b857fe5b141561122057600183836020015184604001518560600151604051600081526020016040526040516111ed94939291906126ee565b6020604051602081039080840390855afa15801561120f573d6000803e3d6000fd5b5050506020604051035190506112c5565b60038251600381111561122f57fe5b14156112c55760007f19457468657265756d205369676e6564204d6573736167653a0a33320000000060005283601c52603c60002090506001818460200151856040015186606001516040516000815260200160405260405161129594939291906126ee565b6020604051602081039080840390855afa1580156112b7573d6000803e3d6000fd5b505050602060405103519150505b73ffffffffffffffffffffffffffffffffffffffff811661040d5761040d610e7a600585611b41565b60018360200151600481111561130057fe5b1461132557611325610e7a84600001518560200151600481111561132057fe5b611bfc565b60a084015173ffffffffffffffffffffffffffffffffffffffff161580159061137e57508073ffffffffffffffffffffffffffffffffffffffff168460a0015173ffffffffffffffffffffffffffffffffffffffff1614155b1561139957611399610e7a8460000151838760a00151611c32565b60006113a3611cf0565b60c086015190915073ffffffffffffffffffffffffffffffffffffffff163214801590611407575060c085015173ffffffffffffffffffffffffffffffffffffffff166000908152600382016020908152604080832032845290915290205460ff16155b1561142257611422610e7a8560000151328860c00151611cfd565b600061143285600001518561119d565b9050856080015173ffffffffffffffffffffffffffffffffffffffff168173ffffffffffffffffffffffffffffffffffffffff16141580156114ae5750608086015173ffffffffffffffffffffffffffffffffffffffff908116600090815260048401602090815260408083209385168352929052205460ff16155b156114c9576114c9610e7a8660000151838960800151611d35565b505050505050565b60e08401516000908190608081901c90806114ea61187e565b60c08a015173ffffffffffffffffffffffffffffffffffffffff1660009081526020918252604080822067ffffffffffffffff969096168252949091529290922080547fffffffffffffffffffffffffffffffff00000000000000000000000000000000166fffffffffffffffffffffffffffffffff93841617905550606087015181169086161415611588575050606084015160408501516115e4565b611596858760600151611d6d565b91506115e1826fffffffffffffffffffffffffffffffff1687606001516fffffffffffffffffffffffffffffffff1688604001516fffffffffffffffffffffffffffffffff16611da9565b90505b73ffffffffffffffffffffffffffffffffffffffff84163014156116c257602086015173ffffffffffffffffffffffffffffffffffffffff1673eeeeeeeeeeeeeeeeeeeeeeeeeeeeeeeeeeeeeeee141561169857608086015160405173ffffffffffffffffffffffffffffffffffffffff909116906fffffffffffffffffffffffffffffffff841680156108fc02916000818181858888f19350505050158015611692573d6000803e3d6000fd5b506116bd565b6116bd86602001518760800151846fffffffffffffffffffffffffffffffff16611dc7565b6116e8565b6116e88660200151858860800151856fffffffffffffffffffffffffffffffff16611ea1565b61170e8660000151876080015185846fffffffffffffffffffffffffffffffff16611ea1565b94509492505050565b60006040517f2f754524de756ae72459efbe1ec88c19a745639821de528ac3fb88f9e65e35c88152825173ffffffffffffffffffffffffffffffffffffffff166020820152602083015173ffffffffffffffffffffffffffffffffffffffff16604082015260408301516fffffffffffffffffffffffffffffffff16606082015260608301516fffffffffffffffffffffffffffffffff166080820152608083015173ffffffffffffffffffffffffffffffffffffffff1660a082015260a083015173ffffffffffffffffffffffffffffffffffffffff1660c082015260c083015173ffffffffffffffffffffffffffffffffffffffff1660e082015260e08301516101008201526101208120915050919050565b60007f0000000000000000000000000000000000000000000000000000000000000000826040516020016118619291906125ab565b604051602081830303815290604052805190602001209050919050565b60008061040d6008611fa0565b60006fffffffffffffffffffffffffffffffff8211156118b3576118b3610e7a600384611fbb565b5090565b600060608373ffffffffffffffffffffffffffffffffffffffff16836040516118df906125e1565b60006040518083038185875af1925050503d806000811461191c576040519150601f19603f3d011682016040523d82523d6000602084013e611921565b606091505b5091509150816119345761193481611a85565b50505050565b6040517f6eb224cb0000000000000000000000000000000000000000000000000000000081523090636eb224cb906119989084907f000000000000000000000000000000000000000000000000000000000000000090600401612739565b600060405180830381600087803b1580156119b257600080fd5b505af11580156119c6573d6000803e3d6000fd5b5050505050565b60607ff0ec779b0bcda6d84abf99ee2c67647d1100ebbb553a9c2d1c2ba1579592832c82604051602401611a0191906125e4565b604080517fffffffffffffffffffffffffffffffffffffffffffffffffffffffffffffffe08184030181529190526020810180517bffffffffffffffffffffffffffffffffffffffffffffffffffffffff167fffffffff00000000000000000000000000000000000000000000000000000000909316929092179091529050919050565b805160208201fd5b60408101517ffffffffffffffffffffffffffffffffebaaedce6af48a03bbfd25e8cd0364141111580611ae4575060608101517f7fffffffffffffffffffffffffffffff5d576e7357a4501ddfe92f46681b20a111155b15611af757611af7610e7a600584611b41565b600081516003811115611b0657fe5b1415611b1a57611b1a610e7a600384611b41565b600181516003811115611b2957fe5b1415611b3d57611b3d610e7a600084611b41565b5050565b60607ff18f11f3027e735c758137924b262d4d3aff0037dcd785aca3c699fa05d960bd8383604051602401611b779291906127b9565b604080517fffffffffffffffffffffffffffffffffffffffffffffffffffffffffffffffe08184030181529190526020810180517bffffffffffffffffffffffffffffffffffffffffffffffffffffffff167fffffffff0000000000000000000000000000000000000000000000000000000090931692909217909152905092915050565b60607f47ab394e41470191eaf9fa542e84ac483a12665fbd616eb8d1c022ced6c940008383604051602401611b779291906126dd565b60607f5d3300180a4547b3e27137be832d3ebf56f1ba5ebb30dd580999c61f77fa6396848484604051602401611c6a93929190612654565b604080517fffffffffffffffffffffffffffffffffffffffffffffffffffffffffffffffe08184030181529190526020810180517bffffffffffffffffffffffffffffffffffffffffffffffffffffffff167fffffffff000000000000000000000000000000000000000000000000000000009093169290921790915290509392505050565b60008061040d6007611fa0565b60607fc0972f3cc4234ca2091de7e7bc7081494bd29ac280167d66f0d44168973b1634848484604051602401611c6a93929190612654565b60607ff13e65d925201525f3d71a731833b19bb26e44cfbd97caf72a366b73866f7124848484604051602401611c6a93929190612654565b6000816fffffffffffffffffffffffffffffffff16836fffffffffffffffffffffffffffffffff1610611da05781611da2565b825b9392505050565b6000611dbf83611db98685611fd8565b90612009565b949350505050565b73ffffffffffffffffffffffffffffffffffffffff8316301415611e17576040517f08c379a000000000000000000000000000000000000000000000000000000000815260040161059490612955565b6040517fa9059cbb00000000000000000000000000000000000000000000000000000000815273ffffffffffffffffffffffffffffffffffffffff83166004820152816024820152602081604483600073ffffffffffffffffffffffffffffffffffffffff89165af13d600183511460208210151681151782169150816114c957806000843e8083fd5b73ffffffffffffffffffffffffffffffffffffffff8416301415611ef1576040517f08c379a000000000000000000000000000000000000000000000000000000000815260040161059490612955565b6040517f23b872dd00000000000000000000000000000000000000000000000000000000815273ffffffffffffffffffffffffffffffffffffffff8416600482015273ffffffffffffffffffffffffffffffffffffffff83166024820152816044820152602081606483600073ffffffffffffffffffffffffffffffffffffffff8a165af13d60018351146020821015168115178216915081611f9757806000843e8083fd5b50505050505050565b60006080826008811115611fb057fe5b600101901b92915050565b606063c996af7b60e01b8383604051602401611b779291906127a2565b600082611fe75750600061040d565b82820282848281611ff457fe5b0414611da257611da2610e7a60018686612033565b60008161201f5761201f610e7a60038585612033565b600082848161202a57fe5b04949350505050565b606063e946c1bb60e01b848484604051602401611c6a93929190612781565b604080518082019091526000808252602082015290565b803561040d81612bcb565b600082601f830112612084578081fd5b813561209761209282612b59565b612b32565b8181529150602080830190848101818402860182018710156120b857600080fd5b6000805b858110156120e557823580151581146120d3578283fd5b855293830193918301916001016120bc565b50505050505092915050565b600082601f830112612101578081fd5b813561210f61209282612b59565b818152915060208083019084810160808085028701830188101561213257600080fd5b60005b858110156120e5576121478984612202565b85529383019391810191600101612135565b600061010080838503121561216c578182fd5b61217581612b32565b915050813561218381612bcb565b8152602082013561219381612bcb565b60208201526121a58360408401612265565b60408201526121b78360608401612265565b60608201526121c98360808401612069565b60808201526121db8360a08401612069565b60a08201526121ed8360c08401612069565b60c082015260e082013560e082015292915050565b600060808284031215612213578081fd5b61221d6080612b32565b905081356004811061222e57600080fd5b8152602082013560ff8116811461224457600080fd5b80602083015250604082013560408201526060820135606082015292915050565b80356fffffffffffffffffffffffffffffffff8116811461040d57600080fd5b60008060408385031215612297578182fd5b82356122a281612bcb565b9150602083013567ffffffffffffffff811681146122be578182fd5b809150509250929050565b600080600080608085870312156122de578182fd5b843567ffffffffffffffff808211156122f5578384fd5b818701915087601f830112612308578384fd5b813561231661209282612b59565b80828252602080830192508086016101008d838288028a0101111561233957898afd5b8997505b858810156123655761234f8e83612159565b855260019790970196938201939081019061233d565b509199508a013594505050508082111561237d578384fd5b612389888389016120f1565b9450604087013591508082111561239e578384fd5b6123aa888389016120f1565b935060608701359150808211156123bf578283fd5b506123cc87828801612074565b91505092959194509250565b600061010082840312156123ea578081fd5b611da28383612159565b6000806101808385031215612407578182fd5b6124118484612159565b9150612421846101008501612202565b90509250929050565b6000806000610200848603121561243f578283fd5b6124498585612159565b9250612459856101008601612202565b9150612469856101808601612202565b90509250925092565b60008060006101a08486031215612487578283fd5b6124918585612159565b92506124a1856101008601612202565b91506101808401356124b281612bed565b809150509250925092565b60008060008060008061020087890312156124d6578384fd5b6124e08888612159565b95506124f0886101008901612202565b945061018087013561250181612bed565b93506101a087013561251281612bcb565b92506101c08701358015158114612527578283fd5b91506101e087013561253881612bcb565b809150509295509295509295565b73ffffffffffffffffffffffffffffffffffffffff169052565b805161256b81612bbe565b825260208181015160ff169083015260408082015190830152606090810151910152565b600082516125a1818460208701612b92565b9190910192915050565b7f190100000000000000000000000000000000000000000000000000000000000081526002810192909252602282015260420190565b90565b73ffffffffffffffffffffffffffffffffffffffff91909116815260200190565b6020808252825182820181905260009190848201906040850190845b8181101561263f578351151583529284019291840191600101612621565b50909695505050505050565b90815260200190565b92835273ffffffffffffffffffffffffffffffffffffffff918216602084015216604082015260600190565b96875273ffffffffffffffffffffffffffffffffffffffff95861660208801529385166040870152918416606086015290921660808401526fffffffffffffffffffffffffffffffff91821660a08401521660c082015260e00190565b91825260ff16602082015260400190565b93845260ff9290921660208401526040830152606082015260800190565b7fffffffff0000000000000000000000000000000000000000000000000000000091909116815260200190565b7fffffffff0000000000000000000000000000000000000000000000000000000092909216825273ffffffffffffffffffffffffffffffffffffffff16602082015260400190565b6060810161278e85612bbe565b938152602081019290925260409091015290565b604081016127af84612bbe565b9281526020015290565b60408101600684106127af57fe5b60006020825282518060208401526127e6816040850160208701612b92565b601f017fffffffffffffffffffffffffffffffffffffffffffffffffffffffffffffffe0169190910160400192915050565b6020808252603e908201527f4f74634f7264657273466561747572653a3a66696c6c54616b65725369676e6560408201527f644f74634f726465722f4d414b45525f544f4b454e5f4e4f545f574554480000606082015260800190565b60208082526048908201527f4f74634f7264657273466561747572653a3a626174636846696c6c54616b657260408201527f5369676e65644f74634f72646572732f4d49534d4154434845445f415252415960608201527f5f4c454e47544853000000000000000000000000000000000000000000000000608082015260a00190565b60208082526039908201527f4f74634f7264657273466561747572653a3a66696c6c4f74634f72646572466f60408201527f724574682f4d414b45525f544f4b454e5f4e4f545f5745544800000000000000606082015260800190565b60208082526024908201527f466978696e546f6b656e5370656e6465722f43414e4e4f545f494e564f4b455f60408201527f53454c4600000000000000000000000000000000000000000000000000000000606082015260800190565b60208082526039908201527f4f74634f7264657273466561747572653a3a66696c6c4f74634f72646572576960408201527f74684574682f494e56414c49445f54414b45525f544f4b454e00000000000000606082015260800190565b815181526020820151604082019060058110612a2757fe5b8060208401525092915050565b8351610200820190612a4590612b79565b825273ffffffffffffffffffffffffffffffffffffffff602086015116602083015260408501516fffffffffffffffffffffffffffffffff808216604085015280606088015116606085015250506080850151612aa56080840182612546565b5060a0850151612ab860a0840182612546565b5060c0850151612acb60c0840182612546565b5060e085015160e0830152612ae4610100830185612560565b611dbf610180830184612560565b6fffffffffffffffffffffffffffffffff91909116815260200190565b6fffffffffffffffffffffffffffffffff92831681529116602082015260400190565b60405181810167ffffffffffffffff81118282101715612b5157600080fd5b604052919050565b600067ffffffffffffffff821115612b6f578081fd5b5060209081020190565b73ffffffffffffffffffffffffffffffffffffffff1690565b60005b83811015612bad578181015183820152602001612b95565b838111156119345750506000910152565b60048110612bc857fe5b50565b73ffffffffffffffffffffffffffffffffffffffff81168114612bc857600080fd5b6fffffffffffffffffffffffffffffffff81168114612bc857600080fdfea2646970667358221220e3a6ebf3b03a77fb264b9c0933b12fa777790430c4e301225825301af5c4912964736f6c634300060c0033",
                "opcodes": "PUSH2 0x100 PUSH1 0x40 MSTORE PUSH3 0x14 PUSH1 0x1 PUSH1 0x0 DUP1 PUSH3 0x101 JUMP JUMPDEST PUSH1 0xC0 MSTORE CALLVALUE DUP1 ISZERO PUSH3 0x24 JUMPI PUSH1 0x0 DUP1 REVERT JUMPDEST POP PUSH1 0x40 MLOAD PUSH3 0x2E60 CODESIZE SUB DUP1 PUSH3 0x2E60 DUP4 CODECOPY DUP2 ADD PUSH1 0x40 DUP2 SWAP1 MSTORE PUSH3 0x47 SWAP2 PUSH3 0x133 JUMP JUMPDEST ADDRESS PUSH1 0x60 SHL PUSH1 0x80 MSTORE PUSH1 0x40 MLOAD DUP3 SWAP1 CHAINID SWAP1 PUSH3 0xCD SWAP1 PUSH32 0x8B73C3C69BB8FE3D512ECC4CF759CC79239F7B179B0FFACAA9A75D522B39400F SWAP1 PUSH32 0x9E5DAE0ADDAF20578AEB5D70341D092B53B4E14480AC5726438FD436DF7BA427 SWAP1 PUSH32 0x6C015BD22B4C69690933C1058878EBDFEF31F9AAAE40BBE86D8A09FE1B2972C SWAP1 DUP6 SWAP1 DUP8 SWAP1 PUSH1 0x20 ADD PUSH3 0x171 JUMP JUMPDEST PUSH1 0x40 DUP1 MLOAD DUP1 DUP4 SUB PUSH1 0x1F NOT ADD DUP2 MSTORE SWAP2 SWAP1 MSTORE DUP1 MLOAD PUSH1 0x20 SWAP1 SWAP2 ADD KECCAK256 PUSH1 0xA0 MSTORE POP POP PUSH1 0x60 SHL PUSH1 0x1 PUSH1 0x1 PUSH1 0x60 SHL SUB NOT AND PUSH1 0xE0 MSTORE POP PUSH3 0x1B6 JUMP JUMPDEST PUSH12 0xFFFFFFFF0000000000000000 PUSH1 0x40 DUP5 SWAP1 SHL AND PUSH8 0xFFFFFFFF00000000 PUSH1 0x20 DUP5 SWAP1 SHL AND OR PUSH4 0xFFFFFFFF DUP3 AND OR SWAP4 SWAP3 POP POP POP JUMP JUMPDEST PUSH1 0x0 DUP1 PUSH1 0x40 DUP4 DUP6 SUB SLT ISZERO PUSH3 0x146 JUMPI DUP2 DUP3 REVERT JUMPDEST DUP3 MLOAD PUSH3 0x153 DUP2 PUSH3 0x19D JUMP JUMPDEST PUSH1 0x20 DUP5 ADD MLOAD SWAP1 SWAP3 POP PUSH3 0x166 DUP2 PUSH3 0x19D JUMP JUMPDEST DUP1 SWAP2 POP POP SWAP3 POP SWAP3 SWAP1 POP JUMP JUMPDEST SWAP5 DUP6 MSTORE PUSH1 0x20 DUP6 ADD SWAP4 SWAP1 SWAP4 MSTORE PUSH1 0x40 DUP5 ADD SWAP2 SWAP1 SWAP2 MSTORE PUSH1 0x60 DUP4 ADD MSTORE PUSH1 0x1 PUSH1 0x1 PUSH1 0xA0 SHL SUB AND PUSH1 0x80 DUP3 ADD MSTORE PUSH1 0xA0 ADD SWAP1 JUMP JUMPDEST PUSH1 0x1 PUSH1 0x1 PUSH1 0xA0 SHL SUB DUP2 AND DUP2 EQ PUSH3 0x1B3 JUMPI PUSH1 0x0 DUP1 REVERT JUMPDEST POP JUMP JUMPDEST PUSH1 0x80 MLOAD PUSH1 0x60 SHR PUSH1 0xA0 MLOAD PUSH1 0xC0 MLOAD PUSH1 0xE0 MLOAD PUSH1 0x60 SHR PUSH2 0x2C41 PUSH3 0x21F PUSH1 0x0 CODECOPY DUP1 PUSH2 0x451 MSTORE DUP1 PUSH2 0x4A9 MSTORE DUP1 PUSH2 0x60A MSTORE DUP1 PUSH2 0x69D MSTORE DUP1 PUSH2 0x769 MSTORE DUP1 PUSH2 0x875 MSTORE DUP1 PUSH2 0xBFB MSTORE DUP1 PUSH2 0xCEF MSTORE POP DUP1 PUSH2 0x2D2 MSTORE POP DUP1 PUSH2 0xDCB MSTORE DUP1 PUSH2 0x1830 MSTORE POP DUP1 PUSH2 0x1020 MSTORE DUP1 PUSH2 0x1970 MSTORE POP PUSH2 0x2C41 PUSH1 0x0 RETURN INVALID PUSH1 0x80 PUSH1 0x40 MSTORE PUSH1 0x4 CALLDATASIZE LT PUSH2 0xDD JUMPI PUSH1 0x0 CALLDATALOAD PUSH1 0xE0 SHR DUP1 PUSH4 0x8C807C43 GT PUSH2 0x7F JUMPI DUP1 PUSH4 0xDAB400F3 GT PUSH2 0x59 JUMPI DUP1 PUSH4 0xDAB400F3 EQ PUSH2 0x24E JUMPI DUP1 PUSH4 0xDAC748D4 EQ PUSH2 0x263 JUMPI DUP1 PUSH4 0xE4BA8439 EQ PUSH2 0x283 JUMPI DUP1 PUSH4 0xE52D1764 EQ PUSH2 0x2A3 JUMPI PUSH2 0xDD JUMP JUMPDEST DUP1 PUSH4 0x8C807C43 EQ PUSH2 0x1DF JUMPI DUP1 PUSH4 0x8FD3AB80 EQ PUSH2 0x20C JUMPI DUP1 PUSH4 0xA578EFAF EQ PUSH2 0x22E JUMPI PUSH2 0xDD JUMP JUMPDEST DUP1 PUSH4 0x59EBFB45 GT PUSH2 0xBB JUMPI DUP1 PUSH4 0x59EBFB45 EQ PUSH2 0x14F JUMPI DUP1 PUSH4 0x6AE4B4F7 EQ PUSH2 0x17C JUMPI DUP1 PUSH4 0x706394D5 EQ PUSH2 0x19E JUMPI DUP1 PUSH4 0x724D3953 EQ PUSH2 0x1BF JUMPI PUSH2 0xDD JUMP JUMPDEST DUP1 PUSH4 0x31B905C EQ PUSH2 0xE2 JUMPI DUP1 PUSH4 0x4F948110 EQ PUSH2 0x10D JUMPI DUP1 PUSH4 0x53476B89 EQ PUSH2 0x12F JUMPI JUMPDEST PUSH1 0x0 DUP1 REVERT JUMPDEST CALLVALUE DUP1 ISZERO PUSH2 0xEE JUMPI PUSH1 0x0 DUP1 REVERT JUMPDEST POP PUSH2 0xF7 PUSH2 0x2D0 JUMP JUMPDEST PUSH1 0x40 MLOAD PUSH2 0x104 SWAP2 SWAP1 PUSH2 0x264B JUMP JUMPDEST PUSH1 0x40 MLOAD DUP1 SWAP2 SUB SWAP1 RETURN JUMPDEST CALLVALUE DUP1 ISZERO PUSH2 0x119 JUMPI PUSH1 0x0 DUP1 REVERT JUMPDEST POP PUSH2 0x12D PUSH2 0x128 CALLDATASIZE PUSH1 0x4 PUSH2 0x242A JUMP JUMPDEST PUSH2 0x2F4 JUMP JUMPDEST STOP JUMPDEST CALLVALUE DUP1 ISZERO PUSH2 0x13B JUMPI PUSH1 0x0 DUP1 REVERT JUMPDEST POP PUSH2 0xF7 PUSH2 0x14A CALLDATASIZE PUSH1 0x4 PUSH2 0x23D8 JUMP JUMPDEST PUSH2 0x399 JUMP JUMPDEST CALLVALUE DUP1 ISZERO PUSH2 0x15B JUMPI PUSH1 0x0 DUP1 REVERT JUMPDEST POP PUSH2 0x16F PUSH2 0x16A CALLDATASIZE PUSH1 0x4 PUSH2 0x2285 JUMP JUMPDEST PUSH2 0x3B4 JUMP JUMPDEST PUSH1 0x40 MLOAD PUSH2 0x104 SWAP2 SWAP1 PUSH2 0x2AF2 JUMP JUMPDEST CALLVALUE DUP1 ISZERO PUSH2 0x188 JUMPI PUSH1 0x0 DUP1 REVERT JUMPDEST POP PUSH2 0x191 PUSH2 0x413 JUMP JUMPDEST PUSH1 0x40 MLOAD PUSH2 0x104 SWAP2 SWAP1 PUSH2 0x27C7 JUMP JUMPDEST PUSH2 0x1B1 PUSH2 0x1AC CALLDATASIZE PUSH1 0x4 PUSH2 0x23F4 JUMP JUMPDEST PUSH2 0x44C JUMP JUMPDEST PUSH1 0x40 MLOAD PUSH2 0x104 SWAP3 SWAP2 SWAP1 PUSH2 0x2B0F JUMP JUMPDEST CALLVALUE DUP1 ISZERO PUSH2 0x1CB JUMPI PUSH1 0x0 DUP1 REVERT JUMPDEST POP PUSH2 0x12D PUSH2 0x1DA CALLDATASIZE PUSH1 0x4 PUSH2 0x242A JUMP JUMPDEST PUSH2 0x767 JUMP JUMPDEST CALLVALUE DUP1 ISZERO PUSH2 0x1EB JUMPI PUSH1 0x0 DUP1 REVERT JUMPDEST POP PUSH2 0x1FF PUSH2 0x1FA CALLDATASIZE PUSH1 0x4 PUSH2 0x23D8 JUMP JUMPDEST PUSH2 0x94E JUMP JUMPDEST PUSH1 0x40 MLOAD PUSH2 0x104 SWAP2 SWAP1 PUSH2 0x2A0F JUMP JUMPDEST CALLVALUE DUP1 ISZERO PUSH2 0x218 JUMPI PUSH1 0x0 DUP1 REVERT JUMPDEST POP PUSH2 0x221 PUSH2 0xA35 JUMP JUMPDEST PUSH1 0x40 MLOAD PUSH2 0x104 SWAP2 SWAP1 PUSH2 0x270C JUMP JUMPDEST CALLVALUE DUP1 ISZERO PUSH2 0x23A JUMPI PUSH1 0x0 DUP1 REVERT JUMPDEST POP PUSH2 0x1B1 PUSH2 0x249 CALLDATASIZE PUSH1 0x4 PUSH2 0x2472 JUMP JUMPDEST PUSH2 0xBF6 JUMP JUMPDEST CALLVALUE DUP1 ISZERO PUSH2 0x25A JUMPI PUSH1 0x0 DUP1 REVERT JUMPDEST POP PUSH2 0xF7 PUSH2 0xDC9 JUMP JUMPDEST CALLVALUE DUP1 ISZERO PUSH2 0x26F JUMPI PUSH1 0x0 DUP1 REVERT JUMPDEST POP PUSH2 0x1B1 PUSH2 0x27E CALLDATASIZE PUSH1 0x4 PUSH2 0x2472 JUMP JUMPDEST PUSH2 0xDED JUMP JUMPDEST CALLVALUE DUP1 ISZERO PUSH2 0x28F JUMPI PUSH1 0x0 DUP1 REVERT JUMPDEST POP PUSH2 0x1B1 PUSH2 0x29E CALLDATASIZE PUSH1 0x4 PUSH2 0x24BD JUMP JUMPDEST PUSH2 0xE64 JUMP JUMPDEST CALLVALUE DUP1 ISZERO PUSH2 0x2AF JUMPI PUSH1 0x0 DUP1 REVERT JUMPDEST POP PUSH2 0x2C3 PUSH2 0x2BE CALLDATASIZE PUSH1 0x4 PUSH2 0x22C9 JUMP JUMPDEST PUSH2 0xF13 JUMP JUMPDEST PUSH1 0x40 MLOAD PUSH2 0x104 SWAP2 SWAP1 PUSH2 0x2605 JUMP JUMPDEST PUSH32 0x0 DUP2 JUMP JUMPDEST PUSH2 0x2FC PUSH2 0x2052 JUMP JUMPDEST PUSH2 0x305 DUP5 PUSH2 0x94E JUMP JUMPDEST SWAP1 POP PUSH1 0x0 PUSH2 0x317 DUP3 PUSH1 0x0 ADD MLOAD DUP5 PUSH2 0x119D JUMP JUMPDEST SWAP1 POP PUSH2 0x325 DUP6 DUP4 DUP7 DUP5 PUSH2 0x12EE JUMP JUMPDEST PUSH2 0x335 DUP6 DUP7 PUSH1 0x60 ADD MLOAD DUP4 DUP5 PUSH2 0x14D1 JUMP JUMPDEST POP POP PUSH32 0xAC75F773E3A92F1A02B12134D65E1F47F8A14EABE4EAF1E24624918E6A8B269F DUP3 PUSH1 0x0 ADD MLOAD DUP7 PUSH1 0x80 ADD MLOAD DUP4 DUP9 PUSH1 0x0 ADD MLOAD DUP10 PUSH1 0x20 ADD MLOAD DUP11 PUSH1 0x40 ADD MLOAD DUP12 PUSH1 0x60 ADD MLOAD PUSH1 0x40 MLOAD PUSH2 0x38A SWAP8 SWAP7 SWAP6 SWAP5 SWAP4 SWAP3 SWAP2 SWAP1 PUSH2 0x2680 JUMP JUMPDEST PUSH1 0x40 MLOAD DUP1 SWAP2 SUB SWAP1 LOG1 POP POP POP POP POP JUMP JUMPDEST PUSH1 0x0 PUSH2 0x3AC PUSH2 0x3A7 DUP4 PUSH2 0x1717 JUMP JUMPDEST PUSH2 0x182C JUMP JUMPDEST SWAP1 POP JUMPDEST SWAP2 SWAP1 POP JUMP JUMPDEST PUSH1 0x0 DUP1 PUSH2 0x3BF PUSH2 0x187E JUMP JUMPDEST PUSH20 0xFFFFFFFFFFFFFFFFFFFFFFFFFFFFFFFFFFFFFFFF DUP6 AND PUSH1 0x0 SWAP1 DUP2 MSTORE PUSH1 0x20 SWAP2 DUP3 MSTORE PUSH1 0x40 DUP1 DUP3 KECCAK256 PUSH8 0xFFFFFFFFFFFFFFFF DUP8 AND DUP4 MSTORE SWAP1 SWAP3 MSTORE KECCAK256 SLOAD PUSH16 0xFFFFFFFFFFFFFFFFFFFFFFFFFFFFFFFF AND SWAP2 POP POP JUMPDEST SWAP3 SWAP2 POP POP JUMP JUMPDEST PUSH1 0x40 MLOAD DUP1 PUSH1 0x40 ADD PUSH1 0x40 MSTORE DUP1 PUSH1 0x9 DUP2 MSTORE PUSH1 0x20 ADD PUSH32 0x4F74634F72646572730000000000000000000000000000000000000000000000 DUP2 MSTORE POP DUP2 JUMP JUMPDEST PUSH1 0x0 DUP1 PUSH32 0x0 PUSH20 0xFFFFFFFFFFFFFFFFFFFFFFFFFFFFFFFFFFFFFFFF AND DUP5 PUSH1 0x20 ADD MLOAD PUSH20 0xFFFFFFFFFFFFFFFFFFFFFFFFFFFFFFFFFFFFFFFF AND EQ ISZERO PUSH2 0x52D JUMPI PUSH32 0x0 PUSH20 0xFFFFFFFFFFFFFFFFFFFFFFFFFFFFFFFFFFFFFFFF AND PUSH4 0xD0E30DB0 CALLVALUE PUSH1 0x40 MLOAD DUP3 PUSH4 0xFFFFFFFF AND PUSH1 0xE0 SHL DUP2 MSTORE PUSH1 0x4 ADD PUSH1 0x0 PUSH1 0x40 MLOAD DUP1 DUP4 SUB DUP2 DUP6 DUP9 DUP1 EXTCODESIZE ISZERO DUP1 ISZERO PUSH2 0x50F JUMPI PUSH1 0x0 DUP1 REVERT JUMPDEST POP GAS CALL ISZERO DUP1 ISZERO PUSH2 0x523 JUMPI RETURNDATASIZE PUSH1 0x0 DUP1 RETURNDATACOPY RETURNDATASIZE PUSH1 0x0 REVERT JUMPDEST POP POP POP POP POP PUSH2 0x59D JUMP JUMPDEST PUSH1 0x20 DUP5 ADD MLOAD PUSH20 0xFFFFFFFFFFFFFFFFFFFFFFFFFFFFFFFFFFFFFFFF AND PUSH20 0xEEEEEEEEEEEEEEEEEEEEEEEEEEEEEEEEEEEEEEEE EQ PUSH2 0x59D JUMPI PUSH1 0x40 MLOAD PUSH32 0x8C379A000000000000000000000000000000000000000000000000000000000 DUP2 MSTORE PUSH1 0x4 ADD PUSH2 0x594 SWAP1 PUSH2 0x29B2 JUMP JUMPDEST PUSH1 0x40 MLOAD DUP1 SWAP2 SUB SWAP1 REVERT JUMPDEST PUSH2 0x5A5 PUSH2 0x2052 JUMP JUMPDEST PUSH2 0x5AE DUP6 PUSH2 0x94E JUMP JUMPDEST SWAP1 POP PUSH2 0x5BC DUP6 DUP3 DUP7 CALLER PUSH2 0x12EE JUMP JUMPDEST PUSH2 0x5D0 DUP6 PUSH2 0x5C9 CALLVALUE PUSH2 0x188B JUMP JUMPDEST ADDRESS CALLER PUSH2 0x14D1 JUMP JUMPDEST SWAP1 SWAP4 POP SWAP2 POP CALLVALUE PUSH16 0xFFFFFFFFFFFFFFFFFFFFFFFFFFFFFFFF DUP5 AND LT ISZERO PUSH2 0x711 JUMPI PUSH1 0x0 DUP4 PUSH16 0xFFFFFFFFFFFFFFFFFFFFFFFFFFFFFFFF AND CALLVALUE SUB SWAP1 POP PUSH32 0x0 PUSH20 0xFFFFFFFFFFFFFFFFFFFFFFFFFFFFFFFFFFFFFFFF AND DUP7 PUSH1 0x20 ADD MLOAD PUSH20 0xFFFFFFFFFFFFFFFFFFFFFFFFFFFFFFFFFFFFFFFF AND EQ ISZERO PUSH2 0x705 JUMPI PUSH1 0x40 MLOAD PUSH32 0x2E1A7D4D00000000000000000000000000000000000000000000000000000000 DUP2 MSTORE PUSH20 0xFFFFFFFFFFFFFFFFFFFFFFFFFFFFFFFFFFFFFFFF PUSH32 0x0 AND SWAP1 PUSH4 0x2E1A7D4D SWAP1 PUSH2 0x6D2 SWAP1 DUP5 SWAP1 PUSH1 0x4 ADD PUSH2 0x264B JUMP JUMPDEST PUSH1 0x0 PUSH1 0x40 MLOAD DUP1 DUP4 SUB DUP2 PUSH1 0x0 DUP8 DUP1 EXTCODESIZE ISZERO DUP1 ISZERO PUSH2 0x6EC JUMPI PUSH1 0x0 DUP1 REVERT JUMPDEST POP GAS CALL ISZERO DUP1 ISZERO PUSH2 0x700 JUMPI RETURNDATASIZE PUSH1 0x0 DUP1 RETURNDATACOPY RETURNDATASIZE PUSH1 0x0 REVERT JUMPDEST POP POP POP POP JUMPDEST PUSH2 0x70F CALLER DUP3 PUSH2 0x18B7 JUMP JUMPDEST POP JUMPDEST DUP1 MLOAD PUSH1 0x80 DUP7 ADD MLOAD DUP7 MLOAD PUSH1 0x20 DUP9 ADD MLOAD PUSH1 0x40 MLOAD PUSH32 0xAC75F773E3A92F1A02B12134D65E1F47F8A14EABE4EAF1E24624918E6A8B269F SWAP5 PUSH2 0x757 SWAP5 SWAP1 SWAP4 SWAP1 SWAP3 CALLER SWAP3 DUP10 SWAP1 DUP12 SWAP1 PUSH2 0x2680 JUMP JUMPDEST PUSH1 0x40 MLOAD DUP1 SWAP2 SUB SWAP1 LOG1 POP SWAP3 POP SWAP3 SWAP1 POP JUMP JUMPDEST PUSH32 0x0 PUSH20 0xFFFFFFFFFFFFFFFFFFFFFFFFFFFFFFFFFFFFFFFF AND DUP4 PUSH1 0x0 ADD MLOAD PUSH20 0xFFFFFFFFFFFFFFFFFFFFFFFFFFFFFFFFFFFFFFFF AND EQ PUSH2 0x7F0 JUMPI PUSH1 0x40 MLOAD PUSH32 0x8C379A000000000000000000000000000000000000000000000000000000000 DUP2 MSTORE PUSH1 0x4 ADD PUSH2 0x594 SWAP1 PUSH2 0x2818 JUMP JUMPDEST PUSH2 0x7F8 PUSH2 0x2052 JUMP JUMPDEST PUSH2 0x801 DUP5 PUSH2 0x94E JUMP JUMPDEST SWAP1 POP PUSH1 0x0 PUSH2 0x813 DUP3 PUSH1 0x0 ADD MLOAD DUP5 PUSH2 0x119D JUMP JUMPDEST SWAP1 POP PUSH2 0x821 DUP6 DUP4 DUP7 DUP5 PUSH2 0x12EE JUMP JUMPDEST PUSH2 0x831 DUP6 DUP7 PUSH1 0x60 ADD MLOAD DUP4 ADDRESS PUSH2 0x14D1 JUMP JUMPDEST POP POP PUSH1 0x40 DUP1 DUP7 ADD MLOAD SWAP1 MLOAD PUSH32 0x2E1A7D4D00000000000000000000000000000000000000000000000000000000 DUP2 MSTORE PUSH20 0xFFFFFFFFFFFFFFFFFFFFFFFFFFFFFFFFFFFFFFFF PUSH32 0x0 AND SWAP2 PUSH4 0x2E1A7D4D SWAP2 PUSH2 0x8A9 SWAP2 SWAP1 PUSH1 0x4 ADD PUSH2 0x2AF2 JUMP JUMPDEST PUSH1 0x0 PUSH1 0x40 MLOAD DUP1 DUP4 SUB DUP2 PUSH1 0x0 DUP8 DUP1 EXTCODESIZE ISZERO DUP1 ISZERO PUSH2 0x8C3 JUMPI PUSH1 0x0 DUP1 REVERT JUMPDEST POP GAS CALL ISZERO DUP1 ISZERO PUSH2 0x8D7 JUMPI RETURNDATASIZE PUSH1 0x0 DUP1 RETURNDATACOPY RETURNDATASIZE PUSH1 0x0 REVERT JUMPDEST POP POP POP POP PUSH2 0x8FB DUP2 DUP7 PUSH1 0x40 ADD MLOAD PUSH16 0xFFFFFFFFFFFFFFFFFFFFFFFFFFFFFFFF AND PUSH2 0x18B7 JUMP JUMPDEST PUSH32 0xAC75F773E3A92F1A02B12134D65E1F47F8A14EABE4EAF1E24624918E6A8B269F DUP3 PUSH1 0x0 ADD MLOAD DUP7 PUSH1 0x80 ADD MLOAD DUP4 DUP9 PUSH1 0x0 ADD MLOAD DUP10 PUSH1 0x20 ADD MLOAD DUP11 PUSH1 0x40 ADD MLOAD DUP12 PUSH1 0x60 ADD MLOAD PUSH1 0x40 MLOAD PUSH2 0x38A SWAP8 SWAP7 SWAP6 SWAP5 SWAP4 SWAP3 SWAP2 SWAP1 PUSH2 0x2680 JUMP JUMPDEST PUSH2 0x956 PUSH2 0x2052 JUMP JUMPDEST PUSH2 0x95F DUP3 PUSH2 0x399 JUMP JUMPDEST DUP2 MSTORE PUSH1 0x0 PUSH2 0x96B PUSH2 0x187E JUMP JUMPDEST PUSH1 0xE0 DUP5 ADD MLOAD PUSH1 0xC0 DUP1 DUP7 ADD MLOAD PUSH20 0xFFFFFFFFFFFFFFFFFFFFFFFFFFFFFFFFFFFFFFFF AND PUSH1 0x0 SWAP1 DUP2 MSTORE PUSH1 0x20 DUP5 DUP2 MSTORE PUSH1 0x40 DUP1 DUP4 KECCAK256 PUSH1 0x80 DUP7 SWAP1 SHR PUSH8 0xFFFFFFFFFFFFFFFF DUP2 AND DUP6 MSTORE SWAP3 MSTORE SWAP1 SWAP2 KECCAK256 SLOAD SWAP4 SWAP5 POP SWAP1 DUP3 SWAP1 SHR SWAP3 SWAP1 SWAP2 SWAP1 PUSH16 0xFFFFFFFFFFFFFFFFFFFFFFFFFFFFFFFF SWAP1 DUP2 AND SWAP1 DUP3 AND DUP2 LT PUSH2 0x9FD JUMPI PUSH1 0x20 DUP7 ADD PUSH1 0x0 JUMPDEST SWAP1 DUP2 PUSH1 0x4 DUP2 GT ISZERO PUSH2 0x9EF JUMPI INVALID JUMPDEST DUP2 MSTORE POP POP POP POP POP POP POP PUSH2 0x3AF JUMP JUMPDEST TIMESTAMP PUSH8 0xFFFFFFFFFFFFFFFF AND DUP5 PUSH8 0xFFFFFFFFFFFFFFFF AND GT PUSH2 0xA23 JUMPI PUSH1 0x20 DUP7 ADD PUSH1 0x4 PUSH2 0x9E2 JUMP JUMPDEST POP POP PUSH1 0x1 PUSH1 0x20 DUP6 ADD MSTORE POP SWAP2 SWAP4 SWAP3 POP POP POP JUMP JUMPDEST PUSH1 0x0 PUSH2 0xA60 PUSH32 0xDAC748D400000000000000000000000000000000000000000000000000000000 PUSH2 0x193A JUMP JUMPDEST PUSH2 0xA89 PUSH32 0xA578EFAF00000000000000000000000000000000000000000000000000000000 PUSH2 0x193A JUMP JUMPDEST PUSH2 0xAB2 PUSH32 0x706394D500000000000000000000000000000000000000000000000000000000 PUSH2 0x193A JUMP JUMPDEST PUSH2 0xADB PUSH32 0x724D395300000000000000000000000000000000000000000000000000000000 PUSH2 0x193A JUMP JUMPDEST PUSH2 0xB04 PUSH32 0x4F94811000000000000000000000000000000000000000000000000000000000 PUSH2 0x193A JUMP JUMPDEST PUSH2 0xB2D PUSH32 0xE52D176400000000000000000000000000000000000000000000000000000000 PUSH2 0x193A JUMP JUMPDEST PUSH2 0xB56 PUSH32 0xE4BA843900000000000000000000000000000000000000000000000000000000 PUSH2 0x193A JUMP JUMPDEST PUSH2 0xB7F PUSH32 0x8C807C4300000000000000000000000000000000000000000000000000000000 PUSH2 0x193A JUMP JUMPDEST PUSH2 0xBA8 PUSH32 0x53476B8900000000000000000000000000000000000000000000000000000000 PUSH2 0x193A JUMP JUMPDEST PUSH2 0xBD1 PUSH32 0x59EBFB4500000000000000000000000000000000000000000000000000000000 PUSH2 0x193A JUMP JUMPDEST POP PUSH32 0x2C64C5EF00000000000000000000000000000000000000000000000000000000 SWAP1 JUMP JUMPDEST PUSH1 0x0 DUP1 PUSH32 0x0 PUSH20 0xFFFFFFFFFFFFFFFFFFFFFFFFFFFFFFFFFFFFFFFF AND DUP6 PUSH1 0x0 ADD MLOAD PUSH20 0xFFFFFFFFFFFFFFFFFFFFFFFFFFFFFFFFFFFFFFFF AND EQ PUSH2 0xC82 JUMPI PUSH1 0x40 MLOAD PUSH32 0x8C379A000000000000000000000000000000000000000000000000000000000 DUP2 MSTORE PUSH1 0x4 ADD PUSH2 0x594 SWAP1 PUSH2 0x28F8 JUMP JUMPDEST PUSH2 0xC8A PUSH2 0x2052 JUMP JUMPDEST PUSH2 0xC93 DUP7 PUSH2 0x94E JUMP JUMPDEST SWAP1 POP PUSH2 0xCA1 DUP7 DUP3 DUP8 CALLER PUSH2 0x12EE JUMP JUMPDEST PUSH2 0xCAD DUP7 DUP6 CALLER ADDRESS PUSH2 0x14D1 JUMP JUMPDEST PUSH1 0x40 MLOAD PUSH32 0x2E1A7D4D00000000000000000000000000000000000000000000000000000000 DUP2 MSTORE SWAP2 SWAP5 POP SWAP3 POP PUSH20 0xFFFFFFFFFFFFFFFFFFFFFFFFFFFFFFFFFFFFFFFF PUSH32 0x0 AND SWAP1 PUSH4 0x2E1A7D4D SWAP1 PUSH2 0xD24 SWAP1 DUP6 SWAP1 PUSH1 0x4 ADD PUSH2 0x2AF2 JUMP JUMPDEST PUSH1 0x0 PUSH1 0x40 MLOAD DUP1 DUP4 SUB DUP2 PUSH1 0x0 DUP8 DUP1 EXTCODESIZE ISZERO DUP1 ISZERO PUSH2 0xD3E JUMPI PUSH1 0x0 DUP1 REVERT JUMPDEST POP GAS CALL ISZERO DUP1 ISZERO PUSH2 0xD52 JUMPI RETURNDATASIZE PUSH1 0x0 DUP1 RETURNDATACOPY RETURNDATASIZE PUSH1 0x0 REVERT JUMPDEST POP POP POP POP PUSH2 0xD72 CALLER DUP4 PUSH16 0xFFFFFFFFFFFFFFFFFFFFFFFFFFFFFFFF AND PUSH2 0x18B7 JUMP JUMPDEST DUP1 MLOAD PUSH1 0x80 DUP8 ADD MLOAD DUP8 MLOAD PUSH1 0x20 DUP10 ADD MLOAD PUSH1 0x40 MLOAD PUSH32 0xAC75F773E3A92F1A02B12134D65E1F47F8A14EABE4EAF1E24624918E6A8B269F SWAP5 PUSH2 0xDB8 SWAP5 SWAP1 SWAP4 SWAP1 SWAP3 CALLER SWAP3 DUP10 SWAP1 DUP12 SWAP1 PUSH2 0x2680 JUMP JUMPDEST PUSH1 0x40 MLOAD DUP1 SWAP2 SUB SWAP1 LOG1 POP SWAP4 POP SWAP4 SWAP2 POP POP JUMP JUMPDEST PUSH32 0x0 DUP2 JUMP JUMPDEST PUSH1 0x0 DUP1 PUSH2 0xDF8 PUSH2 0x2052 JUMP JUMPDEST PUSH2 0xE01 DUP7 PUSH2 0x94E JUMP JUMPDEST SWAP1 POP PUSH2 0xE0F DUP7 DUP3 DUP8 CALLER PUSH2 0x12EE JUMP JUMPDEST PUSH2 0xE1B DUP7 DUP6 CALLER CALLER PUSH2 0x14D1 JUMP JUMPDEST DUP3 MLOAD PUSH1 0x80 DUP10 ADD MLOAD DUP10 MLOAD PUSH1 0x20 DUP12 ADD MLOAD PUSH1 0x40 MLOAD SWAP6 SWAP9 POP SWAP4 SWAP7 POP PUSH32 0xAC75F773E3A92F1A02B12134D65E1F47F8A14EABE4EAF1E24624918E6A8B269F SWAP5 PUSH2 0xDB8 SWAP5 CALLER SWAP3 SWAP2 DUP10 SWAP1 DUP12 SWAP1 PUSH2 0x2680 JUMP JUMPDEST PUSH1 0x0 DUP1 CALLER ADDRESS EQ PUSH2 0xE7F JUMPI PUSH2 0xE7F PUSH2 0xE7A CALLER PUSH2 0x19CD JUMP JUMPDEST PUSH2 0x1A85 JUMP JUMPDEST PUSH2 0xE87 PUSH2 0x2052 JUMP JUMPDEST PUSH2 0xE90 DUP10 PUSH2 0x94E JUMP JUMPDEST SWAP1 POP PUSH2 0xE9E DUP10 DUP3 DUP11 DUP10 PUSH2 0x12EE JUMP JUMPDEST PUSH2 0xEB6 DUP10 DUP9 DUP8 PUSH2 0xEAE JUMPI DUP9 PUSH2 0xEB0 JUMP JUMPDEST ADDRESS JUMPDEST DUP8 PUSH2 0x14D1 JUMP JUMPDEST DUP3 MLOAD PUSH1 0x80 DUP13 ADD MLOAD DUP13 MLOAD PUSH1 0x20 DUP15 ADD MLOAD PUSH1 0x40 MLOAD SWAP6 SWAP9 POP SWAP4 SWAP7 POP PUSH32 0xAC75F773E3A92F1A02B12134D65E1F47F8A14EABE4EAF1E24624918E6A8B269F SWAP5 PUSH2 0xEFF SWAP5 DUP13 SWAP3 SWAP2 DUP10 SWAP1 DUP12 SWAP1 PUSH2 0x2680 JUMP JUMPDEST PUSH1 0x40 MLOAD DUP1 SWAP2 SUB SWAP1 LOG1 POP SWAP7 POP SWAP7 SWAP5 POP POP POP POP POP JUMP JUMPDEST PUSH1 0x60 DUP4 MLOAD DUP6 MLOAD EQ DUP1 ISZERO PUSH2 0xF27 JUMPI POP DUP3 MLOAD DUP6 MLOAD EQ JUMPDEST DUP1 ISZERO PUSH2 0xF34 JUMPI POP DUP2 MLOAD DUP6 MLOAD EQ JUMPDEST PUSH2 0xF6A JUMPI PUSH1 0x40 MLOAD PUSH32 0x8C379A000000000000000000000000000000000000000000000000000000000 DUP2 MSTORE PUSH1 0x4 ADD PUSH2 0x594 SWAP1 PUSH2 0x2875 JUMP JUMPDEST DUP5 MLOAD PUSH8 0xFFFFFFFFFFFFFFFF DUP2 GT DUP1 ISZERO PUSH2 0xF82 JUMPI PUSH1 0x0 DUP1 REVERT JUMPDEST POP PUSH1 0x40 MLOAD SWAP1 DUP1 DUP3 MSTORE DUP1 PUSH1 0x20 MUL PUSH1 0x20 ADD DUP3 ADD PUSH1 0x40 MSTORE DUP1 ISZERO PUSH2 0xFAC JUMPI DUP2 PUSH1 0x20 ADD PUSH1 0x20 DUP3 MUL DUP1 CALLDATASIZE DUP4 CALLDATACOPY ADD SWAP1 POP JUMPDEST POP SWAP1 POP PUSH1 0x0 JUMPDEST DUP6 MLOAD DUP2 EQ PUSH2 0x1194 JUMPI PUSH1 0x0 DUP4 DUP3 DUP2 MLOAD DUP2 LT PUSH2 0xFC8 JUMPI INVALID JUMPDEST PUSH1 0x20 MUL PUSH1 0x20 ADD ADD MLOAD PUSH2 0xFFA JUMPI PUSH32 0x4F94811000000000000000000000000000000000000000000000000000000000 PUSH2 0x101C JUMP JUMPDEST PUSH32 0x724D395300000000000000000000000000000000000000000000000000000000 JUMPDEST SWAP1 POP PUSH32 0x0 PUSH20 0xFFFFFFFFFFFFFFFFFFFFFFFFFFFFFFFFFFFFFFFF AND DUP2 DUP9 DUP5 DUP2 MLOAD DUP2 LT PUSH2 0x1062 JUMPI INVALID JUMPDEST PUSH1 0x20 MUL PUSH1 0x20 ADD ADD MLOAD DUP9 DUP6 DUP2 MLOAD DUP2 LT PUSH2 0x1076 JUMPI INVALID JUMPDEST PUSH1 0x20 MUL PUSH1 0x20 ADD ADD MLOAD DUP9 DUP7 DUP2 MLOAD DUP2 LT PUSH2 0x108A JUMPI INVALID JUMPDEST PUSH1 0x20 MUL PUSH1 0x20 ADD ADD MLOAD PUSH1 0x40 MLOAD PUSH1 0x24 ADD PUSH2 0x10A4 SWAP4 SWAP3 SWAP2 SWAP1 PUSH2 0x2A34 JUMP JUMPDEST PUSH1 0x40 DUP1 MLOAD PUSH32 0xFFFFFFFFFFFFFFFFFFFFFFFFFFFFFFFFFFFFFFFFFFFFFFFFFFFFFFFFFFFFFFE0 DUP2 DUP5 SUB ADD DUP2 MSTORE SWAP2 DUP2 MSTORE PUSH1 0x20 DUP3 ADD DUP1 MLOAD PUSH28 0xFFFFFFFFFFFFFFFFFFFFFFFFFFFFFFFFFFFFFFFFFFFFFFFFFFFFFFFF AND PUSH32 0xFFFFFFFF00000000000000000000000000000000000000000000000000000000 SWAP1 SWAP5 AND SWAP4 SWAP1 SWAP4 OR SWAP1 SWAP3 MSTORE SWAP1 MLOAD PUSH2 0x112D SWAP2 SWAP1 PUSH2 0x258F JUMP JUMPDEST PUSH1 0x0 PUSH1 0x40 MLOAD DUP1 DUP4 SUB DUP2 DUP6 GAS DELEGATECALL SWAP2 POP POP RETURNDATASIZE DUP1 PUSH1 0x0 DUP2 EQ PUSH2 0x1168 JUMPI PUSH1 0x40 MLOAD SWAP2 POP PUSH1 0x1F NOT PUSH1 0x3F RETURNDATASIZE ADD AND DUP3 ADD PUSH1 0x40 MSTORE RETURNDATASIZE DUP3 MSTORE RETURNDATASIZE PUSH1 0x0 PUSH1 0x20 DUP5 ADD RETURNDATACOPY PUSH2 0x116D JUMP JUMPDEST PUSH1 0x60 SWAP2 POP JUMPDEST POP POP DUP4 DUP4 DUP2 MLOAD DUP2 LT PUSH2 0x117B JUMPI INVALID JUMPDEST SWAP2 ISZERO ISZERO PUSH1 0x20 SWAP3 DUP4 MUL SWAP2 SWAP1 SWAP2 ADD SWAP1 SWAP2 ADD MSTORE POP PUSH1 0x1 ADD PUSH2 0xFB2 JUMP JUMPDEST POP SWAP5 SWAP4 POP POP POP POP JUMP JUMPDEST PUSH1 0x0 PUSH2 0x11A9 DUP4 DUP4 PUSH2 0x1A8D JUMP JUMPDEST PUSH1 0x2 DUP3 MLOAD PUSH1 0x3 DUP2 GT ISZERO PUSH2 0x11B8 JUMPI INVALID JUMPDEST EQ ISZERO PUSH2 0x1220 JUMPI PUSH1 0x1 DUP4 DUP4 PUSH1 0x20 ADD MLOAD DUP5 PUSH1 0x40 ADD MLOAD DUP6 PUSH1 0x60 ADD MLOAD PUSH1 0x40 MLOAD PUSH1 0x0 DUP2 MSTORE PUSH1 0x20 ADD PUSH1 0x40 MSTORE PUSH1 0x40 MLOAD PUSH2 0x11ED SWAP5 SWAP4 SWAP3 SWAP2 SWAP1 PUSH2 0x26EE JUMP JUMPDEST PUSH1 0x20 PUSH1 0x40 MLOAD PUSH1 0x20 DUP2 SUB SWAP1 DUP1 DUP5 SUB SWAP1 DUP6 GAS STATICCALL ISZERO DUP1 ISZERO PUSH2 0x120F JUMPI RETURNDATASIZE PUSH1 0x0 DUP1 RETURNDATACOPY RETURNDATASIZE PUSH1 0x0 REVERT JUMPDEST POP POP POP PUSH1 0x20 PUSH1 0x40 MLOAD SUB MLOAD SWAP1 POP PUSH2 0x12C5 JUMP JUMPDEST PUSH1 0x3 DUP3 MLOAD PUSH1 0x3 DUP2 GT ISZERO PUSH2 0x122F JUMPI INVALID JUMPDEST EQ ISZERO PUSH2 0x12C5 JUMPI PUSH1 0x0 PUSH32 0x19457468657265756D205369676E6564204D6573736167653A0A333200000000 PUSH1 0x0 MSTORE DUP4 PUSH1 0x1C MSTORE PUSH1 0x3C PUSH1 0x0 KECCAK256 SWAP1 POP PUSH1 0x1 DUP2 DUP5 PUSH1 0x20 ADD MLOAD DUP6 PUSH1 0x40 ADD MLOAD DUP7 PUSH1 0x60 ADD MLOAD PUSH1 0x40 MLOAD PUSH1 0x0 DUP2 MSTORE PUSH1 0x20 ADD PUSH1 0x40 MSTORE PUSH1 0x40 MLOAD PUSH2 0x1295 SWAP5 SWAP4 SWAP3 SWAP2 SWAP1 PUSH2 0x26EE JUMP JUMPDEST PUSH1 0x20 PUSH1 0x40 MLOAD PUSH1 0x20 DUP2 SUB SWAP1 DUP1 DUP5 SUB SWAP1 DUP6 GAS STATICCALL ISZERO DUP1 ISZERO PUSH2 0x12B7 JUMPI RETURNDATASIZE PUSH1 0x0 DUP1 RETURNDATACOPY RETURNDATASIZE PUSH1 0x0 REVERT JUMPDEST POP POP POP PUSH1 0x20 PUSH1 0x40 MLOAD SUB MLOAD SWAP2 POP POP JUMPDEST PUSH20 0xFFFFFFFFFFFFFFFFFFFFFFFFFFFFFFFFFFFFFFFF DUP2 AND PUSH2 0x40D JUMPI PUSH2 0x40D PUSH2 0xE7A PUSH1 0x5 DUP6 PUSH2 0x1B41 JUMP JUMPDEST PUSH1 0x1 DUP4 PUSH1 0x20 ADD MLOAD PUSH1 0x4 DUP2 GT ISZERO PUSH2 0x1300 JUMPI INVALID JUMPDEST EQ PUSH2 0x1325 JUMPI PUSH2 0x1325 PUSH2 0xE7A DUP5 PUSH1 0x0 ADD MLOAD DUP6 PUSH1 0x20 ADD MLOAD PUSH1 0x4 DUP2 GT ISZERO PUSH2 0x1320 JUMPI INVALID JUMPDEST PUSH2 0x1BFC JUMP JUMPDEST PUSH1 0xA0 DUP5 ADD MLOAD PUSH20 0xFFFFFFFFFFFFFFFFFFFFFFFFFFFFFFFFFFFFFFFF AND ISZERO DUP1 ISZERO SWAP1 PUSH2 0x137E JUMPI POP DUP1 PUSH20 0xFFFFFFFFFFFFFFFFFFFFFFFFFFFFFFFFFFFFFFFF AND DUP5 PUSH1 0xA0 ADD MLOAD PUSH20 0xFFFFFFFFFFFFFFFFFFFFFFFFFFFFFFFFFFFFFFFF AND EQ ISZERO JUMPDEST ISZERO PUSH2 0x1399 JUMPI PUSH2 0x1399 PUSH2 0xE7A DUP5 PUSH1 0x0 ADD MLOAD DUP4 DUP8 PUSH1 0xA0 ADD MLOAD PUSH2 0x1C32 JUMP JUMPDEST PUSH1 0x0 PUSH2 0x13A3 PUSH2 0x1CF0 JUMP JUMPDEST PUSH1 0xC0 DUP7 ADD MLOAD SWAP1 SWAP2 POP PUSH20 0xFFFFFFFFFFFFFFFFFFFFFFFFFFFFFFFFFFFFFFFF AND ORIGIN EQ DUP1 ISZERO SWAP1 PUSH2 0x1407 JUMPI POP PUSH1 0xC0 DUP6 ADD MLOAD PUSH20 0xFFFFFFFFFFFFFFFFFFFFFFFFFFFFFFFFFFFFFFFF AND PUSH1 0x0 SWAP1 DUP2 MSTORE PUSH1 0x3 DUP3 ADD PUSH1 0x20 SWAP1 DUP2 MSTORE PUSH1 0x40 DUP1 DUP4 KECCAK256 ORIGIN DUP5 MSTORE SWAP1 SWAP2 MSTORE SWAP1 KECCAK256 SLOAD PUSH1 0xFF AND ISZERO JUMPDEST ISZERO PUSH2 0x1422 JUMPI PUSH2 0x1422 PUSH2 0xE7A DUP6 PUSH1 0x0 ADD MLOAD ORIGIN DUP9 PUSH1 0xC0 ADD MLOAD PUSH2 0x1CFD JUMP JUMPDEST PUSH1 0x0 PUSH2 0x1432 DUP6 PUSH1 0x0 ADD MLOAD DUP6 PUSH2 0x119D JUMP JUMPDEST SWAP1 POP DUP6 PUSH1 0x80 ADD MLOAD PUSH20 0xFFFFFFFFFFFFFFFFFFFFFFFFFFFFFFFFFFFFFFFF AND DUP2 PUSH20 0xFFFFFFFFFFFFFFFFFFFFFFFFFFFFFFFFFFFFFFFF AND EQ ISZERO DUP1 ISZERO PUSH2 0x14AE JUMPI POP PUSH1 0x80 DUP7 ADD MLOAD PUSH20 0xFFFFFFFFFFFFFFFFFFFFFFFFFFFFFFFFFFFFFFFF SWAP1 DUP2 AND PUSH1 0x0 SWAP1 DUP2 MSTORE PUSH1 0x4 DUP5 ADD PUSH1 0x20 SWAP1 DUP2 MSTORE PUSH1 0x40 DUP1 DUP4 KECCAK256 SWAP4 DUP6 AND DUP4 MSTORE SWAP3 SWAP1 MSTORE KECCAK256 SLOAD PUSH1 0xFF AND ISZERO JUMPDEST ISZERO PUSH2 0x14C9 JUMPI PUSH2 0x14C9 PUSH2 0xE7A DUP7 PUSH1 0x0 ADD MLOAD DUP4 DUP10 PUSH1 0x80 ADD MLOAD PUSH2 0x1D35 JUMP JUMPDEST POP POP POP POP POP POP JUMP JUMPDEST PUSH1 0xE0 DUP5 ADD MLOAD PUSH1 0x0 SWAP1 DUP2 SWAP1 PUSH1 0x80 DUP2 SWAP1 SHR SWAP1 DUP1 PUSH2 0x14EA PUSH2 0x187E JUMP JUMPDEST PUSH1 0xC0 DUP11 ADD MLOAD PUSH20 0xFFFFFFFFFFFFFFFFFFFFFFFFFFFFFFFFFFFFFFFF AND PUSH1 0x0 SWAP1 DUP2 MSTORE PUSH1 0x20 SWAP2 DUP3 MSTORE PUSH1 0x40 DUP1 DUP3 KECCAK256 PUSH8 0xFFFFFFFFFFFFFFFF SWAP7 SWAP1 SWAP7 AND DUP3 MSTORE SWAP5 SWAP1 SWAP2 MSTORE SWAP3 SWAP1 SWAP3 KECCAK256 DUP1 SLOAD PUSH32 0xFFFFFFFFFFFFFFFFFFFFFFFFFFFFFFFF00000000000000000000000000000000 AND PUSH16 0xFFFFFFFFFFFFFFFFFFFFFFFFFFFFFFFF SWAP4 DUP5 AND OR SWAP1 SSTORE POP PUSH1 0x60 DUP8 ADD MLOAD DUP2 AND SWAP1 DUP7 AND EQ ISZERO PUSH2 0x1588 JUMPI POP POP PUSH1 0x60 DUP5 ADD MLOAD PUSH1 0x40 DUP6 ADD MLOAD PUSH2 0x15E4 JUMP JUMPDEST PUSH2 0x1596 DUP6 DUP8 PUSH1 0x60 ADD MLOAD PUSH2 0x1D6D JUMP JUMPDEST SWAP2 POP PUSH2 0x15E1 DUP3 PUSH16 0xFFFFFFFFFFFFFFFFFFFFFFFFFFFFFFFF AND DUP8 PUSH1 0x60 ADD MLOAD PUSH16 0xFFFFFFFFFFFFFFFFFFFFFFFFFFFFFFFF AND DUP9 PUSH1 0x40 ADD MLOAD PUSH16 0xFFFFFFFFFFFFFFFFFFFFFFFFFFFFFFFF AND PUSH2 0x1DA9 JUMP JUMPDEST SWAP1 POP JUMPDEST PUSH20 0xFFFFFFFFFFFFFFFFFFFFFFFFFFFFFFFFFFFFFFFF DUP5 AND ADDRESS EQ ISZERO PUSH2 0x16C2 JUMPI PUSH1 0x20 DUP7 ADD MLOAD PUSH20 0xFFFFFFFFFFFFFFFFFFFFFFFFFFFFFFFFFFFFFFFF AND PUSH20 0xEEEEEEEEEEEEEEEEEEEEEEEEEEEEEEEEEEEEEEEE EQ ISZERO PUSH2 0x1698 JUMPI PUSH1 0x80 DUP7 ADD MLOAD PUSH1 0x40 MLOAD PUSH20 0xFFFFFFFFFFFFFFFFFFFFFFFFFFFFFFFFFFFFFFFF SWAP1 SWAP2 AND SWAP1 PUSH16 0xFFFFFFFFFFFFFFFFFFFFFFFFFFFFFFFF DUP5 AND DUP1 ISZERO PUSH2 0x8FC MUL SWAP2 PUSH1 0x0 DUP2 DUP2 DUP2 DUP6 DUP9 DUP9 CALL SWAP4 POP POP POP POP ISZERO DUP1 ISZERO PUSH2 0x1692 JUMPI RETURNDATASIZE PUSH1 0x0 DUP1 RETURNDATACOPY RETURNDATASIZE PUSH1 0x0 REVERT JUMPDEST POP PUSH2 0x16BD JUMP JUMPDEST PUSH2 0x16BD DUP7 PUSH1 0x20 ADD MLOAD DUP8 PUSH1 0x80 ADD MLOAD DUP5 PUSH16 0xFFFFFFFFFFFFFFFFFFFFFFFFFFFFFFFF AND PUSH2 0x1DC7 JUMP JUMPDEST PUSH2 0x16E8 JUMP JUMPDEST PUSH2 0x16E8 DUP7 PUSH1 0x20 ADD MLOAD DUP6 DUP9 PUSH1 0x80 ADD MLOAD DUP6 PUSH16 0xFFFFFFFFFFFFFFFFFFFFFFFFFFFFFFFF AND PUSH2 0x1EA1 JUMP JUMPDEST PUSH2 0x170E DUP7 PUSH1 0x0 ADD MLOAD DUP8 PUSH1 0x80 ADD MLOAD DUP6 DUP5 PUSH16 0xFFFFFFFFFFFFFFFFFFFFFFFFFFFFFFFF AND PUSH2 0x1EA1 JUMP JUMPDEST SWAP5 POP SWAP5 SWAP3 POP POP POP JUMP JUMPDEST PUSH1 0x0 PUSH1 0x40 MLOAD PUSH32 0x2F754524DE756AE72459EFBE1EC88C19A745639821DE528AC3FB88F9E65E35C8 DUP2 MSTORE DUP3 MLOAD PUSH20 0xFFFFFFFFFFFFFFFFFFFFFFFFFFFFFFFFFFFFFFFF AND PUSH1 0x20 DUP3 ADD MSTORE PUSH1 0x20 DUP4 ADD MLOAD PUSH20 0xFFFFFFFFFFFFFFFFFFFFFFFFFFFFFFFFFFFFFFFF AND PUSH1 0x40 DUP3 ADD MSTORE PUSH1 0x40 DUP4 ADD MLOAD PUSH16 0xFFFFFFFFFFFFFFFFFFFFFFFFFFFFFFFF AND PUSH1 0x60 DUP3 ADD MSTORE PUSH1 0x60 DUP4 ADD MLOAD PUSH16 0xFFFFFFFFFFFFFFFFFFFFFFFFFFFFFFFF AND PUSH1 0x80 DUP3 ADD MSTORE PUSH1 0x80 DUP4 ADD MLOAD PUSH20 0xFFFFFFFFFFFFFFFFFFFFFFFFFFFFFFFFFFFFFFFF AND PUSH1 0xA0 DUP3 ADD MSTORE PUSH1 0xA0 DUP4 ADD MLOAD PUSH20 0xFFFFFFFFFFFFFFFFFFFFFFFFFFFFFFFFFFFFFFFF AND PUSH1 0xC0 DUP3 ADD MSTORE PUSH1 0xC0 DUP4 ADD MLOAD PUSH20 0xFFFFFFFFFFFFFFFFFFFFFFFFFFFFFFFFFFFFFFFF AND PUSH1 0xE0 DUP3 ADD MSTORE PUSH1 0xE0 DUP4 ADD MLOAD PUSH2 0x100 DUP3 ADD MSTORE PUSH2 0x120 DUP2 KECCAK256 SWAP2 POP POP SWAP2 SWAP1 POP JUMP JUMPDEST PUSH1 0x0 PUSH32 0x0 DUP3 PUSH1 0x40 MLOAD PUSH1 0x20 ADD PUSH2 0x1861 SWAP3 SWAP2 SWAP1 PUSH2 0x25AB JUMP JUMPDEST PUSH1 0x40 MLOAD PUSH1 0x20 DUP2 DUP4 SUB SUB DUP2 MSTORE SWAP1 PUSH1 0x40 MSTORE DUP1 MLOAD SWAP1 PUSH1 0x20 ADD KECCAK256 SWAP1 POP SWAP2 SWAP1 POP JUMP JUMPDEST PUSH1 0x0 DUP1 PUSH2 0x40D PUSH1 0x8 PUSH2 0x1FA0 JUMP JUMPDEST PUSH1 0x0 PUSH16 0xFFFFFFFFFFFFFFFFFFFFFFFFFFFFFFFF DUP3 GT ISZERO PUSH2 0x18B3 JUMPI PUSH2 0x18B3 PUSH2 0xE7A PUSH1 0x3 DUP5 PUSH2 0x1FBB JUMP JUMPDEST POP SWAP1 JUMP JUMPDEST PUSH1 0x0 PUSH1 0x60 DUP4 PUSH20 0xFFFFFFFFFFFFFFFFFFFFFFFFFFFFFFFFFFFFFFFF AND DUP4 PUSH1 0x40 MLOAD PUSH2 0x18DF SWAP1 PUSH2 0x25E1 JUMP JUMPDEST PUSH1 0x0 PUSH1 0x40 MLOAD DUP1 DUP4 SUB DUP2 DUP6 DUP8 GAS CALL SWAP3 POP POP POP RETURNDATASIZE DUP1 PUSH1 0x0 DUP2 EQ PUSH2 0x191C JUMPI PUSH1 0x40 MLOAD SWAP2 POP PUSH1 0x1F NOT PUSH1 0x3F RETURNDATASIZE ADD AND DUP3 ADD PUSH1 0x40 MSTORE RETURNDATASIZE DUP3 MSTORE RETURNDATASIZE PUSH1 0x0 PUSH1 0x20 DUP5 ADD RETURNDATACOPY PUSH2 0x1921 JUMP JUMPDEST PUSH1 0x60 SWAP2 POP JUMPDEST POP SWAP2 POP SWAP2 POP DUP2 PUSH2 0x1934 JUMPI PUSH2 0x1934 DUP2 PUSH2 0x1A85 JUMP JUMPDEST POP POP POP POP JUMP JUMPDEST PUSH1 0x40 MLOAD PUSH32 0x6EB224CB00000000000000000000000000000000000000000000000000000000 DUP2 MSTORE ADDRESS SWAP1 PUSH4 0x6EB224CB SWAP1 PUSH2 0x1998 SWAP1 DUP5 SWAP1 PUSH32 0x0 SWAP1 PUSH1 0x4 ADD PUSH2 0x2739 JUMP JUMPDEST PUSH1 0x0 PUSH1 0x40 MLOAD DUP1 DUP4 SUB DUP2 PUSH1 0x0 DUP8 DUP1 EXTCODESIZE ISZERO DUP1 ISZERO PUSH2 0x19B2 JUMPI PUSH1 0x0 DUP1 REVERT JUMPDEST POP GAS CALL ISZERO DUP1 ISZERO PUSH2 0x19C6 JUMPI RETURNDATASIZE PUSH1 0x0 DUP1 RETURNDATACOPY RETURNDATASIZE PUSH1 0x0 REVERT JUMPDEST POP POP POP POP POP JUMP JUMPDEST PUSH1 0x60 PUSH32 0xF0EC779B0BCDA6D84ABF99EE2C67647D1100EBBB553A9C2D1C2BA1579592832C DUP3 PUSH1 0x40 MLOAD PUSH1 0x24 ADD PUSH2 0x1A01 SWAP2 SWAP1 PUSH2 0x25E4 JUMP JUMPDEST PUSH1 0x40 DUP1 MLOAD PUSH32 0xFFFFFFFFFFFFFFFFFFFFFFFFFFFFFFFFFFFFFFFFFFFFFFFFFFFFFFFFFFFFFFE0 DUP2 DUP5 SUB ADD DUP2 MSTORE SWAP2 SWAP1 MSTORE PUSH1 0x20 DUP2 ADD DUP1 MLOAD PUSH28 0xFFFFFFFFFFFFFFFFFFFFFFFFFFFFFFFFFFFFFFFFFFFFFFFFFFFFFFFF AND PUSH32 0xFFFFFFFF00000000000000000000000000000000000000000000000000000000 SWAP1 SWAP4 AND SWAP3 SWAP1 SWAP3 OR SWAP1 SWAP2 MSTORE SWAP1 POP SWAP2 SWAP1 POP JUMP JUMPDEST DUP1 MLOAD PUSH1 0x20 DUP3 ADD REVERT JUMPDEST PUSH1 0x40 DUP2 ADD MLOAD PUSH32 0xFFFFFFFFFFFFFFFFFFFFFFFFFFFFFFFEBAAEDCE6AF48A03BBFD25E8CD0364141 GT ISZERO DUP1 PUSH2 0x1AE4 JUMPI POP PUSH1 0x60 DUP2 ADD MLOAD PUSH32 0x7FFFFFFFFFFFFFFFFFFFFFFFFFFFFFFF5D576E7357A4501DDFE92F46681B20A1 GT ISZERO JUMPDEST ISZERO PUSH2 0x1AF7 JUMPI PUSH2 0x1AF7 PUSH2 0xE7A PUSH1 0x5 DUP5 PUSH2 0x1B41 JUMP JUMPDEST PUSH1 0x0 DUP2 MLOAD PUSH1 0x3 DUP2 GT ISZERO PUSH2 0x1B06 JUMPI INVALID JUMPDEST EQ ISZERO PUSH2 0x1B1A JUMPI PUSH2 0x1B1A PUSH2 0xE7A PUSH1 0x3 DUP5 PUSH2 0x1B41 JUMP JUMPDEST PUSH1 0x1 DUP2 MLOAD PUSH1 0x3 DUP2 GT ISZERO PUSH2 0x1B29 JUMPI INVALID JUMPDEST EQ ISZERO PUSH2 0x1B3D JUMPI PUSH2 0x1B3D PUSH2 0xE7A PUSH1 0x0 DUP5 PUSH2 0x1B41 JUMP JUMPDEST POP POP JUMP JUMPDEST PUSH1 0x60 PUSH32 0xF18F11F3027E735C758137924B262D4D3AFF0037DCD785ACA3C699FA05D960BD DUP4 DUP4 PUSH1 0x40 MLOAD PUSH1 0x24 ADD PUSH2 0x1B77 SWAP3 SWAP2 SWAP1 PUSH2 0x27B9 JUMP JUMPDEST PUSH1 0x40 DUP1 MLOAD PUSH32 0xFFFFFFFFFFFFFFFFFFFFFFFFFFFFFFFFFFFFFFFFFFFFFFFFFFFFFFFFFFFFFFE0 DUP2 DUP5 SUB ADD DUP2 MSTORE SWAP2 SWAP1 MSTORE PUSH1 0x20 DUP2 ADD DUP1 MLOAD PUSH28 0xFFFFFFFFFFFFFFFFFFFFFFFFFFFFFFFFFFFFFFFFFFFFFFFFFFFFFFFF AND PUSH32 0xFFFFFFFF00000000000000000000000000000000000000000000000000000000 SWAP1 SWAP4 AND SWAP3 SWAP1 SWAP3 OR SWAP1 SWAP2 MSTORE SWAP1 POP SWAP3 SWAP2 POP POP JUMP JUMPDEST PUSH1 0x60 PUSH32 0x47AB394E41470191EAF9FA542E84AC483A12665FBD616EB8D1C022CED6C94000 DUP4 DUP4 PUSH1 0x40 MLOAD PUSH1 0x24 ADD PUSH2 0x1B77 SWAP3 SWAP2 SWAP1 PUSH2 0x26DD JUMP JUMPDEST PUSH1 0x60 PUSH32 0x5D3300180A4547B3E27137BE832D3EBF56F1BA5EBB30DD580999C61F77FA6396 DUP5 DUP5 DUP5 PUSH1 0x40 MLOAD PUSH1 0x24 ADD PUSH2 0x1C6A SWAP4 SWAP3 SWAP2 SWAP1 PUSH2 0x2654 JUMP JUMPDEST PUSH1 0x40 DUP1 MLOAD PUSH32 0xFFFFFFFFFFFFFFFFFFFFFFFFFFFFFFFFFFFFFFFFFFFFFFFFFFFFFFFFFFFFFFE0 DUP2 DUP5 SUB ADD DUP2 MSTORE SWAP2 SWAP1 MSTORE PUSH1 0x20 DUP2 ADD DUP1 MLOAD PUSH28 0xFFFFFFFFFFFFFFFFFFFFFFFFFFFFFFFFFFFFFFFFFFFFFFFFFFFFFFFF AND PUSH32 0xFFFFFFFF00000000000000000000000000000000000000000000000000000000 SWAP1 SWAP4 AND SWAP3 SWAP1 SWAP3 OR SWAP1 SWAP2 MSTORE SWAP1 POP SWAP4 SWAP3 POP POP POP JUMP JUMPDEST PUSH1 0x0 DUP1 PUSH2 0x40D PUSH1 0x7 PUSH2 0x1FA0 JUMP JUMPDEST PUSH1 0x60 PUSH32 0xC0972F3CC4234CA2091DE7E7BC7081494BD29AC280167D66F0D44168973B1634 DUP5 DUP5 DUP5 PUSH1 0x40 MLOAD PUSH1 0x24 ADD PUSH2 0x1C6A SWAP4 SWAP3 SWAP2 SWAP1 PUSH2 0x2654 JUMP JUMPDEST PUSH1 0x60 PUSH32 0xF13E65D925201525F3D71A731833B19BB26E44CFBD97CAF72A366B73866F7124 DUP5 DUP5 DUP5 PUSH1 0x40 MLOAD PUSH1 0x24 ADD PUSH2 0x1C6A SWAP4 SWAP3 SWAP2 SWAP1 PUSH2 0x2654 JUMP JUMPDEST PUSH1 0x0 DUP2 PUSH16 0xFFFFFFFFFFFFFFFFFFFFFFFFFFFFFFFF AND DUP4 PUSH16 0xFFFFFFFFFFFFFFFFFFFFFFFFFFFFFFFF AND LT PUSH2 0x1DA0 JUMPI DUP2 PUSH2 0x1DA2 JUMP JUMPDEST DUP3 JUMPDEST SWAP4 SWAP3 POP POP POP JUMP JUMPDEST PUSH1 0x0 PUSH2 0x1DBF DUP4 PUSH2 0x1DB9 DUP7 DUP6 PUSH2 0x1FD8 JUMP JUMPDEST SWAP1 PUSH2 0x2009 JUMP JUMPDEST SWAP5 SWAP4 POP POP POP POP JUMP JUMPDEST PUSH20 0xFFFFFFFFFFFFFFFFFFFFFFFFFFFFFFFFFFFFFFFF DUP4 AND ADDRESS EQ ISZERO PUSH2 0x1E17 JUMPI PUSH1 0x40 MLOAD PUSH32 0x8C379A000000000000000000000000000000000000000000000000000000000 DUP2 MSTORE PUSH1 0x4 ADD PUSH2 0x594 SWAP1 PUSH2 0x2955 JUMP JUMPDEST PUSH1 0x40 MLOAD PUSH32 0xA9059CBB00000000000000000000000000000000000000000000000000000000 DUP2 MSTORE PUSH20 0xFFFFFFFFFFFFFFFFFFFFFFFFFFFFFFFFFFFFFFFF DUP4 AND PUSH1 0x4 DUP3 ADD MSTORE DUP2 PUSH1 0x24 DUP3 ADD MSTORE PUSH1 0x20 DUP2 PUSH1 0x44 DUP4 PUSH1 0x0 PUSH20 0xFFFFFFFFFFFFFFFFFFFFFFFFFFFFFFFFFFFFFFFF DUP10 AND GAS CALL RETURNDATASIZE PUSH1 0x1 DUP4 MLOAD EQ PUSH1 0x20 DUP3 LT ISZERO AND DUP2 ISZERO OR DUP3 AND SWAP2 POP DUP2 PUSH2 0x14C9 JUMPI DUP1 PUSH1 0x0 DUP5 RETURNDATACOPY DUP1 DUP4 REVERT JUMPDEST PUSH20 0xFFFFFFFFFFFFFFFFFFFFFFFFFFFFFFFFFFFFFFFF DUP5 AND ADDRESS EQ ISZERO PUSH2 0x1EF1 JUMPI PUSH1 0x40 MLOAD PUSH32 0x8C379A000000000000000000000000000000000000000000000000000000000 DUP2 MSTORE PUSH1 0x4 ADD PUSH2 0x594 SWAP1 PUSH2 0x2955 JUMP JUMPDEST PUSH1 0x40 MLOAD PUSH32 0x23B872DD00000000000000000000000000000000000000000000000000000000 DUP2 MSTORE PUSH20 0xFFFFFFFFFFFFFFFFFFFFFFFFFFFFFFFFFFFFFFFF DUP5 AND PUSH1 0x4 DUP3 ADD MSTORE PUSH20 0xFFFFFFFFFFFFFFFFFFFFFFFFFFFFFFFFFFFFFFFF DUP4 AND PUSH1 0x24 DUP3 ADD MSTORE DUP2 PUSH1 0x44 DUP3 ADD MSTORE PUSH1 0x20 DUP2 PUSH1 0x64 DUP4 PUSH1 0x0 PUSH20 0xFFFFFFFFFFFFFFFFFFFFFFFFFFFFFFFFFFFFFFFF DUP11 AND GAS CALL RETURNDATASIZE PUSH1 0x1 DUP4 MLOAD EQ PUSH1 0x20 DUP3 LT ISZERO AND DUP2 ISZERO OR DUP3 AND SWAP2 POP DUP2 PUSH2 0x1F97 JUMPI DUP1 PUSH1 0x0 DUP5 RETURNDATACOPY DUP1 DUP4 REVERT JUMPDEST POP POP POP POP POP POP POP JUMP JUMPDEST PUSH1 0x0 PUSH1 0x80 DUP3 PUSH1 0x8 DUP2 GT ISZERO PUSH2 0x1FB0 JUMPI INVALID JUMPDEST PUSH1 0x1 ADD SWAP1 SHL SWAP3 SWAP2 POP POP JUMP JUMPDEST PUSH1 0x60 PUSH4 0xC996AF7B PUSH1 0xE0 SHL DUP4 DUP4 PUSH1 0x40 MLOAD PUSH1 0x24 ADD PUSH2 0x1B77 SWAP3 SWAP2 SWAP1 PUSH2 0x27A2 JUMP JUMPDEST PUSH1 0x0 DUP3 PUSH2 0x1FE7 JUMPI POP PUSH1 0x0 PUSH2 0x40D JUMP JUMPDEST DUP3 DUP3 MUL DUP3 DUP5 DUP3 DUP2 PUSH2 0x1FF4 JUMPI INVALID JUMPDEST DIV EQ PUSH2 0x1DA2 JUMPI PUSH2 0x1DA2 PUSH2 0xE7A PUSH1 0x1 DUP7 DUP7 PUSH2 0x2033 JUMP JUMPDEST PUSH1 0x0 DUP2 PUSH2 0x201F JUMPI PUSH2 0x201F PUSH2 0xE7A PUSH1 0x3 DUP6 DUP6 PUSH2 0x2033 JUMP JUMPDEST PUSH1 0x0 DUP3 DUP5 DUP2 PUSH2 0x202A JUMPI INVALID JUMPDEST DIV SWAP5 SWAP4 POP POP POP POP JUMP JUMPDEST PUSH1 0x60 PUSH4 0xE946C1BB PUSH1 0xE0 SHL DUP5 DUP5 DUP5 PUSH1 0x40 MLOAD PUSH1 0x24 ADD PUSH2 0x1C6A SWAP4 SWAP3 SWAP2 SWAP1 PUSH2 0x2781 JUMP JUMPDEST PUSH1 0x40 DUP1 MLOAD DUP1 DUP3 ADD SWAP1 SWAP2 MSTORE PUSH1 0x0 DUP1 DUP3 MSTORE PUSH1 0x20 DUP3 ADD MSTORE SWAP1 JUMP JUMPDEST DUP1 CALLDATALOAD PUSH2 0x40D DUP2 PUSH2 0x2BCB JUMP JUMPDEST PUSH1 0x0 DUP3 PUSH1 0x1F DUP4 ADD SLT PUSH2 0x2084 JUMPI DUP1 DUP2 REVERT JUMPDEST DUP2 CALLDATALOAD PUSH2 0x2097 PUSH2 0x2092 DUP3 PUSH2 0x2B59 JUMP JUMPDEST PUSH2 0x2B32 JUMP JUMPDEST DUP2 DUP2 MSTORE SWAP2 POP PUSH1 0x20 DUP1 DUP4 ADD SWAP1 DUP5 DUP2 ADD DUP2 DUP5 MUL DUP7 ADD DUP3 ADD DUP8 LT ISZERO PUSH2 0x20B8 JUMPI PUSH1 0x0 DUP1 REVERT JUMPDEST PUSH1 0x0 DUP1 JUMPDEST DUP6 DUP2 LT ISZERO PUSH2 0x20E5 JUMPI DUP3 CALLDATALOAD DUP1 ISZERO ISZERO DUP2 EQ PUSH2 0x20D3 JUMPI DUP3 DUP4 REVERT JUMPDEST DUP6 MSTORE SWAP4 DUP4 ADD SWAP4 SWAP2 DUP4 ADD SWAP2 PUSH1 0x1 ADD PUSH2 0x20BC JUMP JUMPDEST POP POP POP POP POP POP SWAP3 SWAP2 POP POP JUMP JUMPDEST PUSH1 0x0 DUP3 PUSH1 0x1F DUP4 ADD SLT PUSH2 0x2101 JUMPI DUP1 DUP2 REVERT JUMPDEST DUP2 CALLDATALOAD PUSH2 0x210F PUSH2 0x2092 DUP3 PUSH2 0x2B59 JUMP JUMPDEST DUP2 DUP2 MSTORE SWAP2 POP PUSH1 0x20 DUP1 DUP4 ADD SWAP1 DUP5 DUP2 ADD PUSH1 0x80 DUP1 DUP6 MUL DUP8 ADD DUP4 ADD DUP9 LT ISZERO PUSH2 0x2132 JUMPI PUSH1 0x0 DUP1 REVERT JUMPDEST PUSH1 0x0 JUMPDEST DUP6 DUP2 LT ISZERO PUSH2 0x20E5 JUMPI PUSH2 0x2147 DUP10 DUP5 PUSH2 0x2202 JUMP JUMPDEST DUP6 MSTORE SWAP4 DUP4 ADD SWAP4 SWAP2 DUP2 ADD SWAP2 PUSH1 0x1 ADD PUSH2 0x2135 JUMP JUMPDEST PUSH1 0x0 PUSH2 0x100 DUP1 DUP4 DUP6 SUB SLT ISZERO PUSH2 0x216C JUMPI DUP2 DUP3 REVERT JUMPDEST PUSH2 0x2175 DUP2 PUSH2 0x2B32 JUMP JUMPDEST SWAP2 POP POP DUP2 CALLDATALOAD PUSH2 0x2183 DUP2 PUSH2 0x2BCB JUMP JUMPDEST DUP2 MSTORE PUSH1 0x20 DUP3 ADD CALLDATALOAD PUSH2 0x2193 DUP2 PUSH2 0x2BCB JUMP JUMPDEST PUSH1 0x20 DUP3 ADD MSTORE PUSH2 0x21A5 DUP4 PUSH1 0x40 DUP5 ADD PUSH2 0x2265 JUMP JUMPDEST PUSH1 0x40 DUP3 ADD MSTORE PUSH2 0x21B7 DUP4 PUSH1 0x60 DUP5 ADD PUSH2 0x2265 JUMP JUMPDEST PUSH1 0x60 DUP3 ADD MSTORE PUSH2 0x21C9 DUP4 PUSH1 0x80 DUP5 ADD PUSH2 0x2069 JUMP JUMPDEST PUSH1 0x80 DUP3 ADD MSTORE PUSH2 0x21DB DUP4 PUSH1 0xA0 DUP5 ADD PUSH2 0x2069 JUMP JUMPDEST PUSH1 0xA0 DUP3 ADD MSTORE PUSH2 0x21ED DUP4 PUSH1 0xC0 DUP5 ADD PUSH2 0x2069 JUMP JUMPDEST PUSH1 0xC0 DUP3 ADD MSTORE PUSH1 0xE0 DUP3 ADD CALLDATALOAD PUSH1 0xE0 DUP3 ADD MSTORE SWAP3 SWAP2 POP POP JUMP JUMPDEST PUSH1 0x0 PUSH1 0x80 DUP3 DUP5 SUB SLT ISZERO PUSH2 0x2213 JUMPI DUP1 DUP2 REVERT JUMPDEST PUSH2 0x221D PUSH1 0x80 PUSH2 0x2B32 JUMP JUMPDEST SWAP1 POP DUP2 CALLDATALOAD PUSH1 0x4 DUP2 LT PUSH2 0x222E JUMPI PUSH1 0x0 DUP1 REVERT JUMPDEST DUP2 MSTORE PUSH1 0x20 DUP3 ADD CALLDATALOAD PUSH1 0xFF DUP2 AND DUP2 EQ PUSH2 0x2244 JUMPI PUSH1 0x0 DUP1 REVERT JUMPDEST DUP1 PUSH1 0x20 DUP4 ADD MSTORE POP PUSH1 0x40 DUP3 ADD CALLDATALOAD PUSH1 0x40 DUP3 ADD MSTORE PUSH1 0x60 DUP3 ADD CALLDATALOAD PUSH1 0x60 DUP3 ADD MSTORE SWAP3 SWAP2 POP POP JUMP JUMPDEST DUP1 CALLDATALOAD PUSH16 0xFFFFFFFFFFFFFFFFFFFFFFFFFFFFFFFF DUP2 AND DUP2 EQ PUSH2 0x40D JUMPI PUSH1 0x0 DUP1 REVERT JUMPDEST PUSH1 0x0 DUP1 PUSH1 0x40 DUP4 DUP6 SUB SLT ISZERO PUSH2 0x2297 JUMPI DUP2 DUP3 REVERT JUMPDEST DUP3 CALLDATALOAD PUSH2 0x22A2 DUP2 PUSH2 0x2BCB JUMP JUMPDEST SWAP2 POP PUSH1 0x20 DUP4 ADD CALLDATALOAD PUSH8 0xFFFFFFFFFFFFFFFF DUP2 AND DUP2 EQ PUSH2 0x22BE JUMPI DUP2 DUP3 REVERT JUMPDEST DUP1 SWAP2 POP POP SWAP3 POP SWAP3 SWAP1 POP JUMP JUMPDEST PUSH1 0x0 DUP1 PUSH1 0x0 DUP1 PUSH1 0x80 DUP6 DUP8 SUB SLT ISZERO PUSH2 0x22DE JUMPI DUP2 DUP3 REVERT JUMPDEST DUP5 CALLDATALOAD PUSH8 0xFFFFFFFFFFFFFFFF DUP1 DUP3 GT ISZERO PUSH2 0x22F5 JUMPI DUP4 DUP5 REVERT JUMPDEST DUP2 DUP8 ADD SWAP2 POP DUP8 PUSH1 0x1F DUP4 ADD SLT PUSH2 0x2308 JUMPI DUP4 DUP5 REVERT JUMPDEST DUP2 CALLDATALOAD PUSH2 0x2316 PUSH2 0x2092 DUP3 PUSH2 0x2B59 JUMP JUMPDEST DUP1 DUP3 DUP3 MSTORE PUSH1 0x20 DUP1 DUP4 ADD SWAP3 POP DUP1 DUP7 ADD PUSH2 0x100 DUP14 DUP4 DUP3 DUP9 MUL DUP11 ADD ADD GT ISZERO PUSH2 0x2339 JUMPI DUP10 DUP11 REVERT JUMPDEST DUP10 SWAP8 POP JUMPDEST DUP6 DUP9 LT ISZERO PUSH2 0x2365 JUMPI PUSH2 0x234F DUP15 DUP4 PUSH2 0x2159 JUMP JUMPDEST DUP6 MSTORE PUSH1 0x1 SWAP8 SWAP1 SWAP8 ADD SWAP7 SWAP4 DUP3 ADD SWAP4 SWAP1 DUP2 ADD SWAP1 PUSH2 0x233D JUMP JUMPDEST POP SWAP2 SWAP10 POP DUP11 ADD CALLDATALOAD SWAP5 POP POP POP POP DUP1 DUP3 GT ISZERO PUSH2 0x237D JUMPI DUP4 DUP5 REVERT JUMPDEST PUSH2 0x2389 DUP9 DUP4 DUP10 ADD PUSH2 0x20F1 JUMP JUMPDEST SWAP5 POP PUSH1 0x40 DUP8 ADD CALLDATALOAD SWAP2 POP DUP1 DUP3 GT ISZERO PUSH2 0x239E JUMPI DUP4 DUP5 REVERT JUMPDEST PUSH2 0x23AA DUP9 DUP4 DUP10 ADD PUSH2 0x20F1 JUMP JUMPDEST SWAP4 POP PUSH1 0x60 DUP8 ADD CALLDATALOAD SWAP2 POP DUP1 DUP3 GT ISZERO PUSH2 0x23BF JUMPI DUP3 DUP4 REVERT JUMPDEST POP PUSH2 0x23CC DUP8 DUP3 DUP9 ADD PUSH2 0x2074 JUMP JUMPDEST SWAP2 POP POP SWAP3 SWAP6 SWAP2 SWAP5 POP SWAP3 POP JUMP JUMPDEST PUSH1 0x0 PUSH2 0x100 DUP3 DUP5 SUB SLT ISZERO PUSH2 0x23EA JUMPI DUP1 DUP2 REVERT JUMPDEST PUSH2 0x1DA2 DUP4 DUP4 PUSH2 0x2159 JUMP JUMPDEST PUSH1 0x0 DUP1 PUSH2 0x180 DUP4 DUP6 SUB SLT ISZERO PUSH2 0x2407 JUMPI DUP2 DUP3 REVERT JUMPDEST PUSH2 0x2411 DUP5 DUP5 PUSH2 0x2159 JUMP JUMPDEST SWAP2 POP PUSH2 0x2421 DUP5 PUSH2 0x100 DUP6 ADD PUSH2 0x2202 JUMP JUMPDEST SWAP1 POP SWAP3 POP SWAP3 SWAP1 POP JUMP JUMPDEST PUSH1 0x0 DUP1 PUSH1 0x0 PUSH2 0x200 DUP5 DUP7 SUB SLT ISZERO PUSH2 0x243F JUMPI DUP3 DUP4 REVERT JUMPDEST PUSH2 0x2449 DUP6 DUP6 PUSH2 0x2159 JUMP JUMPDEST SWAP3 POP PUSH2 0x2459 DUP6 PUSH2 0x100 DUP7 ADD PUSH2 0x2202 JUMP JUMPDEST SWAP2 POP PUSH2 0x2469 DUP6 PUSH2 0x180 DUP7 ADD PUSH2 0x2202 JUMP JUMPDEST SWAP1 POP SWAP3 POP SWAP3 POP SWAP3 JUMP JUMPDEST PUSH1 0x0 DUP1 PUSH1 0x0 PUSH2 0x1A0 DUP5 DUP7 SUB SLT ISZERO PUSH2 0x2487 JUMPI DUP3 DUP4 REVERT JUMPDEST PUSH2 0x2491 DUP6 DUP6 PUSH2 0x2159 JUMP JUMPDEST SWAP3 POP PUSH2 0x24A1 DUP6 PUSH2 0x100 DUP7 ADD PUSH2 0x2202 JUMP JUMPDEST SWAP2 POP PUSH2 0x180 DUP5 ADD CALLDATALOAD PUSH2 0x24B2 DUP2 PUSH2 0x2BED JUMP JUMPDEST DUP1 SWAP2 POP POP SWAP3 POP SWAP3 POP SWAP3 JUMP JUMPDEST PUSH1 0x0 DUP1 PUSH1 0x0 DUP1 PUSH1 0x0 DUP1 PUSH2 0x200 DUP8 DUP10 SUB SLT ISZERO PUSH2 0x24D6 JUMPI DUP4 DUP5 REVERT JUMPDEST PUSH2 0x24E0 DUP9 DUP9 PUSH2 0x2159 JUMP JUMPDEST SWAP6 POP PUSH2 0x24F0 DUP9 PUSH2 0x100 DUP10 ADD PUSH2 0x2202 JUMP JUMPDEST SWAP5 POP PUSH2 0x180 DUP8 ADD CALLDATALOAD PUSH2 0x2501 DUP2 PUSH2 0x2BED JUMP JUMPDEST SWAP4 POP PUSH2 0x1A0 DUP8 ADD CALLDATALOAD PUSH2 0x2512 DUP2 PUSH2 0x2BCB JUMP JUMPDEST SWAP3 POP PUSH2 0x1C0 DUP8 ADD CALLDATALOAD DUP1 ISZERO ISZERO DUP2 EQ PUSH2 0x2527 JUMPI DUP3 DUP4 REVERT JUMPDEST SWAP2 POP PUSH2 0x1E0 DUP8 ADD CALLDATALOAD PUSH2 0x2538 DUP2 PUSH2 0x2BCB JUMP JUMPDEST DUP1 SWAP2 POP POP SWAP3 SWAP6 POP SWAP3 SWAP6 POP SWAP3 SWAP6 JUMP JUMPDEST PUSH20 0xFFFFFFFFFFFFFFFFFFFFFFFFFFFFFFFFFFFFFFFF AND SWAP1 MSTORE JUMP JUMPDEST DUP1 MLOAD PUSH2 0x256B DUP2 PUSH2 0x2BBE JUMP JUMPDEST DUP3 MSTORE PUSH1 0x20 DUP2 DUP2 ADD MLOAD PUSH1 0xFF AND SWAP1 DUP4 ADD MSTORE PUSH1 0x40 DUP1 DUP3 ADD MLOAD SWAP1 DUP4 ADD MSTORE PUSH1 0x60 SWAP1 DUP2 ADD MLOAD SWAP2 ADD MSTORE JUMP JUMPDEST PUSH1 0x0 DUP3 MLOAD PUSH2 0x25A1 DUP2 DUP5 PUSH1 0x20 DUP8 ADD PUSH2 0x2B92 JUMP JUMPDEST SWAP2 SWAP1 SWAP2 ADD SWAP3 SWAP2 POP POP JUMP JUMPDEST PUSH32 0x1901000000000000000000000000000000000000000000000000000000000000 DUP2 MSTORE PUSH1 0x2 DUP2 ADD SWAP3 SWAP1 SWAP3 MSTORE PUSH1 0x22 DUP3 ADD MSTORE PUSH1 0x42 ADD SWAP1 JUMP JUMPDEST SWAP1 JUMP JUMPDEST PUSH20 0xFFFFFFFFFFFFFFFFFFFFFFFFFFFFFFFFFFFFFFFF SWAP2 SWAP1 SWAP2 AND DUP2 MSTORE PUSH1 0x20 ADD SWAP1 JUMP JUMPDEST PUSH1 0x20 DUP1 DUP3 MSTORE DUP3 MLOAD DUP3 DUP3 ADD DUP2 SWAP1 MSTORE PUSH1 0x0 SWAP2 SWAP1 DUP5 DUP3 ADD SWAP1 PUSH1 0x40 DUP6 ADD SWAP1 DUP5 JUMPDEST DUP2 DUP2 LT ISZERO PUSH2 0x263F JUMPI DUP4 MLOAD ISZERO ISZERO DUP4 MSTORE SWAP3 DUP5 ADD SWAP3 SWAP2 DUP5 ADD SWAP2 PUSH1 0x1 ADD PUSH2 0x2621 JUMP JUMPDEST POP SWAP1 SWAP7 SWAP6 POP POP POP POP POP POP JUMP JUMPDEST SWAP1 DUP2 MSTORE PUSH1 0x20 ADD SWAP1 JUMP JUMPDEST SWAP3 DUP4 MSTORE PUSH20 0xFFFFFFFFFFFFFFFFFFFFFFFFFFFFFFFFFFFFFFFF SWAP2 DUP3 AND PUSH1 0x20 DUP5 ADD MSTORE AND PUSH1 0x40 DUP3 ADD MSTORE PUSH1 0x60 ADD SWAP1 JUMP JUMPDEST SWAP7 DUP8 MSTORE PUSH20 0xFFFFFFFFFFFFFFFFFFFFFFFFFFFFFFFFFFFFFFFF SWAP6 DUP7 AND PUSH1 0x20 DUP9 ADD MSTORE SWAP4 DUP6 AND PUSH1 0x40 DUP8 ADD MSTORE SWAP2 DUP5 AND PUSH1 0x60 DUP7 ADD MSTORE SWAP1 SWAP3 AND PUSH1 0x80 DUP5 ADD MSTORE PUSH16 0xFFFFFFFFFFFFFFFFFFFFFFFFFFFFFFFF SWAP2 DUP3 AND PUSH1 0xA0 DUP5 ADD MSTORE AND PUSH1 0xC0 DUP3 ADD MSTORE PUSH1 0xE0 ADD SWAP1 JUMP JUMPDEST SWAP2 DUP3 MSTORE PUSH1 0xFF AND PUSH1 0x20 DUP3 ADD MSTORE PUSH1 0x40 ADD SWAP1 JUMP JUMPDEST SWAP4 DUP5 MSTORE PUSH1 0xFF SWAP3 SWAP1 SWAP3 AND PUSH1 0x20 DUP5 ADD MSTORE PUSH1 0x40 DUP4 ADD MSTORE PUSH1 0x60 DUP3 ADD MSTORE PUSH1 0x80 ADD SWAP1 JUMP JUMPDEST PUSH32 0xFFFFFFFF00000000000000000000000000000000000000000000000000000000 SWAP2 SWAP1 SWAP2 AND DUP2 MSTORE PUSH1 0x20 ADD SWAP1 JUMP JUMPDEST PUSH32 0xFFFFFFFF00000000000000000000000000000000000000000000000000000000 SWAP3 SWAP1 SWAP3 AND DUP3 MSTORE PUSH20 0xFFFFFFFFFFFFFFFFFFFFFFFFFFFFFFFFFFFFFFFF AND PUSH1 0x20 DUP3 ADD MSTORE PUSH1 0x40 ADD SWAP1 JUMP JUMPDEST PUSH1 0x60 DUP2 ADD PUSH2 0x278E DUP6 PUSH2 0x2BBE JUMP JUMPDEST SWAP4 DUP2 MSTORE PUSH1 0x20 DUP2 ADD SWAP3 SWAP1 SWAP3 MSTORE PUSH1 0x40 SWAP1 SWAP2 ADD MSTORE SWAP1 JUMP JUMPDEST PUSH1 0x40 DUP2 ADD PUSH2 0x27AF DUP5 PUSH2 0x2BBE JUMP JUMPDEST SWAP3 DUP2 MSTORE PUSH1 0x20 ADD MSTORE SWAP1 JUMP JUMPDEST PUSH1 0x40 DUP2 ADD PUSH1 0x6 DUP5 LT PUSH2 0x27AF JUMPI INVALID JUMPDEST PUSH1 0x0 PUSH1 0x20 DUP3 MSTORE DUP3 MLOAD DUP1 PUSH1 0x20 DUP5 ADD MSTORE PUSH2 0x27E6 DUP2 PUSH1 0x40 DUP6 ADD PUSH1 0x20 DUP8 ADD PUSH2 0x2B92 JUMP JUMPDEST PUSH1 0x1F ADD PUSH32 0xFFFFFFFFFFFFFFFFFFFFFFFFFFFFFFFFFFFFFFFFFFFFFFFFFFFFFFFFFFFFFFE0 AND SWAP2 SWAP1 SWAP2 ADD PUSH1 0x40 ADD SWAP3 SWAP2 POP POP JUMP JUMPDEST PUSH1 0x20 DUP1 DUP3 MSTORE PUSH1 0x3E SWAP1 DUP3 ADD MSTORE PUSH32 0x4F74634F7264657273466561747572653A3A66696C6C54616B65725369676E65 PUSH1 0x40 DUP3 ADD MSTORE PUSH32 0x644F74634F726465722F4D414B45525F544F4B454E5F4E4F545F574554480000 PUSH1 0x60 DUP3 ADD MSTORE PUSH1 0x80 ADD SWAP1 JUMP JUMPDEST PUSH1 0x20 DUP1 DUP3 MSTORE PUSH1 0x48 SWAP1 DUP3 ADD MSTORE PUSH32 0x4F74634F7264657273466561747572653A3A626174636846696C6C54616B6572 PUSH1 0x40 DUP3 ADD MSTORE PUSH32 0x5369676E65644F74634F72646572732F4D49534D4154434845445F4152524159 PUSH1 0x60 DUP3 ADD MSTORE PUSH32 0x5F4C454E47544853000000000000000000000000000000000000000000000000 PUSH1 0x80 DUP3 ADD MSTORE PUSH1 0xA0 ADD SWAP1 JUMP JUMPDEST PUSH1 0x20 DUP1 DUP3 MSTORE PUSH1 0x39 SWAP1 DUP3 ADD MSTORE PUSH32 0x4F74634F7264657273466561747572653A3A66696C6C4F74634F72646572466F PUSH1 0x40 DUP3 ADD MSTORE PUSH32 0x724574682F4D414B45525F544F4B454E5F4E4F545F5745544800000000000000 PUSH1 0x60 DUP3 ADD MSTORE PUSH1 0x80 ADD SWAP1 JUMP JUMPDEST PUSH1 0x20 DUP1 DUP3 MSTORE PUSH1 0x24 SWAP1 DUP3 ADD MSTORE PUSH32 0x466978696E546F6B656E5370656E6465722F43414E4E4F545F494E564F4B455F PUSH1 0x40 DUP3 ADD MSTORE PUSH32 0x53454C4600000000000000000000000000000000000000000000000000000000 PUSH1 0x60 DUP3 ADD MSTORE PUSH1 0x80 ADD SWAP1 JUMP JUMPDEST PUSH1 0x20 DUP1 DUP3 MSTORE PUSH1 0x39 SWAP1 DUP3 ADD MSTORE PUSH32 0x4F74634F7264657273466561747572653A3A66696C6C4F74634F726465725769 PUSH1 0x40 DUP3 ADD MSTORE PUSH32 0x74684574682F494E56414C49445F54414B45525F544F4B454E00000000000000 PUSH1 0x60 DUP3 ADD MSTORE PUSH1 0x80 ADD SWAP1 JUMP JUMPDEST DUP2 MLOAD DUP2 MSTORE PUSH1 0x20 DUP3 ADD MLOAD PUSH1 0x40 DUP3 ADD SWAP1 PUSH1 0x5 DUP2 LT PUSH2 0x2A27 JUMPI INVALID JUMPDEST DUP1 PUSH1 0x20 DUP5 ADD MSTORE POP SWAP3 SWAP2 POP POP JUMP JUMPDEST DUP4 MLOAD PUSH2 0x200 DUP3 ADD SWAP1 PUSH2 0x2A45 SWAP1 PUSH2 0x2B79 JUMP JUMPDEST DUP3 MSTORE PUSH20 0xFFFFFFFFFFFFFFFFFFFFFFFFFFFFFFFFFFFFFFFF PUSH1 0x20 DUP7 ADD MLOAD AND PUSH1 0x20 DUP4 ADD MSTORE PUSH1 0x40 DUP6 ADD MLOAD PUSH16 0xFFFFFFFFFFFFFFFFFFFFFFFFFFFFFFFF DUP1 DUP3 AND PUSH1 0x40 DUP6 ADD MSTORE DUP1 PUSH1 0x60 DUP9 ADD MLOAD AND PUSH1 0x60 DUP6 ADD MSTORE POP POP PUSH1 0x80 DUP6 ADD MLOAD PUSH2 0x2AA5 PUSH1 0x80 DUP5 ADD DUP3 PUSH2 0x2546 JUMP JUMPDEST POP PUSH1 0xA0 DUP6 ADD MLOAD PUSH2 0x2AB8 PUSH1 0xA0 DUP5 ADD DUP3 PUSH2 0x2546 JUMP JUMPDEST POP PUSH1 0xC0 DUP6 ADD MLOAD PUSH2 0x2ACB PUSH1 0xC0 DUP5 ADD DUP3 PUSH2 0x2546 JUMP JUMPDEST POP PUSH1 0xE0 DUP6 ADD MLOAD PUSH1 0xE0 DUP4 ADD MSTORE PUSH2 0x2AE4 PUSH2 0x100 DUP4 ADD DUP6 PUSH2 0x2560 JUMP JUMPDEST PUSH2 0x1DBF PUSH2 0x180 DUP4 ADD DUP5 PUSH2 0x2560 JUMP JUMPDEST PUSH16 0xFFFFFFFFFFFFFFFFFFFFFFFFFFFFFFFF SWAP2 SWAP1 SWAP2 AND DUP2 MSTORE PUSH1 0x20 ADD SWAP1 JUMP JUMPDEST PUSH16 0xFFFFFFFFFFFFFFFFFFFFFFFFFFFFFFFF SWAP3 DUP4 AND DUP2 MSTORE SWAP2 AND PUSH1 0x20 DUP3 ADD MSTORE PUSH1 0x40 ADD SWAP1 JUMP JUMPDEST PUSH1 0x40 MLOAD DUP2 DUP2 ADD PUSH8 0xFFFFFFFFFFFFFFFF DUP2 GT DUP3 DUP3 LT OR ISZERO PUSH2 0x2B51 JUMPI PUSH1 0x0 DUP1 REVERT JUMPDEST PUSH1 0x40 MSTORE SWAP2 SWAP1 POP JUMP JUMPDEST PUSH1 0x0 PUSH8 0xFFFFFFFFFFFFFFFF DUP3 GT ISZERO PUSH2 0x2B6F JUMPI DUP1 DUP2 REVERT JUMPDEST POP PUSH1 0x20 SWAP1 DUP2 MUL ADD SWAP1 JUMP JUMPDEST PUSH20 0xFFFFFFFFFFFFFFFFFFFFFFFFFFFFFFFFFFFFFFFF AND SWAP1 JUMP JUMPDEST PUSH1 0x0 JUMPDEST DUP4 DUP2 LT ISZERO PUSH2 0x2BAD JUMPI DUP2 DUP2 ADD MLOAD DUP4 DUP3 ADD MSTORE PUSH1 0x20 ADD PUSH2 0x2B95 JUMP JUMPDEST DUP4 DUP2 GT ISZERO PUSH2 0x1934 JUMPI POP POP PUSH1 0x0 SWAP2 ADD MSTORE JUMP JUMPDEST PUSH1 0x4 DUP2 LT PUSH2 0x2BC8 JUMPI INVALID JUMPDEST POP JUMP JUMPDEST PUSH20 0xFFFFFFFFFFFFFFFFFFFFFFFFFFFFFFFFFFFFFFFF DUP2 AND DUP2 EQ PUSH2 0x2BC8 JUMPI PUSH1 0x0 DUP1 REVERT JUMPDEST PUSH16 0xFFFFFFFFFFFFFFFFFFFFFFFFFFFFFFFF DUP2 AND DUP2 EQ PUSH2 0x2BC8 JUMPI PUSH1 0x0 DUP1 REVERT INVALID LOG2 PUSH5 0x6970667358 0x22 SLT KECCAK256 0xE3 0xA6 0xEB RETURN 0xB0 GASPRICE PUSH24 0xFB264B9C0933B12FA777790430C4E301225825301AF5C491 0x29 PUSH5 0x736F6C6343 STOP MOD 0xC STOP CALLER "
            },
            "methodIdentifiers": {
                "EIP712_DOMAIN_SEPARATOR()": "dab400f3",
                "FEATURE_NAME()": "6ae4b4f7",
                "FEATURE_VERSION()": "031b905c",
                "_fillOtcOrder((address,address,uint128,uint128,address,address,address,uint256),(uint8,uint8,bytes32,bytes32),uint128,address,bool,address)": "e4ba8439",
                "batchFillTakerSignedOtcOrders((address,address,uint128,uint128,address,address,address,uint256)[],(uint8,uint8,bytes32,bytes32)[],(uint8,uint8,bytes32,bytes32)[],bool[])": "e52d1764",
                "fillOtcOrder((address,address,uint128,uint128,address,address,address,uint256),(uint8,uint8,bytes32,bytes32),uint128)": "dac748d4",
                "fillOtcOrderForEth((address,address,uint128,uint128,address,address,address,uint256),(uint8,uint8,bytes32,bytes32),uint128)": "a578efaf",
                "fillOtcOrderWithEth((address,address,uint128,uint128,address,address,address,uint256),(uint8,uint8,bytes32,bytes32))": "706394d5",
                "fillTakerSignedOtcOrder((address,address,uint128,uint128,address,address,address,uint256),(uint8,uint8,bytes32,bytes32),(uint8,uint8,bytes32,bytes32))": "4f948110",
                "fillTakerSignedOtcOrderForEth((address,address,uint128,uint128,address,address,address,uint256),(uint8,uint8,bytes32,bytes32),(uint8,uint8,bytes32,bytes32))": "724d3953",
                "getOtcOrderHash((address,address,uint128,uint128,address,address,address,uint256))": "53476b89",
                "getOtcOrderInfo((address,address,uint128,uint128,address,address,address,uint256))": "8c807c43",
                "lastOtcTxOriginNonce(address,uint64)": "59ebfb45",
                "migrate()": "8fd3ab80"
            }
        }
    },
    "sourceTreeHashHex": "0xd468328642e7ab2e3ad3399199c470480c4dfe38e75d399f9430ecf160f41bb8",
    "compiler": {
        "name": "solc",
        "version": "0.6.12+commit.27d51765",
        "settings": {
            "remappings": [
                "@0x/contracts-utils=/home/runner/work/protocol/protocol/node_modules/@0x/contracts-utils",
                "@0x/contracts-erc20=/home/runner/work/protocol/protocol/contracts/zero-ex/node_modules/@0x/contracts-erc20"
            ],
            "optimizer": {
                "enabled": true,
                "runs": 1000000,
                "details": {
                    "yul": true,
                    "deduplicate": true,
                    "cse": true,
                    "constantOptimizer": true
                }
            },
            "outputSelection": {
                "*": {
                    "*": [
                        "abi",
                        "devdoc",
                        "evm.bytecode.object",
                        "evm.bytecode.sourceMap",
                        "evm.deployedBytecode.object",
                        "evm.deployedBytecode.sourceMap",
                        "evm.methodIdentifiers"
                    ]
                }
            },
            "evmVersion": "istanbul"
        }
    },
    "chains": {}
}